{
	"contracts/LotteryToken.sol": {
		"LotteryToken": {
			"abi": [
				{
					"inputs": [],
					"stateMutability": "nonpayable",
					"type": "constructor"
				},
				{
					"anonymous": false,
					"inputs": [
						{
							"indexed": true,
							"internalType": "address",
							"name": "owner",
							"type": "address"
						},
						{
							"indexed": true,
							"internalType": "address",
							"name": "spender",
							"type": "address"
						},
						{
							"indexed": false,
							"internalType": "uint256",
							"name": "value",
							"type": "uint256"
						}
					],
					"name": "Approval",
					"type": "event"
				},
				{
					"anonymous": false,
					"inputs": [
						{
							"indexed": true,
							"internalType": "address",
							"name": "previousKeeper",
							"type": "address"
						},
						{
							"indexed": true,
							"internalType": "address",
							"name": "newKeeper",
							"type": "address"
						}
					],
					"name": "BotKeeperChanged",
					"type": "event"
				},
				{
					"anonymous": false,
					"inputs": [
						{
							"indexed": true,
							"internalType": "address",
							"name": "sender",
							"type": "address"
						},
						{
							"indexed": true,
							"internalType": "uint256",
							"name": "amount",
							"type": "uint256"
						}
					],
					"name": "Donate",
					"type": "event"
				},
				{
					"anonymous": false,
					"inputs": [
						{
							"indexed": true,
							"internalType": "uint256",
							"name": "previousAmount",
							"type": "uint256"
						},
						{
							"indexed": true,
							"internalType": "uint256",
							"name": "newAmount",
							"type": "uint256"
						}
					],
					"name": "GenesisRewardChanged",
					"type": "event"
				},
				{
					"anonymous": false,
					"inputs": [
						{
							"indexed": true,
							"internalType": "address",
							"name": "previousOwner",
							"type": "address"
						},
						{
							"indexed": true,
							"internalType": "address",
							"name": "newOwner",
							"type": "address"
						}
					],
					"name": "OwnershipTransferred",
					"type": "event"
				},
				{
					"anonymous": false,
					"inputs": [
						{
							"indexed": false,
							"internalType": "address",
							"name": "account",
							"type": "address"
						}
					],
					"name": "Paused",
					"type": "event"
				},
				{
					"anonymous": false,
					"inputs": [
						{
							"indexed": true,
							"internalType": "address",
							"name": "from",
							"type": "address"
						},
						{
							"indexed": true,
							"internalType": "address",
							"name": "to",
							"type": "address"
						},
						{
							"indexed": false,
							"internalType": "uint256",
							"name": "value",
							"type": "uint256"
						}
					],
					"name": "Transfer",
					"type": "event"
				},
				{
					"anonymous": false,
					"inputs": [
						{
							"indexed": true,
							"internalType": "address",
							"name": "previusAAddress",
							"type": "address"
						},
						{
							"indexed": true,
							"internalType": "address",
							"name": "newAddress",
							"type": "address"
						}
					],
					"name": "TreasuryContractChanged",
					"type": "event"
				},
				{
					"anonymous": false,
					"inputs": [
						{
							"indexed": false,
							"internalType": "address",
							"name": "account",
							"type": "address"
						}
					],
					"name": "Unpaused",
					"type": "event"
				},
				{
					"inputs": [],
					"name": "AIRDROP_AMOUNT",
					"outputs": [
						{
							"internalType": "uint256",
							"name": "",
							"type": "uint256"
						}
					],
					"stateMutability": "view",
					"type": "function"
				},
				{
					"inputs": [],
					"name": "BASE_MINT",
					"outputs": [
						{
							"internalType": "uint256",
							"name": "",
							"type": "uint256"
						}
					],
					"stateMutability": "view",
					"type": "function"
				},
				{
					"inputs": [],
					"name": "WHITELIST_SALE_AMOUNT",
					"outputs": [
						{
							"internalType": "uint256",
							"name": "",
							"type": "uint256"
						}
					],
					"stateMutability": "view",
					"type": "function"
				},
				{
					"inputs": [],
					"name": "aidropDistributed",
					"outputs": [
						{
							"internalType": "uint256",
							"name": "",
							"type": "uint256"
						}
					],
					"stateMutability": "view",
					"type": "function"
				},
				{
					"inputs": [
						{
							"internalType": "address",
							"name": "owner",
							"type": "address"
						},
						{
							"internalType": "address",
							"name": "spender",
							"type": "address"
						}
					],
					"name": "allowance",
					"outputs": [
						{
							"internalType": "uint256",
							"name": "",
							"type": "uint256"
						}
					],
					"stateMutability": "view",
					"type": "function"
				},
				{
					"inputs": [
						{
							"internalType": "address",
							"name": "spender",
							"type": "address"
						},
						{
							"internalType": "uint256",
							"name": "amount",
							"type": "uint256"
						}
					],
					"name": "approve",
					"outputs": [
						{
							"internalType": "bool",
							"name": "",
							"type": "bool"
						}
					],
					"stateMutability": "nonpayable",
					"type": "function"
				},
				{
					"inputs": [
						{
							"internalType": "address",
							"name": "account",
							"type": "address"
						}
					],
					"name": "balanceOf",
					"outputs": [
						{
							"internalType": "uint256",
							"name": "",
							"type": "uint256"
						}
					],
					"stateMutability": "view",
					"type": "function"
				},
				{
					"inputs": [],
					"name": "botKeeper",
					"outputs": [
						{
							"internalType": "address",
							"name": "",
							"type": "address"
						}
					],
					"stateMutability": "view",
					"type": "function"
				},
				{
					"inputs": [
						{
							"internalType": "uint256",
							"name": "amount",
							"type": "uint256"
						}
					],
					"name": "burn",
					"outputs": [],
					"stateMutability": "nonpayable",
					"type": "function"
				},
				{
					"inputs": [],
					"name": "decimals",
					"outputs": [
						{
							"internalType": "uint8",
							"name": "",
							"type": "uint8"
						}
					],
					"stateMutability": "view",
					"type": "function"
				},
				{
					"inputs": [
						{
							"internalType": "address",
							"name": "spender",
							"type": "address"
						},
						{
							"internalType": "uint256",
							"name": "subtractedValue",
							"type": "uint256"
						}
					],
					"name": "decreaseAllowance",
					"outputs": [
						{
							"internalType": "bool",
							"name": "",
							"type": "bool"
						}
					],
					"stateMutability": "nonpayable",
					"type": "function"
				},
				{
					"inputs": [
						{
							"internalType": "address[]",
							"name": "_receivers",
							"type": "address[]"
						},
						{
							"internalType": "uint256",
							"name": "_value",
							"type": "uint256"
						}
					],
					"name": "distributeAirdrop",
					"outputs": [],
					"stateMutability": "nonpayable",
					"type": "function"
				},
				{
					"inputs": [
						{
							"internalType": "uint256",
							"name": "amount",
							"type": "uint256"
						}
					],
					"name": "donate",
					"outputs": [],
					"stateMutability": "nonpayable",
					"type": "function"
				},
				{
					"inputs": [
						{
							"internalType": "address",
							"name": "account",
							"type": "address"
						}
					],
					"name": "excludeAccount",
					"outputs": [],
					"stateMutability": "nonpayable",
					"type": "function"
				},
				{
					"inputs": [
						{
							"internalType": "address",
							"name": "account",
							"type": "address"
						}
					],
					"name": "genesisBalance",
					"outputs": [
						{
							"internalType": "uint256",
							"name": "",
							"type": "uint256"
						}
					],
					"stateMutability": "view",
					"type": "function"
				},
				{
					"inputs": [],
					"name": "genesisReward",
					"outputs": [
						{
							"internalType": "uint256",
							"name": "",
							"type": "uint256"
						}
					],
					"stateMutability": "view",
					"type": "function"
				},
				{
					"inputs": [],
					"name": "getCurrentRTSupply",
					"outputs": [
						{
							"internalType": "uint256",
							"name": "",
							"type": "uint256"
						},
						{
							"internalType": "uint256",
							"name": "",
							"type": "uint256"
						}
					],
					"stateMutability": "view",
					"type": "function"
				},
				{
					"inputs": [],
					"name": "getRate",
					"outputs": [
						{
							"internalType": "uint256",
							"name": "",
							"type": "uint256"
						}
					],
					"stateMutability": "view",
					"type": "function"
				},
				{
					"inputs": [
						{
							"internalType": "address",
							"name": "account",
							"type": "address"
						}
					],
					"name": "includeAccount",
					"outputs": [],
					"stateMutability": "nonpayable",
					"type": "function"
				},
				{
					"inputs": [
						{
							"internalType": "address",
							"name": "spender",
							"type": "address"
						},
						{
							"internalType": "uint256",
							"name": "addedValue",
							"type": "uint256"
						}
					],
					"name": "increaseAllowance",
					"outputs": [
						{
							"internalType": "bool",
							"name": "",
							"type": "bool"
						}
					],
					"stateMutability": "nonpayable",
					"type": "function"
				},
				{
					"inputs": [
						{
							"internalType": "address",
							"name": "account",
							"type": "address"
						}
					],
					"name": "isExcluded",
					"outputs": [
						{
							"internalType": "bool",
							"name": "",
							"type": "bool"
						}
					],
					"stateMutability": "view",
					"type": "function"
				},
				{
					"inputs": [
						{
							"internalType": "address",
							"name": "account",
							"type": "address"
						}
					],
					"name": "isGenesisAddress",
					"outputs": [
						{
							"internalType": "bool",
							"name": "",
							"type": "bool"
						}
					],
					"stateMutability": "view",
					"type": "function"
				},
				{
					"inputs": [
						{
							"internalType": "address",
							"name": "_receiver",
							"type": "address"
						},
						{
							"internalType": "uint256",
							"name": "amount",
							"type": "uint256"
						}
					],
					"name": "mint",
					"outputs": [],
					"stateMutability": "nonpayable",
					"type": "function"
				},
				{
					"inputs": [],
					"name": "name",
					"outputs": [
						{
							"internalType": "string",
							"name": "",
							"type": "string"
						}
					],
					"stateMutability": "view",
					"type": "function"
				},
				{
					"inputs": [
						{
							"internalType": "address[]",
							"name": "_receivers",
							"type": "address[]"
						},
						{
							"internalType": "uint256",
							"name": "_value",
							"type": "uint256"
						}
					],
					"name": "notifyGenesisAddresses",
					"outputs": [],
					"stateMutability": "nonpayable",
					"type": "function"
				},
				{
					"inputs": [],
					"name": "owner",
					"outputs": [
						{
							"internalType": "address",
							"name": "",
							"type": "address"
						}
					],
					"stateMutability": "view",
					"type": "function"
				},
				{
					"inputs": [],
					"name": "paused",
					"outputs": [
						{
							"internalType": "bool",
							"name": "",
							"type": "bool"
						}
					],
					"stateMutability": "view",
					"type": "function"
				},
				{
					"inputs": [
						{
							"internalType": "uint256",
							"name": "tAmount",
							"type": "uint256"
						},
						{
							"internalType": "bool",
							"name": "deductTransferFee",
							"type": "bool"
						}
					],
					"name": "reflectionFromToken",
					"outputs": [
						{
							"internalType": "uint256",
							"name": "",
							"type": "uint256"
						}
					],
					"stateMutability": "view",
					"type": "function"
				},
				{
					"inputs": [],
					"name": "registerAirdropDistribution",
					"outputs": [],
					"stateMutability": "nonpayable",
					"type": "function"
				},
				{
					"inputs": [],
					"name": "renounceOwnership",
					"outputs": [],
					"stateMutability": "nonpayable",
					"type": "function"
				},
				{
					"inputs": [
						{
							"internalType": "address",
							"name": "_newKeeper",
							"type": "address"
						}
					],
					"name": "setBotKeeper",
					"outputs": [],
					"stateMutability": "nonpayable",
					"type": "function"
				},
				{
					"inputs": [
						{
							"internalType": "uint256",
							"name": "amount",
							"type": "uint256"
						}
					],
					"name": "setGenesisReward",
					"outputs": [],
					"stateMutability": "nonpayable",
					"type": "function"
				},
				{
					"inputs": [
						{
							"internalType": "bool",
							"name": "_isPaused",
							"type": "bool"
						}
					],
					"name": "setTransferStatus",
					"outputs": [],
					"stateMutability": "nonpayable",
					"type": "function"
				},
				{
					"inputs": [
						{
							"internalType": "address",
							"name": "_newAddress",
							"type": "address"
						}
					],
					"name": "setTreasuryAddress",
					"outputs": [],
					"stateMutability": "nonpayable",
					"type": "function"
				},
				{
					"inputs": [],
					"name": "symbol",
					"outputs": [
						{
							"internalType": "string",
							"name": "",
							"type": "string"
						}
					],
					"stateMutability": "view",
					"type": "function"
				},
				{
					"inputs": [
						{
							"internalType": "uint256",
							"name": "rAmount",
							"type": "uint256"
						}
					],
					"name": "tokenFromReflection",
					"outputs": [
						{
							"internalType": "uint256",
							"name": "",
							"type": "uint256"
						}
					],
					"stateMutability": "view",
					"type": "function"
				},
				{
					"inputs": [],
					"name": "totalFees",
					"outputs": [
						{
							"internalType": "uint256",
							"name": "",
							"type": "uint256"
						}
					],
					"stateMutability": "view",
					"type": "function"
				},
				{
					"inputs": [],
					"name": "totalSupply",
					"outputs": [
						{
							"internalType": "uint256",
							"name": "",
							"type": "uint256"
						}
					],
					"stateMutability": "view",
					"type": "function"
				},
				{
					"inputs": [
						{
							"internalType": "address",
							"name": "recipient",
							"type": "address"
						},
						{
							"internalType": "uint256",
							"name": "amount",
							"type": "uint256"
						}
					],
					"name": "transfer",
					"outputs": [
						{
							"internalType": "bool",
							"name": "",
							"type": "bool"
						}
					],
					"stateMutability": "nonpayable",
					"type": "function"
				},
				{
					"inputs": [
						{
							"internalType": "address",
							"name": "sender",
							"type": "address"
						},
						{
							"internalType": "address",
							"name": "recipient",
							"type": "address"
						},
						{
							"internalType": "uint256",
							"name": "amount",
							"type": "uint256"
						}
					],
					"name": "transferFrom",
					"outputs": [
						{
							"internalType": "bool",
							"name": "",
							"type": "bool"
						}
					],
					"stateMutability": "nonpayable",
					"type": "function"
				},
				{
					"inputs": [
						{
							"internalType": "address",
							"name": "newOwner",
							"type": "address"
						}
					],
					"name": "transferOwnership",
					"outputs": [],
					"stateMutability": "nonpayable",
					"type": "function"
				},
				{
					"inputs": [],
					"name": "transferTaxRate",
					"outputs": [
						{
							"internalType": "uint16",
							"name": "",
							"type": "uint16"
						}
					],
					"stateMutability": "view",
					"type": "function"
				},
				{
					"inputs": [],
					"name": "treasuryContract",
					"outputs": [
						{
							"internalType": "address",
							"name": "",
							"type": "address"
						}
					],
					"stateMutability": "view",
					"type": "function"
				},
				{
					"inputs": [
						{
							"internalType": "address[]",
							"name": "recipients",
							"type": "address[]"
						},
						{
							"internalType": "uint256[]",
							"name": "amounts",
							"type": "uint256[]"
						}
					],
					"name": "treasuryTransfer",
					"outputs": [],
					"stateMutability": "nonpayable",
					"type": "function"
				},
				{
					"inputs": [
						{
							"internalType": "address",
							"name": "recipient",
							"type": "address"
						},
						{
							"internalType": "uint256",
							"name": "amount",
							"type": "uint256"
						}
					],
					"name": "treasuryTransfer",
					"outputs": [],
					"stateMutability": "nonpayable",
					"type": "function"
				},
				{
					"inputs": [],
					"name": "whitelistSaleDistributed",
					"outputs": [
						{
							"internalType": "uint256",
							"name": "",
							"type": "uint256"
						}
					],
					"stateMutability": "view",
					"type": "function"
				}
			],
			"devdoc": {
				"kind": "dev",
				"methods": {
					"allowance(address,address)": {
						"details": "Returns the remaining number of tokens that `spender` will be allowed to spend on behalf of `owner` through {transferFrom}. This is zero by default. This value changes when {approve} or {transferFrom} are called."
					},
					"approve(address,uint256)": {
						"details": "Sets `amount` as the allowance of `spender` over the caller's tokens. Returns a boolean value indicating whether the operation succeeded. IMPORTANT: Beware that changing an allowance with this method brings the risk that someone may use both the old and the new allowance by unfortunate transaction ordering. One possible solution to mitigate this race condition is to first reduce the spender's allowance to 0 and set the desired value afterwards: https://github.com/ethereum/EIPs/issues/20#issuecomment-263524729 Emits an {Approval} event."
					},
					"balanceOf(address)": {
						"details": "Returns the amount of tokens owned by `account`."
					},
					"owner()": {
						"details": "Returns the address of the current owner."
					},
					"paused()": {
						"details": "Returns true if the contract is paused, and false otherwise."
					},
					"renounceOwnership()": {
						"details": "Leaves the contract without owner. It will not be possible to call `onlyOwner` functions anymore. Can only be called by the current owner. NOTE: Renouncing ownership will leave the contract without an owner, thereby removing any functionality that is only available to the owner."
					},
					"totalSupply()": {
						"details": "Returns the amount of tokens in existence."
					},
					"transferOwnership(address)": {
						"details": "Transfers ownership of the contract to a new account (`newOwner`). Can only be called by the current owner."
					}
				},
				"version": 1
			},
			"evm": {
				"assembly": "    /* \"contracts/LotteryToken.sol\":8424:8462  string private _name = 'Lottery Token' */\n  0xc0\n    /* \"contracts/LotteryToken.sol\":7763:25002  contract LotteryToken is Context, IERC20, Ownable, Pausable {\r... */\n  0x40\n    /* \"contracts/LotteryToken.sol\":8424:8462  string private _name = 'Lottery Token' */\n  mstore\n  0x0d\n    /* \"contracts/LotteryToken.sol\":7763:25002  contract LotteryToken is Context, IERC20, Ownable, Pausable {\r... */\n  0x80\n    /* \"contracts/LotteryToken.sol\":8424:8462  string private _name = 'Lottery Token' */\n  dup2\n  swap1\n  mstore\n  shl(0x99, 0x2637ba3a32b93c902a37b5b2b7)\n  0xa0\n  swap1\n  dup2\n  mstore\n  tag_1\n  swap2\n  0x0b\n  swap2\n  swap1\n  tag_2\n  jump\t// in\ntag_1:\n  pop\n    /* \"contracts/LotteryToken.sol\":8469:8500  string private _symbol = 'LOTE' */\n  0x40\n  dup1\n  mload\n  dup1\n  dup3\n  add\n  swap1\n  swap2\n  mstore\n  0x04\n  dup1\n  dup3\n  mstore\n  shl(0xe0, 0x4c4f5445)\n  0x20\n  swap1\n  swap3\n  add\n  swap2\n  dup3\n  mstore\n  tag_3\n  swap2\n  0x0c\n  swap2\n  tag_2\n  jump\t// in\ntag_3:\n  pop\n    /* \"contracts/LotteryToken.sol\":8507:8535  uint8 private _decimals = 18 */\n  0x0d\n  dup1\n  sload\n    /* \"contracts/LotteryToken.sol\":8533:8535  18 */\n  0x12\n  not(0xff)\n    /* \"contracts/LotteryToken.sol\":8507:8535  uint8 private _decimals = 18 */\n  swap1\n  swap2\n  and\n  dup2\n  or\n  swap1\n  swap2\n  sstore\n    /* \"contracts/LotteryToken.sol\":9024:9059  uint16 public transferTaxRate = 100 */\n  dup1\n  sload\n  not(shl(0xa0, 0xffff))\n  and\n  shl(0xa2, 0x19)\n  or\n  swap1\n  sstore\n    /* \"contracts/LotteryToken.sol\":9535:9856  constructor () {\r... */\n  callvalue\n  dup1\n  iszero\n  tag_4\n  jumpi\n  0x00\n  dup1\n  revert\ntag_4:\n  pop\n    /* \"@openzeppelin/contracts/access/Ownable.sol\":921:953  _transferOwnership(_msgSender()) */\n  tag_9\n    /* \"@openzeppelin/contracts/utils/Context.sol\":719:729  msg.sender */\n  caller\n    /* \"@openzeppelin/contracts/access/Ownable.sol\":921:939  _transferOwnership */\n  tag_12\n    /* \"@openzeppelin/contracts/access/Ownable.sol\":921:953  _transferOwnership(_msgSender()) */\n  jump\t// in\ntag_9:\n    /* \"@openzeppelin/contracts/security/Pausable.sol\":991:996  false */\n  0x00\n    /* \"@openzeppelin/contracts/security/Pausable.sol\":981:996  _paused = false */\n  dup1\n  sload\n  not(shl(0xa0, 0xff))\n  and\n  dup2\n  sstore\n    /* \"@openzeppelin/contracts/utils/Context.sol\":719:729  msg.sender */\n  caller\n  swap1\n    /* \"contracts/LotteryToken.sol\":9619:9632  BASE_MINT*100 */\n  tag_16\n    /* \"contracts/LotteryToken.sol\":8853:8867  1*10**5*10**18 */\n  0x152d02c7e14af6800000\n    /* \"contracts/LotteryToken.sol\":9629:9632  100 */\n  0x64\n    /* \"contracts/LotteryToken.sol\":9619:9632  BASE_MINT*100 */\n  tag_17\n  jump\t// in\ntag_16:\n    /* \"contracts/LotteryToken.sol\":9649:9661  _totalSupply */\n  0x08\n    /* \"contracts/LotteryToken.sol\":9649:9670  _totalSupply = amount */\n  dup2\n  swap1\n  sstore\n  swap1\n  pop\n    /* \"contracts/LotteryToken.sol\":9681:9693  uint256 _max */\n  0x00\n    /* \"contracts/LotteryToken.sol\":9696:9709  MAX.div(1e12) */\n  tag_18\n  not(0x00)\n    /* \"contracts/LotteryToken.sol\":9704:9708  1e12 */\n  0xe8d4a51000\n    /* \"contracts/LotteryToken.sol\":9696:9703  MAX.div */\n  tag_19\n  0x20\n  swap1\n  dup2\n  shl\n  tag_0_220\n  or\n    /* \"contracts/LotteryToken.sol\":9696:9709  MAX.div(1e12) */\n  swap1\n  shr\n  jump\t// in\ntag_18:\n    /* \"contracts/LotteryToken.sol\":9681:9709  uint256 _max = MAX.div(1e12) */\n  swap1\n  pop\n    /* \"contracts/LotteryToken.sol\":9740:9756  _max % BASE_MINT */\n  tag_20\n    /* \"contracts/LotteryToken.sol\":8853:8867  1*10**5*10**18 */\n  0x152d02c7e14af6800000\n    /* \"contracts/LotteryToken.sol\":9681:9709  uint256 _max = MAX.div(1e12) */\n  dup3\n    /* \"contracts/LotteryToken.sol\":9740:9756  _max % BASE_MINT */\n  tag_21\n  jump\t// in\ntag_20:\n    /* \"contracts/LotteryToken.sol\":9732:9757  _max - (_max % BASE_MINT) */\n  tag_22\n  swap1\n    /* \"contracts/LotteryToken.sol\":9732:9736  _max */\n  dup3\n    /* \"contracts/LotteryToken.sol\":9732:9757  _max - (_max % BASE_MINT) */\n  tag_23\n  jump\t// in\ntag_22:\n    /* \"contracts/LotteryToken.sol\":9720:9727  _rTotal */\n  0x09\n    /* \"contracts/LotteryToken.sol\":9720:9759  _rTotal = ((_max - (_max % BASE_MINT))) */\n  dup2\n  swap1\n  sstore\n  sub(shl(0xa0, 0x01), 0x01)\n    /* \"contracts/LotteryToken.sol\":9770:9785  _rOwned[sender] */\n  dup5\n  and\n  0x00\n  dup2\n  dup2\n  mstore\n    /* \"contracts/LotteryToken.sol\":9770:9777  _rOwned */\n  0x01\n    /* \"contracts/LotteryToken.sol\":9770:9785  _rOwned[sender] */\n  0x20\n  mstore\n  0x40\n  dup1\n  dup3\n  keccak256\n    /* \"contracts/LotteryToken.sol\":9770:9796  _rOwned[sender] =  _rTotal */\n  swap4\n  swap1\n  swap4\n  sstore\n    /* \"contracts/LotteryToken.sol\":9812:9848  Transfer(address(0), sender, amount) */\n  swap2\n  mload\n    /* \"contracts/LotteryToken.sol\":9770:9785  _rOwned[sender] */\n  swap1\n  swap2\n  swap1\n    /* \"contracts/LotteryToken.sol\":9812:9848  Transfer(address(0), sender, amount) */\n  0xddf252ad1be2c89b69c2b068fc378daa952ba7f163c4a11628f55a4df523b3ef\n  swap1\n  tag_24\n  swap1\n    /* \"contracts/LotteryToken.sol\":9841:9847  amount */\n  dup7\n    /* \"#utility.yul\":160:185   */\n  dup2\n  mstore\n    /* \"#utility.yul\":148:150   */\n  0x20\n    /* \"#utility.yul\":133:151   */\n  add\n  swap1\n    /* \"#utility.yul\":14:191   */\n  jump\n    /* \"contracts/LotteryToken.sol\":9812:9848  Transfer(address(0), sender, amount) */\ntag_24:\n  mload(0x40)\n  dup1\n  swap2\n  sub\n  swap1\n  log3\n    /* \"contracts/LotteryToken.sol\":9550:9856  {\r... */\n  pop\n  pop\n  pop\n    /* \"contracts/LotteryToken.sol\":7763:25002  contract LotteryToken is Context, IERC20, Ownable, Pausable {\r... */\n  jump(tag_43)\n    /* \"@openzeppelin/contracts/access/Ownable.sol\":2270:2457  function _transferOwnership(address newOwner) internal virtual {... */\ntag_12:\n    /* \"@openzeppelin/contracts/access/Ownable.sol\":2343:2359  address oldOwner */\n  0x00\n    /* \"@openzeppelin/contracts/access/Ownable.sol\":2362:2368  _owner */\n  dup1\n  sload\n  sub(shl(0xa0, 0x01), 0x01)\n    /* \"@openzeppelin/contracts/access/Ownable.sol\":2378:2395  _owner = newOwner */\n  dup4\n  dup2\n  and\n  not(sub(shl(0xa0, 0x01), 0x01))\n  dup4\n  and\n  dup2\n  or\n  dup5\n  sstore\n    /* \"@openzeppelin/contracts/access/Ownable.sol\":2410:2450  OwnershipTransferred(oldOwner, newOwner) */\n  mload(0x40)\n    /* \"@openzeppelin/contracts/access/Ownable.sol\":2362:2368  _owner */\n  swap2\n  swap1\n  swap3\n  and\n  swap3\n  dup4\n  swap2\n    /* \"@openzeppelin/contracts/access/Ownable.sol\":2410:2450  OwnershipTransferred(oldOwner, newOwner) */\n  0x8be0079c531659141344cd1fd0a4f28419497f9722a3daafe3b4186f6b6457e0\n  swap2\n    /* \"@openzeppelin/contracts/access/Ownable.sol\":2343:2359  address oldOwner */\n  swap1\n    /* \"@openzeppelin/contracts/access/Ownable.sol\":2410:2450  OwnershipTransferred(oldOwner, newOwner) */\n  log3\n    /* \"@openzeppelin/contracts/access/Ownable.sol\":2333:2457  {... */\n  pop\n    /* \"@openzeppelin/contracts/access/Ownable.sol\":2270:2457  function _transferOwnership(address newOwner) internal virtual {... */\n  pop\n  jump\t// out\n    /* \"@openzeppelin/contracts/utils/math/SafeMath.sol\":3850:3946  function div(uint256 a, uint256 b) internal pure returns (uint256) {... */\ntag_19:\n    /* \"@openzeppelin/contracts/utils/math/SafeMath.sol\":3908:3915  uint256 */\n  0x00\n    /* \"@openzeppelin/contracts/utils/math/SafeMath.sol\":3934:3939  a / b */\n  tag_30\n    /* \"@openzeppelin/contracts/utils/math/SafeMath.sol\":3938:3939  b */\n  dup3\n    /* \"@openzeppelin/contracts/utils/math/SafeMath.sol\":3934:3935  a */\n  dup5\n    /* \"@openzeppelin/contracts/utils/math/SafeMath.sol\":3934:3939  a / b */\n  tag_31\n  jump\t// in\ntag_30:\n    /* \"@openzeppelin/contracts/utils/math/SafeMath.sol\":3927:3939  return a / b */\n  swap4\n    /* \"@openzeppelin/contracts/utils/math/SafeMath.sol\":3850:3946  function div(uint256 a, uint256 b) internal pure returns (uint256) {... */\n  swap3\n  pop\n  pop\n  pop\n  jump\t// out\n    /* \"contracts/LotteryToken.sol\":7763:25002  contract LotteryToken is Context, IERC20, Ownable, Pausable {\r... */\ntag_2:\n  dup3\n  dup1\n  sload\n  tag_32\n  swap1\n  tag_33\n  jump\t// in\ntag_32:\n  swap1\n  0x00\n  mstore\n  keccak256(0x00, 0x20)\n  swap1\n  0x1f\n  add\n  0x20\n  swap1\n  div\n  dup2\n  add\n  swap3\n  dup3\n  tag_35\n  jumpi\n  0x00\n  dup6\n  sstore\n  jump(tag_38)\ntag_35:\n  dup3\n  0x1f\n  lt\n  tag_36\n  jumpi\n  dup1\n  mload\n  not(0xff)\n  and\n  dup4\n  dup1\n  add\n  or\n  dup6\n  sstore\n  jump(tag_38)\ntag_36:\n  dup3\n  dup1\n  add\n  0x01\n  add\n  dup6\n  sstore\n  dup3\n  iszero\n  tag_38\n  jumpi\n  swap2\n  dup3\n  add\ntag_37:\n  dup3\n  dup2\n  gt\n  iszero\n  tag_38\n  jumpi\n  dup3\n  mload\n  dup3\n  sstore\n  swap2\n  0x20\n  add\n  swap2\n  swap1\n  0x01\n  add\n  swap1\n  jump(tag_37)\ntag_38:\n  pop\n  tag_39\n  swap3\n  swap2\n  pop\n  tag_40\n  jump\t// in\ntag_39:\n  pop\n  swap1\n  jump\t// out\ntag_40:\ntag_41:\n  dup1\n  dup3\n  gt\n  iszero\n  tag_39\n  jumpi\n  0x00\n  dup2\n  sstore\n  0x01\n  add\n  jump(tag_41)\n    /* \"#utility.yul\":196:316   */\ntag_31:\n    /* \"#utility.yul\":236:237   */\n  0x00\n    /* \"#utility.yul\":262:263   */\n  dup3\n    /* \"#utility.yul\":252:287   */\n  tag_47\n  jumpi\n    /* \"#utility.yul\":267:285   */\n  tag_47\n  tag_48\n  jump\t// in\ntag_47:\n  pop\n    /* \"#utility.yul\":301:310   */\n  div\n  swap1\n    /* \"#utility.yul\":196:316   */\n  jump\t// out\n    /* \"#utility.yul\":321:489   */\ntag_17:\n    /* \"#utility.yul\":361:368   */\n  0x00\n    /* \"#utility.yul\":427:428   */\n  dup2\n    /* \"#utility.yul\":423:424   */\n  0x00\n    /* \"#utility.yul\":419:425   */\n  not\n    /* \"#utility.yul\":415:429   */\n  div\n    /* \"#utility.yul\":412:413   */\n  dup4\n    /* \"#utility.yul\":409:430   */\n  gt\n    /* \"#utility.yul\":404:405   */\n  dup3\n    /* \"#utility.yul\":397:406   */\n  iszero\n    /* \"#utility.yul\":390:407   */\n  iszero\n    /* \"#utility.yul\":386:431   */\n  and\n    /* \"#utility.yul\":383:454   */\n  iszero\n  tag_51\n  jumpi\n    /* \"#utility.yul\":434:452   */\n  tag_51\n  tag_52\n  jump\t// in\ntag_51:\n  pop\n    /* \"#utility.yul\":474:483   */\n  mul\n  swap1\n    /* \"#utility.yul\":321:489   */\n  jump\t// out\n    /* \"#utility.yul\":494:619   */\ntag_23:\n    /* \"#utility.yul\":534:538   */\n  0x00\n    /* \"#utility.yul\":562:563   */\n  dup3\n    /* \"#utility.yul\":559:560   */\n  dup3\n    /* \"#utility.yul\":556:564   */\n  lt\n    /* \"#utility.yul\":553:587   */\n  iszero\n  tag_55\n  jumpi\n    /* \"#utility.yul\":567:585   */\n  tag_55\n  tag_52\n  jump\t// in\ntag_55:\n  pop\n    /* \"#utility.yul\":604:613   */\n  sub\n  swap1\n    /* \"#utility.yul\":494:619   */\n  jump\t// out\n    /* \"#utility.yul\":624:1004   */\ntag_33:\n    /* \"#utility.yul\":703:704   */\n  0x01\n    /* \"#utility.yul\":699:711   */\n  dup2\n  dup2\n  shr\n  swap1\n    /* \"#utility.yul\":746:758   */\n  dup3\n  and\n  dup1\n    /* \"#utility.yul\":767:828   */\n  tag_57\n  jumpi\n    /* \"#utility.yul\":821:825   */\n  0x7f\n    /* \"#utility.yul\":813:819   */\n  dup3\n    /* \"#utility.yul\":809:826   */\n  and\n    /* \"#utility.yul\":799:826   */\n  swap2\n  pop\n    /* \"#utility.yul\":767:828   */\ntag_57:\n    /* \"#utility.yul\":874:876   */\n  0x20\n    /* \"#utility.yul\":866:872   */\n  dup3\n    /* \"#utility.yul\":863:877   */\n  lt\n    /* \"#utility.yul\":843:861   */\n  dup2\n    /* \"#utility.yul\":840:878   */\n  eq\n    /* \"#utility.yul\":837:998   */\n  iszero\n  tag_58\n  jumpi\n    /* \"#utility.yul\":920:930   */\n  0x4e487b71\n    /* \"#utility.yul\":915:918   */\n  0xe0\n    /* \"#utility.yul\":911:931   */\n  shl\n    /* \"#utility.yul\":908:909   */\n  0x00\n    /* \"#utility.yul\":901:932   */\n  mstore\n    /* \"#utility.yul\":955:959   */\n  0x22\n    /* \"#utility.yul\":952:953   */\n  0x04\n    /* \"#utility.yul\":945:960   */\n  mstore\n    /* \"#utility.yul\":983:987   */\n  0x24\n    /* \"#utility.yul\":980:981   */\n  0x00\n    /* \"#utility.yul\":973:988   */\n  revert\n    /* \"#utility.yul\":837:998   */\ntag_58:\n  pop\n    /* \"#utility.yul\":624:1004   */\n  swap2\n  swap1\n  pop\n  jump\t// out\n    /* \"#utility.yul\":1009:1121   */\ntag_21:\n    /* \"#utility.yul\":1041:1042   */\n  0x00\n    /* \"#utility.yul\":1067:1068   */\n  dup3\n    /* \"#utility.yul\":1057:1092   */\n  tag_61\n  jumpi\n    /* \"#utility.yul\":1072:1090   */\n  tag_61\n  tag_48\n  jump\t// in\ntag_61:\n  pop\n    /* \"#utility.yul\":1106:1115   */\n  mod\n  swap1\n    /* \"#utility.yul\":1009:1121   */\n  jump\t// out\n    /* \"#utility.yul\":1126:1253   */\ntag_52:\n    /* \"#utility.yul\":1187:1197   */\n  0x4e487b71\n    /* \"#utility.yul\":1182:1185   */\n  0xe0\n    /* \"#utility.yul\":1178:1198   */\n  shl\n    /* \"#utility.yul\":1175:1176   */\n  0x00\n    /* \"#utility.yul\":1168:1199   */\n  mstore\n    /* \"#utility.yul\":1218:1222   */\n  0x11\n    /* \"#utility.yul\":1215:1216   */\n  0x04\n    /* \"#utility.yul\":1208:1223   */\n  mstore\n    /* \"#utility.yul\":1242:1246   */\n  0x24\n    /* \"#utility.yul\":1239:1240   */\n  0x00\n    /* \"#utility.yul\":1232:1247   */\n  revert\n    /* \"#utility.yul\":1258:1385   */\ntag_48:\n    /* \"#utility.yul\":1319:1329   */\n  0x4e487b71\n    /* \"#utility.yul\":1314:1317   */\n  0xe0\n    /* \"#utility.yul\":1310:1330   */\n  shl\n    /* \"#utility.yul\":1307:1308   */\n  0x00\n    /* \"#utility.yul\":1300:1331   */\n  mstore\n    /* \"#utility.yul\":1350:1354   */\n  0x12\n    /* \"#utility.yul\":1347:1348   */\n  0x04\n    /* \"#utility.yul\":1340:1355   */\n  mstore\n    /* \"#utility.yul\":1374:1378   */\n  0x24\n    /* \"#utility.yul\":1371:1372   */\n  0x00\n    /* \"#utility.yul\":1364:1379   */\n  revert\n    /* \"#utility.yul\":1258:1385   */\ntag_43:\n    /* \"contracts/LotteryToken.sol\":7763:25002  contract LotteryToken is Context, IERC20, Ownable, Pausable {\r... */\n  dataSize(sub_0)\n  dup1\n  dataOffset(sub_0)\n  0x00\n  codecopy\n  0x00\n  return\nstop\n\nsub_0: assembly {\n        /* \"contracts/LotteryToken.sol\":7763:25002  contract LotteryToken is Context, IERC20, Ownable, Pausable {\r... */\n      mstore(0x40, 0x80)\n      callvalue\n      dup1\n      iszero\n      tag_1\n      jumpi\n      0x00\n      dup1\n      revert\n    tag_1:\n      pop\n      jumpi(tag_2, lt(calldatasize, 0x04))\n      shr(0xe0, calldataload(0x00))\n      dup1\n      0x70a08231\n      gt\n      tag_49\n      jumpi\n      dup1\n      0xcba0e996\n      gt\n      tag_50\n      jumpi\n      dup1\n      0xf0c3443d\n      gt\n      tag_51\n      jumpi\n      dup1\n      0xf0c3443d\n      eq\n      tag_43\n      jumpi\n      dup1\n      0xf14faf6f\n      eq\n      tag_44\n      jumpi\n      dup1\n      0xf2cc0c18\n      eq\n      tag_45\n      jumpi\n      dup1\n      0xf2fde38b\n      eq\n      tag_46\n      jumpi\n      dup1\n      0xf79e7354\n      eq\n      tag_47\n      jumpi\n      dup1\n      0xf84354f1\n      eq\n      tag_48\n      jumpi\n      0x00\n      dup1\n      revert\n    tag_51:\n      dup1\n      0xcba0e996\n      eq\n      tag_37\n      jumpi\n      dup1\n      0xd82cc2d7\n      eq\n      tag_38\n      jumpi\n      dup1\n      0xdd62ed3e\n      eq\n      tag_39\n      jumpi\n      dup1\n      0xe8e23594\n      eq\n      tag_40\n      jumpi\n      dup1\n      0xee188362\n      eq\n      tag_41\n      jumpi\n      dup1\n      0xf0171648\n      eq\n      tag_42\n      jumpi\n      0x00\n      dup1\n      revert\n    tag_50:\n      dup1\n      0x9941f3ab\n      gt\n      tag_52\n      jumpi\n      dup1\n      0x9941f3ab\n      eq\n      tag_31\n      jumpi\n      dup1\n      0x9bcc6102\n      eq\n      tag_32\n      jumpi\n      dup1\n      0xa457c2d7\n      eq\n      tag_33\n      jumpi\n      dup1\n      0xa9059cbb\n      eq\n      tag_34\n      jumpi\n      dup1\n      0xae823f3b\n      eq\n      tag_35\n      jumpi\n      dup1\n      0xb65d08b0\n      eq\n      tag_36\n      jumpi\n      0x00\n      dup1\n      revert\n    tag_52:\n      dup1\n      0x70a08231\n      eq\n      tag_26\n      jumpi\n      dup1\n      0x715018a6\n      eq\n      tag_27\n      jumpi\n      dup1\n      0x8da5cb5b\n      eq\n      tag_28\n      jumpi\n      dup1\n      0x94594625\n      eq\n      tag_29\n      jumpi\n      dup1\n      0x95d89b41\n      eq\n      tag_30\n      jumpi\n      0x00\n      dup1\n      revert\n    tag_49:\n      dup1\n      0x313ce567\n      gt\n      tag_53\n      jumpi\n      dup1\n      0x4549b039\n      gt\n      tag_54\n      jumpi\n      dup1\n      0x4549b039\n      eq\n      tag_20\n      jumpi\n      dup1\n      0x493770cc\n      eq\n      tag_21\n      jumpi\n      dup1\n      0x5a1a1c3d\n      eq\n      tag_22\n      jumpi\n      dup1\n      0x5c975abb\n      eq\n      tag_23\n      jumpi\n      dup1\n      0x6605bfda\n      eq\n      tag_24\n      jumpi\n      dup1\n      0x679aefce\n      eq\n      tag_25\n      jumpi\n      0x00\n      dup1\n      revert\n    tag_54:\n      dup1\n      0x313ce567\n      eq\n      tag_14\n      jumpi\n      dup1\n      0x324884a9\n      eq\n      tag_15\n      jumpi\n      dup1\n      0x39509351\n      eq\n      tag_16\n      jumpi\n      dup1\n      0x400d6844\n      eq\n      tag_17\n      jumpi\n      dup1\n      0x40c10f19\n      eq\n      tag_18\n      jumpi\n      dup1\n      0x42966c68\n      eq\n      tag_19\n      jumpi\n      0x00\n      dup1\n      revert\n    tag_53:\n      dup1\n      0x23b872dd\n      gt\n      tag_55\n      jumpi\n      dup1\n      0x23b872dd\n      eq\n      tag_8\n      jumpi\n      dup1\n      0x29200995\n      eq\n      tag_9\n      jumpi\n      dup1\n      0x2b5b6872\n      eq\n      tag_10\n      jumpi\n      dup1\n      0x2d838119\n      eq\n      tag_11\n      jumpi\n      dup1\n      0x30d8ce9e\n      eq\n      tag_12\n      jumpi\n      dup1\n      0x30f4a0b0\n      eq\n      tag_13\n      jumpi\n      0x00\n      dup1\n      revert\n    tag_55:\n      dup1\n      0x06fdde03\n      eq\n      tag_3\n      jumpi\n      dup1\n      0x095ea7b3\n      eq\n      tag_4\n      jumpi\n      dup1\n      0x13114a9d\n      eq\n      tag_5\n      jumpi\n      dup1\n      0x18160ddd\n      eq\n      tag_6\n      jumpi\n      dup1\n      0x18da0011\n      eq\n      tag_7\n      jumpi\n    tag_2:\n      0x00\n      dup1\n      revert\n        /* \"contracts/LotteryToken.sol\":9864:9947  function name() public view returns (string memory) {\r... */\n    tag_3:\n      tag_56\n      tag_57\n      jump\t// in\n    tag_56:\n      mload(0x40)\n      tag_58\n      swap2\n      swap1\n      tag_59\n      jump\t// in\n    tag_58:\n      mload(0x40)\n      dup1\n      swap2\n      sub\n      swap1\n      return\n        /* \"contracts/LotteryToken.sol\":11611:11772  function approve(address spender, uint256 amount) public override returns (bool) {\r... */\n    tag_4:\n      tag_60\n      tag_61\n      calldatasize\n      0x04\n      tag_62\n      jump\t// in\n    tag_61:\n      tag_63\n      jump\t// in\n    tag_60:\n      mload(0x40)\n        /* \"#utility.yul\":4660:4674   */\n      swap1\n      iszero\n        /* \"#utility.yul\":4653:4675   */\n      iszero\n        /* \"#utility.yul\":4635:4676   */\n      dup2\n      mstore\n        /* \"#utility.yul\":4623:4625   */\n      0x20\n        /* \"#utility.yul\":4608:4626   */\n      add\n        /* \"contracts/LotteryToken.sol\":11611:11772  function approve(address spender, uint256 amount) public override returns (bool) {\r... */\n      tag_58\n        /* \"#utility.yul\":4495:4682   */\n      jump\n        /* \"contracts/LotteryToken.sol\":12722:12809  function totalFees() public view returns (uint256) {\r... */\n    tag_5:\n        /* \"contracts/LotteryToken.sol\":12791:12801  _tFeeTotal */\n      sload(0x0a)\n        /* \"contracts/LotteryToken.sol\":12722:12809  function totalFees() public view returns (uint256) {\r... */\n    tag_66:\n      mload(0x40)\n        /* \"#utility.yul\":13440:13465   */\n      swap1\n      dup2\n      mstore\n        /* \"#utility.yul\":13428:13430   */\n      0x20\n        /* \"#utility.yul\":13413:13431   */\n      add\n        /* \"contracts/LotteryToken.sol\":12722:12809  function totalFees() public view returns (uint256) {\r... */\n      tag_58\n        /* \"#utility.yul\":13294:13471   */\n      jump\n        /* \"contracts/LotteryToken.sol\":10141:10241  function totalSupply() public view override returns (uint256) {\r... */\n    tag_6:\n        /* \"contracts/LotteryToken.sol\":10221:10233  _totalSupply */\n      sload(0x08)\n        /* \"contracts/LotteryToken.sol\":10141:10241  function totalSupply() public view override returns (uint256) {\r... */\n      jump(tag_66)\n        /* \"contracts/LotteryToken.sol\":8984:9015  address public treasuryContract */\n    tag_7:\n      sload(0x12)\n      tag_73\n      swap1\n      sub(shl(0xa0, 0x01), 0x01)\n      and\n      dup2\n      jump\n    tag_73:\n      mload(0x40)\n      sub(shl(0xa0, 0x01), 0x01)\n        /* \"#utility.yul\":4451:4483   */\n      swap1\n      swap2\n      and\n        /* \"#utility.yul\":4433:4484   */\n      dup2\n      mstore\n        /* \"#utility.yul\":4421:4423   */\n      0x20\n        /* \"#utility.yul\":4406:4424   */\n      add\n        /* \"contracts/LotteryToken.sol\":8984:9015  address public treasuryContract */\n      tag_58\n        /* \"#utility.yul\":4287:4490   */\n      jump\n        /* \"contracts/LotteryToken.sol\":11780:12093  function transferFrom(address sender, address recipient, uint256 amount) public override returns (bool) {\r... */\n    tag_8:\n      tag_60\n      tag_78\n      calldatasize\n      0x04\n      tag_79\n      jump\t// in\n    tag_78:\n      tag_80\n      jump\t// in\n        /* \"contracts/LotteryToken.sol\":8953:8977  address public botKeeper */\n    tag_9:\n      sload(0x11)\n      tag_73\n      swap1\n      sub(shl(0xa0, 0x01), 0x01)\n      and\n      dup2\n      jump\n        /* \"contracts/LotteryToken.sol\":8579:8632  uint256 public constant AIRDROP_AMOUNT = 10**6*10**18 */\n    tag_10:\n      tag_66\n        /* \"contracts/LotteryToken.sol\":8620:8632  10**6*10**18 */\n      0xd3c21bcecceda1000000\n        /* \"contracts/LotteryToken.sol\":8579:8632  uint256 public constant AIRDROP_AMOUNT = 10**6*10**18 */\n      dup2\n      jump\n        /* \"contracts/LotteryToken.sol\":16128:16381  function tokenFromReflection(uint256 rAmount) public view returns(uint256) {\r... */\n    tag_11:\n      tag_66\n      tag_89\n      calldatasize\n      0x04\n      tag_90\n      jump\t// in\n    tag_89:\n      tag_91\n      jump\t// in\n        /* \"contracts/LotteryToken.sol\":11208:11452  function treasuryTransfer(address[] memory recipients, uint256[] memory amounts) public onlyTreasury {\r... */\n    tag_12:\n      tag_93\n      tag_94\n      calldatasize\n      0x04\n      tag_95\n      jump\t// in\n    tag_94:\n      tag_96\n      jump\t// in\n    tag_93:\n      stop\n        /* \"contracts/LotteryToken.sol\":8732:8764  uint256 public aidropDistributed */\n    tag_13:\n      tag_66\n      sload(0x0f)\n      dup2\n      jump\n        /* \"contracts/LotteryToken.sol\":10050:10133  function decimals() public view returns (uint8) {\r... */\n    tag_14:\n        /* \"contracts/LotteryToken.sol\":10116:10125  _decimals */\n      sload(0x0d)\n        /* \"contracts/LotteryToken.sol\":10050:10133  function decimals() public view returns (uint8) {\r... */\n      mload(0x40)\n        /* \"contracts/LotteryToken.sol\":10116:10125  _decimals */\n      0xff\n      swap1\n      swap2\n      and\n        /* \"#utility.yul\":13871:13907   */\n      dup2\n      mstore\n        /* \"#utility.yul\":13859:13861   */\n      0x20\n        /* \"#utility.yul\":13844:13862   */\n      add\n        /* \"contracts/LotteryToken.sol\":10050:10133  function decimals() public view returns (uint8) {\r... */\n      tag_58\n        /* \"#utility.yul\":13729:13913   */\n      jump\n        /* \"contracts/LotteryToken.sol\":10342:10465  function isGenesisAddress(address account) public view returns (bool) {\r... */\n    tag_15:\n      tag_60\n      tag_105\n      calldatasize\n      0x04\n      tag_106\n      jump\t// in\n    tag_105:\n      sub(shl(0xa0, 0x01), 0x01)\n        /* \"contracts/LotteryToken.sol\":10430:10452  _addressLevel[account] */\n      and\n        /* \"contracts/LotteryToken.sol\":10406:10410  bool */\n      0x00\n        /* \"contracts/LotteryToken.sol\":10430:10452  _addressLevel[account] */\n      swap1\n      dup2\n      mstore\n        /* \"contracts/LotteryToken.sol\":10430:10443  _addressLevel */\n      0x04\n        /* \"contracts/LotteryToken.sol\":10430:10452  _addressLevel[account] */\n      0x20\n      mstore\n      0x40\n      swap1\n      keccak256\n      sload\n        /* \"contracts/LotteryToken.sol\":10430:10457  _addressLevel[account] == 0 */\n      iszero\n      swap1\n        /* \"contracts/LotteryToken.sol\":10342:10465  function isGenesisAddress(address account) public view returns (bool) {\r... */\n      jump\n        /* \"contracts/LotteryToken.sol\":12101:12319  function increaseAllowance(address spender, uint256 addedValue) public virtual returns (bool) {\r... */\n    tag_16:\n      tag_60\n      tag_110\n      calldatasize\n      0x04\n      tag_62\n      jump\t// in\n    tag_110:\n      tag_111\n      jump\t// in\n        /* \"contracts/LotteryToken.sol\":8817:8867  uint256 public constant BASE_MINT = 1*10**5*10**18 */\n    tag_17:\n      tag_66\n        /* \"contracts/LotteryToken.sol\":8853:8867  1*10**5*10**18 */\n      0x152d02c7e14af6800000\n        /* \"contracts/LotteryToken.sol\":8817:8867  uint256 public constant BASE_MINT = 1*10**5*10**18 */\n      dup2\n      jump\n        /* \"contracts/LotteryToken.sol\":12817:12926  function mint(address _receiver, uint amount) public onlyTreasury {\r... */\n    tag_18:\n      tag_93\n      tag_117\n      calldatasize\n      0x04\n      tag_62\n      jump\t// in\n    tag_117:\n      tag_118\n      jump\t// in\n        /* \"contracts/LotteryToken.sol\":12934:13013  function burn(uint amount) public onlyTreasury {\r... */\n    tag_19:\n      tag_93\n      tag_120\n      calldatasize\n      0x04\n      tag_90\n      jump\t// in\n    tag_120:\n      tag_121\n      jump\t// in\n        /* \"contracts/LotteryToken.sol\":15681:16120  function reflectionFromToken(uint256 tAmount, bool deductTransferFee) public view returns(uint256) {\r... */\n    tag_20:\n      tag_66\n      tag_123\n      calldatasize\n      0x04\n      tag_124\n      jump\t// in\n    tag_123:\n      tag_125\n      jump\t// in\n        /* \"contracts/LotteryToken.sol\":14997:15225  function setTransferStatus(bool _isPaused) public {\r... */\n    tag_21:\n      tag_93\n      tag_128\n      calldatasize\n      0x04\n      tag_129\n      jump\t// in\n    tag_128:\n      tag_130\n      jump\t// in\n        /* \"contracts/LotteryToken.sol\":13897:14293  function registerAirdropDistribution() public onlyOwner {\r... */\n    tag_22:\n      tag_93\n      tag_132\n      jump\t// in\n        /* \"@openzeppelin/contracts/security/Pausable.sol\":1098:1182  function paused() public view virtual returns (bool) {... */\n    tag_23:\n        /* \"@openzeppelin/contracts/security/Pausable.sol\":1145:1149  bool */\n      0x00\n        /* \"@openzeppelin/contracts/security/Pausable.sol\":1168:1175  _paused */\n      sload\n      shl(0xa0, 0x01)\n      swap1\n      div\n      0xff\n      and\n        /* \"@openzeppelin/contracts/security/Pausable.sol\":1098:1182  function paused() public view virtual returns (bool) {... */\n      jump(tag_60)\n        /* \"contracts/LotteryToken.sol\":14804:14989  function setTreasuryAddress(address _newAddress) public onlyOwner {\r... */\n    tag_24:\n      tag_93\n      tag_137\n      calldatasize\n      0x04\n      tag_106\n      jump\t// in\n    tag_137:\n      tag_138\n      jump\t// in\n        /* \"contracts/LotteryToken.sol\":10249:10334  function getRate() public view returns (uint256) {\r... */\n    tag_25:\n      tag_66\n      tag_140\n      jump\t// in\n        /* \"contracts/LotteryToken.sol\":10640:10867  function balanceOf(address account) public view override returns (uint256) {\r... */\n    tag_26:\n      tag_66\n      tag_143\n      calldatasize\n      0x04\n      tag_106\n      jump\t// in\n    tag_143:\n      tag_144\n      jump\t// in\n        /* \"@openzeppelin/contracts/access/Ownable.sol\":1668:1769  function renounceOwnership() public virtual onlyOwner {... */\n    tag_27:\n      tag_93\n      tag_147\n      jump\t// in\n        /* \"@openzeppelin/contracts/access/Ownable.sol\":1036:1121  function owner() public view virtual returns (address) {... */\n    tag_28:\n        /* \"@openzeppelin/contracts/access/Ownable.sol\":1082:1089  address */\n      0x00\n        /* \"@openzeppelin/contracts/access/Ownable.sol\":1108:1114  _owner */\n      sload\n      sub(shl(0xa0, 0x01), 0x01)\n      and\n        /* \"@openzeppelin/contracts/access/Ownable.sol\":1036:1121  function owner() public view virtual returns (address) {... */\n      jump(tag_73)\n        /* \"contracts/LotteryToken.sol\":13256:13837  function distributeAirdrop(address[] memory _receivers, uint _value) public onlyOwner {\r... */\n    tag_29:\n      tag_93\n      tag_152\n      calldatasize\n      0x04\n      tag_153\n      jump\t// in\n    tag_152:\n      tag_154\n      jump\t// in\n        /* \"contracts/LotteryToken.sol\":9955:10042  function symbol() public view returns (string memory) {\r... */\n    tag_30:\n      tag_56\n      tag_156\n      jump\t// in\n        /* \"contracts/LotteryToken.sol\":10473:10632  function genesisBalance(address account) public view returns (uint256) {\r... */\n    tag_31:\n      tag_66\n      tag_159\n      calldatasize\n      0x04\n      tag_106\n      jump\t// in\n    tag_159:\n      tag_160\n      jump\t// in\n        /* \"contracts/LotteryToken.sol\":8651:8713  uint256 public constant WHITELIST_SALE_AMOUNT = 5*10**6*10**18 */\n    tag_32:\n      tag_66\n        /* \"contracts/LotteryToken.sol\":8699:8713  5*10**6*10**18 */\n      0x0422ca8b0a00a425000000\n        /* \"contracts/LotteryToken.sol\":8651:8713  uint256 public constant WHITELIST_SALE_AMOUNT = 5*10**6*10**18 */\n      dup2\n      jump\n        /* \"contracts/LotteryToken.sol\":12327:12596  function decreaseAllowance(address spender, uint256 subtractedValue) public virtual returns (bool) {\r... */\n    tag_33:\n      tag_60\n      tag_166\n      calldatasize\n      0x04\n      tag_62\n      jump\t// in\n    tag_166:\n      tag_167\n      jump\t// in\n        /* \"contracts/LotteryToken.sol\":10875:11042  function transfer(address recipient, uint256 amount) public override returns (bool) {\r... */\n    tag_34:\n      tag_60\n      tag_170\n      calldatasize\n      0x04\n      tag_62\n      jump\t// in\n    tag_170:\n      tag_171\n      jump\t// in\n        /* \"contracts/LotteryToken.sol\":24302:24416  function getCurrentRTSupply() public view returns (uint256, uint256) {\r... */\n    tag_35:\n      tag_173\n      tag_174\n      jump\t// in\n    tag_173:\n      0x40\n      dup1\n      mload\n        /* \"#utility.yul\":13650:13675   */\n      swap3\n      dup4\n      mstore\n        /* \"#utility.yul\":13706:13708   */\n      0x20\n        /* \"#utility.yul\":13691:13709   */\n      dup4\n      add\n        /* \"#utility.yul\":13684:13718   */\n      swap2\n      swap1\n      swap2\n      mstore\n        /* \"#utility.yul\":13623:13641   */\n      add\n        /* \"contracts/LotteryToken.sol\":24302:24416  function getCurrentRTSupply() public view returns (uint256, uint256) {\r... */\n      tag_58\n        /* \"#utility.yul\":13476:13724   */\n      jump\n        /* \"contracts/LotteryToken.sol\":9024:9059  uint16 public transferTaxRate = 100 */\n    tag_36:\n      sload(0x12)\n      tag_177\n      swap1\n      shl(0xa0, 0x01)\n      swap1\n      div\n      0xffff\n      and\n      dup2\n      jump\n    tag_177:\n      mload(0x40)\n        /* \"#utility.yul\":13275:13281   */\n      0xffff\n        /* \"#utility.yul\":13263:13282   */\n      swap1\n      swap2\n      and\n        /* \"#utility.yul\":13245:13283   */\n      dup2\n      mstore\n        /* \"#utility.yul\":13233:13235   */\n      0x20\n        /* \"#utility.yul\":13218:13236   */\n      add\n        /* \"contracts/LotteryToken.sol\":9024:9059  uint16 public transferTaxRate = 100 */\n      tag_58\n        /* \"#utility.yul\":13101:13289   */\n      jump\n        /* \"contracts/LotteryToken.sol\":12604:12714  function isExcluded(address account) public view returns (bool) {\r... */\n    tag_37:\n      tag_60\n      tag_182\n      calldatasize\n      0x04\n      tag_106\n      jump\t// in\n    tag_182:\n      sub(shl(0xa0, 0x01), 0x01)\n        /* \"contracts/LotteryToken.sol\":12686:12706  _isExcluded[account] */\n      and\n        /* \"contracts/LotteryToken.sol\":12662:12666  bool */\n      0x00\n        /* \"contracts/LotteryToken.sol\":12686:12706  _isExcluded[account] */\n      swap1\n      dup2\n      mstore\n        /* \"contracts/LotteryToken.sol\":12686:12697  _isExcluded */\n      0x05\n        /* \"contracts/LotteryToken.sol\":12686:12706  _isExcluded[account] */\n      0x20\n      mstore\n      0x40\n      swap1\n      keccak256\n      sload\n      0xff\n      and\n      swap1\n        /* \"contracts/LotteryToken.sol\":12604:12714  function isExcluded(address account) public view returns (bool) {\r... */\n      jump\n        /* \"contracts/LotteryToken.sol\":13021:13248  function notifyGenesisAddresses(address[] memory _receivers, uint _value) public onlyOwner {\r... */\n    tag_38:\n      tag_93\n      tag_186\n      calldatasize\n      0x04\n      tag_153\n      jump\t// in\n    tag_186:\n      tag_187\n      jump\t// in\n        /* \"contracts/LotteryToken.sol\":11460:11603  function allowance(address owner, address spender) public view override returns (uint256) {\r... */\n    tag_39:\n      tag_66\n      tag_189\n      calldatasize\n      0x04\n      tag_190\n      jump\t// in\n    tag_189:\n      sub(shl(0xa0, 0x01), 0x01)\n        /* \"contracts/LotteryToken.sol\":11568:11586  _allowances[owner] */\n      swap2\n      dup3\n      and\n        /* \"contracts/LotteryToken.sol\":11541:11548  uint256 */\n      0x00\n        /* \"contracts/LotteryToken.sol\":11568:11586  _allowances[owner] */\n      swap1\n      dup2\n      mstore\n        /* \"contracts/LotteryToken.sol\":11568:11579  _allowances */\n      0x03\n        /* \"contracts/LotteryToken.sol\":11568:11586  _allowances[owner] */\n      0x20\n      swap1\n      dup2\n      mstore\n      0x40\n      dup1\n      dup4\n      keccak256\n        /* \"contracts/LotteryToken.sol\":11568:11595  _allowances[owner][spender] */\n      swap4\n      swap1\n      swap5\n      and\n      dup3\n      mstore\n      swap2\n      swap1\n      swap2\n      mstore\n      keccak256\n      sload\n      swap1\n        /* \"contracts/LotteryToken.sol\":11460:11603  function allowance(address owner, address spender) public view override returns (uint256) {\r... */\n      jump\n        /* \"contracts/LotteryToken.sol\":14641:14796  function setBotKeeper(address _newKeeper) public onlyOwner {\r... */\n    tag_40:\n      tag_93\n      tag_194\n      calldatasize\n      0x04\n      tag_106\n      jump\t// in\n    tag_194:\n      tag_195\n      jump\t// in\n        /* \"contracts/LotteryToken.sol\":14301:14633  function setGenesisReward(uint256 amount) public onlyOwner {\r... */\n    tag_41:\n      tag_93\n      tag_197\n      calldatasize\n      0x04\n      tag_90\n      jump\t// in\n    tag_197:\n      tag_198\n      jump\t// in\n        /* \"contracts/LotteryToken.sol\":8771:8810  uint256 public whitelistSaleDistributed */\n    tag_42:\n      tag_66\n      sload(0x10)\n      dup2\n      jump\n        /* \"contracts/LotteryToken.sol\":11050:11200  function treasuryTransfer(address recipient, uint256 amount) public onlyTreasury {\r... */\n    tag_43:\n      tag_93\n      tag_203\n      calldatasize\n      0x04\n      tag_62\n      jump\t// in\n    tag_203:\n      tag_204\n      jump\t// in\n        /* \"contracts/LotteryToken.sol\":15263:15673  function donate(uint256 amount) public {\r... */\n    tag_44:\n      tag_93\n      tag_206\n      calldatasize\n      0x04\n      tag_90\n      jump\t// in\n    tag_206:\n      tag_207\n      jump\t// in\n        /* \"contracts/LotteryToken.sol\":16389:16721  function excludeAccount(address account) external onlyOwner() {\r... */\n    tag_45:\n      tag_93\n      tag_209\n      calldatasize\n      0x04\n      tag_106\n      jump\t// in\n    tag_209:\n      tag_210\n      jump\t// in\n        /* \"@openzeppelin/contracts/access/Ownable.sol\":1918:2116  function transferOwnership(address newOwner) public virtual onlyOwner {... */\n    tag_46:\n      tag_93\n      tag_212\n      calldatasize\n      0x04\n      tag_106\n      jump\t// in\n    tag_212:\n      tag_213\n      jump\t// in\n        /* \"contracts/LotteryToken.sol\":8544:8572  uint256 public genesisReward */\n    tag_47:\n      tag_66\n      sload(0x0e)\n      dup2\n      jump\n        /* \"contracts/LotteryToken.sol\":16729:17207  function includeAccount(address account) external onlyOwner() {\r... */\n    tag_48:\n      tag_93\n      tag_218\n      calldatasize\n      0x04\n      tag_106\n      jump\t// in\n    tag_218:\n      tag_219\n      jump\t// in\n        /* \"contracts/LotteryToken.sol\":9864:9947  function name() public view returns (string memory) {\r... */\n    tag_57:\n        /* \"contracts/LotteryToken.sol\":9901:9914  string memory */\n      0x60\n        /* \"contracts/LotteryToken.sol\":9934:9939  _name */\n      0x0b\n        /* \"contracts/LotteryToken.sol\":9927:9939  return _name */\n      dup1\n      sload\n      tag_222\n      swap1\n      tag_223\n      jump\t// in\n    tag_222:\n      dup1\n      0x1f\n      add\n      0x20\n      dup1\n      swap2\n      div\n      mul\n      0x20\n      add\n      mload(0x40)\n      swap1\n      dup2\n      add\n      0x40\n      mstore\n      dup1\n      swap3\n      swap2\n      swap1\n      dup2\n      dup2\n      mstore\n      0x20\n      add\n      dup3\n      dup1\n      sload\n      tag_224\n      swap1\n      tag_223\n      jump\t// in\n    tag_224:\n      dup1\n      iszero\n      tag_225\n      jumpi\n      dup1\n      0x1f\n      lt\n      tag_226\n      jumpi\n      0x0100\n      dup1\n      dup4\n      sload\n      div\n      mul\n      dup4\n      mstore\n      swap2\n      0x20\n      add\n      swap2\n      jump(tag_225)\n    tag_226:\n      dup3\n      add\n      swap2\n      swap1\n      0x00\n      mstore\n      keccak256(0x00, 0x20)\n      swap1\n    tag_227:\n      dup2\n      sload\n      dup2\n      mstore\n      swap1\n      0x01\n      add\n      swap1\n      0x20\n      add\n      dup1\n      dup4\n      gt\n      tag_227\n      jumpi\n      dup3\n      swap1\n      sub\n      0x1f\n      and\n      dup3\n      add\n      swap2\n    tag_225:\n      pop\n      pop\n      pop\n      pop\n      pop\n      swap1\n      pop\n        /* \"contracts/LotteryToken.sol\":9864:9947  function name() public view returns (string memory) {\r... */\n      swap1\n      jump\t// out\n        /* \"contracts/LotteryToken.sol\":11611:11772  function approve(address spender, uint256 amount) public override returns (bool) {\r... */\n    tag_63:\n        /* \"contracts/LotteryToken.sol\":11686:11690  bool */\n      0x00\n        /* \"contracts/LotteryToken.sol\":11703:11742  _approve(_msgSender(), spender, amount) */\n      tag_229\n        /* \"@openzeppelin/contracts/utils/Context.sol\":719:729  msg.sender */\n      caller\n        /* \"contracts/LotteryToken.sol\":11726:11733  spender */\n      dup5\n        /* \"contracts/LotteryToken.sol\":11735:11741  amount */\n      dup5\n        /* \"contracts/LotteryToken.sol\":11703:11711  _approve */\n      tag_232\n        /* \"contracts/LotteryToken.sol\":11703:11742  _approve(_msgSender(), spender, amount) */\n      jump\t// in\n    tag_229:\n      pop\n        /* \"contracts/LotteryToken.sol\":11760:11764  true */\n      0x01\n        /* \"contracts/LotteryToken.sol\":11611:11772  function approve(address spender, uint256 amount) public override returns (bool) {\r... */\n    tag_228:\n      swap3\n      swap2\n      pop\n      pop\n      jump\t// out\n        /* \"contracts/LotteryToken.sol\":11780:12093  function transferFrom(address sender, address recipient, uint256 amount) public override returns (bool) {\r... */\n    tag_80:\n        /* \"contracts/LotteryToken.sol\":11878:11882  bool */\n      0x00\n        /* \"contracts/LotteryToken.sol\":11895:11931  _transfer(sender, recipient, amount) */\n      tag_236\n        /* \"contracts/LotteryToken.sol\":11905:11911  sender */\n      dup5\n        /* \"contracts/LotteryToken.sol\":11913:11922  recipient */\n      dup5\n        /* \"contracts/LotteryToken.sol\":11924:11930  amount */\n      dup5\n        /* \"contracts/LotteryToken.sol\":11895:11904  _transfer */\n      tag_237\n        /* \"contracts/LotteryToken.sol\":11895:11931  _transfer(sender, recipient, amount) */\n      jump\t// in\n    tag_236:\n        /* \"contracts/LotteryToken.sol\":11942:12063  _approve(sender, _msgSender(), _allowances[sender][_msgSender()].sub(amount, \"ERC20: transfer amount exceeds allowance\")) */\n      tag_238\n        /* \"contracts/LotteryToken.sol\":11951:11957  sender */\n      dup5\n        /* \"@openzeppelin/contracts/utils/Context.sol\":719:729  msg.sender */\n      caller\n        /* \"contracts/LotteryToken.sol\":11973:12062  _allowances[sender][_msgSender()].sub(amount, \"ERC20: transfer amount exceeds allowance\") */\n      tag_240\n        /* \"contracts/LotteryToken.sol\":12011:12017  amount */\n      dup6\n        /* \"contracts/LotteryToken.sol\":11973:12062  _allowances[sender][_msgSender()].sub(amount, \"ERC20: transfer amount exceeds allowance\") */\n      mload(0x40)\n      dup1\n      0x60\n      add\n      0x40\n      mstore\n      dup1\n      0x28\n      dup2\n      mstore\n      0x20\n      add\n      data_974d1b4421da69cc60b481194f0dad36a5bb4e23da810da7a7fb30cdba178330\n      0x28\n      swap2\n      codecopy\n      sub(shl(0xa0, 0x01), 0x01)\n        /* \"contracts/LotteryToken.sol\":11973:11992  _allowances[sender] */\n      dup11\n      and\n      0x00\n      swap1\n      dup2\n      mstore\n        /* \"contracts/LotteryToken.sol\":11973:11984  _allowances */\n      0x03\n        /* \"contracts/LotteryToken.sol\":11973:11992  _allowances[sender] */\n      0x20\n      swap1\n      dup2\n      mstore\n      0x40\n      dup1\n      dup4\n      keccak256\n        /* \"@openzeppelin/contracts/utils/Context.sol\":719:729  msg.sender */\n      caller\n        /* \"contracts/LotteryToken.sol\":11973:12006  _allowances[sender][_msgSender()] */\n      dup5\n      mstore\n      swap1\n      swap2\n      mstore\n      swap1\n      keccak256\n      sload\n      swap2\n      swap1\n        /* \"contracts/LotteryToken.sol\":11973:12010  _allowances[sender][_msgSender()].sub */\n      tag_242\n        /* \"contracts/LotteryToken.sol\":11973:12062  _allowances[sender][_msgSender()].sub(amount, \"ERC20: transfer amount exceeds allowance\") */\n      jump\t// in\n    tag_240:\n        /* \"contracts/LotteryToken.sol\":11942:11950  _approve */\n      tag_232\n        /* \"contracts/LotteryToken.sol\":11942:12063  _approve(sender, _msgSender(), _allowances[sender][_msgSender()].sub(amount, \"ERC20: transfer amount exceeds allowance\")) */\n      jump\t// in\n    tag_238:\n      pop\n        /* \"contracts/LotteryToken.sol\":12081:12085  true */\n      0x01\n        /* \"contracts/LotteryToken.sol\":11780:12093  function transferFrom(address sender, address recipient, uint256 amount) public override returns (bool) {\r... */\n      swap4\n      swap3\n      pop\n      pop\n      pop\n      jump\t// out\n        /* \"contracts/LotteryToken.sol\":16128:16381  function tokenFromReflection(uint256 rAmount) public view returns(uint256) {\r... */\n    tag_91:\n        /* \"contracts/LotteryToken.sol\":16194:16201  uint256 */\n      0x00\n        /* \"contracts/LotteryToken.sol\":16233:16240  _rTotal */\n      sload(0x09)\n        /* \"contracts/LotteryToken.sol\":16222:16229  rAmount */\n      dup3\n        /* \"contracts/LotteryToken.sol\":16222:16240  rAmount <= _rTotal */\n      gt\n      iszero\n        /* \"contracts/LotteryToken.sol\":16214:16287  require(rAmount <= _rTotal, \"Amount must be less than total reflections\") */\n      tag_244\n      jumpi\n      mload(0x40)\n      shl(0xe5, 0x461bcd)\n      dup2\n      mstore\n        /* \"#utility.yul\":6244:6246   */\n      0x20\n        /* \"contracts/LotteryToken.sol\":16214:16287  require(rAmount <= _rTotal, \"Amount must be less than total reflections\") */\n      0x04\n      dup3\n      add\n        /* \"#utility.yul\":6226:6247   */\n      mstore\n        /* \"#utility.yul\":6283:6285   */\n      0x2a\n        /* \"#utility.yul\":6263:6281   */\n      0x24\n      dup3\n      add\n        /* \"#utility.yul\":6256:6286   */\n      mstore\n        /* \"#utility.yul\":6322:6356   */\n      0x416d6f756e74206d757374206265206c657373207468616e20746f74616c2072\n        /* \"#utility.yul\":6302:6320   */\n      0x44\n      dup3\n      add\n        /* \"#utility.yul\":6295:6357   */\n      mstore\n      shl(0xb0, 0x65666c656374696f6e73)\n        /* \"#utility.yul\":6373:6391   */\n      0x64\n      dup3\n      add\n        /* \"#utility.yul\":6366:6406   */\n      mstore\n        /* \"#utility.yul\":6423:6442   */\n      0x84\n      add\n        /* \"contracts/LotteryToken.sol\":16214:16287  require(rAmount <= _rTotal, \"Amount must be less than total reflections\") */\n    tag_245:\n      mload(0x40)\n      dup1\n      swap2\n      sub\n      swap1\n      revert\n    tag_244:\n        /* \"contracts/LotteryToken.sol\":16298:16317  uint256 currentRate */\n      0x00\n        /* \"contracts/LotteryToken.sol\":16321:16331  _getRate() */\n      tag_247\n        /* \"contracts/LotteryToken.sol\":16321:16329  _getRate */\n      tag_248\n        /* \"contracts/LotteryToken.sol\":16321:16331  _getRate() */\n      jump\t// in\n    tag_247:\n        /* \"contracts/LotteryToken.sol\":16298:16331  uint256 currentRate =  _getRate() */\n      swap1\n      pop\n        /* \"contracts/LotteryToken.sol\":16349:16373  rAmount.div(currentRate) */\n      tag_249\n        /* \"contracts/LotteryToken.sol\":16349:16356  rAmount */\n      dup4\n        /* \"contracts/LotteryToken.sol\":16298:16331  uint256 currentRate =  _getRate() */\n      dup3\n        /* \"contracts/LotteryToken.sol\":16349:16360  rAmount.div */\n      tag_220\n        /* \"contracts/LotteryToken.sol\":16349:16373  rAmount.div(currentRate) */\n      jump\t// in\n    tag_249:\n        /* \"contracts/LotteryToken.sol\":16342:16373  return rAmount.div(currentRate) */\n      swap4\n        /* \"contracts/LotteryToken.sol\":16128:16381  function tokenFromReflection(uint256 rAmount) public view returns(uint256) {\r... */\n      swap3\n      pop\n      pop\n      pop\n      jump\t// out\n        /* \"contracts/LotteryToken.sol\":11208:11452  function treasuryTransfer(address[] memory recipients, uint256[] memory amounts) public onlyTreasury {\r... */\n    tag_96:\n        /* \"contracts/LotteryToken.sol\":9473:9489  treasuryContract */\n      and(sub(shl(0xa0, 0x01), 0x01), sload(0x12))\n        /* \"@openzeppelin/contracts/utils/Context.sol\":719:729  msg.sender */\n      caller\n      sub(shl(0xa0, 0x01), 0x01)\n        /* \"contracts/LotteryToken.sol\":9457:9489  _msgSender() == treasuryContract */\n      and\n      eq\n        /* \"contracts/LotteryToken.sol\":9449:9507  require(_msgSender() == treasuryContract, \"Only Treasury\") */\n      tag_252\n      jumpi\n      mload(0x40)\n      shl(0xe5, 0x461bcd)\n      dup2\n      mstore\n      0x04\n      add\n      tag_245\n      swap1\n      tag_254\n      jump\t// in\n    tag_252:\n        /* \"contracts/LotteryToken.sol\":11324:11333  uint256 i */\n      0x00\n        /* \"contracts/LotteryToken.sol\":11320:11445  for(uint256 i; i<recipients.length; i++){\r... */\n    tag_256:\n        /* \"contracts/LotteryToken.sol\":11337:11347  recipients */\n      dup3\n        /* \"contracts/LotteryToken.sol\":11337:11354  recipients.length */\n      mload\n        /* \"contracts/LotteryToken.sol\":11335:11336  i */\n      dup2\n        /* \"contracts/LotteryToken.sol\":11335:11354  i<recipients.length */\n      lt\n        /* \"contracts/LotteryToken.sol\":11320:11445  for(uint256 i; i<recipients.length; i++){\r... */\n      iszero\n      tag_257\n      jumpi\n        /* \"contracts/LotteryToken.sol\":11375:11433  _treasuryTransfer(_msgSender(), recipients[i], amounts[i]) */\n      tag_259\n        /* \"@openzeppelin/contracts/utils/Context.sol\":719:729  msg.sender */\n      caller\n        /* \"contracts/LotteryToken.sol\":11407:11417  recipients */\n      dup5\n        /* \"contracts/LotteryToken.sol\":11418:11419  i */\n      dup4\n        /* \"contracts/LotteryToken.sol\":11407:11420  recipients[i] */\n      dup2\n      mload\n      dup2\n      lt\n      tag_262\n      jumpi\n      tag_262\n      tag_263\n      jump\t// in\n    tag_262:\n      0x20\n      mul\n      0x20\n      add\n      add\n      mload\n        /* \"contracts/LotteryToken.sol\":11422:11429  amounts */\n      dup5\n        /* \"contracts/LotteryToken.sol\":11430:11431  i */\n      dup5\n        /* \"contracts/LotteryToken.sol\":11422:11432  amounts[i] */\n      dup2\n      mload\n      dup2\n      lt\n      tag_265\n      jumpi\n      tag_265\n      tag_263\n      jump\t// in\n    tag_265:\n      0x20\n      mul\n      0x20\n      add\n      add\n      mload\n        /* \"contracts/LotteryToken.sol\":11375:11392  _treasuryTransfer */\n      tag_266\n        /* \"contracts/LotteryToken.sol\":11375:11433  _treasuryTransfer(_msgSender(), recipients[i], amounts[i]) */\n      jump\t// in\n    tag_259:\n        /* \"contracts/LotteryToken.sol\":11356:11359  i++ */\n      dup1\n      tag_267\n      dup2\n      tag_268\n      jump\t// in\n    tag_267:\n      swap2\n      pop\n      pop\n        /* \"contracts/LotteryToken.sol\":11320:11445  for(uint256 i; i<recipients.length; i++){\r... */\n      jump(tag_256)\n    tag_257:\n      pop\n        /* \"contracts/LotteryToken.sol\":11208:11452  function treasuryTransfer(address[] memory recipients, uint256[] memory amounts) public onlyTreasury {\r... */\n      pop\n      pop\n      jump\t// out\n        /* \"contracts/LotteryToken.sol\":12101:12319  function increaseAllowance(address spender, uint256 addedValue) public virtual returns (bool) {\r... */\n    tag_111:\n        /* \"@openzeppelin/contracts/utils/Context.sol\":719:729  msg.sender */\n      caller\n        /* \"contracts/LotteryToken.sol\":12189:12193  bool */\n      0x00\n        /* \"contracts/LotteryToken.sol\":12238:12263  _allowances[_msgSender()] */\n      dup2\n      dup2\n      mstore\n        /* \"contracts/LotteryToken.sol\":12238:12249  _allowances */\n      0x03\n        /* \"contracts/LotteryToken.sol\":12238:12263  _allowances[_msgSender()] */\n      0x20\n      swap1\n      dup2\n      mstore\n      0x40\n      dup1\n      dup4\n      keccak256\n      sub(shl(0xa0, 0x01), 0x01)\n        /* \"contracts/LotteryToken.sol\":12238:12272  _allowances[_msgSender()][spender] */\n      dup8\n      and\n      dup5\n      mstore\n      swap1\n      swap2\n      mstore\n      dup2\n      keccak256\n      sload\n        /* \"contracts/LotteryToken.sol\":12189:12193  bool */\n      swap1\n      swap2\n        /* \"contracts/LotteryToken.sol\":12206:12289  _approve(_msgSender(), spender, _allowances[_msgSender()][spender].add(addedValue)) */\n      tag_229\n      swap2\n        /* \"contracts/LotteryToken.sol\":12229:12236  spender */\n      dup6\n      swap1\n        /* \"contracts/LotteryToken.sol\":12238:12288  _allowances[_msgSender()][spender].add(addedValue) */\n      tag_240\n      swap1\n        /* \"contracts/LotteryToken.sol\":12277:12287  addedValue */\n      dup7\n        /* \"contracts/LotteryToken.sol\":12238:12276  _allowances[_msgSender()][spender].add */\n      tag_276\n        /* \"contracts/LotteryToken.sol\":12238:12288  _allowances[_msgSender()][spender].add(addedValue) */\n      jump\t// in\n        /* \"contracts/LotteryToken.sol\":12817:12926  function mint(address _receiver, uint amount) public onlyTreasury {\r... */\n    tag_118:\n        /* \"contracts/LotteryToken.sol\":9473:9489  treasuryContract */\n      and(sub(shl(0xa0, 0x01), 0x01), sload(0x12))\n        /* \"@openzeppelin/contracts/utils/Context.sol\":719:729  msg.sender */\n      caller\n      sub(shl(0xa0, 0x01), 0x01)\n        /* \"contracts/LotteryToken.sol\":9457:9489  _msgSender() == treasuryContract */\n      and\n      eq\n        /* \"contracts/LotteryToken.sol\":9449:9507  require(_msgSender() == treasuryContract, \"Only Treasury\") */\n      tag_279\n      jumpi\n      mload(0x40)\n      shl(0xe5, 0x461bcd)\n      dup2\n      mstore\n      0x04\n      add\n      tag_245\n      swap1\n      tag_254\n      jump\t// in\n    tag_279:\n        /* \"contracts/LotteryToken.sol\":12894:12918  _mint(_receiver, amount) */\n      tag_282\n        /* \"contracts/LotteryToken.sol\":12900:12909  _receiver */\n      dup3\n        /* \"contracts/LotteryToken.sol\":12911:12917  amount */\n      dup3\n        /* \"contracts/LotteryToken.sol\":12894:12899  _mint */\n      tag_283\n        /* \"contracts/LotteryToken.sol\":12894:12918  _mint(_receiver, amount) */\n      jump\t// in\n    tag_282:\n        /* \"contracts/LotteryToken.sol\":12817:12926  function mint(address _receiver, uint amount) public onlyTreasury {\r... */\n      pop\n      pop\n      jump\t// out\n        /* \"contracts/LotteryToken.sol\":12934:13013  function burn(uint amount) public onlyTreasury {\r... */\n    tag_121:\n        /* \"contracts/LotteryToken.sol\":9473:9489  treasuryContract */\n      and(sub(shl(0xa0, 0x01), 0x01), sload(0x12))\n        /* \"@openzeppelin/contracts/utils/Context.sol\":719:729  msg.sender */\n      caller\n      sub(shl(0xa0, 0x01), 0x01)\n        /* \"contracts/LotteryToken.sol\":9457:9489  _msgSender() == treasuryContract */\n      and\n      eq\n        /* \"contracts/LotteryToken.sol\":9449:9507  require(_msgSender() == treasuryContract, \"Only Treasury\") */\n      tag_286\n      jumpi\n      mload(0x40)\n      shl(0xe5, 0x461bcd)\n      dup2\n      mstore\n      0x04\n      add\n      tag_245\n      swap1\n      tag_254\n      jump\t// in\n    tag_286:\n        /* \"contracts/LotteryToken.sol\":12992:13005  _burn(amount) */\n      tag_289\n        /* \"contracts/LotteryToken.sol\":12998:13004  amount */\n      dup2\n        /* \"contracts/LotteryToken.sol\":12992:12997  _burn */\n      tag_290\n        /* \"contracts/LotteryToken.sol\":12992:13005  _burn(amount) */\n      jump\t// in\n    tag_289:\n        /* \"contracts/LotteryToken.sol\":12934:13013  function burn(uint amount) public onlyTreasury {\r... */\n      pop\n      jump\t// out\n        /* \"contracts/LotteryToken.sol\":15681:16120  function reflectionFromToken(uint256 tAmount, bool deductTransferFee) public view returns(uint256) {\r... */\n    tag_125:\n        /* \"contracts/LotteryToken.sol\":15771:15778  uint256 */\n      0x00\n        /* \"contracts/LotteryToken.sol\":15810:15822  _totalSupply */\n      sload(0x08)\n        /* \"contracts/LotteryToken.sol\":15799:15806  tAmount */\n      dup4\n        /* \"contracts/LotteryToken.sol\":15799:15822  tAmount <= _totalSupply */\n      gt\n      iszero\n        /* \"contracts/LotteryToken.sol\":15791:15858  require(tAmount <= _totalSupply, \"Amount must be less than supply\") */\n      tag_292\n      jumpi\n      mload(0x40)\n      shl(0xe5, 0x461bcd)\n      dup2\n      mstore\n        /* \"#utility.yul\":8865:8867   */\n      0x20\n        /* \"contracts/LotteryToken.sol\":15791:15858  require(tAmount <= _totalSupply, \"Amount must be less than supply\") */\n      0x04\n      dup3\n      add\n        /* \"#utility.yul\":8847:8868   */\n      mstore\n        /* \"#utility.yul\":8904:8906   */\n      0x1f\n        /* \"#utility.yul\":8884:8902   */\n      0x24\n      dup3\n      add\n        /* \"#utility.yul\":8877:8907   */\n      mstore\n        /* \"#utility.yul\":8943:8976   */\n      0x416d6f756e74206d757374206265206c657373207468616e20737570706c7900\n        /* \"#utility.yul\":8923:8941   */\n      0x44\n      dup3\n      add\n        /* \"#utility.yul\":8916:8977   */\n      mstore\n        /* \"#utility.yul\":8994:9012   */\n      0x64\n      add\n        /* \"contracts/LotteryToken.sol\":15791:15858  require(tAmount <= _totalSupply, \"Amount must be less than supply\") */\n      tag_245\n        /* \"#utility.yul\":8663:9018   */\n      jump\n        /* \"contracts/LotteryToken.sol\":15791:15858  require(tAmount <= _totalSupply, \"Amount must be less than supply\") */\n    tag_292:\n        /* \"contracts/LotteryToken.sol\":15874:15891  deductTransferFee */\n      dup2\n        /* \"contracts/LotteryToken.sol\":15869:16113  if (!deductTransferFee) {\r... */\n      tag_295\n      jumpi\n        /* \"contracts/LotteryToken.sol\":15909:15924  uint256 rAmount */\n      0x00\n        /* \"contracts/LotteryToken.sol\":15932:15951  _getValues(tAmount) */\n      tag_296\n        /* \"contracts/LotteryToken.sol\":15943:15950  tAmount */\n      dup5\n        /* \"contracts/LotteryToken.sol\":15932:15942  _getValues */\n      tag_297\n        /* \"contracts/LotteryToken.sol\":15932:15951  _getValues(tAmount) */\n      jump\t// in\n    tag_296:\n      pop\n        /* \"contracts/LotteryToken.sol\":15908:15951  (uint256 rAmount,,,,) = _getValues(tAmount) */\n      swap3\n      swap5\n      pop\n        /* \"contracts/LotteryToken.sol\":15966:15980  return rAmount */\n      tag_228\n      swap4\n      pop\n      pop\n      pop\n      pop\n      jump\n        /* \"contracts/LotteryToken.sol\":15869:16113  if (!deductTransferFee) {\r... */\n    tag_295:\n        /* \"contracts/LotteryToken.sol\":16015:16038  uint256 rTransferAmount */\n      0x00\n        /* \"contracts/LotteryToken.sol\":16045:16064  _getValues(tAmount) */\n      tag_299\n        /* \"contracts/LotteryToken.sol\":16056:16063  tAmount */\n      dup5\n        /* \"contracts/LotteryToken.sol\":16045:16055  _getValues */\n      tag_297\n        /* \"contracts/LotteryToken.sol\":16045:16064  _getValues(tAmount) */\n      jump\t// in\n    tag_299:\n      pop\n        /* \"contracts/LotteryToken.sol\":16013:16064  (,uint256 rTransferAmount,,,) = _getValues(tAmount) */\n      swap2\n      swap5\n      pop\n        /* \"contracts/LotteryToken.sol\":16079:16101  return rTransferAmount */\n      tag_228\n      swap4\n      pop\n      pop\n      pop\n      pop\n      jump\n        /* \"contracts/LotteryToken.sol\":14997:15225  function setTransferStatus(bool _isPaused) public {\r... */\n    tag_130:\n        /* \"contracts/LotteryToken.sol\":15080:15089  botKeeper */\n      and(sub(shl(0xa0, 0x01), 0x01), sload(0x11))\n        /* \"contracts/LotteryToken.sol\":15066:15076  msg.sender */\n      caller\n        /* \"contracts/LotteryToken.sol\":15066:15089  msg.sender == botKeeper */\n      eq\n        /* \"contracts/LotteryToken.sol\":15058:15118  require(msg.sender == botKeeper, \"Caller is not bot keeper\") */\n      tag_301\n      jumpi\n      mload(0x40)\n      shl(0xe5, 0x461bcd)\n      dup2\n      mstore\n        /* \"#utility.yul\":10688:10690   */\n      0x20\n        /* \"contracts/LotteryToken.sol\":15058:15118  require(msg.sender == botKeeper, \"Caller is not bot keeper\") */\n      0x04\n      dup3\n      add\n        /* \"#utility.yul\":10670:10691   */\n      mstore\n        /* \"#utility.yul\":10727:10729   */\n      0x18\n        /* \"#utility.yul\":10707:10725   */\n      0x24\n      dup3\n      add\n        /* \"#utility.yul\":10700:10730   */\n      mstore\n        /* \"#utility.yul\":10766:10792   */\n      0x43616c6c6572206973206e6f7420626f74206b65657065720000000000000000\n        /* \"#utility.yul\":10746:10764   */\n      0x44\n      dup3\n      add\n        /* \"#utility.yul\":10739:10793   */\n      mstore\n        /* \"#utility.yul\":10810:10828   */\n      0x64\n      add\n        /* \"contracts/LotteryToken.sol\":15058:15118  require(msg.sender == botKeeper, \"Caller is not bot keeper\") */\n      tag_245\n        /* \"#utility.yul\":10486:10834   */\n      jump\n        /* \"contracts/LotteryToken.sol\":15058:15118  require(msg.sender == botKeeper, \"Caller is not bot keeper\") */\n    tag_301:\n        /* \"contracts/LotteryToken.sol\":15132:15141  _isPaused */\n      dup1\n        /* \"contracts/LotteryToken.sol\":15129:15218  if(_isPaused){\r... */\n      iszero\n      tag_304\n      jumpi\n        /* \"contracts/LotteryToken.sol\":15157:15165  _pause() */\n      tag_289\n        /* \"contracts/LotteryToken.sol\":15157:15163  _pause */\n      tag_306\n        /* \"contracts/LotteryToken.sol\":15157:15165  _pause() */\n      jump\t// in\n        /* \"contracts/LotteryToken.sol\":15129:15218  if(_isPaused){\r... */\n    tag_304:\n        /* \"contracts/LotteryToken.sol\":15196:15206  _unpause() */\n      tag_289\n        /* \"contracts/LotteryToken.sol\":15196:15204  _unpause */\n      tag_309\n        /* \"contracts/LotteryToken.sol\":15196:15206  _unpause() */\n      jump\t// in\n        /* \"contracts/LotteryToken.sol\":13897:14293  function registerAirdropDistribution() public onlyOwner {\r... */\n    tag_132:\n        /* \"@openzeppelin/contracts/access/Ownable.sol\":1082:1089  address */\n      0x00\n        /* \"@openzeppelin/contracts/access/Ownable.sol\":1108:1114  _owner */\n      sload\n      sub(shl(0xa0, 0x01), 0x01)\n      and\n        /* \"@openzeppelin/contracts/utils/Context.sol\":719:729  msg.sender */\n      caller\n        /* \"@openzeppelin/contracts/access/Ownable.sol\":1248:1271  owner() == _msgSender() */\n      eq\n        /* \"@openzeppelin/contracts/access/Ownable.sol\":1240:1308  require(owner() == _msgSender(), \"Ownable: caller is not the owner\") */\n      tag_313\n      jumpi\n      mload(0x40)\n      shl(0xe5, 0x461bcd)\n      dup2\n      mstore\n      0x04\n      add\n      tag_245\n      swap1\n      tag_315\n      jump\t// in\n    tag_313:\n        /* \"contracts/LotteryToken.sol\":13973:14003  _isRegisterAirdropDistribution */\n      and(0xff, sload(0x07))\n        /* \"contracts/LotteryToken.sol\":13972:14003  !_isRegisterAirdropDistribution */\n      iszero\n        /* \"contracts/LotteryToken.sol\":13964:14026  require(!_isRegisterAirdropDistribution, \"Already registered\") */\n      tag_317\n      jumpi\n      mload(0x40)\n      shl(0xe5, 0x461bcd)\n      dup2\n      mstore\n        /* \"#utility.yul\":7821:7823   */\n      0x20\n        /* \"contracts/LotteryToken.sol\":13964:14026  require(!_isRegisterAirdropDistribution, \"Already registered\") */\n      0x04\n      dup3\n      add\n        /* \"#utility.yul\":7803:7824   */\n      mstore\n        /* \"#utility.yul\":7860:7862   */\n      0x12\n        /* \"#utility.yul\":7840:7858   */\n      0x24\n      dup3\n      add\n        /* \"#utility.yul\":7833:7863   */\n      mstore\n      shl(0x72, 0x105b1c9958591e481c9959da5cdd195c9959)\n        /* \"#utility.yul\":7879:7897   */\n      0x44\n      dup3\n      add\n        /* \"#utility.yul\":7872:7920   */\n      mstore\n        /* \"#utility.yul\":7937:7955   */\n      0x64\n      add\n        /* \"contracts/LotteryToken.sol\":13964:14026  require(!_isRegisterAirdropDistribution, \"Already registered\") */\n      tag_245\n        /* \"#utility.yul\":7619:7961   */\n      jump\n        /* \"contracts/LotteryToken.sol\":13964:14026  require(!_isRegisterAirdropDistribution, \"Already registered\") */\n    tag_317:\n        /* \"contracts/LotteryToken.sol\":14037:14057  uint256 _currentRate */\n      0x00\n        /* \"contracts/LotteryToken.sol\":14060:14070  _getRate() */\n      tag_320\n        /* \"contracts/LotteryToken.sol\":14060:14068  _getRate */\n      tag_248\n        /* \"contracts/LotteryToken.sol\":14060:14070  _getRate() */\n      jump\t// in\n    tag_320:\n        /* \"contracts/LotteryToken.sol\":14096:14108  _totalSupply */\n      sload(0x08)\n        /* \"contracts/LotteryToken.sol\":14037:14070  uint256 _currentRate = _getRate() */\n      swap1\n      swap2\n      pop\n        /* \"contracts/LotteryToken.sol\":14096:14128  _totalSupply.add(AIRDROP_AMOUNT) */\n      tag_321\n      swap1\n        /* \"contracts/LotteryToken.sol\":8620:8632  10**6*10**18 */\n      0xd3c21bcecceda1000000\n        /* \"contracts/LotteryToken.sol\":14096:14112  _totalSupply.add */\n      tag_276\n        /* \"contracts/LotteryToken.sol\":14096:14128  _totalSupply.add(AIRDROP_AMOUNT) */\n      jump\t// in\n    tag_321:\n        /* \"contracts/LotteryToken.sol\":14081:14093  _totalSupply */\n      0x08\n        /* \"contracts/LotteryToken.sol\":14081:14128  _totalSupply = _totalSupply.add(AIRDROP_AMOUNT) */\n      sstore\n        /* \"contracts/LotteryToken.sol\":14192:14237  _rTotal.add(AIRDROP_AMOUNT.mul(_currentRate)) */\n      tag_322\n        /* \"contracts/LotteryToken.sol\":14204:14236  AIRDROP_AMOUNT.mul(_currentRate) */\n      tag_323\n        /* \"contracts/LotteryToken.sol\":8620:8632  10**6*10**18 */\n      0xd3c21bcecceda1000000\n        /* \"contracts/LotteryToken.sol\":14223:14235  _currentRate */\n      dup4\n        /* \"contracts/LotteryToken.sol\":14204:14222  AIRDROP_AMOUNT.mul */\n      tag_324\n        /* \"contracts/LotteryToken.sol\":14204:14236  AIRDROP_AMOUNT.mul(_currentRate) */\n      jump\t// in\n    tag_323:\n        /* \"contracts/LotteryToken.sol\":14192:14199  _rTotal */\n      sload(0x09)\n      swap1\n        /* \"contracts/LotteryToken.sol\":14192:14203  _rTotal.add */\n      tag_276\n        /* \"contracts/LotteryToken.sol\":14192:14237  _rTotal.add(AIRDROP_AMOUNT.mul(_currentRate)) */\n      jump\t// in\n    tag_322:\n        /* \"contracts/LotteryToken.sol\":14182:14189  _rTotal */\n      0x09\n        /* \"contracts/LotteryToken.sol\":14182:14237  _rTotal = _rTotal.add(AIRDROP_AMOUNT.mul(_currentRate)) */\n      sstore\n      pop\n        /* \"contracts/LotteryToken.sol\":14248:14278  _isRegisterAirdropDistribution */\n      0x07\n        /* \"contracts/LotteryToken.sol\":14248:14285  _isRegisterAirdropDistribution = true */\n      dup1\n      sload\n      not(0xff)\n      and\n        /* \"contracts/LotteryToken.sol\":14281:14285  true */\n      0x01\n        /* \"contracts/LotteryToken.sol\":14248:14285  _isRegisterAirdropDistribution = true */\n      or\n      swap1\n      sstore\n        /* \"contracts/LotteryToken.sol\":13897:14293  function registerAirdropDistribution() public onlyOwner {\r... */\n      jump\t// out\n        /* \"contracts/LotteryToken.sol\":14804:14989  function setTreasuryAddress(address _newAddress) public onlyOwner {\r... */\n    tag_138:\n        /* \"@openzeppelin/contracts/access/Ownable.sol\":1082:1089  address */\n      0x00\n        /* \"@openzeppelin/contracts/access/Ownable.sol\":1108:1114  _owner */\n      sload\n      sub(shl(0xa0, 0x01), 0x01)\n      and\n        /* \"@openzeppelin/contracts/utils/Context.sol\":719:729  msg.sender */\n      caller\n        /* \"@openzeppelin/contracts/access/Ownable.sol\":1248:1271  owner() == _msgSender() */\n      eq\n        /* \"@openzeppelin/contracts/access/Ownable.sol\":1240:1308  require(owner() == _msgSender(), \"Ownable: caller is not the owner\") */\n      tag_329\n      jumpi\n      mload(0x40)\n      shl(0xe5, 0x461bcd)\n      dup2\n      mstore\n      0x04\n      add\n      tag_245\n      swap1\n      tag_315\n      jump\t// in\n    tag_329:\n        /* \"contracts/LotteryToken.sol\":14910:14926  treasuryContract */\n      sload(0x12)\n        /* \"contracts/LotteryToken.sol\":14886:14940  TreasuryContractChanged(treasuryContract, _newAddress) */\n      mload(0x40)\n      sub(shl(0xa0, 0x01), 0x01)\n      dup1\n      dup5\n      and\n      swap3\n        /* \"contracts/LotteryToken.sol\":14910:14926  treasuryContract */\n      and\n      swap1\n        /* \"contracts/LotteryToken.sol\":14886:14940  TreasuryContractChanged(treasuryContract, _newAddress) */\n      0x66d091afc9c26c3a7ac26aaf2264aa6935008e7ab1342c9477530129863995b5\n      swap1\n        /* \"contracts/LotteryToken.sol\":14910:14926  treasuryContract */\n      0x00\n      swap1\n        /* \"contracts/LotteryToken.sol\":14886:14940  TreasuryContractChanged(treasuryContract, _newAddress) */\n      log3\n        /* \"contracts/LotteryToken.sol\":14951:14967  treasuryContract */\n      0x12\n        /* \"contracts/LotteryToken.sol\":14951:14981  treasuryContract = _newAddress */\n      dup1\n      sload\n      not(sub(shl(0xa0, 0x01), 0x01))\n      and\n      sub(shl(0xa0, 0x01), 0x01)\n      swap3\n      swap1\n      swap3\n      and\n      swap2\n      swap1\n      swap2\n      or\n      swap1\n      sstore\n        /* \"contracts/LotteryToken.sol\":14804:14989  function setTreasuryAddress(address _newAddress) public onlyOwner {\r... */\n      jump\t// out\n        /* \"contracts/LotteryToken.sol\":10249:10334  function getRate() public view returns (uint256) {\r... */\n    tag_140:\n        /* \"contracts/LotteryToken.sol\":10289:10296  uint256 */\n      0x00\n        /* \"contracts/LotteryToken.sol\":10316:10326  _getRate() */\n      tag_333\n        /* \"contracts/LotteryToken.sol\":10316:10324  _getRate */\n      tag_248\n        /* \"contracts/LotteryToken.sol\":10316:10326  _getRate() */\n      jump\t// in\n    tag_333:\n        /* \"contracts/LotteryToken.sol\":10309:10326  return _getRate() */\n      swap1\n      pop\n        /* \"contracts/LotteryToken.sol\":10249:10334  function getRate() public view returns (uint256) {\r... */\n      swap1\n      jump\t// out\n        /* \"contracts/LotteryToken.sol\":10640:10867  function balanceOf(address account) public view override returns (uint256) {\r... */\n    tag_144:\n      sub(shl(0xa0, 0x01), 0x01)\n        /* \"contracts/LotteryToken.sol\":10730:10750  _isExcluded[account] */\n      dup2\n      and\n        /* \"contracts/LotteryToken.sol\":10706:10713  uint256 */\n      0x00\n        /* \"contracts/LotteryToken.sol\":10730:10750  _isExcluded[account] */\n      swap1\n      dup2\n      mstore\n        /* \"contracts/LotteryToken.sol\":10730:10741  _isExcluded */\n      0x05\n        /* \"contracts/LotteryToken.sol\":10730:10750  _isExcluded[account] */\n      0x20\n      mstore\n      0x40\n      dup2\n      keccak256\n      sload\n      0xff\n      and\n        /* \"contracts/LotteryToken.sol\":10726:10775  if (_isExcluded[account]) return _tOwned[account] */\n      iszero\n      tag_335\n      jumpi\n      pop\n      sub(shl(0xa0, 0x01), 0x01)\n        /* \"contracts/LotteryToken.sol\":10759:10775  _tOwned[account] */\n      and\n      0x00\n      swap1\n      dup2\n      mstore\n        /* \"contracts/LotteryToken.sol\":10759:10766  _tOwned */\n      0x02\n        /* \"contracts/LotteryToken.sol\":10759:10775  _tOwned[account] */\n      0x20\n      mstore\n      0x40\n      swap1\n      keccak256\n      sload\n      swap1\n        /* \"contracts/LotteryToken.sol\":10640:10867  function balanceOf(address account) public view override returns (uint256) {\r... */\n      jump\t// out\n        /* \"contracts/LotteryToken.sol\":10726:10775  if (_isExcluded[account]) return _tOwned[account] */\n    tag_335:\n        /* \"contracts/LotteryToken.sol\":10793:10859  tokenFromReflection(_rOwned[account]).add(genesisBalance(account)) */\n      tag_228\n        /* \"contracts/LotteryToken.sol\":10835:10858  genesisBalance(account) */\n      tag_337\n        /* \"contracts/LotteryToken.sol\":10850:10857  account */\n      dup4\n        /* \"contracts/LotteryToken.sol\":10835:10849  genesisBalance */\n      tag_160\n        /* \"contracts/LotteryToken.sol\":10835:10858  genesisBalance(account) */\n      jump\t// in\n    tag_337:\n      sub(shl(0xa0, 0x01), 0x01)\n        /* \"contracts/LotteryToken.sol\":10813:10829  _rOwned[account] */\n      dup5\n      and\n      0x00\n      swap1\n      dup2\n      mstore\n        /* \"contracts/LotteryToken.sol\":10813:10820  _rOwned */\n      0x01\n        /* \"contracts/LotteryToken.sol\":10813:10829  _rOwned[account] */\n      0x20\n      mstore\n      0x40\n      swap1\n      keccak256\n      sload\n        /* \"contracts/LotteryToken.sol\":10793:10830  tokenFromReflection(_rOwned[account]) */\n      tag_338\n      swap1\n        /* \"contracts/LotteryToken.sol\":10793:10812  tokenFromReflection */\n      tag_91\n        /* \"contracts/LotteryToken.sol\":10793:10830  tokenFromReflection(_rOwned[account]) */\n      jump\t// in\n    tag_338:\n        /* \"contracts/LotteryToken.sol\":10793:10834  tokenFromReflection(_rOwned[account]).add */\n      swap1\n      tag_276\n        /* \"contracts/LotteryToken.sol\":10793:10859  tokenFromReflection(_rOwned[account]).add(genesisBalance(account)) */\n      jump\t// in\n        /* \"@openzeppelin/contracts/access/Ownable.sol\":1668:1769  function renounceOwnership() public virtual onlyOwner {... */\n    tag_147:\n        /* \"@openzeppelin/contracts/access/Ownable.sol\":1082:1089  address */\n      0x00\n        /* \"@openzeppelin/contracts/access/Ownable.sol\":1108:1114  _owner */\n      sload\n      sub(shl(0xa0, 0x01), 0x01)\n      and\n        /* \"@openzeppelin/contracts/utils/Context.sol\":719:729  msg.sender */\n      caller\n        /* \"@openzeppelin/contracts/access/Ownable.sol\":1248:1271  owner() == _msgSender() */\n      eq\n        /* \"@openzeppelin/contracts/access/Ownable.sol\":1240:1308  require(owner() == _msgSender(), \"Ownable: caller is not the owner\") */\n      tag_342\n      jumpi\n      mload(0x40)\n      shl(0xe5, 0x461bcd)\n      dup2\n      mstore\n      0x04\n      add\n      tag_245\n      swap1\n      tag_315\n      jump\t// in\n    tag_342:\n        /* \"@openzeppelin/contracts/access/Ownable.sol\":1732:1762  _transferOwnership(address(0)) */\n      tag_345\n        /* \"@openzeppelin/contracts/access/Ownable.sol\":1759:1760  0 */\n      0x00\n        /* \"@openzeppelin/contracts/access/Ownable.sol\":1732:1750  _transferOwnership */\n      tag_346\n        /* \"@openzeppelin/contracts/access/Ownable.sol\":1732:1762  _transferOwnership(address(0)) */\n      jump\t// in\n    tag_345:\n        /* \"@openzeppelin/contracts/access/Ownable.sol\":1668:1769  function renounceOwnership() public virtual onlyOwner {... */\n      jump\t// out\n        /* \"contracts/LotteryToken.sol\":13256:13837  function distributeAirdrop(address[] memory _receivers, uint _value) public onlyOwner {\r... */\n    tag_154:\n        /* \"@openzeppelin/contracts/access/Ownable.sol\":1082:1089  address */\n      0x00\n        /* \"@openzeppelin/contracts/access/Ownable.sol\":1108:1114  _owner */\n      sload\n      sub(shl(0xa0, 0x01), 0x01)\n      and\n        /* \"@openzeppelin/contracts/utils/Context.sol\":719:729  msg.sender */\n      caller\n        /* \"@openzeppelin/contracts/access/Ownable.sol\":1248:1271  owner() == _msgSender() */\n      eq\n        /* \"@openzeppelin/contracts/access/Ownable.sol\":1240:1308  require(owner() == _msgSender(), \"Ownable: caller is not the owner\") */\n      tag_351\n      jumpi\n      mload(0x40)\n      shl(0xe5, 0x461bcd)\n      dup2\n      mstore\n      0x04\n      add\n      tag_245\n      swap1\n      tag_315\n      jump\t// in\n    tag_351:\n        /* \"contracts/LotteryToken.sol\":13361:13391  _isRegisterAirdropDistribution */\n      and(0xff, sload(0x07))\n        /* \"contracts/LotteryToken.sol\":13353:13411  require(_isRegisterAirdropDistribution, \"not registered \") */\n      tag_354\n      jumpi\n      mload(0x40)\n      shl(0xe5, 0x461bcd)\n      dup2\n      mstore\n        /* \"#utility.yul\":12194:12196   */\n      0x20\n        /* \"contracts/LotteryToken.sol\":13353:13411  require(_isRegisterAirdropDistribution, \"not registered \") */\n      0x04\n      dup3\n      add\n        /* \"#utility.yul\":12176:12197   */\n      mstore\n        /* \"#utility.yul\":12233:12235   */\n      0x0f\n        /* \"#utility.yul\":12213:12231   */\n      0x24\n      dup3\n      add\n        /* \"#utility.yul\":12206:12236   */\n      mstore\n      shl(0x8d, 0x03737ba103932b3b4b9ba32b932b21)\n        /* \"#utility.yul\":12252:12270   */\n      0x44\n      dup3\n      add\n        /* \"#utility.yul\":12245:12290   */\n      mstore\n        /* \"#utility.yul\":12307:12325   */\n      0x64\n      add\n        /* \"contracts/LotteryToken.sol\":13353:13411  require(_isRegisterAirdropDistribution, \"not registered \") */\n      tag_245\n        /* \"#utility.yul\":11992:12331   */\n      jump\n        /* \"contracts/LotteryToken.sol\":13353:13411  require(_isRegisterAirdropDistribution, \"not registered \") */\n    tag_354:\n        /* \"contracts/LotteryToken.sol\":13464:13481  _receivers.length */\n      dup2\n      mload\n        /* \"contracts/LotteryToken.sol\":13442:13494  aidropDistributed.add(_receivers.length.mul(_value)) */\n      tag_357\n      swap1\n        /* \"contracts/LotteryToken.sol\":13464:13493  _receivers.length.mul(_value) */\n      tag_358\n      swap1\n        /* \"contracts/LotteryToken.sol\":13486:13492  _value */\n      dup4\n        /* \"contracts/LotteryToken.sol\":13464:13485  _receivers.length.mul */\n      tag_324\n        /* \"contracts/LotteryToken.sol\":13464:13493  _receivers.length.mul(_value) */\n      jump\t// in\n    tag_358:\n        /* \"contracts/LotteryToken.sol\":13442:13459  aidropDistributed */\n      sload(0x0f)\n      swap1\n        /* \"contracts/LotteryToken.sol\":13442:13463  aidropDistributed.add */\n      tag_276\n        /* \"contracts/LotteryToken.sol\":13442:13494  aidropDistributed.add(_receivers.length.mul(_value)) */\n      jump\t// in\n    tag_357:\n        /* \"contracts/LotteryToken.sol\":13422:13439  aidropDistributed */\n      0x0f\n        /* \"contracts/LotteryToken.sol\":13422:13494  aidropDistributed = aidropDistributed.add(_receivers.length.mul(_value)) */\n      dup2\n      swap1\n      sstore\n        /* \"contracts/LotteryToken.sol\":8620:8632  10**6*10**18 */\n      0xd3c21bcecceda1000000\n      lt\n        /* \"contracts/LotteryToken.sol\":13513:13548  aidropDistributed <= AIRDROP_AMOUNT */\n      iszero\n        /* \"contracts/LotteryToken.sol\":13505:13564  require(aidropDistributed <= AIRDROP_AMOUNT, \"exceeds max\") */\n      tag_359\n      jumpi\n      mload(0x40)\n      shl(0xe5, 0x461bcd)\n      dup2\n      mstore\n        /* \"#utility.yul\":9577:9579   */\n      0x20\n        /* \"contracts/LotteryToken.sol\":13505:13564  require(aidropDistributed <= AIRDROP_AMOUNT, \"exceeds max\") */\n      0x04\n      dup3\n      add\n        /* \"#utility.yul\":9559:9580   */\n      mstore\n        /* \"#utility.yul\":9616:9618   */\n      0x0b\n        /* \"#utility.yul\":9596:9614   */\n      0x24\n      dup3\n      add\n        /* \"#utility.yul\":9589:9619   */\n      mstore\n      shl(0xab, 0x0caf0c6cacac8e640dac2f)\n        /* \"#utility.yul\":9635:9653   */\n      0x44\n      dup3\n      add\n        /* \"#utility.yul\":9628:9669   */\n      mstore\n        /* \"#utility.yul\":9686:9704   */\n      0x64\n      add\n        /* \"contracts/LotteryToken.sol\":13505:13564  require(aidropDistributed <= AIRDROP_AMOUNT, \"exceeds max\") */\n      tag_245\n        /* \"#utility.yul\":9375:9710   */\n      jump\n        /* \"contracts/LotteryToken.sol\":13505:13564  require(aidropDistributed <= AIRDROP_AMOUNT, \"exceeds max\") */\n    tag_359:\n        /* \"contracts/LotteryToken.sol\":13575:13595  uint256 _currentRate */\n      0x00\n        /* \"contracts/LotteryToken.sol\":13598:13608  _getRate() */\n      tag_362\n        /* \"contracts/LotteryToken.sol\":13598:13606  _getRate */\n      tag_248\n        /* \"contracts/LotteryToken.sol\":13598:13608  _getRate() */\n      jump\t// in\n    tag_362:\n        /* \"contracts/LotteryToken.sol\":13575:13608  uint256 _currentRate = _getRate() */\n      swap1\n      pop\n        /* \"contracts/LotteryToken.sol\":13623:13629  uint i */\n      0x00\n        /* \"contracts/LotteryToken.sol\":13619:13830  for(uint i = 0; i < _receivers.length; i++){\r... */\n    tag_363:\n        /* \"contracts/LotteryToken.sol\":13639:13649  _receivers */\n      dup4\n        /* \"contracts/LotteryToken.sol\":13639:13656  _receivers.length */\n      mload\n        /* \"contracts/LotteryToken.sol\":13635:13636  i */\n      dup2\n        /* \"contracts/LotteryToken.sol\":13635:13656  i < _receivers.length */\n      lt\n        /* \"contracts/LotteryToken.sol\":13619:13830  for(uint i = 0; i < _receivers.length; i++){\r... */\n      iszero\n      tag_364\n      jumpi\n        /* \"contracts/LotteryToken.sol\":13703:13755  _rOwned[_receivers[i]].add(_value.mul(_currentRate)) */\n      tag_366\n        /* \"contracts/LotteryToken.sol\":13730:13754  _value.mul(_currentRate) */\n      tag_367\n        /* \"contracts/LotteryToken.sol\":13730:13736  _value */\n      dup5\n        /* \"contracts/LotteryToken.sol\":13741:13753  _currentRate */\n      dup5\n        /* \"contracts/LotteryToken.sol\":13730:13740  _value.mul */\n      tag_324\n        /* \"contracts/LotteryToken.sol\":13730:13754  _value.mul(_currentRate) */\n      jump\t// in\n    tag_367:\n        /* \"contracts/LotteryToken.sol\":13703:13710  _rOwned */\n      0x01\n        /* \"contracts/LotteryToken.sol\":13703:13725  _rOwned[_receivers[i]] */\n      0x00\n        /* \"contracts/LotteryToken.sol\":13711:13721  _receivers */\n      dup8\n        /* \"contracts/LotteryToken.sol\":13722:13723  i */\n      dup6\n        /* \"contracts/LotteryToken.sol\":13711:13724  _receivers[i] */\n      dup2\n      mload\n      dup2\n      lt\n      tag_369\n      jumpi\n      tag_369\n      tag_263\n      jump\t// in\n    tag_369:\n      0x20\n      mul\n      0x20\n      add\n      add\n      mload\n      sub(shl(0xa0, 0x01), 0x01)\n        /* \"contracts/LotteryToken.sol\":13703:13725  _rOwned[_receivers[i]] */\n      and\n      sub(shl(0xa0, 0x01), 0x01)\n      and\n      dup2\n      mstore\n      0x20\n      add\n      swap1\n      dup2\n      mstore\n      0x20\n      add\n      0x00\n      keccak256\n      sload\n        /* \"contracts/LotteryToken.sol\":13703:13729  _rOwned[_receivers[i]].add */\n      tag_276\n      swap1\n        /* \"contracts/LotteryToken.sol\":13703:13755  _rOwned[_receivers[i]].add(_value.mul(_currentRate)) */\n      swap2\n      swap1\n      0xffffffff\n      and\n      jump\t// in\n    tag_366:\n        /* \"contracts/LotteryToken.sol\":13677:13684  _rOwned */\n      0x01\n        /* \"contracts/LotteryToken.sol\":13677:13699  _rOwned[_receivers[i]] */\n      0x00\n        /* \"contracts/LotteryToken.sol\":13685:13695  _receivers */\n      dup7\n        /* \"contracts/LotteryToken.sol\":13696:13697  i */\n      dup5\n        /* \"contracts/LotteryToken.sol\":13685:13698  _receivers[i] */\n      dup2\n      mload\n      dup2\n      lt\n      tag_371\n      jumpi\n      tag_371\n      tag_263\n      jump\t// in\n    tag_371:\n      0x20\n      mul\n      0x20\n      add\n      add\n      mload\n      sub(shl(0xa0, 0x01), 0x01)\n        /* \"contracts/LotteryToken.sol\":13677:13699  _rOwned[_receivers[i]] */\n      and\n      sub(shl(0xa0, 0x01), 0x01)\n      and\n      dup2\n      mstore\n      0x20\n      add\n      swap1\n      dup2\n      mstore\n      0x20\n      add\n      0x00\n      keccak256\n        /* \"contracts/LotteryToken.sol\":13677:13755  _rOwned[_receivers[i]] =  _rOwned[_receivers[i]].add(_value.mul(_currentRate)) */\n      dup2\n      swap1\n      sstore\n      pop\n        /* \"contracts/LotteryToken.sol\":13796:13806  _receivers */\n      dup4\n        /* \"contracts/LotteryToken.sol\":13807:13808  i */\n      dup2\n        /* \"contracts/LotteryToken.sol\":13796:13809  _receivers[i] */\n      dup2\n      mload\n      dup2\n      lt\n      tag_373\n      jumpi\n      tag_373\n      tag_263\n      jump\t// in\n    tag_373:\n      0x20\n      mul\n      0x20\n      add\n      add\n      mload\n      sub(shl(0xa0, 0x01), 0x01)\n        /* \"contracts/LotteryToken.sol\":13775:13818  Transfer(address(0), _receivers[i], _value) */\n      and\n        /* \"contracts/LotteryToken.sol\":13792:13793  0 */\n      0x00\n      sub(shl(0xa0, 0x01), 0x01)\n        /* \"contracts/LotteryToken.sol\":13775:13818  Transfer(address(0), _receivers[i], _value) */\n      and\n      0x00\n      dup1\n      mload\n      0x20\n      data_ada389e1fc24a8587c776340efb91b36e675792ab631816100d55df0b5cf3cbc\n      dup4\n      codecopy\n      dup2\n      mload\n      swap2\n      mstore\n        /* \"contracts/LotteryToken.sol\":13811:13817  _value */\n      dup6\n        /* \"contracts/LotteryToken.sol\":13775:13818  Transfer(address(0), _receivers[i], _value) */\n      mload(0x40)\n      tag_374\n      swap2\n        /* \"#utility.yul\":13440:13465   */\n      dup2\n      mstore\n        /* \"#utility.yul\":13428:13430   */\n      0x20\n        /* \"#utility.yul\":13413:13431   */\n      add\n      swap1\n        /* \"#utility.yul\":13294:13471   */\n      jump\n        /* \"contracts/LotteryToken.sol\":13775:13818  Transfer(address(0), _receivers[i], _value) */\n    tag_374:\n      mload(0x40)\n      dup1\n      swap2\n      sub\n      swap1\n      log3\n        /* \"contracts/LotteryToken.sol\":13658:13661  i++ */\n      dup1\n      tag_375\n      dup2\n      tag_268\n      jump\t// in\n    tag_375:\n      swap2\n      pop\n      pop\n        /* \"contracts/LotteryToken.sol\":13619:13830  for(uint i = 0; i < _receivers.length; i++){\r... */\n      jump(tag_363)\n    tag_364:\n      pop\n        /* \"contracts/LotteryToken.sol\":13342:13837  {\r... */\n      pop\n        /* \"contracts/LotteryToken.sol\":13256:13837  function distributeAirdrop(address[] memory _receivers, uint _value) public onlyOwner {\r... */\n      pop\n      pop\n      jump\t// out\n        /* \"contracts/LotteryToken.sol\":9955:10042  function symbol() public view returns (string memory) {\r... */\n    tag_156:\n        /* \"contracts/LotteryToken.sol\":9994:10007  string memory */\n      0x60\n        /* \"contracts/LotteryToken.sol\":10027:10034  _symbol */\n      0x0c\n        /* \"contracts/LotteryToken.sol\":10020:10034  return _symbol */\n      dup1\n      sload\n      tag_222\n      swap1\n      tag_223\n      jump\t// in\n        /* \"contracts/LotteryToken.sol\":10473:10632  function genesisBalance(address account) public view returns (uint256) {\r... */\n    tag_160:\n      sub(shl(0xa0, 0x01), 0x01)\n        /* \"contracts/LotteryToken.sol\":10430:10452  _addressLevel[account] */\n      dup2\n      and\n        /* \"contracts/LotteryToken.sol\":10535:10542  uint256 */\n      0x00\n        /* \"contracts/LotteryToken.sol\":10430:10452  _addressLevel[account] */\n      swap1\n      dup2\n      mstore\n        /* \"contracts/LotteryToken.sol\":10430:10443  _addressLevel */\n      0x04\n        /* \"contracts/LotteryToken.sol\":10430:10452  _addressLevel[account] */\n      0x20\n      mstore\n      0x40\n      dup2\n      keccak256\n      sload\n        /* \"contracts/LotteryToken.sol\":10555:10605  if(isGenesisAddress(account)) return genesisReward */\n      tag_384\n      jumpi\n      pop\n      pop\n        /* \"contracts/LotteryToken.sol\":10592:10605  genesisReward */\n      sload(0x0e)\n      swap1\n        /* \"contracts/LotteryToken.sol\":10473:10632  function genesisBalance(address account) public view returns (uint256) {\r... */\n      jump\t// out\n        /* \"contracts/LotteryToken.sol\":10555:10605  if(isGenesisAddress(account)) return genesisReward */\n    tag_384:\n      pop\n        /* \"contracts/LotteryToken.sol\":10623:10624  0 */\n      0x00\n      swap2\n        /* \"contracts/LotteryToken.sol\":10473:10632  function genesisBalance(address account) public view returns (uint256) {\r... */\n      swap1\n      pop\n      jump\t// out\n        /* \"contracts/LotteryToken.sol\":12327:12596  function decreaseAllowance(address spender, uint256 subtractedValue) public virtual returns (bool) {\r... */\n    tag_167:\n        /* \"contracts/LotteryToken.sol\":12420:12424  bool */\n      0x00\n        /* \"contracts/LotteryToken.sol\":12437:12566  _approve(_msgSender(), spender, _allowances[_msgSender()][spender].sub(subtractedValue, \"ERC20: decreased allowance below zero\")) */\n      tag_229\n        /* \"@openzeppelin/contracts/utils/Context.sol\":719:729  msg.sender */\n      caller\n        /* \"contracts/LotteryToken.sol\":12460:12467  spender */\n      dup5\n        /* \"contracts/LotteryToken.sol\":12469:12565  _allowances[_msgSender()][spender].sub(subtractedValue, \"ERC20: decreased allowance below zero\") */\n      tag_240\n        /* \"contracts/LotteryToken.sol\":12508:12523  subtractedValue */\n      dup6\n        /* \"contracts/LotteryToken.sol\":12469:12565  _allowances[_msgSender()][spender].sub(subtractedValue, \"ERC20: decreased allowance below zero\") */\n      mload(0x40)\n      dup1\n      0x60\n      add\n      0x40\n      mstore\n      dup1\n      0x25\n      dup2\n      mstore\n      0x20\n      add\n      data_f8b476f7d28209d77d4a4ac1fe36b9f8259aa1bb6bddfa6e89de7e51615cf8a8\n      0x25\n      swap2\n      codecopy\n        /* \"@openzeppelin/contracts/utils/Context.sol\":719:729  msg.sender */\n      caller\n        /* \"contracts/LotteryToken.sol\":12469:12494  _allowances[_msgSender()] */\n      0x00\n      swap1\n      dup2\n      mstore\n        /* \"contracts/LotteryToken.sol\":12469:12480  _allowances */\n      0x03\n        /* \"contracts/LotteryToken.sol\":12469:12494  _allowances[_msgSender()] */\n      0x20\n      swap1\n      dup2\n      mstore\n      0x40\n      dup1\n      dup4\n      keccak256\n      sub(shl(0xa0, 0x01), 0x01)\n        /* \"contracts/LotteryToken.sol\":12469:12503  _allowances[_msgSender()][spender] */\n      dup14\n      and\n      dup5\n      mstore\n      swap1\n      swap2\n      mstore\n      swap1\n      keccak256\n      sload\n      swap2\n      swap1\n        /* \"contracts/LotteryToken.sol\":12469:12507  _allowances[_msgSender()][spender].sub */\n      tag_242\n        /* \"contracts/LotteryToken.sol\":12469:12565  _allowances[_msgSender()][spender].sub(subtractedValue, \"ERC20: decreased allowance below zero\") */\n      jump\t// in\n        /* \"contracts/LotteryToken.sol\":10875:11042  function transfer(address recipient, uint256 amount) public override returns (bool) {\r... */\n    tag_171:\n        /* \"contracts/LotteryToken.sol\":10953:10957  bool */\n      0x00\n        /* \"contracts/LotteryToken.sol\":10970:11012  _transfer(_msgSender(), recipient, amount) */\n      tag_229\n        /* \"@openzeppelin/contracts/utils/Context.sol\":719:729  msg.sender */\n      caller\n        /* \"contracts/LotteryToken.sol\":10994:11003  recipient */\n      dup5\n        /* \"contracts/LotteryToken.sol\":11005:11011  amount */\n      dup5\n        /* \"contracts/LotteryToken.sol\":10970:10979  _transfer */\n      tag_237\n        /* \"contracts/LotteryToken.sol\":10970:11012  _transfer(_msgSender(), recipient, amount) */\n      jump\t// in\n        /* \"contracts/LotteryToken.sol\":24302:24416  function getCurrentRTSupply() public view returns (uint256, uint256) {\r... */\n    tag_174:\n        /* \"contracts/LotteryToken.sol\":24353:24360  uint256 */\n      0x00\n        /* \"contracts/LotteryToken.sol\":24362:24369  uint256 */\n      dup1\n        /* \"contracts/LotteryToken.sol\":24389:24408  _getCurrentSupply() */\n      tag_394\n        /* \"contracts/LotteryToken.sol\":24389:24406  _getCurrentSupply */\n      tag_395\n        /* \"contracts/LotteryToken.sol\":24389:24408  _getCurrentSupply() */\n      jump\t// in\n    tag_394:\n        /* \"contracts/LotteryToken.sol\":24382:24408  return _getCurrentSupply() */\n      swap2\n      pop\n      swap2\n      pop\n        /* \"contracts/LotteryToken.sol\":24302:24416  function getCurrentRTSupply() public view returns (uint256, uint256) {\r... */\n      swap1\n      swap2\n      jump\t// out\n        /* \"contracts/LotteryToken.sol\":13021:13248  function notifyGenesisAddresses(address[] memory _receivers, uint _value) public onlyOwner {\r... */\n    tag_187:\n        /* \"@openzeppelin/contracts/access/Ownable.sol\":1082:1089  address */\n      0x00\n        /* \"@openzeppelin/contracts/access/Ownable.sol\":1108:1114  _owner */\n      sload\n      sub(shl(0xa0, 0x01), 0x01)\n      and\n        /* \"@openzeppelin/contracts/utils/Context.sol\":719:729  msg.sender */\n      caller\n        /* \"@openzeppelin/contracts/access/Ownable.sol\":1248:1271  owner() == _msgSender() */\n      eq\n        /* \"@openzeppelin/contracts/access/Ownable.sol\":1240:1308  require(owner() == _msgSender(), \"Ownable: caller is not the owner\") */\n      tag_400\n      jumpi\n      mload(0x40)\n      shl(0xe5, 0x461bcd)\n      dup2\n      mstore\n      0x04\n      add\n      tag_245\n      swap1\n      tag_315\n      jump\t// in\n    tag_400:\n        /* \"contracts/LotteryToken.sol\":13127:13133  uint i */\n      0x00\n        /* \"contracts/LotteryToken.sol\":13123:13241  for(uint i = 0; i < _receivers.length; i++){\r... */\n    tag_403:\n        /* \"contracts/LotteryToken.sol\":13143:13153  _receivers */\n      dup3\n        /* \"contracts/LotteryToken.sol\":13143:13160  _receivers.length */\n      mload\n        /* \"contracts/LotteryToken.sol\":13139:13140  i */\n      dup2\n        /* \"contracts/LotteryToken.sol\":13139:13160  i < _receivers.length */\n      lt\n        /* \"contracts/LotteryToken.sol\":13123:13241  for(uint i = 0; i < _receivers.length; i++){\r... */\n      iszero\n      tag_257\n      jumpi\n        /* \"contracts/LotteryToken.sol\":13207:13217  _receivers */\n      dup3\n        /* \"contracts/LotteryToken.sol\":13218:13219  i */\n      dup2\n        /* \"contracts/LotteryToken.sol\":13207:13220  _receivers[i] */\n      dup2\n      mload\n      dup2\n      lt\n      tag_407\n      jumpi\n      tag_407\n      tag_263\n      jump\t// in\n    tag_407:\n      0x20\n      mul\n      0x20\n      add\n      add\n      mload\n      sub(shl(0xa0, 0x01), 0x01)\n        /* \"contracts/LotteryToken.sol\":13186:13229  Transfer(address(0), _receivers[i], _value) */\n      and\n        /* \"contracts/LotteryToken.sol\":13203:13204  0 */\n      0x00\n      sub(shl(0xa0, 0x01), 0x01)\n        /* \"contracts/LotteryToken.sol\":13186:13229  Transfer(address(0), _receivers[i], _value) */\n      and\n      0x00\n      dup1\n      mload\n      0x20\n      data_ada389e1fc24a8587c776340efb91b36e675792ab631816100d55df0b5cf3cbc\n      dup4\n      codecopy\n      dup2\n      mload\n      swap2\n      mstore\n        /* \"contracts/LotteryToken.sol\":13222:13228  _value */\n      dup5\n        /* \"contracts/LotteryToken.sol\":13186:13229  Transfer(address(0), _receivers[i], _value) */\n      mload(0x40)\n      tag_408\n      swap2\n        /* \"#utility.yul\":13440:13465   */\n      dup2\n      mstore\n        /* \"#utility.yul\":13428:13430   */\n      0x20\n        /* \"#utility.yul\":13413:13431   */\n      add\n      swap1\n        /* \"#utility.yul\":13294:13471   */\n      jump\n        /* \"contracts/LotteryToken.sol\":13186:13229  Transfer(address(0), _receivers[i], _value) */\n    tag_408:\n      mload(0x40)\n      dup1\n      swap2\n      sub\n      swap1\n      log3\n        /* \"contracts/LotteryToken.sol\":13162:13165  i++ */\n      dup1\n      tag_409\n      dup2\n      tag_268\n      jump\t// in\n    tag_409:\n      swap2\n      pop\n      pop\n        /* \"contracts/LotteryToken.sol\":13123:13241  for(uint i = 0; i < _receivers.length; i++){\r... */\n      jump(tag_403)\n        /* \"contracts/LotteryToken.sol\":14641:14796  function setBotKeeper(address _newKeeper) public onlyOwner {\r... */\n    tag_195:\n        /* \"@openzeppelin/contracts/access/Ownable.sol\":1082:1089  address */\n      0x00\n        /* \"@openzeppelin/contracts/access/Ownable.sol\":1108:1114  _owner */\n      sload\n      sub(shl(0xa0, 0x01), 0x01)\n      and\n        /* \"@openzeppelin/contracts/utils/Context.sol\":719:729  msg.sender */\n      caller\n        /* \"@openzeppelin/contracts/access/Ownable.sol\":1248:1271  owner() == _msgSender() */\n      eq\n        /* \"@openzeppelin/contracts/access/Ownable.sol\":1240:1308  require(owner() == _msgSender(), \"Ownable: caller is not the owner\") */\n      tag_414\n      jumpi\n      mload(0x40)\n      shl(0xe5, 0x461bcd)\n      dup2\n      mstore\n      0x04\n      add\n      tag_245\n      swap1\n      tag_315\n      jump\t// in\n    tag_414:\n        /* \"contracts/LotteryToken.sol\":14733:14742  botKeeper */\n      sload(0x11)\n        /* \"contracts/LotteryToken.sol\":14716:14755  BotKeeperChanged(botKeeper, _newKeeper) */\n      mload(0x40)\n      sub(shl(0xa0, 0x01), 0x01)\n      dup1\n      dup5\n      and\n      swap3\n        /* \"contracts/LotteryToken.sol\":14733:14742  botKeeper */\n      and\n      swap1\n        /* \"contracts/LotteryToken.sol\":14716:14755  BotKeeperChanged(botKeeper, _newKeeper) */\n      0x87539e2e2a47def56cbbc1ace5c120be06f04b7a3c7a70a387f1d8e14ce315a6\n      swap1\n        /* \"contracts/LotteryToken.sol\":14733:14742  botKeeper */\n      0x00\n      swap1\n        /* \"contracts/LotteryToken.sol\":14716:14755  BotKeeperChanged(botKeeper, _newKeeper) */\n      log3\n        /* \"contracts/LotteryToken.sol\":14766:14775  botKeeper */\n      0x11\n        /* \"contracts/LotteryToken.sol\":14766:14788  botKeeper = _newKeeper */\n      dup1\n      sload\n      not(sub(shl(0xa0, 0x01), 0x01))\n      and\n      sub(shl(0xa0, 0x01), 0x01)\n      swap3\n      swap1\n      swap3\n      and\n      swap2\n      swap1\n      swap2\n      or\n      swap1\n      sstore\n        /* \"contracts/LotteryToken.sol\":14641:14796  function setBotKeeper(address _newKeeper) public onlyOwner {\r... */\n      jump\t// out\n        /* \"contracts/LotteryToken.sol\":14301:14633  function setGenesisReward(uint256 amount) public onlyOwner {\r... */\n    tag_198:\n        /* \"@openzeppelin/contracts/access/Ownable.sol\":1082:1089  address */\n      0x00\n        /* \"@openzeppelin/contracts/access/Ownable.sol\":1108:1114  _owner */\n      sload\n      sub(shl(0xa0, 0x01), 0x01)\n      and\n        /* \"@openzeppelin/contracts/utils/Context.sol\":719:729  msg.sender */\n      caller\n        /* \"@openzeppelin/contracts/access/Ownable.sol\":1248:1271  owner() == _msgSender() */\n      eq\n        /* \"@openzeppelin/contracts/access/Ownable.sol\":1240:1308  require(owner() == _msgSender(), \"Ownable: caller is not the owner\") */\n      tag_420\n      jumpi\n      mload(0x40)\n      shl(0xe5, 0x461bcd)\n      dup2\n      mstore\n      0x04\n      add\n      tag_245\n      swap1\n      tag_315\n      jump\t// in\n    tag_420:\n        /* \"contracts/LotteryToken.sol\":14482:14505  totalSupply().div(1e11) */\n      tag_423\n        /* \"contracts/LotteryToken.sol\":14500:14504  1e11 */\n      0x174876e800\n        /* \"contracts/LotteryToken.sol\":14482:14495  totalSupply() */\n      tag_424\n        /* \"contracts/LotteryToken.sol\":10221:10233  _totalSupply */\n      sload(0x08)\n      swap1\n        /* \"contracts/LotteryToken.sol\":10141:10241  function totalSupply() public view override returns (uint256) {\r... */\n      jump\n        /* \"contracts/LotteryToken.sol\":14482:14495  totalSupply() */\n    tag_424:\n        /* \"contracts/LotteryToken.sol\":14482:14499  totalSupply().div */\n      swap1\n      tag_220\n        /* \"contracts/LotteryToken.sol\":14482:14505  totalSupply().div(1e11) */\n      jump\t// in\n    tag_423:\n        /* \"contracts/LotteryToken.sol\":14472:14478  amount */\n      dup2\n        /* \"contracts/LotteryToken.sol\":14472:14505  amount <= totalSupply().div(1e11) */\n      gt\n      iszero\n        /* \"contracts/LotteryToken.sol\":14464:14533  require(amount <= totalSupply().div(1e11), \"set genesis reward: bad\") */\n      tag_425\n      jumpi\n      mload(0x40)\n      shl(0xe5, 0x461bcd)\n      dup2\n      mstore\n        /* \"#utility.yul\":9225:9227   */\n      0x20\n        /* \"contracts/LotteryToken.sol\":14464:14533  require(amount <= totalSupply().div(1e11), \"set genesis reward: bad\") */\n      0x04\n      dup3\n      add\n        /* \"#utility.yul\":9207:9228   */\n      mstore\n        /* \"#utility.yul\":9264:9266   */\n      0x17\n        /* \"#utility.yul\":9244:9262   */\n      0x24\n      dup3\n      add\n        /* \"#utility.yul\":9237:9267   */\n      mstore\n        /* \"#utility.yul\":9303:9328   */\n      0x7365742067656e65736973207265776172643a20626164000000000000000000\n        /* \"#utility.yul\":9283:9301   */\n      0x44\n      dup3\n      add\n        /* \"#utility.yul\":9276:9329   */\n      mstore\n        /* \"#utility.yul\":9346:9364   */\n      0x64\n      add\n        /* \"contracts/LotteryToken.sol\":14464:14533  require(amount <= totalSupply().div(1e11), \"set genesis reward: bad\") */\n      tag_245\n        /* \"#utility.yul\":9023:9370   */\n      jump\n        /* \"contracts/LotteryToken.sol\":14464:14533  require(amount <= totalSupply().div(1e11), \"set genesis reward: bad\") */\n    tag_425:\n        /* \"contracts/LotteryToken.sol\":14570:14583  genesisReward */\n      sload(0x0e)\n        /* \"contracts/LotteryToken.sol\":14549:14592  GenesisRewardChanged(genesisReward, amount) */\n      mload(0x40)\n        /* \"contracts/LotteryToken.sol\":14585:14591  amount */\n      dup3\n      swap2\n        /* \"contracts/LotteryToken.sol\":14570:14583  genesisReward */\n      swap1\n        /* \"contracts/LotteryToken.sol\":14549:14592  GenesisRewardChanged(genesisReward, amount) */\n      0x8e32115a7f54666bf8087d1af4ab7f86f8b817a6979903f742f0c90432acd8ef\n      swap1\n      0x00\n      swap1\n      log3\n        /* \"contracts/LotteryToken.sol\":14603:14616  genesisReward */\n      0x0e\n        /* \"contracts/LotteryToken.sol\":14603:14625  genesisReward = amount */\n      sstore\n        /* \"contracts/LotteryToken.sol\":14301:14633  function setGenesisReward(uint256 amount) public onlyOwner {\r... */\n      jump\t// out\n        /* \"contracts/LotteryToken.sol\":11050:11200  function treasuryTransfer(address recipient, uint256 amount) public onlyTreasury {\r... */\n    tag_204:\n        /* \"contracts/LotteryToken.sol\":9473:9489  treasuryContract */\n      and(sub(shl(0xa0, 0x01), 0x01), sload(0x12))\n        /* \"@openzeppelin/contracts/utils/Context.sol\":719:729  msg.sender */\n      caller\n      sub(shl(0xa0, 0x01), 0x01)\n        /* \"contracts/LotteryToken.sol\":9457:9489  _msgSender() == treasuryContract */\n      and\n      eq\n        /* \"contracts/LotteryToken.sol\":9449:9507  require(_msgSender() == treasuryContract, \"Only Treasury\") */\n      tag_430\n      jumpi\n      mload(0x40)\n      shl(0xe5, 0x461bcd)\n      dup2\n      mstore\n      0x04\n      add\n      tag_245\n      swap1\n      tag_254\n      jump\t// in\n    tag_430:\n        /* \"contracts/LotteryToken.sol\":11142:11192  _treasuryTransfer(_msgSender(), recipient, amount) */\n      tag_282\n        /* \"@openzeppelin/contracts/utils/Context.sol\":719:729  msg.sender */\n      caller\n        /* \"contracts/LotteryToken.sol\":11174:11183  recipient */\n      dup4\n        /* \"contracts/LotteryToken.sol\":11185:11191  amount */\n      dup4\n        /* \"contracts/LotteryToken.sol\":11142:11159  _treasuryTransfer */\n      tag_266\n        /* \"contracts/LotteryToken.sol\":11142:11192  _treasuryTransfer(_msgSender(), recipient, amount) */\n      jump\t// in\n        /* \"contracts/LotteryToken.sol\":15263:15673  function donate(uint256 amount) public {\r... */\n    tag_207:\n        /* \"@openzeppelin/contracts/utils/Context.sol\":719:729  msg.sender */\n      caller\n        /* \"contracts/LotteryToken.sol\":15313:15327  address sender */\n      0x00\n        /* \"contracts/LotteryToken.sol\":15362:15381  _isExcluded[sender] */\n      dup2\n      dup2\n      mstore\n        /* \"contracts/LotteryToken.sol\":15362:15373  _isExcluded */\n      0x05\n        /* \"contracts/LotteryToken.sol\":15362:15381  _isExcluded[sender] */\n      0x20\n      mstore\n      0x40\n      swap1\n      keccak256\n      sload\n      0xff\n      and\n        /* \"contracts/LotteryToken.sol\":15361:15381  !_isExcluded[sender] */\n      iszero\n        /* \"contracts/LotteryToken.sol\":15353:15430  require(!_isExcluded[sender], \"Excluded addresses cannot call this function\") */\n      tag_437\n      jumpi\n      mload(0x40)\n      shl(0xe5, 0x461bcd)\n      dup2\n      mstore\n        /* \"#utility.yul\":12538:12540   */\n      0x20\n        /* \"contracts/LotteryToken.sol\":15353:15430  require(!_isExcluded[sender], \"Excluded addresses cannot call this function\") */\n      0x04\n      dup3\n      add\n        /* \"#utility.yul\":12520:12541   */\n      mstore\n        /* \"#utility.yul\":12577:12579   */\n      0x2c\n        /* \"#utility.yul\":12557:12575   */\n      0x24\n      dup3\n      add\n        /* \"#utility.yul\":12550:12580   */\n      mstore\n        /* \"#utility.yul\":12616:12650   */\n      0x4578636c75646564206164647265737365732063616e6e6f742063616c6c2074\n        /* \"#utility.yul\":12596:12614   */\n      0x44\n      dup3\n      add\n        /* \"#utility.yul\":12589:12651   */\n      mstore\n      shl(0xa1, 0x3434b990333ab731ba34b7b7)\n        /* \"#utility.yul\":12667:12685   */\n      0x64\n      dup3\n      add\n        /* \"#utility.yul\":12660:12702   */\n      mstore\n        /* \"#utility.yul\":12719:12738   */\n      0x84\n      add\n        /* \"contracts/LotteryToken.sol\":15353:15430  require(!_isExcluded[sender], \"Excluded addresses cannot call this function\") */\n      tag_245\n        /* \"#utility.yul\":12336:12744   */\n      jump\n        /* \"contracts/LotteryToken.sol\":15353:15430  require(!_isExcluded[sender], \"Excluded addresses cannot call this function\") */\n    tag_437:\n        /* \"contracts/LotteryToken.sol\":15442:15457  uint256 rAmount */\n      0x00\n        /* \"contracts/LotteryToken.sol\":15465:15483  _getValues(amount) */\n      tag_440\n        /* \"contracts/LotteryToken.sol\":15476:15482  amount */\n      dup4\n        /* \"contracts/LotteryToken.sol\":15465:15475  _getValues */\n      tag_297\n        /* \"contracts/LotteryToken.sol\":15465:15483  _getValues(amount) */\n      jump\t// in\n    tag_440:\n      pop\n      pop\n      pop\n      pop\n      sub(shl(0xa0, 0x01), 0x01)\n        /* \"contracts/LotteryToken.sol\":15512:15527  _rOwned[sender] */\n      dup4\n      and\n      0x00\n      swap1\n      dup2\n      mstore\n        /* \"contracts/LotteryToken.sol\":15512:15519  _rOwned */\n      0x01\n        /* \"contracts/LotteryToken.sol\":15512:15527  _rOwned[sender] */\n      0x20\n      mstore\n      0x40\n      swap1\n      keccak256\n      sload\n        /* \"contracts/LotteryToken.sol\":15441:15483  (uint256 rAmount,,,,) = _getValues(amount) */\n      swap1\n      swap2\n      pop\n        /* \"contracts/LotteryToken.sol\":15512:15540  _rOwned[sender].sub(rAmount) */\n      tag_441\n      swap1\n        /* \"contracts/LotteryToken.sol\":15441:15483  (uint256 rAmount,,,,) = _getValues(amount) */\n      dup3\n        /* \"contracts/LotteryToken.sol\":15512:15531  _rOwned[sender].sub */\n      tag_442\n        /* \"contracts/LotteryToken.sol\":15512:15540  _rOwned[sender].sub(rAmount) */\n      jump\t// in\n    tag_441:\n      sub(shl(0xa0, 0x01), 0x01)\n        /* \"contracts/LotteryToken.sol\":15494:15509  _rOwned[sender] */\n      dup4\n      and\n      0x00\n      swap1\n      dup2\n      mstore\n        /* \"contracts/LotteryToken.sol\":15494:15501  _rOwned */\n      0x01\n        /* \"contracts/LotteryToken.sol\":15494:15509  _rOwned[sender] */\n      0x20\n      mstore\n      0x40\n      swap1\n      keccak256\n        /* \"contracts/LotteryToken.sol\":15494:15540  _rOwned[sender] = _rOwned[sender].sub(rAmount) */\n      sstore\n        /* \"contracts/LotteryToken.sol\":15561:15568  _rTotal */\n      sload(0x09)\n        /* \"contracts/LotteryToken.sol\":15561:15581  _rTotal.sub(rAmount) */\n      tag_443\n      swap1\n        /* \"contracts/LotteryToken.sol\":15573:15580  rAmount */\n      dup3\n        /* \"contracts/LotteryToken.sol\":15561:15572  _rTotal.sub */\n      tag_442\n        /* \"contracts/LotteryToken.sol\":15561:15581  _rTotal.sub(rAmount) */\n      jump\t// in\n    tag_443:\n        /* \"contracts/LotteryToken.sol\":15551:15558  _rTotal */\n      0x09\n        /* \"contracts/LotteryToken.sol\":15551:15581  _rTotal = _rTotal.sub(rAmount) */\n      sstore\n        /* \"contracts/LotteryToken.sol\":15605:15615  _tFeeTotal */\n      sload(0x0a)\n        /* \"contracts/LotteryToken.sol\":15605:15627  _tFeeTotal.add(amount) */\n      tag_444\n      swap1\n        /* \"contracts/LotteryToken.sol\":15620:15626  amount */\n      dup5\n        /* \"contracts/LotteryToken.sol\":15605:15619  _tFeeTotal.add */\n      tag_276\n        /* \"contracts/LotteryToken.sol\":15605:15627  _tFeeTotal.add(amount) */\n      jump\t// in\n    tag_444:\n        /* \"contracts/LotteryToken.sol\":15592:15602  _tFeeTotal */\n      0x0a\n        /* \"contracts/LotteryToken.sol\":15592:15627  _tFeeTotal = _tFeeTotal.add(amount) */\n      sstore\n        /* \"contracts/LotteryToken.sol\":15643:15665  Donate(sender, amount) */\n      mload(0x40)\n        /* \"contracts/LotteryToken.sol\":15658:15664  amount */\n      dup4\n      swap1\n      sub(shl(0xa0, 0x01), 0x01)\n        /* \"contracts/LotteryToken.sol\":15643:15665  Donate(sender, amount) */\n      dup5\n      and\n      swap1\n      0x0553260a2e46b0577270d8992db02d30856ca880144c72d6e9503760946aef13\n      swap1\n      0x00\n      swap1\n      log3\n        /* \"contracts/LotteryToken.sol\":15302:15673  {\r... */\n      pop\n      pop\n        /* \"contracts/LotteryToken.sol\":15263:15673  function donate(uint256 amount) public {\r... */\n      pop\n      jump\t// out\n        /* \"contracts/LotteryToken.sol\":16389:16721  function excludeAccount(address account) external onlyOwner() {\r... */\n    tag_210:\n        /* \"@openzeppelin/contracts/access/Ownable.sol\":1082:1089  address */\n      0x00\n        /* \"@openzeppelin/contracts/access/Ownable.sol\":1108:1114  _owner */\n      sload\n      sub(shl(0xa0, 0x01), 0x01)\n      and\n        /* \"@openzeppelin/contracts/utils/Context.sol\":719:729  msg.sender */\n      caller\n        /* \"@openzeppelin/contracts/access/Ownable.sol\":1248:1271  owner() == _msgSender() */\n      eq\n        /* \"@openzeppelin/contracts/access/Ownable.sol\":1240:1308  require(owner() == _msgSender(), \"Ownable: caller is not the owner\") */\n      tag_448\n      jumpi\n      mload(0x40)\n      shl(0xe5, 0x461bcd)\n      dup2\n      mstore\n      0x04\n      add\n      tag_245\n      swap1\n      tag_315\n      jump\t// in\n    tag_448:\n      sub(shl(0xa0, 0x01), 0x01)\n        /* \"contracts/LotteryToken.sol\":16471:16491  _isExcluded[account] */\n      dup2\n      and\n      0x00\n      swap1\n      dup2\n      mstore\n        /* \"contracts/LotteryToken.sol\":16471:16482  _isExcluded */\n      0x05\n        /* \"contracts/LotteryToken.sol\":16471:16491  _isExcluded[account] */\n      0x20\n      mstore\n      0x40\n      swap1\n      keccak256\n      sload\n      0xff\n      and\n        /* \"contracts/LotteryToken.sol\":16470:16491  !_isExcluded[account] */\n      iszero\n        /* \"contracts/LotteryToken.sol\":16462:16523  require(!_isExcluded[account], \"Account is already excluded\") */\n      tag_451\n      jumpi\n      mload(0x40)\n      shl(0xe5, 0x461bcd)\n      dup2\n      mstore\n        /* \"#utility.yul\":7465:7467   */\n      0x20\n        /* \"contracts/LotteryToken.sol\":16462:16523  require(!_isExcluded[account], \"Account is already excluded\") */\n      0x04\n      dup3\n      add\n        /* \"#utility.yul\":7447:7468   */\n      mstore\n        /* \"#utility.yul\":7504:7506   */\n      0x1b\n        /* \"#utility.yul\":7484:7502   */\n      0x24\n      dup3\n      add\n        /* \"#utility.yul\":7477:7507   */\n      mstore\n        /* \"#utility.yul\":7543:7572   */\n      0x4163636f756e7420697320616c7265616479206578636c756465640000000000\n        /* \"#utility.yul\":7523:7541   */\n      0x44\n      dup3\n      add\n        /* \"#utility.yul\":7516:7573   */\n      mstore\n        /* \"#utility.yul\":7590:7608   */\n      0x64\n      add\n        /* \"contracts/LotteryToken.sol\":16462:16523  require(!_isExcluded[account], \"Account is already excluded\") */\n      tag_245\n        /* \"#utility.yul\":7263:7614   */\n      jump\n        /* \"contracts/LotteryToken.sol\":16462:16523  require(!_isExcluded[account], \"Account is already excluded\") */\n    tag_451:\n      sub(shl(0xa0, 0x01), 0x01)\n        /* \"contracts/LotteryToken.sol\":16537:16553  _rOwned[account] */\n      dup2\n      and\n        /* \"contracts/LotteryToken.sol\":16556:16557  0 */\n      0x00\n        /* \"contracts/LotteryToken.sol\":16537:16553  _rOwned[account] */\n      swap1\n      dup2\n      mstore\n        /* \"contracts/LotteryToken.sol\":16537:16544  _rOwned */\n      0x01\n        /* \"contracts/LotteryToken.sol\":16537:16553  _rOwned[account] */\n      0x20\n      mstore\n      0x40\n      swap1\n      keccak256\n      sload\n        /* \"contracts/LotteryToken.sol\":16537:16557  _rOwned[account] > 0 */\n      iszero\n        /* \"contracts/LotteryToken.sol\":16534:16642  if(_rOwned[account] > 0) {\r... */\n      tag_454\n      jumpi\n      sub(shl(0xa0, 0x01), 0x01)\n        /* \"contracts/LotteryToken.sol\":16613:16629  _rOwned[account] */\n      dup2\n      and\n      0x00\n      swap1\n      dup2\n      mstore\n        /* \"contracts/LotteryToken.sol\":16613:16620  _rOwned */\n      0x01\n        /* \"contracts/LotteryToken.sol\":16613:16629  _rOwned[account] */\n      0x20\n      mstore\n      0x40\n      swap1\n      keccak256\n      sload\n        /* \"contracts/LotteryToken.sol\":16593:16630  tokenFromReflection(_rOwned[account]) */\n      tag_455\n      swap1\n        /* \"contracts/LotteryToken.sol\":16593:16612  tokenFromReflection */\n      tag_91\n        /* \"contracts/LotteryToken.sol\":16593:16630  tokenFromReflection(_rOwned[account]) */\n      jump\t// in\n    tag_455:\n      sub(shl(0xa0, 0x01), 0x01)\n        /* \"contracts/LotteryToken.sol\":16574:16590  _tOwned[account] */\n      dup3\n      and\n      0x00\n      swap1\n      dup2\n      mstore\n        /* \"contracts/LotteryToken.sol\":16574:16581  _tOwned */\n      0x02\n        /* \"contracts/LotteryToken.sol\":16574:16590  _tOwned[account] */\n      0x20\n      mstore\n      0x40\n      swap1\n      keccak256\n        /* \"contracts/LotteryToken.sol\":16574:16630  _tOwned[account] = tokenFromReflection(_rOwned[account]) */\n      sstore\n        /* \"contracts/LotteryToken.sol\":16534:16642  if(_rOwned[account] > 0) {\r... */\n    tag_454:\n      sub(shl(0xa0, 0x01), 0x01)\n        /* \"contracts/LotteryToken.sol\":16652:16672  _isExcluded[account] */\n      and\n      0x00\n      dup2\n      dup2\n      mstore\n        /* \"contracts/LotteryToken.sol\":16652:16663  _isExcluded */\n      0x05\n        /* \"contracts/LotteryToken.sol\":16652:16672  _isExcluded[account] */\n      0x20\n      mstore\n      0x40\n      dup2\n      keccak256\n        /* \"contracts/LotteryToken.sol\":16652:16679  _isExcluded[account] = true */\n      dup1\n      sload\n      not(0xff)\n      and\n        /* \"contracts/LotteryToken.sol\":16675:16679  true */\n      0x01\n        /* \"contracts/LotteryToken.sol\":16652:16679  _isExcluded[account] = true */\n      swap1\n      dup2\n      or\n      swap1\n      swap2\n      sstore\n        /* \"contracts/LotteryToken.sol\":16690:16699  _excluded */\n      0x06\n        /* \"contracts/LotteryToken.sol\":16690:16713  _excluded.push(account) */\n      dup1\n      sload\n      swap2\n      dup3\n      add\n      dup2\n      sstore\n      swap1\n      swap2\n      mstore\n      0xf652222313e28459528d920b65115c16c04f3efc82aaedc97be59f3f377c0d3f\n      add\n      dup1\n      sload\n      not(sub(shl(0xa0, 0x01), 0x01))\n      and\n      swap1\n      swap2\n      or\n      swap1\n      sstore\n        /* \"contracts/LotteryToken.sol\":16389:16721  function excludeAccount(address account) external onlyOwner() {\r... */\n      jump\t// out\n        /* \"@openzeppelin/contracts/access/Ownable.sol\":1918:2116  function transferOwnership(address newOwner) public virtual onlyOwner {... */\n    tag_213:\n        /* \"@openzeppelin/contracts/access/Ownable.sol\":1082:1089  address */\n      0x00\n        /* \"@openzeppelin/contracts/access/Ownable.sol\":1108:1114  _owner */\n      sload\n      sub(shl(0xa0, 0x01), 0x01)\n      and\n        /* \"@openzeppelin/contracts/utils/Context.sol\":719:729  msg.sender */\n      caller\n        /* \"@openzeppelin/contracts/access/Ownable.sol\":1248:1271  owner() == _msgSender() */\n      eq\n        /* \"@openzeppelin/contracts/access/Ownable.sol\":1240:1308  require(owner() == _msgSender(), \"Ownable: caller is not the owner\") */\n      tag_460\n      jumpi\n      mload(0x40)\n      shl(0xe5, 0x461bcd)\n      dup2\n      mstore\n      0x04\n      add\n      tag_245\n      swap1\n      tag_315\n      jump\t// in\n    tag_460:\n      sub(shl(0xa0, 0x01), 0x01)\n        /* \"@openzeppelin/contracts/access/Ownable.sol\":2006:2028  newOwner != address(0) */\n      dup2\n      and\n        /* \"@openzeppelin/contracts/access/Ownable.sol\":1998:2071  require(newOwner != address(0), \"Ownable: new owner is the zero address\") */\n      tag_463\n      jumpi\n      mload(0x40)\n      shl(0xe5, 0x461bcd)\n      dup2\n      mstore\n        /* \"#utility.yul\":6655:6657   */\n      0x20\n        /* \"@openzeppelin/contracts/access/Ownable.sol\":1998:2071  require(newOwner != address(0), \"Ownable: new owner is the zero address\") */\n      0x04\n      dup3\n      add\n        /* \"#utility.yul\":6637:6658   */\n      mstore\n        /* \"#utility.yul\":6694:6696   */\n      0x26\n        /* \"#utility.yul\":6674:6692   */\n      0x24\n      dup3\n      add\n        /* \"#utility.yul\":6667:6697   */\n      mstore\n        /* \"#utility.yul\":6733:6767   */\n      0x4f776e61626c653a206e6577206f776e657220697320746865207a65726f2061\n        /* \"#utility.yul\":6713:6731   */\n      0x44\n      dup3\n      add\n        /* \"#utility.yul\":6706:6768   */\n      mstore\n      shl(0xd0, 0x646472657373)\n        /* \"#utility.yul\":6784:6802   */\n      0x64\n      dup3\n      add\n        /* \"#utility.yul\":6777:6813   */\n      mstore\n        /* \"#utility.yul\":6830:6849   */\n      0x84\n      add\n        /* \"@openzeppelin/contracts/access/Ownable.sol\":1998:2071  require(newOwner != address(0), \"Ownable: new owner is the zero address\") */\n      tag_245\n        /* \"#utility.yul\":6453:6855   */\n      jump\n        /* \"@openzeppelin/contracts/access/Ownable.sol\":1998:2071  require(newOwner != address(0), \"Ownable: new owner is the zero address\") */\n    tag_463:\n        /* \"@openzeppelin/contracts/access/Ownable.sol\":2081:2109  _transferOwnership(newOwner) */\n      tag_289\n        /* \"@openzeppelin/contracts/access/Ownable.sol\":2100:2108  newOwner */\n      dup2\n        /* \"@openzeppelin/contracts/access/Ownable.sol\":2081:2099  _transferOwnership */\n      tag_346\n        /* \"@openzeppelin/contracts/access/Ownable.sol\":2081:2109  _transferOwnership(newOwner) */\n      jump\t// in\n        /* \"contracts/LotteryToken.sol\":16729:17207  function includeAccount(address account) external onlyOwner() {\r... */\n    tag_219:\n        /* \"@openzeppelin/contracts/access/Ownable.sol\":1082:1089  address */\n      0x00\n        /* \"@openzeppelin/contracts/access/Ownable.sol\":1108:1114  _owner */\n      sload\n      sub(shl(0xa0, 0x01), 0x01)\n      and\n        /* \"@openzeppelin/contracts/utils/Context.sol\":719:729  msg.sender */\n      caller\n        /* \"@openzeppelin/contracts/access/Ownable.sol\":1248:1271  owner() == _msgSender() */\n      eq\n        /* \"@openzeppelin/contracts/access/Ownable.sol\":1240:1308  require(owner() == _msgSender(), \"Ownable: caller is not the owner\") */\n      tag_470\n      jumpi\n      mload(0x40)\n      shl(0xe5, 0x461bcd)\n      dup2\n      mstore\n      0x04\n      add\n      tag_245\n      swap1\n      tag_315\n      jump\t// in\n    tag_470:\n      sub(shl(0xa0, 0x01), 0x01)\n        /* \"contracts/LotteryToken.sol\":16810:16830  _isExcluded[account] */\n      dup2\n      and\n      0x00\n      swap1\n      dup2\n      mstore\n        /* \"contracts/LotteryToken.sol\":16810:16821  _isExcluded */\n      0x05\n        /* \"contracts/LotteryToken.sol\":16810:16830  _isExcluded[account] */\n      0x20\n      mstore\n      0x40\n      swap1\n      keccak256\n      sload\n      0xff\n      and\n        /* \"contracts/LotteryToken.sol\":16802:16862  require(_isExcluded[account], \"Account is already excluded\") */\n      tag_473\n      jumpi\n      mload(0x40)\n      shl(0xe5, 0x461bcd)\n      dup2\n      mstore\n        /* \"#utility.yul\":7465:7467   */\n      0x20\n        /* \"contracts/LotteryToken.sol\":16802:16862  require(_isExcluded[account], \"Account is already excluded\") */\n      0x04\n      dup3\n      add\n        /* \"#utility.yul\":7447:7468   */\n      mstore\n        /* \"#utility.yul\":7504:7506   */\n      0x1b\n        /* \"#utility.yul\":7484:7502   */\n      0x24\n      dup3\n      add\n        /* \"#utility.yul\":7477:7507   */\n      mstore\n        /* \"#utility.yul\":7543:7572   */\n      0x4163636f756e7420697320616c7265616479206578636c756465640000000000\n        /* \"#utility.yul\":7523:7541   */\n      0x44\n      dup3\n      add\n        /* \"#utility.yul\":7516:7573   */\n      mstore\n        /* \"#utility.yul\":7590:7608   */\n      0x64\n      add\n        /* \"contracts/LotteryToken.sol\":16802:16862  require(_isExcluded[account], \"Account is already excluded\") */\n      tag_245\n        /* \"#utility.yul\":7263:7614   */\n      jump\n        /* \"contracts/LotteryToken.sol\":16802:16862  require(_isExcluded[account], \"Account is already excluded\") */\n    tag_473:\n        /* \"contracts/LotteryToken.sol\":16878:16887  uint256 i */\n      0x00\n        /* \"contracts/LotteryToken.sol\":16873:17200  for (uint256 i = 0; i < _excluded.length; i++) {\r... */\n    tag_475:\n        /* \"contracts/LotteryToken.sol\":16897:16906  _excluded */\n      0x06\n        /* \"contracts/LotteryToken.sol\":16897:16913  _excluded.length */\n      sload\n        /* \"contracts/LotteryToken.sol\":16893:16913  i < _excluded.length */\n      dup2\n      lt\n        /* \"contracts/LotteryToken.sol\":16873:17200  for (uint256 i = 0; i < _excluded.length; i++) {\r... */\n      iszero\n      tag_282\n      jumpi\n        /* \"contracts/LotteryToken.sol\":16955:16962  account */\n      dup2\n      sub(shl(0xa0, 0x01), 0x01)\n        /* \"contracts/LotteryToken.sol\":16939:16962  _excluded[i] == account */\n      and\n        /* \"contracts/LotteryToken.sol\":16939:16948  _excluded */\n      0x06\n        /* \"contracts/LotteryToken.sol\":16949:16950  i */\n      dup3\n        /* \"contracts/LotteryToken.sol\":16939:16951  _excluded[i] */\n      dup2\n      sload\n      dup2\n      lt\n      tag_479\n      jumpi\n      tag_479\n      tag_263\n      jump\t// in\n    tag_479:\n      0x00\n      swap2\n      dup3\n      mstore\n      0x20\n      swap1\n      swap2\n      keccak256\n      add\n      sload\n      sub(shl(0xa0, 0x01), 0x01)\n      and\n        /* \"contracts/LotteryToken.sol\":16939:16962  _excluded[i] == account */\n      eq\n        /* \"contracts/LotteryToken.sol\":16935:17189  if (_excluded[i] == account) {\r... */\n      iszero\n      tag_481\n      jumpi\n        /* \"contracts/LotteryToken.sol\":16998:17007  _excluded */\n      0x06\n        /* \"contracts/LotteryToken.sol\":17008:17024  _excluded.length */\n      dup1\n      sload\n        /* \"contracts/LotteryToken.sol\":17008:17028  _excluded.length - 1 */\n      tag_482\n      swap1\n        /* \"contracts/LotteryToken.sol\":17027:17028  1 */\n      0x01\n      swap1\n        /* \"contracts/LotteryToken.sol\":17008:17028  _excluded.length - 1 */\n      tag_483\n      jump\t// in\n    tag_482:\n        /* \"contracts/LotteryToken.sol\":16998:17029  _excluded[_excluded.length - 1] */\n      dup2\n      sload\n      dup2\n      lt\n      tag_485\n      jumpi\n      tag_485\n      tag_263\n      jump\t// in\n    tag_485:\n      0x00\n      swap2\n      dup3\n      mstore\n      0x20\n      swap1\n      swap2\n      keccak256\n      add\n      sload\n        /* \"contracts/LotteryToken.sol\":16983:16992  _excluded */\n      0x06\n        /* \"contracts/LotteryToken.sol\":16983:16995  _excluded[i] */\n      dup1\n      sload\n      sub(shl(0xa0, 0x01), 0x01)\n        /* \"contracts/LotteryToken.sol\":16998:17029  _excluded[_excluded.length - 1] */\n      swap1\n      swap3\n      and\n      swap2\n        /* \"contracts/LotteryToken.sol\":16993:16994  i */\n      dup4\n      swap1\n        /* \"contracts/LotteryToken.sol\":16983:16995  _excluded[i] */\n      dup2\n      lt\n      tag_488\n      jumpi\n      tag_488\n      tag_263\n      jump\t// in\n    tag_488:\n      0x00\n      swap2\n      dup3\n      mstore\n      0x20\n      dup1\n      dup4\n      keccak256\n      swap2\n      swap1\n      swap2\n      add\n        /* \"contracts/LotteryToken.sol\":16983:17029  _excluded[i] = _excluded[_excluded.length - 1] */\n      dup1\n      sload\n      not(sub(shl(0xa0, 0x01), 0x01))\n      and\n      sub(shl(0xa0, 0x01), 0x01)\n      swap5\n      dup6\n      and\n      or\n      swap1\n      sstore\n        /* \"contracts/LotteryToken.sol\":17048:17064  _tOwned[account] */\n      swap2\n      dup5\n      and\n      dup2\n      mstore\n        /* \"contracts/LotteryToken.sol\":17048:17055  _tOwned */\n      0x02\n        /* \"contracts/LotteryToken.sol\":17048:17064  _tOwned[account] */\n      dup3\n      mstore\n      0x40\n      dup1\n      dup3\n      keccak256\n        /* \"contracts/LotteryToken.sol\":17048:17068  _tOwned[account] = 0 */\n      dup3\n      swap1\n      sstore\n        /* \"contracts/LotteryToken.sol\":17087:17098  _isExcluded */\n      0x05\n        /* \"contracts/LotteryToken.sol\":17087:17107  _isExcluded[account] */\n      swap1\n      swap3\n      mstore\n      keccak256\n        /* \"contracts/LotteryToken.sol\":17087:17115  _isExcluded[account] = false */\n      dup1\n      sload\n      not(0xff)\n      and\n      swap1\n      sstore\n        /* \"contracts/LotteryToken.sol\":17134:17143  _excluded */\n      0x06\n        /* \"contracts/LotteryToken.sol\":17134:17149  _excluded.pop() */\n      dup1\n      sload\n      dup1\n      tag_491\n      jumpi\n      tag_491\n      tag_492\n      jump\t// in\n    tag_491:\n      0x00\n      dup3\n      dup2\n      mstore\n      0x20\n      swap1\n      keccak256\n      dup2\n      add\n      not(0x00)\n      swap1\n      dup2\n      add\n      dup1\n      sload\n      not(sub(shl(0xa0, 0x01), 0x01))\n      and\n      swap1\n      sstore\n      add\n      swap1\n      sstore\n        /* \"contracts/LotteryToken.sol\":12817:12926  function mint(address _receiver, uint amount) public onlyTreasury {\r... */\n      pop\n      pop\n      jump\t// out\n        /* \"contracts/LotteryToken.sol\":16935:17189  if (_excluded[i] == account) {\r... */\n    tag_481:\n        /* \"contracts/LotteryToken.sol\":16915:16918  i++ */\n      dup1\n      tag_494\n      dup2\n      tag_268\n      jump\t// in\n    tag_494:\n      swap2\n      pop\n      pop\n        /* \"contracts/LotteryToken.sol\":16873:17200  for (uint256 i = 0; i < _excluded.length; i++) {\r... */\n      jump(tag_475)\n        /* \"@openzeppelin/contracts/utils/math/SafeMath.sol\":3850:3946  function div(uint256 a, uint256 b) internal pure returns (uint256) {... */\n    tag_220:\n        /* \"@openzeppelin/contracts/utils/math/SafeMath.sol\":3908:3915  uint256 */\n      0x00\n        /* \"@openzeppelin/contracts/utils/math/SafeMath.sol\":3934:3939  a / b */\n      tag_249\n        /* \"@openzeppelin/contracts/utils/math/SafeMath.sol\":3938:3939  b */\n      dup3\n        /* \"@openzeppelin/contracts/utils/math/SafeMath.sol\":3934:3935  a */\n      dup5\n        /* \"@openzeppelin/contracts/utils/math/SafeMath.sol\":3934:3939  a / b */\n      tag_497\n      jump\t// in\n        /* \"contracts/LotteryToken.sol\":17215:17552  function _approve(address owner, address spender, uint256 amount) private {\r... */\n    tag_232:\n      sub(shl(0xa0, 0x01), 0x01)\n        /* \"contracts/LotteryToken.sol\":17308:17327  owner != address(0) */\n      dup4\n      and\n        /* \"contracts/LotteryToken.sol\":17300:17368  require(owner != address(0), \"ERC20: approve from the zero address\") */\n      tag_500\n      jumpi\n      mload(0x40)\n      shl(0xe5, 0x461bcd)\n      dup2\n      mstore\n        /* \"#utility.yul\":11789:11791   */\n      0x20\n        /* \"contracts/LotteryToken.sol\":17300:17368  require(owner != address(0), \"ERC20: approve from the zero address\") */\n      0x04\n      dup3\n      add\n        /* \"#utility.yul\":11771:11792   */\n      mstore\n        /* \"#utility.yul\":11828:11830   */\n      0x24\n        /* \"#utility.yul\":11808:11826   */\n      dup1\n      dup3\n      add\n        /* \"#utility.yul\":11801:11831   */\n      mstore\n        /* \"#utility.yul\":11867:11901   */\n      0x45524332303a20617070726f76652066726f6d20746865207a65726f20616464\n        /* \"#utility.yul\":11847:11865   */\n      0x44\n      dup3\n      add\n        /* \"#utility.yul\":11840:11902   */\n      mstore\n      shl(0xe0, 0x72657373)\n        /* \"#utility.yul\":11918:11936   */\n      0x64\n      dup3\n      add\n        /* \"#utility.yul\":11911:11945   */\n      mstore\n        /* \"#utility.yul\":11962:11981   */\n      0x84\n      add\n        /* \"contracts/LotteryToken.sol\":17300:17368  require(owner != address(0), \"ERC20: approve from the zero address\") */\n      tag_245\n        /* \"#utility.yul\":11587:11987   */\n      jump\n        /* \"contracts/LotteryToken.sol\":17300:17368  require(owner != address(0), \"ERC20: approve from the zero address\") */\n    tag_500:\n      sub(shl(0xa0, 0x01), 0x01)\n        /* \"contracts/LotteryToken.sol\":17387:17408  spender != address(0) */\n      dup3\n      and\n        /* \"contracts/LotteryToken.sol\":17379:17447  require(spender != address(0), \"ERC20: approve to the zero address\") */\n      tag_503\n      jumpi\n      mload(0x40)\n      shl(0xe5, 0x461bcd)\n      dup2\n      mstore\n        /* \"#utility.yul\":7062:7064   */\n      0x20\n        /* \"contracts/LotteryToken.sol\":17379:17447  require(spender != address(0), \"ERC20: approve to the zero address\") */\n      0x04\n      dup3\n      add\n        /* \"#utility.yul\":7044:7065   */\n      mstore\n        /* \"#utility.yul\":7101:7103   */\n      0x22\n        /* \"#utility.yul\":7081:7099   */\n      0x24\n      dup3\n      add\n        /* \"#utility.yul\":7074:7104   */\n      mstore\n        /* \"#utility.yul\":7140:7174   */\n      0x45524332303a20617070726f766520746f20746865207a65726f206164647265\n        /* \"#utility.yul\":7120:7138   */\n      0x44\n      dup3\n      add\n        /* \"#utility.yul\":7113:7175   */\n      mstore\n      shl(0xf0, 0x7373)\n        /* \"#utility.yul\":7191:7209   */\n      0x64\n      dup3\n      add\n        /* \"#utility.yul\":7184:7216   */\n      mstore\n        /* \"#utility.yul\":7233:7252   */\n      0x84\n      add\n        /* \"contracts/LotteryToken.sol\":17379:17447  require(spender != address(0), \"ERC20: approve to the zero address\") */\n      tag_245\n        /* \"#utility.yul\":6860:7258   */\n      jump\n        /* \"contracts/LotteryToken.sol\":17379:17447  require(spender != address(0), \"ERC20: approve to the zero address\") */\n    tag_503:\n      sub(shl(0xa0, 0x01), 0x01)\n        /* \"contracts/LotteryToken.sol\":17460:17478  _allowances[owner] */\n      dup4\n      dup2\n      and\n      0x00\n      dup2\n      dup2\n      mstore\n        /* \"contracts/LotteryToken.sol\":17460:17471  _allowances */\n      0x03\n        /* \"contracts/LotteryToken.sol\":17460:17478  _allowances[owner] */\n      0x20\n      swap1\n      dup2\n      mstore\n      0x40\n      dup1\n      dup4\n      keccak256\n        /* \"contracts/LotteryToken.sol\":17460:17487  _allowances[owner][spender] */\n      swap5\n      dup8\n      and\n      dup1\n      dup5\n      mstore\n      swap5\n      dup3\n      mstore\n      swap2\n      dup3\n      swap1\n      keccak256\n        /* \"contracts/LotteryToken.sol\":17460:17496  _allowances[owner][spender] = amount */\n      dup6\n      swap1\n      sstore\n        /* \"contracts/LotteryToken.sol\":17512:17544  Approval(owner, spender, amount) */\n      swap1\n      mload\n        /* \"#utility.yul\":13440:13465   */\n      dup5\n      dup2\n      mstore\n        /* \"contracts/LotteryToken.sol\":17512:17544  Approval(owner, spender, amount) */\n      0x8c5be1e5ebec7d5bd14f71427d1e84f3dd0314c0f7b2291e5b200ac8c7c3b925\n      swap2\n        /* \"#utility.yul\":13413:13431   */\n      add\n        /* \"contracts/LotteryToken.sol\":17512:17544  Approval(owner, spender, amount) */\n    tag_506:\n      mload(0x40)\n      dup1\n      swap2\n      sub\n      swap1\n      log3\n        /* \"contracts/LotteryToken.sol\":17215:17552  function _approve(address owner, address spender, uint256 amount) private {\r... */\n      pop\n      pop\n      pop\n      jump\t// out\n        /* \"contracts/LotteryToken.sol\":19429:20374  function _transfer(address sender, address recipient, uint256 amount) private whenNotPaused {\r... */\n    tag_237:\n        /* \"@openzeppelin/contracts/security/Pausable.sol\":1145:1149  bool */\n      0x00\n        /* \"@openzeppelin/contracts/security/Pausable.sol\":1168:1175  _paused */\n      sload\n      shl(0xa0, 0x01)\n      swap1\n      div\n      0xff\n      and\n        /* \"@openzeppelin/contracts/security/Pausable.sol\":1411:1420  !paused() */\n      iszero\n        /* \"@openzeppelin/contracts/security/Pausable.sol\":1403:1441  require(!paused(), \"Pausable: paused\") */\n      tag_509\n      jumpi\n      mload(0x40)\n      shl(0xe5, 0x461bcd)\n      dup2\n      mstore\n      0x04\n      add\n      tag_245\n      swap1\n      tag_511\n      jump\t// in\n    tag_509:\n      sub(shl(0xa0, 0x01), 0x01)\n        /* \"contracts/LotteryToken.sol\":19540:19560  sender != address(0) */\n      dup4\n      and\n        /* \"contracts/LotteryToken.sol\":19532:19602  require(sender != address(0), \"ERC20: transfer from the zero address\") */\n      tag_513\n      jumpi\n      mload(0x40)\n      shl(0xe5, 0x461bcd)\n      dup2\n      mstore\n        /* \"#utility.yul\":11041:11043   */\n      0x20\n        /* \"contracts/LotteryToken.sol\":19532:19602  require(sender != address(0), \"ERC20: transfer from the zero address\") */\n      0x04\n      dup3\n      add\n        /* \"#utility.yul\":11023:11044   */\n      mstore\n        /* \"#utility.yul\":11080:11082   */\n      0x25\n        /* \"#utility.yul\":11060:11078   */\n      0x24\n      dup3\n      add\n        /* \"#utility.yul\":11053:11083   */\n      mstore\n        /* \"#utility.yul\":11119:11153   */\n      0x45524332303a207472616e736665722066726f6d20746865207a65726f206164\n        /* \"#utility.yul\":11099:11117   */\n      0x44\n      dup3\n      add\n        /* \"#utility.yul\":11092:11154   */\n      mstore\n      shl(0xd8, 0x6472657373)\n        /* \"#utility.yul\":11170:11188   */\n      0x64\n      dup3\n      add\n        /* \"#utility.yul\":11163:11198   */\n      mstore\n        /* \"#utility.yul\":11215:11234   */\n      0x84\n      add\n        /* \"contracts/LotteryToken.sol\":19532:19602  require(sender != address(0), \"ERC20: transfer from the zero address\") */\n      tag_245\n        /* \"#utility.yul\":10839:11240   */\n      jump\n        /* \"contracts/LotteryToken.sol\":19532:19602  require(sender != address(0), \"ERC20: transfer from the zero address\") */\n    tag_513:\n      sub(shl(0xa0, 0x01), 0x01)\n        /* \"contracts/LotteryToken.sol\":19621:19644  recipient != address(0) */\n      dup3\n      and\n        /* \"contracts/LotteryToken.sol\":19613:19684  require(recipient != address(0), \"ERC20: transfer to the zero address\") */\n      tag_516\n      jumpi\n      mload(0x40)\n      shl(0xe5, 0x461bcd)\n      dup2\n      mstore\n        /* \"#utility.yul\":5491:5493   */\n      0x20\n        /* \"contracts/LotteryToken.sol\":19613:19684  require(recipient != address(0), \"ERC20: transfer to the zero address\") */\n      0x04\n      dup3\n      add\n        /* \"#utility.yul\":5473:5494   */\n      mstore\n        /* \"#utility.yul\":5530:5532   */\n      0x23\n        /* \"#utility.yul\":5510:5528   */\n      0x24\n      dup3\n      add\n        /* \"#utility.yul\":5503:5533   */\n      mstore\n        /* \"#utility.yul\":5569:5603   */\n      0x45524332303a207472616e7366657220746f20746865207a65726f2061646472\n        /* \"#utility.yul\":5549:5567   */\n      0x44\n      dup3\n      add\n        /* \"#utility.yul\":5542:5604   */\n      mstore\n      shl(0xe8, 0x657373)\n        /* \"#utility.yul\":5620:5638   */\n      0x64\n      dup3\n      add\n        /* \"#utility.yul\":5613:5646   */\n      mstore\n        /* \"#utility.yul\":5663:5682   */\n      0x84\n      add\n        /* \"contracts/LotteryToken.sol\":19613:19684  require(recipient != address(0), \"ERC20: transfer to the zero address\") */\n      tag_245\n        /* \"#utility.yul\":5289:5688   */\n      jump\n        /* \"contracts/LotteryToken.sol\":19613:19684  require(recipient != address(0), \"ERC20: transfer to the zero address\") */\n    tag_516:\n        /* \"contracts/LotteryToken.sol\":19712:19713  0 */\n      0x00\n        /* \"contracts/LotteryToken.sol\":19703:19709  amount */\n      dup2\n        /* \"contracts/LotteryToken.sol\":19703:19713  amount > 0 */\n      gt\n        /* \"contracts/LotteryToken.sol\":19695:19759  require(amount > 0, \"Transfer amount must be greater than zero\") */\n      tag_519\n      jumpi\n      mload(0x40)\n      shl(0xe5, 0x461bcd)\n      dup2\n      mstore\n        /* \"#utility.yul\":10278:10280   */\n      0x20\n        /* \"contracts/LotteryToken.sol\":19695:19759  require(amount > 0, \"Transfer amount must be greater than zero\") */\n      0x04\n      dup3\n      add\n        /* \"#utility.yul\":10260:10281   */\n      mstore\n        /* \"#utility.yul\":10317:10319   */\n      0x29\n        /* \"#utility.yul\":10297:10315   */\n      0x24\n      dup3\n      add\n        /* \"#utility.yul\":10290:10320   */\n      mstore\n        /* \"#utility.yul\":10356:10390   */\n      0x5472616e7366657220616d6f756e74206d757374206265206772656174657220\n        /* \"#utility.yul\":10336:10354   */\n      0x44\n      dup3\n      add\n        /* \"#utility.yul\":10329:10391   */\n      mstore\n      shl(0xb8, 0x7468616e207a65726f)\n        /* \"#utility.yul\":10407:10425   */\n      0x64\n      dup3\n      add\n        /* \"#utility.yul\":10400:10439   */\n      mstore\n        /* \"#utility.yul\":10456:10475   */\n      0x84\n      add\n        /* \"contracts/LotteryToken.sol\":19695:19759  require(amount > 0, \"Transfer amount must be greater than zero\") */\n      tag_245\n        /* \"#utility.yul\":10076:10481   */\n      jump\n        /* \"contracts/LotteryToken.sol\":19695:19759  require(amount > 0, \"Transfer amount must be greater than zero\") */\n    tag_519:\n      sub(shl(0xa0, 0x01), 0x01)\n        /* \"contracts/LotteryToken.sol\":19774:19793  _isExcluded[sender] */\n      dup4\n      and\n      0x00\n      swap1\n      dup2\n      mstore\n        /* \"contracts/LotteryToken.sol\":19774:19785  _isExcluded */\n      0x05\n        /* \"contracts/LotteryToken.sol\":19774:19793  _isExcluded[sender] */\n      0x20\n      mstore\n      0x40\n      swap1\n      keccak256\n      sload\n      0xff\n      and\n        /* \"contracts/LotteryToken.sol\":19774:19820  _isExcluded[sender] && !_isExcluded[recipient] */\n      dup1\n      iszero\n      tag_522\n      jumpi\n      pop\n      sub(shl(0xa0, 0x01), 0x01)\n        /* \"contracts/LotteryToken.sol\":19798:19820  _isExcluded[recipient] */\n      dup3\n      and\n      0x00\n      swap1\n      dup2\n      mstore\n        /* \"contracts/LotteryToken.sol\":19798:19809  _isExcluded */\n      0x05\n        /* \"contracts/LotteryToken.sol\":19798:19820  _isExcluded[recipient] */\n      0x20\n      mstore\n      0x40\n      swap1\n      keccak256\n      sload\n      0xff\n      and\n        /* \"contracts/LotteryToken.sol\":19797:19820  !_isExcluded[recipient] */\n      iszero\n        /* \"contracts/LotteryToken.sol\":19774:19820  _isExcluded[sender] && !_isExcluded[recipient] */\n    tag_522:\n        /* \"contracts/LotteryToken.sol\":19770:20367  if (_isExcluded[sender] && !_isExcluded[recipient]) {\r... */\n      iszero\n      tag_523\n      jumpi\n        /* \"contracts/LotteryToken.sol\":19837:19885  _transferFromExcluded(sender, recipient, amount) */\n      tag_257\n        /* \"contracts/LotteryToken.sol\":19859:19865  sender */\n      dup4\n        /* \"contracts/LotteryToken.sol\":19867:19876  recipient */\n      dup4\n        /* \"contracts/LotteryToken.sol\":19878:19884  amount */\n      dup4\n        /* \"contracts/LotteryToken.sol\":19837:19858  _transferFromExcluded */\n      tag_525\n        /* \"contracts/LotteryToken.sol\":19837:19885  _transferFromExcluded(sender, recipient, amount) */\n      jump\t// in\n        /* \"contracts/LotteryToken.sol\":19770:20367  if (_isExcluded[sender] && !_isExcluded[recipient]) {\r... */\n    tag_523:\n      sub(shl(0xa0, 0x01), 0x01)\n        /* \"contracts/LotteryToken.sol\":19908:19927  _isExcluded[sender] */\n      dup4\n      and\n      0x00\n      swap1\n      dup2\n      mstore\n        /* \"contracts/LotteryToken.sol\":19908:19919  _isExcluded */\n      0x05\n        /* \"contracts/LotteryToken.sol\":19908:19927  _isExcluded[sender] */\n      0x20\n      mstore\n      0x40\n      swap1\n      keccak256\n      sload\n      0xff\n      and\n        /* \"contracts/LotteryToken.sol\":19907:19927  !_isExcluded[sender] */\n      iszero\n        /* \"contracts/LotteryToken.sol\":19907:19953  !_isExcluded[sender] && _isExcluded[recipient] */\n      dup1\n      iszero\n      tag_527\n      jumpi\n      pop\n      sub(shl(0xa0, 0x01), 0x01)\n        /* \"contracts/LotteryToken.sol\":19931:19953  _isExcluded[recipient] */\n      dup3\n      and\n      0x00\n      swap1\n      dup2\n      mstore\n        /* \"contracts/LotteryToken.sol\":19931:19942  _isExcluded */\n      0x05\n        /* \"contracts/LotteryToken.sol\":19931:19953  _isExcluded[recipient] */\n      0x20\n      mstore\n      0x40\n      swap1\n      keccak256\n      sload\n      0xff\n      and\n        /* \"contracts/LotteryToken.sol\":19907:19953  !_isExcluded[sender] && _isExcluded[recipient] */\n    tag_527:\n        /* \"contracts/LotteryToken.sol\":19903:20367  if (!_isExcluded[sender] && _isExcluded[recipient]) {\r... */\n      iszero\n      tag_528\n      jumpi\n        /* \"contracts/LotteryToken.sol\":19970:20016  _transferToExcluded(sender, recipient, amount) */\n      tag_257\n        /* \"contracts/LotteryToken.sol\":19990:19996  sender */\n      dup4\n        /* \"contracts/LotteryToken.sol\":19998:20007  recipient */\n      dup4\n        /* \"contracts/LotteryToken.sol\":20009:20015  amount */\n      dup4\n        /* \"contracts/LotteryToken.sol\":19970:19989  _transferToExcluded */\n      tag_530\n        /* \"contracts/LotteryToken.sol\":19970:20016  _transferToExcluded(sender, recipient, amount) */\n      jump\t// in\n        /* \"contracts/LotteryToken.sol\":19903:20367  if (!_isExcluded[sender] && _isExcluded[recipient]) {\r... */\n    tag_528:\n      sub(shl(0xa0, 0x01), 0x01)\n        /* \"contracts/LotteryToken.sol\":20039:20058  _isExcluded[sender] */\n      dup4\n      and\n      0x00\n      swap1\n      dup2\n      mstore\n        /* \"contracts/LotteryToken.sol\":20039:20050  _isExcluded */\n      0x05\n        /* \"contracts/LotteryToken.sol\":20039:20058  _isExcluded[sender] */\n      0x20\n      mstore\n      0x40\n      swap1\n      keccak256\n      sload\n      0xff\n      and\n        /* \"contracts/LotteryToken.sol\":20038:20058  !_isExcluded[sender] */\n      iszero\n        /* \"contracts/LotteryToken.sol\":20038:20085  !_isExcluded[sender] && !_isExcluded[recipient] */\n      dup1\n      iszero\n      tag_532\n      jumpi\n      pop\n      sub(shl(0xa0, 0x01), 0x01)\n        /* \"contracts/LotteryToken.sol\":20063:20085  _isExcluded[recipient] */\n      dup3\n      and\n      0x00\n      swap1\n      dup2\n      mstore\n        /* \"contracts/LotteryToken.sol\":20063:20074  _isExcluded */\n      0x05\n        /* \"contracts/LotteryToken.sol\":20063:20085  _isExcluded[recipient] */\n      0x20\n      mstore\n      0x40\n      swap1\n      keccak256\n      sload\n      0xff\n      and\n        /* \"contracts/LotteryToken.sol\":20062:20085  !_isExcluded[recipient] */\n      iszero\n        /* \"contracts/LotteryToken.sol\":20038:20085  !_isExcluded[sender] && !_isExcluded[recipient] */\n    tag_532:\n        /* \"contracts/LotteryToken.sol\":20034:20367  if (!_isExcluded[sender] && !_isExcluded[recipient]) {\r... */\n      iszero\n      tag_533\n      jumpi\n        /* \"contracts/LotteryToken.sol\":20102:20146  _transferStandard(sender, recipient, amount) */\n      tag_257\n        /* \"contracts/LotteryToken.sol\":20120:20126  sender */\n      dup4\n        /* \"contracts/LotteryToken.sol\":20128:20137  recipient */\n      dup4\n        /* \"contracts/LotteryToken.sol\":20139:20145  amount */\n      dup4\n        /* \"contracts/LotteryToken.sol\":20102:20119  _transferStandard */\n      tag_535\n        /* \"contracts/LotteryToken.sol\":20102:20146  _transferStandard(sender, recipient, amount) */\n      jump\t// in\n        /* \"contracts/LotteryToken.sol\":20034:20367  if (!_isExcluded[sender] && !_isExcluded[recipient]) {\r... */\n    tag_533:\n      sub(shl(0xa0, 0x01), 0x01)\n        /* \"contracts/LotteryToken.sol\":20168:20187  _isExcluded[sender] */\n      dup4\n      and\n      0x00\n      swap1\n      dup2\n      mstore\n        /* \"contracts/LotteryToken.sol\":20168:20179  _isExcluded */\n      0x05\n        /* \"contracts/LotteryToken.sol\":20168:20187  _isExcluded[sender] */\n      0x20\n      mstore\n      0x40\n      swap1\n      keccak256\n      sload\n      0xff\n      and\n        /* \"contracts/LotteryToken.sol\":20168:20213  _isExcluded[sender] && _isExcluded[recipient] */\n      dup1\n      iszero\n      tag_537\n      jumpi\n      pop\n      sub(shl(0xa0, 0x01), 0x01)\n        /* \"contracts/LotteryToken.sol\":20191:20213  _isExcluded[recipient] */\n      dup3\n      and\n      0x00\n      swap1\n      dup2\n      mstore\n        /* \"contracts/LotteryToken.sol\":20191:20202  _isExcluded */\n      0x05\n        /* \"contracts/LotteryToken.sol\":20191:20213  _isExcluded[recipient] */\n      0x20\n      mstore\n      0x40\n      swap1\n      keccak256\n      sload\n      0xff\n      and\n        /* \"contracts/LotteryToken.sol\":20168:20213  _isExcluded[sender] && _isExcluded[recipient] */\n    tag_537:\n        /* \"contracts/LotteryToken.sol\":20164:20367  if (_isExcluded[sender] && _isExcluded[recipient]) {\r... */\n      iszero\n      tag_538\n      jumpi\n        /* \"contracts/LotteryToken.sol\":20230:20278  _transferBothExcluded(sender, recipient, amount) */\n      tag_257\n        /* \"contracts/LotteryToken.sol\":20252:20258  sender */\n      dup4\n        /* \"contracts/LotteryToken.sol\":20260:20269  recipient */\n      dup4\n        /* \"contracts/LotteryToken.sol\":20271:20277  amount */\n      dup4\n        /* \"contracts/LotteryToken.sol\":20230:20251  _transferBothExcluded */\n      tag_540\n        /* \"contracts/LotteryToken.sol\":20230:20278  _transferBothExcluded(sender, recipient, amount) */\n      jump\t// in\n        /* \"contracts/LotteryToken.sol\":20164:20367  if (_isExcluded[sender] && _isExcluded[recipient]) {\r... */\n    tag_538:\n        /* \"contracts/LotteryToken.sol\":20311:20355  _transferStandard(sender, recipient, amount) */\n      tag_257\n        /* \"contracts/LotteryToken.sol\":20329:20335  sender */\n      dup4\n        /* \"contracts/LotteryToken.sol\":20337:20346  recipient */\n      dup4\n        /* \"contracts/LotteryToken.sol\":20348:20354  amount */\n      dup4\n        /* \"contracts/LotteryToken.sol\":20311:20328  _transferStandard */\n      tag_535\n        /* \"contracts/LotteryToken.sol\":20311:20355  _transferStandard(sender, recipient, amount) */\n      jump\t// in\n        /* \"@openzeppelin/contracts/utils/math/SafeMath.sol\":4959:5190  function sub(... */\n    tag_242:\n        /* \"@openzeppelin/contracts/utils/math/SafeMath.sol\":5075:5082  uint256 */\n      0x00\n        /* \"@openzeppelin/contracts/utils/math/SafeMath.sol\":5134:5146  errorMessage */\n      dup2\n        /* \"@openzeppelin/contracts/utils/math/SafeMath.sol\":5126:5132  b <= a */\n      dup5\n      dup5\n      gt\n      iszero\n        /* \"@openzeppelin/contracts/utils/math/SafeMath.sol\":5118:5147  require(b <= a, errorMessage) */\n      tag_544\n      jumpi\n      mload(0x40)\n      shl(0xe5, 0x461bcd)\n      dup2\n      mstore\n      0x04\n      add\n      tag_245\n      swap2\n      swap1\n      tag_59\n      jump\t// in\n    tag_544:\n      pop\n      pop\n      pop\n        /* \"@openzeppelin/contracts/utils/math/SafeMath.sol\":5168:5173  a - b */\n      swap1\n      sub\n      swap1\n        /* \"@openzeppelin/contracts/utils/math/SafeMath.sol\":4959:5190  function sub(... */\n      jump\t// out\n        /* \"contracts/LotteryToken.sol\":24131:24294  function _getRate() private view returns(uint256) {\r... */\n    tag_248:\n        /* \"contracts/LotteryToken.sol\":24172:24179  uint256 */\n      0x00\n        /* \"contracts/LotteryToken.sol\":24193:24208  uint256 rSupply */\n      dup1\n        /* \"contracts/LotteryToken.sol\":24210:24225  uint256 tSupply */\n      0x00\n        /* \"contracts/LotteryToken.sol\":24229:24248  _getCurrentSupply() */\n      tag_547\n        /* \"contracts/LotteryToken.sol\":24229:24246  _getCurrentSupply */\n      tag_395\n        /* \"contracts/LotteryToken.sol\":24229:24248  _getCurrentSupply() */\n      jump\t// in\n    tag_547:\n        /* \"contracts/LotteryToken.sol\":24192:24248  (uint256 rSupply, uint256 tSupply) = _getCurrentSupply() */\n      swap1\n      swap3\n      pop\n      swap1\n      pop\n        /* \"contracts/LotteryToken.sol\":24266:24286  rSupply.div(tSupply) */\n      tag_548\n        /* \"contracts/LotteryToken.sol\":24192:24248  (uint256 rSupply, uint256 tSupply) = _getCurrentSupply() */\n      dup3\n      dup3\n        /* \"contracts/LotteryToken.sol\":24266:24277  rSupply.div */\n      tag_220\n        /* \"contracts/LotteryToken.sol\":24266:24286  rSupply.div(tSupply) */\n      jump\t// in\n    tag_548:\n        /* \"contracts/LotteryToken.sol\":24259:24286  return rSupply.div(tSupply) */\n      swap3\n      pop\n      pop\n      pop\n        /* \"contracts/LotteryToken.sol\":24131:24294  function _getRate() private view returns(uint256) {\r... */\n      swap1\n      jump\t// out\n        /* \"contracts/LotteryToken.sol\":18706:19421  function _treasuryTransfer(address sender, address recipient, uint256 amount) private whenNotPaused {\r... */\n    tag_266:\n        /* \"@openzeppelin/contracts/security/Pausable.sol\":1145:1149  bool */\n      0x00\n        /* \"@openzeppelin/contracts/security/Pausable.sol\":1168:1175  _paused */\n      sload\n      shl(0xa0, 0x01)\n      swap1\n      div\n      0xff\n      and\n        /* \"@openzeppelin/contracts/security/Pausable.sol\":1411:1420  !paused() */\n      iszero\n        /* \"@openzeppelin/contracts/security/Pausable.sol\":1403:1441  require(!paused(), \"Pausable: paused\") */\n      tag_551\n      jumpi\n      mload(0x40)\n      shl(0xe5, 0x461bcd)\n      dup2\n      mstore\n      0x04\n      add\n      tag_245\n      swap1\n      tag_511\n      jump\t// in\n    tag_551:\n      sub(shl(0xa0, 0x01), 0x01)\n        /* \"contracts/LotteryToken.sol\":18821:18840  _isExcluded[sender] */\n      dup4\n      and\n      0x00\n      swap1\n      dup2\n      mstore\n        /* \"contracts/LotteryToken.sol\":18821:18832  _isExcluded */\n      0x05\n        /* \"contracts/LotteryToken.sol\":18821:18840  _isExcluded[sender] */\n      0x20\n      mstore\n      0x40\n      swap1\n      keccak256\n      sload\n      0xff\n      and\n        /* \"contracts/LotteryToken.sol\":18821:18867  _isExcluded[sender] && !_isExcluded[recipient] */\n      dup1\n      iszero\n      tag_554\n      jumpi\n      pop\n      sub(shl(0xa0, 0x01), 0x01)\n        /* \"contracts/LotteryToken.sol\":18845:18867  _isExcluded[recipient] */\n      dup3\n      and\n      0x00\n      swap1\n      dup2\n      mstore\n        /* \"contracts/LotteryToken.sol\":18845:18856  _isExcluded */\n      0x05\n        /* \"contracts/LotteryToken.sol\":18845:18867  _isExcluded[recipient] */\n      0x20\n      mstore\n      0x40\n      swap1\n      keccak256\n      sload\n      0xff\n      and\n        /* \"contracts/LotteryToken.sol\":18844:18867  !_isExcluded[recipient] */\n      iszero\n        /* \"contracts/LotteryToken.sol\":18821:18867  _isExcluded[sender] && !_isExcluded[recipient] */\n    tag_554:\n        /* \"contracts/LotteryToken.sol\":18817:19414  if (_isExcluded[sender] && !_isExcluded[recipient]) {\r... */\n      iszero\n      tag_555\n      jumpi\n        /* \"contracts/LotteryToken.sol\":18884:18932  _transferFromExcluded(sender, recipient, amount) */\n      tag_257\n        /* \"contracts/LotteryToken.sol\":18906:18912  sender */\n      dup4\n        /* \"contracts/LotteryToken.sol\":18914:18923  recipient */\n      dup4\n        /* \"contracts/LotteryToken.sol\":18925:18931  amount */\n      dup4\n        /* \"contracts/LotteryToken.sol\":18884:18905  _transferFromExcluded */\n      tag_525\n        /* \"contracts/LotteryToken.sol\":18884:18932  _transferFromExcluded(sender, recipient, amount) */\n      jump\t// in\n        /* \"contracts/LotteryToken.sol\":18817:19414  if (_isExcluded[sender] && !_isExcluded[recipient]) {\r... */\n    tag_555:\n      sub(shl(0xa0, 0x01), 0x01)\n        /* \"contracts/LotteryToken.sol\":18954:18973  _isExcluded[sender] */\n      dup4\n      and\n      0x00\n      swap1\n      dup2\n      mstore\n        /* \"contracts/LotteryToken.sol\":18954:18965  _isExcluded */\n      0x05\n        /* \"contracts/LotteryToken.sol\":18954:18973  _isExcluded[sender] */\n      0x20\n      mstore\n      0x40\n      swap1\n      keccak256\n      sload\n      0xff\n      and\n        /* \"contracts/LotteryToken.sol\":18954:18999  _isExcluded[sender] && _isExcluded[recipient] */\n      dup1\n      iszero\n      tag_558\n      jumpi\n      pop\n      sub(shl(0xa0, 0x01), 0x01)\n        /* \"contracts/LotteryToken.sol\":18977:18999  _isExcluded[recipient] */\n      dup3\n      and\n      0x00\n      swap1\n      dup2\n      mstore\n        /* \"contracts/LotteryToken.sol\":18977:18988  _isExcluded */\n      0x05\n        /* \"contracts/LotteryToken.sol\":18977:18999  _isExcluded[recipient] */\n      0x20\n      mstore\n      0x40\n      swap1\n      keccak256\n      sload\n      0xff\n      and\n        /* \"contracts/LotteryToken.sol\":18954:18999  _isExcluded[sender] && _isExcluded[recipient] */\n    tag_558:\n        /* \"contracts/LotteryToken.sol\":18950:19414  if (_isExcluded[sender] && _isExcluded[recipient]) {\r... */\n      iszero\n      tag_559\n      jumpi\n        /* \"contracts/LotteryToken.sol\":19016:19064  _transferBothExcluded(sender, recipient, amount) */\n      tag_257\n        /* \"contracts/LotteryToken.sol\":19038:19044  sender */\n      dup4\n        /* \"contracts/LotteryToken.sol\":19046:19055  recipient */\n      dup4\n        /* \"contracts/LotteryToken.sol\":19057:19063  amount */\n      dup4\n        /* \"contracts/LotteryToken.sol\":19016:19037  _transferBothExcluded */\n      tag_540\n        /* \"contracts/LotteryToken.sol\":19016:19064  _transferBothExcluded(sender, recipient, amount) */\n      jump\t// in\n        /* \"contracts/LotteryToken.sol\":18950:19414  if (_isExcluded[sender] && _isExcluded[recipient]) {\r... */\n    tag_559:\n      sub(shl(0xa0, 0x01), 0x01)\n        /* \"contracts/LotteryToken.sol\":19087:19106  _isExcluded[sender] */\n      dup4\n      and\n      0x00\n      swap1\n      dup2\n      mstore\n        /* \"contracts/LotteryToken.sol\":19087:19098  _isExcluded */\n      0x05\n        /* \"contracts/LotteryToken.sol\":19087:19106  _isExcluded[sender] */\n      0x20\n      mstore\n      0x40\n      swap1\n      keccak256\n      sload\n      0xff\n      and\n        /* \"contracts/LotteryToken.sol\":19086:19106  !_isExcluded[sender] */\n      iszero\n        /* \"contracts/LotteryToken.sol\":19086:19132  !_isExcluded[sender] && _isExcluded[recipient] */\n      dup1\n      iszero\n      tag_562\n      jumpi\n      pop\n      sub(shl(0xa0, 0x01), 0x01)\n        /* \"contracts/LotteryToken.sol\":19110:19132  _isExcluded[recipient] */\n      dup3\n      and\n      0x00\n      swap1\n      dup2\n      mstore\n        /* \"contracts/LotteryToken.sol\":19110:19121  _isExcluded */\n      0x05\n        /* \"contracts/LotteryToken.sol\":19110:19132  _isExcluded[recipient] */\n      0x20\n      mstore\n      0x40\n      swap1\n      keccak256\n      sload\n      0xff\n      and\n        /* \"contracts/LotteryToken.sol\":19086:19132  !_isExcluded[sender] && _isExcluded[recipient] */\n    tag_562:\n        /* \"contracts/LotteryToken.sol\":19082:19414  if (!_isExcluded[sender] && _isExcluded[recipient]) {\r... */\n      iszero\n      tag_563\n      jumpi\n        /* \"contracts/LotteryToken.sol\":19149:19195  _transferToExcluded(sender, recipient, amount) */\n      tag_257\n        /* \"contracts/LotteryToken.sol\":19169:19175  sender */\n      dup4\n        /* \"contracts/LotteryToken.sol\":19177:19186  recipient */\n      dup4\n        /* \"contracts/LotteryToken.sol\":19188:19194  amount */\n      dup4\n        /* \"contracts/LotteryToken.sol\":19149:19168  _transferToExcluded */\n      tag_530\n        /* \"contracts/LotteryToken.sol\":19149:19195  _transferToExcluded(sender, recipient, amount) */\n      jump\t// in\n        /* \"contracts/LotteryToken.sol\":19082:19414  if (!_isExcluded[sender] && _isExcluded[recipient]) {\r... */\n    tag_563:\n      sub(shl(0xa0, 0x01), 0x01)\n        /* \"contracts/LotteryToken.sol\":19218:19237  _isExcluded[sender] */\n      dup4\n      and\n      0x00\n      swap1\n      dup2\n      mstore\n        /* \"contracts/LotteryToken.sol\":19218:19229  _isExcluded */\n      0x05\n        /* \"contracts/LotteryToken.sol\":19218:19237  _isExcluded[sender] */\n      0x20\n      mstore\n      0x40\n      swap1\n      keccak256\n      sload\n      0xff\n      and\n        /* \"contracts/LotteryToken.sol\":19217:19237  !_isExcluded[sender] */\n      iszero\n        /* \"contracts/LotteryToken.sol\":19217:19264  !_isExcluded[sender] && !_isExcluded[recipient] */\n      dup1\n      iszero\n      tag_566\n      jumpi\n      pop\n      sub(shl(0xa0, 0x01), 0x01)\n        /* \"contracts/LotteryToken.sol\":19242:19264  _isExcluded[recipient] */\n      dup3\n      and\n      0x00\n      swap1\n      dup2\n      mstore\n        /* \"contracts/LotteryToken.sol\":19242:19253  _isExcluded */\n      0x05\n        /* \"contracts/LotteryToken.sol\":19242:19264  _isExcluded[recipient] */\n      0x20\n      mstore\n      0x40\n      swap1\n      keccak256\n      sload\n      0xff\n      and\n        /* \"contracts/LotteryToken.sol\":19241:19264  !_isExcluded[recipient] */\n      iszero\n        /* \"contracts/LotteryToken.sol\":19217:19264  !_isExcluded[sender] && !_isExcluded[recipient] */\n    tag_566:\n        /* \"contracts/LotteryToken.sol\":19213:19414  if (!_isExcluded[sender] && !_isExcluded[recipient]) {\r... */\n      iszero\n      tag_538\n      jumpi\n        /* \"contracts/LotteryToken.sol\":19281:19325  _transferStandard(sender, recipient, amount) */\n      tag_257\n        /* \"contracts/LotteryToken.sol\":19299:19305  sender */\n      dup4\n        /* \"contracts/LotteryToken.sol\":19307:19316  recipient */\n      dup4\n        /* \"contracts/LotteryToken.sol\":19318:19324  amount */\n      dup4\n        /* \"contracts/LotteryToken.sol\":19281:19298  _transferStandard */\n      tag_535\n        /* \"contracts/LotteryToken.sol\":19281:19325  _transferStandard(sender, recipient, amount) */\n      jump\t// in\n        /* \"@openzeppelin/contracts/utils/math/SafeMath.sol\":2755:2851  function add(uint256 a, uint256 b) internal pure returns (uint256) {... */\n    tag_276:\n        /* \"@openzeppelin/contracts/utils/math/SafeMath.sol\":2813:2820  uint256 */\n      0x00\n        /* \"@openzeppelin/contracts/utils/math/SafeMath.sol\":2839:2844  a + b */\n      tag_249\n        /* \"@openzeppelin/contracts/utils/math/SafeMath.sol\":2843:2844  b */\n      dup3\n        /* \"@openzeppelin/contracts/utils/math/SafeMath.sol\":2839:2840  a */\n      dup5\n        /* \"@openzeppelin/contracts/utils/math/SafeMath.sol\":2839:2844  a + b */\n      tag_573\n      jump\t// in\n        /* \"contracts/LotteryToken.sol\":17564:18120  function _mint(address receiver, uint256 amount) private {\r... */\n    tag_283:\n        /* \"contracts/LotteryToken.sol\":17640:17658  amount % BASE_MINT */\n      tag_575\n        /* \"contracts/LotteryToken.sol\":8853:8867  1*10**5*10**18 */\n      0x152d02c7e14af6800000\n        /* \"contracts/LotteryToken.sol\":17640:17646  amount */\n      dup3\n        /* \"contracts/LotteryToken.sol\":17640:17658  amount % BASE_MINT */\n      tag_576\n      jump\t// in\n    tag_575:\n        /* \"contracts/LotteryToken.sol\":17640:17663  amount % BASE_MINT == 0 */\n      iszero\n        /* \"contracts/LotteryToken.sol\":17632:17691  require(amount % BASE_MINT == 0, \"Cannot mint this amount\") */\n      tag_577\n      jumpi\n      mload(0x40)\n      shl(0xe5, 0x461bcd)\n      dup2\n      mstore\n        /* \"#utility.yul\":12951:12953   */\n      0x20\n        /* \"contracts/LotteryToken.sol\":17632:17691  require(amount % BASE_MINT == 0, \"Cannot mint this amount\") */\n      0x04\n      dup3\n      add\n        /* \"#utility.yul\":12933:12954   */\n      mstore\n        /* \"#utility.yul\":12990:12992   */\n      0x17\n        /* \"#utility.yul\":12970:12988   */\n      0x24\n      dup3\n      add\n        /* \"#utility.yul\":12963:12993   */\n      mstore\n        /* \"#utility.yul\":13029:13054   */\n      0x43616e6e6f74206d696e74207468697320616d6f756e74000000000000000000\n        /* \"#utility.yul\":13009:13027   */\n      0x44\n      dup3\n      add\n        /* \"#utility.yul\":13002:13055   */\n      mstore\n        /* \"#utility.yul\":13072:13090   */\n      0x64\n      add\n        /* \"contracts/LotteryToken.sol\":17632:17691  require(amount % BASE_MINT == 0, \"Cannot mint this amount\") */\n      tag_245\n        /* \"#utility.yul\":12749:13096   */\n      jump\n        /* \"contracts/LotteryToken.sol\":17632:17691  require(amount % BASE_MINT == 0, \"Cannot mint this amount\") */\n    tag_577:\n        /* \"contracts/LotteryToken.sol\":17702:17715  uint256 _rate */\n      0x00\n        /* \"contracts/LotteryToken.sol\":17718:17728  _getRate() */\n      tag_580\n        /* \"contracts/LotteryToken.sol\":17718:17726  _getRate */\n      tag_248\n        /* \"contracts/LotteryToken.sol\":17718:17728  _getRate() */\n      jump\t// in\n    tag_580:\n        /* \"contracts/LotteryToken.sol\":17754:17766  _totalSupply */\n      sload(0x08)\n        /* \"contracts/LotteryToken.sol\":17702:17728  uint256 _rate = _getRate() */\n      swap1\n      swap2\n      pop\n        /* \"contracts/LotteryToken.sol\":17754:17778  _totalSupply.add(amount) */\n      tag_581\n      swap1\n        /* \"contracts/LotteryToken.sol\":17771:17777  amount */\n      dup4\n        /* \"contracts/LotteryToken.sol\":17754:17770  _totalSupply.add */\n      tag_276\n        /* \"contracts/LotteryToken.sol\":17754:17778  _totalSupply.add(amount) */\n      jump\t// in\n    tag_581:\n        /* \"contracts/LotteryToken.sol\":17739:17751  _totalSupply */\n      0x08\n        /* \"contracts/LotteryToken.sol\":17739:17778  _totalSupply = _totalSupply.add(amount) */\n      sstore\n        /* \"contracts/LotteryToken.sol\":17846:17876  _rTotal.add(amount.mul(_rate)) */\n      tag_582\n        /* \"contracts/LotteryToken.sol\":17858:17875  amount.mul(_rate) */\n      tag_323\n        /* \"contracts/LotteryToken.sol\":17858:17864  amount */\n      dup4\n        /* \"contracts/LotteryToken.sol\":17869:17874  _rate */\n      dup4\n        /* \"contracts/LotteryToken.sol\":17858:17868  amount.mul */\n      tag_324\n        /* \"contracts/LotteryToken.sol\":17858:17875  amount.mul(_rate) */\n      jump\t// in\n        /* \"contracts/LotteryToken.sol\":17846:17876  _rTotal.add(amount.mul(_rate)) */\n    tag_582:\n        /* \"contracts/LotteryToken.sol\":17836:17843  _rTotal */\n      0x09\n        /* \"contracts/LotteryToken.sol\":17836:17876  _rTotal = _rTotal.add(amount.mul(_rate)) */\n      sstore\n        /* \"contracts/LotteryToken.sol\":17907:17947  _rOwned[receiver].add(amount.mul(_rate)) */\n      tag_584\n        /* \"contracts/LotteryToken.sol\":17929:17946  amount.mul(_rate) */\n      tag_585\n        /* \"contracts/LotteryToken.sol\":17929:17935  amount */\n      dup4\n        /* \"contracts/LotteryToken.sol\":17940:17945  _rate */\n      dup4\n        /* \"contracts/LotteryToken.sol\":17929:17939  amount.mul */\n      tag_324\n        /* \"contracts/LotteryToken.sol\":17929:17946  amount.mul(_rate) */\n      jump\t// in\n    tag_585:\n      sub(shl(0xa0, 0x01), 0x01)\n        /* \"contracts/LotteryToken.sol\":17907:17924  _rOwned[receiver] */\n      dup6\n      and\n      0x00\n      swap1\n      dup2\n      mstore\n        /* \"contracts/LotteryToken.sol\":17907:17914  _rOwned */\n      0x01\n        /* \"contracts/LotteryToken.sol\":17907:17924  _rOwned[receiver] */\n      0x20\n      mstore\n      0x40\n      swap1\n      keccak256\n      sload\n      swap1\n        /* \"contracts/LotteryToken.sol\":17907:17928  _rOwned[receiver].add */\n      tag_276\n        /* \"contracts/LotteryToken.sol\":17907:17947  _rOwned[receiver].add(amount.mul(_rate)) */\n      jump\t// in\n    tag_584:\n      sub(shl(0xa0, 0x01), 0x01)\n        /* \"contracts/LotteryToken.sol\":17887:17904  _rOwned[receiver] */\n      dup5\n      and\n      0x00\n      swap1\n      dup2\n      mstore\n        /* \"contracts/LotteryToken.sol\":17887:17894  _rOwned */\n      0x01\n        /* \"contracts/LotteryToken.sol\":17887:17904  _rOwned[receiver] */\n      0x20\n      swap1\n      dup2\n      mstore\n      0x40\n      dup1\n      dup4\n      keccak256\n        /* \"contracts/LotteryToken.sol\":17887:17947  _rOwned[receiver] = _rOwned[receiver].add(amount.mul(_rate)) */\n      swap4\n      swap1\n      swap4\n      sstore\n        /* \"contracts/LotteryToken.sol\":17961:17972  _isExcluded */\n      0x05\n        /* \"contracts/LotteryToken.sol\":17961:17982  _isExcluded[receiver] */\n      swap1\n      mstore\n      keccak256\n      sload\n      0xff\n      and\n        /* \"contracts/LotteryToken.sol\":17958:18059  if(_isExcluded[receiver]){\r... */\n      iszero\n      tag_586\n      jumpi\n      sub(shl(0xa0, 0x01), 0x01)\n        /* \"contracts/LotteryToken.sol\":18018:18035  _tOwned[receiver] */\n      dup4\n      and\n      0x00\n      swap1\n      dup2\n      mstore\n        /* \"contracts/LotteryToken.sol\":18018:18025  _tOwned */\n      0x02\n        /* \"contracts/LotteryToken.sol\":18018:18035  _tOwned[receiver] */\n      0x20\n      mstore\n      0x40\n      swap1\n      keccak256\n      sload\n        /* \"contracts/LotteryToken.sol\":18018:18047  _tOwned[receiver].add(amount) */\n      tag_587\n      swap1\n        /* \"contracts/LotteryToken.sol\":18040:18046  amount */\n      dup4\n        /* \"contracts/LotteryToken.sol\":18018:18039  _tOwned[receiver].add */\n      tag_276\n        /* \"contracts/LotteryToken.sol\":18018:18047  _tOwned[receiver].add(amount) */\n      jump\t// in\n    tag_587:\n      sub(shl(0xa0, 0x01), 0x01)\n        /* \"contracts/LotteryToken.sol\":17998:18015  _tOwned[receiver] */\n      dup5\n      and\n      0x00\n      swap1\n      dup2\n      mstore\n        /* \"contracts/LotteryToken.sol\":17998:18005  _tOwned */\n      0x02\n        /* \"contracts/LotteryToken.sol\":17998:18015  _tOwned[receiver] */\n      0x20\n      mstore\n      0x40\n      swap1\n      keccak256\n        /* \"contracts/LotteryToken.sol\":17998:18047  _tOwned[receiver] = _tOwned[receiver].add(amount) */\n      sstore\n        /* \"contracts/LotteryToken.sol\":17958:18059  if(_isExcluded[receiver]){\r... */\n    tag_586:\n        /* \"contracts/LotteryToken.sol\":18074:18112  Transfer(address(0), receiver, amount) */\n      mload(0x40)\n        /* \"#utility.yul\":13440:13465   */\n      dup3\n      dup2\n      mstore\n      sub(shl(0xa0, 0x01), 0x01)\n        /* \"contracts/LotteryToken.sol\":18074:18112  Transfer(address(0), receiver, amount) */\n      dup5\n      and\n      swap1\n        /* \"contracts/LotteryToken.sol\":18091:18092  0 */\n      0x00\n      swap1\n      0x00\n      dup1\n      mload\n      0x20\n      data_ada389e1fc24a8587c776340efb91b36e675792ab631816100d55df0b5cf3cbc\n      dup4\n      codecopy\n      dup2\n      mload\n      swap2\n      mstore\n        /* \"contracts/LotteryToken.sol\":18074:18112  Transfer(address(0), receiver, amount) */\n      swap1\n        /* \"#utility.yul\":13428:13430   */\n      0x20\n        /* \"#utility.yul\":13413:13431   */\n      add\n        /* \"contracts/LotteryToken.sol\":18074:18112  Transfer(address(0), receiver, amount) */\n      tag_506\n        /* \"#utility.yul\":13294:13471   */\n      jump\n        /* \"contracts/LotteryToken.sol\":18128:18698  function _burn(uint256 amount) private {\r... */\n    tag_290:\n        /* \"contracts/LotteryToken.sol\":18186:18204  amount % BASE_MINT */\n      tag_590\n        /* \"contracts/LotteryToken.sol\":8853:8867  1*10**5*10**18 */\n      0x152d02c7e14af6800000\n        /* \"contracts/LotteryToken.sol\":18186:18192  amount */\n      dup3\n        /* \"contracts/LotteryToken.sol\":18186:18204  amount % BASE_MINT */\n      tag_576\n      jump\t// in\n    tag_590:\n        /* \"contracts/LotteryToken.sol\":18186:18209  amount % BASE_MINT == 0 */\n      iszero\n        /* \"contracts/LotteryToken.sol\":18178:18237  require(amount % BASE_MINT == 0, \"Cannot burn this amount\") */\n      tag_591\n      jumpi\n      mload(0x40)\n      shl(0xe5, 0x461bcd)\n      dup2\n      mstore\n        /* \"#utility.yul\":8168:8170   */\n      0x20\n        /* \"contracts/LotteryToken.sol\":18178:18237  require(amount % BASE_MINT == 0, \"Cannot burn this amount\") */\n      0x04\n      dup3\n      add\n        /* \"#utility.yul\":8150:8171   */\n      mstore\n        /* \"#utility.yul\":8207:8209   */\n      0x17\n        /* \"#utility.yul\":8187:8205   */\n      0x24\n      dup3\n      add\n        /* \"#utility.yul\":8180:8210   */\n      mstore\n        /* \"#utility.yul\":8246:8271   */\n      0x43616e6e6f74206275726e207468697320616d6f756e74000000000000000000\n        /* \"#utility.yul\":8226:8244   */\n      0x44\n      dup3\n      add\n        /* \"#utility.yul\":8219:8272   */\n      mstore\n        /* \"#utility.yul\":8289:8307   */\n      0x64\n      add\n        /* \"contracts/LotteryToken.sol\":18178:18237  require(amount % BASE_MINT == 0, \"Cannot burn this amount\") */\n      tag_245\n        /* \"#utility.yul\":7966:8313   */\n      jump\n        /* \"contracts/LotteryToken.sol\":18178:18237  require(amount % BASE_MINT == 0, \"Cannot burn this amount\") */\n    tag_591:\n        /* \"@openzeppelin/contracts/utils/Context.sol\":719:729  msg.sender */\n      caller\n        /* \"contracts/LotteryToken.sol\":18248:18262  address sender */\n      0x00\n        /* \"contracts/LotteryToken.sol\":18304:18314  _getRate() */\n      tag_595\n        /* \"contracts/LotteryToken.sol\":18304:18312  _getRate */\n      tag_248\n        /* \"contracts/LotteryToken.sol\":18304:18314  _getRate() */\n      jump\t// in\n    tag_595:\n        /* \"contracts/LotteryToken.sol\":18340:18352  _totalSupply */\n      sload(0x08)\n        /* \"contracts/LotteryToken.sol\":18288:18314  uint256 _rate = _getRate() */\n      swap1\n      swap2\n      pop\n        /* \"contracts/LotteryToken.sol\":18340:18364  _totalSupply.sub(amount) */\n      tag_596\n      swap1\n        /* \"contracts/LotteryToken.sol\":18357:18363  amount */\n      dup5\n        /* \"contracts/LotteryToken.sol\":18340:18356  _totalSupply.sub */\n      tag_442\n        /* \"contracts/LotteryToken.sol\":18340:18364  _totalSupply.sub(amount) */\n      jump\t// in\n    tag_596:\n        /* \"contracts/LotteryToken.sol\":18325:18337  _totalSupply */\n      0x08\n        /* \"contracts/LotteryToken.sol\":18325:18364  _totalSupply = _totalSupply.sub(amount) */\n      sstore\n        /* \"contracts/LotteryToken.sol\":18432:18462  _rTotal.sub(amount.mul(_rate)) */\n      tag_597\n        /* \"contracts/LotteryToken.sol\":18444:18461  amount.mul(_rate) */\n      tag_598\n        /* \"contracts/LotteryToken.sol\":18444:18450  amount */\n      dup5\n        /* \"contracts/LotteryToken.sol\":18455:18460  _rate */\n      dup4\n        /* \"contracts/LotteryToken.sol\":18444:18454  amount.mul */\n      tag_324\n        /* \"contracts/LotteryToken.sol\":18444:18461  amount.mul(_rate) */\n      jump\t// in\n    tag_598:\n        /* \"contracts/LotteryToken.sol\":18432:18439  _rTotal */\n      sload(0x09)\n      swap1\n        /* \"contracts/LotteryToken.sol\":18432:18443  _rTotal.sub */\n      tag_442\n        /* \"contracts/LotteryToken.sol\":18432:18462  _rTotal.sub(amount.mul(_rate)) */\n      jump\t// in\n    tag_597:\n        /* \"contracts/LotteryToken.sol\":18422:18429  _rTotal */\n      0x09\n        /* \"contracts/LotteryToken.sol\":18422:18462  _rTotal = _rTotal.sub(amount.mul(_rate)) */\n      sstore\n        /* \"contracts/LotteryToken.sol\":18492:18530  _rOwned[sender].sub(amount.mul(_rate)) */\n      tag_599\n        /* \"contracts/LotteryToken.sol\":18512:18529  amount.mul(_rate) */\n      tag_600\n        /* \"contracts/LotteryToken.sol\":18512:18518  amount */\n      dup5\n        /* \"contracts/LotteryToken.sol\":18523:18528  _rate */\n      dup4\n        /* \"contracts/LotteryToken.sol\":18512:18522  amount.mul */\n      tag_324\n        /* \"contracts/LotteryToken.sol\":18512:18529  amount.mul(_rate) */\n      jump\t// in\n    tag_600:\n      sub(shl(0xa0, 0x01), 0x01)\n        /* \"contracts/LotteryToken.sol\":18492:18507  _rOwned[sender] */\n      dup5\n      and\n      0x00\n      swap1\n      dup2\n      mstore\n        /* \"contracts/LotteryToken.sol\":18492:18499  _rOwned */\n      0x01\n        /* \"contracts/LotteryToken.sol\":18492:18507  _rOwned[sender] */\n      0x20\n      mstore\n      0x40\n      swap1\n      keccak256\n      sload\n      swap1\n        /* \"contracts/LotteryToken.sol\":18492:18511  _rOwned[sender].sub */\n      tag_442\n        /* \"contracts/LotteryToken.sol\":18492:18530  _rOwned[sender].sub(amount.mul(_rate)) */\n      jump\t// in\n    tag_599:\n      sub(shl(0xa0, 0x01), 0x01)\n        /* \"contracts/LotteryToken.sol\":18473:18488  _rOwned[sender] */\n      dup4\n      and\n      0x00\n      swap1\n      dup2\n      mstore\n        /* \"contracts/LotteryToken.sol\":18473:18480  _rOwned */\n      0x01\n        /* \"contracts/LotteryToken.sol\":18473:18488  _rOwned[sender] */\n      0x20\n      swap1\n      dup2\n      mstore\n      0x40\n      dup1\n      dup4\n      keccak256\n        /* \"contracts/LotteryToken.sol\":18473:18530  _rOwned[sender] =  _rOwned[sender].sub(amount.mul(_rate)) */\n      swap4\n      swap1\n      swap4\n      sstore\n        /* \"contracts/LotteryToken.sol\":18544:18555  _isExcluded */\n      0x05\n        /* \"contracts/LotteryToken.sol\":18544:18563  _isExcluded[sender] */\n      swap1\n      mstore\n      keccak256\n      sload\n      0xff\n      and\n        /* \"contracts/LotteryToken.sol\":18541:18637  if(_isExcluded[sender]){\r... */\n      iszero\n      tag_601\n      jumpi\n      sub(shl(0xa0, 0x01), 0x01)\n        /* \"contracts/LotteryToken.sol\":18598:18613  _tOwned[sender] */\n      dup3\n      and\n      0x00\n      swap1\n      dup2\n      mstore\n        /* \"contracts/LotteryToken.sol\":18598:18605  _tOwned */\n      0x02\n        /* \"contracts/LotteryToken.sol\":18598:18613  _tOwned[sender] */\n      0x20\n      mstore\n      0x40\n      swap1\n      keccak256\n      sload\n        /* \"contracts/LotteryToken.sol\":18598:18625  _tOwned[sender].sub(amount) */\n      tag_602\n      swap1\n        /* \"contracts/LotteryToken.sol\":18618:18624  amount */\n      dup5\n        /* \"contracts/LotteryToken.sol\":18598:18617  _tOwned[sender].sub */\n      tag_442\n        /* \"contracts/LotteryToken.sol\":18598:18625  _tOwned[sender].sub(amount) */\n      jump\t// in\n    tag_602:\n      sub(shl(0xa0, 0x01), 0x01)\n        /* \"contracts/LotteryToken.sol\":18580:18595  _tOwned[sender] */\n      dup4\n      and\n      0x00\n      swap1\n      dup2\n      mstore\n        /* \"contracts/LotteryToken.sol\":18580:18587  _tOwned */\n      0x02\n        /* \"contracts/LotteryToken.sol\":18580:18595  _tOwned[sender] */\n      0x20\n      mstore\n      0x40\n      swap1\n      keccak256\n        /* \"contracts/LotteryToken.sol\":18580:18625  _tOwned[sender] = _tOwned[sender].sub(amount) */\n      sstore\n        /* \"contracts/LotteryToken.sol\":18541:18637  if(_isExcluded[sender]){\r... */\n    tag_601:\n        /* \"contracts/LotteryToken.sol\":18652:18688  Transfer(sender, address(0), amount) */\n      mload(0x40)\n        /* \"#utility.yul\":13440:13465   */\n      dup4\n      dup2\n      mstore\n        /* \"contracts/LotteryToken.sol\":18677:18678  0 */\n      0x00\n      swap1\n      sub(shl(0xa0, 0x01), 0x01)\n        /* \"contracts/LotteryToken.sol\":18652:18688  Transfer(sender, address(0), amount) */\n      dup5\n      and\n      swap1\n      0x00\n      dup1\n      mload\n      0x20\n      data_ada389e1fc24a8587c776340efb91b36e675792ab631816100d55df0b5cf3cbc\n      dup4\n      codecopy\n      dup2\n      mload\n      swap2\n      mstore\n      swap1\n        /* \"#utility.yul\":13428:13430   */\n      0x20\n        /* \"#utility.yul\":13413:13431   */\n      add\n        /* \"contracts/LotteryToken.sol\":18652:18688  Transfer(sender, address(0), amount) */\n      tag_506\n        /* \"#utility.yul\":13294:13471   */\n      jump\n        /* \"contracts/LotteryToken.sol\":23139:23550  function _getValues(uint256 tAmount) private view returns (uint256, uint256, uint256, uint256, uint256) {\r... */\n    tag_297:\n        /* \"contracts/LotteryToken.sol\":23198:23205  uint256 */\n      0x00\n        /* \"contracts/LotteryToken.sol\":23207:23214  uint256 */\n      dup1\n        /* \"contracts/LotteryToken.sol\":23216:23223  uint256 */\n      0x00\n        /* \"contracts/LotteryToken.sol\":23225:23232  uint256 */\n      dup1\n        /* \"contracts/LotteryToken.sol\":23234:23241  uint256 */\n      0x00\n        /* \"contracts/LotteryToken.sol\":23255:23278  uint256 tTransferAmount */\n      dup1\n        /* \"contracts/LotteryToken.sol\":23280:23292  uint256 tFee */\n      0x00\n        /* \"contracts/LotteryToken.sol\":23296:23316  _getTValues(tAmount) */\n      tag_605\n        /* \"contracts/LotteryToken.sol\":23308:23315  tAmount */\n      dup9\n        /* \"contracts/LotteryToken.sol\":23296:23307  _getTValues */\n      tag_606\n        /* \"contracts/LotteryToken.sol\":23296:23316  _getTValues(tAmount) */\n      jump\t// in\n    tag_605:\n        /* \"contracts/LotteryToken.sol\":23254:23316  (uint256 tTransferAmount, uint256 tFee) = _getTValues(tAmount) */\n      swap2\n      pop\n      swap2\n      pop\n        /* \"contracts/LotteryToken.sol\":23327:23346  uint256 currentRate */\n      0x00\n        /* \"contracts/LotteryToken.sol\":23350:23360  _getRate() */\n      tag_607\n        /* \"contracts/LotteryToken.sol\":23350:23358  _getRate */\n      tag_248\n        /* \"contracts/LotteryToken.sol\":23350:23360  _getRate() */\n      jump\t// in\n    tag_607:\n        /* \"contracts/LotteryToken.sol\":23327:23360  uint256 currentRate =  _getRate() */\n      swap1\n      pop\n        /* \"contracts/LotteryToken.sol\":23372:23387  uint256 rAmount */\n      0x00\n        /* \"contracts/LotteryToken.sol\":23389:23412  uint256 rTransferAmount */\n      dup1\n        /* \"contracts/LotteryToken.sol\":23414:23426  uint256 rFee */\n      0x00\n        /* \"contracts/LotteryToken.sol\":23430:23469  _getRValues(tAmount, tFee, currentRate) */\n      tag_608\n        /* \"contracts/LotteryToken.sol\":23442:23449  tAmount */\n      dup13\n        /* \"contracts/LotteryToken.sol\":23451:23455  tFee */\n      dup7\n        /* \"contracts/LotteryToken.sol\":23457:23468  currentRate */\n      dup7\n        /* \"contracts/LotteryToken.sol\":23430:23441  _getRValues */\n      tag_609\n        /* \"contracts/LotteryToken.sol\":23430:23469  _getRValues(tAmount, tFee, currentRate) */\n      jump\t// in\n    tag_608:\n        /* \"contracts/LotteryToken.sol\":23371:23469  (uint256 rAmount, uint256 rTransferAmount, uint256 rFee) = _getRValues(tAmount, tFee, currentRate) */\n      swap2\n      swap15\n      swap1\n      swap14\n      pop\n      swap1\n      swap12\n      pop\n        /* \"contracts/LotteryToken.sol\":23520:23535  tTransferAmount */\n      swap6\n      swap10\n      pop\n        /* \"contracts/LotteryToken.sol\":23537:23541  tFee */\n      swap4\n      swap8\n      pop\n        /* \"contracts/LotteryToken.sol\":23139:23550  function _getValues(uint256 tAmount) private view returns (uint256, uint256, uint256, uint256, uint256) {\r... */\n      swap4\n      swap6\n      pop\n      pop\n      pop\n      pop\n      pop\n      pop\n      jump\t// out\n        /* \"@openzeppelin/contracts/security/Pausable.sol\":1863:1978  function _pause() internal virtual whenNotPaused {... */\n    tag_306:\n        /* \"@openzeppelin/contracts/security/Pausable.sol\":1145:1149  bool */\n      0x00\n        /* \"@openzeppelin/contracts/security/Pausable.sol\":1168:1175  _paused */\n      sload\n      shl(0xa0, 0x01)\n      swap1\n      div\n      0xff\n      and\n        /* \"@openzeppelin/contracts/security/Pausable.sol\":1411:1420  !paused() */\n      iszero\n        /* \"@openzeppelin/contracts/security/Pausable.sol\":1403:1441  require(!paused(), \"Pausable: paused\") */\n      tag_612\n      jumpi\n      mload(0x40)\n      shl(0xe5, 0x461bcd)\n      dup2\n      mstore\n      0x04\n      add\n      tag_245\n      swap1\n      tag_511\n      jump\t// in\n    tag_612:\n        /* \"@openzeppelin/contracts/security/Pausable.sol\":1922:1929  _paused */\n      0x00\n        /* \"@openzeppelin/contracts/security/Pausable.sol\":1922:1936  _paused = true */\n      dup1\n      sload\n      not(shl(0xa0, 0xff))\n      and\n      shl(0xa0, 0x01)\n      or\n      swap1\n      sstore\n        /* \"@openzeppelin/contracts/security/Pausable.sol\":1951:1971  Paused(_msgSender()) */\n      0x62e78cea01bee320cd4e420270b5ea74000d11b0c9f74754ebdbfc544b05a258\n        /* \"@openzeppelin/contracts/security/Pausable.sol\":1958:1970  _msgSender() */\n      tag_615\n        /* \"@openzeppelin/contracts/utils/Context.sol\":719:729  msg.sender */\n      caller\n      swap1\n        /* \"@openzeppelin/contracts/utils/Context.sol\":640:736  function _msgSender() internal view virtual returns (address) {... */\n      jump\n        /* \"@openzeppelin/contracts/security/Pausable.sol\":1958:1970  _msgSender() */\n    tag_615:\n        /* \"@openzeppelin/contracts/security/Pausable.sol\":1951:1971  Paused(_msgSender()) */\n      mload(0x40)\n      sub(shl(0xa0, 0x01), 0x01)\n        /* \"#utility.yul\":4451:4483   */\n      swap1\n      swap2\n      and\n        /* \"#utility.yul\":4433:4484   */\n      dup2\n      mstore\n        /* \"#utility.yul\":4421:4423   */\n      0x20\n        /* \"#utility.yul\":4406:4424   */\n      add\n        /* \"@openzeppelin/contracts/security/Pausable.sol\":1951:1971  Paused(_msgSender()) */\n      mload(0x40)\n      dup1\n      swap2\n      sub\n      swap1\n      log1\n        /* \"@openzeppelin/contracts/security/Pausable.sol\":1863:1978  function _pause() internal virtual whenNotPaused {... */\n      jump\t// out\n        /* \"@openzeppelin/contracts/security/Pausable.sol\":2110:2227  function _unpause() internal virtual whenPaused {... */\n    tag_309:\n        /* \"@openzeppelin/contracts/security/Pausable.sol\":1145:1149  bool */\n      0x00\n        /* \"@openzeppelin/contracts/security/Pausable.sol\":1168:1175  _paused */\n      sload\n      shl(0xa0, 0x01)\n      swap1\n      div\n      0xff\n      and\n        /* \"@openzeppelin/contracts/security/Pausable.sol\":1669:1710  require(paused(), \"Pausable: not paused\") */\n      tag_619\n      jumpi\n      mload(0x40)\n      shl(0xe5, 0x461bcd)\n      dup2\n      mstore\n        /* \"#utility.yul\":5895:5897   */\n      0x20\n        /* \"@openzeppelin/contracts/security/Pausable.sol\":1669:1710  require(paused(), \"Pausable: not paused\") */\n      0x04\n      dup3\n      add\n        /* \"#utility.yul\":5877:5898   */\n      mstore\n        /* \"#utility.yul\":5934:5936   */\n      0x14\n        /* \"#utility.yul\":5914:5932   */\n      0x24\n      dup3\n      add\n        /* \"#utility.yul\":5907:5937   */\n      mstore\n      shl(0x62, 0x14185d5cd8589b194e881b9bdd081c185d5cd959)\n        /* \"#utility.yul\":5953:5971   */\n      0x44\n      dup3\n      add\n        /* \"#utility.yul\":5946:5996   */\n      mstore\n        /* \"#utility.yul\":6013:6031   */\n      0x64\n      add\n        /* \"@openzeppelin/contracts/security/Pausable.sol\":1669:1710  require(paused(), \"Pausable: not paused\") */\n      tag_245\n        /* \"#utility.yul\":5693:6037   */\n      jump\n        /* \"@openzeppelin/contracts/security/Pausable.sol\":1669:1710  require(paused(), \"Pausable: not paused\") */\n    tag_619:\n        /* \"@openzeppelin/contracts/security/Pausable.sol\":2178:2183  false */\n      0x00\n        /* \"@openzeppelin/contracts/security/Pausable.sol\":2168:2183  _paused = false */\n      dup1\n      sload\n      not(shl(0xa0, 0xff))\n      and\n      swap1\n      sstore\n        /* \"@openzeppelin/contracts/security/Pausable.sol\":2198:2220  Unpaused(_msgSender()) */\n      0x5db9ee0a495bf2e6ff9c91a7834c1ba4fdd244a5e8aa4e537bd38aeae4b073aa\n        /* \"@openzeppelin/contracts/utils/Context.sol\":719:729  msg.sender */\n      caller\n        /* \"@openzeppelin/contracts/security/Pausable.sol\":2207:2219  _msgSender() */\n      tag_615\n        /* \"@openzeppelin/contracts/utils/Context.sol\":640:736  function _msgSender() internal view virtual returns (address) {... */\n      jump\n        /* \"@openzeppelin/contracts/utils/math/SafeMath.sol\":3465:3561  function mul(uint256 a, uint256 b) internal pure returns (uint256) {... */\n    tag_324:\n        /* \"@openzeppelin/contracts/utils/math/SafeMath.sol\":3523:3530  uint256 */\n      0x00\n        /* \"@openzeppelin/contracts/utils/math/SafeMath.sol\":3549:3554  a * b */\n      tag_249\n        /* \"@openzeppelin/contracts/utils/math/SafeMath.sol\":3553:3554  b */\n      dup3\n        /* \"@openzeppelin/contracts/utils/math/SafeMath.sol\":3549:3550  a */\n      dup5\n        /* \"@openzeppelin/contracts/utils/math/SafeMath.sol\":3549:3554  a * b */\n      tag_627\n      jump\t// in\n        /* \"@openzeppelin/contracts/access/Ownable.sol\":2270:2457  function _transferOwnership(address newOwner) internal virtual {... */\n    tag_346:\n        /* \"@openzeppelin/contracts/access/Ownable.sol\":2343:2359  address oldOwner */\n      0x00\n        /* \"@openzeppelin/contracts/access/Ownable.sol\":2362:2368  _owner */\n      dup1\n      sload\n      sub(shl(0xa0, 0x01), 0x01)\n        /* \"@openzeppelin/contracts/access/Ownable.sol\":2378:2395  _owner = newOwner */\n      dup4\n      dup2\n      and\n      not(sub(shl(0xa0, 0x01), 0x01))\n      dup4\n      and\n      dup2\n      or\n      dup5\n      sstore\n        /* \"@openzeppelin/contracts/access/Ownable.sol\":2410:2450  OwnershipTransferred(oldOwner, newOwner) */\n      mload(0x40)\n        /* \"@openzeppelin/contracts/access/Ownable.sol\":2362:2368  _owner */\n      swap2\n      swap1\n      swap3\n      and\n      swap3\n      dup4\n      swap2\n        /* \"@openzeppelin/contracts/access/Ownable.sol\":2410:2450  OwnershipTransferred(oldOwner, newOwner) */\n      0x8be0079c531659141344cd1fd0a4f28419497f9722a3daafe3b4186f6b6457e0\n      swap2\n        /* \"@openzeppelin/contracts/access/Ownable.sol\":2343:2359  address oldOwner */\n      swap1\n        /* \"@openzeppelin/contracts/access/Ownable.sol\":2410:2450  OwnershipTransferred(oldOwner, newOwner) */\n      log3\n        /* \"@openzeppelin/contracts/access/Ownable.sol\":2333:2457  {... */\n      pop\n        /* \"@openzeppelin/contracts/access/Ownable.sol\":2270:2457  function _transferOwnership(address newOwner) internal virtual {... */\n      pop\n      jump\t// out\n        /* \"contracts/LotteryToken.sol\":24424:24999  function _getCurrentSupply() private view returns(uint256, uint256) {\r... */\n    tag_395:\n        /* \"contracts/LotteryToken.sol\":24521:24528  _rTotal */\n      sload(0x09)\n        /* \"contracts/LotteryToken.sol\":24557:24569  _totalSupply */\n      sload(0x08)\n        /* \"contracts/LotteryToken.sol\":24474:24481  uint256 */\n      0x00\n      swap2\n      dup3\n      swap2\n      dup3\n        /* \"contracts/LotteryToken.sol\":24580:24874  for (uint256 i = 0; i < _excluded.length; i++) {\r... */\n    tag_630:\n        /* \"contracts/LotteryToken.sol\":24604:24613  _excluded */\n      0x06\n        /* \"contracts/LotteryToken.sol\":24604:24620  _excluded.length */\n      sload\n        /* \"contracts/LotteryToken.sol\":24600:24620  i < _excluded.length */\n      dup2\n      lt\n        /* \"contracts/LotteryToken.sol\":24580:24874  for (uint256 i = 0; i < _excluded.length; i++) {\r... */\n      iszero\n      tag_631\n      jumpi\n        /* \"contracts/LotteryToken.sol\":24670:24677  rSupply */\n      dup3\n        /* \"contracts/LotteryToken.sol\":24646:24653  _rOwned */\n      0x01\n        /* \"contracts/LotteryToken.sol\":24646:24667  _rOwned[_excluded[i]] */\n      0x00\n        /* \"contracts/LotteryToken.sol\":24654:24663  _excluded */\n      0x06\n        /* \"contracts/LotteryToken.sol\":24664:24665  i */\n      dup5\n        /* \"contracts/LotteryToken.sol\":24654:24666  _excluded[i] */\n      dup2\n      sload\n      dup2\n      lt\n      tag_634\n      jumpi\n      tag_634\n      tag_263\n      jump\t// in\n    tag_634:\n      0x00\n      swap2\n      dup3\n      mstore\n      0x20\n      dup1\n      dup4\n      keccak256\n      swap1\n      swap2\n      add\n      sload\n      sub(shl(0xa0, 0x01), 0x01)\n      and\n        /* \"contracts/LotteryToken.sol\":24646:24667  _rOwned[_excluded[i]] */\n      dup4\n      mstore\n      dup3\n      add\n      swap3\n      swap1\n      swap3\n      mstore\n      0x40\n      add\n      swap1\n      keccak256\n      sload\n        /* \"contracts/LotteryToken.sol\":24646:24677  _rOwned[_excluded[i]] > rSupply */\n      gt\n      dup1\n        /* \"contracts/LotteryToken.sol\":24646:24712  _rOwned[_excluded[i]] > rSupply || _tOwned[_excluded[i]] > tSupply */\n      tag_636\n      jumpi\n      pop\n        /* \"contracts/LotteryToken.sol\":24705:24712  tSupply */\n      dup2\n        /* \"contracts/LotteryToken.sol\":24681:24688  _tOwned */\n      0x02\n        /* \"contracts/LotteryToken.sol\":24681:24702  _tOwned[_excluded[i]] */\n      0x00\n        /* \"contracts/LotteryToken.sol\":24689:24698  _excluded */\n      0x06\n        /* \"contracts/LotteryToken.sol\":24699:24700  i */\n      dup5\n        /* \"contracts/LotteryToken.sol\":24689:24701  _excluded[i] */\n      dup2\n      sload\n      dup2\n      lt\n      tag_638\n      jumpi\n      tag_638\n      tag_263\n      jump\t// in\n    tag_638:\n      0x00\n      swap2\n      dup3\n      mstore\n      0x20\n      dup1\n      dup4\n      keccak256\n      swap1\n      swap2\n      add\n      sload\n      sub(shl(0xa0, 0x01), 0x01)\n      and\n        /* \"contracts/LotteryToken.sol\":24681:24702  _tOwned[_excluded[i]] */\n      dup4\n      mstore\n      dup3\n      add\n      swap3\n      swap1\n      swap3\n      mstore\n      0x40\n      add\n      swap1\n      keccak256\n      sload\n        /* \"contracts/LotteryToken.sol\":24681:24712  _tOwned[_excluded[i]] > tSupply */\n      gt\n        /* \"contracts/LotteryToken.sol\":24646:24712  _rOwned[_excluded[i]] > rSupply || _tOwned[_excluded[i]] > tSupply */\n    tag_636:\n        /* \"contracts/LotteryToken.sol\":24642:24744  if (_rOwned[_excluded[i]] > rSupply || _tOwned[_excluded[i]] > tSupply) return (_rTotal, _totalSupply) */\n      iszero\n      tag_640\n      jumpi\n        /* \"contracts/LotteryToken.sol\":24722:24729  _rTotal */\n      sload(0x09)\n        /* \"contracts/LotteryToken.sol\":24731:24743  _totalSupply */\n      sload(0x08)\n        /* \"contracts/LotteryToken.sol\":24714:24744  return (_rTotal, _totalSupply) */\n      swap5\n      pop\n      swap5\n      pop\n      pop\n      pop\n      pop\n        /* \"contracts/LotteryToken.sol\":24424:24999  function _getCurrentSupply() private view returns(uint256, uint256) {\r... */\n      swap1\n      swap2\n      jump\t// out\n        /* \"contracts/LotteryToken.sol\":24642:24744  if (_rOwned[_excluded[i]] > rSupply || _tOwned[_excluded[i]] > tSupply) return (_rTotal, _totalSupply) */\n    tag_640:\n        /* \"contracts/LotteryToken.sol\":24769:24803  rSupply.sub(_rOwned[_excluded[i]]) */\n      tag_641\n        /* \"contracts/LotteryToken.sol\":24781:24788  _rOwned */\n      0x01\n        /* \"contracts/LotteryToken.sol\":24781:24802  _rOwned[_excluded[i]] */\n      0x00\n        /* \"contracts/LotteryToken.sol\":24789:24798  _excluded */\n      0x06\n        /* \"contracts/LotteryToken.sol\":24799:24800  i */\n      dup5\n        /* \"contracts/LotteryToken.sol\":24789:24801  _excluded[i] */\n      dup2\n      sload\n      dup2\n      lt\n      tag_643\n      jumpi\n      tag_643\n      tag_263\n      jump\t// in\n    tag_643:\n      0x00\n      swap2\n      dup3\n      mstore\n      0x20\n      dup1\n      dup4\n      keccak256\n      swap1\n      swap2\n      add\n      sload\n      sub(shl(0xa0, 0x01), 0x01)\n      and\n        /* \"contracts/LotteryToken.sol\":24781:24802  _rOwned[_excluded[i]] */\n      dup4\n      mstore\n      dup3\n      add\n      swap3\n      swap1\n      swap3\n      mstore\n      0x40\n      add\n      swap1\n      keccak256\n      sload\n        /* \"contracts/LotteryToken.sol\":24769:24776  rSupply */\n      dup5\n      swap1\n        /* \"contracts/LotteryToken.sol\":24769:24780  rSupply.sub */\n      tag_442\n        /* \"contracts/LotteryToken.sol\":24769:24803  rSupply.sub(_rOwned[_excluded[i]]) */\n      jump\t// in\n    tag_641:\n        /* \"contracts/LotteryToken.sol\":24759:24803  rSupply = rSupply.sub(_rOwned[_excluded[i]]) */\n      swap3\n      pop\n        /* \"contracts/LotteryToken.sol\":24828:24862  tSupply.sub(_tOwned[_excluded[i]]) */\n      tag_645\n        /* \"contracts/LotteryToken.sol\":24840:24847  _tOwned */\n      0x02\n        /* \"contracts/LotteryToken.sol\":24840:24861  _tOwned[_excluded[i]] */\n      0x00\n        /* \"contracts/LotteryToken.sol\":24848:24857  _excluded */\n      0x06\n        /* \"contracts/LotteryToken.sol\":24858:24859  i */\n      dup5\n        /* \"contracts/LotteryToken.sol\":24848:24860  _excluded[i] */\n      dup2\n      sload\n      dup2\n      lt\n      tag_647\n      jumpi\n      tag_647\n      tag_263\n      jump\t// in\n    tag_647:\n      0x00\n      swap2\n      dup3\n      mstore\n      0x20\n      dup1\n      dup4\n      keccak256\n      swap1\n      swap2\n      add\n      sload\n      sub(shl(0xa0, 0x01), 0x01)\n      and\n        /* \"contracts/LotteryToken.sol\":24840:24861  _tOwned[_excluded[i]] */\n      dup4\n      mstore\n      dup3\n      add\n      swap3\n      swap1\n      swap3\n      mstore\n      0x40\n      add\n      swap1\n      keccak256\n      sload\n        /* \"contracts/LotteryToken.sol\":24828:24835  tSupply */\n      dup4\n      swap1\n        /* \"contracts/LotteryToken.sol\":24828:24839  tSupply.sub */\n      tag_442\n        /* \"contracts/LotteryToken.sol\":24828:24862  tSupply.sub(_tOwned[_excluded[i]]) */\n      jump\t// in\n    tag_645:\n        /* \"contracts/LotteryToken.sol\":24818:24862  tSupply = tSupply.sub(_tOwned[_excluded[i]]) */\n      swap2\n      pop\n        /* \"contracts/LotteryToken.sol\":24622:24625  i++ */\n      dup1\n      tag_649\n      dup2\n      tag_268\n      jump\t// in\n    tag_649:\n      swap2\n      pop\n      pop\n        /* \"contracts/LotteryToken.sol\":24580:24874  for (uint256 i = 0; i < _excluded.length; i++) {\r... */\n      jump(tag_630)\n    tag_631:\n      pop\n        /* \"contracts/LotteryToken.sol\":24910:24922  _totalSupply */\n      sload(0x08)\n        /* \"contracts/LotteryToken.sol\":24898:24905  _rTotal */\n      sload(0x09)\n        /* \"contracts/LotteryToken.sol\":24898:24923  _rTotal.div(_totalSupply) */\n      tag_650\n      swap2\n        /* \"contracts/LotteryToken.sol\":24898:24909  _rTotal.div */\n      tag_220\n        /* \"contracts/LotteryToken.sol\":24898:24923  _rTotal.div(_totalSupply) */\n      jump\t// in\n    tag_650:\n        /* \"contracts/LotteryToken.sol\":24888:24895  rSupply */\n      dup3\n        /* \"contracts/LotteryToken.sol\":24888:24923  rSupply < _rTotal.div(_totalSupply) */\n      lt\n        /* \"contracts/LotteryToken.sol\":24884:24955  if (rSupply < _rTotal.div(_totalSupply)) return (_rTotal, _totalSupply) */\n      iszero\n      tag_651\n      jumpi\n        /* \"contracts/LotteryToken.sol\":24933:24940  _rTotal */\n      sload(0x09)\n        /* \"contracts/LotteryToken.sol\":24942:24954  _totalSupply */\n      sload(0x08)\n        /* \"contracts/LotteryToken.sol\":24925:24955  return (_rTotal, _totalSupply) */\n      swap4\n      pop\n      swap4\n      pop\n      pop\n      pop\n        /* \"contracts/LotteryToken.sol\":24424:24999  function _getCurrentSupply() private view returns(uint256, uint256) {\r... */\n      swap1\n      swap2\n      jump\t// out\n        /* \"contracts/LotteryToken.sol\":24884:24955  if (rSupply < _rTotal.div(_totalSupply)) return (_rTotal, _totalSupply) */\n    tag_651:\n        /* \"contracts/LotteryToken.sol\":24974:24981  rSupply */\n      swap1\n      swap4\n        /* \"contracts/LotteryToken.sol\":24983:24990  tSupply */\n      swap1\n      swap3\n      pop\n        /* \"contracts/LotteryToken.sol\":24424:24999  function _getCurrentSupply() private view returns(uint256, uint256) {\r... */\n      swap1\n      pop\n      jump\t// out\n        /* \"@openzeppelin/contracts/utils/math/SafeMath.sol\":3122:3218  function sub(uint256 a, uint256 b) internal pure returns (uint256) {... */\n    tag_442:\n        /* \"@openzeppelin/contracts/utils/math/SafeMath.sol\":3180:3187  uint256 */\n      0x00\n        /* \"@openzeppelin/contracts/utils/math/SafeMath.sol\":3206:3211  a - b */\n      tag_249\n        /* \"@openzeppelin/contracts/utils/math/SafeMath.sol\":3210:3211  b */\n      dup3\n        /* \"@openzeppelin/contracts/utils/math/SafeMath.sol\":3206:3207  a */\n      dup5\n        /* \"@openzeppelin/contracts/utils/math/SafeMath.sol\":3206:3211  a - b */\n      tag_483\n      jump\t// in\n        /* \"contracts/LotteryToken.sol\":21568:22281  function _transferFromExcluded(address sender, address recipient, uint256 tAmount) private {\r... */\n    tag_525:\n        /* \"contracts/LotteryToken.sol\":21671:21686  uint256 rAmount */\n      0x00\n        /* \"contracts/LotteryToken.sol\":21688:21711  uint256 rTransferAmount */\n      dup1\n        /* \"contracts/LotteryToken.sol\":21713:21725  uint256 rFee */\n      0x00\n        /* \"contracts/LotteryToken.sol\":21727:21750  uint256 tTransferAmount */\n      dup1\n        /* \"contracts/LotteryToken.sol\":21752:21764  uint256 tFee */\n      0x00\n        /* \"contracts/LotteryToken.sol\":21768:21787  _getValues(tAmount) */\n      tag_655\n        /* \"contracts/LotteryToken.sol\":21779:21786  tAmount */\n      dup7\n        /* \"contracts/LotteryToken.sol\":21768:21778  _getValues */\n      tag_297\n        /* \"contracts/LotteryToken.sol\":21768:21787  _getValues(tAmount) */\n      jump\t// in\n    tag_655:\n      sub(shl(0xa0, 0x01), 0x01)\n        /* \"contracts/LotteryToken.sol\":21816:21831  _tOwned[sender] */\n      dup14\n      and\n      0x00\n      swap1\n      dup2\n      mstore\n        /* \"contracts/LotteryToken.sol\":21816:21823  _tOwned */\n      0x02\n        /* \"contracts/LotteryToken.sol\":21816:21831  _tOwned[sender] */\n      0x20\n      mstore\n      0x40\n      swap1\n      keccak256\n      sload\n        /* \"contracts/LotteryToken.sol\":21670:21787  (uint256 rAmount, uint256 rTransferAmount, uint256 rFee, uint256 tTransferAmount, uint256 tFee) = _getValues(tAmount) */\n      swap5\n      swap10\n      pop\n      swap3\n      swap8\n      pop\n      swap1\n      swap6\n      pop\n      swap4\n      pop\n      swap2\n      pop\n        /* \"contracts/LotteryToken.sol\":21816:21844  _tOwned[sender].sub(tAmount) */\n      tag_656\n      swap1\n        /* \"contracts/LotteryToken.sol\":21836:21843  tAmount */\n      dup8\n        /* \"contracts/LotteryToken.sol\":21816:21835  _tOwned[sender].sub */\n      tag_442\n        /* \"contracts/LotteryToken.sol\":21816:21844  _tOwned[sender].sub(tAmount) */\n      jump\t// in\n    tag_656:\n      sub(shl(0xa0, 0x01), 0x01)\n        /* \"contracts/LotteryToken.sol\":21798:21813  _tOwned[sender] */\n      dup10\n      and\n      0x00\n      swap1\n      dup2\n      mstore\n        /* \"contracts/LotteryToken.sol\":21798:21805  _tOwned */\n      0x02\n        /* \"contracts/LotteryToken.sol\":21798:21813  _tOwned[sender] */\n      0x20\n      swap1\n      dup2\n      mstore\n      0x40\n      dup1\n      dup4\n      keccak256\n        /* \"contracts/LotteryToken.sol\":21798:21844  _tOwned[sender] = _tOwned[sender].sub(tAmount) */\n      swap4\n      swap1\n      swap4\n      sstore\n        /* \"contracts/LotteryToken.sol\":21873:21880  _rOwned */\n      0x01\n        /* \"contracts/LotteryToken.sol\":21873:21888  _rOwned[sender] */\n      swap1\n      mstore\n      keccak256\n      sload\n        /* \"contracts/LotteryToken.sol\":21873:21901  _rOwned[sender].sub(rAmount) */\n      tag_657\n      swap1\n        /* \"contracts/LotteryToken.sol\":21893:21900  rAmount */\n      dup7\n        /* \"contracts/LotteryToken.sol\":21873:21892  _rOwned[sender].sub */\n      tag_442\n        /* \"contracts/LotteryToken.sol\":21873:21901  _rOwned[sender].sub(rAmount) */\n      jump\t// in\n    tag_657:\n      sub(shl(0xa0, 0x01), 0x01)\n        /* \"contracts/LotteryToken.sol\":21855:21870  _rOwned[sender] */\n      dup10\n      and\n      0x00\n      swap1\n      dup2\n      mstore\n        /* \"contracts/LotteryToken.sol\":21855:21862  _rOwned */\n      0x01\n        /* \"contracts/LotteryToken.sol\":21855:21870  _rOwned[sender] */\n      0x20\n      mstore\n      0x40\n      dup2\n      keccak256\n        /* \"contracts/LotteryToken.sol\":21855:21901  _rOwned[sender] = _rOwned[sender].sub(rAmount) */\n      swap2\n      swap1\n      swap2\n      sstore\n        /* \"contracts/LotteryToken.sol\":21946:21973  isGenesisAddress(recipient) */\n      tag_658\n        /* \"contracts/LotteryToken.sol\":21963:21972  recipient */\n      dup9\n      sub(shl(0xa0, 0x01), 0x01)\n        /* \"contracts/LotteryToken.sol\":10430:10452  _addressLevel[account] */\n      and\n        /* \"contracts/LotteryToken.sol\":10406:10410  bool */\n      0x00\n        /* \"contracts/LotteryToken.sol\":10430:10452  _addressLevel[account] */\n      swap1\n      dup2\n      mstore\n        /* \"contracts/LotteryToken.sol\":10430:10443  _addressLevel */\n      0x04\n        /* \"contracts/LotteryToken.sol\":10430:10452  _addressLevel[account] */\n      0x20\n      mstore\n      0x40\n      swap1\n      keccak256\n      sload\n        /* \"contracts/LotteryToken.sol\":10430:10457  _addressLevel[account] == 0 */\n      iszero\n      swap1\n        /* \"contracts/LotteryToken.sol\":10342:10465  function isGenesisAddress(address account) public view returns (bool) {\r... */\n      jump\n        /* \"contracts/LotteryToken.sol\":21946:21973  isGenesisAddress(recipient) */\n    tag_658:\n        /* \"contracts/LotteryToken.sol\":21943:22091  if(isGenesisAddress(recipient)){\r... */\n      iszero\n      tag_662\n      jumpi\n        /* \"contracts/LotteryToken.sol\":22004:22033  genesisReward.mul(_getRate()) */\n      tag_660\n        /* \"contracts/LotteryToken.sol\":22022:22032  _getRate() */\n      tag_661\n        /* \"contracts/LotteryToken.sol\":22022:22030  _getRate */\n      tag_248\n        /* \"contracts/LotteryToken.sol\":22022:22032  _getRate() */\n      jump\t// in\n    tag_661:\n        /* \"contracts/LotteryToken.sol\":22004:22017  genesisReward */\n      sload(0x0e)\n      swap1\n        /* \"contracts/LotteryToken.sol\":22004:22021  genesisReward.mul */\n      tag_324\n        /* \"contracts/LotteryToken.sol\":22004:22033  genesisReward.mul(_getRate()) */\n      jump\t// in\n    tag_660:\n        /* \"contracts/LotteryToken.sol\":21989:22033  _bonusAmount = genesisReward.mul(_getRate()) */\n      swap1\n      pop\n        /* \"contracts/LotteryToken.sol\":22048:22079  _upgradeAddressLevel(recipient) */\n      tag_662\n        /* \"contracts/LotteryToken.sol\":22069:22078  recipient */\n      dup9\n      sub(shl(0xa0, 0x01), 0x01)\n        /* \"contracts/LotteryToken.sol\":22941:22964  _addressLevel[_account] */\n      and\n      0x00\n      swap1\n      dup2\n      mstore\n        /* \"contracts/LotteryToken.sol\":22941:22954  _addressLevel */\n      0x04\n        /* \"contracts/LotteryToken.sol\":22941:22964  _addressLevel[_account] */\n      0x20\n      mstore\n      0x40\n      swap1\n      keccak256\n        /* \"contracts/LotteryToken.sol\":22967:22968  1 */\n      0x01\n        /* \"contracts/LotteryToken.sol\":22941:22968  _addressLevel[_account] = 1 */\n      swap1\n      sstore\n        /* \"contracts/LotteryToken.sol\":22874:22976  function _upgradeAddressLevel(address _account) private {\r... */\n      jump\n        /* \"contracts/LotteryToken.sol\":22048:22079  _upgradeAddressLevel(recipient) */\n    tag_662:\n        /* \"contracts/LotteryToken.sol\":22122:22179  _rOwned[recipient].add(rTransferAmount.add(_bonusAmount)) */\n      tag_664\n        /* \"contracts/LotteryToken.sol\":22145:22178  rTransferAmount.add(_bonusAmount) */\n      tag_665\n        /* \"contracts/LotteryToken.sol\":22145:22160  rTransferAmount */\n      dup7\n        /* \"contracts/LotteryToken.sol\":22165:22177  _bonusAmount */\n      dup4\n        /* \"contracts/LotteryToken.sol\":22145:22164  rTransferAmount.add */\n      tag_276\n        /* \"contracts/LotteryToken.sol\":22145:22178  rTransferAmount.add(_bonusAmount) */\n      jump\t// in\n    tag_665:\n      sub(shl(0xa0, 0x01), 0x01)\n        /* \"contracts/LotteryToken.sol\":22122:22140  _rOwned[recipient] */\n      dup11\n      and\n      0x00\n      swap1\n      dup2\n      mstore\n        /* \"contracts/LotteryToken.sol\":22122:22129  _rOwned */\n      0x01\n        /* \"contracts/LotteryToken.sol\":22122:22140  _rOwned[recipient] */\n      0x20\n      mstore\n      0x40\n      swap1\n      keccak256\n      sload\n      swap1\n        /* \"contracts/LotteryToken.sol\":22122:22144  _rOwned[recipient].add */\n      tag_276\n        /* \"contracts/LotteryToken.sol\":22122:22179  _rOwned[recipient].add(rTransferAmount.add(_bonusAmount)) */\n      jump\t// in\n    tag_664:\n      sub(shl(0xa0, 0x01), 0x01)\n        /* \"contracts/LotteryToken.sol\":22101:22119  _rOwned[recipient] */\n      dup10\n      and\n      0x00\n      swap1\n      dup2\n      mstore\n        /* \"contracts/LotteryToken.sol\":22101:22108  _rOwned */\n      0x01\n        /* \"contracts/LotteryToken.sol\":22101:22119  _rOwned[recipient] */\n      0x20\n      mstore\n      0x40\n      swap1\n      keccak256\n        /* \"contracts/LotteryToken.sol\":22101:22179  _rOwned[recipient] = _rOwned[recipient].add(rTransferAmount.add(_bonusAmount)) */\n      sstore\n        /* \"contracts/LotteryToken.sol\":22190:22213  _reflectFee(rFee, tFee) */\n      tag_666\n        /* \"contracts/LotteryToken.sol\":22202:22206  rFee */\n      dup5\n        /* \"contracts/LotteryToken.sol\":22208:22212  tFee */\n      dup4\n        /* \"contracts/LotteryToken.sol\":22190:22201  _reflectFee */\n      tag_667\n        /* \"contracts/LotteryToken.sol\":22190:22213  _reflectFee(rFee, tFee) */\n      jump\t// in\n    tag_666:\n        /* \"contracts/LotteryToken.sol\":22246:22255  recipient */\n      dup8\n      sub(shl(0xa0, 0x01), 0x01)\n        /* \"contracts/LotteryToken.sol\":22229:22273  Transfer(sender, recipient, tTransferAmount) */\n      and\n        /* \"contracts/LotteryToken.sol\":22238:22244  sender */\n      dup10\n      sub(shl(0xa0, 0x01), 0x01)\n        /* \"contracts/LotteryToken.sol\":22229:22273  Transfer(sender, recipient, tTransferAmount) */\n      and\n      0x00\n      dup1\n      mload\n      0x20\n      data_ada389e1fc24a8587c776340efb91b36e675792ab631816100d55df0b5cf3cbc\n      dup4\n      codecopy\n      dup2\n      mload\n      swap2\n      mstore\n        /* \"contracts/LotteryToken.sol\":22257:22272  tTransferAmount */\n      dup6\n        /* \"contracts/LotteryToken.sol\":22229:22273  Transfer(sender, recipient, tTransferAmount) */\n      mload(0x40)\n      tag_668\n      swap2\n        /* \"#utility.yul\":13440:13465   */\n      dup2\n      mstore\n        /* \"#utility.yul\":13428:13430   */\n      0x20\n        /* \"#utility.yul\":13413:13431   */\n      add\n      swap1\n        /* \"#utility.yul\":13294:13471   */\n      jump\n        /* \"contracts/LotteryToken.sol\":22229:22273  Transfer(sender, recipient, tTransferAmount) */\n    tag_668:\n      mload(0x40)\n      dup1\n      swap2\n      sub\n      swap1\n      log3\n        /* \"contracts/LotteryToken.sol\":21659:22281  {\r... */\n      pop\n      pop\n      pop\n      pop\n      pop\n      pop\n        /* \"contracts/LotteryToken.sol\":21568:22281  function _transferFromExcluded(address sender, address recipient, uint256 tAmount) private {\r... */\n      pop\n      pop\n      pop\n      jump\t// out\n        /* \"contracts/LotteryToken.sol\":21042:21560  function _transferToExcluded(address sender, address recipient, uint256 tAmount) private {\r... */\n    tag_530:\n        /* \"contracts/LotteryToken.sol\":21143:21158  uint256 rAmount */\n      0x00\n        /* \"contracts/LotteryToken.sol\":21160:21183  uint256 rTransferAmount */\n      dup1\n        /* \"contracts/LotteryToken.sol\":21185:21197  uint256 rFee */\n      0x00\n        /* \"contracts/LotteryToken.sol\":21199:21222  uint256 tTransferAmount */\n      dup1\n        /* \"contracts/LotteryToken.sol\":21224:21236  uint256 tFee */\n      0x00\n        /* \"contracts/LotteryToken.sol\":21240:21259  _getValues(tAmount) */\n      tag_670\n        /* \"contracts/LotteryToken.sol\":21251:21258  tAmount */\n      dup7\n        /* \"contracts/LotteryToken.sol\":21240:21250  _getValues */\n      tag_297\n        /* \"contracts/LotteryToken.sol\":21240:21259  _getValues(tAmount) */\n      jump\t// in\n    tag_670:\n      sub(shl(0xa0, 0x01), 0x01)\n        /* \"contracts/LotteryToken.sol\":21288:21303  _rOwned[sender] */\n      dup14\n      and\n      0x00\n      swap1\n      dup2\n      mstore\n        /* \"contracts/LotteryToken.sol\":21288:21295  _rOwned */\n      0x01\n        /* \"contracts/LotteryToken.sol\":21288:21303  _rOwned[sender] */\n      0x20\n      mstore\n      0x40\n      swap1\n      keccak256\n      sload\n        /* \"contracts/LotteryToken.sol\":21142:21259  (uint256 rAmount, uint256 rTransferAmount, uint256 rFee, uint256 tTransferAmount, uint256 tFee) = _getValues(tAmount) */\n      swap5\n      swap10\n      pop\n      swap3\n      swap8\n      pop\n      swap1\n      swap6\n      pop\n      swap4\n      pop\n      swap2\n      pop\n        /* \"contracts/LotteryToken.sol\":21288:21316  _rOwned[sender].sub(rAmount) */\n      tag_671\n      swap1\n        /* \"contracts/LotteryToken.sol\":21142:21259  (uint256 rAmount, uint256 rTransferAmount, uint256 rFee, uint256 tTransferAmount, uint256 tFee) = _getValues(tAmount) */\n      dup7\n        /* \"contracts/LotteryToken.sol\":21288:21307  _rOwned[sender].sub */\n      tag_442\n        /* \"contracts/LotteryToken.sol\":21288:21316  _rOwned[sender].sub(rAmount) */\n      jump\t// in\n    tag_671:\n      sub(shl(0xa0, 0x01), 0x01)\n        /* \"contracts/LotteryToken.sol\":21270:21285  _rOwned[sender] */\n      dup1\n      dup11\n      and\n      0x00\n      swap1\n      dup2\n      mstore\n        /* \"contracts/LotteryToken.sol\":21270:21277  _rOwned */\n      0x01\n        /* \"contracts/LotteryToken.sol\":21270:21285  _rOwned[sender] */\n      0x20\n      swap1\n      dup2\n      mstore\n      0x40\n      dup1\n      dup4\n      keccak256\n        /* \"contracts/LotteryToken.sol\":21270:21316  _rOwned[sender] = _rOwned[sender].sub(rAmount) */\n      swap5\n      swap1\n      swap5\n      sstore\n        /* \"contracts/LotteryToken.sol\":21348:21366  _tOwned[recipient] */\n      swap2\n      dup11\n      and\n      dup2\n      mstore\n        /* \"contracts/LotteryToken.sol\":21348:21355  _tOwned */\n      0x02\n        /* \"contracts/LotteryToken.sol\":21348:21366  _tOwned[recipient] */\n      swap1\n      swap2\n      mstore\n      keccak256\n      sload\n        /* \"contracts/LotteryToken.sol\":21348:21387  _tOwned[recipient].add(tTransferAmount) */\n      tag_672\n      swap1\n        /* \"contracts/LotteryToken.sol\":21371:21386  tTransferAmount */\n      dup4\n        /* \"contracts/LotteryToken.sol\":21348:21370  _tOwned[recipient].add */\n      tag_276\n        /* \"contracts/LotteryToken.sol\":21348:21387  _tOwned[recipient].add(tTransferAmount) */\n      jump\t// in\n    tag_672:\n      sub(shl(0xa0, 0x01), 0x01)\n        /* \"contracts/LotteryToken.sol\":21327:21345  _tOwned[recipient] */\n      dup9\n      and\n      0x00\n      swap1\n      dup2\n      mstore\n        /* \"contracts/LotteryToken.sol\":21327:21334  _tOwned */\n      0x02\n        /* \"contracts/LotteryToken.sol\":21327:21345  _tOwned[recipient] */\n      0x20\n      swap1\n      dup2\n      mstore\n      0x40\n      dup1\n      dup4\n      keccak256\n        /* \"contracts/LotteryToken.sol\":21327:21387  _tOwned[recipient] = _tOwned[recipient].add(tTransferAmount) */\n      swap4\n      swap1\n      swap4\n      sstore\n        /* \"contracts/LotteryToken.sol\":21419:21426  _rOwned */\n      0x01\n        /* \"contracts/LotteryToken.sol\":21419:21437  _rOwned[recipient] */\n      swap1\n      mstore\n      keccak256\n      sload\n        /* \"contracts/LotteryToken.sol\":21419:21458  _rOwned[recipient].add(rTransferAmount) */\n      tag_673\n      swap1\n        /* \"contracts/LotteryToken.sol\":21442:21457  rTransferAmount */\n      dup6\n        /* \"contracts/LotteryToken.sol\":21419:21441  _rOwned[recipient].add */\n      tag_276\n        /* \"contracts/LotteryToken.sol\":21419:21458  _rOwned[recipient].add(rTransferAmount) */\n      jump\t// in\n    tag_673:\n      sub(shl(0xa0, 0x01), 0x01)\n        /* \"contracts/LotteryToken.sol\":21398:21416  _rOwned[recipient] */\n      dup9\n      and\n      0x00\n      swap1\n      dup2\n      mstore\n        /* \"contracts/LotteryToken.sol\":21398:21405  _rOwned */\n      0x01\n        /* \"contracts/LotteryToken.sol\":21398:21416  _rOwned[recipient] */\n      0x20\n      mstore\n      0x40\n      swap1\n      keccak256\n        /* \"contracts/LotteryToken.sol\":21398:21458  _rOwned[recipient] = _rOwned[recipient].add(rTransferAmount) */\n      sstore\n        /* \"contracts/LotteryToken.sol\":21469:21492  _reflectFee(rFee, tFee) */\n      tag_674\n        /* \"contracts/LotteryToken.sol\":21481:21485  rFee */\n      dup4\n        /* \"contracts/LotteryToken.sol\":21487:21491  tFee */\n      dup3\n        /* \"contracts/LotteryToken.sol\":21469:21480  _reflectFee */\n      tag_667\n        /* \"contracts/LotteryToken.sol\":21469:21492  _reflectFee(rFee, tFee) */\n      jump\t// in\n    tag_674:\n        /* \"contracts/LotteryToken.sol\":21525:21534  recipient */\n      dup7\n      sub(shl(0xa0, 0x01), 0x01)\n        /* \"contracts/LotteryToken.sol\":21508:21552  Transfer(sender, recipient, tTransferAmount) */\n      and\n        /* \"contracts/LotteryToken.sol\":21517:21523  sender */\n      dup9\n      sub(shl(0xa0, 0x01), 0x01)\n        /* \"contracts/LotteryToken.sol\":21508:21552  Transfer(sender, recipient, tTransferAmount) */\n      and\n      0x00\n      dup1\n      mload\n      0x20\n      data_ada389e1fc24a8587c776340efb91b36e675792ab631816100d55df0b5cf3cbc\n      dup4\n      codecopy\n      dup2\n      mload\n      swap2\n      mstore\n        /* \"contracts/LotteryToken.sol\":21536:21551  tTransferAmount */\n      dup5\n        /* \"contracts/LotteryToken.sol\":21508:21552  Transfer(sender, recipient, tTransferAmount) */\n      mload(0x40)\n      tag_675\n      swap2\n        /* \"#utility.yul\":13440:13465   */\n      dup2\n      mstore\n        /* \"#utility.yul\":13428:13430   */\n      0x20\n        /* \"#utility.yul\":13413:13431   */\n      add\n      swap1\n        /* \"#utility.yul\":13294:13471   */\n      jump\n        /* \"contracts/LotteryToken.sol\":21508:21552  Transfer(sender, recipient, tTransferAmount) */\n    tag_675:\n      mload(0x40)\n      dup1\n      swap2\n      sub\n      swap1\n      log3\n        /* \"contracts/LotteryToken.sol\":21131:21560  {\r... */\n      pop\n      pop\n      pop\n      pop\n      pop\n        /* \"contracts/LotteryToken.sol\":21042:21560  function _transferToExcluded(address sender, address recipient, uint256 tAmount) private {\r... */\n      pop\n      pop\n      pop\n      jump\t// out\n        /* \"contracts/LotteryToken.sol\":20382:21034  function _transferStandard(address sender, address recipient, uint256 tAmount) private {\r... */\n    tag_535:\n        /* \"contracts/LotteryToken.sol\":20481:20496  uint256 rAmount */\n      0x00\n        /* \"contracts/LotteryToken.sol\":20498:20521  uint256 rTransferAmount */\n      dup1\n        /* \"contracts/LotteryToken.sol\":20523:20535  uint256 rFee */\n      0x00\n        /* \"contracts/LotteryToken.sol\":20537:20560  uint256 tTransferAmount */\n      dup1\n        /* \"contracts/LotteryToken.sol\":20562:20574  uint256 tFee */\n      0x00\n        /* \"contracts/LotteryToken.sol\":20578:20597  _getValues(tAmount) */\n      tag_677\n        /* \"contracts/LotteryToken.sol\":20589:20596  tAmount */\n      dup7\n        /* \"contracts/LotteryToken.sol\":20578:20588  _getValues */\n      tag_297\n        /* \"contracts/LotteryToken.sol\":20578:20597  _getValues(tAmount) */\n      jump\t// in\n    tag_677:\n      sub(shl(0xa0, 0x01), 0x01)\n        /* \"contracts/LotteryToken.sol\":20626:20641  _rOwned[sender] */\n      dup14\n      and\n      0x00\n      swap1\n      dup2\n      mstore\n        /* \"contracts/LotteryToken.sol\":20626:20633  _rOwned */\n      0x01\n        /* \"contracts/LotteryToken.sol\":20626:20641  _rOwned[sender] */\n      0x20\n      mstore\n      0x40\n      swap1\n      keccak256\n      sload\n        /* \"contracts/LotteryToken.sol\":20480:20597  (uint256 rAmount, uint256 rTransferAmount, uint256 rFee, uint256 tTransferAmount, uint256 tFee) = _getValues(tAmount) */\n      swap5\n      swap10\n      pop\n      swap3\n      swap8\n      pop\n      swap1\n      swap6\n      pop\n      swap4\n      pop\n      swap2\n      pop\n        /* \"contracts/LotteryToken.sol\":20626:20654  _rOwned[sender].sub(rAmount) */\n      tag_657\n      swap1\n        /* \"contracts/LotteryToken.sol\":20480:20597  (uint256 rAmount, uint256 rTransferAmount, uint256 rFee, uint256 tTransferAmount, uint256 tFee) = _getValues(tAmount) */\n      dup7\n        /* \"contracts/LotteryToken.sol\":20626:20645  _rOwned[sender].sub */\n      tag_442\n        /* \"contracts/LotteryToken.sol\":20626:20654  _rOwned[sender].sub(rAmount) */\n      jump\t// in\n        /* \"contracts/LotteryToken.sol\":22289:22866  function _transferBothExcluded(address sender, address recipient, uint256 tAmount) private {\r... */\n    tag_540:\n        /* \"contracts/LotteryToken.sol\":22392:22407  uint256 rAmount */\n      0x00\n        /* \"contracts/LotteryToken.sol\":22409:22432  uint256 rTransferAmount */\n      dup1\n        /* \"contracts/LotteryToken.sol\":22434:22446  uint256 rFee */\n      0x00\n        /* \"contracts/LotteryToken.sol\":22448:22471  uint256 tTransferAmount */\n      dup1\n        /* \"contracts/LotteryToken.sol\":22473:22485  uint256 tFee */\n      0x00\n        /* \"contracts/LotteryToken.sol\":22489:22508  _getValues(tAmount) */\n      tag_689\n        /* \"contracts/LotteryToken.sol\":22500:22507  tAmount */\n      dup7\n        /* \"contracts/LotteryToken.sol\":22489:22499  _getValues */\n      tag_297\n        /* \"contracts/LotteryToken.sol\":22489:22508  _getValues(tAmount) */\n      jump\t// in\n    tag_689:\n      sub(shl(0xa0, 0x01), 0x01)\n        /* \"contracts/LotteryToken.sol\":22537:22552  _tOwned[sender] */\n      dup14\n      and\n      0x00\n      swap1\n      dup2\n      mstore\n        /* \"contracts/LotteryToken.sol\":22537:22544  _tOwned */\n      0x02\n        /* \"contracts/LotteryToken.sol\":22537:22552  _tOwned[sender] */\n      0x20\n      mstore\n      0x40\n      swap1\n      keccak256\n      sload\n        /* \"contracts/LotteryToken.sol\":22391:22508  (uint256 rAmount, uint256 rTransferAmount, uint256 rFee, uint256 tTransferAmount, uint256 tFee) = _getValues(tAmount) */\n      swap5\n      swap10\n      pop\n      swap3\n      swap8\n      pop\n      swap1\n      swap6\n      pop\n      swap4\n      pop\n      swap2\n      pop\n        /* \"contracts/LotteryToken.sol\":22537:22565  _tOwned[sender].sub(tAmount) */\n      tag_690\n      swap1\n        /* \"contracts/LotteryToken.sol\":22557:22564  tAmount */\n      dup8\n        /* \"contracts/LotteryToken.sol\":22537:22556  _tOwned[sender].sub */\n      tag_442\n        /* \"contracts/LotteryToken.sol\":22537:22565  _tOwned[sender].sub(tAmount) */\n      jump\t// in\n    tag_690:\n      sub(shl(0xa0, 0x01), 0x01)\n        /* \"contracts/LotteryToken.sol\":22519:22534  _tOwned[sender] */\n      dup10\n      and\n      0x00\n      swap1\n      dup2\n      mstore\n        /* \"contracts/LotteryToken.sol\":22519:22526  _tOwned */\n      0x02\n        /* \"contracts/LotteryToken.sol\":22519:22534  _tOwned[sender] */\n      0x20\n      swap1\n      dup2\n      mstore\n      0x40\n      dup1\n      dup4\n      keccak256\n        /* \"contracts/LotteryToken.sol\":22519:22565  _tOwned[sender] = _tOwned[sender].sub(tAmount) */\n      swap4\n      swap1\n      swap4\n      sstore\n        /* \"contracts/LotteryToken.sol\":22594:22601  _rOwned */\n      0x01\n        /* \"contracts/LotteryToken.sol\":22594:22609  _rOwned[sender] */\n      swap1\n      mstore\n      keccak256\n      sload\n        /* \"contracts/LotteryToken.sol\":22594:22622  _rOwned[sender].sub(rAmount) */\n      tag_671\n      swap1\n        /* \"contracts/LotteryToken.sol\":22614:22621  rAmount */\n      dup7\n        /* \"contracts/LotteryToken.sol\":22594:22613  _rOwned[sender].sub */\n      tag_442\n        /* \"contracts/LotteryToken.sol\":22594:22622  _rOwned[sender].sub(rAmount) */\n      jump\t// in\n        /* \"contracts/LotteryToken.sol\":23558:23781  function _getTValues(uint256 tAmount) private pure returns (uint256, uint256) {\r... */\n    tag_606:\n        /* \"contracts/LotteryToken.sol\":23618:23625  uint256 */\n      0x00\n      dup1\n      dup1\n        /* \"contracts/LotteryToken.sol\":23662:23678  tAmount.div(100) */\n      tag_697\n        /* \"contracts/LotteryToken.sol\":23662:23669  tAmount */\n      dup5\n        /* \"contracts/LotteryToken.sol\":23674:23677  100 */\n      0x64\n        /* \"contracts/LotteryToken.sol\":23662:23673  tAmount.div */\n      tag_220\n        /* \"contracts/LotteryToken.sol\":23662:23678  tAmount.div(100) */\n      jump\t// in\n    tag_697:\n        /* \"contracts/LotteryToken.sol\":23647:23678  uint256 tFee = tAmount.div(100) */\n      swap1\n      pop\n        /* \"contracts/LotteryToken.sol\":23689:23712  uint256 tTransferAmount */\n      0x00\n        /* \"contracts/LotteryToken.sol\":23715:23732  tAmount.sub(tFee) */\n      tag_698\n        /* \"contracts/LotteryToken.sol\":23715:23722  tAmount */\n      dup6\n        /* \"contracts/LotteryToken.sol\":23647:23678  uint256 tFee = tAmount.div(100) */\n      dup4\n        /* \"contracts/LotteryToken.sol\":23715:23726  tAmount.sub */\n      tag_442\n        /* \"contracts/LotteryToken.sol\":23715:23732  tAmount.sub(tFee) */\n      jump\t// in\n    tag_698:\n        /* \"contracts/LotteryToken.sol\":23689:23732  uint256 tTransferAmount = tAmount.sub(tFee) */\n      swap6\n        /* \"contracts/LotteryToken.sol\":23768:23772  tFee */\n      swap2\n      swap5\n      pop\n        /* \"contracts/LotteryToken.sol\":23558:23781  function _getTValues(uint256 tAmount) private pure returns (uint256, uint256) {\r... */\n      swap1\n      swap3\n      pop\n      pop\n      pop\n      jump\t// out\n        /* \"contracts/LotteryToken.sol\":23789:24123  function _getRValues(uint256 tAmount, uint256 tFee, uint256 currentRate) private pure returns (uint256, uint256, uint256) {\r... */\n    tag_609:\n        /* \"contracts/LotteryToken.sol\":23884:23891  uint256 */\n      0x00\n      dup1\n      dup1\n      dup1\n        /* \"contracts/LotteryToken.sol\":23940:23964  tAmount.mul(currentRate) */\n      tag_700\n        /* \"contracts/LotteryToken.sol\":23940:23947  tAmount */\n      dup8\n        /* \"contracts/LotteryToken.sol\":23952:23963  currentRate */\n      dup7\n        /* \"contracts/LotteryToken.sol\":23940:23951  tAmount.mul */\n      tag_324\n        /* \"contracts/LotteryToken.sol\":23940:23964  tAmount.mul(currentRate) */\n      jump\t// in\n    tag_700:\n        /* \"contracts/LotteryToken.sol\":23922:23964  uint256 rAmount = tAmount.mul(currentRate) */\n      swap1\n      pop\n        /* \"contracts/LotteryToken.sol\":23975:23987  uint256 rFee */\n      0x00\n        /* \"contracts/LotteryToken.sol\":23990:24011  tFee.mul(currentRate) */\n      tag_701\n        /* \"contracts/LotteryToken.sol\":23990:23994  tFee */\n      dup8\n        /* \"contracts/LotteryToken.sol\":23999:24010  currentRate */\n      dup8\n        /* \"contracts/LotteryToken.sol\":23990:23998  tFee.mul */\n      tag_324\n        /* \"contracts/LotteryToken.sol\":23990:24011  tFee.mul(currentRate) */\n      jump\t// in\n    tag_701:\n        /* \"contracts/LotteryToken.sol\":23975:24011  uint256 rFee = tFee.mul(currentRate) */\n      swap1\n      pop\n        /* \"contracts/LotteryToken.sol\":24022:24045  uint256 rTransferAmount */\n      0x00\n        /* \"contracts/LotteryToken.sol\":24048:24065  rAmount.sub(rFee) */\n      tag_702\n        /* \"contracts/LotteryToken.sol\":24048:24055  rAmount */\n      dup4\n        /* \"contracts/LotteryToken.sol\":23975:24011  uint256 rFee = tFee.mul(currentRate) */\n      dup4\n        /* \"contracts/LotteryToken.sol\":24048:24059  rAmount.sub */\n      tag_442\n        /* \"contracts/LotteryToken.sol\":24048:24065  rAmount.sub(rFee) */\n      jump\t// in\n    tag_702:\n        /* \"contracts/LotteryToken.sol\":24084:24091  rAmount */\n      swap3\n      swap10\n      swap3\n      swap9\n      pop\n        /* \"contracts/LotteryToken.sol\":24110:24114  rFee */\n      swap1\n      swap7\n      pop\n        /* \"contracts/LotteryToken.sol\":23789:24123  function _getRValues(uint256 tAmount, uint256 tFee, uint256 currentRate) private pure returns (uint256, uint256, uint256) {\r... */\n      swap1\n      swap5\n      pop\n      pop\n      pop\n      pop\n      pop\n      jump\t// out\n        /* \"contracts/LotteryToken.sol\":22984:23131  function _reflectFee(uint256 rFee, uint256 tFee) private {\r... */\n    tag_667:\n        /* \"contracts/LotteryToken.sol\":23062:23069  _rTotal */\n      sload(0x09)\n        /* \"contracts/LotteryToken.sol\":23062:23079  _rTotal.sub(rFee) */\n      tag_705\n      swap1\n        /* \"contracts/LotteryToken.sol\":23074:23078  rFee */\n      dup4\n        /* \"contracts/LotteryToken.sol\":23062:23073  _rTotal.sub */\n      tag_442\n        /* \"contracts/LotteryToken.sol\":23062:23079  _rTotal.sub(rFee) */\n      jump\t// in\n    tag_705:\n        /* \"contracts/LotteryToken.sol\":23052:23059  _rTotal */\n      0x09\n        /* \"contracts/LotteryToken.sol\":23052:23079  _rTotal = _rTotal.sub(rFee) */\n      sstore\n        /* \"contracts/LotteryToken.sol\":23103:23113  _tFeeTotal */\n      sload(0x0a)\n        /* \"contracts/LotteryToken.sol\":23103:23123  _tFeeTotal.add(tFee) */\n      tag_706\n      swap1\n        /* \"contracts/LotteryToken.sol\":23118:23122  tFee */\n      dup3\n        /* \"contracts/LotteryToken.sol\":23103:23117  _tFeeTotal.add */\n      tag_276\n        /* \"contracts/LotteryToken.sol\":23103:23123  _tFeeTotal.add(tFee) */\n      jump\t// in\n    tag_706:\n        /* \"contracts/LotteryToken.sol\":23090:23100  _tFeeTotal */\n      0x0a\n        /* \"contracts/LotteryToken.sol\":23090:23123  _tFeeTotal = _tFeeTotal.add(tFee) */\n      sstore\n      pop\n      pop\n        /* \"contracts/LotteryToken.sol\":22984:23131  function _reflectFee(uint256 rFee, uint256 tFee) private {\r... */\n      jump\t// out\n        /* \"#utility.yul\":14:187   */\n    tag_708:\n        /* \"#utility.yul\":82:102   */\n      dup1\n      calldataload\n      sub(shl(0xa0, 0x01), 0x01)\n        /* \"#utility.yul\":131:162   */\n      dup2\n      and\n        /* \"#utility.yul\":121:163   */\n      dup2\n      eq\n        /* \"#utility.yul\":111:181   */\n      tag_710\n      jumpi\n        /* \"#utility.yul\":177:178   */\n      0x00\n        /* \"#utility.yul\":174:175   */\n      dup1\n        /* \"#utility.yul\":167:179   */\n      revert\n        /* \"#utility.yul\":111:181   */\n    tag_710:\n        /* \"#utility.yul\":14:187   */\n      swap2\n      swap1\n      pop\n      jump\t// out\n        /* \"#utility.yul\":192:871   */\n    tag_711:\n        /* \"#utility.yul\":246:251   */\n      0x00\n        /* \"#utility.yul\":299:302   */\n      dup3\n        /* \"#utility.yul\":292:296   */\n      0x1f\n        /* \"#utility.yul\":284:290   */\n      dup4\n        /* \"#utility.yul\":280:297   */\n      add\n        /* \"#utility.yul\":276:303   */\n      slt\n        /* \"#utility.yul\":266:321   */\n      tag_713\n      jumpi\n        /* \"#utility.yul\":317:318   */\n      0x00\n        /* \"#utility.yul\":314:315   */\n      dup1\n        /* \"#utility.yul\":307:319   */\n      revert\n        /* \"#utility.yul\":266:321   */\n    tag_713:\n        /* \"#utility.yul\":353:359   */\n      dup2\n        /* \"#utility.yul\":340:360   */\n      calldataload\n        /* \"#utility.yul\":379:383   */\n      0x20\n        /* \"#utility.yul\":403:463   */\n      tag_714\n        /* \"#utility.yul\":419:462   */\n      tag_715\n        /* \"#utility.yul\":459:461   */\n      dup4\n        /* \"#utility.yul\":419:462   */\n      tag_716\n      jump\t// in\n    tag_715:\n        /* \"#utility.yul\":403:463   */\n      tag_717\n      jump\t// in\n    tag_714:\n        /* \"#utility.yul\":485:488   */\n      dup1\n        /* \"#utility.yul\":509:511   */\n      dup4\n        /* \"#utility.yul\":504:507   */\n      dup3\n        /* \"#utility.yul\":497:512   */\n      mstore\n        /* \"#utility.yul\":537:539   */\n      dup3\n        /* \"#utility.yul\":532:535   */\n      dup3\n        /* \"#utility.yul\":528:540   */\n      add\n        /* \"#utility.yul\":521:540   */\n      swap2\n      pop\n        /* \"#utility.yul\":572:574   */\n      dup3\n        /* \"#utility.yul\":564:570   */\n      dup7\n        /* \"#utility.yul\":560:575   */\n      add\n        /* \"#utility.yul\":624:627   */\n      dup8\n        /* \"#utility.yul\":619:621   */\n      dup5\n        /* \"#utility.yul\":613:615   */\n      dup7\n        /* \"#utility.yul\":610:611   */\n      0x05\n        /* \"#utility.yul\":606:616   */\n      shl\n        /* \"#utility.yul\":598:604   */\n      dup10\n        /* \"#utility.yul\":594:617   */\n      add\n        /* \"#utility.yul\":590:622   */\n      add\n        /* \"#utility.yul\":587:628   */\n      gt\n        /* \"#utility.yul\":584:645   */\n      iszero\n      tag_718\n      jumpi\n        /* \"#utility.yul\":641:642   */\n      0x00\n        /* \"#utility.yul\":638:639   */\n      dup1\n        /* \"#utility.yul\":631:643   */\n      revert\n        /* \"#utility.yul\":584:645   */\n    tag_718:\n        /* \"#utility.yul\":663:664   */\n      0x00\n        /* \"#utility.yul\":673:842   */\n    tag_719:\n        /* \"#utility.yul\":687:689   */\n      dup6\n        /* \"#utility.yul\":684:685   */\n      dup2\n        /* \"#utility.yul\":681:690   */\n      lt\n        /* \"#utility.yul\":673:842   */\n      iszero\n      tag_721\n      jumpi\n        /* \"#utility.yul\":744:767   */\n      tag_722\n        /* \"#utility.yul\":763:766   */\n      dup3\n        /* \"#utility.yul\":744:767   */\n      tag_708\n      jump\t// in\n    tag_722:\n        /* \"#utility.yul\":732:768   */\n      dup5\n      mstore\n        /* \"#utility.yul\":788:800   */\n      swap3\n      dup5\n      add\n      swap3\n        /* \"#utility.yul\":820:832   */\n      swap1\n      dup5\n      add\n      swap1\n        /* \"#utility.yul\":705:706   */\n      0x01\n        /* \"#utility.yul\":698:707   */\n      add\n        /* \"#utility.yul\":673:842   */\n      jump(tag_719)\n    tag_721:\n      pop\n        /* \"#utility.yul\":860:865   */\n      swap1\n      swap8\n        /* \"#utility.yul\":192:871   */\n      swap7\n      pop\n      pop\n      pop\n      pop\n      pop\n      pop\n      pop\n      jump\t// out\n        /* \"#utility.yul\":876:1036   */\n    tag_723:\n        /* \"#utility.yul\":941:961   */\n      dup1\n      calldataload\n        /* \"#utility.yul\":997:1010   */\n      dup1\n      iszero\n        /* \"#utility.yul\":990:1011   */\n      iszero\n        /* \"#utility.yul\":980:1012   */\n      dup2\n      eq\n        /* \"#utility.yul\":970:1030   */\n      tag_710\n      jumpi\n        /* \"#utility.yul\":1026:1027   */\n      0x00\n        /* \"#utility.yul\":1023:1024   */\n      dup1\n        /* \"#utility.yul\":1016:1028   */\n      revert\n        /* \"#utility.yul\":1041:1227   */\n    tag_106:\n        /* \"#utility.yul\":1100:1106   */\n      0x00\n        /* \"#utility.yul\":1153:1155   */\n      0x20\n        /* \"#utility.yul\":1141:1150   */\n      dup3\n        /* \"#utility.yul\":1132:1139   */\n      dup5\n        /* \"#utility.yul\":1128:1151   */\n      sub\n        /* \"#utility.yul\":1124:1156   */\n      slt\n        /* \"#utility.yul\":1121:1173   */\n      iszero\n      tag_727\n      jumpi\n        /* \"#utility.yul\":1169:1170   */\n      0x00\n        /* \"#utility.yul\":1166:1167   */\n      dup1\n        /* \"#utility.yul\":1159:1171   */\n      revert\n        /* \"#utility.yul\":1121:1173   */\n    tag_727:\n        /* \"#utility.yul\":1192:1221   */\n      tag_249\n        /* \"#utility.yul\":1211:1220   */\n      dup3\n        /* \"#utility.yul\":1192:1221   */\n      tag_708\n      jump\t// in\n        /* \"#utility.yul\":1232:1492   */\n    tag_190:\n        /* \"#utility.yul\":1300:1306   */\n      0x00\n        /* \"#utility.yul\":1308:1314   */\n      dup1\n        /* \"#utility.yul\":1361:1363   */\n      0x40\n        /* \"#utility.yul\":1349:1358   */\n      dup4\n        /* \"#utility.yul\":1340:1347   */\n      dup6\n        /* \"#utility.yul\":1336:1359   */\n      sub\n        /* \"#utility.yul\":1332:1364   */\n      slt\n        /* \"#utility.yul\":1329:1381   */\n      iszero\n      tag_730\n      jumpi\n        /* \"#utility.yul\":1377:1378   */\n      0x00\n        /* \"#utility.yul\":1374:1375   */\n      dup1\n        /* \"#utility.yul\":1367:1379   */\n      revert\n        /* \"#utility.yul\":1329:1381   */\n    tag_730:\n        /* \"#utility.yul\":1400:1429   */\n      tag_731\n        /* \"#utility.yul\":1419:1428   */\n      dup4\n        /* \"#utility.yul\":1400:1429   */\n      tag_708\n      jump\t// in\n    tag_731:\n        /* \"#utility.yul\":1390:1429   */\n      swap2\n      pop\n        /* \"#utility.yul\":1448:1486   */\n      tag_732\n        /* \"#utility.yul\":1482:1484   */\n      0x20\n        /* \"#utility.yul\":1471:1480   */\n      dup5\n        /* \"#utility.yul\":1467:1485   */\n      add\n        /* \"#utility.yul\":1448:1486   */\n      tag_708\n      jump\t// in\n    tag_732:\n        /* \"#utility.yul\":1438:1486   */\n      swap1\n      pop\n        /* \"#utility.yul\":1232:1492   */\n      swap3\n      pop\n      swap3\n      swap1\n      pop\n      jump\t// out\n        /* \"#utility.yul\":1497:1825   */\n    tag_79:\n        /* \"#utility.yul\":1574:1580   */\n      0x00\n        /* \"#utility.yul\":1582:1588   */\n      dup1\n        /* \"#utility.yul\":1590:1596   */\n      0x00\n        /* \"#utility.yul\":1643:1645   */\n      0x60\n        /* \"#utility.yul\":1631:1640   */\n      dup5\n        /* \"#utility.yul\":1622:1629   */\n      dup7\n        /* \"#utility.yul\":1618:1641   */\n      sub\n        /* \"#utility.yul\":1614:1646   */\n      slt\n        /* \"#utility.yul\":1611:1663   */\n      iszero\n      tag_734\n      jumpi\n        /* \"#utility.yul\":1659:1660   */\n      0x00\n        /* \"#utility.yul\":1656:1657   */\n      dup1\n        /* \"#utility.yul\":1649:1661   */\n      revert\n        /* \"#utility.yul\":1611:1663   */\n    tag_734:\n        /* \"#utility.yul\":1682:1711   */\n      tag_735\n        /* \"#utility.yul\":1701:1710   */\n      dup5\n        /* \"#utility.yul\":1682:1711   */\n      tag_708\n      jump\t// in\n    tag_735:\n        /* \"#utility.yul\":1672:1711   */\n      swap3\n      pop\n        /* \"#utility.yul\":1730:1768   */\n      tag_736\n        /* \"#utility.yul\":1764:1766   */\n      0x20\n        /* \"#utility.yul\":1753:1762   */\n      dup6\n        /* \"#utility.yul\":1749:1767   */\n      add\n        /* \"#utility.yul\":1730:1768   */\n      tag_708\n      jump\t// in\n    tag_736:\n        /* \"#utility.yul\":1720:1768   */\n      swap2\n      pop\n        /* \"#utility.yul\":1815:1817   */\n      0x40\n        /* \"#utility.yul\":1804:1813   */\n      dup5\n        /* \"#utility.yul\":1800:1818   */\n      add\n        /* \"#utility.yul\":1787:1819   */\n      calldataload\n        /* \"#utility.yul\":1777:1819   */\n      swap1\n      pop\n        /* \"#utility.yul\":1497:1825   */\n      swap3\n      pop\n      swap3\n      pop\n      swap3\n      jump\t// out\n        /* \"#utility.yul\":1830:2084   */\n    tag_62:\n        /* \"#utility.yul\":1898:1904   */\n      0x00\n        /* \"#utility.yul\":1906:1912   */\n      dup1\n        /* \"#utility.yul\":1959:1961   */\n      0x40\n        /* \"#utility.yul\":1947:1956   */\n      dup4\n        /* \"#utility.yul\":1938:1945   */\n      dup6\n        /* \"#utility.yul\":1934:1957   */\n      sub\n        /* \"#utility.yul\":1930:1962   */\n      slt\n        /* \"#utility.yul\":1927:1979   */\n      iszero\n      tag_738\n      jumpi\n        /* \"#utility.yul\":1975:1976   */\n      0x00\n        /* \"#utility.yul\":1972:1973   */\n      dup1\n        /* \"#utility.yul\":1965:1977   */\n      revert\n        /* \"#utility.yul\":1927:1979   */\n    tag_738:\n        /* \"#utility.yul\":1998:2027   */\n      tag_739\n        /* \"#utility.yul\":2017:2026   */\n      dup4\n        /* \"#utility.yul\":1998:2027   */\n      tag_708\n      jump\t// in\n    tag_739:\n        /* \"#utility.yul\":1988:2027   */\n      swap5\n        /* \"#utility.yul\":2074:2076   */\n      0x20\n        /* \"#utility.yul\":2059:2077   */\n      swap4\n      swap1\n      swap4\n      add\n        /* \"#utility.yul\":2046:2078   */\n      calldataload\n      swap4\n      pop\n      pop\n      pop\n        /* \"#utility.yul\":1830:2084   */\n      jump\t// out\n        /* \"#utility.yul\":2089:3238   */\n    tag_95:\n        /* \"#utility.yul\":2207:2213   */\n      0x00\n        /* \"#utility.yul\":2215:2221   */\n      dup1\n        /* \"#utility.yul\":2268:2270   */\n      0x40\n        /* \"#utility.yul\":2256:2265   */\n      dup4\n        /* \"#utility.yul\":2247:2254   */\n      dup6\n        /* \"#utility.yul\":2243:2266   */\n      sub\n        /* \"#utility.yul\":2239:2271   */\n      slt\n        /* \"#utility.yul\":2236:2288   */\n      iszero\n      tag_741\n      jumpi\n        /* \"#utility.yul\":2284:2285   */\n      0x00\n        /* \"#utility.yul\":2281:2282   */\n      dup1\n        /* \"#utility.yul\":2274:2286   */\n      revert\n        /* \"#utility.yul\":2236:2288   */\n    tag_741:\n        /* \"#utility.yul\":2324:2333   */\n      dup3\n        /* \"#utility.yul\":2311:2334   */\n      calldataload\n        /* \"#utility.yul\":2353:2371   */\n      0xffffffffffffffff\n        /* \"#utility.yul\":2394:2396   */\n      dup1\n        /* \"#utility.yul\":2386:2392   */\n      dup3\n        /* \"#utility.yul\":2383:2397   */\n      gt\n        /* \"#utility.yul\":2380:2414   */\n      iszero\n      tag_742\n      jumpi\n        /* \"#utility.yul\":2410:2411   */\n      0x00\n        /* \"#utility.yul\":2407:2408   */\n      dup1\n        /* \"#utility.yul\":2400:2412   */\n      revert\n        /* \"#utility.yul\":2380:2414   */\n    tag_742:\n        /* \"#utility.yul\":2433:2494   */\n      tag_743\n        /* \"#utility.yul\":2486:2493   */\n      dup7\n        /* \"#utility.yul\":2477:2483   */\n      dup4\n        /* \"#utility.yul\":2466:2475   */\n      dup8\n        /* \"#utility.yul\":2462:2484   */\n      add\n        /* \"#utility.yul\":2433:2494   */\n      tag_711\n      jump\t// in\n    tag_743:\n        /* \"#utility.yul\":2423:2494   */\n      swap4\n      pop\n        /* \"#utility.yul\":2513:2515   */\n      0x20\n        /* \"#utility.yul\":2503:2515   */\n      swap2\n      pop\n        /* \"#utility.yul\":2568:2570   */\n      dup2\n        /* \"#utility.yul\":2557:2566   */\n      dup6\n        /* \"#utility.yul\":2553:2571   */\n      add\n        /* \"#utility.yul\":2540:2572   */\n      calldataload\n        /* \"#utility.yul\":2597:2599   */\n      dup2\n        /* \"#utility.yul\":2587:2595   */\n      dup2\n        /* \"#utility.yul\":2584:2600   */\n      gt\n        /* \"#utility.yul\":2581:2617   */\n      iszero\n      tag_744\n      jumpi\n        /* \"#utility.yul\":2613:2614   */\n      0x00\n        /* \"#utility.yul\":2610:2611   */\n      dup1\n        /* \"#utility.yul\":2603:2615   */\n      revert\n        /* \"#utility.yul\":2581:2617   */\n    tag_744:\n        /* \"#utility.yul\":2636:2660   */\n      dup6\n      add\n      swap1\n      pop\n        /* \"#utility.yul\":2691:2695   */\n      0x1f\n        /* \"#utility.yul\":2683:2696   */\n      dup2\n      add\n        /* \"#utility.yul\":2679:2706   */\n      dup7\n      sgt\n        /* \"#utility.yul\":2669:2724   */\n      tag_745\n      jumpi\n        /* \"#utility.yul\":2720:2721   */\n      0x00\n        /* \"#utility.yul\":2717:2718   */\n      dup1\n        /* \"#utility.yul\":2710:2722   */\n      revert\n        /* \"#utility.yul\":2669:2724   */\n    tag_745:\n        /* \"#utility.yul\":2756:2758   */\n      dup1\n        /* \"#utility.yul\":2743:2759   */\n      calldataload\n        /* \"#utility.yul\":2779:2839   */\n      tag_746\n        /* \"#utility.yul\":2795:2838   */\n      tag_715\n        /* \"#utility.yul\":2835:2837   */\n      dup3\n        /* \"#utility.yul\":2795:2838   */\n      tag_716\n      jump\t// in\n        /* \"#utility.yul\":2779:2839   */\n    tag_746:\n        /* \"#utility.yul\":2861:2864   */\n      dup1\n        /* \"#utility.yul\":2885:2887   */\n      dup3\n        /* \"#utility.yul\":2880:2883   */\n      dup3\n        /* \"#utility.yul\":2873:2888   */\n      mstore\n        /* \"#utility.yul\":2913:2915   */\n      dup5\n        /* \"#utility.yul\":2908:2911   */\n      dup3\n        /* \"#utility.yul\":2904:2916   */\n      add\n        /* \"#utility.yul\":2897:2916   */\n      swap2\n      pop\n        /* \"#utility.yul\":2944:2946   */\n      dup5\n        /* \"#utility.yul\":2940:2942   */\n      dup5\n        /* \"#utility.yul\":2936:2947   */\n      add\n        /* \"#utility.yul\":2992:2999   */\n      dup10\n        /* \"#utility.yul\":2987:2989   */\n      dup7\n        /* \"#utility.yul\":2981:2983   */\n      dup6\n        /* \"#utility.yul\":2978:2979   */\n      0x05\n        /* \"#utility.yul\":2974:2984   */\n      shl\n        /* \"#utility.yul\":2970:2972   */\n      dup8\n        /* \"#utility.yul\":2966:2985   */\n      add\n        /* \"#utility.yul\":2962:2990   */\n      add\n        /* \"#utility.yul\":2959:3000   */\n      gt\n        /* \"#utility.yul\":2956:3017   */\n      iszero\n      tag_748\n      jumpi\n        /* \"#utility.yul\":3013:3014   */\n      0x00\n        /* \"#utility.yul\":3010:3011   */\n      dup1\n        /* \"#utility.yul\":3003:3015   */\n      revert\n        /* \"#utility.yul\":2956:3017   */\n    tag_748:\n        /* \"#utility.yul\":3035:3036   */\n      0x00\n        /* \"#utility.yul\":3026:3036   */\n      swap5\n      pop\n        /* \"#utility.yul\":3045:3208   */\n    tag_749:\n        /* \"#utility.yul\":3059:3061   */\n      dup4\n        /* \"#utility.yul\":3056:3057   */\n      dup6\n        /* \"#utility.yul\":3053:3062   */\n      lt\n        /* \"#utility.yul\":3045:3208   */\n      iszero\n      tag_751\n      jumpi\n        /* \"#utility.yul\":3116:3133   */\n      dup1\n      calldataload\n        /* \"#utility.yul\":3104:3134   */\n      dup4\n      mstore\n        /* \"#utility.yul\":3077:3078   */\n      0x01\n        /* \"#utility.yul\":3070:3079   */\n      swap5\n      swap1\n      swap5\n      add\n      swap4\n        /* \"#utility.yul\":3154:3166   */\n      swap2\n      dup6\n      add\n      swap2\n        /* \"#utility.yul\":3186:3198   */\n      dup6\n      add\n        /* \"#utility.yul\":3045:3208   */\n      jump(tag_749)\n    tag_751:\n        /* \"#utility.yul\":3049:3052   */\n      pop\n        /* \"#utility.yul\":3227:3232   */\n      dup1\n        /* \"#utility.yul\":3217:3232   */\n      swap6\n      pop\n      pop\n      pop\n      pop\n      pop\n      pop\n        /* \"#utility.yul\":2089:3238   */\n      swap3\n      pop\n      swap3\n      swap1\n      pop\n      jump\t// out\n        /* \"#utility.yul\":3243:3659   */\n    tag_153:\n        /* \"#utility.yul\":3336:3342   */\n      0x00\n        /* \"#utility.yul\":3344:3350   */\n      dup1\n        /* \"#utility.yul\":3397:3399   */\n      0x40\n        /* \"#utility.yul\":3385:3394   */\n      dup4\n        /* \"#utility.yul\":3376:3383   */\n      dup6\n        /* \"#utility.yul\":3372:3395   */\n      sub\n        /* \"#utility.yul\":3368:3400   */\n      slt\n        /* \"#utility.yul\":3365:3417   */\n      iszero\n      tag_753\n      jumpi\n        /* \"#utility.yul\":3413:3414   */\n      0x00\n        /* \"#utility.yul\":3410:3411   */\n      dup1\n        /* \"#utility.yul\":3403:3415   */\n      revert\n        /* \"#utility.yul\":3365:3417   */\n    tag_753:\n        /* \"#utility.yul\":3453:3462   */\n      dup3\n        /* \"#utility.yul\":3440:3463   */\n      calldataload\n        /* \"#utility.yul\":3486:3504   */\n      0xffffffffffffffff\n        /* \"#utility.yul\":3478:3484   */\n      dup2\n        /* \"#utility.yul\":3475:3505   */\n      gt\n        /* \"#utility.yul\":3472:3522   */\n      iszero\n      tag_754\n      jumpi\n        /* \"#utility.yul\":3518:3519   */\n      0x00\n        /* \"#utility.yul\":3515:3516   */\n      dup1\n        /* \"#utility.yul\":3508:3520   */\n      revert\n        /* \"#utility.yul\":3472:3522   */\n    tag_754:\n        /* \"#utility.yul\":3541:3602   */\n      tag_755\n        /* \"#utility.yul\":3594:3601   */\n      dup6\n        /* \"#utility.yul\":3585:3591   */\n      dup3\n        /* \"#utility.yul\":3574:3583   */\n      dup7\n        /* \"#utility.yul\":3570:3592   */\n      add\n        /* \"#utility.yul\":3541:3602   */\n      tag_711\n      jump\t// in\n    tag_755:\n        /* \"#utility.yul\":3531:3602   */\n      swap6\n        /* \"#utility.yul\":3649:3651   */\n      0x20\n        /* \"#utility.yul\":3634:3652   */\n      swap5\n      swap1\n      swap5\n      add\n        /* \"#utility.yul\":3621:3653   */\n      calldataload\n      swap5\n      pop\n      pop\n      pop\n      pop\n        /* \"#utility.yul\":3243:3659   */\n      jump\t// out\n        /* \"#utility.yul\":3664:3844   */\n    tag_129:\n        /* \"#utility.yul\":3720:3726   */\n      0x00\n        /* \"#utility.yul\":3773:3775   */\n      0x20\n        /* \"#utility.yul\":3761:3770   */\n      dup3\n        /* \"#utility.yul\":3752:3759   */\n      dup5\n        /* \"#utility.yul\":3748:3771   */\n      sub\n        /* \"#utility.yul\":3744:3776   */\n      slt\n        /* \"#utility.yul\":3741:3793   */\n      iszero\n      tag_757\n      jumpi\n        /* \"#utility.yul\":3789:3790   */\n      0x00\n        /* \"#utility.yul\":3786:3787   */\n      dup1\n        /* \"#utility.yul\":3779:3791   */\n      revert\n        /* \"#utility.yul\":3741:3793   */\n    tag_757:\n        /* \"#utility.yul\":3812:3838   */\n      tag_249\n        /* \"#utility.yul\":3828:3837   */\n      dup3\n        /* \"#utility.yul\":3812:3838   */\n      tag_723\n      jump\t// in\n        /* \"#utility.yul\":3849:4029   */\n    tag_90:\n        /* \"#utility.yul\":3908:3914   */\n      0x00\n        /* \"#utility.yul\":3961:3963   */\n      0x20\n        /* \"#utility.yul\":3949:3958   */\n      dup3\n        /* \"#utility.yul\":3940:3947   */\n      dup5\n        /* \"#utility.yul\":3936:3959   */\n      sub\n        /* \"#utility.yul\":3932:3964   */\n      slt\n        /* \"#utility.yul\":3929:3981   */\n      iszero\n      tag_760\n      jumpi\n        /* \"#utility.yul\":3977:3978   */\n      0x00\n        /* \"#utility.yul\":3974:3975   */\n      dup1\n        /* \"#utility.yul\":3967:3979   */\n      revert\n        /* \"#utility.yul\":3929:3981   */\n    tag_760:\n      pop\n        /* \"#utility.yul\":4000:4023   */\n      calldataload\n      swap2\n        /* \"#utility.yul\":3849:4029   */\n      swap1\n      pop\n      jump\t// out\n        /* \"#utility.yul\":4034:4282   */\n    tag_124:\n        /* \"#utility.yul\":4099:4105   */\n      0x00\n        /* \"#utility.yul\":4107:4113   */\n      dup1\n        /* \"#utility.yul\":4160:4162   */\n      0x40\n        /* \"#utility.yul\":4148:4157   */\n      dup4\n        /* \"#utility.yul\":4139:4146   */\n      dup6\n        /* \"#utility.yul\":4135:4158   */\n      sub\n        /* \"#utility.yul\":4131:4163   */\n      slt\n        /* \"#utility.yul\":4128:4180   */\n      iszero\n      tag_762\n      jumpi\n        /* \"#utility.yul\":4176:4177   */\n      0x00\n        /* \"#utility.yul\":4173:4174   */\n      dup1\n        /* \"#utility.yul\":4166:4178   */\n      revert\n        /* \"#utility.yul\":4128:4180   */\n    tag_762:\n        /* \"#utility.yul\":4212:4221   */\n      dup3\n        /* \"#utility.yul\":4199:4222   */\n      calldataload\n        /* \"#utility.yul\":4189:4222   */\n      swap2\n      pop\n        /* \"#utility.yul\":4241:4276   */\n      tag_732\n        /* \"#utility.yul\":4272:4274   */\n      0x20\n        /* \"#utility.yul\":4261:4270   */\n      dup5\n        /* \"#utility.yul\":4257:4275   */\n      add\n        /* \"#utility.yul\":4241:4276   */\n      tag_723\n      jump\t// in\n        /* \"#utility.yul\":4687:5284   */\n    tag_59:\n        /* \"#utility.yul\":4799:4803   */\n      0x00\n        /* \"#utility.yul\":4828:4830   */\n      0x20\n        /* \"#utility.yul\":4857:4859   */\n      dup1\n        /* \"#utility.yul\":4846:4855   */\n      dup4\n        /* \"#utility.yul\":4839:4860   */\n      mstore\n        /* \"#utility.yul\":4889:4895   */\n      dup4\n        /* \"#utility.yul\":4883:4896   */\n      mload\n        /* \"#utility.yul\":4932:4938   */\n      dup1\n        /* \"#utility.yul\":4927:4929   */\n      dup3\n        /* \"#utility.yul\":4916:4925   */\n      dup6\n        /* \"#utility.yul\":4912:4930   */\n      add\n        /* \"#utility.yul\":4905:4939   */\n      mstore\n        /* \"#utility.yul\":4957:4958   */\n      0x00\n        /* \"#utility.yul\":4967:5107   */\n    tag_767:\n        /* \"#utility.yul\":4981:4987   */\n      dup2\n        /* \"#utility.yul\":4978:4979   */\n      dup2\n        /* \"#utility.yul\":4975:4988   */\n      lt\n        /* \"#utility.yul\":4967:5107   */\n      iszero\n      tag_769\n      jumpi\n        /* \"#utility.yul\":5076:5090   */\n      dup6\n      dup2\n      add\n        /* \"#utility.yul\":5072:5095   */\n      dup4\n      add\n        /* \"#utility.yul\":5066:5096   */\n      mload\n        /* \"#utility.yul\":5042:5059   */\n      dup6\n      dup3\n      add\n        /* \"#utility.yul\":5061:5063   */\n      0x40\n        /* \"#utility.yul\":5038:5064   */\n      add\n        /* \"#utility.yul\":5031:5097   */\n      mstore\n        /* \"#utility.yul\":4996:5006   */\n      dup3\n      add\n        /* \"#utility.yul\":4967:5107   */\n      jump(tag_767)\n    tag_769:\n        /* \"#utility.yul\":5125:5131   */\n      dup2\n        /* \"#utility.yul\":5122:5123   */\n      dup2\n        /* \"#utility.yul\":5119:5132   */\n      gt\n        /* \"#utility.yul\":5116:5207   */\n      iszero\n      tag_770\n      jumpi\n        /* \"#utility.yul\":5195:5196   */\n      0x00\n        /* \"#utility.yul\":5190:5192   */\n      0x40\n        /* \"#utility.yul\":5181:5187   */\n      dup4\n        /* \"#utility.yul\":5170:5179   */\n      dup8\n        /* \"#utility.yul\":5166:5188   */\n      add\n        /* \"#utility.yul\":5162:5193   */\n      add\n        /* \"#utility.yul\":5155:5197   */\n      mstore\n        /* \"#utility.yul\":5116:5207   */\n    tag_770:\n      pop\n        /* \"#utility.yul\":5268:5270   */\n      0x1f\n        /* \"#utility.yul\":5247:5262   */\n      add\n      not(0x1f)\n        /* \"#utility.yul\":5243:5272   */\n      and\n        /* \"#utility.yul\":5228:5273   */\n      swap3\n      swap1\n      swap3\n      add\n        /* \"#utility.yul\":5275:5277   */\n      0x40\n        /* \"#utility.yul\":5224:5278   */\n      add\n      swap4\n        /* \"#utility.yul\":4687:5284   */\n      swap3\n      pop\n      pop\n      pop\n      jump\t// out\n        /* \"#utility.yul\":8318:8658   */\n    tag_511:\n        /* \"#utility.yul\":8520:8522   */\n      0x20\n        /* \"#utility.yul\":8502:8523   */\n      dup1\n      dup3\n      mstore\n        /* \"#utility.yul\":8559:8561   */\n      0x10\n        /* \"#utility.yul\":8539:8557   */\n      swap1\n      dup3\n      add\n        /* \"#utility.yul\":8532:8562   */\n      mstore\n      shl(0x82, 0x14185d5cd8589b194e881c185d5cd959)\n        /* \"#utility.yul\":8593:8595   */\n      0x40\n        /* \"#utility.yul\":8578:8596   */\n      dup3\n      add\n        /* \"#utility.yul\":8571:8617   */\n      mstore\n        /* \"#utility.yul\":8649:8651   */\n      0x60\n        /* \"#utility.yul\":8634:8652   */\n      add\n      swap1\n        /* \"#utility.yul\":8318:8658   */\n      jump\t// out\n        /* \"#utility.yul\":9715:10071   */\n    tag_315:\n        /* \"#utility.yul\":9917:9919   */\n      0x20\n        /* \"#utility.yul\":9899:9920   */\n      dup1\n      dup3\n      mstore\n        /* \"#utility.yul\":9936:9954   */\n      dup2\n      dup2\n      add\n        /* \"#utility.yul\":9929:9959   */\n      mstore\n        /* \"#utility.yul\":9995:10029   */\n      0x4f776e61626c653a2063616c6c6572206973206e6f7420746865206f776e6572\n        /* \"#utility.yul\":9990:9992   */\n      0x40\n        /* \"#utility.yul\":9975:9993   */\n      dup3\n      add\n        /* \"#utility.yul\":9968:10030   */\n      mstore\n        /* \"#utility.yul\":10062:10064   */\n      0x60\n        /* \"#utility.yul\":10047:10065   */\n      add\n      swap1\n        /* \"#utility.yul\":9715:10071   */\n      jump\t// out\n        /* \"#utility.yul\":11245:11582   */\n    tag_254:\n        /* \"#utility.yul\":11447:11449   */\n      0x20\n        /* \"#utility.yul\":11429:11450   */\n      dup1\n      dup3\n      mstore\n        /* \"#utility.yul\":11486:11488   */\n      0x0d\n        /* \"#utility.yul\":11466:11484   */\n      swap1\n      dup3\n      add\n        /* \"#utility.yul\":11459:11489   */\n      mstore\n      shl(0x98, 0x4f6e6c79205472656173757279)\n        /* \"#utility.yul\":11520:11522   */\n      0x40\n        /* \"#utility.yul\":11505:11523   */\n      dup3\n      add\n        /* \"#utility.yul\":11498:11541   */\n      mstore\n        /* \"#utility.yul\":11573:11575   */\n      0x60\n        /* \"#utility.yul\":11558:11576   */\n      add\n      swap1\n        /* \"#utility.yul\":11245:11582   */\n      jump\t// out\n        /* \"#utility.yul\":13918:14193   */\n    tag_717:\n        /* \"#utility.yul\":13989:13991   */\n      0x40\n        /* \"#utility.yul\":13983:13992   */\n      mload\n        /* \"#utility.yul\":14054:14056   */\n      0x1f\n        /* \"#utility.yul\":14035:14048   */\n      dup3\n      add\n      not(0x1f)\n        /* \"#utility.yul\":14031:14058   */\n      and\n        /* \"#utility.yul\":14019:14059   */\n      dup2\n      add\n        /* \"#utility.yul\":14089:14107   */\n      0xffffffffffffffff\n        /* \"#utility.yul\":14074:14108   */\n      dup2\n      gt\n        /* \"#utility.yul\":14110:14132   */\n      dup3\n      dup3\n      lt\n        /* \"#utility.yul\":14071:14133   */\n      or\n        /* \"#utility.yul\":14068:14156   */\n      iszero\n      tag_798\n      jumpi\n        /* \"#utility.yul\":14136:14154   */\n      tag_798\n      tag_799\n      jump\t// in\n    tag_798:\n        /* \"#utility.yul\":14172:14174   */\n      0x40\n        /* \"#utility.yul\":14165:14187   */\n      mstore\n        /* \"#utility.yul\":13918:14193   */\n      swap2\n      swap1\n      pop\n      jump\t// out\n        /* \"#utility.yul\":14198:14381   */\n    tag_716:\n        /* \"#utility.yul\":14258:14262   */\n      0x00\n        /* \"#utility.yul\":14291:14309   */\n      0xffffffffffffffff\n        /* \"#utility.yul\":14283:14289   */\n      dup3\n        /* \"#utility.yul\":14280:14310   */\n      gt\n        /* \"#utility.yul\":14277:14333   */\n      iszero\n      tag_802\n      jumpi\n        /* \"#utility.yul\":14313:14331   */\n      tag_802\n      tag_799\n      jump\t// in\n    tag_802:\n      pop\n        /* \"#utility.yul\":14358:14359   */\n      0x05\n        /* \"#utility.yul\":14354:14368   */\n      shl\n        /* \"#utility.yul\":14370:14374   */\n      0x20\n        /* \"#utility.yul\":14350:14375   */\n      add\n      swap1\n        /* \"#utility.yul\":14198:14381   */\n      jump\t// out\n        /* \"#utility.yul\":14386:14514   */\n    tag_573:\n        /* \"#utility.yul\":14426:14429   */\n      0x00\n        /* \"#utility.yul\":14457:14458   */\n      dup3\n        /* \"#utility.yul\":14453:14459   */\n      not\n        /* \"#utility.yul\":14450:14451   */\n      dup3\n        /* \"#utility.yul\":14447:14460   */\n      gt\n        /* \"#utility.yul\":14444:14483   */\n      iszero\n      tag_805\n      jumpi\n        /* \"#utility.yul\":14463:14481   */\n      tag_805\n      tag_806\n      jump\t// in\n    tag_805:\n      pop\n        /* \"#utility.yul\":14499:14508   */\n      add\n      swap1\n        /* \"#utility.yul\":14386:14514   */\n      jump\t// out\n        /* \"#utility.yul\":14519:14639   */\n    tag_497:\n        /* \"#utility.yul\":14559:14560   */\n      0x00\n        /* \"#utility.yul\":14585:14586   */\n      dup3\n        /* \"#utility.yul\":14575:14610   */\n      tag_809\n      jumpi\n        /* \"#utility.yul\":14590:14608   */\n      tag_809\n      tag_810\n      jump\t// in\n    tag_809:\n      pop\n        /* \"#utility.yul\":14624:14633   */\n      div\n      swap1\n        /* \"#utility.yul\":14519:14639   */\n      jump\t// out\n        /* \"#utility.yul\":14644:14812   */\n    tag_627:\n        /* \"#utility.yul\":14684:14691   */\n      0x00\n        /* \"#utility.yul\":14750:14751   */\n      dup2\n        /* \"#utility.yul\":14746:14747   */\n      0x00\n        /* \"#utility.yul\":14742:14748   */\n      not\n        /* \"#utility.yul\":14738:14752   */\n      div\n        /* \"#utility.yul\":14735:14736   */\n      dup4\n        /* \"#utility.yul\":14732:14753   */\n      gt\n        /* \"#utility.yul\":14727:14728   */\n      dup3\n        /* \"#utility.yul\":14720:14729   */\n      iszero\n        /* \"#utility.yul\":14713:14730   */\n      iszero\n        /* \"#utility.yul\":14709:14754   */\n      and\n        /* \"#utility.yul\":14706:14777   */\n      iszero\n      tag_813\n      jumpi\n        /* \"#utility.yul\":14757:14775   */\n      tag_813\n      tag_806\n      jump\t// in\n    tag_813:\n      pop\n        /* \"#utility.yul\":14797:14806   */\n      mul\n      swap1\n        /* \"#utility.yul\":14644:14812   */\n      jump\t// out\n        /* \"#utility.yul\":14817:14942   */\n    tag_483:\n        /* \"#utility.yul\":14857:14861   */\n      0x00\n        /* \"#utility.yul\":14885:14886   */\n      dup3\n        /* \"#utility.yul\":14882:14883   */\n      dup3\n        /* \"#utility.yul\":14879:14887   */\n      lt\n        /* \"#utility.yul\":14876:14910   */\n      iszero\n      tag_816\n      jumpi\n        /* \"#utility.yul\":14890:14908   */\n      tag_816\n      tag_806\n      jump\t// in\n    tag_816:\n      pop\n        /* \"#utility.yul\":14927:14936   */\n      sub\n      swap1\n        /* \"#utility.yul\":14817:14942   */\n      jump\t// out\n        /* \"#utility.yul\":14947:15327   */\n    tag_223:\n        /* \"#utility.yul\":15026:15027   */\n      0x01\n        /* \"#utility.yul\":15022:15034   */\n      dup2\n      dup2\n      shr\n      swap1\n        /* \"#utility.yul\":15069:15081   */\n      dup3\n      and\n      dup1\n        /* \"#utility.yul\":15090:15151   */\n      tag_818\n      jumpi\n        /* \"#utility.yul\":15144:15148   */\n      0x7f\n        /* \"#utility.yul\":15136:15142   */\n      dup3\n        /* \"#utility.yul\":15132:15149   */\n      and\n        /* \"#utility.yul\":15122:15149   */\n      swap2\n      pop\n        /* \"#utility.yul\":15090:15151   */\n    tag_818:\n        /* \"#utility.yul\":15197:15199   */\n      0x20\n        /* \"#utility.yul\":15189:15195   */\n      dup3\n        /* \"#utility.yul\":15186:15200   */\n      lt\n        /* \"#utility.yul\":15166:15184   */\n      dup2\n        /* \"#utility.yul\":15163:15201   */\n      eq\n        /* \"#utility.yul\":15160:15321   */\n      iszero\n      tag_819\n      jumpi\n        /* \"#utility.yul\":15243:15253   */\n      0x4e487b71\n        /* \"#utility.yul\":15238:15241   */\n      0xe0\n        /* \"#utility.yul\":15234:15254   */\n      shl\n        /* \"#utility.yul\":15231:15232   */\n      0x00\n        /* \"#utility.yul\":15224:15255   */\n      mstore\n        /* \"#utility.yul\":15278:15282   */\n      0x22\n        /* \"#utility.yul\":15275:15276   */\n      0x04\n        /* \"#utility.yul\":15268:15283   */\n      mstore\n        /* \"#utility.yul\":15306:15310   */\n      0x24\n        /* \"#utility.yul\":15303:15304   */\n      0x00\n        /* \"#utility.yul\":15296:15311   */\n      revert\n        /* \"#utility.yul\":15160:15321   */\n    tag_819:\n      pop\n        /* \"#utility.yul\":14947:15327   */\n      swap2\n      swap1\n      pop\n      jump\t// out\n        /* \"#utility.yul\":15332:15467   */\n    tag_268:\n        /* \"#utility.yul\":15371:15374   */\n      0x00\n      not(0x00)\n        /* \"#utility.yul\":15392:15409   */\n      dup3\n      eq\n        /* \"#utility.yul\":15389:15432   */\n      iszero\n      tag_822\n      jumpi\n        /* \"#utility.yul\":15412:15430   */\n      tag_822\n      tag_806\n      jump\t// in\n    tag_822:\n      pop\n        /* \"#utility.yul\":15459:15460   */\n      0x01\n        /* \"#utility.yul\":15448:15461   */\n      add\n      swap1\n        /* \"#utility.yul\":15332:15467   */\n      jump\t// out\n        /* \"#utility.yul\":15472:15584   */\n    tag_576:\n        /* \"#utility.yul\":15504:15505   */\n      0x00\n        /* \"#utility.yul\":15530:15531   */\n      dup3\n        /* \"#utility.yul\":15520:15555   */\n      tag_825\n      jumpi\n        /* \"#utility.yul\":15535:15553   */\n      tag_825\n      tag_810\n      jump\t// in\n    tag_825:\n      pop\n        /* \"#utility.yul\":15569:15578   */\n      mod\n      swap1\n        /* \"#utility.yul\":15472:15584   */\n      jump\t// out\n        /* \"#utility.yul\":15589:15716   */\n    tag_806:\n        /* \"#utility.yul\":15650:15660   */\n      0x4e487b71\n        /* \"#utility.yul\":15645:15648   */\n      0xe0\n        /* \"#utility.yul\":15641:15661   */\n      shl\n        /* \"#utility.yul\":15638:15639   */\n      0x00\n        /* \"#utility.yul\":15631:15662   */\n      mstore\n        /* \"#utility.yul\":15681:15685   */\n      0x11\n        /* \"#utility.yul\":15678:15679   */\n      0x04\n        /* \"#utility.yul\":15671:15686   */\n      mstore\n        /* \"#utility.yul\":15705:15709   */\n      0x24\n        /* \"#utility.yul\":15702:15703   */\n      0x00\n        /* \"#utility.yul\":15695:15710   */\n      revert\n        /* \"#utility.yul\":15721:15848   */\n    tag_810:\n        /* \"#utility.yul\":15782:15792   */\n      0x4e487b71\n        /* \"#utility.yul\":15777:15780   */\n      0xe0\n        /* \"#utility.yul\":15773:15793   */\n      shl\n        /* \"#utility.yul\":15770:15771   */\n      0x00\n        /* \"#utility.yul\":15763:15794   */\n      mstore\n        /* \"#utility.yul\":15813:15817   */\n      0x12\n        /* \"#utility.yul\":15810:15811   */\n      0x04\n        /* \"#utility.yul\":15803:15818   */\n      mstore\n        /* \"#utility.yul\":15837:15841   */\n      0x24\n        /* \"#utility.yul\":15834:15835   */\n      0x00\n        /* \"#utility.yul\":15827:15842   */\n      revert\n        /* \"#utility.yul\":15853:15980   */\n    tag_492:\n        /* \"#utility.yul\":15914:15924   */\n      0x4e487b71\n        /* \"#utility.yul\":15909:15912   */\n      0xe0\n        /* \"#utility.yul\":15905:15925   */\n      shl\n        /* \"#utility.yul\":15902:15903   */\n      0x00\n        /* \"#utility.yul\":15895:15926   */\n      mstore\n        /* \"#utility.yul\":15945:15949   */\n      0x31\n        /* \"#utility.yul\":15942:15943   */\n      0x04\n        /* \"#utility.yul\":15935:15950   */\n      mstore\n        /* \"#utility.yul\":15969:15973   */\n      0x24\n        /* \"#utility.yul\":15966:15967   */\n      0x00\n        /* \"#utility.yul\":15959:15974   */\n      revert\n        /* \"#utility.yul\":15985:16112   */\n    tag_263:\n        /* \"#utility.yul\":16046:16056   */\n      0x4e487b71\n        /* \"#utility.yul\":16041:16044   */\n      0xe0\n        /* \"#utility.yul\":16037:16057   */\n      shl\n        /* \"#utility.yul\":16034:16035   */\n      0x00\n        /* \"#utility.yul\":16027:16058   */\n      mstore\n        /* \"#utility.yul\":16077:16081   */\n      0x32\n        /* \"#utility.yul\":16074:16075   */\n      0x04\n        /* \"#utility.yul\":16067:16082   */\n      mstore\n        /* \"#utility.yul\":16101:16105   */\n      0x24\n        /* \"#utility.yul\":16098:16099   */\n      0x00\n        /* \"#utility.yul\":16091:16106   */\n      revert\n        /* \"#utility.yul\":16117:16244   */\n    tag_799:\n        /* \"#utility.yul\":16178:16188   */\n      0x4e487b71\n        /* \"#utility.yul\":16173:16176   */\n      0xe0\n        /* \"#utility.yul\":16169:16189   */\n      shl\n        /* \"#utility.yul\":16166:16167   */\n      0x00\n        /* \"#utility.yul\":16159:16190   */\n      mstore\n        /* \"#utility.yul\":16209:16213   */\n      0x41\n        /* \"#utility.yul\":16206:16207   */\n      0x04\n        /* \"#utility.yul\":16199:16214   */\n      mstore\n        /* \"#utility.yul\":16233:16237   */\n      0x24\n        /* \"#utility.yul\":16230:16231   */\n      0x00\n        /* \"#utility.yul\":16223:16238   */\n      revert\n    stop\n    data_974d1b4421da69cc60b481194f0dad36a5bb4e23da810da7a7fb30cdba178330 45524332303a207472616e7366657220616d6f756e74206578636565647320616c6c6f77616e6365\n    data_ada389e1fc24a8587c776340efb91b36e675792ab631816100d55df0b5cf3cbc ddf252ad1be2c89b69c2b068fc378daa952ba7f163c4a11628f55a4df523b3ef\n    data_f8b476f7d28209d77d4a4ac1fe36b9f8259aa1bb6bddfa6e89de7e51615cf8a8 45524332303a2064656372656173656420616c6c6f77616e63652062656c6f77207a65726f\n\n    auxdata: 0xa2646970667358221220c6ec91f924ee6402c146555b7a7d541e35b761872ab2753aafc88b4b754ef52c64736f6c63430008070033\n}\n",
				"bytecode": {
					"linkReferences": {},
					"object": "60c0604052600d60808190526c2637ba3a32b93c902a37b5b2b760991b60a09081526200003091600b9190620001da565b50604080518082019091526004808252634c4f544560e01b60209092019182526200005e91600c91620001da565b50600d8054601260ff199091168117909155805461ffff60a01b1916601960a21b1790553480156200008f57600080fd5b506200009b3362000175565b6000805460ff60a01b191681553390620000c169152d02c7e14af6800000606462000297565b600881905590506000620000e960001964e8d4a51000620001c5602090811b620015af17901c565b90506200010169152d02c7e14af68000008262000310565b6200010d9082620002b9565b60098190556001600160a01b0384166000818152600160205260408082209390935591519091907fddf252ad1be2c89b69c2b068fc378daa952ba7f163c4a11628f55a4df523b3ef90620001649086815260200190565b60405180910390a350505062000353565b600080546001600160a01b038381166001600160a01b0319831681178455604051919092169283917f8be0079c531659141344cd1fd0a4f28419497f9722a3daafe3b4186f6b6457e09190a35050565b6000620001d3828462000280565b9392505050565b828054620001e890620002d3565b90600052602060002090601f0160209004810192826200020c576000855562000257565b82601f106200022757805160ff191683800117855562000257565b8280016001018555821562000257579182015b82811115620002575782518255916020019190600101906200023a565b506200026592915062000269565b5090565b5b808211156200026557600081556001016200026a565b6000826200029257620002926200033d565b500490565b6000816000190483118215151615620002b457620002b462000327565b500290565b600082821015620002ce57620002ce62000327565b500390565b600181811c90821680620002e857607f821691505b602082108114156200030a57634e487b7160e01b600052602260045260246000fd5b50919050565b6000826200032257620003226200033d565b500690565b634e487b7160e01b600052601160045260246000fd5b634e487b7160e01b600052601260045260246000fd5b612ab880620003636000396000f3fe608060405234801561001057600080fd5b506004361061028a5760003560e01c806370a082311161015c578063cba0e996116100ce578063f0c3443d11610087578063f0c3443d146105df578063f14faf6f146105f2578063f2cc0c1814610605578063f2fde38b14610618578063f79e73541461062b578063f84354f11461063457600080fd5b8063cba0e99614610538578063d82cc2d714610564578063dd62ed3e14610577578063e8e23594146105b0578063ee188362146105c3578063f0171648146105d657600080fd5b80639941f3ab116101205780639941f3ab146104a85780639bcc6102146104bb578063a457c2d7146104cd578063a9059cbb146104e0578063ae823f3b146104f3578063b65d08b01461051057600080fd5b806370a0823114610461578063715018a6146104745780638da5cb5b1461047c578063945946251461048d57806395d89b41146104a057600080fd5b8063313ce567116102005780634549b039116101b95780634549b03914610406578063493770cc146104195780635a1a1c3d1461042c5780635c975abb146104345780636605bfda14610446578063679aefce1461045957600080fd5b8063313ce5671461037d578063324884a91461039257806339509351146103bc578063400d6844146103cf57806340c10f19146103e057806342966c68146103f357600080fd5b806323b872dd1161025257806323b872dd1461031557806329200995146103285780632b5b68721461033b5780632d8381191461034c57806330d8ce9e1461035f57806330f4a0b01461037457600080fd5b806306fdde031461028f578063095ea7b3146102ad57806313114a9d146102d057806318160ddd146102e257806318da0011146102ea575b600080fd5b610297610647565b6040516102a491906127ab565b60405180910390f35b6102c06102bb366004612623565b6106d9565b60405190151581526020016102a4565b600a545b6040519081526020016102a4565b6008546102d4565b6012546102fd906001600160a01b031681565b6040516001600160a01b0390911681526020016102a4565b6102c06103233660046125e7565b6106f0565b6011546102fd906001600160a01b031681565b6102d469d3c21bcecceda100000081565b6102d461035a36600461276f565b610759565b61037261036d36600461264d565b6107e2565b005b6102d4600f5481565b600d5460405160ff90911681526020016102a4565b6102c06103a0366004612599565b6001600160a01b03166000908152600460205260409020541590565b6102c06103ca366004612623565b610875565b6102d469152d02c7e14af680000081565b6103726103ee366004612623565b6108ab565b61037261040136600461276f565b6108ec565b6102d4610414366004612788565b61092b565b610372610427366004612754565b6109b6565b610372610a26565b600054600160a01b900460ff166102c0565b610372610454366004612599565b610af2565b6102d4610b78565b6102d461046f366004612599565b610b87565b610372610bf8565b6000546001600160a01b03166102fd565b61037261049b36600461270f565b610c2e565b610297610e22565b6102d46104b6366004612599565b610e31565b6102d46a0422ca8b0a00a42500000081565b6102c06104db366004612623565b610e5e565b6102c06104ee366004612623565b610ead565b6104fb610eba565b604080519283526020830191909152016102a4565b60125461052590600160a01b900461ffff1681565b60405161ffff90911681526020016102a4565b6102c0610546366004612599565b6001600160a01b031660009081526005602052604090205460ff1690565b61037261057236600461270f565b610ecd565b6102d46105853660046125b4565b6001600160a01b03918216600090815260036020908152604080832093909416825291909152205490565b6103726105be366004612599565b610f6a565b6103726105d136600461276f565b610ff0565b6102d460105481565b6103726105ed366004612623565b6110b5565b61037261060036600461276f565b6110f3565b610372610613366004612599565b611211565b610372610626366004612599565b611364565b6102d4600e5481565b610372610642366004612599565b6113fc565b6060600b80546106569061293d565b80601f01602080910402602001604051908101604052809291908181526020018280546106829061293d565b80156106cf5780601f106106a4576101008083540402835291602001916106cf565b820191906000526020600020905b8154815290600101906020018083116106b257829003601f168201915b5050505050905090565b60006106e63384846115bb565b5060015b92915050565b60006106fd8484846116e0565b61074f843361074a85604051806060016040528060288152602001612a16602891396001600160a01b038a1660009081526003602090815260408083203384529091529020549190611981565b6115bb565b5060019392505050565b60006009548211156107c55760405162461bcd60e51b815260206004820152602a60248201527f416d6f756e74206d757374206265206c657373207468616e20746f74616c207260448201526965666c656374696f6e7360b01b60648201526084015b60405180910390fd5b60006107cf6119ad565b90506107db83826115af565b9392505050565b6012546001600160a01b0316336001600160a01b0316146108155760405162461bcd60e51b81526004016107bc9061285f565b60005b82518110156108705761085e33848381518110610837576108376129e9565b6020026020010151848481518110610851576108516129e9565b60200260200101516119d0565b8061086881612978565b915050610818565b505050565b3360008181526003602090815260408083206001600160a01b038716845290915281205490916106e691859061074a9086611b3e565b6012546001600160a01b0316336001600160a01b0316146108de5760405162461bcd60e51b81526004016107bc9061285f565b6108e88282611b4a565b5050565b6012546001600160a01b0316336001600160a01b03161461091f5760405162461bcd60e51b81526004016107bc9061285f565b61092881611c9a565b50565b600060085483111561097f5760405162461bcd60e51b815260206004820152601f60248201527f416d6f756e74206d757374206265206c657373207468616e20737570706c790060448201526064016107bc565b8161099d57600061098f84611df4565b509294506106ea9350505050565b60006109a884611df4565b509194506106ea9350505050565b6011546001600160a01b03163314610a105760405162461bcd60e51b815260206004820152601860248201527f43616c6c6572206973206e6f7420626f74206b6565706572000000000000000060448201526064016107bc565b8015610a1e57610928611e40565b610928611ec2565b6000546001600160a01b03163314610a505760405162461bcd60e51b81526004016107bc9061282a565b60075460ff1615610a985760405162461bcd60e51b8152602060048201526012602482015271105b1c9958591e481c9959da5cdd195c995960721b60448201526064016107bc565b6000610aa26119ad565b600854909150610abc9069d3c21bcecceda1000000611b3e565b600855610adf610ad669d3c21bcecceda100000083611f46565b60095490611b3e565b600955506007805460ff19166001179055565b6000546001600160a01b03163314610b1c5760405162461bcd60e51b81526004016107bc9061282a565b6012546040516001600160a01b038084169216907f66d091afc9c26c3a7ac26aaf2264aa6935008e7ab1342c9477530129863995b590600090a3601280546001600160a01b0319166001600160a01b0392909216919091179055565b6000610b826119ad565b905090565b6001600160a01b03811660009081526005602052604081205460ff1615610bc457506001600160a01b031660009081526002602052604090205490565b6106ea610bd083610e31565b6001600160a01b038416600090815260016020526040902054610bf290610759565b90611b3e565b6000546001600160a01b03163314610c225760405162461bcd60e51b81526004016107bc9061282a565b610c2c6000611f52565b565b6000546001600160a01b03163314610c585760405162461bcd60e51b81526004016107bc9061282a565b60075460ff16610c9c5760405162461bcd60e51b815260206004820152600f60248201526e03737ba103932b3b4b9ba32b932b21608d1b60448201526064016107bc565b8151610cb590610cac9083611f46565b600f5490611b3e565b600f81905569d3c21bcecceda10000001015610d015760405162461bcd60e51b815260206004820152600b60248201526a0caf0c6cacac8e640dac2f60ab1b60448201526064016107bc565b6000610d0b6119ad565b905060005b8351811015610e1c57610d73610d268484611f46565b60016000878581518110610d3c57610d3c6129e9565b60200260200101516001600160a01b03166001600160a01b0316815260200190815260200160002054611b3e90919063ffffffff16565b60016000868481518110610d8957610d896129e9565b60200260200101516001600160a01b03166001600160a01b0316815260200190815260200160002081905550838181518110610dc757610dc76129e9565b60200260200101516001600160a01b031660006001600160a01b0316600080516020612a3e83398151915285604051610e0291815260200190565b60405180910390a380610e1481612978565b915050610d10565b50505050565b6060600c80546106569061293d565b6001600160a01b038116600090815260046020526040812054610e56575050600e5490565b506000919050565b60006106e6338461074a85604051806060016040528060258152602001612a5e602591393360009081526003602090815260408083206001600160a01b038d1684529091529020549190611981565b60006106e63384846116e0565b600080610ec5611fa2565b915091509091565b6000546001600160a01b03163314610ef75760405162461bcd60e51b81526004016107bc9061282a565b60005b825181101561087057828181518110610f1557610f156129e9565b60200260200101516001600160a01b031660006001600160a01b0316600080516020612a3e83398151915284604051610f5091815260200190565b60405180910390a380610f6281612978565b915050610efa565b6000546001600160a01b03163314610f945760405162461bcd60e51b81526004016107bc9061282a565b6011546040516001600160a01b038084169216907f87539e2e2a47def56cbbc1ace5c120be06f04b7a3c7a70a387f1d8e14ce315a690600090a3601180546001600160a01b0319166001600160a01b0392909216919091179055565b6000546001600160a01b0316331461101a5760405162461bcd60e51b81526004016107bc9061282a565b61103264174876e80061102c60085490565b906115af565b8111156110815760405162461bcd60e51b815260206004820152601760248201527f7365742067656e65736973207265776172643a2062616400000000000000000060448201526064016107bc565b600e546040518291907f8e32115a7f54666bf8087d1af4ab7f86f8b817a6979903f742f0c90432acd8ef90600090a3600e55565b6012546001600160a01b0316336001600160a01b0316146110e85760405162461bcd60e51b81526004016107bc9061285f565b6108e83383836119d0565b3360008181526005602052604090205460ff16156111685760405162461bcd60e51b815260206004820152602c60248201527f4578636c75646564206164647265737365732063616e6e6f742063616c6c207460448201526b3434b990333ab731ba34b7b760a11b60648201526084016107bc565b600061117383611df4565b505050506001600160a01b03831660009081526001602052604090205490915061119d9082612124565b6001600160a01b0383166000908152600160205260409020556009546111c39082612124565b600955600a546111d39084611b3e565b600a5560405183906001600160a01b038416907f0553260a2e46b0577270d8992db02d30856ca880144c72d6e9503760946aef1390600090a3505050565b6000546001600160a01b0316331461123b5760405162461bcd60e51b81526004016107bc9061282a565b6001600160a01b03811660009081526005602052604090205460ff16156112a45760405162461bcd60e51b815260206004820152601b60248201527f4163636f756e7420697320616c7265616479206578636c75646564000000000060448201526064016107bc565b6001600160a01b038116600090815260016020526040902054156112fe576001600160a01b0381166000908152600160205260409020546112e490610759565b6001600160a01b0382166000908152600260205260409020555b6001600160a01b03166000818152600560205260408120805460ff191660019081179091556006805491820181559091527ff652222313e28459528d920b65115c16c04f3efc82aaedc97be59f3f377c0d3f0180546001600160a01b0319169091179055565b6000546001600160a01b0316331461138e5760405162461bcd60e51b81526004016107bc9061282a565b6001600160a01b0381166113f35760405162461bcd60e51b815260206004820152602660248201527f4f776e61626c653a206e6577206f776e657220697320746865207a65726f206160448201526564647265737360d01b60648201526084016107bc565b61092881611f52565b6000546001600160a01b031633146114265760405162461bcd60e51b81526004016107bc9061282a565b6001600160a01b03811660009081526005602052604090205460ff1661148e5760405162461bcd60e51b815260206004820152601b60248201527f4163636f756e7420697320616c7265616479206578636c75646564000000000060448201526064016107bc565b60005b6006548110156108e857816001600160a01b0316600682815481106114b8576114b86129e9565b6000918252602090912001546001600160a01b0316141561159d57600680546114e390600190612926565b815481106114f3576114f36129e9565b600091825260209091200154600680546001600160a01b03909216918390811061151f5761151f6129e9565b600091825260208083209190910180546001600160a01b0319166001600160a01b039485161790559184168152600282526040808220829055600590925220805460ff191690556006805480611577576115776129d3565b600082815260209020810160001990810180546001600160a01b03191690550190555050565b806115a781612978565b915050611491565b60006107db82846128f3565b6001600160a01b03831661161d5760405162461bcd60e51b8152602060048201526024808201527f45524332303a20617070726f76652066726f6d20746865207a65726f206164646044820152637265737360e01b60648201526084016107bc565b6001600160a01b03821661167e5760405162461bcd60e51b815260206004820152602260248201527f45524332303a20617070726f766520746f20746865207a65726f206164647265604482015261737360f01b60648201526084016107bc565b6001600160a01b0383811660008181526003602090815260408083209487168084529482529182902085905590518481527f8c5be1e5ebec7d5bd14f71427d1e84f3dd0314c0f7b2291e5b200ac8c7c3b92591015b60405180910390a3505050565b600054600160a01b900460ff161561170a5760405162461bcd60e51b81526004016107bc90612800565b6001600160a01b03831661176e5760405162461bcd60e51b815260206004820152602560248201527f45524332303a207472616e736665722066726f6d20746865207a65726f206164604482015264647265737360d81b60648201526084016107bc565b6001600160a01b0382166117d05760405162461bcd60e51b815260206004820152602360248201527f45524332303a207472616e7366657220746f20746865207a65726f206164647260448201526265737360e81b60648201526084016107bc565b600081116118325760405162461bcd60e51b815260206004820152602960248201527f5472616e7366657220616d6f756e74206d7573742062652067726561746572206044820152687468616e207a65726f60b81b60648201526084016107bc565b6001600160a01b03831660009081526005602052604090205460ff16801561187357506001600160a01b03821660009081526005602052604090205460ff16155b1561188357610870838383612130565b6001600160a01b03831660009081526005602052604090205460ff161580156118c457506001600160a01b03821660009081526005602052604090205460ff165b156118d4576108708383836122ad565b6001600160a01b03831660009081526005602052604090205460ff1615801561191657506001600160a01b03821660009081526005602052604090205460ff16155b15611926576108708383836123bb565b6001600160a01b03831660009081526005602052604090205460ff16801561196657506001600160a01b03821660009081526005602052604090205460ff165b15611976576108708383836123fc565b6108708383836123bb565b600081848411156119a55760405162461bcd60e51b81526004016107bc91906127ab565b505050900390565b60008060006119ba611fa2565b90925090506119c982826115af565b9250505090565b600054600160a01b900460ff16156119fa5760405162461bcd60e51b81526004016107bc90612800565b6001600160a01b03831660009081526005602052604090205460ff168015611a3b57506001600160a01b03821660009081526005602052604090205460ff16155b15611a4b57610870838383612130565b6001600160a01b03831660009081526005602052604090205460ff168015611a8b57506001600160a01b03821660009081526005602052604090205460ff165b15611a9b576108708383836123fc565b6001600160a01b03831660009081526005602052604090205460ff16158015611adc57506001600160a01b03821660009081526005602052604090205460ff165b15611aec576108708383836122ad565b6001600160a01b03831660009081526005602052604090205460ff16158015611b2e57506001600160a01b03821660009081526005602052604090205460ff16155b15611976576108708383836123bb565b60006107db82846128db565b611b5e69152d02c7e14af680000082612993565b15611bab5760405162461bcd60e51b815260206004820152601760248201527f43616e6e6f74206d696e74207468697320616d6f756e7400000000000000000060448201526064016107bc565b6000611bb56119ad565b600854909150611bc59083611b3e565b600855611bd5610ad68383611f46565b600955611c04611be58383611f46565b6001600160a01b03851660009081526001602052604090205490611b3e565b6001600160a01b03841660009081526001602090815260408083209390935560059052205460ff1615611c6e576001600160a01b038316600090815260026020526040902054611c549083611b3e565b6001600160a01b0384166000908152600260205260409020555b6040518281526001600160a01b03841690600090600080516020612a3e833981519152906020016116d3565b611cae69152d02c7e14af680000082612993565b15611cfb5760405162461bcd60e51b815260206004820152601760248201527f43616e6e6f74206275726e207468697320616d6f756e7400000000000000000060448201526064016107bc565b336000611d066119ad565b600854909150611d169084612124565b600855611d2f611d268483611f46565b60095490612124565b600955611d5e611d3f8483611f46565b6001600160a01b03841660009081526001602052604090205490612124565b6001600160a01b03831660009081526001602090815260408083209390935560059052205460ff1615611dc8576001600160a01b038216600090815260026020526040902054611dae9084612124565b6001600160a01b0383166000908152600260205260409020555b6040518381526000906001600160a01b03841690600080516020612a3e833981519152906020016116d3565b6000806000806000806000611e088861246c565b915091506000611e166119ad565b90506000806000611e288c8686612494565b919e909d50909b509599509397509395505050505050565b600054600160a01b900460ff1615611e6a5760405162461bcd60e51b81526004016107bc90612800565b6000805460ff60a01b1916600160a01b1790557f62e78cea01bee320cd4e420270b5ea74000d11b0c9f74754ebdbfc544b05a258611ea53390565b6040516001600160a01b03909116815260200160405180910390a1565b600054600160a01b900460ff16611f125760405162461bcd60e51b815260206004820152601460248201527314185d5cd8589b194e881b9bdd081c185d5cd95960621b60448201526064016107bc565b6000805460ff60a01b191690557f5db9ee0a495bf2e6ff9c91a7834c1ba4fdd244a5e8aa4e537bd38aeae4b073aa33611ea5565b60006107db8284612907565b600080546001600160a01b038381166001600160a01b0319831681178455604051919092169283917f8be0079c531659141344cd1fd0a4f28419497f9722a3daafe3b4186f6b6457e09190a35050565b6009546008546000918291825b6006548110156120f457826001600060068481548110611fd157611fd16129e9565b60009182526020808320909101546001600160a01b03168352820192909252604001902054118061203c5750816002600060068481548110612015576120156129e9565b60009182526020808320909101546001600160a01b03168352820192909252604001902054115b1561205257600954600854945094505050509091565b612098600160006006848154811061206c5761206c6129e9565b60009182526020808320909101546001600160a01b031683528201929092526040019020548490612124565b92506120e060026000600684815481106120b4576120b46129e9565b60009182526020808320909101546001600160a01b031683528201929092526040019020548390612124565b9150806120ec81612978565b915050611faf565b50600854600954612104916115af565b82101561211b576009546008549350935050509091565b90939092509050565b60006107db8284612926565b600080600080600061214186611df4565b6001600160a01b038d16600090815260026020526040902054949950929750909550935091506121719087612124565b6001600160a01b0389166000908152600260209081526040808320939093556001905220546121a09086612124565b6001600160a01b0389166000908152600160205260408120919091556121dc886001600160a01b03166000908152600460205260409020541590565b15612218576121f56121ec6119ad565b600e5490611f46565b9050612218886001600160a01b0316600090815260046020526040902060019055565b6122446122258683611b3e565b6001600160a01b038a1660009081526001602052604090205490611b3e565b6001600160a01b03891660009081526001602052604090205561226784836124d0565b876001600160a01b0316896001600160a01b0316600080516020612a3e8339815191528560405161229a91815260200190565b60405180910390a3505050505050505050565b60008060008060006122be86611df4565b6001600160a01b038d16600090815260016020526040902054949950929750909550935091506122ee9086612124565b6001600160a01b03808a16600090815260016020908152604080832094909455918a168152600290915220546123249083611b3e565b6001600160a01b0388166000908152600260209081526040808320939093556001905220546123539085611b3e565b6001600160a01b03881660009081526001602052604090205561237683826124d0565b866001600160a01b0316886001600160a01b0316600080516020612a3e833981519152846040516123a991815260200190565b60405180910390a35050505050505050565b60008060008060006123cc86611df4565b6001600160a01b038d16600090815260016020526040902054949950929750909550935091506121a09086612124565b600080600080600061240d86611df4565b6001600160a01b038d166000908152600260205260409020549499509297509095509350915061243d9087612124565b6001600160a01b0389166000908152600260209081526040808320939093556001905220546122ee9086612124565b6000808061247b8460646115af565b905060006124898583612124565b959194509092505050565b60008080806124a38786611f46565b905060006124b18787611f46565b905060006124bf8383612124565b929992985090965090945050505050565b6009546124dd9083612124565b600955600a546124ed9082611b3e565b600a555050565b80356001600160a01b038116811461250b57600080fd5b919050565b600082601f83011261252157600080fd5b81356020612536612531836128b7565b612886565b80838252828201915082860187848660051b890101111561255657600080fd5b60005b8581101561257c5761256a826124f4565b84529284019290840190600101612559565b5090979650505050505050565b8035801515811461250b57600080fd5b6000602082840312156125ab57600080fd5b6107db826124f4565b600080604083850312156125c757600080fd5b6125d0836124f4565b91506125de602084016124f4565b90509250929050565b6000806000606084860312156125fc57600080fd5b612605846124f4565b9250612613602085016124f4565b9150604084013590509250925092565b6000806040838503121561263657600080fd5b61263f836124f4565b946020939093013593505050565b6000806040838503121561266057600080fd5b823567ffffffffffffffff8082111561267857600080fd5b61268486838701612510565b935060209150818501358181111561269b57600080fd5b85019050601f810186136126ae57600080fd5b80356126bc612531826128b7565b80828252848201915084840189868560051b87010111156126dc57600080fd5b600094505b838510156126ff5780358352600194909401939185019185016126e1565b5080955050505050509250929050565b6000806040838503121561272257600080fd5b823567ffffffffffffffff81111561273957600080fd5b61274585828601612510565b95602094909401359450505050565b60006020828403121561276657600080fd5b6107db82612589565b60006020828403121561278157600080fd5b5035919050565b6000806040838503121561279b57600080fd5b823591506125de60208401612589565b600060208083528351808285015260005b818110156127d8578581018301518582016040015282016127bc565b818111156127ea576000604083870101525b50601f01601f1916929092016040019392505050565b60208082526010908201526f14185d5cd8589b194e881c185d5cd95960821b604082015260600190565b6020808252818101527f4f776e61626c653a2063616c6c6572206973206e6f7420746865206f776e6572604082015260600190565b6020808252600d908201526c4f6e6c7920547265617375727960981b604082015260600190565b604051601f8201601f1916810167ffffffffffffffff811182821017156128af576128af6129ff565b604052919050565b600067ffffffffffffffff8211156128d1576128d16129ff565b5060051b60200190565b600082198211156128ee576128ee6129a7565b500190565b600082612902576129026129bd565b500490565b6000816000190483118215151615612921576129216129a7565b500290565b600082821015612938576129386129a7565b500390565b600181811c9082168061295157607f821691505b6020821081141561297257634e487b7160e01b600052602260045260246000fd5b50919050565b600060001982141561298c5761298c6129a7565b5060010190565b6000826129a2576129a26129bd565b500690565b634e487b7160e01b600052601160045260246000fd5b634e487b7160e01b600052601260045260246000fd5b634e487b7160e01b600052603160045260246000fd5b634e487b7160e01b600052603260045260246000fd5b634e487b7160e01b600052604160045260246000fdfe45524332303a207472616e7366657220616d6f756e74206578636565647320616c6c6f77616e6365ddf252ad1be2c89b69c2b068fc378daa952ba7f163c4a11628f55a4df523b3ef45524332303a2064656372656173656420616c6c6f77616e63652062656c6f77207a65726fa2646970667358221220c6ec91f924ee6402c146555b7a7d541e35b761872ab2753aafc88b4b754ef52c64736f6c63430008070033",
					"opcodes": "PUSH1 0xC0 PUSH1 0x40 MSTORE PUSH1 0xD PUSH1 0x80 DUP2 SWAP1 MSTORE PUSH13 0x2637BA3A32B93C902A37B5B2B7 PUSH1 0x99 SHL PUSH1 0xA0 SWAP1 DUP2 MSTORE PUSH3 0x30 SWAP2 PUSH1 0xB SWAP2 SWAP1 PUSH3 0x1DA JUMP JUMPDEST POP PUSH1 0x40 DUP1 MLOAD DUP1 DUP3 ADD SWAP1 SWAP2 MSTORE PUSH1 0x4 DUP1 DUP3 MSTORE PUSH4 0x4C4F5445 PUSH1 0xE0 SHL PUSH1 0x20 SWAP1 SWAP3 ADD SWAP2 DUP3 MSTORE PUSH3 0x5E SWAP2 PUSH1 0xC SWAP2 PUSH3 0x1DA JUMP JUMPDEST POP PUSH1 0xD DUP1 SLOAD PUSH1 0x12 PUSH1 0xFF NOT SWAP1 SWAP2 AND DUP2 OR SWAP1 SWAP2 SSTORE DUP1 SLOAD PUSH2 0xFFFF PUSH1 0xA0 SHL NOT AND PUSH1 0x19 PUSH1 0xA2 SHL OR SWAP1 SSTORE CALLVALUE DUP1 ISZERO PUSH3 0x8F JUMPI PUSH1 0x0 DUP1 REVERT JUMPDEST POP PUSH3 0x9B CALLER PUSH3 0x175 JUMP JUMPDEST PUSH1 0x0 DUP1 SLOAD PUSH1 0xFF PUSH1 0xA0 SHL NOT AND DUP2 SSTORE CALLER SWAP1 PUSH3 0xC1 PUSH10 0x152D02C7E14AF6800000 PUSH1 0x64 PUSH3 0x297 JUMP JUMPDEST PUSH1 0x8 DUP2 SWAP1 SSTORE SWAP1 POP PUSH1 0x0 PUSH3 0xE9 PUSH1 0x0 NOT PUSH5 0xE8D4A51000 PUSH3 0x1C5 PUSH1 0x20 SWAP1 DUP2 SHL PUSH3 0x15AF OR SWAP1 SHR JUMP JUMPDEST SWAP1 POP PUSH3 0x101 PUSH10 0x152D02C7E14AF6800000 DUP3 PUSH3 0x310 JUMP JUMPDEST PUSH3 0x10D SWAP1 DUP3 PUSH3 0x2B9 JUMP JUMPDEST PUSH1 0x9 DUP2 SWAP1 SSTORE PUSH1 0x1 PUSH1 0x1 PUSH1 0xA0 SHL SUB DUP5 AND PUSH1 0x0 DUP2 DUP2 MSTORE PUSH1 0x1 PUSH1 0x20 MSTORE PUSH1 0x40 DUP1 DUP3 KECCAK256 SWAP4 SWAP1 SWAP4 SSTORE SWAP2 MLOAD SWAP1 SWAP2 SWAP1 PUSH32 0xDDF252AD1BE2C89B69C2B068FC378DAA952BA7F163C4A11628F55A4DF523B3EF SWAP1 PUSH3 0x164 SWAP1 DUP7 DUP2 MSTORE PUSH1 0x20 ADD SWAP1 JUMP JUMPDEST PUSH1 0x40 MLOAD DUP1 SWAP2 SUB SWAP1 LOG3 POP POP POP PUSH3 0x353 JUMP JUMPDEST PUSH1 0x0 DUP1 SLOAD PUSH1 0x1 PUSH1 0x1 PUSH1 0xA0 SHL SUB DUP4 DUP2 AND PUSH1 0x1 PUSH1 0x1 PUSH1 0xA0 SHL SUB NOT DUP4 AND DUP2 OR DUP5 SSTORE PUSH1 0x40 MLOAD SWAP2 SWAP1 SWAP3 AND SWAP3 DUP4 SWAP2 PUSH32 0x8BE0079C531659141344CD1FD0A4F28419497F9722A3DAAFE3B4186F6B6457E0 SWAP2 SWAP1 LOG3 POP POP JUMP JUMPDEST PUSH1 0x0 PUSH3 0x1D3 DUP3 DUP5 PUSH3 0x280 JUMP JUMPDEST SWAP4 SWAP3 POP POP POP JUMP JUMPDEST DUP3 DUP1 SLOAD PUSH3 0x1E8 SWAP1 PUSH3 0x2D3 JUMP JUMPDEST SWAP1 PUSH1 0x0 MSTORE PUSH1 0x20 PUSH1 0x0 KECCAK256 SWAP1 PUSH1 0x1F ADD PUSH1 0x20 SWAP1 DIV DUP2 ADD SWAP3 DUP3 PUSH3 0x20C JUMPI PUSH1 0x0 DUP6 SSTORE PUSH3 0x257 JUMP JUMPDEST DUP3 PUSH1 0x1F LT PUSH3 0x227 JUMPI DUP1 MLOAD PUSH1 0xFF NOT AND DUP4 DUP1 ADD OR DUP6 SSTORE PUSH3 0x257 JUMP JUMPDEST DUP3 DUP1 ADD PUSH1 0x1 ADD DUP6 SSTORE DUP3 ISZERO PUSH3 0x257 JUMPI SWAP2 DUP3 ADD JUMPDEST DUP3 DUP2 GT ISZERO PUSH3 0x257 JUMPI DUP3 MLOAD DUP3 SSTORE SWAP2 PUSH1 0x20 ADD SWAP2 SWAP1 PUSH1 0x1 ADD SWAP1 PUSH3 0x23A JUMP JUMPDEST POP PUSH3 0x265 SWAP3 SWAP2 POP PUSH3 0x269 JUMP JUMPDEST POP SWAP1 JUMP JUMPDEST JUMPDEST DUP1 DUP3 GT ISZERO PUSH3 0x265 JUMPI PUSH1 0x0 DUP2 SSTORE PUSH1 0x1 ADD PUSH3 0x26A JUMP JUMPDEST PUSH1 0x0 DUP3 PUSH3 0x292 JUMPI PUSH3 0x292 PUSH3 0x33D JUMP JUMPDEST POP DIV SWAP1 JUMP JUMPDEST PUSH1 0x0 DUP2 PUSH1 0x0 NOT DIV DUP4 GT DUP3 ISZERO ISZERO AND ISZERO PUSH3 0x2B4 JUMPI PUSH3 0x2B4 PUSH3 0x327 JUMP JUMPDEST POP MUL SWAP1 JUMP JUMPDEST PUSH1 0x0 DUP3 DUP3 LT ISZERO PUSH3 0x2CE JUMPI PUSH3 0x2CE PUSH3 0x327 JUMP JUMPDEST POP SUB SWAP1 JUMP JUMPDEST PUSH1 0x1 DUP2 DUP2 SHR SWAP1 DUP3 AND DUP1 PUSH3 0x2E8 JUMPI PUSH1 0x7F DUP3 AND SWAP2 POP JUMPDEST PUSH1 0x20 DUP3 LT DUP2 EQ ISZERO PUSH3 0x30A JUMPI PUSH4 0x4E487B71 PUSH1 0xE0 SHL PUSH1 0x0 MSTORE PUSH1 0x22 PUSH1 0x4 MSTORE PUSH1 0x24 PUSH1 0x0 REVERT JUMPDEST POP SWAP2 SWAP1 POP JUMP JUMPDEST PUSH1 0x0 DUP3 PUSH3 0x322 JUMPI PUSH3 0x322 PUSH3 0x33D JUMP JUMPDEST POP MOD SWAP1 JUMP JUMPDEST PUSH4 0x4E487B71 PUSH1 0xE0 SHL PUSH1 0x0 MSTORE PUSH1 0x11 PUSH1 0x4 MSTORE PUSH1 0x24 PUSH1 0x0 REVERT JUMPDEST PUSH4 0x4E487B71 PUSH1 0xE0 SHL PUSH1 0x0 MSTORE PUSH1 0x12 PUSH1 0x4 MSTORE PUSH1 0x24 PUSH1 0x0 REVERT JUMPDEST PUSH2 0x2AB8 DUP1 PUSH3 0x363 PUSH1 0x0 CODECOPY PUSH1 0x0 RETURN INVALID PUSH1 0x80 PUSH1 0x40 MSTORE CALLVALUE DUP1 ISZERO PUSH2 0x10 JUMPI PUSH1 0x0 DUP1 REVERT JUMPDEST POP PUSH1 0x4 CALLDATASIZE LT PUSH2 0x28A JUMPI PUSH1 0x0 CALLDATALOAD PUSH1 0xE0 SHR DUP1 PUSH4 0x70A08231 GT PUSH2 0x15C JUMPI DUP1 PUSH4 0xCBA0E996 GT PUSH2 0xCE JUMPI DUP1 PUSH4 0xF0C3443D GT PUSH2 0x87 JUMPI DUP1 PUSH4 0xF0C3443D EQ PUSH2 0x5DF JUMPI DUP1 PUSH4 0xF14FAF6F EQ PUSH2 0x5F2 JUMPI DUP1 PUSH4 0xF2CC0C18 EQ PUSH2 0x605 JUMPI DUP1 PUSH4 0xF2FDE38B EQ PUSH2 0x618 JUMPI DUP1 PUSH4 0xF79E7354 EQ PUSH2 0x62B JUMPI DUP1 PUSH4 0xF84354F1 EQ PUSH2 0x634 JUMPI PUSH1 0x0 DUP1 REVERT JUMPDEST DUP1 PUSH4 0xCBA0E996 EQ PUSH2 0x538 JUMPI DUP1 PUSH4 0xD82CC2D7 EQ PUSH2 0x564 JUMPI DUP1 PUSH4 0xDD62ED3E EQ PUSH2 0x577 JUMPI DUP1 PUSH4 0xE8E23594 EQ PUSH2 0x5B0 JUMPI DUP1 PUSH4 0xEE188362 EQ PUSH2 0x5C3 JUMPI DUP1 PUSH4 0xF0171648 EQ PUSH2 0x5D6 JUMPI PUSH1 0x0 DUP1 REVERT JUMPDEST DUP1 PUSH4 0x9941F3AB GT PUSH2 0x120 JUMPI DUP1 PUSH4 0x9941F3AB EQ PUSH2 0x4A8 JUMPI DUP1 PUSH4 0x9BCC6102 EQ PUSH2 0x4BB JUMPI DUP1 PUSH4 0xA457C2D7 EQ PUSH2 0x4CD JUMPI DUP1 PUSH4 0xA9059CBB EQ PUSH2 0x4E0 JUMPI DUP1 PUSH4 0xAE823F3B EQ PUSH2 0x4F3 JUMPI DUP1 PUSH4 0xB65D08B0 EQ PUSH2 0x510 JUMPI PUSH1 0x0 DUP1 REVERT JUMPDEST DUP1 PUSH4 0x70A08231 EQ PUSH2 0x461 JUMPI DUP1 PUSH4 0x715018A6 EQ PUSH2 0x474 JUMPI DUP1 PUSH4 0x8DA5CB5B EQ PUSH2 0x47C JUMPI DUP1 PUSH4 0x94594625 EQ PUSH2 0x48D JUMPI DUP1 PUSH4 0x95D89B41 EQ PUSH2 0x4A0 JUMPI PUSH1 0x0 DUP1 REVERT JUMPDEST DUP1 PUSH4 0x313CE567 GT PUSH2 0x200 JUMPI DUP1 PUSH4 0x4549B039 GT PUSH2 0x1B9 JUMPI DUP1 PUSH4 0x4549B039 EQ PUSH2 0x406 JUMPI DUP1 PUSH4 0x493770CC EQ PUSH2 0x419 JUMPI DUP1 PUSH4 0x5A1A1C3D EQ PUSH2 0x42C JUMPI DUP1 PUSH4 0x5C975ABB EQ PUSH2 0x434 JUMPI DUP1 PUSH4 0x6605BFDA EQ PUSH2 0x446 JUMPI DUP1 PUSH4 0x679AEFCE EQ PUSH2 0x459 JUMPI PUSH1 0x0 DUP1 REVERT JUMPDEST DUP1 PUSH4 0x313CE567 EQ PUSH2 0x37D JUMPI DUP1 PUSH4 0x324884A9 EQ PUSH2 0x392 JUMPI DUP1 PUSH4 0x39509351 EQ PUSH2 0x3BC JUMPI DUP1 PUSH4 0x400D6844 EQ PUSH2 0x3CF JUMPI DUP1 PUSH4 0x40C10F19 EQ PUSH2 0x3E0 JUMPI DUP1 PUSH4 0x42966C68 EQ PUSH2 0x3F3 JUMPI PUSH1 0x0 DUP1 REVERT JUMPDEST DUP1 PUSH4 0x23B872DD GT PUSH2 0x252 JUMPI DUP1 PUSH4 0x23B872DD EQ PUSH2 0x315 JUMPI DUP1 PUSH4 0x29200995 EQ PUSH2 0x328 JUMPI DUP1 PUSH4 0x2B5B6872 EQ PUSH2 0x33B JUMPI DUP1 PUSH4 0x2D838119 EQ PUSH2 0x34C JUMPI DUP1 PUSH4 0x30D8CE9E EQ PUSH2 0x35F JUMPI DUP1 PUSH4 0x30F4A0B0 EQ PUSH2 0x374 JUMPI PUSH1 0x0 DUP1 REVERT JUMPDEST DUP1 PUSH4 0x6FDDE03 EQ PUSH2 0x28F JUMPI DUP1 PUSH4 0x95EA7B3 EQ PUSH2 0x2AD JUMPI DUP1 PUSH4 0x13114A9D EQ PUSH2 0x2D0 JUMPI DUP1 PUSH4 0x18160DDD EQ PUSH2 0x2E2 JUMPI DUP1 PUSH4 0x18DA0011 EQ PUSH2 0x2EA JUMPI JUMPDEST PUSH1 0x0 DUP1 REVERT JUMPDEST PUSH2 0x297 PUSH2 0x647 JUMP JUMPDEST PUSH1 0x40 MLOAD PUSH2 0x2A4 SWAP2 SWAP1 PUSH2 0x27AB JUMP JUMPDEST PUSH1 0x40 MLOAD DUP1 SWAP2 SUB SWAP1 RETURN JUMPDEST PUSH2 0x2C0 PUSH2 0x2BB CALLDATASIZE PUSH1 0x4 PUSH2 0x2623 JUMP JUMPDEST PUSH2 0x6D9 JUMP JUMPDEST PUSH1 0x40 MLOAD SWAP1 ISZERO ISZERO DUP2 MSTORE PUSH1 0x20 ADD PUSH2 0x2A4 JUMP JUMPDEST PUSH1 0xA SLOAD JUMPDEST PUSH1 0x40 MLOAD SWAP1 DUP2 MSTORE PUSH1 0x20 ADD PUSH2 0x2A4 JUMP JUMPDEST PUSH1 0x8 SLOAD PUSH2 0x2D4 JUMP JUMPDEST PUSH1 0x12 SLOAD PUSH2 0x2FD SWAP1 PUSH1 0x1 PUSH1 0x1 PUSH1 0xA0 SHL SUB AND DUP2 JUMP JUMPDEST PUSH1 0x40 MLOAD PUSH1 0x1 PUSH1 0x1 PUSH1 0xA0 SHL SUB SWAP1 SWAP2 AND DUP2 MSTORE PUSH1 0x20 ADD PUSH2 0x2A4 JUMP JUMPDEST PUSH2 0x2C0 PUSH2 0x323 CALLDATASIZE PUSH1 0x4 PUSH2 0x25E7 JUMP JUMPDEST PUSH2 0x6F0 JUMP JUMPDEST PUSH1 0x11 SLOAD PUSH2 0x2FD SWAP1 PUSH1 0x1 PUSH1 0x1 PUSH1 0xA0 SHL SUB AND DUP2 JUMP JUMPDEST PUSH2 0x2D4 PUSH10 0xD3C21BCECCEDA1000000 DUP2 JUMP JUMPDEST PUSH2 0x2D4 PUSH2 0x35A CALLDATASIZE PUSH1 0x4 PUSH2 0x276F JUMP JUMPDEST PUSH2 0x759 JUMP JUMPDEST PUSH2 0x372 PUSH2 0x36D CALLDATASIZE PUSH1 0x4 PUSH2 0x264D JUMP JUMPDEST PUSH2 0x7E2 JUMP JUMPDEST STOP JUMPDEST PUSH2 0x2D4 PUSH1 0xF SLOAD DUP2 JUMP JUMPDEST PUSH1 0xD SLOAD PUSH1 0x40 MLOAD PUSH1 0xFF SWAP1 SWAP2 AND DUP2 MSTORE PUSH1 0x20 ADD PUSH2 0x2A4 JUMP JUMPDEST PUSH2 0x2C0 PUSH2 0x3A0 CALLDATASIZE PUSH1 0x4 PUSH2 0x2599 JUMP JUMPDEST PUSH1 0x1 PUSH1 0x1 PUSH1 0xA0 SHL SUB AND PUSH1 0x0 SWAP1 DUP2 MSTORE PUSH1 0x4 PUSH1 0x20 MSTORE PUSH1 0x40 SWAP1 KECCAK256 SLOAD ISZERO SWAP1 JUMP JUMPDEST PUSH2 0x2C0 PUSH2 0x3CA CALLDATASIZE PUSH1 0x4 PUSH2 0x2623 JUMP JUMPDEST PUSH2 0x875 JUMP JUMPDEST PUSH2 0x2D4 PUSH10 0x152D02C7E14AF6800000 DUP2 JUMP JUMPDEST PUSH2 0x372 PUSH2 0x3EE CALLDATASIZE PUSH1 0x4 PUSH2 0x2623 JUMP JUMPDEST PUSH2 0x8AB JUMP JUMPDEST PUSH2 0x372 PUSH2 0x401 CALLDATASIZE PUSH1 0x4 PUSH2 0x276F JUMP JUMPDEST PUSH2 0x8EC JUMP JUMPDEST PUSH2 0x2D4 PUSH2 0x414 CALLDATASIZE PUSH1 0x4 PUSH2 0x2788 JUMP JUMPDEST PUSH2 0x92B JUMP JUMPDEST PUSH2 0x372 PUSH2 0x427 CALLDATASIZE PUSH1 0x4 PUSH2 0x2754 JUMP JUMPDEST PUSH2 0x9B6 JUMP JUMPDEST PUSH2 0x372 PUSH2 0xA26 JUMP JUMPDEST PUSH1 0x0 SLOAD PUSH1 0x1 PUSH1 0xA0 SHL SWAP1 DIV PUSH1 0xFF AND PUSH2 0x2C0 JUMP JUMPDEST PUSH2 0x372 PUSH2 0x454 CALLDATASIZE PUSH1 0x4 PUSH2 0x2599 JUMP JUMPDEST PUSH2 0xAF2 JUMP JUMPDEST PUSH2 0x2D4 PUSH2 0xB78 JUMP JUMPDEST PUSH2 0x2D4 PUSH2 0x46F CALLDATASIZE PUSH1 0x4 PUSH2 0x2599 JUMP JUMPDEST PUSH2 0xB87 JUMP JUMPDEST PUSH2 0x372 PUSH2 0xBF8 JUMP JUMPDEST PUSH1 0x0 SLOAD PUSH1 0x1 PUSH1 0x1 PUSH1 0xA0 SHL SUB AND PUSH2 0x2FD JUMP JUMPDEST PUSH2 0x372 PUSH2 0x49B CALLDATASIZE PUSH1 0x4 PUSH2 0x270F JUMP JUMPDEST PUSH2 0xC2E JUMP JUMPDEST PUSH2 0x297 PUSH2 0xE22 JUMP JUMPDEST PUSH2 0x2D4 PUSH2 0x4B6 CALLDATASIZE PUSH1 0x4 PUSH2 0x2599 JUMP JUMPDEST PUSH2 0xE31 JUMP JUMPDEST PUSH2 0x2D4 PUSH11 0x422CA8B0A00A425000000 DUP2 JUMP JUMPDEST PUSH2 0x2C0 PUSH2 0x4DB CALLDATASIZE PUSH1 0x4 PUSH2 0x2623 JUMP JUMPDEST PUSH2 0xE5E JUMP JUMPDEST PUSH2 0x2C0 PUSH2 0x4EE CALLDATASIZE PUSH1 0x4 PUSH2 0x2623 JUMP JUMPDEST PUSH2 0xEAD JUMP JUMPDEST PUSH2 0x4FB PUSH2 0xEBA JUMP JUMPDEST PUSH1 0x40 DUP1 MLOAD SWAP3 DUP4 MSTORE PUSH1 0x20 DUP4 ADD SWAP2 SWAP1 SWAP2 MSTORE ADD PUSH2 0x2A4 JUMP JUMPDEST PUSH1 0x12 SLOAD PUSH2 0x525 SWAP1 PUSH1 0x1 PUSH1 0xA0 SHL SWAP1 DIV PUSH2 0xFFFF AND DUP2 JUMP JUMPDEST PUSH1 0x40 MLOAD PUSH2 0xFFFF SWAP1 SWAP2 AND DUP2 MSTORE PUSH1 0x20 ADD PUSH2 0x2A4 JUMP JUMPDEST PUSH2 0x2C0 PUSH2 0x546 CALLDATASIZE PUSH1 0x4 PUSH2 0x2599 JUMP JUMPDEST PUSH1 0x1 PUSH1 0x1 PUSH1 0xA0 SHL SUB AND PUSH1 0x0 SWAP1 DUP2 MSTORE PUSH1 0x5 PUSH1 0x20 MSTORE PUSH1 0x40 SWAP1 KECCAK256 SLOAD PUSH1 0xFF AND SWAP1 JUMP JUMPDEST PUSH2 0x372 PUSH2 0x572 CALLDATASIZE PUSH1 0x4 PUSH2 0x270F JUMP JUMPDEST PUSH2 0xECD JUMP JUMPDEST PUSH2 0x2D4 PUSH2 0x585 CALLDATASIZE PUSH1 0x4 PUSH2 0x25B4 JUMP JUMPDEST PUSH1 0x1 PUSH1 0x1 PUSH1 0xA0 SHL SUB SWAP2 DUP3 AND PUSH1 0x0 SWAP1 DUP2 MSTORE PUSH1 0x3 PUSH1 0x20 SWAP1 DUP2 MSTORE PUSH1 0x40 DUP1 DUP4 KECCAK256 SWAP4 SWAP1 SWAP5 AND DUP3 MSTORE SWAP2 SWAP1 SWAP2 MSTORE KECCAK256 SLOAD SWAP1 JUMP JUMPDEST PUSH2 0x372 PUSH2 0x5BE CALLDATASIZE PUSH1 0x4 PUSH2 0x2599 JUMP JUMPDEST PUSH2 0xF6A JUMP JUMPDEST PUSH2 0x372 PUSH2 0x5D1 CALLDATASIZE PUSH1 0x4 PUSH2 0x276F JUMP JUMPDEST PUSH2 0xFF0 JUMP JUMPDEST PUSH2 0x2D4 PUSH1 0x10 SLOAD DUP2 JUMP JUMPDEST PUSH2 0x372 PUSH2 0x5ED CALLDATASIZE PUSH1 0x4 PUSH2 0x2623 JUMP JUMPDEST PUSH2 0x10B5 JUMP JUMPDEST PUSH2 0x372 PUSH2 0x600 CALLDATASIZE PUSH1 0x4 PUSH2 0x276F JUMP JUMPDEST PUSH2 0x10F3 JUMP JUMPDEST PUSH2 0x372 PUSH2 0x613 CALLDATASIZE PUSH1 0x4 PUSH2 0x2599 JUMP JUMPDEST PUSH2 0x1211 JUMP JUMPDEST PUSH2 0x372 PUSH2 0x626 CALLDATASIZE PUSH1 0x4 PUSH2 0x2599 JUMP JUMPDEST PUSH2 0x1364 JUMP JUMPDEST PUSH2 0x2D4 PUSH1 0xE SLOAD DUP2 JUMP JUMPDEST PUSH2 0x372 PUSH2 0x642 CALLDATASIZE PUSH1 0x4 PUSH2 0x2599 JUMP JUMPDEST PUSH2 0x13FC JUMP JUMPDEST PUSH1 0x60 PUSH1 0xB DUP1 SLOAD PUSH2 0x656 SWAP1 PUSH2 0x293D JUMP JUMPDEST DUP1 PUSH1 0x1F ADD PUSH1 0x20 DUP1 SWAP2 DIV MUL PUSH1 0x20 ADD PUSH1 0x40 MLOAD SWAP1 DUP2 ADD PUSH1 0x40 MSTORE DUP1 SWAP3 SWAP2 SWAP1 DUP2 DUP2 MSTORE PUSH1 0x20 ADD DUP3 DUP1 SLOAD PUSH2 0x682 SWAP1 PUSH2 0x293D JUMP JUMPDEST DUP1 ISZERO PUSH2 0x6CF JUMPI DUP1 PUSH1 0x1F LT PUSH2 0x6A4 JUMPI PUSH2 0x100 DUP1 DUP4 SLOAD DIV MUL DUP4 MSTORE SWAP2 PUSH1 0x20 ADD SWAP2 PUSH2 0x6CF JUMP JUMPDEST DUP3 ADD SWAP2 SWAP1 PUSH1 0x0 MSTORE PUSH1 0x20 PUSH1 0x0 KECCAK256 SWAP1 JUMPDEST DUP2 SLOAD DUP2 MSTORE SWAP1 PUSH1 0x1 ADD SWAP1 PUSH1 0x20 ADD DUP1 DUP4 GT PUSH2 0x6B2 JUMPI DUP3 SWAP1 SUB PUSH1 0x1F AND DUP3 ADD SWAP2 JUMPDEST POP POP POP POP POP SWAP1 POP SWAP1 JUMP JUMPDEST PUSH1 0x0 PUSH2 0x6E6 CALLER DUP5 DUP5 PUSH2 0x15BB JUMP JUMPDEST POP PUSH1 0x1 JUMPDEST SWAP3 SWAP2 POP POP JUMP JUMPDEST PUSH1 0x0 PUSH2 0x6FD DUP5 DUP5 DUP5 PUSH2 0x16E0 JUMP JUMPDEST PUSH2 0x74F DUP5 CALLER PUSH2 0x74A DUP6 PUSH1 0x40 MLOAD DUP1 PUSH1 0x60 ADD PUSH1 0x40 MSTORE DUP1 PUSH1 0x28 DUP2 MSTORE PUSH1 0x20 ADD PUSH2 0x2A16 PUSH1 0x28 SWAP2 CODECOPY PUSH1 0x1 PUSH1 0x1 PUSH1 0xA0 SHL SUB DUP11 AND PUSH1 0x0 SWAP1 DUP2 MSTORE PUSH1 0x3 PUSH1 0x20 SWAP1 DUP2 MSTORE PUSH1 0x40 DUP1 DUP4 KECCAK256 CALLER DUP5 MSTORE SWAP1 SWAP2 MSTORE SWAP1 KECCAK256 SLOAD SWAP2 SWAP1 PUSH2 0x1981 JUMP JUMPDEST PUSH2 0x15BB JUMP JUMPDEST POP PUSH1 0x1 SWAP4 SWAP3 POP POP POP JUMP JUMPDEST PUSH1 0x0 PUSH1 0x9 SLOAD DUP3 GT ISZERO PUSH2 0x7C5 JUMPI PUSH1 0x40 MLOAD PUSH3 0x461BCD PUSH1 0xE5 SHL DUP2 MSTORE PUSH1 0x20 PUSH1 0x4 DUP3 ADD MSTORE PUSH1 0x2A PUSH1 0x24 DUP3 ADD MSTORE PUSH32 0x416D6F756E74206D757374206265206C657373207468616E20746F74616C2072 PUSH1 0x44 DUP3 ADD MSTORE PUSH10 0x65666C656374696F6E73 PUSH1 0xB0 SHL PUSH1 0x64 DUP3 ADD MSTORE PUSH1 0x84 ADD JUMPDEST PUSH1 0x40 MLOAD DUP1 SWAP2 SUB SWAP1 REVERT JUMPDEST PUSH1 0x0 PUSH2 0x7CF PUSH2 0x19AD JUMP JUMPDEST SWAP1 POP PUSH2 0x7DB DUP4 DUP3 PUSH2 0x15AF JUMP JUMPDEST SWAP4 SWAP3 POP POP POP JUMP JUMPDEST PUSH1 0x12 SLOAD PUSH1 0x1 PUSH1 0x1 PUSH1 0xA0 SHL SUB AND CALLER PUSH1 0x1 PUSH1 0x1 PUSH1 0xA0 SHL SUB AND EQ PUSH2 0x815 JUMPI PUSH1 0x40 MLOAD PUSH3 0x461BCD PUSH1 0xE5 SHL DUP2 MSTORE PUSH1 0x4 ADD PUSH2 0x7BC SWAP1 PUSH2 0x285F JUMP JUMPDEST PUSH1 0x0 JUMPDEST DUP3 MLOAD DUP2 LT ISZERO PUSH2 0x870 JUMPI PUSH2 0x85E CALLER DUP5 DUP4 DUP2 MLOAD DUP2 LT PUSH2 0x837 JUMPI PUSH2 0x837 PUSH2 0x29E9 JUMP JUMPDEST PUSH1 0x20 MUL PUSH1 0x20 ADD ADD MLOAD DUP5 DUP5 DUP2 MLOAD DUP2 LT PUSH2 0x851 JUMPI PUSH2 0x851 PUSH2 0x29E9 JUMP JUMPDEST PUSH1 0x20 MUL PUSH1 0x20 ADD ADD MLOAD PUSH2 0x19D0 JUMP JUMPDEST DUP1 PUSH2 0x868 DUP2 PUSH2 0x2978 JUMP JUMPDEST SWAP2 POP POP PUSH2 0x818 JUMP JUMPDEST POP POP POP JUMP JUMPDEST CALLER PUSH1 0x0 DUP2 DUP2 MSTORE PUSH1 0x3 PUSH1 0x20 SWAP1 DUP2 MSTORE PUSH1 0x40 DUP1 DUP4 KECCAK256 PUSH1 0x1 PUSH1 0x1 PUSH1 0xA0 SHL SUB DUP8 AND DUP5 MSTORE SWAP1 SWAP2 MSTORE DUP2 KECCAK256 SLOAD SWAP1 SWAP2 PUSH2 0x6E6 SWAP2 DUP6 SWAP1 PUSH2 0x74A SWAP1 DUP7 PUSH2 0x1B3E JUMP JUMPDEST PUSH1 0x12 SLOAD PUSH1 0x1 PUSH1 0x1 PUSH1 0xA0 SHL SUB AND CALLER PUSH1 0x1 PUSH1 0x1 PUSH1 0xA0 SHL SUB AND EQ PUSH2 0x8DE JUMPI PUSH1 0x40 MLOAD PUSH3 0x461BCD PUSH1 0xE5 SHL DUP2 MSTORE PUSH1 0x4 ADD PUSH2 0x7BC SWAP1 PUSH2 0x285F JUMP JUMPDEST PUSH2 0x8E8 DUP3 DUP3 PUSH2 0x1B4A JUMP JUMPDEST POP POP JUMP JUMPDEST PUSH1 0x12 SLOAD PUSH1 0x1 PUSH1 0x1 PUSH1 0xA0 SHL SUB AND CALLER PUSH1 0x1 PUSH1 0x1 PUSH1 0xA0 SHL SUB AND EQ PUSH2 0x91F JUMPI PUSH1 0x40 MLOAD PUSH3 0x461BCD PUSH1 0xE5 SHL DUP2 MSTORE PUSH1 0x4 ADD PUSH2 0x7BC SWAP1 PUSH2 0x285F JUMP JUMPDEST PUSH2 0x928 DUP2 PUSH2 0x1C9A JUMP JUMPDEST POP JUMP JUMPDEST PUSH1 0x0 PUSH1 0x8 SLOAD DUP4 GT ISZERO PUSH2 0x97F JUMPI PUSH1 0x40 MLOAD PUSH3 0x461BCD PUSH1 0xE5 SHL DUP2 MSTORE PUSH1 0x20 PUSH1 0x4 DUP3 ADD MSTORE PUSH1 0x1F PUSH1 0x24 DUP3 ADD MSTORE PUSH32 0x416D6F756E74206D757374206265206C657373207468616E20737570706C7900 PUSH1 0x44 DUP3 ADD MSTORE PUSH1 0x64 ADD PUSH2 0x7BC JUMP JUMPDEST DUP2 PUSH2 0x99D JUMPI PUSH1 0x0 PUSH2 0x98F DUP5 PUSH2 0x1DF4 JUMP JUMPDEST POP SWAP3 SWAP5 POP PUSH2 0x6EA SWAP4 POP POP POP POP JUMP JUMPDEST PUSH1 0x0 PUSH2 0x9A8 DUP5 PUSH2 0x1DF4 JUMP JUMPDEST POP SWAP2 SWAP5 POP PUSH2 0x6EA SWAP4 POP POP POP POP JUMP JUMPDEST PUSH1 0x11 SLOAD PUSH1 0x1 PUSH1 0x1 PUSH1 0xA0 SHL SUB AND CALLER EQ PUSH2 0xA10 JUMPI PUSH1 0x40 MLOAD PUSH3 0x461BCD PUSH1 0xE5 SHL DUP2 MSTORE PUSH1 0x20 PUSH1 0x4 DUP3 ADD MSTORE PUSH1 0x18 PUSH1 0x24 DUP3 ADD MSTORE PUSH32 0x43616C6C6572206973206E6F7420626F74206B65657065720000000000000000 PUSH1 0x44 DUP3 ADD MSTORE PUSH1 0x64 ADD PUSH2 0x7BC JUMP JUMPDEST DUP1 ISZERO PUSH2 0xA1E JUMPI PUSH2 0x928 PUSH2 0x1E40 JUMP JUMPDEST PUSH2 0x928 PUSH2 0x1EC2 JUMP JUMPDEST PUSH1 0x0 SLOAD PUSH1 0x1 PUSH1 0x1 PUSH1 0xA0 SHL SUB AND CALLER EQ PUSH2 0xA50 JUMPI PUSH1 0x40 MLOAD PUSH3 0x461BCD PUSH1 0xE5 SHL DUP2 MSTORE PUSH1 0x4 ADD PUSH2 0x7BC SWAP1 PUSH2 0x282A JUMP JUMPDEST PUSH1 0x7 SLOAD PUSH1 0xFF AND ISZERO PUSH2 0xA98 JUMPI PUSH1 0x40 MLOAD PUSH3 0x461BCD PUSH1 0xE5 SHL DUP2 MSTORE PUSH1 0x20 PUSH1 0x4 DUP3 ADD MSTORE PUSH1 0x12 PUSH1 0x24 DUP3 ADD MSTORE PUSH18 0x105B1C9958591E481C9959DA5CDD195C9959 PUSH1 0x72 SHL PUSH1 0x44 DUP3 ADD MSTORE PUSH1 0x64 ADD PUSH2 0x7BC JUMP JUMPDEST PUSH1 0x0 PUSH2 0xAA2 PUSH2 0x19AD JUMP JUMPDEST PUSH1 0x8 SLOAD SWAP1 SWAP2 POP PUSH2 0xABC SWAP1 PUSH10 0xD3C21BCECCEDA1000000 PUSH2 0x1B3E JUMP JUMPDEST PUSH1 0x8 SSTORE PUSH2 0xADF PUSH2 0xAD6 PUSH10 0xD3C21BCECCEDA1000000 DUP4 PUSH2 0x1F46 JUMP JUMPDEST PUSH1 0x9 SLOAD SWAP1 PUSH2 0x1B3E JUMP JUMPDEST PUSH1 0x9 SSTORE POP PUSH1 0x7 DUP1 SLOAD PUSH1 0xFF NOT AND PUSH1 0x1 OR SWAP1 SSTORE JUMP JUMPDEST PUSH1 0x0 SLOAD PUSH1 0x1 PUSH1 0x1 PUSH1 0xA0 SHL SUB AND CALLER EQ PUSH2 0xB1C JUMPI PUSH1 0x40 MLOAD PUSH3 0x461BCD PUSH1 0xE5 SHL DUP2 MSTORE PUSH1 0x4 ADD PUSH2 0x7BC SWAP1 PUSH2 0x282A JUMP JUMPDEST PUSH1 0x12 SLOAD PUSH1 0x40 MLOAD PUSH1 0x1 PUSH1 0x1 PUSH1 0xA0 SHL SUB DUP1 DUP5 AND SWAP3 AND SWAP1 PUSH32 0x66D091AFC9C26C3A7AC26AAF2264AA6935008E7AB1342C9477530129863995B5 SWAP1 PUSH1 0x0 SWAP1 LOG3 PUSH1 0x12 DUP1 SLOAD PUSH1 0x1 PUSH1 0x1 PUSH1 0xA0 SHL SUB NOT AND PUSH1 0x1 PUSH1 0x1 PUSH1 0xA0 SHL SUB SWAP3 SWAP1 SWAP3 AND SWAP2 SWAP1 SWAP2 OR SWAP1 SSTORE JUMP JUMPDEST PUSH1 0x0 PUSH2 0xB82 PUSH2 0x19AD JUMP JUMPDEST SWAP1 POP SWAP1 JUMP JUMPDEST PUSH1 0x1 PUSH1 0x1 PUSH1 0xA0 SHL SUB DUP2 AND PUSH1 0x0 SWAP1 DUP2 MSTORE PUSH1 0x5 PUSH1 0x20 MSTORE PUSH1 0x40 DUP2 KECCAK256 SLOAD PUSH1 0xFF AND ISZERO PUSH2 0xBC4 JUMPI POP PUSH1 0x1 PUSH1 0x1 PUSH1 0xA0 SHL SUB AND PUSH1 0x0 SWAP1 DUP2 MSTORE PUSH1 0x2 PUSH1 0x20 MSTORE PUSH1 0x40 SWAP1 KECCAK256 SLOAD SWAP1 JUMP JUMPDEST PUSH2 0x6EA PUSH2 0xBD0 DUP4 PUSH2 0xE31 JUMP JUMPDEST PUSH1 0x1 PUSH1 0x1 PUSH1 0xA0 SHL SUB DUP5 AND PUSH1 0x0 SWAP1 DUP2 MSTORE PUSH1 0x1 PUSH1 0x20 MSTORE PUSH1 0x40 SWAP1 KECCAK256 SLOAD PUSH2 0xBF2 SWAP1 PUSH2 0x759 JUMP JUMPDEST SWAP1 PUSH2 0x1B3E JUMP JUMPDEST PUSH1 0x0 SLOAD PUSH1 0x1 PUSH1 0x1 PUSH1 0xA0 SHL SUB AND CALLER EQ PUSH2 0xC22 JUMPI PUSH1 0x40 MLOAD PUSH3 0x461BCD PUSH1 0xE5 SHL DUP2 MSTORE PUSH1 0x4 ADD PUSH2 0x7BC SWAP1 PUSH2 0x282A JUMP JUMPDEST PUSH2 0xC2C PUSH1 0x0 PUSH2 0x1F52 JUMP JUMPDEST JUMP JUMPDEST PUSH1 0x0 SLOAD PUSH1 0x1 PUSH1 0x1 PUSH1 0xA0 SHL SUB AND CALLER EQ PUSH2 0xC58 JUMPI PUSH1 0x40 MLOAD PUSH3 0x461BCD PUSH1 0xE5 SHL DUP2 MSTORE PUSH1 0x4 ADD PUSH2 0x7BC SWAP1 PUSH2 0x282A JUMP JUMPDEST PUSH1 0x7 SLOAD PUSH1 0xFF AND PUSH2 0xC9C JUMPI PUSH1 0x40 MLOAD PUSH3 0x461BCD PUSH1 0xE5 SHL DUP2 MSTORE PUSH1 0x20 PUSH1 0x4 DUP3 ADD MSTORE PUSH1 0xF PUSH1 0x24 DUP3 ADD MSTORE PUSH15 0x3737BA103932B3B4B9BA32B932B21 PUSH1 0x8D SHL PUSH1 0x44 DUP3 ADD MSTORE PUSH1 0x64 ADD PUSH2 0x7BC JUMP JUMPDEST DUP2 MLOAD PUSH2 0xCB5 SWAP1 PUSH2 0xCAC SWAP1 DUP4 PUSH2 0x1F46 JUMP JUMPDEST PUSH1 0xF SLOAD SWAP1 PUSH2 0x1B3E JUMP JUMPDEST PUSH1 0xF DUP2 SWAP1 SSTORE PUSH10 0xD3C21BCECCEDA1000000 LT ISZERO PUSH2 0xD01 JUMPI PUSH1 0x40 MLOAD PUSH3 0x461BCD PUSH1 0xE5 SHL DUP2 MSTORE PUSH1 0x20 PUSH1 0x4 DUP3 ADD MSTORE PUSH1 0xB PUSH1 0x24 DUP3 ADD MSTORE PUSH11 0xCAF0C6CACAC8E640DAC2F PUSH1 0xAB SHL PUSH1 0x44 DUP3 ADD MSTORE PUSH1 0x64 ADD PUSH2 0x7BC JUMP JUMPDEST PUSH1 0x0 PUSH2 0xD0B PUSH2 0x19AD JUMP JUMPDEST SWAP1 POP PUSH1 0x0 JUMPDEST DUP4 MLOAD DUP2 LT ISZERO PUSH2 0xE1C JUMPI PUSH2 0xD73 PUSH2 0xD26 DUP5 DUP5 PUSH2 0x1F46 JUMP JUMPDEST PUSH1 0x1 PUSH1 0x0 DUP8 DUP6 DUP2 MLOAD DUP2 LT PUSH2 0xD3C JUMPI PUSH2 0xD3C PUSH2 0x29E9 JUMP JUMPDEST PUSH1 0x20 MUL PUSH1 0x20 ADD ADD MLOAD PUSH1 0x1 PUSH1 0x1 PUSH1 0xA0 SHL SUB AND PUSH1 0x1 PUSH1 0x1 PUSH1 0xA0 SHL SUB AND DUP2 MSTORE PUSH1 0x20 ADD SWAP1 DUP2 MSTORE PUSH1 0x20 ADD PUSH1 0x0 KECCAK256 SLOAD PUSH2 0x1B3E SWAP1 SWAP2 SWAP1 PUSH4 0xFFFFFFFF AND JUMP JUMPDEST PUSH1 0x1 PUSH1 0x0 DUP7 DUP5 DUP2 MLOAD DUP2 LT PUSH2 0xD89 JUMPI PUSH2 0xD89 PUSH2 0x29E9 JUMP JUMPDEST PUSH1 0x20 MUL PUSH1 0x20 ADD ADD MLOAD PUSH1 0x1 PUSH1 0x1 PUSH1 0xA0 SHL SUB AND PUSH1 0x1 PUSH1 0x1 PUSH1 0xA0 SHL SUB AND DUP2 MSTORE PUSH1 0x20 ADD SWAP1 DUP2 MSTORE PUSH1 0x20 ADD PUSH1 0x0 KECCAK256 DUP2 SWAP1 SSTORE POP DUP4 DUP2 DUP2 MLOAD DUP2 LT PUSH2 0xDC7 JUMPI PUSH2 0xDC7 PUSH2 0x29E9 JUMP JUMPDEST PUSH1 0x20 MUL PUSH1 0x20 ADD ADD MLOAD PUSH1 0x1 PUSH1 0x1 PUSH1 0xA0 SHL SUB AND PUSH1 0x0 PUSH1 0x1 PUSH1 0x1 PUSH1 0xA0 SHL SUB AND PUSH1 0x0 DUP1 MLOAD PUSH1 0x20 PUSH2 0x2A3E DUP4 CODECOPY DUP2 MLOAD SWAP2 MSTORE DUP6 PUSH1 0x40 MLOAD PUSH2 0xE02 SWAP2 DUP2 MSTORE PUSH1 0x20 ADD SWAP1 JUMP JUMPDEST PUSH1 0x40 MLOAD DUP1 SWAP2 SUB SWAP1 LOG3 DUP1 PUSH2 0xE14 DUP2 PUSH2 0x2978 JUMP JUMPDEST SWAP2 POP POP PUSH2 0xD10 JUMP JUMPDEST POP POP POP POP JUMP JUMPDEST PUSH1 0x60 PUSH1 0xC DUP1 SLOAD PUSH2 0x656 SWAP1 PUSH2 0x293D JUMP JUMPDEST PUSH1 0x1 PUSH1 0x1 PUSH1 0xA0 SHL SUB DUP2 AND PUSH1 0x0 SWAP1 DUP2 MSTORE PUSH1 0x4 PUSH1 0x20 MSTORE PUSH1 0x40 DUP2 KECCAK256 SLOAD PUSH2 0xE56 JUMPI POP POP PUSH1 0xE SLOAD SWAP1 JUMP JUMPDEST POP PUSH1 0x0 SWAP2 SWAP1 POP JUMP JUMPDEST PUSH1 0x0 PUSH2 0x6E6 CALLER DUP5 PUSH2 0x74A DUP6 PUSH1 0x40 MLOAD DUP1 PUSH1 0x60 ADD PUSH1 0x40 MSTORE DUP1 PUSH1 0x25 DUP2 MSTORE PUSH1 0x20 ADD PUSH2 0x2A5E PUSH1 0x25 SWAP2 CODECOPY CALLER PUSH1 0x0 SWAP1 DUP2 MSTORE PUSH1 0x3 PUSH1 0x20 SWAP1 DUP2 MSTORE PUSH1 0x40 DUP1 DUP4 KECCAK256 PUSH1 0x1 PUSH1 0x1 PUSH1 0xA0 SHL SUB DUP14 AND DUP5 MSTORE SWAP1 SWAP2 MSTORE SWAP1 KECCAK256 SLOAD SWAP2 SWAP1 PUSH2 0x1981 JUMP JUMPDEST PUSH1 0x0 PUSH2 0x6E6 CALLER DUP5 DUP5 PUSH2 0x16E0 JUMP JUMPDEST PUSH1 0x0 DUP1 PUSH2 0xEC5 PUSH2 0x1FA2 JUMP JUMPDEST SWAP2 POP SWAP2 POP SWAP1 SWAP2 JUMP JUMPDEST PUSH1 0x0 SLOAD PUSH1 0x1 PUSH1 0x1 PUSH1 0xA0 SHL SUB AND CALLER EQ PUSH2 0xEF7 JUMPI PUSH1 0x40 MLOAD PUSH3 0x461BCD PUSH1 0xE5 SHL DUP2 MSTORE PUSH1 0x4 ADD PUSH2 0x7BC SWAP1 PUSH2 0x282A JUMP JUMPDEST PUSH1 0x0 JUMPDEST DUP3 MLOAD DUP2 LT ISZERO PUSH2 0x870 JUMPI DUP3 DUP2 DUP2 MLOAD DUP2 LT PUSH2 0xF15 JUMPI PUSH2 0xF15 PUSH2 0x29E9 JUMP JUMPDEST PUSH1 0x20 MUL PUSH1 0x20 ADD ADD MLOAD PUSH1 0x1 PUSH1 0x1 PUSH1 0xA0 SHL SUB AND PUSH1 0x0 PUSH1 0x1 PUSH1 0x1 PUSH1 0xA0 SHL SUB AND PUSH1 0x0 DUP1 MLOAD PUSH1 0x20 PUSH2 0x2A3E DUP4 CODECOPY DUP2 MLOAD SWAP2 MSTORE DUP5 PUSH1 0x40 MLOAD PUSH2 0xF50 SWAP2 DUP2 MSTORE PUSH1 0x20 ADD SWAP1 JUMP JUMPDEST PUSH1 0x40 MLOAD DUP1 SWAP2 SUB SWAP1 LOG3 DUP1 PUSH2 0xF62 DUP2 PUSH2 0x2978 JUMP JUMPDEST SWAP2 POP POP PUSH2 0xEFA JUMP JUMPDEST PUSH1 0x0 SLOAD PUSH1 0x1 PUSH1 0x1 PUSH1 0xA0 SHL SUB AND CALLER EQ PUSH2 0xF94 JUMPI PUSH1 0x40 MLOAD PUSH3 0x461BCD PUSH1 0xE5 SHL DUP2 MSTORE PUSH1 0x4 ADD PUSH2 0x7BC SWAP1 PUSH2 0x282A JUMP JUMPDEST PUSH1 0x11 SLOAD PUSH1 0x40 MLOAD PUSH1 0x1 PUSH1 0x1 PUSH1 0xA0 SHL SUB DUP1 DUP5 AND SWAP3 AND SWAP1 PUSH32 0x87539E2E2A47DEF56CBBC1ACE5C120BE06F04B7A3C7A70A387F1D8E14CE315A6 SWAP1 PUSH1 0x0 SWAP1 LOG3 PUSH1 0x11 DUP1 SLOAD PUSH1 0x1 PUSH1 0x1 PUSH1 0xA0 SHL SUB NOT AND PUSH1 0x1 PUSH1 0x1 PUSH1 0xA0 SHL SUB SWAP3 SWAP1 SWAP3 AND SWAP2 SWAP1 SWAP2 OR SWAP1 SSTORE JUMP JUMPDEST PUSH1 0x0 SLOAD PUSH1 0x1 PUSH1 0x1 PUSH1 0xA0 SHL SUB AND CALLER EQ PUSH2 0x101A JUMPI PUSH1 0x40 MLOAD PUSH3 0x461BCD PUSH1 0xE5 SHL DUP2 MSTORE PUSH1 0x4 ADD PUSH2 0x7BC SWAP1 PUSH2 0x282A JUMP JUMPDEST PUSH2 0x1032 PUSH5 0x174876E800 PUSH2 0x102C PUSH1 0x8 SLOAD SWAP1 JUMP JUMPDEST SWAP1 PUSH2 0x15AF JUMP JUMPDEST DUP2 GT ISZERO PUSH2 0x1081 JUMPI PUSH1 0x40 MLOAD PUSH3 0x461BCD PUSH1 0xE5 SHL DUP2 MSTORE PUSH1 0x20 PUSH1 0x4 DUP3 ADD MSTORE PUSH1 0x17 PUSH1 0x24 DUP3 ADD MSTORE PUSH32 0x7365742067656E65736973207265776172643A20626164000000000000000000 PUSH1 0x44 DUP3 ADD MSTORE PUSH1 0x64 ADD PUSH2 0x7BC JUMP JUMPDEST PUSH1 0xE SLOAD PUSH1 0x40 MLOAD DUP3 SWAP2 SWAP1 PUSH32 0x8E32115A7F54666BF8087D1AF4AB7F86F8B817A6979903F742F0C90432ACD8EF SWAP1 PUSH1 0x0 SWAP1 LOG3 PUSH1 0xE SSTORE JUMP JUMPDEST PUSH1 0x12 SLOAD PUSH1 0x1 PUSH1 0x1 PUSH1 0xA0 SHL SUB AND CALLER PUSH1 0x1 PUSH1 0x1 PUSH1 0xA0 SHL SUB AND EQ PUSH2 0x10E8 JUMPI PUSH1 0x40 MLOAD PUSH3 0x461BCD PUSH1 0xE5 SHL DUP2 MSTORE PUSH1 0x4 ADD PUSH2 0x7BC SWAP1 PUSH2 0x285F JUMP JUMPDEST PUSH2 0x8E8 CALLER DUP4 DUP4 PUSH2 0x19D0 JUMP JUMPDEST CALLER PUSH1 0x0 DUP2 DUP2 MSTORE PUSH1 0x5 PUSH1 0x20 MSTORE PUSH1 0x40 SWAP1 KECCAK256 SLOAD PUSH1 0xFF AND ISZERO PUSH2 0x1168 JUMPI PUSH1 0x40 MLOAD PUSH3 0x461BCD PUSH1 0xE5 SHL DUP2 MSTORE PUSH1 0x20 PUSH1 0x4 DUP3 ADD MSTORE PUSH1 0x2C PUSH1 0x24 DUP3 ADD MSTORE PUSH32 0x4578636C75646564206164647265737365732063616E6E6F742063616C6C2074 PUSH1 0x44 DUP3 ADD MSTORE PUSH12 0x3434B990333AB731BA34B7B7 PUSH1 0xA1 SHL PUSH1 0x64 DUP3 ADD MSTORE PUSH1 0x84 ADD PUSH2 0x7BC JUMP JUMPDEST PUSH1 0x0 PUSH2 0x1173 DUP4 PUSH2 0x1DF4 JUMP JUMPDEST POP POP POP POP PUSH1 0x1 PUSH1 0x1 PUSH1 0xA0 SHL SUB DUP4 AND PUSH1 0x0 SWAP1 DUP2 MSTORE PUSH1 0x1 PUSH1 0x20 MSTORE PUSH1 0x40 SWAP1 KECCAK256 SLOAD SWAP1 SWAP2 POP PUSH2 0x119D SWAP1 DUP3 PUSH2 0x2124 JUMP JUMPDEST PUSH1 0x1 PUSH1 0x1 PUSH1 0xA0 SHL SUB DUP4 AND PUSH1 0x0 SWAP1 DUP2 MSTORE PUSH1 0x1 PUSH1 0x20 MSTORE PUSH1 0x40 SWAP1 KECCAK256 SSTORE PUSH1 0x9 SLOAD PUSH2 0x11C3 SWAP1 DUP3 PUSH2 0x2124 JUMP JUMPDEST PUSH1 0x9 SSTORE PUSH1 0xA SLOAD PUSH2 0x11D3 SWAP1 DUP5 PUSH2 0x1B3E JUMP JUMPDEST PUSH1 0xA SSTORE PUSH1 0x40 MLOAD DUP4 SWAP1 PUSH1 0x1 PUSH1 0x1 PUSH1 0xA0 SHL SUB DUP5 AND SWAP1 PUSH32 0x553260A2E46B0577270D8992DB02D30856CA880144C72D6E9503760946AEF13 SWAP1 PUSH1 0x0 SWAP1 LOG3 POP POP POP JUMP JUMPDEST PUSH1 0x0 SLOAD PUSH1 0x1 PUSH1 0x1 PUSH1 0xA0 SHL SUB AND CALLER EQ PUSH2 0x123B JUMPI PUSH1 0x40 MLOAD PUSH3 0x461BCD PUSH1 0xE5 SHL DUP2 MSTORE PUSH1 0x4 ADD PUSH2 0x7BC SWAP1 PUSH2 0x282A JUMP JUMPDEST PUSH1 0x1 PUSH1 0x1 PUSH1 0xA0 SHL SUB DUP2 AND PUSH1 0x0 SWAP1 DUP2 MSTORE PUSH1 0x5 PUSH1 0x20 MSTORE PUSH1 0x40 SWAP1 KECCAK256 SLOAD PUSH1 0xFF AND ISZERO PUSH2 0x12A4 JUMPI PUSH1 0x40 MLOAD PUSH3 0x461BCD PUSH1 0xE5 SHL DUP2 MSTORE PUSH1 0x20 PUSH1 0x4 DUP3 ADD MSTORE PUSH1 0x1B PUSH1 0x24 DUP3 ADD MSTORE PUSH32 0x4163636F756E7420697320616C7265616479206578636C756465640000000000 PUSH1 0x44 DUP3 ADD MSTORE PUSH1 0x64 ADD PUSH2 0x7BC JUMP JUMPDEST PUSH1 0x1 PUSH1 0x1 PUSH1 0xA0 SHL SUB DUP2 AND PUSH1 0x0 SWAP1 DUP2 MSTORE PUSH1 0x1 PUSH1 0x20 MSTORE PUSH1 0x40 SWAP1 KECCAK256 SLOAD ISZERO PUSH2 0x12FE JUMPI PUSH1 0x1 PUSH1 0x1 PUSH1 0xA0 SHL SUB DUP2 AND PUSH1 0x0 SWAP1 DUP2 MSTORE PUSH1 0x1 PUSH1 0x20 MSTORE PUSH1 0x40 SWAP1 KECCAK256 SLOAD PUSH2 0x12E4 SWAP1 PUSH2 0x759 JUMP JUMPDEST PUSH1 0x1 PUSH1 0x1 PUSH1 0xA0 SHL SUB DUP3 AND PUSH1 0x0 SWAP1 DUP2 MSTORE PUSH1 0x2 PUSH1 0x20 MSTORE PUSH1 0x40 SWAP1 KECCAK256 SSTORE JUMPDEST PUSH1 0x1 PUSH1 0x1 PUSH1 0xA0 SHL SUB AND PUSH1 0x0 DUP2 DUP2 MSTORE PUSH1 0x5 PUSH1 0x20 MSTORE PUSH1 0x40 DUP2 KECCAK256 DUP1 SLOAD PUSH1 0xFF NOT AND PUSH1 0x1 SWAP1 DUP2 OR SWAP1 SWAP2 SSTORE PUSH1 0x6 DUP1 SLOAD SWAP2 DUP3 ADD DUP2 SSTORE SWAP1 SWAP2 MSTORE PUSH32 0xF652222313E28459528D920B65115C16C04F3EFC82AAEDC97BE59F3F377C0D3F ADD DUP1 SLOAD PUSH1 0x1 PUSH1 0x1 PUSH1 0xA0 SHL SUB NOT AND SWAP1 SWAP2 OR SWAP1 SSTORE JUMP JUMPDEST PUSH1 0x0 SLOAD PUSH1 0x1 PUSH1 0x1 PUSH1 0xA0 SHL SUB AND CALLER EQ PUSH2 0x138E JUMPI PUSH1 0x40 MLOAD PUSH3 0x461BCD PUSH1 0xE5 SHL DUP2 MSTORE PUSH1 0x4 ADD PUSH2 0x7BC SWAP1 PUSH2 0x282A JUMP JUMPDEST PUSH1 0x1 PUSH1 0x1 PUSH1 0xA0 SHL SUB DUP2 AND PUSH2 0x13F3 JUMPI PUSH1 0x40 MLOAD PUSH3 0x461BCD PUSH1 0xE5 SHL DUP2 MSTORE PUSH1 0x20 PUSH1 0x4 DUP3 ADD MSTORE PUSH1 0x26 PUSH1 0x24 DUP3 ADD MSTORE PUSH32 0x4F776E61626C653A206E6577206F776E657220697320746865207A65726F2061 PUSH1 0x44 DUP3 ADD MSTORE PUSH6 0x646472657373 PUSH1 0xD0 SHL PUSH1 0x64 DUP3 ADD MSTORE PUSH1 0x84 ADD PUSH2 0x7BC JUMP JUMPDEST PUSH2 0x928 DUP2 PUSH2 0x1F52 JUMP JUMPDEST PUSH1 0x0 SLOAD PUSH1 0x1 PUSH1 0x1 PUSH1 0xA0 SHL SUB AND CALLER EQ PUSH2 0x1426 JUMPI PUSH1 0x40 MLOAD PUSH3 0x461BCD PUSH1 0xE5 SHL DUP2 MSTORE PUSH1 0x4 ADD PUSH2 0x7BC SWAP1 PUSH2 0x282A JUMP JUMPDEST PUSH1 0x1 PUSH1 0x1 PUSH1 0xA0 SHL SUB DUP2 AND PUSH1 0x0 SWAP1 DUP2 MSTORE PUSH1 0x5 PUSH1 0x20 MSTORE PUSH1 0x40 SWAP1 KECCAK256 SLOAD PUSH1 0xFF AND PUSH2 0x148E JUMPI PUSH1 0x40 MLOAD PUSH3 0x461BCD PUSH1 0xE5 SHL DUP2 MSTORE PUSH1 0x20 PUSH1 0x4 DUP3 ADD MSTORE PUSH1 0x1B PUSH1 0x24 DUP3 ADD MSTORE PUSH32 0x4163636F756E7420697320616C7265616479206578636C756465640000000000 PUSH1 0x44 DUP3 ADD MSTORE PUSH1 0x64 ADD PUSH2 0x7BC JUMP JUMPDEST PUSH1 0x0 JUMPDEST PUSH1 0x6 SLOAD DUP2 LT ISZERO PUSH2 0x8E8 JUMPI DUP2 PUSH1 0x1 PUSH1 0x1 PUSH1 0xA0 SHL SUB AND PUSH1 0x6 DUP3 DUP2 SLOAD DUP2 LT PUSH2 0x14B8 JUMPI PUSH2 0x14B8 PUSH2 0x29E9 JUMP JUMPDEST PUSH1 0x0 SWAP2 DUP3 MSTORE PUSH1 0x20 SWAP1 SWAP2 KECCAK256 ADD SLOAD PUSH1 0x1 PUSH1 0x1 PUSH1 0xA0 SHL SUB AND EQ ISZERO PUSH2 0x159D JUMPI PUSH1 0x6 DUP1 SLOAD PUSH2 0x14E3 SWAP1 PUSH1 0x1 SWAP1 PUSH2 0x2926 JUMP JUMPDEST DUP2 SLOAD DUP2 LT PUSH2 0x14F3 JUMPI PUSH2 0x14F3 PUSH2 0x29E9 JUMP JUMPDEST PUSH1 0x0 SWAP2 DUP3 MSTORE PUSH1 0x20 SWAP1 SWAP2 KECCAK256 ADD SLOAD PUSH1 0x6 DUP1 SLOAD PUSH1 0x1 PUSH1 0x1 PUSH1 0xA0 SHL SUB SWAP1 SWAP3 AND SWAP2 DUP4 SWAP1 DUP2 LT PUSH2 0x151F JUMPI PUSH2 0x151F PUSH2 0x29E9 JUMP JUMPDEST PUSH1 0x0 SWAP2 DUP3 MSTORE PUSH1 0x20 DUP1 DUP4 KECCAK256 SWAP2 SWAP1 SWAP2 ADD DUP1 SLOAD PUSH1 0x1 PUSH1 0x1 PUSH1 0xA0 SHL SUB NOT AND PUSH1 0x1 PUSH1 0x1 PUSH1 0xA0 SHL SUB SWAP5 DUP6 AND OR SWAP1 SSTORE SWAP2 DUP5 AND DUP2 MSTORE PUSH1 0x2 DUP3 MSTORE PUSH1 0x40 DUP1 DUP3 KECCAK256 DUP3 SWAP1 SSTORE PUSH1 0x5 SWAP1 SWAP3 MSTORE KECCAK256 DUP1 SLOAD PUSH1 0xFF NOT AND SWAP1 SSTORE PUSH1 0x6 DUP1 SLOAD DUP1 PUSH2 0x1577 JUMPI PUSH2 0x1577 PUSH2 0x29D3 JUMP JUMPDEST PUSH1 0x0 DUP3 DUP2 MSTORE PUSH1 0x20 SWAP1 KECCAK256 DUP2 ADD PUSH1 0x0 NOT SWAP1 DUP2 ADD DUP1 SLOAD PUSH1 0x1 PUSH1 0x1 PUSH1 0xA0 SHL SUB NOT AND SWAP1 SSTORE ADD SWAP1 SSTORE POP POP JUMP JUMPDEST DUP1 PUSH2 0x15A7 DUP2 PUSH2 0x2978 JUMP JUMPDEST SWAP2 POP POP PUSH2 0x1491 JUMP JUMPDEST PUSH1 0x0 PUSH2 0x7DB DUP3 DUP5 PUSH2 0x28F3 JUMP JUMPDEST PUSH1 0x1 PUSH1 0x1 PUSH1 0xA0 SHL SUB DUP4 AND PUSH2 0x161D JUMPI PUSH1 0x40 MLOAD PUSH3 0x461BCD PUSH1 0xE5 SHL DUP2 MSTORE PUSH1 0x20 PUSH1 0x4 DUP3 ADD MSTORE PUSH1 0x24 DUP1 DUP3 ADD MSTORE PUSH32 0x45524332303A20617070726F76652066726F6D20746865207A65726F20616464 PUSH1 0x44 DUP3 ADD MSTORE PUSH4 0x72657373 PUSH1 0xE0 SHL PUSH1 0x64 DUP3 ADD MSTORE PUSH1 0x84 ADD PUSH2 0x7BC JUMP JUMPDEST PUSH1 0x1 PUSH1 0x1 PUSH1 0xA0 SHL SUB DUP3 AND PUSH2 0x167E JUMPI PUSH1 0x40 MLOAD PUSH3 0x461BCD PUSH1 0xE5 SHL DUP2 MSTORE PUSH1 0x20 PUSH1 0x4 DUP3 ADD MSTORE PUSH1 0x22 PUSH1 0x24 DUP3 ADD MSTORE PUSH32 0x45524332303A20617070726F766520746F20746865207A65726F206164647265 PUSH1 0x44 DUP3 ADD MSTORE PUSH2 0x7373 PUSH1 0xF0 SHL PUSH1 0x64 DUP3 ADD MSTORE PUSH1 0x84 ADD PUSH2 0x7BC JUMP JUMPDEST PUSH1 0x1 PUSH1 0x1 PUSH1 0xA0 SHL SUB DUP4 DUP2 AND PUSH1 0x0 DUP2 DUP2 MSTORE PUSH1 0x3 PUSH1 0x20 SWAP1 DUP2 MSTORE PUSH1 0x40 DUP1 DUP4 KECCAK256 SWAP5 DUP8 AND DUP1 DUP5 MSTORE SWAP5 DUP3 MSTORE SWAP2 DUP3 SWAP1 KECCAK256 DUP6 SWAP1 SSTORE SWAP1 MLOAD DUP5 DUP2 MSTORE PUSH32 0x8C5BE1E5EBEC7D5BD14F71427D1E84F3DD0314C0F7B2291E5B200AC8C7C3B925 SWAP2 ADD JUMPDEST PUSH1 0x40 MLOAD DUP1 SWAP2 SUB SWAP1 LOG3 POP POP POP JUMP JUMPDEST PUSH1 0x0 SLOAD PUSH1 0x1 PUSH1 0xA0 SHL SWAP1 DIV PUSH1 0xFF AND ISZERO PUSH2 0x170A JUMPI PUSH1 0x40 MLOAD PUSH3 0x461BCD PUSH1 0xE5 SHL DUP2 MSTORE PUSH1 0x4 ADD PUSH2 0x7BC SWAP1 PUSH2 0x2800 JUMP JUMPDEST PUSH1 0x1 PUSH1 0x1 PUSH1 0xA0 SHL SUB DUP4 AND PUSH2 0x176E JUMPI PUSH1 0x40 MLOAD PUSH3 0x461BCD PUSH1 0xE5 SHL DUP2 MSTORE PUSH1 0x20 PUSH1 0x4 DUP3 ADD MSTORE PUSH1 0x25 PUSH1 0x24 DUP3 ADD MSTORE PUSH32 0x45524332303A207472616E736665722066726F6D20746865207A65726F206164 PUSH1 0x44 DUP3 ADD MSTORE PUSH5 0x6472657373 PUSH1 0xD8 SHL PUSH1 0x64 DUP3 ADD MSTORE PUSH1 0x84 ADD PUSH2 0x7BC JUMP JUMPDEST PUSH1 0x1 PUSH1 0x1 PUSH1 0xA0 SHL SUB DUP3 AND PUSH2 0x17D0 JUMPI PUSH1 0x40 MLOAD PUSH3 0x461BCD PUSH1 0xE5 SHL DUP2 MSTORE PUSH1 0x20 PUSH1 0x4 DUP3 ADD MSTORE PUSH1 0x23 PUSH1 0x24 DUP3 ADD MSTORE PUSH32 0x45524332303A207472616E7366657220746F20746865207A65726F2061646472 PUSH1 0x44 DUP3 ADD MSTORE PUSH3 0x657373 PUSH1 0xE8 SHL PUSH1 0x64 DUP3 ADD MSTORE PUSH1 0x84 ADD PUSH2 0x7BC JUMP JUMPDEST PUSH1 0x0 DUP2 GT PUSH2 0x1832 JUMPI PUSH1 0x40 MLOAD PUSH3 0x461BCD PUSH1 0xE5 SHL DUP2 MSTORE PUSH1 0x20 PUSH1 0x4 DUP3 ADD MSTORE PUSH1 0x29 PUSH1 0x24 DUP3 ADD MSTORE PUSH32 0x5472616E7366657220616D6F756E74206D757374206265206772656174657220 PUSH1 0x44 DUP3 ADD MSTORE PUSH9 0x7468616E207A65726F PUSH1 0xB8 SHL PUSH1 0x64 DUP3 ADD MSTORE PUSH1 0x84 ADD PUSH2 0x7BC JUMP JUMPDEST PUSH1 0x1 PUSH1 0x1 PUSH1 0xA0 SHL SUB DUP4 AND PUSH1 0x0 SWAP1 DUP2 MSTORE PUSH1 0x5 PUSH1 0x20 MSTORE PUSH1 0x40 SWAP1 KECCAK256 SLOAD PUSH1 0xFF AND DUP1 ISZERO PUSH2 0x1873 JUMPI POP PUSH1 0x1 PUSH1 0x1 PUSH1 0xA0 SHL SUB DUP3 AND PUSH1 0x0 SWAP1 DUP2 MSTORE PUSH1 0x5 PUSH1 0x20 MSTORE PUSH1 0x40 SWAP1 KECCAK256 SLOAD PUSH1 0xFF AND ISZERO JUMPDEST ISZERO PUSH2 0x1883 JUMPI PUSH2 0x870 DUP4 DUP4 DUP4 PUSH2 0x2130 JUMP JUMPDEST PUSH1 0x1 PUSH1 0x1 PUSH1 0xA0 SHL SUB DUP4 AND PUSH1 0x0 SWAP1 DUP2 MSTORE PUSH1 0x5 PUSH1 0x20 MSTORE PUSH1 0x40 SWAP1 KECCAK256 SLOAD PUSH1 0xFF AND ISZERO DUP1 ISZERO PUSH2 0x18C4 JUMPI POP PUSH1 0x1 PUSH1 0x1 PUSH1 0xA0 SHL SUB DUP3 AND PUSH1 0x0 SWAP1 DUP2 MSTORE PUSH1 0x5 PUSH1 0x20 MSTORE PUSH1 0x40 SWAP1 KECCAK256 SLOAD PUSH1 0xFF AND JUMPDEST ISZERO PUSH2 0x18D4 JUMPI PUSH2 0x870 DUP4 DUP4 DUP4 PUSH2 0x22AD JUMP JUMPDEST PUSH1 0x1 PUSH1 0x1 PUSH1 0xA0 SHL SUB DUP4 AND PUSH1 0x0 SWAP1 DUP2 MSTORE PUSH1 0x5 PUSH1 0x20 MSTORE PUSH1 0x40 SWAP1 KECCAK256 SLOAD PUSH1 0xFF AND ISZERO DUP1 ISZERO PUSH2 0x1916 JUMPI POP PUSH1 0x1 PUSH1 0x1 PUSH1 0xA0 SHL SUB DUP3 AND PUSH1 0x0 SWAP1 DUP2 MSTORE PUSH1 0x5 PUSH1 0x20 MSTORE PUSH1 0x40 SWAP1 KECCAK256 SLOAD PUSH1 0xFF AND ISZERO JUMPDEST ISZERO PUSH2 0x1926 JUMPI PUSH2 0x870 DUP4 DUP4 DUP4 PUSH2 0x23BB JUMP JUMPDEST PUSH1 0x1 PUSH1 0x1 PUSH1 0xA0 SHL SUB DUP4 AND PUSH1 0x0 SWAP1 DUP2 MSTORE PUSH1 0x5 PUSH1 0x20 MSTORE PUSH1 0x40 SWAP1 KECCAK256 SLOAD PUSH1 0xFF AND DUP1 ISZERO PUSH2 0x1966 JUMPI POP PUSH1 0x1 PUSH1 0x1 PUSH1 0xA0 SHL SUB DUP3 AND PUSH1 0x0 SWAP1 DUP2 MSTORE PUSH1 0x5 PUSH1 0x20 MSTORE PUSH1 0x40 SWAP1 KECCAK256 SLOAD PUSH1 0xFF AND JUMPDEST ISZERO PUSH2 0x1976 JUMPI PUSH2 0x870 DUP4 DUP4 DUP4 PUSH2 0x23FC JUMP JUMPDEST PUSH2 0x870 DUP4 DUP4 DUP4 PUSH2 0x23BB JUMP JUMPDEST PUSH1 0x0 DUP2 DUP5 DUP5 GT ISZERO PUSH2 0x19A5 JUMPI PUSH1 0x40 MLOAD PUSH3 0x461BCD PUSH1 0xE5 SHL DUP2 MSTORE PUSH1 0x4 ADD PUSH2 0x7BC SWAP2 SWAP1 PUSH2 0x27AB JUMP JUMPDEST POP POP POP SWAP1 SUB SWAP1 JUMP JUMPDEST PUSH1 0x0 DUP1 PUSH1 0x0 PUSH2 0x19BA PUSH2 0x1FA2 JUMP JUMPDEST SWAP1 SWAP3 POP SWAP1 POP PUSH2 0x19C9 DUP3 DUP3 PUSH2 0x15AF JUMP JUMPDEST SWAP3 POP POP POP SWAP1 JUMP JUMPDEST PUSH1 0x0 SLOAD PUSH1 0x1 PUSH1 0xA0 SHL SWAP1 DIV PUSH1 0xFF AND ISZERO PUSH2 0x19FA JUMPI PUSH1 0x40 MLOAD PUSH3 0x461BCD PUSH1 0xE5 SHL DUP2 MSTORE PUSH1 0x4 ADD PUSH2 0x7BC SWAP1 PUSH2 0x2800 JUMP JUMPDEST PUSH1 0x1 PUSH1 0x1 PUSH1 0xA0 SHL SUB DUP4 AND PUSH1 0x0 SWAP1 DUP2 MSTORE PUSH1 0x5 PUSH1 0x20 MSTORE PUSH1 0x40 SWAP1 KECCAK256 SLOAD PUSH1 0xFF AND DUP1 ISZERO PUSH2 0x1A3B JUMPI POP PUSH1 0x1 PUSH1 0x1 PUSH1 0xA0 SHL SUB DUP3 AND PUSH1 0x0 SWAP1 DUP2 MSTORE PUSH1 0x5 PUSH1 0x20 MSTORE PUSH1 0x40 SWAP1 KECCAK256 SLOAD PUSH1 0xFF AND ISZERO JUMPDEST ISZERO PUSH2 0x1A4B JUMPI PUSH2 0x870 DUP4 DUP4 DUP4 PUSH2 0x2130 JUMP JUMPDEST PUSH1 0x1 PUSH1 0x1 PUSH1 0xA0 SHL SUB DUP4 AND PUSH1 0x0 SWAP1 DUP2 MSTORE PUSH1 0x5 PUSH1 0x20 MSTORE PUSH1 0x40 SWAP1 KECCAK256 SLOAD PUSH1 0xFF AND DUP1 ISZERO PUSH2 0x1A8B JUMPI POP PUSH1 0x1 PUSH1 0x1 PUSH1 0xA0 SHL SUB DUP3 AND PUSH1 0x0 SWAP1 DUP2 MSTORE PUSH1 0x5 PUSH1 0x20 MSTORE PUSH1 0x40 SWAP1 KECCAK256 SLOAD PUSH1 0xFF AND JUMPDEST ISZERO PUSH2 0x1A9B JUMPI PUSH2 0x870 DUP4 DUP4 DUP4 PUSH2 0x23FC JUMP JUMPDEST PUSH1 0x1 PUSH1 0x1 PUSH1 0xA0 SHL SUB DUP4 AND PUSH1 0x0 SWAP1 DUP2 MSTORE PUSH1 0x5 PUSH1 0x20 MSTORE PUSH1 0x40 SWAP1 KECCAK256 SLOAD PUSH1 0xFF AND ISZERO DUP1 ISZERO PUSH2 0x1ADC JUMPI POP PUSH1 0x1 PUSH1 0x1 PUSH1 0xA0 SHL SUB DUP3 AND PUSH1 0x0 SWAP1 DUP2 MSTORE PUSH1 0x5 PUSH1 0x20 MSTORE PUSH1 0x40 SWAP1 KECCAK256 SLOAD PUSH1 0xFF AND JUMPDEST ISZERO PUSH2 0x1AEC JUMPI PUSH2 0x870 DUP4 DUP4 DUP4 PUSH2 0x22AD JUMP JUMPDEST PUSH1 0x1 PUSH1 0x1 PUSH1 0xA0 SHL SUB DUP4 AND PUSH1 0x0 SWAP1 DUP2 MSTORE PUSH1 0x5 PUSH1 0x20 MSTORE PUSH1 0x40 SWAP1 KECCAK256 SLOAD PUSH1 0xFF AND ISZERO DUP1 ISZERO PUSH2 0x1B2E JUMPI POP PUSH1 0x1 PUSH1 0x1 PUSH1 0xA0 SHL SUB DUP3 AND PUSH1 0x0 SWAP1 DUP2 MSTORE PUSH1 0x5 PUSH1 0x20 MSTORE PUSH1 0x40 SWAP1 KECCAK256 SLOAD PUSH1 0xFF AND ISZERO JUMPDEST ISZERO PUSH2 0x1976 JUMPI PUSH2 0x870 DUP4 DUP4 DUP4 PUSH2 0x23BB JUMP JUMPDEST PUSH1 0x0 PUSH2 0x7DB DUP3 DUP5 PUSH2 0x28DB JUMP JUMPDEST PUSH2 0x1B5E PUSH10 0x152D02C7E14AF6800000 DUP3 PUSH2 0x2993 JUMP JUMPDEST ISZERO PUSH2 0x1BAB JUMPI PUSH1 0x40 MLOAD PUSH3 0x461BCD PUSH1 0xE5 SHL DUP2 MSTORE PUSH1 0x20 PUSH1 0x4 DUP3 ADD MSTORE PUSH1 0x17 PUSH1 0x24 DUP3 ADD MSTORE PUSH32 0x43616E6E6F74206D696E74207468697320616D6F756E74000000000000000000 PUSH1 0x44 DUP3 ADD MSTORE PUSH1 0x64 ADD PUSH2 0x7BC JUMP JUMPDEST PUSH1 0x0 PUSH2 0x1BB5 PUSH2 0x19AD JUMP JUMPDEST PUSH1 0x8 SLOAD SWAP1 SWAP2 POP PUSH2 0x1BC5 SWAP1 DUP4 PUSH2 0x1B3E JUMP JUMPDEST PUSH1 0x8 SSTORE PUSH2 0x1BD5 PUSH2 0xAD6 DUP4 DUP4 PUSH2 0x1F46 JUMP JUMPDEST PUSH1 0x9 SSTORE PUSH2 0x1C04 PUSH2 0x1BE5 DUP4 DUP4 PUSH2 0x1F46 JUMP JUMPDEST PUSH1 0x1 PUSH1 0x1 PUSH1 0xA0 SHL SUB DUP6 AND PUSH1 0x0 SWAP1 DUP2 MSTORE PUSH1 0x1 PUSH1 0x20 MSTORE PUSH1 0x40 SWAP1 KECCAK256 SLOAD SWAP1 PUSH2 0x1B3E JUMP JUMPDEST PUSH1 0x1 PUSH1 0x1 PUSH1 0xA0 SHL SUB DUP5 AND PUSH1 0x0 SWAP1 DUP2 MSTORE PUSH1 0x1 PUSH1 0x20 SWAP1 DUP2 MSTORE PUSH1 0x40 DUP1 DUP4 KECCAK256 SWAP4 SWAP1 SWAP4 SSTORE PUSH1 0x5 SWAP1 MSTORE KECCAK256 SLOAD PUSH1 0xFF AND ISZERO PUSH2 0x1C6E JUMPI PUSH1 0x1 PUSH1 0x1 PUSH1 0xA0 SHL SUB DUP4 AND PUSH1 0x0 SWAP1 DUP2 MSTORE PUSH1 0x2 PUSH1 0x20 MSTORE PUSH1 0x40 SWAP1 KECCAK256 SLOAD PUSH2 0x1C54 SWAP1 DUP4 PUSH2 0x1B3E JUMP JUMPDEST PUSH1 0x1 PUSH1 0x1 PUSH1 0xA0 SHL SUB DUP5 AND PUSH1 0x0 SWAP1 DUP2 MSTORE PUSH1 0x2 PUSH1 0x20 MSTORE PUSH1 0x40 SWAP1 KECCAK256 SSTORE JUMPDEST PUSH1 0x40 MLOAD DUP3 DUP2 MSTORE PUSH1 0x1 PUSH1 0x1 PUSH1 0xA0 SHL SUB DUP5 AND SWAP1 PUSH1 0x0 SWAP1 PUSH1 0x0 DUP1 MLOAD PUSH1 0x20 PUSH2 0x2A3E DUP4 CODECOPY DUP2 MLOAD SWAP2 MSTORE SWAP1 PUSH1 0x20 ADD PUSH2 0x16D3 JUMP JUMPDEST PUSH2 0x1CAE PUSH10 0x152D02C7E14AF6800000 DUP3 PUSH2 0x2993 JUMP JUMPDEST ISZERO PUSH2 0x1CFB JUMPI PUSH1 0x40 MLOAD PUSH3 0x461BCD PUSH1 0xE5 SHL DUP2 MSTORE PUSH1 0x20 PUSH1 0x4 DUP3 ADD MSTORE PUSH1 0x17 PUSH1 0x24 DUP3 ADD MSTORE PUSH32 0x43616E6E6F74206275726E207468697320616D6F756E74000000000000000000 PUSH1 0x44 DUP3 ADD MSTORE PUSH1 0x64 ADD PUSH2 0x7BC JUMP JUMPDEST CALLER PUSH1 0x0 PUSH2 0x1D06 PUSH2 0x19AD JUMP JUMPDEST PUSH1 0x8 SLOAD SWAP1 SWAP2 POP PUSH2 0x1D16 SWAP1 DUP5 PUSH2 0x2124 JUMP JUMPDEST PUSH1 0x8 SSTORE PUSH2 0x1D2F PUSH2 0x1D26 DUP5 DUP4 PUSH2 0x1F46 JUMP JUMPDEST PUSH1 0x9 SLOAD SWAP1 PUSH2 0x2124 JUMP JUMPDEST PUSH1 0x9 SSTORE PUSH2 0x1D5E PUSH2 0x1D3F DUP5 DUP4 PUSH2 0x1F46 JUMP JUMPDEST PUSH1 0x1 PUSH1 0x1 PUSH1 0xA0 SHL SUB DUP5 AND PUSH1 0x0 SWAP1 DUP2 MSTORE PUSH1 0x1 PUSH1 0x20 MSTORE PUSH1 0x40 SWAP1 KECCAK256 SLOAD SWAP1 PUSH2 0x2124 JUMP JUMPDEST PUSH1 0x1 PUSH1 0x1 PUSH1 0xA0 SHL SUB DUP4 AND PUSH1 0x0 SWAP1 DUP2 MSTORE PUSH1 0x1 PUSH1 0x20 SWAP1 DUP2 MSTORE PUSH1 0x40 DUP1 DUP4 KECCAK256 SWAP4 SWAP1 SWAP4 SSTORE PUSH1 0x5 SWAP1 MSTORE KECCAK256 SLOAD PUSH1 0xFF AND ISZERO PUSH2 0x1DC8 JUMPI PUSH1 0x1 PUSH1 0x1 PUSH1 0xA0 SHL SUB DUP3 AND PUSH1 0x0 SWAP1 DUP2 MSTORE PUSH1 0x2 PUSH1 0x20 MSTORE PUSH1 0x40 SWAP1 KECCAK256 SLOAD PUSH2 0x1DAE SWAP1 DUP5 PUSH2 0x2124 JUMP JUMPDEST PUSH1 0x1 PUSH1 0x1 PUSH1 0xA0 SHL SUB DUP4 AND PUSH1 0x0 SWAP1 DUP2 MSTORE PUSH1 0x2 PUSH1 0x20 MSTORE PUSH1 0x40 SWAP1 KECCAK256 SSTORE JUMPDEST PUSH1 0x40 MLOAD DUP4 DUP2 MSTORE PUSH1 0x0 SWAP1 PUSH1 0x1 PUSH1 0x1 PUSH1 0xA0 SHL SUB DUP5 AND SWAP1 PUSH1 0x0 DUP1 MLOAD PUSH1 0x20 PUSH2 0x2A3E DUP4 CODECOPY DUP2 MLOAD SWAP2 MSTORE SWAP1 PUSH1 0x20 ADD PUSH2 0x16D3 JUMP JUMPDEST PUSH1 0x0 DUP1 PUSH1 0x0 DUP1 PUSH1 0x0 DUP1 PUSH1 0x0 PUSH2 0x1E08 DUP9 PUSH2 0x246C JUMP JUMPDEST SWAP2 POP SWAP2 POP PUSH1 0x0 PUSH2 0x1E16 PUSH2 0x19AD JUMP JUMPDEST SWAP1 POP PUSH1 0x0 DUP1 PUSH1 0x0 PUSH2 0x1E28 DUP13 DUP7 DUP7 PUSH2 0x2494 JUMP JUMPDEST SWAP2 SWAP15 SWAP1 SWAP14 POP SWAP1 SWAP12 POP SWAP6 SWAP10 POP SWAP4 SWAP8 POP SWAP4 SWAP6 POP POP POP POP POP POP JUMP JUMPDEST PUSH1 0x0 SLOAD PUSH1 0x1 PUSH1 0xA0 SHL SWAP1 DIV PUSH1 0xFF AND ISZERO PUSH2 0x1E6A JUMPI PUSH1 0x40 MLOAD PUSH3 0x461BCD PUSH1 0xE5 SHL DUP2 MSTORE PUSH1 0x4 ADD PUSH2 0x7BC SWAP1 PUSH2 0x2800 JUMP JUMPDEST PUSH1 0x0 DUP1 SLOAD PUSH1 0xFF PUSH1 0xA0 SHL NOT AND PUSH1 0x1 PUSH1 0xA0 SHL OR SWAP1 SSTORE PUSH32 0x62E78CEA01BEE320CD4E420270B5EA74000D11B0C9F74754EBDBFC544B05A258 PUSH2 0x1EA5 CALLER SWAP1 JUMP JUMPDEST PUSH1 0x40 MLOAD PUSH1 0x1 PUSH1 0x1 PUSH1 0xA0 SHL SUB SWAP1 SWAP2 AND DUP2 MSTORE PUSH1 0x20 ADD PUSH1 0x40 MLOAD DUP1 SWAP2 SUB SWAP1 LOG1 JUMP JUMPDEST PUSH1 0x0 SLOAD PUSH1 0x1 PUSH1 0xA0 SHL SWAP1 DIV PUSH1 0xFF AND PUSH2 0x1F12 JUMPI PUSH1 0x40 MLOAD PUSH3 0x461BCD PUSH1 0xE5 SHL DUP2 MSTORE PUSH1 0x20 PUSH1 0x4 DUP3 ADD MSTORE PUSH1 0x14 PUSH1 0x24 DUP3 ADD MSTORE PUSH20 0x14185D5CD8589B194E881B9BDD081C185D5CD959 PUSH1 0x62 SHL PUSH1 0x44 DUP3 ADD MSTORE PUSH1 0x64 ADD PUSH2 0x7BC JUMP JUMPDEST PUSH1 0x0 DUP1 SLOAD PUSH1 0xFF PUSH1 0xA0 SHL NOT AND SWAP1 SSTORE PUSH32 0x5DB9EE0A495BF2E6FF9C91A7834C1BA4FDD244A5E8AA4E537BD38AEAE4B073AA CALLER PUSH2 0x1EA5 JUMP JUMPDEST PUSH1 0x0 PUSH2 0x7DB DUP3 DUP5 PUSH2 0x2907 JUMP JUMPDEST PUSH1 0x0 DUP1 SLOAD PUSH1 0x1 PUSH1 0x1 PUSH1 0xA0 SHL SUB DUP4 DUP2 AND PUSH1 0x1 PUSH1 0x1 PUSH1 0xA0 SHL SUB NOT DUP4 AND DUP2 OR DUP5 SSTORE PUSH1 0x40 MLOAD SWAP2 SWAP1 SWAP3 AND SWAP3 DUP4 SWAP2 PUSH32 0x8BE0079C531659141344CD1FD0A4F28419497F9722A3DAAFE3B4186F6B6457E0 SWAP2 SWAP1 LOG3 POP POP JUMP JUMPDEST PUSH1 0x9 SLOAD PUSH1 0x8 SLOAD PUSH1 0x0 SWAP2 DUP3 SWAP2 DUP3 JUMPDEST PUSH1 0x6 SLOAD DUP2 LT ISZERO PUSH2 0x20F4 JUMPI DUP3 PUSH1 0x1 PUSH1 0x0 PUSH1 0x6 DUP5 DUP2 SLOAD DUP2 LT PUSH2 0x1FD1 JUMPI PUSH2 0x1FD1 PUSH2 0x29E9 JUMP JUMPDEST PUSH1 0x0 SWAP2 DUP3 MSTORE PUSH1 0x20 DUP1 DUP4 KECCAK256 SWAP1 SWAP2 ADD SLOAD PUSH1 0x1 PUSH1 0x1 PUSH1 0xA0 SHL SUB AND DUP4 MSTORE DUP3 ADD SWAP3 SWAP1 SWAP3 MSTORE PUSH1 0x40 ADD SWAP1 KECCAK256 SLOAD GT DUP1 PUSH2 0x203C JUMPI POP DUP2 PUSH1 0x2 PUSH1 0x0 PUSH1 0x6 DUP5 DUP2 SLOAD DUP2 LT PUSH2 0x2015 JUMPI PUSH2 0x2015 PUSH2 0x29E9 JUMP JUMPDEST PUSH1 0x0 SWAP2 DUP3 MSTORE PUSH1 0x20 DUP1 DUP4 KECCAK256 SWAP1 SWAP2 ADD SLOAD PUSH1 0x1 PUSH1 0x1 PUSH1 0xA0 SHL SUB AND DUP4 MSTORE DUP3 ADD SWAP3 SWAP1 SWAP3 MSTORE PUSH1 0x40 ADD SWAP1 KECCAK256 SLOAD GT JUMPDEST ISZERO PUSH2 0x2052 JUMPI PUSH1 0x9 SLOAD PUSH1 0x8 SLOAD SWAP5 POP SWAP5 POP POP POP POP SWAP1 SWAP2 JUMP JUMPDEST PUSH2 0x2098 PUSH1 0x1 PUSH1 0x0 PUSH1 0x6 DUP5 DUP2 SLOAD DUP2 LT PUSH2 0x206C JUMPI PUSH2 0x206C PUSH2 0x29E9 JUMP JUMPDEST PUSH1 0x0 SWAP2 DUP3 MSTORE PUSH1 0x20 DUP1 DUP4 KECCAK256 SWAP1 SWAP2 ADD SLOAD PUSH1 0x1 PUSH1 0x1 PUSH1 0xA0 SHL SUB AND DUP4 MSTORE DUP3 ADD SWAP3 SWAP1 SWAP3 MSTORE PUSH1 0x40 ADD SWAP1 KECCAK256 SLOAD DUP5 SWAP1 PUSH2 0x2124 JUMP JUMPDEST SWAP3 POP PUSH2 0x20E0 PUSH1 0x2 PUSH1 0x0 PUSH1 0x6 DUP5 DUP2 SLOAD DUP2 LT PUSH2 0x20B4 JUMPI PUSH2 0x20B4 PUSH2 0x29E9 JUMP JUMPDEST PUSH1 0x0 SWAP2 DUP3 MSTORE PUSH1 0x20 DUP1 DUP4 KECCAK256 SWAP1 SWAP2 ADD SLOAD PUSH1 0x1 PUSH1 0x1 PUSH1 0xA0 SHL SUB AND DUP4 MSTORE DUP3 ADD SWAP3 SWAP1 SWAP3 MSTORE PUSH1 0x40 ADD SWAP1 KECCAK256 SLOAD DUP4 SWAP1 PUSH2 0x2124 JUMP JUMPDEST SWAP2 POP DUP1 PUSH2 0x20EC DUP2 PUSH2 0x2978 JUMP JUMPDEST SWAP2 POP POP PUSH2 0x1FAF JUMP JUMPDEST POP PUSH1 0x8 SLOAD PUSH1 0x9 SLOAD PUSH2 0x2104 SWAP2 PUSH2 0x15AF JUMP JUMPDEST DUP3 LT ISZERO PUSH2 0x211B JUMPI PUSH1 0x9 SLOAD PUSH1 0x8 SLOAD SWAP4 POP SWAP4 POP POP POP SWAP1 SWAP2 JUMP JUMPDEST SWAP1 SWAP4 SWAP1 SWAP3 POP SWAP1 POP JUMP JUMPDEST PUSH1 0x0 PUSH2 0x7DB DUP3 DUP5 PUSH2 0x2926 JUMP JUMPDEST PUSH1 0x0 DUP1 PUSH1 0x0 DUP1 PUSH1 0x0 PUSH2 0x2141 DUP7 PUSH2 0x1DF4 JUMP JUMPDEST PUSH1 0x1 PUSH1 0x1 PUSH1 0xA0 SHL SUB DUP14 AND PUSH1 0x0 SWAP1 DUP2 MSTORE PUSH1 0x2 PUSH1 0x20 MSTORE PUSH1 0x40 SWAP1 KECCAK256 SLOAD SWAP5 SWAP10 POP SWAP3 SWAP8 POP SWAP1 SWAP6 POP SWAP4 POP SWAP2 POP PUSH2 0x2171 SWAP1 DUP8 PUSH2 0x2124 JUMP JUMPDEST PUSH1 0x1 PUSH1 0x1 PUSH1 0xA0 SHL SUB DUP10 AND PUSH1 0x0 SWAP1 DUP2 MSTORE PUSH1 0x2 PUSH1 0x20 SWAP1 DUP2 MSTORE PUSH1 0x40 DUP1 DUP4 KECCAK256 SWAP4 SWAP1 SWAP4 SSTORE PUSH1 0x1 SWAP1 MSTORE KECCAK256 SLOAD PUSH2 0x21A0 SWAP1 DUP7 PUSH2 0x2124 JUMP JUMPDEST PUSH1 0x1 PUSH1 0x1 PUSH1 0xA0 SHL SUB DUP10 AND PUSH1 0x0 SWAP1 DUP2 MSTORE PUSH1 0x1 PUSH1 0x20 MSTORE PUSH1 0x40 DUP2 KECCAK256 SWAP2 SWAP1 SWAP2 SSTORE PUSH2 0x21DC DUP9 PUSH1 0x1 PUSH1 0x1 PUSH1 0xA0 SHL SUB AND PUSH1 0x0 SWAP1 DUP2 MSTORE PUSH1 0x4 PUSH1 0x20 MSTORE PUSH1 0x40 SWAP1 KECCAK256 SLOAD ISZERO SWAP1 JUMP JUMPDEST ISZERO PUSH2 0x2218 JUMPI PUSH2 0x21F5 PUSH2 0x21EC PUSH2 0x19AD JUMP JUMPDEST PUSH1 0xE SLOAD SWAP1 PUSH2 0x1F46 JUMP JUMPDEST SWAP1 POP PUSH2 0x2218 DUP9 PUSH1 0x1 PUSH1 0x1 PUSH1 0xA0 SHL SUB AND PUSH1 0x0 SWAP1 DUP2 MSTORE PUSH1 0x4 PUSH1 0x20 MSTORE PUSH1 0x40 SWAP1 KECCAK256 PUSH1 0x1 SWAP1 SSTORE JUMP JUMPDEST PUSH2 0x2244 PUSH2 0x2225 DUP7 DUP4 PUSH2 0x1B3E JUMP JUMPDEST PUSH1 0x1 PUSH1 0x1 PUSH1 0xA0 SHL SUB DUP11 AND PUSH1 0x0 SWAP1 DUP2 MSTORE PUSH1 0x1 PUSH1 0x20 MSTORE PUSH1 0x40 SWAP1 KECCAK256 SLOAD SWAP1 PUSH2 0x1B3E JUMP JUMPDEST PUSH1 0x1 PUSH1 0x1 PUSH1 0xA0 SHL SUB DUP10 AND PUSH1 0x0 SWAP1 DUP2 MSTORE PUSH1 0x1 PUSH1 0x20 MSTORE PUSH1 0x40 SWAP1 KECCAK256 SSTORE PUSH2 0x2267 DUP5 DUP4 PUSH2 0x24D0 JUMP JUMPDEST DUP8 PUSH1 0x1 PUSH1 0x1 PUSH1 0xA0 SHL SUB AND DUP10 PUSH1 0x1 PUSH1 0x1 PUSH1 0xA0 SHL SUB AND PUSH1 0x0 DUP1 MLOAD PUSH1 0x20 PUSH2 0x2A3E DUP4 CODECOPY DUP2 MLOAD SWAP2 MSTORE DUP6 PUSH1 0x40 MLOAD PUSH2 0x229A SWAP2 DUP2 MSTORE PUSH1 0x20 ADD SWAP1 JUMP JUMPDEST PUSH1 0x40 MLOAD DUP1 SWAP2 SUB SWAP1 LOG3 POP POP POP POP POP POP POP POP POP JUMP JUMPDEST PUSH1 0x0 DUP1 PUSH1 0x0 DUP1 PUSH1 0x0 PUSH2 0x22BE DUP7 PUSH2 0x1DF4 JUMP JUMPDEST PUSH1 0x1 PUSH1 0x1 PUSH1 0xA0 SHL SUB DUP14 AND PUSH1 0x0 SWAP1 DUP2 MSTORE PUSH1 0x1 PUSH1 0x20 MSTORE PUSH1 0x40 SWAP1 KECCAK256 SLOAD SWAP5 SWAP10 POP SWAP3 SWAP8 POP SWAP1 SWAP6 POP SWAP4 POP SWAP2 POP PUSH2 0x22EE SWAP1 DUP7 PUSH2 0x2124 JUMP JUMPDEST PUSH1 0x1 PUSH1 0x1 PUSH1 0xA0 SHL SUB DUP1 DUP11 AND PUSH1 0x0 SWAP1 DUP2 MSTORE PUSH1 0x1 PUSH1 0x20 SWAP1 DUP2 MSTORE PUSH1 0x40 DUP1 DUP4 KECCAK256 SWAP5 SWAP1 SWAP5 SSTORE SWAP2 DUP11 AND DUP2 MSTORE PUSH1 0x2 SWAP1 SWAP2 MSTORE KECCAK256 SLOAD PUSH2 0x2324 SWAP1 DUP4 PUSH2 0x1B3E JUMP JUMPDEST PUSH1 0x1 PUSH1 0x1 PUSH1 0xA0 SHL SUB DUP9 AND PUSH1 0x0 SWAP1 DUP2 MSTORE PUSH1 0x2 PUSH1 0x20 SWAP1 DUP2 MSTORE PUSH1 0x40 DUP1 DUP4 KECCAK256 SWAP4 SWAP1 SWAP4 SSTORE PUSH1 0x1 SWAP1 MSTORE KECCAK256 SLOAD PUSH2 0x2353 SWAP1 DUP6 PUSH2 0x1B3E JUMP JUMPDEST PUSH1 0x1 PUSH1 0x1 PUSH1 0xA0 SHL SUB DUP9 AND PUSH1 0x0 SWAP1 DUP2 MSTORE PUSH1 0x1 PUSH1 0x20 MSTORE PUSH1 0x40 SWAP1 KECCAK256 SSTORE PUSH2 0x2376 DUP4 DUP3 PUSH2 0x24D0 JUMP JUMPDEST DUP7 PUSH1 0x1 PUSH1 0x1 PUSH1 0xA0 SHL SUB AND DUP9 PUSH1 0x1 PUSH1 0x1 PUSH1 0xA0 SHL SUB AND PUSH1 0x0 DUP1 MLOAD PUSH1 0x20 PUSH2 0x2A3E DUP4 CODECOPY DUP2 MLOAD SWAP2 MSTORE DUP5 PUSH1 0x40 MLOAD PUSH2 0x23A9 SWAP2 DUP2 MSTORE PUSH1 0x20 ADD SWAP1 JUMP JUMPDEST PUSH1 0x40 MLOAD DUP1 SWAP2 SUB SWAP1 LOG3 POP POP POP POP POP POP POP POP JUMP JUMPDEST PUSH1 0x0 DUP1 PUSH1 0x0 DUP1 PUSH1 0x0 PUSH2 0x23CC DUP7 PUSH2 0x1DF4 JUMP JUMPDEST PUSH1 0x1 PUSH1 0x1 PUSH1 0xA0 SHL SUB DUP14 AND PUSH1 0x0 SWAP1 DUP2 MSTORE PUSH1 0x1 PUSH1 0x20 MSTORE PUSH1 0x40 SWAP1 KECCAK256 SLOAD SWAP5 SWAP10 POP SWAP3 SWAP8 POP SWAP1 SWAP6 POP SWAP4 POP SWAP2 POP PUSH2 0x21A0 SWAP1 DUP7 PUSH2 0x2124 JUMP JUMPDEST PUSH1 0x0 DUP1 PUSH1 0x0 DUP1 PUSH1 0x0 PUSH2 0x240D DUP7 PUSH2 0x1DF4 JUMP JUMPDEST PUSH1 0x1 PUSH1 0x1 PUSH1 0xA0 SHL SUB DUP14 AND PUSH1 0x0 SWAP1 DUP2 MSTORE PUSH1 0x2 PUSH1 0x20 MSTORE PUSH1 0x40 SWAP1 KECCAK256 SLOAD SWAP5 SWAP10 POP SWAP3 SWAP8 POP SWAP1 SWAP6 POP SWAP4 POP SWAP2 POP PUSH2 0x243D SWAP1 DUP8 PUSH2 0x2124 JUMP JUMPDEST PUSH1 0x1 PUSH1 0x1 PUSH1 0xA0 SHL SUB DUP10 AND PUSH1 0x0 SWAP1 DUP2 MSTORE PUSH1 0x2 PUSH1 0x20 SWAP1 DUP2 MSTORE PUSH1 0x40 DUP1 DUP4 KECCAK256 SWAP4 SWAP1 SWAP4 SSTORE PUSH1 0x1 SWAP1 MSTORE KECCAK256 SLOAD PUSH2 0x22EE SWAP1 DUP7 PUSH2 0x2124 JUMP JUMPDEST PUSH1 0x0 DUP1 DUP1 PUSH2 0x247B DUP5 PUSH1 0x64 PUSH2 0x15AF JUMP JUMPDEST SWAP1 POP PUSH1 0x0 PUSH2 0x2489 DUP6 DUP4 PUSH2 0x2124 JUMP JUMPDEST SWAP6 SWAP2 SWAP5 POP SWAP1 SWAP3 POP POP POP JUMP JUMPDEST PUSH1 0x0 DUP1 DUP1 DUP1 PUSH2 0x24A3 DUP8 DUP7 PUSH2 0x1F46 JUMP JUMPDEST SWAP1 POP PUSH1 0x0 PUSH2 0x24B1 DUP8 DUP8 PUSH2 0x1F46 JUMP JUMPDEST SWAP1 POP PUSH1 0x0 PUSH2 0x24BF DUP4 DUP4 PUSH2 0x2124 JUMP JUMPDEST SWAP3 SWAP10 SWAP3 SWAP9 POP SWAP1 SWAP7 POP SWAP1 SWAP5 POP POP POP POP POP JUMP JUMPDEST PUSH1 0x9 SLOAD PUSH2 0x24DD SWAP1 DUP4 PUSH2 0x2124 JUMP JUMPDEST PUSH1 0x9 SSTORE PUSH1 0xA SLOAD PUSH2 0x24ED SWAP1 DUP3 PUSH2 0x1B3E JUMP JUMPDEST PUSH1 0xA SSTORE POP POP JUMP JUMPDEST DUP1 CALLDATALOAD PUSH1 0x1 PUSH1 0x1 PUSH1 0xA0 SHL SUB DUP2 AND DUP2 EQ PUSH2 0x250B JUMPI PUSH1 0x0 DUP1 REVERT JUMPDEST SWAP2 SWAP1 POP JUMP JUMPDEST PUSH1 0x0 DUP3 PUSH1 0x1F DUP4 ADD SLT PUSH2 0x2521 JUMPI PUSH1 0x0 DUP1 REVERT JUMPDEST DUP2 CALLDATALOAD PUSH1 0x20 PUSH2 0x2536 PUSH2 0x2531 DUP4 PUSH2 0x28B7 JUMP JUMPDEST PUSH2 0x2886 JUMP JUMPDEST DUP1 DUP4 DUP3 MSTORE DUP3 DUP3 ADD SWAP2 POP DUP3 DUP7 ADD DUP8 DUP5 DUP7 PUSH1 0x5 SHL DUP10 ADD ADD GT ISZERO PUSH2 0x2556 JUMPI PUSH1 0x0 DUP1 REVERT JUMPDEST PUSH1 0x0 JUMPDEST DUP6 DUP2 LT ISZERO PUSH2 0x257C JUMPI PUSH2 0x256A DUP3 PUSH2 0x24F4 JUMP JUMPDEST DUP5 MSTORE SWAP3 DUP5 ADD SWAP3 SWAP1 DUP5 ADD SWAP1 PUSH1 0x1 ADD PUSH2 0x2559 JUMP JUMPDEST POP SWAP1 SWAP8 SWAP7 POP POP POP POP POP POP POP JUMP JUMPDEST DUP1 CALLDATALOAD DUP1 ISZERO ISZERO DUP2 EQ PUSH2 0x250B JUMPI PUSH1 0x0 DUP1 REVERT JUMPDEST PUSH1 0x0 PUSH1 0x20 DUP3 DUP5 SUB SLT ISZERO PUSH2 0x25AB JUMPI PUSH1 0x0 DUP1 REVERT JUMPDEST PUSH2 0x7DB DUP3 PUSH2 0x24F4 JUMP JUMPDEST PUSH1 0x0 DUP1 PUSH1 0x40 DUP4 DUP6 SUB SLT ISZERO PUSH2 0x25C7 JUMPI PUSH1 0x0 DUP1 REVERT JUMPDEST PUSH2 0x25D0 DUP4 PUSH2 0x24F4 JUMP JUMPDEST SWAP2 POP PUSH2 0x25DE PUSH1 0x20 DUP5 ADD PUSH2 0x24F4 JUMP JUMPDEST SWAP1 POP SWAP3 POP SWAP3 SWAP1 POP JUMP JUMPDEST PUSH1 0x0 DUP1 PUSH1 0x0 PUSH1 0x60 DUP5 DUP7 SUB SLT ISZERO PUSH2 0x25FC JUMPI PUSH1 0x0 DUP1 REVERT JUMPDEST PUSH2 0x2605 DUP5 PUSH2 0x24F4 JUMP JUMPDEST SWAP3 POP PUSH2 0x2613 PUSH1 0x20 DUP6 ADD PUSH2 0x24F4 JUMP JUMPDEST SWAP2 POP PUSH1 0x40 DUP5 ADD CALLDATALOAD SWAP1 POP SWAP3 POP SWAP3 POP SWAP3 JUMP JUMPDEST PUSH1 0x0 DUP1 PUSH1 0x40 DUP4 DUP6 SUB SLT ISZERO PUSH2 0x2636 JUMPI PUSH1 0x0 DUP1 REVERT JUMPDEST PUSH2 0x263F DUP4 PUSH2 0x24F4 JUMP JUMPDEST SWAP5 PUSH1 0x20 SWAP4 SWAP1 SWAP4 ADD CALLDATALOAD SWAP4 POP POP POP JUMP JUMPDEST PUSH1 0x0 DUP1 PUSH1 0x40 DUP4 DUP6 SUB SLT ISZERO PUSH2 0x2660 JUMPI PUSH1 0x0 DUP1 REVERT JUMPDEST DUP3 CALLDATALOAD PUSH8 0xFFFFFFFFFFFFFFFF DUP1 DUP3 GT ISZERO PUSH2 0x2678 JUMPI PUSH1 0x0 DUP1 REVERT JUMPDEST PUSH2 0x2684 DUP7 DUP4 DUP8 ADD PUSH2 0x2510 JUMP JUMPDEST SWAP4 POP PUSH1 0x20 SWAP2 POP DUP2 DUP6 ADD CALLDATALOAD DUP2 DUP2 GT ISZERO PUSH2 0x269B JUMPI PUSH1 0x0 DUP1 REVERT JUMPDEST DUP6 ADD SWAP1 POP PUSH1 0x1F DUP2 ADD DUP7 SGT PUSH2 0x26AE JUMPI PUSH1 0x0 DUP1 REVERT JUMPDEST DUP1 CALLDATALOAD PUSH2 0x26BC PUSH2 0x2531 DUP3 PUSH2 0x28B7 JUMP JUMPDEST DUP1 DUP3 DUP3 MSTORE DUP5 DUP3 ADD SWAP2 POP DUP5 DUP5 ADD DUP10 DUP7 DUP6 PUSH1 0x5 SHL DUP8 ADD ADD GT ISZERO PUSH2 0x26DC JUMPI PUSH1 0x0 DUP1 REVERT JUMPDEST PUSH1 0x0 SWAP5 POP JUMPDEST DUP4 DUP6 LT ISZERO PUSH2 0x26FF JUMPI DUP1 CALLDATALOAD DUP4 MSTORE PUSH1 0x1 SWAP5 SWAP1 SWAP5 ADD SWAP4 SWAP2 DUP6 ADD SWAP2 DUP6 ADD PUSH2 0x26E1 JUMP JUMPDEST POP DUP1 SWAP6 POP POP POP POP POP POP SWAP3 POP SWAP3 SWAP1 POP JUMP JUMPDEST PUSH1 0x0 DUP1 PUSH1 0x40 DUP4 DUP6 SUB SLT ISZERO PUSH2 0x2722 JUMPI PUSH1 0x0 DUP1 REVERT JUMPDEST DUP3 CALLDATALOAD PUSH8 0xFFFFFFFFFFFFFFFF DUP2 GT ISZERO PUSH2 0x2739 JUMPI PUSH1 0x0 DUP1 REVERT JUMPDEST PUSH2 0x2745 DUP6 DUP3 DUP7 ADD PUSH2 0x2510 JUMP JUMPDEST SWAP6 PUSH1 0x20 SWAP5 SWAP1 SWAP5 ADD CALLDATALOAD SWAP5 POP POP POP POP JUMP JUMPDEST PUSH1 0x0 PUSH1 0x20 DUP3 DUP5 SUB SLT ISZERO PUSH2 0x2766 JUMPI PUSH1 0x0 DUP1 REVERT JUMPDEST PUSH2 0x7DB DUP3 PUSH2 0x2589 JUMP JUMPDEST PUSH1 0x0 PUSH1 0x20 DUP3 DUP5 SUB SLT ISZERO PUSH2 0x2781 JUMPI PUSH1 0x0 DUP1 REVERT JUMPDEST POP CALLDATALOAD SWAP2 SWAP1 POP JUMP JUMPDEST PUSH1 0x0 DUP1 PUSH1 0x40 DUP4 DUP6 SUB SLT ISZERO PUSH2 0x279B JUMPI PUSH1 0x0 DUP1 REVERT JUMPDEST DUP3 CALLDATALOAD SWAP2 POP PUSH2 0x25DE PUSH1 0x20 DUP5 ADD PUSH2 0x2589 JUMP JUMPDEST PUSH1 0x0 PUSH1 0x20 DUP1 DUP4 MSTORE DUP4 MLOAD DUP1 DUP3 DUP6 ADD MSTORE PUSH1 0x0 JUMPDEST DUP2 DUP2 LT ISZERO PUSH2 0x27D8 JUMPI DUP6 DUP2 ADD DUP4 ADD MLOAD DUP6 DUP3 ADD PUSH1 0x40 ADD MSTORE DUP3 ADD PUSH2 0x27BC JUMP JUMPDEST DUP2 DUP2 GT ISZERO PUSH2 0x27EA JUMPI PUSH1 0x0 PUSH1 0x40 DUP4 DUP8 ADD ADD MSTORE JUMPDEST POP PUSH1 0x1F ADD PUSH1 0x1F NOT AND SWAP3 SWAP1 SWAP3 ADD PUSH1 0x40 ADD SWAP4 SWAP3 POP POP POP JUMP JUMPDEST PUSH1 0x20 DUP1 DUP3 MSTORE PUSH1 0x10 SWAP1 DUP3 ADD MSTORE PUSH16 0x14185D5CD8589B194E881C185D5CD959 PUSH1 0x82 SHL PUSH1 0x40 DUP3 ADD MSTORE PUSH1 0x60 ADD SWAP1 JUMP JUMPDEST PUSH1 0x20 DUP1 DUP3 MSTORE DUP2 DUP2 ADD MSTORE PUSH32 0x4F776E61626C653A2063616C6C6572206973206E6F7420746865206F776E6572 PUSH1 0x40 DUP3 ADD MSTORE PUSH1 0x60 ADD SWAP1 JUMP JUMPDEST PUSH1 0x20 DUP1 DUP3 MSTORE PUSH1 0xD SWAP1 DUP3 ADD MSTORE PUSH13 0x4F6E6C79205472656173757279 PUSH1 0x98 SHL PUSH1 0x40 DUP3 ADD MSTORE PUSH1 0x60 ADD SWAP1 JUMP JUMPDEST PUSH1 0x40 MLOAD PUSH1 0x1F DUP3 ADD PUSH1 0x1F NOT AND DUP2 ADD PUSH8 0xFFFFFFFFFFFFFFFF DUP2 GT DUP3 DUP3 LT OR ISZERO PUSH2 0x28AF JUMPI PUSH2 0x28AF PUSH2 0x29FF JUMP JUMPDEST PUSH1 0x40 MSTORE SWAP2 SWAP1 POP JUMP JUMPDEST PUSH1 0x0 PUSH8 0xFFFFFFFFFFFFFFFF DUP3 GT ISZERO PUSH2 0x28D1 JUMPI PUSH2 0x28D1 PUSH2 0x29FF JUMP JUMPDEST POP PUSH1 0x5 SHL PUSH1 0x20 ADD SWAP1 JUMP JUMPDEST PUSH1 0x0 DUP3 NOT DUP3 GT ISZERO PUSH2 0x28EE JUMPI PUSH2 0x28EE PUSH2 0x29A7 JUMP JUMPDEST POP ADD SWAP1 JUMP JUMPDEST PUSH1 0x0 DUP3 PUSH2 0x2902 JUMPI PUSH2 0x2902 PUSH2 0x29BD JUMP JUMPDEST POP DIV SWAP1 JUMP JUMPDEST PUSH1 0x0 DUP2 PUSH1 0x0 NOT DIV DUP4 GT DUP3 ISZERO ISZERO AND ISZERO PUSH2 0x2921 JUMPI PUSH2 0x2921 PUSH2 0x29A7 JUMP JUMPDEST POP MUL SWAP1 JUMP JUMPDEST PUSH1 0x0 DUP3 DUP3 LT ISZERO PUSH2 0x2938 JUMPI PUSH2 0x2938 PUSH2 0x29A7 JUMP JUMPDEST POP SUB SWAP1 JUMP JUMPDEST PUSH1 0x1 DUP2 DUP2 SHR SWAP1 DUP3 AND DUP1 PUSH2 0x2951 JUMPI PUSH1 0x7F DUP3 AND SWAP2 POP JUMPDEST PUSH1 0x20 DUP3 LT DUP2 EQ ISZERO PUSH2 0x2972 JUMPI PUSH4 0x4E487B71 PUSH1 0xE0 SHL PUSH1 0x0 MSTORE PUSH1 0x22 PUSH1 0x4 MSTORE PUSH1 0x24 PUSH1 0x0 REVERT JUMPDEST POP SWAP2 SWAP1 POP JUMP JUMPDEST PUSH1 0x0 PUSH1 0x0 NOT DUP3 EQ ISZERO PUSH2 0x298C JUMPI PUSH2 0x298C PUSH2 0x29A7 JUMP JUMPDEST POP PUSH1 0x1 ADD SWAP1 JUMP JUMPDEST PUSH1 0x0 DUP3 PUSH2 0x29A2 JUMPI PUSH2 0x29A2 PUSH2 0x29BD JUMP JUMPDEST POP MOD SWAP1 JUMP JUMPDEST PUSH4 0x4E487B71 PUSH1 0xE0 SHL PUSH1 0x0 MSTORE PUSH1 0x11 PUSH1 0x4 MSTORE PUSH1 0x24 PUSH1 0x0 REVERT JUMPDEST PUSH4 0x4E487B71 PUSH1 0xE0 SHL PUSH1 0x0 MSTORE PUSH1 0x12 PUSH1 0x4 MSTORE PUSH1 0x24 PUSH1 0x0 REVERT JUMPDEST PUSH4 0x4E487B71 PUSH1 0xE0 SHL PUSH1 0x0 MSTORE PUSH1 0x31 PUSH1 0x4 MSTORE PUSH1 0x24 PUSH1 0x0 REVERT JUMPDEST PUSH4 0x4E487B71 PUSH1 0xE0 SHL PUSH1 0x0 MSTORE PUSH1 0x32 PUSH1 0x4 MSTORE PUSH1 0x24 PUSH1 0x0 REVERT JUMPDEST PUSH4 0x4E487B71 PUSH1 0xE0 SHL PUSH1 0x0 MSTORE PUSH1 0x41 PUSH1 0x4 MSTORE PUSH1 0x24 PUSH1 0x0 REVERT INVALID GASLIMIT MSTORE NUMBER ORIGIN ADDRESS GASPRICE KECCAK256 PUSH21 0x72616E7366657220616D6F756E7420657863656564 PUSH20 0x20616C6C6F77616E6365DDF252AD1BE2C89B69C2 0xB0 PUSH9 0xFC378DAA952BA7F163 0xC4 LOG1 AND 0x28 CREATE2 GAS 0x4D CREATE2 0x23 0xB3 0xEF GASLIMIT MSTORE NUMBER ORIGIN ADDRESS GASPRICE KECCAK256 PUSH5 0x6563726561 PUSH20 0x656420616C6C6F77616E63652062656C6F77207A PUSH6 0x726FA2646970 PUSH7 0x7358221220C6EC SWAP2 0xF9 0x24 0xEE PUSH5 0x2C146555B PUSH27 0x7D541E35B761872AB2753AAFC88B4B754EF52C64736F6C63430008 SMOD STOP CALLER "
				},
				"gasEstimates": {
					"creation": {
						"codeDepositCost": "2187200",
						"executionCost": "infinite",
						"totalCost": "infinite"
					},
					"external": {
						"AIRDROP_AMOUNT()": "285",
						"BASE_MINT()": "307",
						"WHITELIST_SALE_AMOUNT()": "262",
						"aidropDistributed()": "2451",
						"allowance(address,address)": "infinite",
						"approve(address,uint256)": "24667",
						"balanceOf(address)": "infinite",
						"botKeeper()": "2405",
						"burn(uint256)": "infinite",
						"decimals()": "2335",
						"decreaseAllowance(address,uint256)": "infinite",
						"distributeAirdrop(address[],uint256)": "infinite",
						"donate(uint256)": "infinite",
						"excludeAccount(address)": "infinite",
						"genesisBalance(address)": "4717",
						"genesisReward()": "2427",
						"getCurrentRTSupply()": "infinite",
						"getRate()": "infinite",
						"includeAccount(address)": "infinite",
						"increaseAllowance(address,uint256)": "27068",
						"isExcluded(address)": "2594",
						"isGenesisAddress(address)": "2614",
						"mint(address,uint256)": "infinite",
						"name()": "infinite",
						"notifyGenesisAddresses(address[],uint256)": "infinite",
						"owner()": "2421",
						"paused()": "2432",
						"reflectionFromToken(uint256,bool)": "infinite",
						"registerAirdropDistribution()": "infinite",
						"renounceOwnership()": "28182",
						"setBotKeeper(address)": "30476",
						"setGenesisReward(uint256)": "30473",
						"setTransferStatus(bool)": "30013",
						"setTreasuryAddress(address)": "30498",
						"symbol()": "infinite",
						"tokenFromReflection(uint256)": "infinite",
						"totalFees()": "2372",
						"totalSupply()": "2405",
						"transfer(address,uint256)": "infinite",
						"transferFrom(address,address,uint256)": "infinite",
						"transferOwnership(address)": "28419",
						"transferTaxRate()": "2485",
						"treasuryContract()": "2472",
						"treasuryTransfer(address,uint256)": "infinite",
						"treasuryTransfer(address[],uint256[])": "infinite",
						"whitelistSaleDistributed()": "2450"
					},
					"internal": {
						"_approve(address,address,uint256)": "infinite",
						"_burn(uint256)": "infinite",
						"_getCurrentSupply()": "infinite",
						"_getRValues(uint256,uint256,uint256)": "infinite",
						"_getRate()": "infinite",
						"_getTValues(uint256)": "infinite",
						"_getValues(uint256)": "infinite",
						"_mint(address,uint256)": "infinite",
						"_reflectFee(uint256,uint256)": "infinite",
						"_transfer(address,address,uint256)": "infinite",
						"_transferBothExcluded(address,address,uint256)": "infinite",
						"_transferFromExcluded(address,address,uint256)": "infinite",
						"_transferStandard(address,address,uint256)": "infinite",
						"_transferToExcluded(address,address,uint256)": "infinite",
						"_treasuryTransfer(address,address,uint256)": "infinite",
						"_upgradeAddressLevel(address)": "infinite"
					}
				},
				"methodIdentifiers": {
					"AIRDROP_AMOUNT()": "2b5b6872",
					"BASE_MINT()": "400d6844",
					"WHITELIST_SALE_AMOUNT()": "9bcc6102",
					"aidropDistributed()": "30f4a0b0",
					"allowance(address,address)": "dd62ed3e",
					"approve(address,uint256)": "095ea7b3",
					"balanceOf(address)": "70a08231",
					"botKeeper()": "29200995",
					"burn(uint256)": "42966c68",
					"decimals()": "313ce567",
					"decreaseAllowance(address,uint256)": "a457c2d7",
					"distributeAirdrop(address[],uint256)": "94594625",
					"donate(uint256)": "f14faf6f",
					"excludeAccount(address)": "f2cc0c18",
					"genesisBalance(address)": "9941f3ab",
					"genesisReward()": "f79e7354",
					"getCurrentRTSupply()": "ae823f3b",
					"getRate()": "679aefce",
					"includeAccount(address)": "f84354f1",
					"increaseAllowance(address,uint256)": "39509351",
					"isExcluded(address)": "cba0e996",
					"isGenesisAddress(address)": "324884a9",
					"mint(address,uint256)": "40c10f19",
					"name()": "06fdde03",
					"notifyGenesisAddresses(address[],uint256)": "d82cc2d7",
					"owner()": "8da5cb5b",
					"paused()": "5c975abb",
					"reflectionFromToken(uint256,bool)": "4549b039",
					"registerAirdropDistribution()": "5a1a1c3d",
					"renounceOwnership()": "715018a6",
					"setBotKeeper(address)": "e8e23594",
					"setGenesisReward(uint256)": "ee188362",
					"setTransferStatus(bool)": "493770cc",
					"setTreasuryAddress(address)": "6605bfda",
					"symbol()": "95d89b41",
					"tokenFromReflection(uint256)": "2d838119",
					"totalFees()": "13114a9d",
					"totalSupply()": "18160ddd",
					"transfer(address,uint256)": "a9059cbb",
					"transferFrom(address,address,uint256)": "23b872dd",
					"transferOwnership(address)": "f2fde38b",
					"transferTaxRate()": "b65d08b0",
					"treasuryContract()": "18da0011",
					"treasuryTransfer(address,uint256)": "f0c3443d",
					"treasuryTransfer(address[],uint256[])": "30d8ce9e",
					"whitelistSaleDistributed()": "f0171648"
				}
			},
			"storageLayout": {
				"storage": [
					{
						"astId": 7,
						"contract": "contracts/LotteryToken.sol:LotteryToken",
						"label": "_owner",
						"offset": 0,
						"slot": "0",
						"type": "t_address"
					},
					{
						"astId": 122,
						"contract": "contracts/LotteryToken.sol:LotteryToken",
						"label": "_paused",
						"offset": 20,
						"slot": "0",
						"type": "t_bool"
					},
					{
						"astId": 1561,
						"contract": "contracts/LotteryToken.sol:LotteryToken",
						"label": "_rOwned",
						"offset": 0,
						"slot": "1",
						"type": "t_mapping(t_address,t_uint256)"
					},
					{
						"astId": 1565,
						"contract": "contracts/LotteryToken.sol:LotteryToken",
						"label": "_tOwned",
						"offset": 0,
						"slot": "2",
						"type": "t_mapping(t_address,t_uint256)"
					},
					{
						"astId": 1571,
						"contract": "contracts/LotteryToken.sol:LotteryToken",
						"label": "_allowances",
						"offset": 0,
						"slot": "3",
						"type": "t_mapping(t_address,t_mapping(t_address,t_uint256))"
					},
					{
						"astId": 1575,
						"contract": "contracts/LotteryToken.sol:LotteryToken",
						"label": "_addressLevel",
						"offset": 0,
						"slot": "4",
						"type": "t_mapping(t_address,t_uint256)"
					},
					{
						"astId": 1579,
						"contract": "contracts/LotteryToken.sol:LotteryToken",
						"label": "_isExcluded",
						"offset": 0,
						"slot": "5",
						"type": "t_mapping(t_address,t_bool)"
					},
					{
						"astId": 1582,
						"contract": "contracts/LotteryToken.sol:LotteryToken",
						"label": "_excluded",
						"offset": 0,
						"slot": "6",
						"type": "t_array(t_address)dyn_storage"
					},
					{
						"astId": 1584,
						"contract": "contracts/LotteryToken.sol:LotteryToken",
						"label": "_isRegisterAirdropDistribution",
						"offset": 0,
						"slot": "7",
						"type": "t_bool"
					},
					{
						"astId": 1593,
						"contract": "contracts/LotteryToken.sol:LotteryToken",
						"label": "_totalSupply",
						"offset": 0,
						"slot": "8",
						"type": "t_uint256"
					},
					{
						"astId": 1595,
						"contract": "contracts/LotteryToken.sol:LotteryToken",
						"label": "_rTotal",
						"offset": 0,
						"slot": "9",
						"type": "t_uint256"
					},
					{
						"astId": 1597,
						"contract": "contracts/LotteryToken.sol:LotteryToken",
						"label": "_tFeeTotal",
						"offset": 0,
						"slot": "10",
						"type": "t_uint256"
					},
					{
						"astId": 1600,
						"contract": "contracts/LotteryToken.sol:LotteryToken",
						"label": "_name",
						"offset": 0,
						"slot": "11",
						"type": "t_string_storage"
					},
					{
						"astId": 1603,
						"contract": "contracts/LotteryToken.sol:LotteryToken",
						"label": "_symbol",
						"offset": 0,
						"slot": "12",
						"type": "t_string_storage"
					},
					{
						"astId": 1606,
						"contract": "contracts/LotteryToken.sol:LotteryToken",
						"label": "_decimals",
						"offset": 0,
						"slot": "13",
						"type": "t_uint8"
					},
					{
						"astId": 1608,
						"contract": "contracts/LotteryToken.sol:LotteryToken",
						"label": "genesisReward",
						"offset": 0,
						"slot": "14",
						"type": "t_uint256"
					},
					{
						"astId": 1630,
						"contract": "contracts/LotteryToken.sol:LotteryToken",
						"label": "aidropDistributed",
						"offset": 0,
						"slot": "15",
						"type": "t_uint256"
					},
					{
						"astId": 1632,
						"contract": "contracts/LotteryToken.sol:LotteryToken",
						"label": "whitelistSaleDistributed",
						"offset": 0,
						"slot": "16",
						"type": "t_uint256"
					},
					{
						"astId": 1645,
						"contract": "contracts/LotteryToken.sol:LotteryToken",
						"label": "botKeeper",
						"offset": 0,
						"slot": "17",
						"type": "t_address"
					},
					{
						"astId": 1647,
						"contract": "contracts/LotteryToken.sol:LotteryToken",
						"label": "treasuryContract",
						"offset": 0,
						"slot": "18",
						"type": "t_address"
					},
					{
						"astId": 1650,
						"contract": "contracts/LotteryToken.sol:LotteryToken",
						"label": "transferTaxRate",
						"offset": 20,
						"slot": "18",
						"type": "t_uint16"
					}
				],
				"types": {
					"t_address": {
						"encoding": "inplace",
						"label": "address",
						"numberOfBytes": "20"
					},
					"t_array(t_address)dyn_storage": {
						"base": "t_address",
						"encoding": "dynamic_array",
						"label": "address[]",
						"numberOfBytes": "32"
					},
					"t_bool": {
						"encoding": "inplace",
						"label": "bool",
						"numberOfBytes": "1"
					},
					"t_mapping(t_address,t_bool)": {
						"encoding": "mapping",
						"key": "t_address",
						"label": "mapping(address => bool)",
						"numberOfBytes": "32",
						"value": "t_bool"
					},
					"t_mapping(t_address,t_mapping(t_address,t_uint256))": {
						"encoding": "mapping",
						"key": "t_address",
						"label": "mapping(address => mapping(address => uint256))",
						"numberOfBytes": "32",
						"value": "t_mapping(t_address,t_uint256)"
					},
					"t_mapping(t_address,t_uint256)": {
						"encoding": "mapping",
						"key": "t_address",
						"label": "mapping(address => uint256)",
						"numberOfBytes": "32",
						"value": "t_uint256"
					},
					"t_string_storage": {
						"encoding": "bytes",
						"label": "string",
						"numberOfBytes": "32"
					},
					"t_uint16": {
						"encoding": "inplace",
						"label": "uint16",
						"numberOfBytes": "2"
					},
					"t_uint256": {
						"encoding": "inplace",
						"label": "uint256",
						"numberOfBytes": "32"
					},
					"t_uint8": {
						"encoding": "inplace",
						"label": "uint8",
						"numberOfBytes": "1"
					}
				}
			},
			"userdoc": {
				"kind": "user",
				"methods": {},
				"version": 1
			}
		}
	}
}