{
	"contracts/LoteStakingManager.sol": {
		"LoteStakingManager": {
			"abi": [
				{
					"inputs": [
						{
							"internalType": "contract ILotteryToken",
							"name": "_lottery",
							"type": "address"
						},
						{
							"internalType": "contract ILoteTreasury",
							"name": "_loteTreasury",
							"type": "address"
						},
						{
							"internalType": "uint256",
							"name": "_startBlock",
							"type": "uint256"
						},
						{
							"internalType": "uint256",
							"name": "_lotteryPerBlock",
							"type": "uint256"
						}
					],
					"stateMutability": "nonpayable",
					"type": "constructor"
				},
				{
					"anonymous": false,
					"inputs": [
						{
							"indexed": true,
							"internalType": "address",
							"name": "user",
							"type": "address"
						},
						{
							"indexed": true,
							"internalType": "uint256",
							"name": "pid",
							"type": "uint256"
						},
						{
							"indexed": false,
							"internalType": "uint256",
							"name": "amount",
							"type": "uint256"
						}
					],
					"name": "Deposit",
					"type": "event"
				},
				{
					"anonymous": false,
					"inputs": [
						{
							"indexed": true,
							"internalType": "address",
							"name": "user",
							"type": "address"
						},
						{
							"indexed": true,
							"internalType": "uint256",
							"name": "pid",
							"type": "uint256"
						},
						{
							"indexed": false,
							"internalType": "uint256",
							"name": "amount",
							"type": "uint256"
						}
					],
					"name": "EmergencyWithdraw",
					"type": "event"
				},
				{
					"anonymous": false,
					"inputs": [
						{
							"indexed": true,
							"internalType": "address",
							"name": "caller",
							"type": "address"
						},
						{
							"indexed": false,
							"internalType": "uint256",
							"name": "previousAmount",
							"type": "uint256"
						},
						{
							"indexed": false,
							"internalType": "uint256",
							"name": "newAmount",
							"type": "uint256"
						}
					],
					"name": "EmissionRateUpdated",
					"type": "event"
				},
				{
					"anonymous": false,
					"inputs": [
						{
							"indexed": true,
							"internalType": "address",
							"name": "previousOwner",
							"type": "address"
						},
						{
							"indexed": true,
							"internalType": "address",
							"name": "newOwner",
							"type": "address"
						}
					],
					"name": "OwnershipTransferred",
					"type": "event"
				},
				{
					"anonymous": false,
					"inputs": [
						{
							"indexed": true,
							"internalType": "address",
							"name": "user",
							"type": "address"
						},
						{
							"indexed": true,
							"internalType": "address",
							"name": "referrer",
							"type": "address"
						},
						{
							"indexed": false,
							"internalType": "uint256",
							"name": "commissionAmount",
							"type": "uint256"
						}
					],
					"name": "ReferralCommissionPaid",
					"type": "event"
				},
				{
					"anonymous": false,
					"inputs": [
						{
							"indexed": true,
							"internalType": "address",
							"name": "user",
							"type": "address"
						},
						{
							"indexed": true,
							"internalType": "uint256",
							"name": "pid",
							"type": "uint256"
						},
						{
							"indexed": false,
							"internalType": "uint256",
							"name": "amountLockedUp",
							"type": "uint256"
						}
					],
					"name": "RewardLockedUp",
					"type": "event"
				},
				{
					"anonymous": false,
					"inputs": [
						{
							"indexed": true,
							"internalType": "address",
							"name": "user",
							"type": "address"
						},
						{
							"indexed": true,
							"internalType": "uint256",
							"name": "pid",
							"type": "uint256"
						},
						{
							"indexed": false,
							"internalType": "uint256",
							"name": "amount",
							"type": "uint256"
						}
					],
					"name": "Withdraw",
					"type": "event"
				},
				{
					"inputs": [],
					"name": "BONUS_MULTIPLIER",
					"outputs": [
						{
							"internalType": "uint256",
							"name": "",
							"type": "uint256"
						}
					],
					"stateMutability": "view",
					"type": "function"
				},
				{
					"inputs": [],
					"name": "MAXIMUM_HARVEST_INTERVAL",
					"outputs": [
						{
							"internalType": "uint256",
							"name": "",
							"type": "uint256"
						}
					],
					"stateMutability": "view",
					"type": "function"
				},
				{
					"inputs": [],
					"name": "MAXIMUM_REFERRAL_COMMISSION_RATE",
					"outputs": [
						{
							"internalType": "uint16",
							"name": "",
							"type": "uint16"
						}
					],
					"stateMutability": "view",
					"type": "function"
				},
				{
					"inputs": [],
					"name": "MAX_STAKING_ALLOCATION",
					"outputs": [
						{
							"internalType": "uint256",
							"name": "",
							"type": "uint256"
						}
					],
					"stateMutability": "view",
					"type": "function"
				},
				{
					"inputs": [
						{
							"internalType": "uint256",
							"name": "_allocPoint",
							"type": "uint256"
						},
						{
							"internalType": "contract IERC20",
							"name": "_lpToken",
							"type": "address"
						},
						{
							"internalType": "uint16",
							"name": "_depositFeeBP",
							"type": "uint16"
						},
						{
							"internalType": "uint256",
							"name": "_harvestInterval",
							"type": "uint256"
						},
						{
							"internalType": "bool",
							"name": "_withUpdate",
							"type": "bool"
						}
					],
					"name": "add",
					"outputs": [],
					"stateMutability": "nonpayable",
					"type": "function"
				},
				{
					"inputs": [
						{
							"internalType": "uint256",
							"name": "_pid",
							"type": "uint256"
						},
						{
							"internalType": "address",
							"name": "_user",
							"type": "address"
						}
					],
					"name": "canHarvest",
					"outputs": [
						{
							"internalType": "bool",
							"name": "",
							"type": "bool"
						}
					],
					"stateMutability": "view",
					"type": "function"
				},
				{
					"inputs": [
						{
							"internalType": "uint256",
							"name": "_pid",
							"type": "uint256"
						},
						{
							"internalType": "uint256",
							"name": "_amount",
							"type": "uint256"
						},
						{
							"internalType": "address",
							"name": "_referrer",
							"type": "address"
						}
					],
					"name": "deposit",
					"outputs": [],
					"stateMutability": "nonpayable",
					"type": "function"
				},
				{
					"inputs": [],
					"name": "devAddress",
					"outputs": [
						{
							"internalType": "address",
							"name": "",
							"type": "address"
						}
					],
					"stateMutability": "view",
					"type": "function"
				},
				{
					"inputs": [
						{
							"internalType": "uint256",
							"name": "_pid",
							"type": "uint256"
						}
					],
					"name": "emergencyWithdraw",
					"outputs": [],
					"stateMutability": "nonpayable",
					"type": "function"
				},
				{
					"inputs": [],
					"name": "feeAddress",
					"outputs": [
						{
							"internalType": "address",
							"name": "",
							"type": "address"
						}
					],
					"stateMutability": "view",
					"type": "function"
				},
				{
					"inputs": [
						{
							"internalType": "uint256",
							"name": "_from",
							"type": "uint256"
						},
						{
							"internalType": "uint256",
							"name": "_to",
							"type": "uint256"
						}
					],
					"name": "getMultiplier",
					"outputs": [
						{
							"internalType": "uint256",
							"name": "",
							"type": "uint256"
						}
					],
					"stateMutability": "pure",
					"type": "function"
				},
				{
					"inputs": [],
					"name": "loteTreasury",
					"outputs": [
						{
							"internalType": "contract ILoteTreasury",
							"name": "",
							"type": "address"
						}
					],
					"stateMutability": "view",
					"type": "function"
				},
				{
					"inputs": [],
					"name": "lottery",
					"outputs": [
						{
							"internalType": "contract ILotteryToken",
							"name": "",
							"type": "address"
						}
					],
					"stateMutability": "view",
					"type": "function"
				},
				{
					"inputs": [],
					"name": "lotteryPerBlock",
					"outputs": [
						{
							"internalType": "uint256",
							"name": "",
							"type": "uint256"
						}
					],
					"stateMutability": "view",
					"type": "function"
				},
				{
					"inputs": [],
					"name": "lotteryReferral",
					"outputs": [
						{
							"internalType": "contract ILotteryReferral",
							"name": "",
							"type": "address"
						}
					],
					"stateMutability": "view",
					"type": "function"
				},
				{
					"inputs": [],
					"name": "massUpdatePools",
					"outputs": [],
					"stateMutability": "nonpayable",
					"type": "function"
				},
				{
					"inputs": [],
					"name": "owner",
					"outputs": [
						{
							"internalType": "address",
							"name": "",
							"type": "address"
						}
					],
					"stateMutability": "view",
					"type": "function"
				},
				{
					"inputs": [
						{
							"internalType": "uint256",
							"name": "_pid",
							"type": "uint256"
						},
						{
							"internalType": "address",
							"name": "_user",
							"type": "address"
						}
					],
					"name": "pendingPosition",
					"outputs": [
						{
							"internalType": "uint256",
							"name": "",
							"type": "uint256"
						}
					],
					"stateMutability": "view",
					"type": "function"
				},
				{
					"inputs": [
						{
							"internalType": "uint256",
							"name": "",
							"type": "uint256"
						}
					],
					"name": "poolInfo",
					"outputs": [
						{
							"internalType": "contract IERC20",
							"name": "lpToken",
							"type": "address"
						},
						{
							"internalType": "uint256",
							"name": "allocPoint",
							"type": "uint256"
						},
						{
							"internalType": "uint256",
							"name": "lastRewardBlock",
							"type": "uint256"
						},
						{
							"internalType": "uint256",
							"name": "accPositionPerShare",
							"type": "uint256"
						},
						{
							"internalType": "uint16",
							"name": "depositFeeBP",
							"type": "uint16"
						},
						{
							"internalType": "uint256",
							"name": "harvestInterval",
							"type": "uint256"
						}
					],
					"stateMutability": "view",
					"type": "function"
				},
				{
					"inputs": [],
					"name": "poolLength",
					"outputs": [
						{
							"internalType": "uint256",
							"name": "",
							"type": "uint256"
						}
					],
					"stateMutability": "view",
					"type": "function"
				},
				{
					"inputs": [],
					"name": "referralCommissionRate",
					"outputs": [
						{
							"internalType": "uint16",
							"name": "",
							"type": "uint16"
						}
					],
					"stateMutability": "view",
					"type": "function"
				},
				{
					"inputs": [],
					"name": "renounceOwnership",
					"outputs": [],
					"stateMutability": "nonpayable",
					"type": "function"
				},
				{
					"inputs": [
						{
							"internalType": "uint256",
							"name": "_pid",
							"type": "uint256"
						},
						{
							"internalType": "uint256",
							"name": "_allocPoint",
							"type": "uint256"
						},
						{
							"internalType": "uint16",
							"name": "_depositFeeBP",
							"type": "uint16"
						},
						{
							"internalType": "uint256",
							"name": "_harvestInterval",
							"type": "uint256"
						},
						{
							"internalType": "bool",
							"name": "_withUpdate",
							"type": "bool"
						}
					],
					"name": "set",
					"outputs": [],
					"stateMutability": "nonpayable",
					"type": "function"
				},
				{
					"inputs": [
						{
							"internalType": "address",
							"name": "_devAddress",
							"type": "address"
						}
					],
					"name": "setDevAddress",
					"outputs": [],
					"stateMutability": "nonpayable",
					"type": "function"
				},
				{
					"inputs": [
						{
							"internalType": "address",
							"name": "_feeAddress",
							"type": "address"
						}
					],
					"name": "setFeeAddress",
					"outputs": [],
					"stateMutability": "nonpayable",
					"type": "function"
				},
				{
					"inputs": [
						{
							"internalType": "contract ILotteryReferral",
							"name": "_lotteryReferral",
							"type": "address"
						}
					],
					"name": "setPositionReferral",
					"outputs": [],
					"stateMutability": "nonpayable",
					"type": "function"
				},
				{
					"inputs": [
						{
							"internalType": "uint16",
							"name": "_referralCommissionRate",
							"type": "uint16"
						}
					],
					"name": "setReferralCommissionRate",
					"outputs": [],
					"stateMutability": "nonpayable",
					"type": "function"
				},
				{
					"inputs": [],
					"name": "stakingMinted",
					"outputs": [
						{
							"internalType": "uint256",
							"name": "",
							"type": "uint256"
						}
					],
					"stateMutability": "view",
					"type": "function"
				},
				{
					"inputs": [],
					"name": "startBlock",
					"outputs": [
						{
							"internalType": "uint256",
							"name": "",
							"type": "uint256"
						}
					],
					"stateMutability": "view",
					"type": "function"
				},
				{
					"inputs": [],
					"name": "totalAllocPoint",
					"outputs": [
						{
							"internalType": "uint256",
							"name": "",
							"type": "uint256"
						}
					],
					"stateMutability": "view",
					"type": "function"
				},
				{
					"inputs": [],
					"name": "totalLockedUpRewards",
					"outputs": [
						{
							"internalType": "uint256",
							"name": "",
							"type": "uint256"
						}
					],
					"stateMutability": "view",
					"type": "function"
				},
				{
					"inputs": [
						{
							"internalType": "address",
							"name": "newOwner",
							"type": "address"
						}
					],
					"name": "transferOwnership",
					"outputs": [],
					"stateMutability": "nonpayable",
					"type": "function"
				},
				{
					"inputs": [
						{
							"internalType": "uint256",
							"name": "_lotteryPerBlock",
							"type": "uint256"
						}
					],
					"name": "updateEmissionRate",
					"outputs": [],
					"stateMutability": "nonpayable",
					"type": "function"
				},
				{
					"inputs": [
						{
							"internalType": "uint256",
							"name": "_pid",
							"type": "uint256"
						}
					],
					"name": "updatePool",
					"outputs": [],
					"stateMutability": "nonpayable",
					"type": "function"
				},
				{
					"inputs": [
						{
							"internalType": "uint256",
							"name": "",
							"type": "uint256"
						},
						{
							"internalType": "address",
							"name": "",
							"type": "address"
						}
					],
					"name": "userInfo",
					"outputs": [
						{
							"internalType": "uint256",
							"name": "amount",
							"type": "uint256"
						},
						{
							"internalType": "uint256",
							"name": "rewardDebt",
							"type": "uint256"
						},
						{
							"internalType": "uint256",
							"name": "rewardLockedUp",
							"type": "uint256"
						},
						{
							"internalType": "uint256",
							"name": "nextHarvestUntil",
							"type": "uint256"
						}
					],
					"stateMutability": "view",
					"type": "function"
				},
				{
					"inputs": [
						{
							"internalType": "uint256",
							"name": "_pid",
							"type": "uint256"
						},
						{
							"internalType": "uint256",
							"name": "_amount",
							"type": "uint256"
						}
					],
					"name": "withdraw",
					"outputs": [],
					"stateMutability": "nonpayable",
					"type": "function"
				}
			],
			"devdoc": {
				"kind": "dev",
				"methods": {
					"owner()": {
						"details": "Returns the address of the current owner."
					},
					"renounceOwnership()": {
						"details": "Leaves the contract without owner. It will not be possible to call `onlyOwner` functions anymore. Can only be called by the current owner. NOTE: Renouncing ownership will leave the contract without an owner, thereby removing any functionality that is only available to the owner."
					},
					"transferOwnership(address)": {
						"details": "Transfers ownership of the contract to a new account (`newOwner`). Can only be called by the current owner."
					}
				},
				"version": 1
			},
			"evm": {
				"assembly": "    /* \"contracts/LoteStakingManager.sol\":949:17621  contract LoteStakingManager is Ownable, ReentrancyGuard {\r... */\n  mstore(0x40, 0x80)\n    /* \"contracts/LoteStakingManager.sol\":3474:3475  0 */\n  0x00\n    /* \"contracts/LoteStakingManager.sol\":3441:3475  uint256 public totalAllocPoint = 0 */\n  0x09\n  sstore\n    /* \"contracts/LoteStakingManager.sol\":3820:3862  uint16 public referralCommissionRate = 100 */\n  0x0d\n  dup1\n  sload\n  not(shl(0xa0, 0xffff))\n  and\n  shl(0xa2, 0x19)\n  or\n  swap1\n  sstore\n    /* \"contracts/LoteStakingManager.sol\":4671:5052  constructor(\r... */\n  callvalue\n  dup1\n  iszero\n  tag_1\n  jumpi\n  0x00\n  dup1\n  revert\ntag_1:\n  pop\n  mload(0x40)\n  sub(codesize, bytecodeSize)\n  dup1\n  bytecodeSize\n  dup4\n  codecopy\n  dup2\n  add\n  0x40\n  dup2\n  swap1\n  mstore\n  tag_2\n  swap2\n  tag_3\n  jump\t// in\ntag_2:\n    /* \"@openzeppelin/contracts/access/Ownable.sol\":921:953  _transferOwnership(_msgSender()) */\n  tag_8\n    /* \"@openzeppelin/contracts/utils/Context.sol\":719:729  msg.sender */\n  caller\n    /* \"@openzeppelin/contracts/access/Ownable.sol\":921:939  _transferOwnership */\n  tag_11\n    /* \"@openzeppelin/contracts/access/Ownable.sol\":921:953  _transferOwnership(_msgSender()) */\n  jump\t// in\ntag_8:\n    /* \"@openzeppelin/contracts/security/ReentrancyGuard.sol\":1701:1702  1 */\n  0x01\n    /* \"@openzeppelin/contracts/security/ReentrancyGuard.sol\":1806:1828  _status = _NOT_ENTERED */\n  dup1\n  sstore\n    /* \"contracts/LoteStakingManager.sol\":4837:4844  lottery */\n  0x02\n    /* \"contracts/LoteStakingManager.sol\":4837:4855  lottery = _lottery */\n  dup1\n  sload\n  not(sub(shl(0xa0, 0x01), 0x01))\n  swap1\n  dup2\n  and\n  sub(shl(0xa0, 0x01), 0x01)\n  swap7\n  dup8\n  and\n  or\n  swap1\n  swap2\n  sstore\n    /* \"contracts/LoteStakingManager.sol\":4866:4878  loteTreasury */\n  0x03\n    /* \"contracts/LoteStakingManager.sol\":4866:4894  loteTreasury = _loteTreasury */\n  dup1\n  sload\n  dup3\n  and\n  swap5\n  swap1\n  swap6\n  and\n  swap4\n  swap1\n  swap4\n  or\n  swap1\n  swap4\n  sstore\n    /* \"contracts/LoteStakingManager.sol\":4905:4915  startBlock */\n  0x0a\n    /* \"contracts/LoteStakingManager.sol\":4905:4929  startBlock = _startBlock */\n  sstore\n    /* \"contracts/LoteStakingManager.sol\":4940:4955  lotteryPerBlock */\n  0x06\n    /* \"contracts/LoteStakingManager.sol\":4940:4974  lotteryPerBlock = _lotteryPerBlock */\n  swap2\n  swap1\n  swap2\n  sstore\n  0x04\n    /* \"contracts/LoteStakingManager.sol\":4987:5010  devAddress = msg.sender */\n  dup1\n  sload\n    /* \"contracts/LoteStakingManager.sol\":5000:5010  msg.sender */\n  caller\n    /* \"contracts/LoteStakingManager.sol\":4987:5010  devAddress = msg.sender */\n  swap1\n  dup4\n  and\n  dup2\n  or\n  swap1\n  swap2\n  sstore\n    /* \"contracts/LoteStakingManager.sol\":5021:5031  feeAddress */\n  0x05\n    /* \"contracts/LoteStakingManager.sol\":5021:5044  feeAddress = msg.sender */\n  dup1\n  sload\n  swap1\n  swap3\n  and\n  or\n  swap1\n  sstore\n    /* \"contracts/LoteStakingManager.sol\":949:17621  contract LoteStakingManager is Ownable, ReentrancyGuard {\r... */\n  jump(tag_17)\n    /* \"@openzeppelin/contracts/access/Ownable.sol\":2270:2457  function _transferOwnership(address newOwner) internal virtual {... */\ntag_11:\n    /* \"@openzeppelin/contracts/access/Ownable.sol\":2343:2359  address oldOwner */\n  0x00\n    /* \"@openzeppelin/contracts/access/Ownable.sol\":2362:2368  _owner */\n  dup1\n  sload\n  sub(shl(0xa0, 0x01), 0x01)\n    /* \"@openzeppelin/contracts/access/Ownable.sol\":2378:2395  _owner = newOwner */\n  dup4\n  dup2\n  and\n  not(sub(shl(0xa0, 0x01), 0x01))\n  dup4\n  and\n  dup2\n  or\n  dup5\n  sstore\n    /* \"@openzeppelin/contracts/access/Ownable.sol\":2410:2450  OwnershipTransferred(oldOwner, newOwner) */\n  mload(0x40)\n    /* \"@openzeppelin/contracts/access/Ownable.sol\":2362:2368  _owner */\n  swap2\n  swap1\n  swap3\n  and\n  swap3\n  dup4\n  swap2\n    /* \"@openzeppelin/contracts/access/Ownable.sol\":2410:2450  OwnershipTransferred(oldOwner, newOwner) */\n  0x8be0079c531659141344cd1fd0a4f28419497f9722a3daafe3b4186f6b6457e0\n  swap2\n    /* \"@openzeppelin/contracts/access/Ownable.sol\":2343:2359  address oldOwner */\n  swap1\n    /* \"@openzeppelin/contracts/access/Ownable.sol\":2410:2450  OwnershipTransferred(oldOwner, newOwner) */\n  log3\n    /* \"@openzeppelin/contracts/access/Ownable.sol\":2333:2457  {... */\n  pop\n    /* \"@openzeppelin/contracts/access/Ownable.sol\":2270:2457  function _transferOwnership(address newOwner) internal virtual {... */\n  pop\n  jump\t// out\n    /* \"#utility.yul\":14:596   */\ntag_3:\n    /* \"#utility.yul\":155:161   */\n  0x00\n    /* \"#utility.yul\":163:169   */\n  dup1\n    /* \"#utility.yul\":171:177   */\n  0x00\n    /* \"#utility.yul\":179:185   */\n  dup1\n    /* \"#utility.yul\":232:235   */\n  0x80\n    /* \"#utility.yul\":220:229   */\n  dup6\n    /* \"#utility.yul\":211:218   */\n  dup8\n    /* \"#utility.yul\":207:230   */\n  sub\n    /* \"#utility.yul\":203:236   */\n  slt\n    /* \"#utility.yul\":200:253   */\n  iszero\n  tag_19\n  jumpi\n    /* \"#utility.yul\":249:250   */\n  0x00\n    /* \"#utility.yul\":246:247   */\n  dup1\n    /* \"#utility.yul\":239:251   */\n  revert\n    /* \"#utility.yul\":200:253   */\ntag_19:\n    /* \"#utility.yul\":281:290   */\n  dup5\n    /* \"#utility.yul\":275:291   */\n  mload\n    /* \"#utility.yul\":300:346   */\n  tag_20\n    /* \"#utility.yul\":340:345   */\n  dup2\n    /* \"#utility.yul\":300:346   */\n  tag_21\n  jump\t// in\ntag_20:\n    /* \"#utility.yul\":415:417   */\n  0x20\n    /* \"#utility.yul\":400:418   */\n  dup7\n  add\n    /* \"#utility.yul\":394:419   */\n  mload\n    /* \"#utility.yul\":365:370   */\n  swap1\n  swap5\n  pop\n    /* \"#utility.yul\":428:476   */\n  tag_22\n    /* \"#utility.yul\":394:419   */\n  dup2\n    /* \"#utility.yul\":428:476   */\n  tag_21\n  jump\t// in\ntag_22:\n    /* \"#utility.yul\":542:544   */\n  0x40\n    /* \"#utility.yul\":527:545   */\n  dup7\n  add\n    /* \"#utility.yul\":521:546   */\n  mload\n    /* \"#utility.yul\":586:588   */\n  0x60\n    /* \"#utility.yul\":571:589   */\n  swap1\n  swap7\n  add\n    /* \"#utility.yul\":565:590   */\n  mload\n    /* \"#utility.yul\":14:596   */\n  swap5\n  swap8\n    /* \"#utility.yul\":495:502   */\n  swap1\n  swap7\n  pop\n    /* \"#utility.yul\":14:596   */\n  swap3\n  pop\n  pop\n  pop\n  jump\t// out\n    /* \"#utility.yul\":601:747   */\ntag_21:\n  sub(shl(0xa0, 0x01), 0x01)\n    /* \"#utility.yul\":691:722   */\n  dup2\n  and\n    /* \"#utility.yul\":681:723   */\n  dup2\n  eq\n    /* \"#utility.yul\":671:741   */\n  tag_24\n  jumpi\n    /* \"#utility.yul\":737:738   */\n  0x00\n    /* \"#utility.yul\":734:735   */\n  dup1\n    /* \"#utility.yul\":727:739   */\n  revert\n    /* \"#utility.yul\":671:741   */\ntag_24:\n    /* \"#utility.yul\":601:747   */\n  pop\n  jump\t// out\ntag_17:\n    /* \"contracts/LoteStakingManager.sol\":949:17621  contract LoteStakingManager is Ownable, ReentrancyGuard {\r... */\n  dataSize(sub_0)\n  dup1\n  dataOffset(sub_0)\n  0x00\n  codecopy\n  0x00\n  return\nstop\n\nsub_0: assembly {\n        /* \"contracts/LoteStakingManager.sol\":949:17621  contract LoteStakingManager is Ownable, ReentrancyGuard {\r... */\n      mstore(0x40, 0x80)\n      callvalue\n      dup1\n      iszero\n      tag_1\n      jumpi\n      0x00\n      dup1\n      revert\n    tag_1:\n      pop\n      jumpi(tag_2, lt(calldatasize, 0x04))\n      shr(0xe0, calldataload(0x00))\n      dup1\n      0x630b5ba1\n      gt\n      tag_39\n      jumpi\n      dup1\n      0x93f1a40b\n      gt\n      tag_40\n      jumpi\n      dup1\n      0xba13a572\n      gt\n      tag_41\n      jumpi\n      dup1\n      0xba13a572\n      eq\n      tag_34\n      jumpi\n      dup1\n      0xd0d41fe1\n      eq\n      tag_35\n      jumpi\n      dup1\n      0xd30ef61b\n      eq\n      tag_36\n      jumpi\n      dup1\n      0xde73149d\n      eq\n      tag_37\n      jumpi\n      dup1\n      0xf2fde38b\n      eq\n      tag_38\n      jumpi\n      0x00\n      dup1\n      revert\n    tag_41:\n      dup1\n      0x93f1a40b\n      eq\n      tag_30\n      jumpi\n      dup1\n      0x99335c39\n      eq\n      tag_31\n      jumpi\n      dup1\n      0xa6530050\n      eq\n      tag_32\n      jumpi\n      dup1\n      0xaf018de8\n      eq\n      tag_33\n      jumpi\n      0x00\n      dup1\n      revert\n    tag_40:\n      dup1\n      0x8aa28550\n      gt\n      tag_42\n      jumpi\n      dup1\n      0x8aa28550\n      eq\n      tag_25\n      jumpi\n      dup1\n      0x8da5cb5b\n      eq\n      tag_26\n      jumpi\n      dup1\n      0x8dbb1e3a\n      eq\n      tag_27\n      jumpi\n      dup1\n      0x8dbdbe6d\n      eq\n      tag_28\n      jumpi\n      dup1\n      0x8f97f54c\n      eq\n      tag_29\n      jumpi\n      0x00\n      dup1\n      revert\n    tag_42:\n      dup1\n      0x630b5ba1\n      eq\n      tag_21\n      jumpi\n      dup1\n      0x6497aa90\n      eq\n      tag_22\n      jumpi\n      dup1\n      0x715018a6\n      eq\n      tag_23\n      jumpi\n      dup1\n      0x8705fcd4\n      eq\n      tag_24\n      jumpi\n      0x00\n      dup1\n      revert\n    tag_39:\n      dup1\n      0x3ad10ef6\n      gt\n      tag_43\n      jumpi\n      dup1\n      0x48b22bfb\n      gt\n      tag_44\n      jumpi\n      dup1\n      0x48b22bfb\n      eq\n      tag_16\n      jumpi\n      dup1\n      0x48cd4cb1\n      eq\n      tag_17\n      jumpi\n      dup1\n      0x51eb05a6\n      eq\n      tag_18\n      jumpi\n      dup1\n      0x5312ea8e\n      eq\n      tag_19\n      jumpi\n      dup1\n      0x55dbc826\n      eq\n      tag_20\n      jumpi\n      0x00\n      dup1\n      revert\n    tag_44:\n      dup1\n      0x3ad10ef6\n      eq\n      tag_12\n      jumpi\n      dup1\n      0x41275358\n      eq\n      tag_13\n      jumpi\n      dup1\n      0x441a3e70\n      eq\n      tag_14\n      jumpi\n      dup1\n      0x474fa630\n      eq\n      tag_15\n      jumpi\n      0x00\n      dup1\n      revert\n    tag_43:\n      dup1\n      0x2143e545\n      gt\n      tag_45\n      jumpi\n      dup1\n      0x2143e545\n      eq\n      tag_7\n      jumpi\n      dup1\n      0x251b7e89\n      eq\n      tag_8\n      jumpi\n      dup1\n      0x27ddb5a9\n      eq\n      tag_9\n      jumpi\n      dup1\n      0x2e6c998d\n      eq\n      tag_10\n      jumpi\n      dup1\n      0x2f1536b8\n      eq\n      tag_11\n      jumpi\n      0x00\n      dup1\n      revert\n    tag_45:\n      dup1\n      0x081e3eda\n      eq\n      tag_3\n      jumpi\n      dup1\n      0x0ba84cd2\n      eq\n      tag_4\n      jumpi\n      dup1\n      0x1526fe27\n      eq\n      tag_5\n      jumpi\n      dup1\n      0x17caf6f1\n      eq\n      tag_6\n      jumpi\n    tag_2:\n      0x00\n      dup1\n      revert\n        /* \"contracts/LoteStakingManager.sol\":5060:5155  function poolLength() external view returns (uint256) {\r... */\n    tag_3:\n        /* \"contracts/LoteStakingManager.sol\":5132:5140  poolInfo */\n      0x07\n        /* \"contracts/LoteStakingManager.sol\":5132:5147  poolInfo.length */\n      sload\n        /* \"contracts/LoteStakingManager.sol\":5060:5155  function poolLength() external view returns (uint256) {\r... */\n    tag_46:\n      mload(0x40)\n        /* \"#utility.yul\":14221:14246   */\n      swap1\n      dup2\n      mstore\n        /* \"#utility.yul\":14209:14211   */\n      0x20\n        /* \"#utility.yul\":14194:14212   */\n      add\n        /* \"contracts/LoteStakingManager.sol\":5060:5155  function poolLength() external view returns (uint256) {\r... */\n    tag_48:\n      mload(0x40)\n      dup1\n      swap2\n      sub\n      swap1\n      return\n        /* \"contracts/LoteStakingManager.sol\":15713:15947  function updateEmissionRate(uint256 _lotteryPerBlock) public onlyOwner {\r... */\n    tag_4:\n      tag_50\n      tag_51\n      calldatasize\n      0x04\n      tag_52\n      jump\t// in\n    tag_51:\n      tag_53\n      jump\t// in\n    tag_50:\n      stop\n        /* \"contracts/LoteStakingManager.sol\":3200:3226  PoolInfo[] public poolInfo */\n    tag_5:\n      tag_54\n      tag_55\n      calldatasize\n      0x04\n      tag_52\n      jump\t// in\n    tag_55:\n      tag_56\n      jump\t// in\n    tag_54:\n      0x40\n      dup1\n      mload\n      sub(shl(0xa0, 0x01), 0x01)\n        /* \"#utility.yul\":6121:6153   */\n      swap1\n      swap8\n      and\n        /* \"#utility.yul\":6103:6154   */\n      dup8\n      mstore\n        /* \"#utility.yul\":6185:6187   */\n      0x20\n        /* \"#utility.yul\":6170:6188   */\n      dup8\n      add\n        /* \"#utility.yul\":6163:6197   */\n      swap6\n      swap1\n      swap6\n      mstore\n        /* \"#utility.yul\":6213:6231   */\n      swap4\n      dup6\n      add\n        /* \"#utility.yul\":6206:6240   */\n      swap3\n      swap1\n      swap3\n      mstore\n        /* \"#utility.yul\":6271:6273   */\n      0x60\n        /* \"#utility.yul\":6256:6274   */\n      dup5\n      add\n        /* \"#utility.yul\":6249:6283   */\n      mstore\n        /* \"#utility.yul\":6332:6338   */\n      0xffff\n        /* \"#utility.yul\":6320:6339   */\n      and\n        /* \"#utility.yul\":6314:6317   */\n      0x80\n        /* \"#utility.yul\":6299:6318   */\n      dup4\n      add\n        /* \"#utility.yul\":6292:6340   */\n      mstore\n        /* \"#utility.yul\":6141:6144   */\n      0xa0\n        /* \"#utility.yul\":6356:6375   */\n      dup3\n      add\n        /* \"#utility.yul\":6349:6384   */\n      mstore\n        /* \"#utility.yul\":6090:6093   */\n      0xc0\n        /* \"#utility.yul\":6075:6094   */\n      add\n        /* \"contracts/LoteStakingManager.sol\":3200:3226  PoolInfo[] public poolInfo */\n      tag_48\n        /* \"#utility.yul\":5804:6390   */\n      jump\n        /* \"contracts/LoteStakingManager.sol\":3441:3475  uint256 public totalAllocPoint = 0 */\n    tag_6:\n      tag_46\n      sload(0x09)\n      dup2\n      jump\n        /* \"contracts/LoteStakingManager.sol\":6479:7275  function set(\r... */\n    tag_7:\n      tag_50\n      tag_63\n      calldatasize\n      0x04\n      tag_64\n      jump\t// in\n    tag_63:\n      tag_65\n      jump\t// in\n        /* \"contracts/LoteStakingManager.sol\":3724:3763  ILotteryReferral public lotteryReferral */\n    tag_8:\n      sload(0x0d)\n      tag_66\n      swap1\n      sub(shl(0xa0, 0x01), 0x01)\n      and\n      dup2\n      jump\n    tag_66:\n      mload(0x40)\n      sub(shl(0xa0, 0x01), 0x01)\n        /* \"#utility.yul\":4600:4632   */\n      swap1\n      swap2\n      and\n        /* \"#utility.yul\":4582:4633   */\n      dup2\n      mstore\n        /* \"#utility.yul\":4570:4572   */\n      0x20\n        /* \"#utility.yul\":4555:4573   */\n      add\n        /* \"contracts/LoteStakingManager.sol\":3724:3763  ILotteryReferral public lotteryReferral */\n      tag_48\n        /* \"#utility.yul\":4436:4639   */\n      jump\n        /* \"contracts/LoteStakingManager.sol\":3092:3156  uint256 public constant MAX_STAKING_ALLOCATION = 80*10**6*10**18 */\n    tag_9:\n      tag_46\n        /* \"contracts/LoteStakingManager.sol\":3141:3156  80*10**6*10**18 */\n      0x422ca8b0a00a4250000000\n        /* \"contracts/LoteStakingManager.sol\":3092:3156  uint256 public constant MAX_STAKING_ALLOCATION = 80*10**6*10**18 */\n      dup2\n      jump\n        /* \"contracts/LoteStakingManager.sol\":8696:8926  function canHarvest(uint256 _pid, address _user)\r... */\n    tag_10:\n      tag_73\n      tag_74\n      calldatasize\n      0x04\n      tag_75\n      jump\t// in\n    tag_74:\n        /* \"contracts/LoteStakingManager.sol\":8793:8797  bool */\n      0x00\n        /* \"contracts/LoteStakingManager.sol\":8839:8853  userInfo[_pid] */\n      swap2\n      dup3\n      mstore\n        /* \"contracts/LoteStakingManager.sol\":8839:8847  userInfo */\n      0x08\n        /* \"contracts/LoteStakingManager.sol\":8839:8853  userInfo[_pid] */\n      0x20\n      swap1\n      dup2\n      mstore\n      0x40\n      dup1\n      dup5\n      keccak256\n      sub(shl(0xa0, 0x01), 0x01)\n        /* \"contracts/LoteStakingManager.sol\":8839:8860  userInfo[_pid][_user] */\n      swap4\n      swap1\n      swap4\n      and\n      dup5\n      mstore\n      swap2\n      swap1\n      mstore\n      swap1\n      keccak256\n        /* \"contracts/LoteStakingManager.sol\":8897:8918  user.nextHarvestUntil */\n      0x03\n      add\n      sload\n        /* \"contracts/LoteStakingManager.sol\":8878:8893  block.timestamp */\n      timestamp\n        /* \"contracts/LoteStakingManager.sol\":8878:8918  block.timestamp >= user.nextHarvestUntil */\n      lt\n      iszero\n      swap1\n        /* \"contracts/LoteStakingManager.sol\":8696:8926  function canHarvest(uint256 _pid, address _user)\r... */\n      jump\n    tag_73:\n      mload(0x40)\n        /* \"#utility.yul\":5777:5791   */\n      swap1\n      iszero\n        /* \"#utility.yul\":5770:5792   */\n      iszero\n        /* \"#utility.yul\":5752:5793   */\n      dup2\n      mstore\n        /* \"#utility.yul\":5740:5742   */\n      0x20\n        /* \"#utility.yul\":5725:5743   */\n      add\n        /* \"contracts/LoteStakingManager.sol\":8696:8926  function canHarvest(uint256 _pid, address _user)\r... */\n      tag_48\n        /* \"#utility.yul\":5612:5799   */\n      jump\n        /* \"contracts/LoteStakingManager.sol\":16022:16179  function setPositionReferral(ILotteryReferral _lotteryReferral)\r... */\n    tag_11:\n      tag_50\n      tag_80\n      calldatasize\n      0x04\n      tag_123\n      jump\t// in\n    tag_80:\n      tag_82\n      jump\t// in\n        /* \"contracts/LoteStakingManager.sol\":2714:2739  address public devAddress */\n    tag_12:\n      sload(0x04)\n      tag_66\n      swap1\n      sub(shl(0xa0, 0x01), 0x01)\n      and\n      dup2\n      jump\n        /* \"contracts/LoteStakingManager.sol\":2774:2799  address public feeAddress */\n    tag_13:\n      sload(0x05)\n      tag_66\n      swap1\n      sub(shl(0xa0, 0x01), 0x01)\n      and\n      dup2\n      jump\n        /* \"contracts/LoteStakingManager.sol\":12031:12645  function withdraw(uint256 _pid, uint256 _amount) public nonReentrant {\r... */\n    tag_14:\n      tag_50\n      tag_91\n      calldatasize\n      0x04\n      tag_92\n      jump\t// in\n    tag_91:\n      tag_93\n      jump\t// in\n        /* \"contracts/LoteStakingManager.sol\":3600:3635  uint256 public totalLockedUpRewards */\n    tag_15:\n      tag_46\n      sload(0x0b)\n      dup2\n      jump\n        /* \"contracts/LoteStakingManager.sol\":3912:3974  uint16 public constant MAXIMUM_REFERRAL_COMMISSION_RATE = 1000 */\n    tag_16:\n      tag_97\n        /* \"contracts/LoteStakingManager.sol\":3970:3974  1000 */\n      0x03e8\n        /* \"contracts/LoteStakingManager.sol\":3912:3974  uint16 public constant MAXIMUM_REFERRAL_COMMISSION_RATE = 1000 */\n      dup2\n      jump\n    tag_97:\n      mload(0x40)\n        /* \"#utility.yul\":14056:14062   */\n      0xffff\n        /* \"#utility.yul\":14044:14063   */\n      swap1\n      swap2\n      and\n        /* \"#utility.yul\":14026:14064   */\n      dup2\n      mstore\n        /* \"#utility.yul\":14014:14016   */\n      0x20\n        /* \"#utility.yul\":13999:14017   */\n      add\n        /* \"contracts/LoteStakingManager.sol\":3912:3974  uint16 public constant MAXIMUM_REFERRAL_COMMISSION_RATE = 1000 */\n      tag_48\n        /* \"#utility.yul\":13882:14070   */\n      jump\n        /* \"contracts/LoteStakingManager.sol\":3536:3561  uint256 public startBlock */\n    tag_17:\n      tag_46\n      sload(0x0a)\n      dup2\n      jump\n        /* \"contracts/LoteStakingManager.sol\":9265:10381  function updatePool(uint256 _pid) public {\r... */\n    tag_18:\n      tag_50\n      tag_105\n      calldatasize\n      0x04\n      tag_52\n      jump\t// in\n    tag_105:\n      tag_106\n      jump\t// in\n        /* \"contracts/LoteStakingManager.sol\":12716:13184  function emergencyWithdraw(uint256 _pid) public nonReentrant {\r... */\n    tag_19:\n      tag_50\n      tag_108\n      calldatasize\n      0x04\n      tag_52\n      jump\t// in\n    tag_108:\n      tag_109\n      jump\t// in\n        /* \"contracts/LoteStakingManager.sol\":16240:16606  function setReferralCommissionRate(uint16 _referralCommissionRate)\r... */\n    tag_20:\n      tag_50\n      tag_111\n      calldatasize\n      0x04\n      tag_112\n      jump\t// in\n    tag_111:\n      tag_113\n      jump\t// in\n        /* \"contracts/LoteStakingManager.sol\":9009:9189  function massUpdatePools() public {\r... */\n    tag_21:\n      tag_50\n      tag_115\n      jump\t// in\n        /* \"contracts/LoteStakingManager.sol\":3644:3672  uint256 public stakingMinted */\n    tag_22:\n      tag_46\n      sload(0x0c)\n      dup2\n      jump\n        /* \"@openzeppelin/contracts/access/Ownable.sol\":1668:1769  function renounceOwnership() public virtual onlyOwner {... */\n    tag_23:\n      tag_50\n      tag_120\n      jump\t// in\n        /* \"contracts/LoteStakingManager.sol\":15346:15580  function setFeeAddress(address _feeAddress) public {\r... */\n    tag_24:\n      tag_50\n      tag_122\n      calldatasize\n      0x04\n      tag_123\n      jump\t// in\n    tag_122:\n      tag_124\n      jump\t// in\n        /* \"contracts/LoteStakingManager.sol\":2937:2981  uint256 public constant BONUS_MULTIPLIER = 1 */\n    tag_25:\n      tag_46\n        /* \"contracts/LoteStakingManager.sol\":2980:2981  1 */\n      0x01\n        /* \"contracts/LoteStakingManager.sol\":2937:2981  uint256 public constant BONUS_MULTIPLIER = 1 */\n      dup2\n      jump\n        /* \"@openzeppelin/contracts/access/Ownable.sol\":1036:1121  function owner() public view virtual returns (address) {... */\n    tag_26:\n        /* \"@openzeppelin/contracts/access/Ownable.sol\":1082:1089  address */\n      0x00\n        /* \"@openzeppelin/contracts/access/Ownable.sol\":1108:1114  _owner */\n      sload\n      sub(shl(0xa0, 0x01), 0x01)\n      and\n        /* \"@openzeppelin/contracts/access/Ownable.sol\":1036:1121  function owner() public view virtual returns (address) {... */\n      jump(tag_66)\n        /* \"contracts/LoteStakingManager.sol\":7351:7526  function getMultiplier(uint256 _from, uint256 _to)\r... */\n    tag_27:\n      tag_46\n      tag_132\n      calldatasize\n      0x04\n      tag_92\n      jump\t// in\n    tag_132:\n      tag_133\n      jump\t// in\n        /* \"contracts/LoteStakingManager.sol\":10462:11971  function deposit(\r... */\n    tag_28:\n      tag_50\n      tag_136\n      calldatasize\n      0x04\n      tag_137\n      jump\t// in\n    tag_136:\n      tag_138\n      jump\t// in\n        /* \"contracts/LoteStakingManager.sol\":2849:2879  uint256 public lotteryPerBlock */\n    tag_29:\n      tag_46\n      sload(0x06)\n      dup2\n      jump\n        /* \"contracts/LoteStakingManager.sol\":3282:3346  mapping(uint256 => mapping(address => UserInfo)) public userInfo */\n    tag_30:\n      tag_142\n      tag_143\n      calldatasize\n      0x04\n      tag_75\n      jump\t// in\n    tag_143:\n      0x08\n      0x20\n      swap1\n      dup2\n      mstore\n      0x00\n      swap3\n      dup4\n      mstore\n      0x40\n      dup1\n      dup5\n      keccak256\n      swap1\n      swap2\n      mstore\n      swap1\n      dup3\n      mstore\n      swap1\n      keccak256\n      dup1\n      sload\n      0x01\n      dup3\n      add\n      sload\n      0x02\n      dup4\n      add\n      sload\n      0x03\n      swap1\n      swap4\n      add\n      sload\n      swap2\n      swap3\n      swap1\n      swap2\n      dup5\n      jump\n    tag_142:\n      0x40\n      dup1\n      mload\n        /* \"#utility.yul\":14741:14766   */\n      swap5\n      dup6\n      mstore\n        /* \"#utility.yul\":14797:14799   */\n      0x20\n        /* \"#utility.yul\":14782:14800   */\n      dup6\n      add\n        /* \"#utility.yul\":14775:14809   */\n      swap4\n      swap1\n      swap4\n      mstore\n        /* \"#utility.yul\":14825:14843   */\n      swap2\n      dup4\n      add\n        /* \"#utility.yul\":14818:14852   */\n      mstore\n        /* \"#utility.yul\":14883:14885   */\n      0x60\n        /* \"#utility.yul\":14868:14886   */\n      dup3\n      add\n        /* \"#utility.yul\":14861:14895   */\n      mstore\n        /* \"#utility.yul\":14728:14731   */\n      0x80\n        /* \"#utility.yul\":14713:14732   */\n      add\n        /* \"contracts/LoteStakingManager.sol\":3282:3346  mapping(uint256 => mapping(address => UserInfo)) public userInfo */\n      tag_48\n        /* \"#utility.yul\":14510:14901   */\n      jump\n        /* \"contracts/LoteStakingManager.sol\":7594:8628  function pendingPosition(uint256 _pid, address _user)\r... */\n    tag_31:\n      tag_46\n      tag_148\n      calldatasize\n      0x04\n      tag_75\n      jump\t// in\n    tag_148:\n      tag_149\n      jump\t// in\n        /* \"contracts/LoteStakingManager.sol\":2653:2686  ILoteTreasury public loteTreasury */\n    tag_32:\n      sload(0x03)\n      tag_66\n      swap1\n      sub(shl(0xa0, 0x01), 0x01)\n      and\n      dup2\n      jump\n        /* \"contracts/LoteStakingManager.sol\":5324:6363  function add(\r... */\n    tag_33:\n      tag_50\n      tag_156\n      calldatasize\n      0x04\n      tag_157\n      jump\t// in\n    tag_156:\n      tag_158\n      jump\t// in\n        /* \"contracts/LoteStakingManager.sol\":2618:2646  ILotteryToken public lottery */\n    tag_34:\n      sload(0x02)\n      tag_66\n      swap1\n      sub(shl(0xa0, 0x01), 0x01)\n      and\n      dup2\n      jump\n        /* \"contracts/LoteStakingManager.sol\":15104:15338  function setDevAddress(address _devAddress) public {\r... */\n    tag_35:\n      tag_50\n      tag_164\n      calldatasize\n      0x04\n      tag_123\n      jump\t// in\n    tag_164:\n      tag_165\n      jump\t// in\n        /* \"contracts/LoteStakingManager.sol\":3820:3862  uint16 public referralCommissionRate = 100 */\n    tag_36:\n      sload(0x0d)\n      tag_97\n      swap1\n      shl(0xa0, 0x01)\n      swap1\n      div\n      0xffff\n      and\n      dup2\n      jump\n        /* \"contracts/LoteStakingManager.sol\":3027:3085  uint256 public constant MAXIMUM_HARVEST_INTERVAL = 14 days */\n    tag_37:\n      tag_46\n        /* \"contracts/LoteStakingManager.sol\":3078:3085  14 days */\n      0x127500\n        /* \"contracts/LoteStakingManager.sol\":3027:3085  uint256 public constant MAXIMUM_HARVEST_INTERVAL = 14 days */\n      dup2\n      jump\n        /* \"@openzeppelin/contracts/access/Ownable.sol\":1918:2116  function transferOwnership(address newOwner) public virtual onlyOwner {... */\n    tag_38:\n      tag_50\n      tag_173\n      calldatasize\n      0x04\n      tag_123\n      jump\t// in\n    tag_173:\n      tag_174\n      jump\t// in\n        /* \"contracts/LoteStakingManager.sol\":15713:15947  function updateEmissionRate(uint256 _lotteryPerBlock) public onlyOwner {\r... */\n    tag_53:\n        /* \"@openzeppelin/contracts/access/Ownable.sol\":1082:1089  address */\n      0x00\n        /* \"@openzeppelin/contracts/access/Ownable.sol\":1108:1114  _owner */\n      sload\n      sub(shl(0xa0, 0x01), 0x01)\n      and\n        /* \"@openzeppelin/contracts/utils/Context.sol\":719:729  msg.sender */\n      caller\n        /* \"@openzeppelin/contracts/access/Ownable.sol\":1248:1271  owner() == _msgSender() */\n      eq\n        /* \"@openzeppelin/contracts/access/Ownable.sol\":1240:1308  require(owner() == _msgSender(), \"Ownable: caller is not the owner\") */\n      tag_180\n      jumpi\n      mload(0x40)\n      shl(0xe5, 0x461bcd)\n      dup2\n      mstore\n      0x04\n      add\n      tag_181\n      swap1\n      tag_182\n      jump\t// in\n    tag_181:\n      mload(0x40)\n      dup1\n      swap2\n      sub\n      swap1\n      revert\n    tag_180:\n        /* \"contracts/LoteStakingManager.sol\":15795:15812  massUpdatePools() */\n      tag_184\n        /* \"contracts/LoteStakingManager.sol\":15795:15810  massUpdatePools */\n      tag_115\n        /* \"contracts/LoteStakingManager.sol\":15795:15812  massUpdatePools() */\n      jump\t// in\n    tag_184:\n        /* \"contracts/LoteStakingManager.sol\":15860:15875  lotteryPerBlock */\n      sload(0x06)\n        /* \"contracts/LoteStakingManager.sol\":15828:15894  EmissionRateUpdated(msg.sender, lotteryPerBlock, _lotteryPerBlock) */\n      0x40\n      dup1\n      mload\n        /* \"#utility.yul\":14431:14456   */\n      swap2\n      dup3\n      mstore\n        /* \"#utility.yul\":14487:14489   */\n      0x20\n        /* \"#utility.yul\":14472:14490   */\n      dup3\n      add\n        /* \"#utility.yul\":14465:14499   */\n      dup4\n      swap1\n      mstore\n        /* \"contracts/LoteStakingManager.sol\":15848:15858  msg.sender */\n      caller\n      swap2\n        /* \"contracts/LoteStakingManager.sol\":15828:15894  EmissionRateUpdated(msg.sender, lotteryPerBlock, _lotteryPerBlock) */\n      0xeedc6338c9c1ad8f3cd6c90dd09dbe98dbd57e610d3e59a17996d07acb0d9511\n      swap2\n        /* \"#utility.yul\":14404:14422   */\n      add\n        /* \"contracts/LoteStakingManager.sol\":15828:15894  EmissionRateUpdated(msg.sender, lotteryPerBlock, _lotteryPerBlock) */\n      mload(0x40)\n      dup1\n      swap2\n      sub\n      swap1\n      log2\n        /* \"contracts/LoteStakingManager.sol\":15905:15920  lotteryPerBlock */\n      0x06\n        /* \"contracts/LoteStakingManager.sol\":15905:15939  lotteryPerBlock = _lotteryPerBlock */\n      sstore\n        /* \"contracts/LoteStakingManager.sol\":15713:15947  function updateEmissionRate(uint256 _lotteryPerBlock) public onlyOwner {\r... */\n      jump\t// out\n        /* \"contracts/LoteStakingManager.sol\":3200:3226  PoolInfo[] public poolInfo */\n    tag_56:\n      0x07\n      dup2\n      dup2\n      sload\n      dup2\n      lt\n      tag_187\n      jumpi\n      0x00\n      dup1\n      revert\n    tag_187:\n      0x00\n      swap2\n      dup3\n      mstore\n      0x20\n      swap1\n      swap2\n      keccak256\n      0x06\n      swap1\n      swap2\n      mul\n      add\n      dup1\n      sload\n      0x01\n      dup3\n      add\n      sload\n      0x02\n      dup4\n      add\n      sload\n      0x03\n      dup5\n      add\n      sload\n      0x04\n      dup6\n      add\n      sload\n      0x05\n      swap1\n      swap6\n      add\n      sload\n      sub(shl(0xa0, 0x01), 0x01)\n      swap1\n      swap5\n      and\n      swap6\n      pop\n      swap2\n      swap4\n      swap1\n      swap3\n      0xffff\n      swap1\n      swap2\n      and\n      swap1\n      dup7\n      jump\t// out\n        /* \"contracts/LoteStakingManager.sol\":6479:7275  function set(\r... */\n    tag_65:\n        /* \"@openzeppelin/contracts/access/Ownable.sol\":1082:1089  address */\n      0x00\n        /* \"@openzeppelin/contracts/access/Ownable.sol\":1108:1114  _owner */\n      sload\n      sub(shl(0xa0, 0x01), 0x01)\n      and\n        /* \"@openzeppelin/contracts/utils/Context.sol\":719:729  msg.sender */\n      caller\n        /* \"@openzeppelin/contracts/access/Ownable.sol\":1248:1271  owner() == _msgSender() */\n      eq\n        /* \"@openzeppelin/contracts/access/Ownable.sol\":1240:1308  require(owner() == _msgSender(), \"Ownable: caller is not the owner\") */\n      tag_192\n      jumpi\n      mload(0x40)\n      shl(0xe5, 0x461bcd)\n      dup2\n      mstore\n      0x04\n      add\n      tag_181\n      swap1\n      tag_182\n      jump\t// in\n    tag_192:\n        /* \"contracts/LoteStakingManager.sol\":6712:6717  10000 */\n      0x2710\n        /* \"contracts/LoteStakingManager.sol\":6695:6708  _depositFeeBP */\n      dup4\n        /* \"contracts/LoteStakingManager.sol\":6695:6717  _depositFeeBP <= 10000 */\n      0xffff\n      and\n      gt\n      iszero\n        /* \"contracts/LoteStakingManager.sol\":6673:6782  require(\r... */\n      tag_195\n      jumpi\n      mload(0x40)\n      shl(0xe5, 0x461bcd)\n      dup2\n      mstore\n        /* \"#utility.yul\":11130:11132   */\n      0x20\n        /* \"contracts/LoteStakingManager.sol\":6673:6782  require(\r... */\n      0x04\n      dup3\n      add\n        /* \"#utility.yul\":11112:11133   */\n      mstore\n        /* \"#utility.yul\":11169:11171   */\n      0x25\n        /* \"#utility.yul\":11149:11167   */\n      0x24\n      dup3\n      add\n        /* \"#utility.yul\":11142:11172   */\n      mstore\n        /* \"#utility.yul\":11208:11242   */\n      0x7365743a20696e76616c6964206465706f736974206665652062617369732070\n        /* \"#utility.yul\":11188:11206   */\n      0x44\n      dup3\n      add\n        /* \"#utility.yul\":11181:11243   */\n      mstore\n      shl(0xd8, 0x6f696e7473)\n        /* \"#utility.yul\":11259:11277   */\n      0x64\n      dup3\n      add\n        /* \"#utility.yul\":11252:11287   */\n      mstore\n        /* \"#utility.yul\":11304:11323   */\n      0x84\n      add\n        /* \"contracts/LoteStakingManager.sol\":6673:6782  require(\r... */\n      tag_181\n        /* \"#utility.yul\":10928:11329   */\n      jump\n        /* \"contracts/LoteStakingManager.sol\":6673:6782  require(\r... */\n    tag_195:\n        /* \"contracts/LoteStakingManager.sol\":3078:3085  14 days */\n      0x127500\n        /* \"contracts/LoteStakingManager.sol\":6815:6831  _harvestInterval */\n      dup3\n        /* \"contracts/LoteStakingManager.sol\":6815:6859  _harvestInterval <= MAXIMUM_HARVEST_INTERVAL */\n      gt\n      iszero\n        /* \"contracts/LoteStakingManager.sol\":6793:6916  require(\r... */\n      tag_198\n      jumpi\n      mload(0x40)\n      shl(0xe5, 0x461bcd)\n      dup2\n      mstore\n        /* \"#utility.yul\":11897:11899   */\n      0x20\n        /* \"contracts/LoteStakingManager.sol\":6793:6916  require(\r... */\n      0x04\n      dup3\n      add\n        /* \"#utility.yul\":11879:11900   */\n      mstore\n        /* \"#utility.yul\":11936:11938   */\n      0x1d\n        /* \"#utility.yul\":11916:11934   */\n      0x24\n      dup3\n      add\n        /* \"#utility.yul\":11909:11939   */\n      mstore\n        /* \"#utility.yul\":11975:12006   */\n      0x7365743a20696e76616c6964206861727665737420696e74657276616c000000\n        /* \"#utility.yul\":11955:11973   */\n      0x44\n      dup3\n      add\n        /* \"#utility.yul\":11948:12007   */\n      mstore\n        /* \"#utility.yul\":12024:12042   */\n      0x64\n      add\n        /* \"contracts/LoteStakingManager.sol\":6793:6916  require(\r... */\n      tag_181\n        /* \"#utility.yul\":11695:12048   */\n      jump\n        /* \"contracts/LoteStakingManager.sol\":6793:6916  require(\r... */\n    tag_198:\n        /* \"contracts/LoteStakingManager.sol\":6931:6942  _withUpdate */\n      dup1\n        /* \"contracts/LoteStakingManager.sol\":6927:6988  if (_withUpdate) {\r... */\n      iszero\n      tag_202\n      jumpi\n        /* \"contracts/LoteStakingManager.sol\":6959:6976  massUpdatePools() */\n      tag_202\n        /* \"contracts/LoteStakingManager.sol\":6959:6974  massUpdatePools */\n      tag_115\n        /* \"contracts/LoteStakingManager.sol\":6959:6976  massUpdatePools() */\n      jump\t// in\n    tag_202:\n        /* \"contracts/LoteStakingManager.sol\":7016:7103  totalAllocPoint.sub(poolInfo[_pid].allocPoint).add(\r... */\n      tag_203\n        /* \"contracts/LoteStakingManager.sol\":7081:7092  _allocPoint */\n      dup5\n        /* \"contracts/LoteStakingManager.sol\":7016:7062  totalAllocPoint.sub(poolInfo[_pid].allocPoint) */\n      tag_204\n        /* \"contracts/LoteStakingManager.sol\":7036:7044  poolInfo */\n      0x07\n        /* \"contracts/LoteStakingManager.sol\":7045:7049  _pid */\n      dup9\n        /* \"contracts/LoteStakingManager.sol\":7036:7050  poolInfo[_pid] */\n      dup2\n      sload\n      dup2\n      lt\n      tag_206\n      jumpi\n      tag_206\n      tag_207\n      jump\t// in\n    tag_206:\n      swap1\n      0x00\n      mstore\n      keccak256(0x00, 0x20)\n      swap1\n      0x06\n      mul\n      add\n        /* \"contracts/LoteStakingManager.sol\":7036:7061  poolInfo[_pid].allocPoint */\n      0x01\n      add\n      sload\n        /* \"contracts/LoteStakingManager.sol\":7016:7031  totalAllocPoint */\n      sload(0x09)\n        /* \"contracts/LoteStakingManager.sol\":7016:7035  totalAllocPoint.sub */\n      tag_209\n      swap1\n        /* \"contracts/LoteStakingManager.sol\":7016:7062  totalAllocPoint.sub(poolInfo[_pid].allocPoint) */\n      swap2\n      swap1\n      0xffffffff\n      and\n      jump\t// in\n    tag_204:\n        /* \"contracts/LoteStakingManager.sol\":7016:7066  totalAllocPoint.sub(poolInfo[_pid].allocPoint).add */\n      swap1\n      tag_210\n        /* \"contracts/LoteStakingManager.sol\":7016:7103  totalAllocPoint.sub(poolInfo[_pid].allocPoint).add(\r... */\n      jump\t// in\n    tag_203:\n        /* \"contracts/LoteStakingManager.sol\":6998:7013  totalAllocPoint */\n      0x09\n        /* \"contracts/LoteStakingManager.sol\":6998:7103  totalAllocPoint = totalAllocPoint.sub(poolInfo[_pid].allocPoint).add(\r... */\n      dup2\n      swap1\n      sstore\n      pop\n        /* \"contracts/LoteStakingManager.sol\":7142:7153  _allocPoint */\n      dup4\n        /* \"contracts/LoteStakingManager.sol\":7114:7122  poolInfo */\n      0x07\n        /* \"contracts/LoteStakingManager.sol\":7123:7127  _pid */\n      dup7\n        /* \"contracts/LoteStakingManager.sol\":7114:7128  poolInfo[_pid] */\n      dup2\n      sload\n      dup2\n      lt\n      tag_212\n      jumpi\n      tag_212\n      tag_207\n      jump\t// in\n    tag_212:\n      swap1\n      0x00\n      mstore\n      keccak256(0x00, 0x20)\n      swap1\n      0x06\n      mul\n      add\n        /* \"contracts/LoteStakingManager.sol\":7114:7139  poolInfo[_pid].allocPoint */\n      0x01\n      add\n        /* \"contracts/LoteStakingManager.sol\":7114:7153  poolInfo[_pid].allocPoint = _allocPoint */\n      dup2\n      swap1\n      sstore\n      pop\n        /* \"contracts/LoteStakingManager.sol\":7194:7207  _depositFeeBP */\n      dup3\n        /* \"contracts/LoteStakingManager.sol\":7164:7172  poolInfo */\n      0x07\n        /* \"contracts/LoteStakingManager.sol\":7173:7177  _pid */\n      dup7\n        /* \"contracts/LoteStakingManager.sol\":7164:7178  poolInfo[_pid] */\n      dup2\n      sload\n      dup2\n      lt\n      tag_215\n      jumpi\n      tag_215\n      tag_207\n      jump\t// in\n    tag_215:\n      swap1\n      0x00\n      mstore\n      keccak256(0x00, 0x20)\n      swap1\n      0x06\n      mul\n      add\n        /* \"contracts/LoteStakingManager.sol\":7164:7191  poolInfo[_pid].depositFeeBP */\n      0x04\n      add\n      0x00\n        /* \"contracts/LoteStakingManager.sol\":7164:7207  poolInfo[_pid].depositFeeBP = _depositFeeBP */\n      0x0100\n      exp\n      dup2\n      sload\n      dup2\n      0xffff\n      mul\n      not\n      and\n      swap1\n      dup4\n      0xffff\n      and\n      mul\n      or\n      swap1\n      sstore\n      pop\n        /* \"contracts/LoteStakingManager.sol\":7251:7267  _harvestInterval */\n      dup2\n        /* \"contracts/LoteStakingManager.sol\":7218:7226  poolInfo */\n      0x07\n        /* \"contracts/LoteStakingManager.sol\":7227:7231  _pid */\n      dup7\n        /* \"contracts/LoteStakingManager.sol\":7218:7232  poolInfo[_pid] */\n      dup2\n      sload\n      dup2\n      lt\n      tag_218\n      jumpi\n      tag_218\n      tag_207\n      jump\t// in\n    tag_218:\n      swap1\n      0x00\n      mstore\n      keccak256(0x00, 0x20)\n      swap1\n      0x06\n      mul\n      add\n        /* \"contracts/LoteStakingManager.sol\":7218:7248  poolInfo[_pid].harvestInterval */\n      0x05\n      add\n        /* \"contracts/LoteStakingManager.sol\":7218:7267  poolInfo[_pid].harvestInterval = _harvestInterval */\n      dup2\n      swap1\n      sstore\n      pop\n        /* \"contracts/LoteStakingManager.sol\":6479:7275  function set(\r... */\n      pop\n      pop\n      pop\n      pop\n      pop\n      jump\t// out\n        /* \"contracts/LoteStakingManager.sol\":16022:16179  function setPositionReferral(ILotteryReferral _lotteryReferral)\r... */\n    tag_82:\n        /* \"@openzeppelin/contracts/access/Ownable.sol\":1082:1089  address */\n      0x00\n        /* \"@openzeppelin/contracts/access/Ownable.sol\":1108:1114  _owner */\n      sload\n      sub(shl(0xa0, 0x01), 0x01)\n      and\n        /* \"@openzeppelin/contracts/utils/Context.sol\":719:729  msg.sender */\n      caller\n        /* \"@openzeppelin/contracts/access/Ownable.sol\":1248:1271  owner() == _msgSender() */\n      eq\n        /* \"@openzeppelin/contracts/access/Ownable.sol\":1240:1308  require(owner() == _msgSender(), \"Ownable: caller is not the owner\") */\n      tag_224\n      jumpi\n      mload(0x40)\n      shl(0xe5, 0x461bcd)\n      dup2\n      mstore\n      0x04\n      add\n      tag_181\n      swap1\n      tag_182\n      jump\t// in\n    tag_224:\n        /* \"contracts/LoteStakingManager.sol\":16137:16152  lotteryReferral */\n      0x0d\n        /* \"contracts/LoteStakingManager.sol\":16137:16171  lotteryReferral = _lotteryReferral */\n      dup1\n      sload\n      not(sub(shl(0xa0, 0x01), 0x01))\n      and\n      sub(shl(0xa0, 0x01), 0x01)\n      swap3\n      swap1\n      swap3\n      and\n      swap2\n      swap1\n      swap2\n      or\n      swap1\n      sstore\n        /* \"contracts/LoteStakingManager.sol\":16022:16179  function setPositionReferral(ILotteryReferral _lotteryReferral)\r... */\n      jump\t// out\n        /* \"contracts/LoteStakingManager.sol\":12031:12645  function withdraw(uint256 _pid, uint256 _amount) public nonReentrant {\r... */\n    tag_93:\n        /* \"@openzeppelin/contracts/security/ReentrancyGuard.sol\":1744:1745  2 */\n      0x02\n        /* \"@openzeppelin/contracts/security/ReentrancyGuard.sol\":2325:2332  _status */\n      sload(0x01)\n        /* \"@openzeppelin/contracts/security/ReentrancyGuard.sol\":2325:2344  _status != _ENTERED */\n      eq\n      iszero\n        /* \"@openzeppelin/contracts/security/ReentrancyGuard.sol\":2317:2380  require(_status != _ENTERED, \"ReentrancyGuard: reentrant call\") */\n      tag_228\n      jumpi\n      mload(0x40)\n      shl(0xe5, 0x461bcd)\n      dup2\n      mstore\n      0x04\n      add\n      tag_181\n      swap1\n      tag_230\n      jump\t// in\n    tag_228:\n        /* \"@openzeppelin/contracts/security/ReentrancyGuard.sol\":1744:1745  2 */\n      0x02\n        /* \"@openzeppelin/contracts/security/ReentrancyGuard.sol\":2455:2462  _status */\n      0x01\n        /* \"@openzeppelin/contracts/security/ReentrancyGuard.sol\":2455:2473  _status = _ENTERED */\n      dup2\n      swap1\n      sstore\n      pop\n        /* \"contracts/LoteStakingManager.sol\":12111:12132  PoolInfo storage pool */\n      0x00\n        /* \"contracts/LoteStakingManager.sol\":12135:12143  poolInfo */\n      0x07\n        /* \"contracts/LoteStakingManager.sol\":12144:12148  _pid */\n      dup4\n        /* \"contracts/LoteStakingManager.sol\":12135:12149  poolInfo[_pid] */\n      dup2\n      sload\n      dup2\n      lt\n      tag_233\n      jumpi\n      tag_233\n      tag_207\n      jump\t// in\n    tag_233:\n      0x00\n      swap2\n      dup3\n      mstore\n      0x20\n      dup1\n      dup4\n      keccak256\n        /* \"contracts/LoteStakingManager.sol\":12184:12198  userInfo[_pid] */\n      dup7\n      dup5\n      mstore\n        /* \"contracts/LoteStakingManager.sol\":12184:12192  userInfo */\n      0x08\n        /* \"contracts/LoteStakingManager.sol\":12184:12198  userInfo[_pid] */\n      dup3\n      mstore\n      0x40\n      dup1\n      dup6\n      keccak256\n        /* \"contracts/LoteStakingManager.sol\":12199:12209  msg.sender */\n      caller\n        /* \"contracts/LoteStakingManager.sol\":12184:12210  userInfo[_pid][msg.sender] */\n      dup7\n      mstore\n      swap1\n      swap3\n      mstore\n      swap3\n      keccak256\n        /* \"contracts/LoteStakingManager.sol\":12229:12240  user.amount */\n      dup1\n      sload\n        /* \"contracts/LoteStakingManager.sol\":12135:12149  poolInfo[_pid] */\n      0x06\n      swap1\n      swap3\n      mul\n      swap1\n      swap3\n      add\n      swap3\n      pop\n        /* \"contracts/LoteStakingManager.sol\":12229:12251  user.amount >= _amount */\n      dup4\n      gt\n      iszero\n        /* \"contracts/LoteStakingManager.sol\":12221:12274  require(user.amount >= _amount, \"withdraw: not good\") */\n      tag_235\n      jumpi\n      mload(0x40)\n      shl(0xe5, 0x461bcd)\n      dup2\n      mstore\n        /* \"#utility.yul\":12613:12615   */\n      0x20\n        /* \"contracts/LoteStakingManager.sol\":12221:12274  require(user.amount >= _amount, \"withdraw: not good\") */\n      0x04\n      dup3\n      add\n        /* \"#utility.yul\":12595:12616   */\n      mstore\n        /* \"#utility.yul\":12652:12654   */\n      0x12\n        /* \"#utility.yul\":12632:12650   */\n      0x24\n      dup3\n      add\n        /* \"#utility.yul\":12625:12655   */\n      mstore\n      shl(0x72, 0x1dda5d1a191c985dce881b9bdd0819dbdbd9)\n        /* \"#utility.yul\":12671:12689   */\n      0x44\n      dup3\n      add\n        /* \"#utility.yul\":12664:12712   */\n      mstore\n        /* \"#utility.yul\":12729:12747   */\n      0x64\n      add\n        /* \"contracts/LoteStakingManager.sol\":12221:12274  require(user.amount >= _amount, \"withdraw: not good\") */\n      tag_181\n        /* \"#utility.yul\":12411:12753   */\n      jump\n        /* \"contracts/LoteStakingManager.sol\":12221:12274  require(user.amount >= _amount, \"withdraw: not good\") */\n    tag_235:\n        /* \"contracts/LoteStakingManager.sol\":12285:12301  updatePool(_pid) */\n      tag_238\n        /* \"contracts/LoteStakingManager.sol\":12296:12300  _pid */\n      dup5\n        /* \"contracts/LoteStakingManager.sol\":12285:12295  updatePool */\n      tag_106\n        /* \"contracts/LoteStakingManager.sol\":12285:12301  updatePool(_pid) */\n      jump\t// in\n    tag_238:\n        /* \"contracts/LoteStakingManager.sol\":12312:12344  payOrLockupPendingPosition(_pid) */\n      tag_239\n        /* \"contracts/LoteStakingManager.sol\":12339:12343  _pid */\n      dup5\n        /* \"contracts/LoteStakingManager.sol\":12312:12338  payOrLockupPendingPosition */\n      tag_240\n        /* \"contracts/LoteStakingManager.sol\":12312:12344  payOrLockupPendingPosition(_pid) */\n      jump\t// in\n    tag_239:\n        /* \"contracts/LoteStakingManager.sol\":12359:12370  _amount > 0 */\n      dup3\n      iszero\n        /* \"contracts/LoteStakingManager.sol\":12355:12507  if (_amount > 0) {\r... */\n      tag_243\n      jumpi\n        /* \"contracts/LoteStakingManager.sol\":12401:12412  user.amount */\n      dup1\n      sload\n        /* \"contracts/LoteStakingManager.sol\":12401:12425  user.amount.sub(_amount) */\n      tag_242\n      swap1\n        /* \"contracts/LoteStakingManager.sol\":12417:12424  _amount */\n      dup5\n        /* \"contracts/LoteStakingManager.sol\":12401:12416  user.amount.sub */\n      tag_209\n        /* \"contracts/LoteStakingManager.sol\":12401:12425  user.amount.sub(_amount) */\n      jump\t// in\n    tag_242:\n        /* \"contracts/LoteStakingManager.sol\":12387:12425  user.amount = user.amount.sub(_amount) */\n      dup2\n      sstore\n        /* \"contracts/LoteStakingManager.sol\":12440:12452  pool.lpToken */\n      dup2\n      sload\n        /* \"contracts/LoteStakingManager.sol\":12440:12495  pool.lpToken.safeTransfer(address(msg.sender), _amount) */\n      tag_243\n      swap1\n      sub(shl(0xa0, 0x01), 0x01)\n        /* \"contracts/LoteStakingManager.sol\":12440:12452  pool.lpToken */\n      and\n        /* \"contracts/LoteStakingManager.sol\":12474:12484  msg.sender */\n      caller\n        /* \"contracts/LoteStakingManager.sol\":12487:12494  _amount */\n      dup6\n        /* \"contracts/LoteStakingManager.sol\":12440:12465  pool.lpToken.safeTransfer */\n      tag_244\n        /* \"contracts/LoteStakingManager.sol\":12440:12495  pool.lpToken.safeTransfer(address(msg.sender), _amount) */\n      jump\t// in\n    tag_243:\n        /* \"contracts/LoteStakingManager.sol\":12551:12575  pool.accPositionPerShare */\n      0x03\n      dup3\n      add\n      sload\n        /* \"contracts/LoteStakingManager.sol\":12535:12546  user.amount */\n      dup2\n      sload\n        /* \"contracts/LoteStakingManager.sol\":12535:12586  user.amount.mul(pool.accPositionPerShare).div(1e12) */\n      tag_245\n      swap2\n        /* \"contracts/LoteStakingManager.sol\":12581:12585  1e12 */\n      0xe8d4a51000\n      swap2\n        /* \"contracts/LoteStakingManager.sol\":12535:12576  user.amount.mul(pool.accPositionPerShare) */\n      tag_246\n      swap2\n        /* \"contracts/LoteStakingManager.sol\":12535:12550  user.amount.mul */\n      tag_247\n        /* \"contracts/LoteStakingManager.sol\":12535:12576  user.amount.mul(pool.accPositionPerShare) */\n      jump\t// in\n    tag_246:\n        /* \"contracts/LoteStakingManager.sol\":12535:12580  user.amount.mul(pool.accPositionPerShare).div */\n      swap1\n      tag_248\n        /* \"contracts/LoteStakingManager.sol\":12535:12586  user.amount.mul(pool.accPositionPerShare).div(1e12) */\n      jump\t// in\n    tag_245:\n        /* \"contracts/LoteStakingManager.sol\":12517:12532  user.rewardDebt */\n      0x01\n      dup3\n      add\n        /* \"contracts/LoteStakingManager.sol\":12517:12586  user.rewardDebt = user.amount.mul(pool.accPositionPerShare).div(1e12) */\n      sstore\n        /* \"contracts/LoteStakingManager.sol\":12602:12637  Withdraw(msg.sender, _pid, _amount) */\n      mload(0x40)\n        /* \"#utility.yul\":14221:14246   */\n      dup4\n      dup2\n      mstore\n        /* \"contracts/LoteStakingManager.sol\":12623:12627  _pid */\n      dup5\n      swap1\n        /* \"contracts/LoteStakingManager.sol\":12611:12621  msg.sender */\n      caller\n      swap1\n        /* \"contracts/LoteStakingManager.sol\":12602:12637  Withdraw(msg.sender, _pid, _amount) */\n      0xf279e6a1f5e320cca91135676d9cb6e44ca8a08c0b88342bcdb1144f6511b568\n      swap1\n        /* \"#utility.yul\":14209:14211   */\n      0x20\n        /* \"#utility.yul\":14194:14212   */\n      add\n        /* \"contracts/LoteStakingManager.sol\":12602:12637  Withdraw(msg.sender, _pid, _amount) */\n    tag_249:\n      mload(0x40)\n      dup1\n      swap2\n      sub\n      swap1\n      log3\n      pop\n      pop\n        /* \"@openzeppelin/contracts/security/ReentrancyGuard.sol\":1701:1702  1 */\n      0x01\n        /* \"@openzeppelin/contracts/security/ReentrancyGuard.sol\":2628:2650  _status = _NOT_ENTERED */\n      dup1\n      sstore\n      pop\n      pop\n        /* \"contracts/LoteStakingManager.sol\":12031:12645  function withdraw(uint256 _pid, uint256 _amount) public nonReentrant {\r... */\n      jump\t// out\n        /* \"contracts/LoteStakingManager.sol\":9265:10381  function updatePool(uint256 _pid) public {\r... */\n    tag_106:\n        /* \"contracts/LoteStakingManager.sol\":3141:3156  80*10**6*10**18 */\n      0x422ca8b0a00a4250000000\n        /* \"contracts/LoteStakingManager.sol\":9325:9338  stakingMinted */\n      sload(0x0c)\n        /* \"contracts/LoteStakingManager.sol\":9325:9364  stakingMinted <= MAX_STAKING_ALLOCATION */\n      gt\n      iszero\n        /* \"contracts/LoteStakingManager.sol\":9317:9384  require(stakingMinted <= MAX_STAKING_ALLOCATION, \"No more staking\") */\n      tag_251\n      jumpi\n      mload(0x40)\n      shl(0xe5, 0x461bcd)\n      dup2\n      mstore\n        /* \"#utility.yul\":9673:9675   */\n      0x20\n        /* \"contracts/LoteStakingManager.sol\":9317:9384  require(stakingMinted <= MAX_STAKING_ALLOCATION, \"No more staking\") */\n      0x04\n      dup3\n      add\n        /* \"#utility.yul\":9655:9676   */\n      mstore\n        /* \"#utility.yul\":9712:9714   */\n      0x0f\n        /* \"#utility.yul\":9692:9710   */\n      0x24\n      dup3\n      add\n        /* \"#utility.yul\":9685:9715   */\n      mstore\n      shl(0x88, 0x4e6f206d6f7265207374616b696e67)\n        /* \"#utility.yul\":9731:9749   */\n      0x44\n      dup3\n      add\n        /* \"#utility.yul\":9724:9769   */\n      mstore\n        /* \"#utility.yul\":9786:9804   */\n      0x64\n      add\n        /* \"contracts/LoteStakingManager.sol\":9317:9384  require(stakingMinted <= MAX_STAKING_ALLOCATION, \"No more staking\") */\n      tag_181\n        /* \"#utility.yul\":9471:9810   */\n      jump\n        /* \"contracts/LoteStakingManager.sol\":9317:9384  require(stakingMinted <= MAX_STAKING_ALLOCATION, \"No more staking\") */\n    tag_251:\n        /* \"contracts/LoteStakingManager.sol\":9395:9416  PoolInfo storage pool */\n      0x00\n        /* \"contracts/LoteStakingManager.sol\":9419:9427  poolInfo */\n      0x07\n        /* \"contracts/LoteStakingManager.sol\":9428:9432  _pid */\n      dup3\n        /* \"contracts/LoteStakingManager.sol\":9419:9433  poolInfo[_pid] */\n      dup2\n      sload\n      dup2\n      lt\n      tag_255\n      jumpi\n      tag_255\n      tag_207\n      jump\t// in\n    tag_255:\n      swap1\n      0x00\n      mstore\n      keccak256(0x00, 0x20)\n      swap1\n      0x06\n      mul\n      add\n        /* \"contracts/LoteStakingManager.sol\":9395:9433  PoolInfo storage pool = poolInfo[_pid] */\n      swap1\n      pop\n        /* \"contracts/LoteStakingManager.sol\":9464:9468  pool */\n      dup1\n        /* \"contracts/LoteStakingManager.sol\":9464:9484  pool.lastRewardBlock */\n      0x02\n      add\n      sload\n        /* \"contracts/LoteStakingManager.sol\":9448:9460  block.number */\n      number\n        /* \"contracts/LoteStakingManager.sol\":9448:9484  block.number <= pool.lastRewardBlock */\n      gt\n        /* \"contracts/LoteStakingManager.sol\":9444:9519  if (block.number <= pool.lastRewardBlock) {\r... */\n      tag_257\n      jumpi\n        /* \"contracts/LoteStakingManager.sol\":9501:9508  return; */\n      pop\n        /* \"contracts/LoteStakingManager.sol\":9265:10381  function updatePool(uint256 _pid) public {\r... */\n      pop\n      jump\t// out\n        /* \"contracts/LoteStakingManager.sol\":9444:9519  if (block.number <= pool.lastRewardBlock) {\r... */\n    tag_257:\n        /* \"contracts/LoteStakingManager.sol\":9548:9560  pool.lpToken */\n      dup1\n      sload\n        /* \"contracts/LoteStakingManager.sol\":9548:9585  pool.lpToken.balanceOf(address(this)) */\n      mload(0x40)\n      shl(0xe0, 0x70a08231)\n      dup2\n      mstore\n        /* \"contracts/LoteStakingManager.sol\":9579:9583  this */\n      address\n        /* \"contracts/LoteStakingManager.sol\":9548:9585  pool.lpToken.balanceOf(address(this)) */\n      0x04\n      dup3\n      add\n        /* \"#utility.yul\":4582:4633   */\n      mstore\n        /* \"contracts/LoteStakingManager.sol\":9529:9545  uint256 lpSupply */\n      0x00\n      swap2\n      sub(shl(0xa0, 0x01), 0x01)\n        /* \"contracts/LoteStakingManager.sol\":9548:9560  pool.lpToken */\n      and\n      swap1\n        /* \"contracts/LoteStakingManager.sol\":9548:9570  pool.lpToken.balanceOf */\n      0x70a08231\n      swap1\n        /* \"#utility.yul\":4555:4573   */\n      0x24\n      add\n        /* \"contracts/LoteStakingManager.sol\":9548:9585  pool.lpToken.balanceOf(address(this)) */\n      0x20\n      mload(0x40)\n      dup1\n      dup4\n      sub\n      dup2\n      dup7\n      dup1\n      extcodesize\n      iszero\n      dup1\n      iszero\n      tag_259\n      jumpi\n      0x00\n      dup1\n      revert\n    tag_259:\n      pop\n      gas\n      staticcall\n      iszero\n      dup1\n      iszero\n      tag_261\n      jumpi\n      returndatasize\n      0x00\n      dup1\n      returndatacopy\n      revert(0x00, returndatasize)\n    tag_261:\n      pop\n      pop\n      pop\n      pop\n      mload(0x40)\n      returndatasize\n      not(0x1f)\n      0x1f\n      dup3\n      add\n      and\n      dup3\n      add\n      dup1\n      0x40\n      mstore\n      pop\n      dup2\n      add\n      swap1\n      tag_262\n      swap2\n      swap1\n      tag_263\n      jump\t// in\n    tag_262:\n        /* \"contracts/LoteStakingManager.sol\":9529:9585  uint256 lpSupply = pool.lpToken.balanceOf(address(this)) */\n      swap1\n      pop\n        /* \"contracts/LoteStakingManager.sol\":9600:9613  lpSupply == 0 */\n      dup1\n      iszero\n      dup1\n        /* \"contracts/LoteStakingManager.sol\":9600:9637  lpSupply == 0 || pool.allocPoint == 0 */\n      tag_264\n      jumpi\n      pop\n        /* \"contracts/LoteStakingManager.sol\":9617:9632  pool.allocPoint */\n      0x01\n      dup3\n      add\n      sload\n        /* \"contracts/LoteStakingManager.sol\":9617:9637  pool.allocPoint == 0 */\n      iszero\n        /* \"contracts/LoteStakingManager.sol\":9600:9637  lpSupply == 0 || pool.allocPoint == 0 */\n    tag_264:\n        /* \"contracts/LoteStakingManager.sol\":9596:9722  if (lpSupply == 0 || pool.allocPoint == 0) {\r... */\n      iszero\n      tag_265\n      jumpi\n      pop\n        /* \"contracts/LoteStakingManager.sol\":9677:9689  block.number */\n      number\n        /* \"contracts/LoteStakingManager.sol\":9654:9674  pool.lastRewardBlock */\n      0x02\n      swap1\n      swap2\n      add\n        /* \"contracts/LoteStakingManager.sol\":9654:9689  pool.lastRewardBlock = block.number */\n      sstore\n      pop\n        /* \"contracts/LoteStakingManager.sol\":9265:10381  function updatePool(uint256 _pid) public {\r... */\n      jump\t// out\n        /* \"contracts/LoteStakingManager.sol\":9596:9722  if (lpSupply == 0 || pool.allocPoint == 0) {\r... */\n    tag_265:\n        /* \"contracts/LoteStakingManager.sol\":9732:9750  uint256 multiplier */\n      0x00\n        /* \"contracts/LoteStakingManager.sol\":9753:9802  getMultiplier(pool.lastRewardBlock, block.number) */\n      tag_266\n        /* \"contracts/LoteStakingManager.sol\":9767:9771  pool */\n      dup4\n        /* \"contracts/LoteStakingManager.sol\":9767:9787  pool.lastRewardBlock */\n      0x02\n      add\n      sload\n        /* \"contracts/LoteStakingManager.sol\":9789:9801  block.number */\n      number\n        /* \"contracts/LoteStakingManager.sol\":9753:9766  getMultiplier */\n      tag_133\n        /* \"contracts/LoteStakingManager.sol\":9753:9802  getMultiplier(pool.lastRewardBlock, block.number) */\n      jump\t// in\n    tag_266:\n        /* \"contracts/LoteStakingManager.sol\":9732:9802  uint256 multiplier = getMultiplier(pool.lastRewardBlock, block.number) */\n      swap1\n      pop\n        /* \"contracts/LoteStakingManager.sol\":9813:9835  uint256 positionReward */\n      0x00\n        /* \"contracts/LoteStakingManager.sol\":9838:9941  multiplier\r... */\n      tag_267\n        /* \"contracts/LoteStakingManager.sol\":9925:9940  totalAllocPoint */\n      sload(0x09)\n        /* \"contracts/LoteStakingManager.sol\":9838:9910  multiplier\r... */\n      tag_246\n        /* \"contracts/LoteStakingManager.sol\":9894:9898  pool */\n      dup7\n        /* \"contracts/LoteStakingManager.sol\":9894:9909  pool.allocPoint */\n      0x01\n      add\n      sload\n        /* \"contracts/LoteStakingManager.sol\":9838:9879  multiplier\r... */\n      tag_269\n        /* \"contracts/LoteStakingManager.sol\":9863:9878  lotteryPerBlock */\n      sload(0x06)\n        /* \"contracts/LoteStakingManager.sol\":9838:9848  multiplier */\n      dup8\n        /* \"contracts/LoteStakingManager.sol\":9838:9862  multiplier\r... */\n      tag_247\n      swap1\n        /* \"contracts/LoteStakingManager.sol\":9838:9879  multiplier\r... */\n      swap2\n      swap1\n      0xffffffff\n      and\n      jump\t// in\n    tag_269:\n        /* \"contracts/LoteStakingManager.sol\":9838:9893  multiplier\r... */\n      swap1\n      tag_247\n        /* \"contracts/LoteStakingManager.sol\":9838:9910  multiplier\r... */\n      jump\t// in\n        /* \"contracts/LoteStakingManager.sol\":9838:9941  multiplier\r... */\n    tag_267:\n        /* \"contracts/LoteStakingManager.sol\":9813:9941  uint256 positionReward = multiplier\r... */\n      swap1\n      pop\n        /* \"contracts/LoteStakingManager.sol\":9970:10031  stakingMinted.add(positionReward.add(positionReward.div(10))) */\n      tag_270\n        /* \"contracts/LoteStakingManager.sol\":9988:10030  positionReward.add(positionReward.div(10)) */\n      tag_271\n        /* \"contracts/LoteStakingManager.sol\":10007:10029  positionReward.div(10) */\n      tag_272\n        /* \"contracts/LoteStakingManager.sol\":9813:9941  uint256 positionReward = multiplier\r... */\n      dup4\n        /* \"contracts/LoteStakingManager.sol\":10026:10028  10 */\n      0x0a\n        /* \"contracts/LoteStakingManager.sol\":10007:10025  positionReward.div */\n      tag_248\n        /* \"contracts/LoteStakingManager.sol\":10007:10029  positionReward.div(10) */\n      jump\t// in\n    tag_272:\n        /* \"contracts/LoteStakingManager.sol\":9988:10002  positionReward */\n      dup4\n      swap1\n        /* \"contracts/LoteStakingManager.sol\":9988:10006  positionReward.add */\n      tag_210\n        /* \"contracts/LoteStakingManager.sol\":9988:10030  positionReward.add(positionReward.div(10)) */\n      jump\t// in\n    tag_271:\n        /* \"contracts/LoteStakingManager.sol\":9970:9983  stakingMinted */\n      sload(0x0c)\n      swap1\n        /* \"contracts/LoteStakingManager.sol\":9970:9987  stakingMinted.add */\n      tag_210\n        /* \"contracts/LoteStakingManager.sol\":9970:10031  stakingMinted.add(positionReward.add(positionReward.div(10))) */\n      jump\t// in\n    tag_270:\n        /* \"contracts/LoteStakingManager.sol\":9954:9967  stakingMinted */\n      0x0c\n        /* \"contracts/LoteStakingManager.sol\":9954:10031  stakingMinted = stakingMinted.add(positionReward.add(positionReward.div(10))) */\n      sstore\n        /* \"contracts/LoteStakingManager.sol\":10042:10054  loteTreasury */\n      sload(0x03)\n        /* \"contracts/LoteStakingManager.sol\":10042:10090  loteTreasury.mint(address(this), positionReward) */\n      mload(0x40)\n      shl(0xe0, 0x40c10f19)\n      dup2\n      mstore\n        /* \"contracts/LoteStakingManager.sol\":10068:10072  this */\n      address\n        /* \"contracts/LoteStakingManager.sol\":10042:10090  loteTreasury.mint(address(this), positionReward) */\n      0x04\n      dup3\n      add\n        /* \"#utility.yul\":5507:5558   */\n      mstore\n        /* \"#utility.yul\":5574:5592   */\n      0x24\n      dup2\n      add\n        /* \"#utility.yul\":5567:5601   */\n      dup4\n      swap1\n      mstore\n      sub(shl(0xa0, 0x01), 0x01)\n        /* \"contracts/LoteStakingManager.sol\":10042:10054  loteTreasury */\n      swap1\n      swap2\n      and\n      swap1\n        /* \"contracts/LoteStakingManager.sol\":10042:10059  loteTreasury.mint */\n      0x40c10f19\n      swap1\n        /* \"#utility.yul\":5480:5498   */\n      0x44\n      add\n        /* \"contracts/LoteStakingManager.sol\":10042:10090  loteTreasury.mint(address(this), positionReward) */\n      0x00\n      mload(0x40)\n      dup1\n      dup4\n      sub\n      dup2\n      0x00\n      dup8\n      dup1\n      extcodesize\n      iszero\n      dup1\n      iszero\n      tag_275\n      jumpi\n      0x00\n      dup1\n      revert\n    tag_275:\n      pop\n      gas\n      call\n      iszero\n      dup1\n      iszero\n      tag_277\n      jumpi\n      returndatasize\n      0x00\n      dup1\n      returndatacopy\n      revert(0x00, returndatasize)\n    tag_277:\n      pop\n      pop\n        /* \"contracts/LoteStakingManager.sol\":10144:10156  loteTreasury */\n      sload(0x03)\n        /* \"contracts/LoteStakingManager.sol\":10162:10172  devAddress */\n      sload(0x04)\n      sub(shl(0xa0, 0x01), 0x01)\n        /* \"contracts/LoteStakingManager.sol\":10144:10156  loteTreasury */\n      swap2\n      dup3\n      and\n      swap4\n      pop\n        /* \"contracts/LoteStakingManager.sol\":10144:10161  loteTreasury.mint */\n      0x40c10f19\n      swap3\n      pop\n        /* \"contracts/LoteStakingManager.sol\":10162:10172  devAddress */\n      and\n        /* \"contracts/LoteStakingManager.sol\":10174:10196  positionReward.div(10) */\n      tag_278\n        /* \"contracts/LoteStakingManager.sol\":10174:10188  positionReward */\n      dup5\n        /* \"contracts/LoteStakingManager.sol\":10193:10195  10 */\n      0x0a\n        /* \"contracts/LoteStakingManager.sol\":10174:10192  positionReward.div */\n      tag_248\n        /* \"contracts/LoteStakingManager.sol\":10174:10196  positionReward.div(10) */\n      jump\t// in\n    tag_278:\n        /* \"contracts/LoteStakingManager.sol\":10144:10197  loteTreasury.mint(devAddress, positionReward.div(10)) */\n      mload(0x40)\n      not(sub(shl(0xe0, 0x01), 0x01))\n      0xe0\n      dup6\n      swap1\n      shl\n      and\n      dup2\n      mstore\n      sub(shl(0xa0, 0x01), 0x01)\n        /* \"#utility.yul\":5525:5557   */\n      swap1\n      swap3\n      and\n        /* \"contracts/LoteStakingManager.sol\":10144:10197  loteTreasury.mint(devAddress, positionReward.div(10)) */\n      0x04\n      dup4\n      add\n        /* \"#utility.yul\":5507:5558   */\n      mstore\n        /* \"#utility.yul\":5574:5592   */\n      0x24\n      dup3\n      add\n        /* \"#utility.yul\":5567:5601   */\n      mstore\n        /* \"#utility.yul\":5480:5498   */\n      0x44\n      add\n        /* \"contracts/LoteStakingManager.sol\":10144:10197  loteTreasury.mint(devAddress, positionReward.div(10)) */\n      0x00\n      mload(0x40)\n      dup1\n      dup4\n      sub\n      dup2\n      0x00\n      dup8\n      dup1\n      extcodesize\n      iszero\n      dup1\n      iszero\n      tag_280\n      jumpi\n      0x00\n      dup1\n      revert\n    tag_280:\n      pop\n      gas\n      call\n      iszero\n      dup1\n      iszero\n      tag_282\n      jumpi\n      returndatasize\n      0x00\n      dup1\n      returndatacopy\n      revert(0x00, returndatasize)\n    tag_282:\n      pop\n      pop\n      pop\n      pop\n        /* \"contracts/LoteStakingManager.sol\":10235:10327  pool.accPositionPerShare.add(\r... */\n      tag_283\n        /* \"contracts/LoteStakingManager.sol\":10278:10316  positionReward.mul(1e12).div(lpSupply) */\n      tag_284\n        /* \"contracts/LoteStakingManager.sol\":10307:10315  lpSupply */\n      dup5\n        /* \"contracts/LoteStakingManager.sol\":10278:10302  positionReward.mul(1e12) */\n      tag_246\n        /* \"contracts/LoteStakingManager.sol\":10297:10301  1e12 */\n      0xe8d4a51000\n        /* \"contracts/LoteStakingManager.sol\":10278:10292  positionReward */\n      dup6\n        /* \"contracts/LoteStakingManager.sol\":10278:10296  positionReward.mul */\n      tag_247\n      swap1\n        /* \"contracts/LoteStakingManager.sol\":10278:10302  positionReward.mul(1e12) */\n      swap2\n      swap1\n      0xffffffff\n      and\n      jump\t// in\n        /* \"contracts/LoteStakingManager.sol\":10278:10316  positionReward.mul(1e12).div(lpSupply) */\n    tag_284:\n        /* \"contracts/LoteStakingManager.sol\":10235:10259  pool.accPositionPerShare */\n      0x03\n      dup7\n      add\n      sload\n      swap1\n        /* \"contracts/LoteStakingManager.sol\":10235:10263  pool.accPositionPerShare.add */\n      tag_210\n        /* \"contracts/LoteStakingManager.sol\":10235:10327  pool.accPositionPerShare.add(\r... */\n      jump\t// in\n    tag_283:\n        /* \"contracts/LoteStakingManager.sol\":10208:10232  pool.accPositionPerShare */\n      0x03\n      dup6\n      add\n        /* \"contracts/LoteStakingManager.sol\":10208:10327  pool.accPositionPerShare = pool.accPositionPerShare.add(\r... */\n      sstore\n      pop\n      pop\n        /* \"contracts/LoteStakingManager.sol\":10361:10373  block.number */\n      number\n        /* \"contracts/LoteStakingManager.sol\":10338:10358  pool.lastRewardBlock */\n      0x02\n      swap1\n      swap3\n      add\n        /* \"contracts/LoteStakingManager.sol\":10338:10373  pool.lastRewardBlock = block.number */\n      swap2\n      swap1\n      swap2\n      sstore\n      pop\n      pop\n        /* \"contracts/LoteStakingManager.sol\":9265:10381  function updatePool(uint256 _pid) public {\r... */\n      jump\t// out\n        /* \"contracts/LoteStakingManager.sol\":12716:13184  function emergencyWithdraw(uint256 _pid) public nonReentrant {\r... */\n    tag_109:\n        /* \"@openzeppelin/contracts/security/ReentrancyGuard.sol\":1744:1745  2 */\n      0x02\n        /* \"@openzeppelin/contracts/security/ReentrancyGuard.sol\":2325:2332  _status */\n      sload(0x01)\n        /* \"@openzeppelin/contracts/security/ReentrancyGuard.sol\":2325:2344  _status != _ENTERED */\n      eq\n      iszero\n        /* \"@openzeppelin/contracts/security/ReentrancyGuard.sol\":2317:2380  require(_status != _ENTERED, \"ReentrancyGuard: reentrant call\") */\n      tag_287\n      jumpi\n      mload(0x40)\n      shl(0xe5, 0x461bcd)\n      dup2\n      mstore\n      0x04\n      add\n      tag_181\n      swap1\n      tag_230\n      jump\t// in\n    tag_287:\n        /* \"@openzeppelin/contracts/security/ReentrancyGuard.sol\":1744:1745  2 */\n      0x02\n        /* \"@openzeppelin/contracts/security/ReentrancyGuard.sol\":2455:2462  _status */\n      0x01\n        /* \"@openzeppelin/contracts/security/ReentrancyGuard.sol\":2455:2473  _status = _ENTERED */\n      dup2\n      swap1\n      sstore\n      pop\n        /* \"contracts/LoteStakingManager.sol\":12788:12809  PoolInfo storage pool */\n      0x00\n        /* \"contracts/LoteStakingManager.sol\":12812:12820  poolInfo */\n      0x07\n        /* \"contracts/LoteStakingManager.sol\":12821:12825  _pid */\n      dup3\n        /* \"contracts/LoteStakingManager.sol\":12812:12826  poolInfo[_pid] */\n      dup2\n      sload\n      dup2\n      lt\n      tag_291\n      jumpi\n      tag_291\n      tag_207\n      jump\t// in\n    tag_291:\n      0x00\n      swap2\n      dup3\n      mstore\n      0x20\n      dup1\n      dup4\n      keccak256\n        /* \"contracts/LoteStakingManager.sol\":12861:12875  userInfo[_pid] */\n      dup6\n      dup5\n      mstore\n        /* \"contracts/LoteStakingManager.sol\":12861:12869  userInfo */\n      0x08\n        /* \"contracts/LoteStakingManager.sol\":12861:12875  userInfo[_pid] */\n      dup3\n      mstore\n      0x40\n      dup1\n      dup6\n      keccak256\n        /* \"contracts/LoteStakingManager.sol\":12876:12886  msg.sender */\n      caller\n        /* \"contracts/LoteStakingManager.sol\":12861:12887  userInfo[_pid][msg.sender] */\n      dup1\n      dup8\n      mstore\n      swap4\n      mstore\n      dup5\n      keccak256\n        /* \"contracts/LoteStakingManager.sol\":12915:12926  user.amount */\n      dup1\n      sload\n        /* \"contracts/LoteStakingManager.sol\":12937:12952  user.amount = 0 */\n      dup6\n      dup3\n      sstore\n      0x01\n        /* \"contracts/LoteStakingManager.sol\":12963:12978  user.rewardDebt */\n      dup3\n      add\n        /* \"contracts/LoteStakingManager.sol\":12963:12982  user.rewardDebt = 0 */\n      dup7\n      swap1\n      sstore\n        /* \"contracts/LoteStakingManager.sol\":12993:13012  user.rewardLockedUp */\n      0x02\n      dup3\n      add\n        /* \"contracts/LoteStakingManager.sol\":12993:13016  user.rewardLockedUp = 0 */\n      dup7\n      swap1\n      sstore\n        /* \"contracts/LoteStakingManager.sol\":13027:13048  user.nextHarvestUntil */\n      0x03\n      dup3\n      add\n        /* \"contracts/LoteStakingManager.sol\":13027:13052  user.nextHarvestUntil = 0 */\n      swap6\n      swap1\n      swap6\n      sstore\n        /* \"contracts/LoteStakingManager.sol\":12812:12826  poolInfo[_pid] */\n      0x06\n      swap1\n      swap4\n      mul\n      add\n        /* \"contracts/LoteStakingManager.sol\":13063:13075  pool.lpToken */\n      dup1\n      sload\n        /* \"contracts/LoteStakingManager.sol\":12812:12826  poolInfo[_pid] */\n      swap1\n      swap5\n      pop\n        /* \"contracts/LoteStakingManager.sol\":12861:12887  userInfo[_pid][msg.sender] */\n      swap2\n      swap3\n        /* \"contracts/LoteStakingManager.sol\":12915:12926  user.amount */\n      swap2\n        /* \"contracts/LoteStakingManager.sol\":13063:13117  pool.lpToken.safeTransfer(address(msg.sender), amount) */\n      tag_293\n      swap2\n      sub(shl(0xa0, 0x01), 0x01)\n        /* \"contracts/LoteStakingManager.sol\":13063:13075  pool.lpToken */\n      swap2\n      swap1\n      swap2\n      and\n      swap1\n        /* \"contracts/LoteStakingManager.sol\":12915:12926  user.amount */\n      dup4\n        /* \"contracts/LoteStakingManager.sol\":13063:13088  pool.lpToken.safeTransfer */\n      tag_244\n        /* \"contracts/LoteStakingManager.sol\":13063:13117  pool.lpToken.safeTransfer(address(msg.sender), amount) */\n      jump\t// in\n    tag_293:\n        /* \"contracts/LoteStakingManager.sol\":13133:13176  EmergencyWithdraw(msg.sender, _pid, amount) */\n      mload(0x40)\n        /* \"#utility.yul\":14221:14246   */\n      dup2\n      dup2\n      mstore\n        /* \"contracts/LoteStakingManager.sol\":13163:13167  _pid */\n      dup5\n      swap1\n        /* \"contracts/LoteStakingManager.sol\":13151:13161  msg.sender */\n      caller\n      swap1\n        /* \"contracts/LoteStakingManager.sol\":13133:13176  EmergencyWithdraw(msg.sender, _pid, amount) */\n      0xbb757047c2b5f3974fe26b7c10f732e7bce710b0952a71082702781e62ae0595\n      swap1\n        /* \"#utility.yul\":14209:14211   */\n      0x20\n        /* \"#utility.yul\":14194:14212   */\n      add\n        /* \"contracts/LoteStakingManager.sol\":13133:13176  EmergencyWithdraw(msg.sender, _pid, amount) */\n      tag_249\n        /* \"#utility.yul\":14075:14252   */\n      jump\n        /* \"contracts/LoteStakingManager.sol\":16240:16606  function setReferralCommissionRate(uint16 _referralCommissionRate)\r... */\n    tag_113:\n        /* \"@openzeppelin/contracts/access/Ownable.sol\":1082:1089  address */\n      0x00\n        /* \"@openzeppelin/contracts/access/Ownable.sol\":1108:1114  _owner */\n      sload\n      sub(shl(0xa0, 0x01), 0x01)\n      and\n        /* \"@openzeppelin/contracts/utils/Context.sol\":719:729  msg.sender */\n      caller\n        /* \"@openzeppelin/contracts/access/Ownable.sol\":1248:1271  owner() == _msgSender() */\n      eq\n        /* \"@openzeppelin/contracts/access/Ownable.sol\":1240:1308  require(owner() == _msgSender(), \"Ownable: caller is not the owner\") */\n      tag_298\n      jumpi\n      mload(0x40)\n      shl(0xe5, 0x461bcd)\n      dup2\n      mstore\n      0x04\n      add\n      tag_181\n      swap1\n      tag_182\n      jump\t// in\n    tag_298:\n        /* \"contracts/LoteStakingManager.sol\":3970:3974  1000 */\n      0x03e8\n        /* \"contracts/LoteStakingManager.sol\":16380:16439  _referralCommissionRate <= MAXIMUM_REFERRAL_COMMISSION_RATE */\n      0xffff\n      dup3\n      and\n      gt\n      iszero\n        /* \"contracts/LoteStakingManager.sol\":16358:16539  require(\r... */\n      tag_301\n      jumpi\n      mload(0x40)\n      shl(0xe5, 0x461bcd)\n      dup2\n      mstore\n        /* \"#utility.yul\":8084:8086   */\n      0x20\n        /* \"contracts/LoteStakingManager.sol\":16358:16539  require(\r... */\n      0x04\n      dup3\n      add\n        /* \"#utility.yul\":8066:8087   */\n      mstore\n        /* \"#utility.yul\":8123:8125   */\n      0x48\n        /* \"#utility.yul\":8103:8121   */\n      0x24\n      dup3\n      add\n        /* \"#utility.yul\":8096:8126   */\n      mstore\n        /* \"#utility.yul\":8162:8196   */\n      0x736574526566657272616c436f6d6d697373696f6e526174653a20696e76616c\n        /* \"#utility.yul\":8142:8160   */\n      0x44\n      dup3\n      add\n        /* \"#utility.yul\":8135:8197   */\n      mstore\n        /* \"#utility.yul\":8233:8267   */\n      0x696420726566657272616c20636f6d6d697373696f6e20726174652062617369\n        /* \"#utility.yul\":8213:8231   */\n      0x64\n      dup3\n      add\n        /* \"#utility.yul\":8206:8268   */\n      mstore\n      shl(0xc0, 0x7320706f696e7473)\n        /* \"#utility.yul\":8284:8303   */\n      0x84\n      dup3\n      add\n        /* \"#utility.yul\":8277:8316   */\n      mstore\n        /* \"#utility.yul\":8333:8352   */\n      0xa4\n      add\n        /* \"contracts/LoteStakingManager.sol\":16358:16539  require(\r... */\n      tag_181\n        /* \"#utility.yul\":7882:8358   */\n      jump\n        /* \"contracts/LoteStakingManager.sol\":16358:16539  require(\r... */\n    tag_301:\n        /* \"contracts/LoteStakingManager.sol\":16550:16572  referralCommissionRate */\n      0x0d\n        /* \"contracts/LoteStakingManager.sol\":16550:16598  referralCommissionRate = _referralCommissionRate */\n      dup1\n      sload\n      0xffff\n      swap1\n      swap3\n      and\n      shl(0xa0, 0x01)\n      mul\n      not(shl(0xa0, 0xffff))\n      swap1\n      swap3\n      and\n      swap2\n      swap1\n      swap2\n      or\n      swap1\n      sstore\n        /* \"contracts/LoteStakingManager.sol\":16240:16606  function setReferralCommissionRate(uint16 _referralCommissionRate)\r... */\n      jump\t// out\n        /* \"contracts/LoteStakingManager.sol\":9009:9189  function massUpdatePools() public {\r... */\n    tag_115:\n        /* \"contracts/LoteStakingManager.sol\":9071:9079  poolInfo */\n      0x07\n        /* \"contracts/LoteStakingManager.sol\":9071:9086  poolInfo.length */\n      sload\n        /* \"contracts/LoteStakingManager.sol\":9054:9068  uint256 length */\n      0x00\n        /* \"contracts/LoteStakingManager.sol\":9097:9182  for (uint256 pid = 0; pid < length; ++pid) {\r... */\n    tag_305:\n        /* \"contracts/LoteStakingManager.sol\":9125:9131  length */\n      dup2\n        /* \"contracts/LoteStakingManager.sol\":9119:9122  pid */\n      dup2\n        /* \"contracts/LoteStakingManager.sol\":9119:9131  pid < length */\n      lt\n        /* \"contracts/LoteStakingManager.sol\":9097:9182  for (uint256 pid = 0; pid < length; ++pid) {\r... */\n      iszero\n      tag_306\n      jumpi\n        /* \"contracts/LoteStakingManager.sol\":9155:9170  updatePool(pid) */\n      tag_308\n        /* \"contracts/LoteStakingManager.sol\":9166:9169  pid */\n      dup2\n        /* \"contracts/LoteStakingManager.sol\":9155:9165  updatePool */\n      tag_106\n        /* \"contracts/LoteStakingManager.sol\":9155:9170  updatePool(pid) */\n      jump\t// in\n    tag_308:\n        /* \"contracts/LoteStakingManager.sol\":9133:9138  ++pid */\n      tag_309\n      dup2\n      tag_310\n      jump\t// in\n    tag_309:\n      swap1\n      pop\n        /* \"contracts/LoteStakingManager.sol\":9097:9182  for (uint256 pid = 0; pid < length; ++pid) {\r... */\n      jump(tag_305)\n    tag_306:\n      pop\n        /* \"contracts/LoteStakingManager.sol\":9043:9189  {\r... */\n      pop\n        /* \"contracts/LoteStakingManager.sol\":9009:9189  function massUpdatePools() public {\r... */\n      jump\t// out\n        /* \"@openzeppelin/contracts/access/Ownable.sol\":1668:1769  function renounceOwnership() public virtual onlyOwner {... */\n    tag_120:\n        /* \"@openzeppelin/contracts/access/Ownable.sol\":1082:1089  address */\n      0x00\n        /* \"@openzeppelin/contracts/access/Ownable.sol\":1108:1114  _owner */\n      sload\n      sub(shl(0xa0, 0x01), 0x01)\n      and\n        /* \"@openzeppelin/contracts/utils/Context.sol\":719:729  msg.sender */\n      caller\n        /* \"@openzeppelin/contracts/access/Ownable.sol\":1248:1271  owner() == _msgSender() */\n      eq\n        /* \"@openzeppelin/contracts/access/Ownable.sol\":1240:1308  require(owner() == _msgSender(), \"Ownable: caller is not the owner\") */\n      tag_314\n      jumpi\n      mload(0x40)\n      shl(0xe5, 0x461bcd)\n      dup2\n      mstore\n      0x04\n      add\n      tag_181\n      swap1\n      tag_182\n      jump\t// in\n    tag_314:\n        /* \"@openzeppelin/contracts/access/Ownable.sol\":1732:1762  _transferOwnership(address(0)) */\n      tag_317\n        /* \"@openzeppelin/contracts/access/Ownable.sol\":1759:1760  0 */\n      0x00\n        /* \"@openzeppelin/contracts/access/Ownable.sol\":1732:1750  _transferOwnership */\n      tag_318\n        /* \"@openzeppelin/contracts/access/Ownable.sol\":1732:1762  _transferOwnership(address(0)) */\n      jump\t// in\n    tag_317:\n        /* \"@openzeppelin/contracts/access/Ownable.sol\":1668:1769  function renounceOwnership() public virtual onlyOwner {... */\n      jump\t// out\n        /* \"contracts/LoteStakingManager.sol\":15346:15580  function setFeeAddress(address _feeAddress) public {\r... */\n    tag_124:\n        /* \"contracts/LoteStakingManager.sol\":15430:15440  feeAddress */\n      and(sub(shl(0xa0, 0x01), 0x01), sload(0x05))\n        /* \"contracts/LoteStakingManager.sol\":15416:15426  msg.sender */\n      caller\n        /* \"contracts/LoteStakingManager.sol\":15416:15440  msg.sender == feeAddress */\n      eq\n        /* \"contracts/LoteStakingManager.sol\":15408:15469  require(msg.sender == feeAddress, \"setFeeAddress: FORBIDDEN\") */\n      tag_320\n      jumpi\n      mload(0x40)\n      shl(0xe5, 0x461bcd)\n      dup2\n      mstore\n        /* \"#utility.yul\":12960:12962   */\n      0x20\n        /* \"contracts/LoteStakingManager.sol\":15408:15469  require(msg.sender == feeAddress, \"setFeeAddress: FORBIDDEN\") */\n      0x04\n      dup3\n      add\n        /* \"#utility.yul\":12942:12963   */\n      mstore\n        /* \"#utility.yul\":12999:13001   */\n      0x18\n        /* \"#utility.yul\":12979:12997   */\n      0x24\n      dup3\n      add\n        /* \"#utility.yul\":12972:13002   */\n      mstore\n        /* \"#utility.yul\":13038:13064   */\n      0x736574466565416464726573733a20464f5242494444454e0000000000000000\n        /* \"#utility.yul\":13018:13036   */\n      0x44\n      dup3\n      add\n        /* \"#utility.yul\":13011:13065   */\n      mstore\n        /* \"#utility.yul\":13082:13100   */\n      0x64\n      add\n        /* \"contracts/LoteStakingManager.sol\":15408:15469  require(msg.sender == feeAddress, \"setFeeAddress: FORBIDDEN\") */\n      tag_181\n        /* \"#utility.yul\":12758:13106   */\n      jump\n        /* \"contracts/LoteStakingManager.sol\":15408:15469  require(msg.sender == feeAddress, \"setFeeAddress: FORBIDDEN\") */\n    tag_320:\n      sub(shl(0xa0, 0x01), 0x01)\n        /* \"contracts/LoteStakingManager.sol\":15488:15513  _feeAddress != address(0) */\n      dup2\n      and\n        /* \"contracts/LoteStakingManager.sol\":15480:15537  require(_feeAddress != address(0), \"setFeeAddress: ZERO\") */\n      tag_323\n      jumpi\n      mload(0x40)\n      shl(0xe5, 0x461bcd)\n      dup2\n      mstore\n        /* \"#utility.yul\":10017:10019   */\n      0x20\n        /* \"contracts/LoteStakingManager.sol\":15480:15537  require(_feeAddress != address(0), \"setFeeAddress: ZERO\") */\n      0x04\n      dup3\n      add\n        /* \"#utility.yul\":9999:10020   */\n      mstore\n        /* \"#utility.yul\":10056:10058   */\n      0x13\n        /* \"#utility.yul\":10036:10054   */\n      0x24\n      dup3\n      add\n        /* \"#utility.yul\":10029:10059   */\n      mstore\n      shl(0x68, 0x736574466565416464726573733a205a45524f)\n        /* \"#utility.yul\":10075:10093   */\n      0x44\n      dup3\n      add\n        /* \"#utility.yul\":10068:10117   */\n      mstore\n        /* \"#utility.yul\":10134:10152   */\n      0x64\n      add\n        /* \"contracts/LoteStakingManager.sol\":15480:15537  require(_feeAddress != address(0), \"setFeeAddress: ZERO\") */\n      tag_181\n        /* \"#utility.yul\":9815:10158   */\n      jump\n        /* \"contracts/LoteStakingManager.sol\":15480:15537  require(_feeAddress != address(0), \"setFeeAddress: ZERO\") */\n    tag_323:\n        /* \"contracts/LoteStakingManager.sol\":15548:15558  feeAddress */\n      0x05\n        /* \"contracts/LoteStakingManager.sol\":15548:15572  feeAddress = _feeAddress */\n      dup1\n      sload\n      not(sub(shl(0xa0, 0x01), 0x01))\n      and\n      sub(shl(0xa0, 0x01), 0x01)\n      swap3\n      swap1\n      swap3\n      and\n      swap2\n      swap1\n      swap2\n      or\n      swap1\n      sstore\n        /* \"contracts/LoteStakingManager.sol\":15346:15580  function setFeeAddress(address _feeAddress) public {\r... */\n      jump\t// out\n        /* \"contracts/LoteStakingManager.sol\":7351:7526  function getMultiplier(uint256 _from, uint256 _to)\r... */\n    tag_133:\n        /* \"contracts/LoteStakingManager.sol\":7450:7457  uint256 */\n      0x00\n        /* \"contracts/LoteStakingManager.sol\":7482:7518  _to.sub(_from).mul(BONUS_MULTIPLIER) */\n      tag_328\n        /* \"contracts/LoteStakingManager.sol\":2980:2981  1 */\n      0x01\n        /* \"contracts/LoteStakingManager.sol\":7482:7496  _to.sub(_from) */\n      tag_269\n        /* \"contracts/LoteStakingManager.sol\":7482:7485  _to */\n      dup5\n        /* \"contracts/LoteStakingManager.sol\":7490:7495  _from */\n      dup7\n        /* \"contracts/LoteStakingManager.sol\":7482:7489  _to.sub */\n      tag_209\n        /* \"contracts/LoteStakingManager.sol\":7482:7496  _to.sub(_from) */\n      jump\t// in\n        /* \"contracts/LoteStakingManager.sol\":7482:7518  _to.sub(_from).mul(BONUS_MULTIPLIER) */\n    tag_328:\n        /* \"contracts/LoteStakingManager.sol\":7475:7518  return _to.sub(_from).mul(BONUS_MULTIPLIER) */\n      swap4\n        /* \"contracts/LoteStakingManager.sol\":7351:7526  function getMultiplier(uint256 _from, uint256 _to)\r... */\n      swap3\n      pop\n      pop\n      pop\n      jump\t// out\n        /* \"contracts/LoteStakingManager.sol\":10462:11971  function deposit(\r... */\n    tag_138:\n        /* \"@openzeppelin/contracts/security/ReentrancyGuard.sol\":1744:1745  2 */\n      0x02\n        /* \"@openzeppelin/contracts/security/ReentrancyGuard.sol\":2325:2332  _status */\n      sload(0x01)\n        /* \"@openzeppelin/contracts/security/ReentrancyGuard.sol\":2325:2344  _status != _ENTERED */\n      eq\n      iszero\n        /* \"@openzeppelin/contracts/security/ReentrancyGuard.sol\":2317:2380  require(_status != _ENTERED, \"ReentrancyGuard: reentrant call\") */\n      tag_331\n      jumpi\n      mload(0x40)\n      shl(0xe5, 0x461bcd)\n      dup2\n      mstore\n      0x04\n      add\n      tag_181\n      swap1\n      tag_230\n      jump\t// in\n    tag_331:\n        /* \"@openzeppelin/contracts/security/ReentrancyGuard.sol\":1744:1745  2 */\n      0x02\n        /* \"@openzeppelin/contracts/security/ReentrancyGuard.sol\":2455:2462  _status */\n      0x01\n        /* \"@openzeppelin/contracts/security/ReentrancyGuard.sol\":2455:2473  _status = _ENTERED */\n      dup2\n      swap1\n      sstore\n      pop\n        /* \"contracts/LoteStakingManager.sol\":10594:10615  PoolInfo storage pool */\n      0x00\n        /* \"contracts/LoteStakingManager.sol\":10618:10626  poolInfo */\n      0x07\n        /* \"contracts/LoteStakingManager.sol\":10627:10631  _pid */\n      dup5\n        /* \"contracts/LoteStakingManager.sol\":10618:10632  poolInfo[_pid] */\n      dup2\n      sload\n      dup2\n      lt\n      tag_335\n      jumpi\n      tag_335\n      tag_207\n      jump\t// in\n    tag_335:\n      0x00\n      swap2\n      dup3\n      mstore\n      0x20\n      dup1\n      dup4\n      keccak256\n        /* \"contracts/LoteStakingManager.sol\":10667:10681  userInfo[_pid] */\n      dup8\n      dup5\n      mstore\n        /* \"contracts/LoteStakingManager.sol\":10667:10675  userInfo */\n      0x08\n        /* \"contracts/LoteStakingManager.sol\":10667:10681  userInfo[_pid] */\n      dup3\n      mstore\n      0x40\n      dup1\n      dup6\n      keccak256\n        /* \"contracts/LoteStakingManager.sol\":10682:10692  msg.sender */\n      caller\n        /* \"contracts/LoteStakingManager.sol\":10667:10693  userInfo[_pid][msg.sender] */\n      dup7\n      mstore\n      swap1\n      swap3\n      mstore\n      swap3\n      keccak256\n        /* \"contracts/LoteStakingManager.sol\":10618:10632  poolInfo[_pid] */\n      0x06\n      swap1\n      swap2\n      mul\n      swap1\n      swap2\n      add\n      swap2\n      pop\n        /* \"contracts/LoteStakingManager.sol\":10704:10720  updatePool(_pid) */\n      tag_337\n        /* \"contracts/LoteStakingManager.sol\":10676:10680  _pid */\n      dup6\n        /* \"contracts/LoteStakingManager.sol\":10704:10714  updatePool */\n      tag_106\n        /* \"contracts/LoteStakingManager.sol\":10704:10720  updatePool(_pid) */\n      jump\t// in\n    tag_337:\n        /* \"contracts/LoteStakingManager.sol\":10759:10760  0 */\n      0x00\n        /* \"contracts/LoteStakingManager.sol\":10749:10756  _amount */\n      dup5\n        /* \"contracts/LoteStakingManager.sol\":10749:10760  _amount > 0 */\n      gt\n        /* \"contracts/LoteStakingManager.sol\":10749:10815  _amount > 0 &&\r... */\n      dup1\n      iszero\n      tag_338\n      jumpi\n      pop\n        /* \"contracts/LoteStakingManager.sol\":10785:10800  lotteryReferral */\n      and(sub(shl(0xa0, 0x01), 0x01), sload(0x0d))\n        /* \"contracts/LoteStakingManager.sol\":10777:10815  address(lotteryReferral) != address(0) */\n      iszero\n      iszero\n        /* \"contracts/LoteStakingManager.sol\":10749:10815  _amount > 0 &&\r... */\n    tag_338:\n        /* \"contracts/LoteStakingManager.sol\":10749:10855  _amount > 0 &&\r... */\n      dup1\n      iszero\n      tag_339\n      jumpi\n      pop\n      sub(shl(0xa0, 0x01), 0x01)\n        /* \"contracts/LoteStakingManager.sol\":10832:10855  _referrer != address(0) */\n      dup4\n      and\n      iszero\n      iszero\n        /* \"contracts/LoteStakingManager.sol\":10749:10855  _amount > 0 &&\r... */\n    tag_339:\n        /* \"contracts/LoteStakingManager.sol\":10749:10895  _amount > 0 &&\r... */\n      dup1\n      iszero\n      tag_340\n      jumpi\n      pop\n      sub(shl(0xa0, 0x01), 0x01)\n        /* \"contracts/LoteStakingManager.sol\":10872:10895  _referrer != msg.sender */\n      dup4\n      and\n        /* \"contracts/LoteStakingManager.sol\":10885:10895  msg.sender */\n      caller\n        /* \"contracts/LoteStakingManager.sol\":10872:10895  _referrer != msg.sender */\n      eq\n      iszero\n        /* \"contracts/LoteStakingManager.sol\":10749:10895  _amount > 0 &&\r... */\n    tag_340:\n        /* \"contracts/LoteStakingManager.sol\":10731:10987  if (\r... */\n      iszero\n      tag_341\n      jumpi\n        /* \"contracts/LoteStakingManager.sol\":10922:10937  lotteryReferral */\n      sload(0x0d)\n        /* \"contracts/LoteStakingManager.sol\":10922:10975  lotteryReferral.recordReferral(msg.sender, _referrer) */\n      mload(0x40)\n      shl(0xe0, 0x0c7f7b6b)\n      dup2\n      mstore\n        /* \"contracts/LoteStakingManager.sol\":10953:10963  msg.sender */\n      caller\n        /* \"contracts/LoteStakingManager.sol\":10922:10975  lotteryReferral.recordReferral(msg.sender, _referrer) */\n      0x04\n      dup3\n      add\n        /* \"#utility.yul\":4856:4890   */\n      mstore\n      sub(shl(0xa0, 0x01), 0x01)\n        /* \"#utility.yul\":4926:4941   */\n      dup6\n      dup2\n      and\n        /* \"#utility.yul\":4906:4924   */\n      0x24\n      dup4\n      add\n        /* \"#utility.yul\":4899:4942   */\n      mstore\n        /* \"contracts/LoteStakingManager.sol\":10922:10937  lotteryReferral */\n      swap1\n      swap2\n      and\n      swap1\n        /* \"contracts/LoteStakingManager.sol\":10922:10952  lotteryReferral.recordReferral */\n      0x0c7f7b6b\n      swap1\n        /* \"#utility.yul\":4791:4809   */\n      0x44\n      add\n        /* \"contracts/LoteStakingManager.sol\":10922:10975  lotteryReferral.recordReferral(msg.sender, _referrer) */\n      0x00\n      mload(0x40)\n      dup1\n      dup4\n      sub\n      dup2\n      0x00\n      dup8\n      dup1\n      extcodesize\n      iszero\n      dup1\n      iszero\n      tag_344\n      jumpi\n      0x00\n      dup1\n      revert\n    tag_344:\n      pop\n      gas\n      call\n      iszero\n      dup1\n      iszero\n      tag_346\n      jumpi\n      returndatasize\n      0x00\n      dup1\n      returndatacopy\n      revert(0x00, returndatasize)\n    tag_346:\n      pop\n      pop\n      pop\n      pop\n        /* \"contracts/LoteStakingManager.sol\":10731:10987  if (\r... */\n    tag_341:\n        /* \"contracts/LoteStakingManager.sol\":10997:11029  payOrLockupPendingPosition(_pid) */\n      tag_347\n        /* \"contracts/LoteStakingManager.sol\":11024:11028  _pid */\n      dup6\n        /* \"contracts/LoteStakingManager.sol\":10997:11023  payOrLockupPendingPosition */\n      tag_240\n        /* \"contracts/LoteStakingManager.sol\":10997:11029  payOrLockupPendingPosition(_pid) */\n      jump\t// in\n    tag_347:\n        /* \"contracts/LoteStakingManager.sol\":11044:11055  _amount > 0 */\n      dup4\n      iszero\n        /* \"contracts/LoteStakingManager.sol\":11040:11834  if (_amount > 0) {\r... */\n      tag_371\n      jumpi\n        /* \"contracts/LoteStakingManager.sol\":11072:11084  pool.lpToken */\n      dup2\n      sload\n        /* \"contracts/LoteStakingManager.sol\":11072:11208  pool.lpToken.transferFrom(\r... */\n      mload(0x40)\n      shl(0xe0, 0x23b872dd)\n      dup2\n      mstore\n        /* \"contracts/LoteStakingManager.sol\":11124:11134  msg.sender */\n      caller\n        /* \"contracts/LoteStakingManager.sol\":11072:11208  pool.lpToken.transferFrom(\r... */\n      0x04\n      dup3\n      add\n        /* \"#utility.yul\":5193:5227   */\n      mstore\n        /* \"contracts/LoteStakingManager.sol\":11162:11166  this */\n      address\n        /* \"#utility.yul\":5243:5261   */\n      0x24\n      dup3\n      add\n        /* \"#utility.yul\":5236:5279   */\n      mstore\n        /* \"#utility.yul\":5295:5313   */\n      0x44\n      dup2\n      add\n        /* \"#utility.yul\":5288:5322   */\n      dup7\n      swap1\n      mstore\n      sub(shl(0xa0, 0x01), 0x01)\n        /* \"contracts/LoteStakingManager.sol\":11072:11084  pool.lpToken */\n      swap1\n      swap2\n      and\n      swap1\n        /* \"contracts/LoteStakingManager.sol\":11072:11097  pool.lpToken.transferFrom */\n      0x23b872dd\n      swap1\n        /* \"#utility.yul\":5128:5146   */\n      0x64\n      add\n        /* \"contracts/LoteStakingManager.sol\":11072:11208  pool.lpToken.transferFrom(\r... */\n      0x20\n      mload(0x40)\n      dup1\n      dup4\n      sub\n      dup2\n      0x00\n      dup8\n      dup1\n      extcodesize\n      iszero\n      dup1\n      iszero\n      tag_351\n      jumpi\n      0x00\n      dup1\n      revert\n    tag_351:\n      pop\n      gas\n      call\n      iszero\n      dup1\n      iszero\n      tag_353\n      jumpi\n      returndatasize\n      0x00\n      dup1\n      returndatacopy\n      revert(0x00, returndatasize)\n    tag_353:\n      pop\n      pop\n      pop\n      pop\n      mload(0x40)\n      returndatasize\n      not(0x1f)\n      0x1f\n      dup3\n      add\n      and\n      dup3\n      add\n      dup1\n      0x40\n      mstore\n      pop\n      dup2\n      add\n      swap1\n      tag_354\n      swap2\n      swap1\n      tag_355\n      jump\t// in\n    tag_354:\n      pop\n        /* \"contracts/LoteStakingManager.sol\":11260:11267  lottery */\n      sload(0x02)\n        /* \"contracts/LoteStakingManager.sol\":11235:11247  pool.lpToken */\n      dup3\n      sload\n      sub(shl(0xa0, 0x01), 0x01)\n      swap1\n      dup2\n      and\n        /* \"contracts/LoteStakingManager.sol\":11260:11267  lottery */\n      swap2\n      and\n        /* \"contracts/LoteStakingManager.sol\":11227:11268  address(pool.lpToken) == address(lottery) */\n      eq\n        /* \"contracts/LoteStakingManager.sol\":11223:11465  if (address(pool.lpToken) == address(lottery)) {\r... */\n      iszero\n      tag_356\n      jumpi\n        /* \"contracts/LoteStakingManager.sol\":11289:11308  uint256 transferTax */\n      0x00\n        /* \"contracts/LoteStakingManager.sol\":11311:11396  _amount\r... */\n      tag_357\n        /* \"contracts/LoteStakingManager.sol\":11390:11395  10000 */\n      0x2710\n        /* \"contracts/LoteStakingManager.sol\":11311:11367  _amount\r... */\n      tag_246\n        /* \"contracts/LoteStakingManager.sol\":11341:11348  lottery */\n      0x02\n      0x00\n      swap1\n      sload\n      swap1\n      0x0100\n      exp\n      swap1\n      div\n      sub(shl(0xa0, 0x01), 0x01)\n      and\n      sub(shl(0xa0, 0x01), 0x01)\n        /* \"contracts/LoteStakingManager.sol\":11341:11364  lottery.transferTaxRate */\n      and\n      0xb65d08b0\n        /* \"contracts/LoteStakingManager.sol\":11341:11366  lottery.transferTaxRate() */\n      mload(0x40)\n      dup2\n      0xffffffff\n      and\n      0xe0\n      shl\n      dup2\n      mstore\n      0x04\n      add\n      0x20\n      mload(0x40)\n      dup1\n      dup4\n      sub\n      dup2\n      dup7\n      dup1\n      extcodesize\n      iszero\n      dup1\n      iszero\n      tag_359\n      jumpi\n      0x00\n      dup1\n      revert\n    tag_359:\n      pop\n      gas\n      staticcall\n      iszero\n      dup1\n      iszero\n      tag_361\n      jumpi\n      returndatasize\n      0x00\n      dup1\n      returndatacopy\n      revert(0x00, returndatasize)\n    tag_361:\n      pop\n      pop\n      pop\n      pop\n      mload(0x40)\n      returndatasize\n      not(0x1f)\n      0x1f\n      dup3\n      add\n      and\n      dup3\n      add\n      dup1\n      0x40\n      mstore\n      pop\n      dup2\n      add\n      swap1\n      tag_362\n      swap2\n      swap1\n      tag_363\n      jump\t// in\n    tag_362:\n        /* \"contracts/LoteStakingManager.sol\":11311:11318  _amount */\n      dup9\n      swap1\n        /* \"contracts/LoteStakingManager.sol\":11311:11367  _amount\r... */\n      0xffff\n      and\n        /* \"contracts/LoteStakingManager.sol\":11311:11340  _amount\r... */\n      tag_247\n        /* \"contracts/LoteStakingManager.sol\":11311:11367  _amount\r... */\n      jump\t// in\n        /* \"contracts/LoteStakingManager.sol\":11311:11396  _amount\r... */\n    tag_357:\n        /* \"contracts/LoteStakingManager.sol\":11289:11396  uint256 transferTax = _amount\r... */\n      swap1\n      pop\n        /* \"contracts/LoteStakingManager.sol\":11425:11449  _amount.sub(transferTax) */\n      tag_364\n        /* \"contracts/LoteStakingManager.sol\":11425:11432  _amount */\n      dup6\n        /* \"contracts/LoteStakingManager.sol\":11289:11396  uint256 transferTax = _amount\r... */\n      dup3\n        /* \"contracts/LoteStakingManager.sol\":11425:11436  _amount.sub */\n      tag_209\n        /* \"contracts/LoteStakingManager.sol\":11425:11449  _amount.sub(transferTax) */\n      jump\t// in\n    tag_364:\n        /* \"contracts/LoteStakingManager.sol\":11415:11449  _amount = _amount.sub(transferTax) */\n      swap5\n      pop\n        /* \"contracts/LoteStakingManager.sol\":11270:11465  {\r... */\n      pop\n        /* \"contracts/LoteStakingManager.sol\":11223:11465  if (address(pool.lpToken) == address(lottery)) {\r... */\n    tag_356:\n        /* \"contracts/LoteStakingManager.sol\":11483:11500  pool.depositFeeBP */\n      0x04\n      dup3\n      add\n      sload\n      0xffff\n      and\n        /* \"contracts/LoteStakingManager.sol\":11483:11504  pool.depositFeeBP > 0 */\n      iszero\n        /* \"contracts/LoteStakingManager.sol\":11479:11823  if (pool.depositFeeBP > 0) {\r... */\n      tag_365\n      jumpi\n        /* \"contracts/LoteStakingManager.sol\":11558:11575  pool.depositFeeBP */\n      0x04\n      dup3\n      add\n      sload\n        /* \"contracts/LoteStakingManager.sol\":11525:11543  uint256 depositFee */\n      0x00\n      swap1\n        /* \"contracts/LoteStakingManager.sol\":11546:11587  _amount.mul(pool.depositFeeBP).div(10000) */\n      tag_366\n      swap1\n        /* \"contracts/LoteStakingManager.sol\":11581:11586  10000 */\n      0x2710\n      swap1\n        /* \"contracts/LoteStakingManager.sol\":11546:11576  _amount.mul(pool.depositFeeBP) */\n      tag_246\n      swap1\n        /* \"contracts/LoteStakingManager.sol\":11546:11553  _amount */\n      dup9\n      swap1\n        /* \"contracts/LoteStakingManager.sol\":11558:11575  pool.depositFeeBP */\n      0xffff\n      and\n        /* \"contracts/LoteStakingManager.sol\":11546:11557  _amount.mul */\n      tag_247\n        /* \"contracts/LoteStakingManager.sol\":11546:11576  _amount.mul(pool.depositFeeBP) */\n      jump\t// in\n        /* \"contracts/LoteStakingManager.sol\":11546:11587  _amount.mul(pool.depositFeeBP).div(10000) */\n    tag_366:\n        /* \"contracts/LoteStakingManager.sol\":11632:11642  feeAddress */\n      sload(0x05)\n        /* \"contracts/LoteStakingManager.sol\":11606:11618  pool.lpToken */\n      dup5\n      sload\n        /* \"contracts/LoteStakingManager.sol\":11525:11587  uint256 depositFee = _amount.mul(pool.depositFeeBP).div(10000) */\n      swap2\n      swap3\n      pop\n        /* \"contracts/LoteStakingManager.sol\":11606:11655  pool.lpToken.safeTransfer(feeAddress, depositFee) */\n      tag_368\n      swap2\n      sub(shl(0xa0, 0x01), 0x01)\n        /* \"contracts/LoteStakingManager.sol\":11606:11618  pool.lpToken */\n      swap1\n      dup2\n      and\n      swap2\n        /* \"contracts/LoteStakingManager.sol\":11632:11642  feeAddress */\n      and\n        /* \"contracts/LoteStakingManager.sol\":11525:11587  uint256 depositFee = _amount.mul(pool.depositFeeBP).div(10000) */\n      dup4\n        /* \"contracts/LoteStakingManager.sol\":11606:11631  pool.lpToken.safeTransfer */\n      tag_244\n        /* \"contracts/LoteStakingManager.sol\":11606:11655  pool.lpToken.safeTransfer(feeAddress, depositFee) */\n      jump\t// in\n    tag_368:\n        /* \"contracts/LoteStakingManager.sol\":11688:11699  user.amount */\n      dup2\n      sload\n        /* \"contracts/LoteStakingManager.sol\":11688:11728  user.amount.add(_amount).sub(depositFee) */\n      tag_369\n      swap1\n        /* \"contracts/LoteStakingManager.sol\":11717:11727  depositFee */\n      dup3\n      swap1\n        /* \"contracts/LoteStakingManager.sol\":11688:11712  user.amount.add(_amount) */\n      tag_370\n      swap1\n        /* \"contracts/LoteStakingManager.sol\":11704:11711  _amount */\n      dup9\n        /* \"contracts/LoteStakingManager.sol\":11688:11703  user.amount.add */\n      tag_210\n        /* \"contracts/LoteStakingManager.sol\":11688:11712  user.amount.add(_amount) */\n      jump\t// in\n    tag_370:\n        /* \"contracts/LoteStakingManager.sol\":11688:11716  user.amount.add(_amount).sub */\n      swap1\n      tag_209\n        /* \"contracts/LoteStakingManager.sol\":11688:11728  user.amount.add(_amount).sub(depositFee) */\n      jump\t// in\n    tag_369:\n        /* \"contracts/LoteStakingManager.sol\":11674:11728  user.amount = user.amount.add(_amount).sub(depositFee) */\n      dup3\n      sstore\n      pop\n        /* \"contracts/LoteStakingManager.sol\":11479:11823  if (pool.depositFeeBP > 0) {\r... */\n      jump(tag_371)\n    tag_365:\n        /* \"contracts/LoteStakingManager.sol\":11783:11794  user.amount */\n      dup1\n      sload\n        /* \"contracts/LoteStakingManager.sol\":11783:11807  user.amount.add(_amount) */\n      tag_372\n      swap1\n        /* \"contracts/LoteStakingManager.sol\":11799:11806  _amount */\n      dup6\n        /* \"contracts/LoteStakingManager.sol\":11783:11798  user.amount.add */\n      tag_210\n        /* \"contracts/LoteStakingManager.sol\":11783:11807  user.amount.add(_amount) */\n      jump\t// in\n    tag_372:\n        /* \"contracts/LoteStakingManager.sol\":11769:11807  user.amount = user.amount.add(_amount) */\n      dup2\n      sstore\n        /* \"contracts/LoteStakingManager.sol\":11479:11823  if (pool.depositFeeBP > 0) {\r... */\n    tag_371:\n        /* \"contracts/LoteStakingManager.sol\":11878:11902  pool.accPositionPerShare */\n      0x03\n      dup3\n      add\n      sload\n        /* \"contracts/LoteStakingManager.sol\":11862:11873  user.amount */\n      dup2\n      sload\n        /* \"contracts/LoteStakingManager.sol\":11862:11913  user.amount.mul(pool.accPositionPerShare).div(1e12) */\n      tag_373\n      swap2\n        /* \"contracts/LoteStakingManager.sol\":11908:11912  1e12 */\n      0xe8d4a51000\n      swap2\n        /* \"contracts/LoteStakingManager.sol\":11862:11903  user.amount.mul(pool.accPositionPerShare) */\n      tag_246\n      swap2\n        /* \"contracts/LoteStakingManager.sol\":11862:11877  user.amount.mul */\n      tag_247\n        /* \"contracts/LoteStakingManager.sol\":11862:11903  user.amount.mul(pool.accPositionPerShare) */\n      jump\t// in\n        /* \"contracts/LoteStakingManager.sol\":11862:11913  user.amount.mul(pool.accPositionPerShare).div(1e12) */\n    tag_373:\n        /* \"contracts/LoteStakingManager.sol\":11844:11859  user.rewardDebt */\n      0x01\n      dup3\n      add\n        /* \"contracts/LoteStakingManager.sol\":11844:11913  user.rewardDebt = user.amount.mul(pool.accPositionPerShare).div(1e12) */\n      sstore\n        /* \"contracts/LoteStakingManager.sol\":11929:11963  Deposit(msg.sender, _pid, _amount) */\n      mload(0x40)\n        /* \"#utility.yul\":14221:14246   */\n      dup5\n      dup2\n      mstore\n        /* \"contracts/LoteStakingManager.sol\":11949:11953  _pid */\n      dup6\n      swap1\n        /* \"contracts/LoteStakingManager.sol\":11937:11947  msg.sender */\n      caller\n      swap1\n        /* \"contracts/LoteStakingManager.sol\":11929:11963  Deposit(msg.sender, _pid, _amount) */\n      0x90890809c654f11d6e72a28fa60149770a0d11ec6c92319d6ceb2bb0a4ea1a15\n      swap1\n        /* \"#utility.yul\":14209:14211   */\n      0x20\n        /* \"#utility.yul\":14194:14212   */\n      add\n        /* \"contracts/LoteStakingManager.sol\":11929:11963  Deposit(msg.sender, _pid, _amount) */\n      mload(0x40)\n      dup1\n      swap2\n      sub\n      swap1\n      log3\n      pop\n      pop\n        /* \"@openzeppelin/contracts/security/ReentrancyGuard.sol\":1701:1702  1 */\n      0x01\n        /* \"@openzeppelin/contracts/security/ReentrancyGuard.sol\":2628:2650  _status = _NOT_ENTERED */\n      dup1\n      sstore\n      pop\n      pop\n      pop\n        /* \"contracts/LoteStakingManager.sol\":10462:11971  function deposit(\r... */\n      jump\t// out\n        /* \"contracts/LoteStakingManager.sol\":7594:8628  function pendingPosition(uint256 _pid, address _user)\r... */\n    tag_149:\n        /* \"contracts/LoteStakingManager.sol\":7698:7705  uint256 */\n      0x00\n        /* \"contracts/LoteStakingManager.sol\":7723:7744  PoolInfo storage pool */\n      dup1\n        /* \"contracts/LoteStakingManager.sol\":7747:7755  poolInfo */\n      0x07\n        /* \"contracts/LoteStakingManager.sol\":7756:7760  _pid */\n      dup5\n        /* \"contracts/LoteStakingManager.sol\":7747:7761  poolInfo[_pid] */\n      dup2\n      sload\n      dup2\n      lt\n      tag_378\n      jumpi\n      tag_378\n      tag_207\n      jump\t// in\n    tag_378:\n      0x00\n      swap2\n      dup3\n      mstore\n      0x20\n      dup1\n      dup4\n      keccak256\n        /* \"contracts/LoteStakingManager.sol\":7796:7810  userInfo[_pid] */\n      dup8\n      dup5\n      mstore\n        /* \"contracts/LoteStakingManager.sol\":7796:7804  userInfo */\n      0x08\n        /* \"contracts/LoteStakingManager.sol\":7796:7810  userInfo[_pid] */\n      dup3\n      mstore\n      0x40\n      dup1\n      dup6\n      keccak256\n      sub(shl(0xa0, 0x01), 0x01)\n        /* \"contracts/LoteStakingManager.sol\":7796:7817  userInfo[_pid][_user] */\n      dup10\n      dup2\n      and\n      dup8\n      mstore\n      swap4\n      mstore\n      dup1\n      dup6\n      keccak256\n        /* \"contracts/LoteStakingManager.sol\":7747:7761  poolInfo[_pid] */\n      0x06\n      swap5\n      swap1\n      swap5\n      mul\n      swap1\n      swap2\n      add\n        /* \"contracts/LoteStakingManager.sol\":7858:7882  pool.accPositionPerShare */\n      0x03\n      dup2\n      add\n      sload\n        /* \"contracts/LoteStakingManager.sol\":7912:7924  pool.lpToken */\n      dup2\n      sload\n        /* \"contracts/LoteStakingManager.sol\":7912:7949  pool.lpToken.balanceOf(address(this)) */\n      swap3\n      mload\n      shl(0xe0, 0x70a08231)\n      dup2\n      mstore\n        /* \"contracts/LoteStakingManager.sol\":7943:7947  this */\n      address\n        /* \"contracts/LoteStakingManager.sol\":7912:7949  pool.lpToken.balanceOf(address(this)) */\n      0x04\n      dup3\n      add\n        /* \"#utility.yul\":4582:4633   */\n      mstore\n        /* \"contracts/LoteStakingManager.sol\":7747:7761  poolInfo[_pid] */\n      swap2\n      swap7\n      pop\n        /* \"contracts/LoteStakingManager.sol\":7796:7817  userInfo[_pid][_user] */\n      swap4\n      swap5\n        /* \"contracts/LoteStakingManager.sol\":7747:7761  poolInfo[_pid] */\n      swap3\n        /* \"contracts/LoteStakingManager.sol\":7912:7924  pool.lpToken */\n      swap2\n      swap1\n      swap2\n      and\n      swap1\n        /* \"contracts/LoteStakingManager.sol\":7912:7934  pool.lpToken.balanceOf */\n      0x70a08231\n      swap1\n        /* \"#utility.yul\":4555:4573   */\n      0x24\n      add\n        /* \"contracts/LoteStakingManager.sol\":7912:7949  pool.lpToken.balanceOf(address(this)) */\n      0x20\n      mload(0x40)\n      dup1\n      dup4\n      sub\n      dup2\n      dup7\n      dup1\n      extcodesize\n      iszero\n      dup1\n      iszero\n      tag_381\n      jumpi\n      0x00\n      dup1\n      revert\n    tag_381:\n      pop\n      gas\n      staticcall\n      iszero\n      dup1\n      iszero\n      tag_383\n      jumpi\n      returndatasize\n      0x00\n      dup1\n      returndatacopy\n      revert(0x00, returndatasize)\n    tag_383:\n      pop\n      pop\n      pop\n      pop\n      mload(0x40)\n      returndatasize\n      not(0x1f)\n      0x1f\n      dup3\n      add\n      and\n      dup3\n      add\n      dup1\n      0x40\n      mstore\n      pop\n      dup2\n      add\n      swap1\n      tag_384\n      swap2\n      swap1\n      tag_263\n      jump\t// in\n    tag_384:\n        /* \"contracts/LoteStakingManager.sol\":7893:7949  uint256 lpSupply = pool.lpToken.balanceOf(address(this)) */\n      swap1\n      pop\n        /* \"contracts/LoteStakingManager.sol\":7979:7983  pool */\n      dup4\n        /* \"contracts/LoteStakingManager.sol\":7979:7999  pool.lastRewardBlock */\n      0x02\n      add\n      sload\n        /* \"contracts/LoteStakingManager.sol\":7964:7976  block.number */\n      number\n        /* \"contracts/LoteStakingManager.sol\":7964:7999  block.number > pool.lastRewardBlock */\n      gt\n        /* \"contracts/LoteStakingManager.sol\":7964:8016  block.number > pool.lastRewardBlock && lpSupply != 0 */\n      dup1\n      iszero\n      tag_385\n      jumpi\n      pop\n        /* \"contracts/LoteStakingManager.sol\":8003:8016  lpSupply != 0 */\n      dup1\n      iszero\n      iszero\n        /* \"contracts/LoteStakingManager.sol\":7964:8016  block.number > pool.lastRewardBlock && lpSupply != 0 */\n    tag_385:\n        /* \"contracts/LoteStakingManager.sol\":7960:8451  if (block.number > pool.lastRewardBlock && lpSupply != 0) {\r... */\n      iszero\n      tag_386\n      jumpi\n        /* \"contracts/LoteStakingManager.sol\":8033:8051  uint256 multiplier */\n      0x00\n        /* \"contracts/LoteStakingManager.sol\":8054:8152  getMultiplier(\r... */\n      tag_387\n        /* \"contracts/LoteStakingManager.sol\":8086:8090  pool */\n      dup6\n        /* \"contracts/LoteStakingManager.sol\":8086:8106  pool.lastRewardBlock */\n      0x02\n      add\n      sload\n        /* \"contracts/LoteStakingManager.sol\":8125:8137  block.number */\n      number\n        /* \"contracts/LoteStakingManager.sol\":8054:8067  getMultiplier */\n      tag_133\n        /* \"contracts/LoteStakingManager.sol\":8054:8152  getMultiplier(\r... */\n      jump\t// in\n    tag_387:\n        /* \"contracts/LoteStakingManager.sol\":8033:8152  uint256 multiplier = getMultiplier(\r... */\n      swap1\n      pop\n        /* \"contracts/LoteStakingManager.sol\":8167:8189  uint256 positionReward */\n      0x00\n        /* \"contracts/LoteStakingManager.sol\":8192:8307  multiplier\r... */\n      tag_388\n        /* \"contracts/LoteStakingManager.sol\":8291:8306  totalAllocPoint */\n      sload(0x09)\n        /* \"contracts/LoteStakingManager.sol\":8192:8272  multiplier\r... */\n      tag_246\n        /* \"contracts/LoteStakingManager.sol\":8256:8260  pool */\n      dup9\n        /* \"contracts/LoteStakingManager.sol\":8256:8271  pool.allocPoint */\n      0x01\n      add\n      sload\n        /* \"contracts/LoteStakingManager.sol\":8192:8237  multiplier\r... */\n      tag_269\n        /* \"contracts/LoteStakingManager.sol\":8221:8236  lotteryPerBlock */\n      sload(0x06)\n        /* \"contracts/LoteStakingManager.sol\":8192:8202  multiplier */\n      dup8\n        /* \"contracts/LoteStakingManager.sol\":8192:8220  multiplier\r... */\n      tag_247\n      swap1\n        /* \"contracts/LoteStakingManager.sol\":8192:8237  multiplier\r... */\n      swap2\n      swap1\n      0xffffffff\n      and\n      jump\t// in\n        /* \"contracts/LoteStakingManager.sol\":8192:8307  multiplier\r... */\n    tag_388:\n        /* \"contracts/LoteStakingManager.sol\":8167:8307  uint256 positionReward = multiplier\r... */\n      swap1\n      pop\n        /* \"contracts/LoteStakingManager.sol\":8344:8439  accPositionPerShare.add(\r... */\n      tag_391\n        /* \"contracts/LoteStakingManager.sol\":8386:8424  positionReward.mul(1e12).div(lpSupply) */\n      tag_392\n        /* \"contracts/LoteStakingManager.sol\":8415:8423  lpSupply */\n      dup5\n        /* \"contracts/LoteStakingManager.sol\":8386:8410  positionReward.mul(1e12) */\n      tag_246\n        /* \"contracts/LoteStakingManager.sol\":8167:8307  uint256 positionReward = multiplier\r... */\n      dup5\n        /* \"contracts/LoteStakingManager.sol\":8405:8409  1e12 */\n      0xe8d4a51000\n        /* \"contracts/LoteStakingManager.sol\":8386:8404  positionReward.mul */\n      tag_247\n        /* \"contracts/LoteStakingManager.sol\":8386:8410  positionReward.mul(1e12) */\n      jump\t// in\n        /* \"contracts/LoteStakingManager.sol\":8386:8424  positionReward.mul(1e12).div(lpSupply) */\n    tag_392:\n        /* \"contracts/LoteStakingManager.sol\":8344:8363  accPositionPerShare */\n      dup6\n      swap1\n        /* \"contracts/LoteStakingManager.sol\":8344:8367  accPositionPerShare.add */\n      tag_210\n        /* \"contracts/LoteStakingManager.sol\":8344:8439  accPositionPerShare.add(\r... */\n      jump\t// in\n    tag_391:\n        /* \"contracts/LoteStakingManager.sol\":8322:8439  accPositionPerShare = accPositionPerShare.add(\r... */\n      swap4\n      pop\n        /* \"contracts/LoteStakingManager.sol\":8018:8451  {\r... */\n      pop\n      pop\n        /* \"contracts/LoteStakingManager.sol\":7960:8451  if (block.number > pool.lastRewardBlock && lpSupply != 0) {\r... */\n    tag_386:\n        /* \"contracts/LoteStakingManager.sol\":8461:8476  uint256 pending */\n      0x00\n        /* \"contracts/LoteStakingManager.sol\":8479:8570  user.amount.mul(accPositionPerShare).div(1e12).sub(\r... */\n      tag_394\n        /* \"contracts/LoteStakingManager.sol\":8544:8548  user */\n      dup5\n        /* \"contracts/LoteStakingManager.sol\":8544:8559  user.rewardDebt */\n      0x01\n      add\n      sload\n        /* \"contracts/LoteStakingManager.sol\":8479:8525  user.amount.mul(accPositionPerShare).div(1e12) */\n      tag_370\n        /* \"contracts/LoteStakingManager.sol\":8520:8524  1e12 */\n      0xe8d4a51000\n        /* \"contracts/LoteStakingManager.sol\":8479:8515  user.amount.mul(accPositionPerShare) */\n      tag_246\n        /* \"contracts/LoteStakingManager.sol\":8495:8514  accPositionPerShare */\n      dup8\n        /* \"contracts/LoteStakingManager.sol\":8479:8483  user */\n      dup10\n        /* \"contracts/LoteStakingManager.sol\":8479:8490  user.amount */\n      0x00\n      add\n      sload\n        /* \"contracts/LoteStakingManager.sol\":8479:8494  user.amount.mul */\n      tag_247\n      swap1\n        /* \"contracts/LoteStakingManager.sol\":8479:8515  user.amount.mul(accPositionPerShare) */\n      swap2\n      swap1\n      0xffffffff\n      and\n      jump\t// in\n        /* \"contracts/LoteStakingManager.sol\":8479:8570  user.amount.mul(accPositionPerShare).div(1e12).sub(\r... */\n    tag_394:\n        /* \"contracts/LoteStakingManager.sol\":8461:8570  uint256 pending = user.amount.mul(accPositionPerShare).div(1e12).sub(\r... */\n      swap1\n      pop\n        /* \"contracts/LoteStakingManager.sol\":8588:8620  pending.add(user.rewardLockedUp) */\n      tag_397\n        /* \"contracts/LoteStakingManager.sol\":8600:8604  user */\n      dup5\n        /* \"contracts/LoteStakingManager.sol\":8600:8619  user.rewardLockedUp */\n      0x02\n      add\n      sload\n        /* \"contracts/LoteStakingManager.sol\":8588:8595  pending */\n      dup3\n        /* \"contracts/LoteStakingManager.sol\":8588:8599  pending.add */\n      tag_210\n      swap1\n        /* \"contracts/LoteStakingManager.sol\":8588:8620  pending.add(user.rewardLockedUp) */\n      swap2\n      swap1\n      0xffffffff\n      and\n      jump\t// in\n    tag_397:\n        /* \"contracts/LoteStakingManager.sol\":8581:8620  return pending.add(user.rewardLockedUp) */\n      swap9\n        /* \"contracts/LoteStakingManager.sol\":7594:8628  function pendingPosition(uint256 _pid, address _user)\r... */\n      swap8\n      pop\n      pop\n      pop\n      pop\n      pop\n      pop\n      pop\n      pop\n      jump\t// out\n        /* \"contracts/LoteStakingManager.sol\":5324:6363  function add(\r... */\n    tag_158:\n        /* \"@openzeppelin/contracts/access/Ownable.sol\":1082:1089  address */\n      0x00\n        /* \"@openzeppelin/contracts/access/Ownable.sol\":1108:1114  _owner */\n      sload\n      sub(shl(0xa0, 0x01), 0x01)\n      and\n        /* \"@openzeppelin/contracts/utils/Context.sol\":719:729  msg.sender */\n      caller\n        /* \"@openzeppelin/contracts/access/Ownable.sol\":1248:1271  owner() == _msgSender() */\n      eq\n        /* \"@openzeppelin/contracts/access/Ownable.sol\":1240:1308  require(owner() == _msgSender(), \"Ownable: caller is not the owner\") */\n      tag_401\n      jumpi\n      mload(0x40)\n      shl(0xe5, 0x461bcd)\n      dup2\n      mstore\n      0x04\n      add\n      tag_181\n      swap1\n      tag_182\n      jump\t// in\n    tag_401:\n        /* \"contracts/LoteStakingManager.sol\":5560:5565  10000 */\n      0x2710\n        /* \"contracts/LoteStakingManager.sol\":5543:5556  _depositFeeBP */\n      dup4\n        /* \"contracts/LoteStakingManager.sol\":5543:5565  _depositFeeBP <= 10000 */\n      0xffff\n      and\n      gt\n      iszero\n        /* \"contracts/LoteStakingManager.sol\":5521:5630  require(\r... */\n      tag_404\n      jumpi\n      mload(0x40)\n      shl(0xe5, 0x461bcd)\n      dup2\n      mstore\n        /* \"#utility.yul\":7678:7680   */\n      0x20\n        /* \"contracts/LoteStakingManager.sol\":5521:5630  require(\r... */\n      0x04\n      dup3\n      add\n        /* \"#utility.yul\":7660:7681   */\n      mstore\n        /* \"#utility.yul\":7717:7719   */\n      0x25\n        /* \"#utility.yul\":7697:7715   */\n      0x24\n      dup3\n      add\n        /* \"#utility.yul\":7690:7720   */\n      mstore\n        /* \"#utility.yul\":7756:7790   */\n      0x6164643a20696e76616c6964206465706f736974206665652062617369732070\n        /* \"#utility.yul\":7736:7754   */\n      0x44\n      dup3\n      add\n        /* \"#utility.yul\":7729:7791   */\n      mstore\n      shl(0xd8, 0x6f696e7473)\n        /* \"#utility.yul\":7807:7825   */\n      0x64\n      dup3\n      add\n        /* \"#utility.yul\":7800:7835   */\n      mstore\n        /* \"#utility.yul\":7852:7871   */\n      0x84\n      add\n        /* \"contracts/LoteStakingManager.sol\":5521:5630  require(\r... */\n      tag_181\n        /* \"#utility.yul\":7476:7877   */\n      jump\n        /* \"contracts/LoteStakingManager.sol\":5521:5630  require(\r... */\n    tag_404:\n        /* \"contracts/LoteStakingManager.sol\":3078:3085  14 days */\n      0x127500\n        /* \"contracts/LoteStakingManager.sol\":5663:5679  _harvestInterval */\n      dup3\n        /* \"contracts/LoteStakingManager.sol\":5663:5707  _harvestInterval <= MAXIMUM_HARVEST_INTERVAL */\n      gt\n      iszero\n        /* \"contracts/LoteStakingManager.sol\":5641:5764  require(\r... */\n      tag_407\n      jumpi\n      mload(0x40)\n      shl(0xe5, 0x461bcd)\n      dup2\n      mstore\n        /* \"#utility.yul\":10365:10367   */\n      0x20\n        /* \"contracts/LoteStakingManager.sol\":5641:5764  require(\r... */\n      0x04\n      dup3\n      add\n        /* \"#utility.yul\":10347:10368   */\n      mstore\n        /* \"#utility.yul\":10404:10406   */\n      0x1d\n        /* \"#utility.yul\":10384:10402   */\n      0x24\n      dup3\n      add\n        /* \"#utility.yul\":10377:10407   */\n      mstore\n        /* \"#utility.yul\":10443:10474   */\n      0x6164643a20696e76616c6964206861727665737420696e74657276616c000000\n        /* \"#utility.yul\":10423:10441   */\n      0x44\n      dup3\n      add\n        /* \"#utility.yul\":10416:10475   */\n      mstore\n        /* \"#utility.yul\":10492:10510   */\n      0x64\n      add\n        /* \"contracts/LoteStakingManager.sol\":5641:5764  require(\r... */\n      tag_181\n        /* \"#utility.yul\":10163:10516   */\n      jump\n        /* \"contracts/LoteStakingManager.sol\":5641:5764  require(\r... */\n    tag_407:\n        /* \"contracts/LoteStakingManager.sol\":5779:5790  _withUpdate */\n      dup1\n        /* \"contracts/LoteStakingManager.sol\":5775:5836  if (_withUpdate) {\r... */\n      iszero\n      tag_411\n      jumpi\n        /* \"contracts/LoteStakingManager.sol\":5807:5824  massUpdatePools() */\n      tag_411\n        /* \"contracts/LoteStakingManager.sol\":5807:5822  massUpdatePools */\n      tag_115\n        /* \"contracts/LoteStakingManager.sol\":5807:5824  massUpdatePools() */\n      jump\t// in\n    tag_411:\n        /* \"contracts/LoteStakingManager.sol\":5846:5869  uint256 lastRewardBlock */\n      0x00\n        /* \"contracts/LoteStakingManager.sol\":5887:5897  startBlock */\n      sload(0x0a)\n        /* \"contracts/LoteStakingManager.sol\":5872:5884  block.number */\n      number\n        /* \"contracts/LoteStakingManager.sol\":5872:5897  block.number > startBlock */\n      gt\n        /* \"contracts/LoteStakingManager.sol\":5872:5951  block.number > startBlock\r... */\n      tag_412\n      jumpi\n        /* \"contracts/LoteStakingManager.sol\":5941:5951  startBlock */\n      sload(0x0a)\n        /* \"contracts/LoteStakingManager.sol\":5872:5951  block.number > startBlock\r... */\n      jump(tag_413)\n    tag_412:\n        /* \"contracts/LoteStakingManager.sol\":5913:5925  block.number */\n      number\n        /* \"contracts/LoteStakingManager.sol\":5872:5951  block.number > startBlock\r... */\n    tag_413:\n        /* \"contracts/LoteStakingManager.sol\":5980:5995  totalAllocPoint */\n      sload(0x09)\n        /* \"contracts/LoteStakingManager.sol\":5846:5951  uint256 lastRewardBlock = block.number > startBlock\r... */\n      swap1\n      swap2\n      pop\n        /* \"contracts/LoteStakingManager.sol\":5980:6012  totalAllocPoint.add(_allocPoint) */\n      tag_414\n      swap1\n        /* \"contracts/LoteStakingManager.sol\":6000:6011  _allocPoint */\n      dup8\n        /* \"contracts/LoteStakingManager.sol\":5980:5999  totalAllocPoint.add */\n      tag_210\n        /* \"contracts/LoteStakingManager.sol\":5980:6012  totalAllocPoint.add(_allocPoint) */\n      jump\t// in\n    tag_414:\n        /* \"contracts/LoteStakingManager.sol\":5962:5977  totalAllocPoint */\n      0x09\n        /* \"contracts/LoteStakingManager.sol\":5962:6012  totalAllocPoint = totalAllocPoint.add(_allocPoint) */\n      sstore\n        /* \"contracts/LoteStakingManager.sol\":6051:6344  PoolInfo({\r... */\n      0x40\n      dup1\n      mload\n      0xc0\n      dup2\n      add\n      dup3\n      mstore\n      sub(shl(0xa0, 0x01), 0x01)\n      swap7\n      dup8\n      and\n      dup2\n      mstore\n      0x20\n      dup2\n      add\n      swap8\n      dup9\n      mstore\n      swap1\n      dup2\n      add\n      swap2\n      dup3\n      mstore\n      0x00\n      0x60\n      dup3\n      add\n      dup2\n      dup2\n      mstore\n      0xffff\n      swap7\n      dup8\n      and\n      0x80\n      dup5\n      add\n      swap1\n      dup2\n      mstore\n      0xa0\n      dup5\n      add\n      swap7\n      dup8\n      mstore\n        /* \"contracts/LoteStakingManager.sol\":6023:6031  poolInfo */\n      0x07\n        /* \"contracts/LoteStakingManager.sol\":6023:6355  poolInfo.push(\r... */\n      dup1\n      sload\n      0x01\n      dup2\n      add\n      dup3\n      sstore\n      swap4\n      mstore\n      swap3\n      mload\n      0xa66cc928b5edb82af9bd49922954155ab7b0942694bea4ce44661d9a8736c688\n      0x06\n      swap1\n      swap4\n      mul\n      swap3\n      dup4\n      add\n      dup1\n      sload\n      not(sub(shl(0xa0, 0x01), 0x01))\n      and\n      swap2\n      swap1\n      swap10\n      and\n      or\n      swap1\n      swap8\n      sstore\n      swap7\n      mload\n      0xa66cc928b5edb82af9bd49922954155ab7b0942694bea4ce44661d9a8736c689\n      dup9\n      add\n      sstore\n      swap1\n      mload\n      0xa66cc928b5edb82af9bd49922954155ab7b0942694bea4ce44661d9a8736c68a\n      dup8\n      add\n      sstore\n      swap4\n      mload\n      0xa66cc928b5edb82af9bd49922954155ab7b0942694bea4ce44661d9a8736c68b\n      dup7\n      add\n      sstore\n      pop\n      swap2\n      mload\n      0xa66cc928b5edb82af9bd49922954155ab7b0942694bea4ce44661d9a8736c68c\n      dup5\n      add\n      dup1\n      sload\n      not(0xffff)\n      and\n      swap2\n      swap1\n      swap3\n      and\n      or\n      swap1\n      sstore\n      mload\n      0xa66cc928b5edb82af9bd49922954155ab7b0942694bea4ce44661d9a8736c68d\n      swap1\n      swap2\n      add\n      sstore\n        /* \"contracts/LoteStakingManager.sol\":5324:6363  function add(\r... */\n      jump\t// out\n        /* \"contracts/LoteStakingManager.sol\":15104:15338  function setDevAddress(address _devAddress) public {\r... */\n    tag_165:\n        /* \"contracts/LoteStakingManager.sol\":15188:15198  devAddress */\n      and(sub(shl(0xa0, 0x01), 0x01), sload(0x04))\n        /* \"contracts/LoteStakingManager.sol\":15174:15184  msg.sender */\n      caller\n        /* \"contracts/LoteStakingManager.sol\":15174:15198  msg.sender == devAddress */\n      eq\n        /* \"contracts/LoteStakingManager.sol\":15166:15227  require(msg.sender == devAddress, \"setDevAddress: FORBIDDEN\") */\n      tag_417\n      jumpi\n      mload(0x40)\n      shl(0xe5, 0x461bcd)\n      dup2\n      mstore\n        /* \"#utility.yul\":8565:8567   */\n      0x20\n        /* \"contracts/LoteStakingManager.sol\":15166:15227  require(msg.sender == devAddress, \"setDevAddress: FORBIDDEN\") */\n      0x04\n      dup3\n      add\n        /* \"#utility.yul\":8547:8568   */\n      mstore\n        /* \"#utility.yul\":8604:8606   */\n      0x18\n        /* \"#utility.yul\":8584:8602   */\n      0x24\n      dup3\n      add\n        /* \"#utility.yul\":8577:8607   */\n      mstore\n        /* \"#utility.yul\":8643:8669   */\n      0x736574446576416464726573733a20464f5242494444454e0000000000000000\n        /* \"#utility.yul\":8623:8641   */\n      0x44\n      dup3\n      add\n        /* \"#utility.yul\":8616:8670   */\n      mstore\n        /* \"#utility.yul\":8687:8705   */\n      0x64\n      add\n        /* \"contracts/LoteStakingManager.sol\":15166:15227  require(msg.sender == devAddress, \"setDevAddress: FORBIDDEN\") */\n      tag_181\n        /* \"#utility.yul\":8363:8711   */\n      jump\n        /* \"contracts/LoteStakingManager.sol\":15166:15227  require(msg.sender == devAddress, \"setDevAddress: FORBIDDEN\") */\n    tag_417:\n      sub(shl(0xa0, 0x01), 0x01)\n        /* \"contracts/LoteStakingManager.sol\":15246:15271  _devAddress != address(0) */\n      dup2\n      and\n        /* \"contracts/LoteStakingManager.sol\":15238:15295  require(_devAddress != address(0), \"setDevAddress: ZERO\") */\n      tag_420\n      jumpi\n      mload(0x40)\n      shl(0xe5, 0x461bcd)\n      dup2\n      mstore\n        /* \"#utility.yul\":9325:9327   */\n      0x20\n        /* \"contracts/LoteStakingManager.sol\":15238:15295  require(_devAddress != address(0), \"setDevAddress: ZERO\") */\n      0x04\n      dup3\n      add\n        /* \"#utility.yul\":9307:9328   */\n      mstore\n        /* \"#utility.yul\":9364:9366   */\n      0x13\n        /* \"#utility.yul\":9344:9362   */\n      0x24\n      dup3\n      add\n        /* \"#utility.yul\":9337:9367   */\n      mstore\n      shl(0x68, 0x736574446576416464726573733a205a45524f)\n        /* \"#utility.yul\":9383:9401   */\n      0x44\n      dup3\n      add\n        /* \"#utility.yul\":9376:9425   */\n      mstore\n        /* \"#utility.yul\":9442:9460   */\n      0x64\n      add\n        /* \"contracts/LoteStakingManager.sol\":15238:15295  require(_devAddress != address(0), \"setDevAddress: ZERO\") */\n      tag_181\n        /* \"#utility.yul\":9123:9466   */\n      jump\n        /* \"contracts/LoteStakingManager.sol\":15238:15295  require(_devAddress != address(0), \"setDevAddress: ZERO\") */\n    tag_420:\n        /* \"contracts/LoteStakingManager.sol\":15306:15316  devAddress */\n      0x04\n        /* \"contracts/LoteStakingManager.sol\":15306:15330  devAddress = _devAddress */\n      dup1\n      sload\n      not(sub(shl(0xa0, 0x01), 0x01))\n      and\n      sub(shl(0xa0, 0x01), 0x01)\n      swap3\n      swap1\n      swap3\n      and\n      swap2\n      swap1\n      swap2\n      or\n      swap1\n      sstore\n        /* \"contracts/LoteStakingManager.sol\":15104:15338  function setDevAddress(address _devAddress) public {\r... */\n      jump\t// out\n        /* \"@openzeppelin/contracts/access/Ownable.sol\":1918:2116  function transferOwnership(address newOwner) public virtual onlyOwner {... */\n    tag_174:\n        /* \"@openzeppelin/contracts/access/Ownable.sol\":1082:1089  address */\n      0x00\n        /* \"@openzeppelin/contracts/access/Ownable.sol\":1108:1114  _owner */\n      sload\n      sub(shl(0xa0, 0x01), 0x01)\n      and\n        /* \"@openzeppelin/contracts/utils/Context.sol\":719:729  msg.sender */\n      caller\n        /* \"@openzeppelin/contracts/access/Ownable.sol\":1248:1271  owner() == _msgSender() */\n      eq\n        /* \"@openzeppelin/contracts/access/Ownable.sol\":1240:1308  require(owner() == _msgSender(), \"Ownable: caller is not the owner\") */\n      tag_426\n      jumpi\n      mload(0x40)\n      shl(0xe5, 0x461bcd)\n      dup2\n      mstore\n      0x04\n      add\n      tag_181\n      swap1\n      tag_182\n      jump\t// in\n    tag_426:\n      sub(shl(0xa0, 0x01), 0x01)\n        /* \"@openzeppelin/contracts/access/Ownable.sol\":2006:2028  newOwner != address(0) */\n      dup2\n      and\n        /* \"@openzeppelin/contracts/access/Ownable.sol\":1998:2071  require(newOwner != address(0), \"Ownable: new owner is the zero address\") */\n      tag_429\n      jumpi\n      mload(0x40)\n      shl(0xe5, 0x461bcd)\n      dup2\n      mstore\n        /* \"#utility.yul\":8918:8920   */\n      0x20\n        /* \"@openzeppelin/contracts/access/Ownable.sol\":1998:2071  require(newOwner != address(0), \"Ownable: new owner is the zero address\") */\n      0x04\n      dup3\n      add\n        /* \"#utility.yul\":8900:8921   */\n      mstore\n        /* \"#utility.yul\":8957:8959   */\n      0x26\n        /* \"#utility.yul\":8937:8955   */\n      0x24\n      dup3\n      add\n        /* \"#utility.yul\":8930:8960   */\n      mstore\n        /* \"#utility.yul\":8996:9030   */\n      0x4f776e61626c653a206e6577206f776e657220697320746865207a65726f2061\n        /* \"#utility.yul\":8976:8994   */\n      0x44\n      dup3\n      add\n        /* \"#utility.yul\":8969:9031   */\n      mstore\n      shl(0xd0, 0x646472657373)\n        /* \"#utility.yul\":9047:9065   */\n      0x64\n      dup3\n      add\n        /* \"#utility.yul\":9040:9076   */\n      mstore\n        /* \"#utility.yul\":9093:9112   */\n      0x84\n      add\n        /* \"@openzeppelin/contracts/access/Ownable.sol\":1998:2071  require(newOwner != address(0), \"Ownable: new owner is the zero address\") */\n      tag_181\n        /* \"#utility.yul\":8716:9118   */\n      jump\n        /* \"@openzeppelin/contracts/access/Ownable.sol\":1998:2071  require(newOwner != address(0), \"Ownable: new owner is the zero address\") */\n    tag_429:\n        /* \"@openzeppelin/contracts/access/Ownable.sol\":2081:2109  _transferOwnership(newOwner) */\n      tag_432\n        /* \"@openzeppelin/contracts/access/Ownable.sol\":2100:2108  newOwner */\n      dup2\n        /* \"@openzeppelin/contracts/access/Ownable.sol\":2081:2099  _transferOwnership */\n      tag_318\n        /* \"@openzeppelin/contracts/access/Ownable.sol\":2081:2109  _transferOwnership(newOwner) */\n      jump\t// in\n    tag_432:\n        /* \"@openzeppelin/contracts/access/Ownable.sol\":1918:2116  function transferOwnership(address newOwner) public virtual onlyOwner {... */\n      pop\n      jump\t// out\n        /* \"@openzeppelin/contracts/utils/math/SafeMath.sol\":3122:3218  function sub(uint256 a, uint256 b) internal pure returns (uint256) {... */\n    tag_209:\n        /* \"@openzeppelin/contracts/utils/math/SafeMath.sol\":3180:3187  uint256 */\n      0x00\n        /* \"@openzeppelin/contracts/utils/math/SafeMath.sol\":3206:3211  a - b */\n      tag_328\n        /* \"@openzeppelin/contracts/utils/math/SafeMath.sol\":3210:3211  b */\n      dup3\n        /* \"@openzeppelin/contracts/utils/math/SafeMath.sol\":3206:3207  a */\n      dup5\n        /* \"@openzeppelin/contracts/utils/math/SafeMath.sol\":3206:3211  a - b */\n      tag_436\n      jump\t// in\n        /* \"@openzeppelin/contracts/utils/math/SafeMath.sol\":2755:2851  function add(uint256 a, uint256 b) internal pure returns (uint256) {... */\n    tag_210:\n        /* \"@openzeppelin/contracts/utils/math/SafeMath.sol\":2813:2820  uint256 */\n      0x00\n        /* \"@openzeppelin/contracts/utils/math/SafeMath.sol\":2839:2844  a + b */\n      tag_328\n        /* \"@openzeppelin/contracts/utils/math/SafeMath.sol\":2843:2844  b */\n      dup3\n        /* \"@openzeppelin/contracts/utils/math/SafeMath.sol\":2839:2840  a */\n      dup5\n        /* \"@openzeppelin/contracts/utils/math/SafeMath.sol\":2839:2844  a + b */\n      tag_439\n      jump\t// in\n        /* \"contracts/LoteStakingManager.sol\":13233:14623  function payOrLockupPendingPosition(uint256 _pid) internal {\r... */\n    tag_240:\n        /* \"contracts/LoteStakingManager.sol\":13303:13324  PoolInfo storage pool */\n      0x00\n        /* \"contracts/LoteStakingManager.sol\":13327:13335  poolInfo */\n      0x07\n        /* \"contracts/LoteStakingManager.sol\":13336:13340  _pid */\n      dup3\n        /* \"contracts/LoteStakingManager.sol\":13327:13341  poolInfo[_pid] */\n      dup2\n      sload\n      dup2\n      lt\n      tag_442\n      jumpi\n      tag_442\n      tag_207\n      jump\t// in\n    tag_442:\n      0x00\n      swap2\n      dup3\n      mstore\n      0x20\n      dup1\n      dup4\n      keccak256\n        /* \"contracts/LoteStakingManager.sol\":13376:13390  userInfo[_pid] */\n      dup6\n      dup5\n      mstore\n        /* \"contracts/LoteStakingManager.sol\":13376:13384  userInfo */\n      0x08\n        /* \"contracts/LoteStakingManager.sol\":13376:13390  userInfo[_pid] */\n      dup3\n      mstore\n      0x40\n      dup1\n      dup6\n      keccak256\n        /* \"contracts/LoteStakingManager.sol\":13391:13401  msg.sender */\n      caller\n        /* \"contracts/LoteStakingManager.sol\":13376:13402  userInfo[_pid][msg.sender] */\n      dup7\n      mstore\n      swap1\n      swap3\n      mstore\n      swap3\n      keccak256\n        /* \"contracts/LoteStakingManager.sol\":13419:13440  user.nextHarvestUntil */\n      0x03\n      dup2\n      add\n      sload\n        /* \"contracts/LoteStakingManager.sol\":13327:13341  poolInfo[_pid] */\n      0x06\n      swap1\n      swap3\n      mul\n      swap1\n      swap3\n      add\n      swap3\n      pop\n        /* \"contracts/LoteStakingManager.sol\":13415:13539  if (user.nextHarvestUntil == 0) {\r... */\n      tag_444\n      jumpi\n        /* \"contracts/LoteStakingManager.sol\":13506:13526  pool.harvestInterval */\n      0x05\n      dup3\n      add\n      sload\n        /* \"contracts/LoteStakingManager.sol\":13486:13527  block.timestamp.add(pool.harvestInterval) */\n      tag_445\n      swap1\n        /* \"contracts/LoteStakingManager.sol\":13486:13501  block.timestamp */\n      timestamp\n      swap1\n        /* \"contracts/LoteStakingManager.sol\":13486:13505  block.timestamp.add */\n      tag_210\n        /* \"contracts/LoteStakingManager.sol\":13486:13527  block.timestamp.add(pool.harvestInterval) */\n      jump\t// in\n    tag_445:\n        /* \"contracts/LoteStakingManager.sol\":13462:13483  user.nextHarvestUntil */\n      0x03\n      dup3\n      add\n        /* \"contracts/LoteStakingManager.sol\":13462:13527  user.nextHarvestUntil = block.timestamp.add(pool.harvestInterval) */\n      sstore\n        /* \"contracts/LoteStakingManager.sol\":13415:13539  if (user.nextHarvestUntil == 0) {\r... */\n    tag_444:\n        /* \"contracts/LoteStakingManager.sol\":13551:13566  uint256 pending */\n      0x00\n        /* \"contracts/LoteStakingManager.sol\":13569:13681  user\r... */\n      tag_446\n        /* \"contracts/LoteStakingManager.sol\":13665:13669  user */\n      dup3\n        /* \"contracts/LoteStakingManager.sol\":13665:13680  user.rewardDebt */\n      0x01\n      add\n      sload\n        /* \"contracts/LoteStakingManager.sol\":13569:13650  user\r... */\n      tag_370\n        /* \"contracts/LoteStakingManager.sol\":13645:13649  1e12 */\n      0xe8d4a51000\n        /* \"contracts/LoteStakingManager.sol\":13569:13630  user\r... */\n      tag_246\n        /* \"contracts/LoteStakingManager.sol\":13605:13609  pool */\n      dup8\n        /* \"contracts/LoteStakingManager.sol\":13605:13629  pool.accPositionPerShare */\n      0x03\n      add\n      sload\n        /* \"contracts/LoteStakingManager.sol\":13569:13573  user */\n      dup8\n        /* \"contracts/LoteStakingManager.sol\":13569:13590  user\r... */\n      0x00\n      add\n      sload\n        /* \"contracts/LoteStakingManager.sol\":13569:13604  user\r... */\n      tag_247\n      swap1\n        /* \"contracts/LoteStakingManager.sol\":13569:13630  user\r... */\n      swap2\n      swap1\n      0xffffffff\n      and\n      jump\t// in\n        /* \"contracts/LoteStakingManager.sol\":13569:13681  user\r... */\n    tag_446:\n        /* \"contracts/LoteStakingManager.sol\":8793:8797  bool */\n      0x00\n        /* \"contracts/LoteStakingManager.sol\":8839:8853  userInfo[_pid] */\n      dup6\n      dup2\n      mstore\n        /* \"contracts/LoteStakingManager.sol\":8839:8847  userInfo */\n      0x08\n        /* \"contracts/LoteStakingManager.sol\":8839:8853  userInfo[_pid] */\n      0x20\n      swap1\n      dup2\n      mstore\n      0x40\n      dup1\n      dup4\n      keccak256\n        /* \"contracts/LoteStakingManager.sol\":13713:13723  msg.sender */\n      caller\n        /* \"contracts/LoteStakingManager.sol\":8839:8860  userInfo[_pid][_user] */\n      dup5\n      mstore\n      swap1\n      swap2\n      mstore\n      swap1\n      keccak256\n        /* \"contracts/LoteStakingManager.sol\":8897:8918  user.nextHarvestUntil */\n      0x03\n      add\n      sload\n        /* \"contracts/LoteStakingManager.sol\":13551:13681  uint256 pending = user\r... */\n      swap1\n      swap2\n      pop\n        /* \"contracts/LoteStakingManager.sol\":8878:8893  block.timestamp */\n      timestamp\n        /* \"contracts/LoteStakingManager.sol\":8878:8918  block.timestamp >= user.nextHarvestUntil */\n      lt\n        /* \"contracts/LoteStakingManager.sol\":13692:14616  if (canHarvest(_pid, msg.sender)) {\r... */\n      tag_450\n      jumpi\n        /* \"contracts/LoteStakingManager.sol\":13755:13756  0 */\n      0x00\n        /* \"contracts/LoteStakingManager.sol\":13745:13752  pending */\n      dup2\n        /* \"contracts/LoteStakingManager.sol\":13745:13756  pending > 0 */\n      gt\n        /* \"contracts/LoteStakingManager.sol\":13745:13783  pending > 0 || user.rewardLockedUp > 0 */\n      dup1\n      tag_451\n      jumpi\n      pop\n        /* \"contracts/LoteStakingManager.sol\":13782:13783  0 */\n      0x00\n        /* \"contracts/LoteStakingManager.sol\":13760:13764  user */\n      dup3\n        /* \"contracts/LoteStakingManager.sol\":13760:13779  user.rewardLockedUp */\n      0x02\n      add\n      sload\n        /* \"contracts/LoteStakingManager.sol\":13760:13783  user.rewardLockedUp > 0 */\n      gt\n        /* \"contracts/LoteStakingManager.sol\":13745:13783  pending > 0 || user.rewardLockedUp > 0 */\n    tag_451:\n        /* \"contracts/LoteStakingManager.sol\":13741:14369  if (pending > 0 || user.rewardLockedUp > 0) {\r... */\n      iszero\n      tag_452\n      jumpi\n        /* \"contracts/LoteStakingManager.sol\":13804:13824  uint256 totalRewards */\n      0x00\n        /* \"contracts/LoteStakingManager.sol\":13827:13859  pending.add(user.rewardLockedUp) */\n      tag_453\n        /* \"contracts/LoteStakingManager.sol\":13839:13843  user */\n      dup4\n        /* \"contracts/LoteStakingManager.sol\":13839:13858  user.rewardLockedUp */\n      0x02\n      add\n      sload\n        /* \"contracts/LoteStakingManager.sol\":13827:13834  pending */\n      dup4\n        /* \"contracts/LoteStakingManager.sol\":13827:13838  pending.add */\n      tag_210\n      swap1\n        /* \"contracts/LoteStakingManager.sol\":13827:13859  pending.add(user.rewardLockedUp) */\n      swap2\n      swap1\n      0xffffffff\n      and\n      jump\t// in\n    tag_453:\n        /* \"contracts/LoteStakingManager.sol\":13804:13859  uint256 totalRewards = pending.add(user.rewardLockedUp) */\n      swap1\n      pop\n        /* \"contracts/LoteStakingManager.sol\":13936:14021  totalLockedUpRewards.sub(\r... */\n      tag_454\n        /* \"contracts/LoteStakingManager.sol\":13983:13987  user */\n      dup4\n        /* \"contracts/LoteStakingManager.sol\":13983:14002  user.rewardLockedUp */\n      0x02\n      add\n      sload\n        /* \"contracts/LoteStakingManager.sol\":13936:13956  totalLockedUpRewards */\n      sload(0x0b)\n        /* \"contracts/LoteStakingManager.sol\":13936:13960  totalLockedUpRewards.sub */\n      tag_209\n      swap1\n        /* \"contracts/LoteStakingManager.sol\":13936:14021  totalLockedUpRewards.sub(\r... */\n      swap2\n      swap1\n      0xffffffff\n      and\n      jump\t// in\n    tag_454:\n        /* \"contracts/LoteStakingManager.sol\":13913:13933  totalLockedUpRewards */\n      0x0b\n        /* \"contracts/LoteStakingManager.sol\":13913:14021  totalLockedUpRewards = totalLockedUpRewards.sub(\r... */\n      sstore\n        /* \"contracts/LoteStakingManager.sol\":14062:14063  0 */\n      0x00\n        /* \"contracts/LoteStakingManager.sol\":14040:14059  user.rewardLockedUp */\n      0x02\n      dup5\n      add\n        /* \"contracts/LoteStakingManager.sol\":14040:14063  user.rewardLockedUp = 0 */\n      sstore\n        /* \"contracts/LoteStakingManager.sol\":14148:14168  pool.harvestInterval */\n      0x05\n      dup5\n      add\n      sload\n        /* \"contracts/LoteStakingManager.sol\":14106:14187  block.timestamp.add(\r... */\n      tag_455\n      swap1\n        /* \"contracts/LoteStakingManager.sol\":14106:14121  block.timestamp */\n      timestamp\n      swap1\n        /* \"contracts/LoteStakingManager.sol\":14106:14125  block.timestamp.add */\n      tag_210\n        /* \"contracts/LoteStakingManager.sol\":14106:14187  block.timestamp.add(\r... */\n      jump\t// in\n    tag_455:\n        /* \"contracts/LoteStakingManager.sol\":14082:14103  user.nextHarvestUntil */\n      0x03\n      dup5\n      add\n        /* \"contracts/LoteStakingManager.sol\":14082:14187  user.nextHarvestUntil = block.timestamp.add(\r... */\n      sstore\n        /* \"contracts/LoteStakingManager.sol\":14241:14287  safePositionTransfer(msg.sender, totalRewards) */\n      tag_456\n        /* \"contracts/LoteStakingManager.sol\":14262:14272  msg.sender */\n      caller\n        /* \"contracts/LoteStakingManager.sol\":14274:14286  totalRewards */\n      dup3\n        /* \"contracts/LoteStakingManager.sol\":14241:14261  safePositionTransfer */\n      tag_457\n        /* \"contracts/LoteStakingManager.sol\":14241:14287  safePositionTransfer(msg.sender, totalRewards) */\n      jump\t// in\n    tag_456:\n        /* \"contracts/LoteStakingManager.sol\":14306:14353  payReferralCommission(msg.sender, totalRewards) */\n      tag_458\n        /* \"contracts/LoteStakingManager.sol\":14328:14338  msg.sender */\n      caller\n        /* \"contracts/LoteStakingManager.sol\":14340:14352  totalRewards */\n      dup3\n        /* \"contracts/LoteStakingManager.sol\":14306:14327  payReferralCommission */\n      tag_459\n        /* \"contracts/LoteStakingManager.sol\":14306:14353  payReferralCommission(msg.sender, totalRewards) */\n      jump\t// in\n    tag_458:\n        /* \"contracts/LoteStakingManager.sol\":13785:14369  {\r... */\n      pop\n        /* \"contracts/LoteStakingManager.sol\":13741:14369  if (pending > 0 || user.rewardLockedUp > 0) {\r... */\n    tag_452:\n        /* \"contracts/LoteStakingManager.sol\":13692:14616  if (canHarvest(_pid, msg.sender)) {\r... */\n      jump(tag_461)\n    tag_450:\n        /* \"contracts/LoteStakingManager.sol\":14390:14401  pending > 0 */\n      dup1\n      iszero\n        /* \"contracts/LoteStakingManager.sol\":14386:14616  if (pending > 0) {\r... */\n      tag_461\n      jumpi\n        /* \"contracts/LoteStakingManager.sol\":14440:14459  user.rewardLockedUp */\n      0x02\n      dup3\n      add\n      sload\n        /* \"contracts/LoteStakingManager.sol\":14440:14472  user.rewardLockedUp.add(pending) */\n      tag_462\n      swap1\n        /* \"contracts/LoteStakingManager.sol\":14464:14471  pending */\n      dup3\n        /* \"contracts/LoteStakingManager.sol\":14440:14463  user.rewardLockedUp.add */\n      tag_210\n        /* \"contracts/LoteStakingManager.sol\":14440:14472  user.rewardLockedUp.add(pending) */\n      jump\t// in\n    tag_462:\n        /* \"contracts/LoteStakingManager.sol\":14418:14437  user.rewardLockedUp */\n      0x02\n      dup4\n      add\n        /* \"contracts/LoteStakingManager.sol\":14418:14472  user.rewardLockedUp = user.rewardLockedUp.add(pending) */\n      sstore\n        /* \"contracts/LoteStakingManager.sol\":14510:14530  totalLockedUpRewards */\n      sload(0x0b)\n        /* \"contracts/LoteStakingManager.sol\":14510:14543  totalLockedUpRewards.add(pending) */\n      tag_463\n      swap1\n        /* \"contracts/LoteStakingManager.sol\":14535:14542  pending */\n      dup3\n        /* \"contracts/LoteStakingManager.sol\":14510:14534  totalLockedUpRewards.add */\n      tag_210\n        /* \"contracts/LoteStakingManager.sol\":14510:14543  totalLockedUpRewards.add(pending) */\n      jump\t// in\n    tag_463:\n        /* \"contracts/LoteStakingManager.sol\":14487:14507  totalLockedUpRewards */\n      0x0b\n        /* \"contracts/LoteStakingManager.sol\":14487:14543  totalLockedUpRewards = totalLockedUpRewards.add(pending) */\n      sstore\n        /* \"contracts/LoteStakingManager.sol\":14563:14604  RewardLockedUp(msg.sender, _pid, pending) */\n      mload(0x40)\n        /* \"#utility.yul\":14221:14246   */\n      dup2\n      dup2\n      mstore\n        /* \"contracts/LoteStakingManager.sol\":14590:14594  _pid */\n      dup5\n      swap1\n        /* \"contracts/LoteStakingManager.sol\":14578:14588  msg.sender */\n      caller\n      swap1\n        /* \"contracts/LoteStakingManager.sol\":14563:14604  RewardLockedUp(msg.sender, _pid, pending) */\n      0xee470483107f579a55c754fa00613c45a9a3b617a418b39cb0be97e5381ba7c1\n      swap1\n        /* \"#utility.yul\":14209:14211   */\n      0x20\n        /* \"#utility.yul\":14194:14212   */\n      add\n        /* \"contracts/LoteStakingManager.sol\":14563:14604  RewardLockedUp(msg.sender, _pid, pending) */\n    tag_464:\n      mload(0x40)\n      dup1\n      swap2\n      sub\n      swap1\n      log3\n        /* \"contracts/LoteStakingManager.sol\":14386:14616  if (pending > 0) {\r... */\n    tag_461:\n        /* \"contracts/LoteStakingManager.sol\":13292:14623  {\r... */\n      pop\n      pop\n      pop\n        /* \"contracts/LoteStakingManager.sol\":13233:14623  function payOrLockupPendingPosition(uint256 _pid) internal {\r... */\n      pop\n      jump\t// out\n        /* \"@openzeppelin/contracts/token/ERC20/utils/SafeERC20.sol\":701:906  function safeTransfer(... */\n    tag_244:\n        /* \"@openzeppelin/contracts/token/ERC20/utils/SafeERC20.sol\":840:898  abi.encodeWithSelector(token.transfer.selector, to, value) */\n      0x40\n      dup1\n      mload\n      sub(shl(0xa0, 0x01), 0x01)\n        /* \"#utility.yul\":5525:5557   */\n      dup5\n      and\n        /* \"@openzeppelin/contracts/token/ERC20/utils/SafeERC20.sol\":840:898  abi.encodeWithSelector(token.transfer.selector, to, value) */\n      0x24\n      dup3\n      add\n        /* \"#utility.yul\":5507:5558   */\n      mstore\n        /* \"#utility.yul\":5574:5592   */\n      0x44\n      dup1\n      dup3\n      add\n        /* \"#utility.yul\":5567:5601   */\n      dup5\n      swap1\n      mstore\n        /* \"@openzeppelin/contracts/token/ERC20/utils/SafeERC20.sol\":840:898  abi.encodeWithSelector(token.transfer.selector, to, value) */\n      dup3\n      mload\n      dup1\n      dup4\n      sub\n      swap1\n      swap2\n      add\n      dup2\n      mstore\n        /* \"#utility.yul\":5480:5498   */\n      0x64\n      swap1\n      swap2\n      add\n        /* \"@openzeppelin/contracts/token/ERC20/utils/SafeERC20.sol\":840:898  abi.encodeWithSelector(token.transfer.selector, to, value) */\n      swap1\n      swap2\n      mstore\n      0x20\n      dup2\n      add\n      dup1\n      mload\n      sub(shl(0xe0, 0x01), 0x01)\n      and\n      shl(0xe0, 0xa9059cbb)\n      or\n      swap1\n      mstore\n        /* \"@openzeppelin/contracts/token/ERC20/utils/SafeERC20.sol\":813:899  _callOptionalReturn(token, abi.encodeWithSelector(token.transfer.selector, to, value)) */\n      tag_466\n      swap1\n        /* \"@openzeppelin/contracts/token/ERC20/utils/SafeERC20.sol\":833:838  token */\n      dup5\n      swap1\n        /* \"@openzeppelin/contracts/token/ERC20/utils/SafeERC20.sol\":813:832  _callOptionalReturn */\n      tag_468\n        /* \"@openzeppelin/contracts/token/ERC20/utils/SafeERC20.sol\":813:899  _callOptionalReturn(token, abi.encodeWithSelector(token.transfer.selector, to, value)) */\n      jump\t// in\n    tag_466:\n        /* \"@openzeppelin/contracts/token/ERC20/utils/SafeERC20.sol\":701:906  function safeTransfer(... */\n      pop\n      pop\n      pop\n      jump\t// out\n        /* \"@openzeppelin/contracts/utils/math/SafeMath.sol\":3465:3561  function mul(uint256 a, uint256 b) internal pure returns (uint256) {... */\n    tag_247:\n        /* \"@openzeppelin/contracts/utils/math/SafeMath.sol\":3523:3530  uint256 */\n      0x00\n        /* \"@openzeppelin/contracts/utils/math/SafeMath.sol\":3549:3554  a * b */\n      tag_328\n        /* \"@openzeppelin/contracts/utils/math/SafeMath.sol\":3553:3554  b */\n      dup3\n        /* \"@openzeppelin/contracts/utils/math/SafeMath.sol\":3549:3550  a */\n      dup5\n        /* \"@openzeppelin/contracts/utils/math/SafeMath.sol\":3549:3554  a * b */\n      tag_471\n      jump\t// in\n        /* \"@openzeppelin/contracts/utils/math/SafeMath.sol\":3850:3946  function div(uint256 a, uint256 b) internal pure returns (uint256) {... */\n    tag_248:\n        /* \"@openzeppelin/contracts/utils/math/SafeMath.sol\":3908:3915  uint256 */\n      0x00\n        /* \"@openzeppelin/contracts/utils/math/SafeMath.sol\":3934:3939  a / b */\n      tag_328\n        /* \"@openzeppelin/contracts/utils/math/SafeMath.sol\":3938:3939  b */\n      dup3\n        /* \"@openzeppelin/contracts/utils/math/SafeMath.sol\":3934:3935  a */\n      dup5\n        /* \"@openzeppelin/contracts/utils/math/SafeMath.sol\":3934:3939  a / b */\n      tag_474\n      jump\t// in\n        /* \"@openzeppelin/contracts/access/Ownable.sol\":2270:2457  function _transferOwnership(address newOwner) internal virtual {... */\n    tag_318:\n        /* \"@openzeppelin/contracts/access/Ownable.sol\":2343:2359  address oldOwner */\n      0x00\n        /* \"@openzeppelin/contracts/access/Ownable.sol\":2362:2368  _owner */\n      dup1\n      sload\n      sub(shl(0xa0, 0x01), 0x01)\n        /* \"@openzeppelin/contracts/access/Ownable.sol\":2378:2395  _owner = newOwner */\n      dup4\n      dup2\n      and\n      not(sub(shl(0xa0, 0x01), 0x01))\n      dup4\n      and\n      dup2\n      or\n      dup5\n      sstore\n        /* \"@openzeppelin/contracts/access/Ownable.sol\":2410:2450  OwnershipTransferred(oldOwner, newOwner) */\n      mload(0x40)\n        /* \"@openzeppelin/contracts/access/Ownable.sol\":2362:2368  _owner */\n      swap2\n      swap1\n      swap3\n      and\n      swap3\n      dup4\n      swap2\n        /* \"@openzeppelin/contracts/access/Ownable.sol\":2410:2450  OwnershipTransferred(oldOwner, newOwner) */\n      0x8be0079c531659141344cd1fd0a4f28419497f9722a3daafe3b4186f6b6457e0\n      swap2\n        /* \"@openzeppelin/contracts/access/Ownable.sol\":2343:2359  address oldOwner */\n      swap1\n        /* \"@openzeppelin/contracts/access/Ownable.sol\":2410:2450  OwnershipTransferred(oldOwner, newOwner) */\n      log3\n        /* \"@openzeppelin/contracts/access/Ownable.sol\":2333:2457  {... */\n      pop\n        /* \"@openzeppelin/contracts/access/Ownable.sol\":2270:2457  function _transferOwnership(address newOwner) internal virtual {... */\n      pop\n      jump\t// out\n        /* \"contracts/LoteStakingManager.sol\":14745:15048  function safePositionTransfer(address _to, uint256 _amount) internal {\r... */\n    tag_457:\n        /* \"contracts/LoteStakingManager.sol\":14847:14854  lottery */\n      sload(0x02)\n        /* \"contracts/LoteStakingManager.sol\":14847:14879  lottery.balanceOf(address(this)) */\n      mload(0x40)\n      shl(0xe0, 0x70a08231)\n      dup2\n      mstore\n        /* \"contracts/LoteStakingManager.sol\":14873:14877  this */\n      address\n        /* \"contracts/LoteStakingManager.sol\":14847:14879  lottery.balanceOf(address(this)) */\n      0x04\n      dup3\n      add\n        /* \"#utility.yul\":4582:4633   */\n      mstore\n        /* \"contracts/LoteStakingManager.sol\":14825:14844  uint256 positionBal */\n      0x00\n      swap2\n      sub(shl(0xa0, 0x01), 0x01)\n        /* \"contracts/LoteStakingManager.sol\":14847:14854  lottery */\n      and\n      swap1\n        /* \"contracts/LoteStakingManager.sol\":14847:14864  lottery.balanceOf */\n      0x70a08231\n      swap1\n        /* \"#utility.yul\":4555:4573   */\n      0x24\n      add\n        /* \"contracts/LoteStakingManager.sol\":14847:14879  lottery.balanceOf(address(this)) */\n      0x20\n      mload(0x40)\n      dup1\n      dup4\n      sub\n      dup2\n      dup7\n      dup1\n      extcodesize\n      iszero\n      dup1\n      iszero\n      tag_478\n      jumpi\n      0x00\n      dup1\n      revert\n    tag_478:\n      pop\n      gas\n      staticcall\n      iszero\n      dup1\n      iszero\n      tag_480\n      jumpi\n      returndatasize\n      0x00\n      dup1\n      returndatacopy\n      revert(0x00, returndatasize)\n    tag_480:\n      pop\n      pop\n      pop\n      pop\n      mload(0x40)\n      returndatasize\n      not(0x1f)\n      0x1f\n      dup3\n      add\n      and\n      dup3\n      add\n      dup1\n      0x40\n      mstore\n      pop\n      dup2\n      add\n      swap1\n      tag_481\n      swap2\n      swap1\n      tag_263\n      jump\t// in\n    tag_481:\n        /* \"contracts/LoteStakingManager.sol\":14825:14879  uint256 positionBal = lottery.balanceOf(address(this)) */\n      swap1\n      pop\n        /* \"contracts/LoteStakingManager.sol\":14904:14915  positionBal */\n      dup1\n        /* \"contracts/LoteStakingManager.sol\":14894:14901  _amount */\n      dup3\n        /* \"contracts/LoteStakingManager.sol\":14894:14915  _amount > positionBal */\n      gt\n        /* \"contracts/LoteStakingManager.sol\":14890:15041  if (_amount > positionBal) {\r... */\n      iszero\n      tag_482\n      jumpi\n        /* \"contracts/LoteStakingManager.sol\":14932:14939  lottery */\n      sload(0x02)\n        /* \"contracts/LoteStakingManager.sol\":14932:14966  lottery.transfer(_to, positionBal) */\n      mload(0x40)\n      shl(0xe0, 0xa9059cbb)\n      dup2\n      mstore\n      sub(shl(0xa0, 0x01), 0x01)\n        /* \"#utility.yul\":5525:5557   */\n      dup6\n      dup2\n      and\n        /* \"contracts/LoteStakingManager.sol\":14932:14966  lottery.transfer(_to, positionBal) */\n      0x04\n      dup4\n      add\n        /* \"#utility.yul\":5507:5558   */\n      mstore\n        /* \"#utility.yul\":5574:5592   */\n      0x24\n      dup3\n      add\n        /* \"#utility.yul\":5567:5601   */\n      dup5\n      swap1\n      mstore\n        /* \"contracts/LoteStakingManager.sol\":14932:14939  lottery */\n      swap1\n      swap2\n      and\n      swap1\n        /* \"contracts/LoteStakingManager.sol\":14932:14948  lottery.transfer */\n      0xa9059cbb\n      swap1\n        /* \"#utility.yul\":5480:5498   */\n      0x44\n      add\n        /* \"contracts/LoteStakingManager.sol\":14932:14966  lottery.transfer(_to, positionBal) */\n    tag_483:\n      0x20\n      mload(0x40)\n      dup1\n      dup4\n      sub\n      dup2\n      0x00\n      dup8\n      dup1\n      extcodesize\n      iszero\n      dup1\n      iszero\n      tag_484\n      jumpi\n      0x00\n      dup1\n      revert\n    tag_484:\n      pop\n      gas\n      call\n      iszero\n      dup1\n      iszero\n      tag_486\n      jumpi\n      returndatasize\n      0x00\n      dup1\n      returndatacopy\n      revert(0x00, returndatasize)\n    tag_486:\n      pop\n      pop\n      pop\n      pop\n      mload(0x40)\n      returndatasize\n      not(0x1f)\n      0x1f\n      dup3\n      add\n      and\n      dup3\n      add\n      dup1\n      0x40\n      mstore\n      pop\n      dup2\n      add\n      swap1\n      tag_461\n      swap2\n      swap1\n      tag_355\n      jump\t// in\n        /* \"contracts/LoteStakingManager.sol\":14890:15041  if (_amount > positionBal) {\r... */\n    tag_482:\n        /* \"contracts/LoteStakingManager.sol\":14999:15006  lottery */\n      sload(0x02)\n        /* \"contracts/LoteStakingManager.sol\":14999:15029  lottery.transfer(_to, _amount) */\n      mload(0x40)\n      shl(0xe0, 0xa9059cbb)\n      dup2\n      mstore\n      sub(shl(0xa0, 0x01), 0x01)\n        /* \"#utility.yul\":5525:5557   */\n      dup6\n      dup2\n      and\n        /* \"contracts/LoteStakingManager.sol\":14999:15029  lottery.transfer(_to, _amount) */\n      0x04\n      dup4\n      add\n        /* \"#utility.yul\":5507:5558   */\n      mstore\n        /* \"#utility.yul\":5574:5592   */\n      0x24\n      dup3\n      add\n        /* \"#utility.yul\":5567:5601   */\n      dup6\n      swap1\n      mstore\n        /* \"contracts/LoteStakingManager.sol\":14999:15006  lottery */\n      swap1\n      swap2\n      and\n      swap1\n        /* \"contracts/LoteStakingManager.sol\":14999:15015  lottery.transfer */\n      0xa9059cbb\n      swap1\n        /* \"#utility.yul\":5480:5498   */\n      0x44\n      add\n        /* \"contracts/LoteStakingManager.sol\":14999:15029  lottery.transfer(_to, _amount) */\n      tag_483\n        /* \"#utility.yul\":5333:5607   */\n      jump\n        /* \"contracts/LoteStakingManager.sol\":16686:17618  function payReferralCommission(address _user, uint256 _pending) internal {\r... */\n    tag_459:\n        /* \"contracts/LoteStakingManager.sol\":16796:16811  lotteryReferral */\n      and(sub(shl(0xa0, 0x01), 0x01), sload(0x0d))\n        /* \"contracts/LoteStakingManager.sol\":16788:16826  address(lotteryReferral) != address(0) */\n      iszero\n      dup1\n      iszero\n      swap1\n        /* \"contracts/LoteStakingManager.sol\":16788:16856  address(lotteryReferral) != address(0) && referralCommissionRate > 0 */\n      tag_495\n      jumpi\n      pop\n        /* \"contracts/LoteStakingManager.sol\":16830:16852  referralCommissionRate */\n      sload(0x0d)\n      shl(0xa0, 0x01)\n      swap1\n      div\n      0xffff\n      and\n        /* \"contracts/LoteStakingManager.sol\":16830:16856  referralCommissionRate > 0 */\n      iszero\n      iszero\n        /* \"contracts/LoteStakingManager.sol\":16788:16856  address(lotteryReferral) != address(0) && referralCommissionRate > 0 */\n    tag_495:\n        /* \"contracts/LoteStakingManager.sol\":16770:17611  if (\r... */\n      iszero\n      tag_306\n      jumpi\n        /* \"contracts/LoteStakingManager.sol\":16902:16917  lotteryReferral */\n      sload(0x0d)\n        /* \"contracts/LoteStakingManager.sol\":16902:16936  lotteryReferral.getReferrer(_user) */\n      mload(0x40)\n      shl(0xe0, 0x4a9fefc7)\n      dup2\n      mstore\n      sub(shl(0xa0, 0x01), 0x01)\n        /* \"#utility.yul\":4600:4632   */\n      dup5\n      dup2\n      and\n        /* \"contracts/LoteStakingManager.sol\":16902:16936  lotteryReferral.getReferrer(_user) */\n      0x04\n      dup4\n      add\n        /* \"#utility.yul\":4582:4633   */\n      mstore\n        /* \"contracts/LoteStakingManager.sol\":16883:16899  address referrer */\n      0x00\n      swap3\n        /* \"contracts/LoteStakingManager.sol\":16902:16917  lotteryReferral */\n      and\n      swap1\n        /* \"contracts/LoteStakingManager.sol\":16902:16929  lotteryReferral.getReferrer */\n      0x4a9fefc7\n      swap1\n        /* \"#utility.yul\":4555:4573   */\n      0x24\n      add\n        /* \"contracts/LoteStakingManager.sol\":16902:16936  lotteryReferral.getReferrer(_user) */\n      0x20\n      mload(0x40)\n      dup1\n      dup4\n      sub\n      dup2\n      dup7\n      dup1\n      extcodesize\n      iszero\n      dup1\n      iszero\n      tag_498\n      jumpi\n      0x00\n      dup1\n      revert\n    tag_498:\n      pop\n      gas\n      staticcall\n      iszero\n      dup1\n      iszero\n      tag_500\n      jumpi\n      returndatasize\n      0x00\n      dup1\n      returndatacopy\n      revert(0x00, returndatasize)\n    tag_500:\n      pop\n      pop\n      pop\n      pop\n      mload(0x40)\n      returndatasize\n      not(0x1f)\n      0x1f\n      dup3\n      add\n      and\n      dup3\n      add\n      dup1\n      0x40\n      mstore\n      pop\n      dup2\n      add\n      swap1\n      tag_501\n      swap2\n      swap1\n      tag_502\n      jump\t// in\n    tag_501:\n        /* \"contracts/LoteStakingManager.sol\":16991:17013  referralCommissionRate */\n      sload(0x0d)\n        /* \"contracts/LoteStakingManager.sol\":16883:16936  address referrer = lotteryReferral.getReferrer(_user) */\n      swap1\n      swap2\n      pop\n        /* \"contracts/LoteStakingManager.sol\":16951:16975  uint256 commissionAmount */\n      0x00\n      swap1\n        /* \"contracts/LoteStakingManager.sol\":16978:17057  _pending.mul(referralCommissionRate).div(\r... */\n      tag_503\n      swap1\n        /* \"contracts/LoteStakingManager.sol\":17037:17042  10000 */\n      0x2710\n      swap1\n        /* \"contracts/LoteStakingManager.sol\":16978:17014  _pending.mul(referralCommissionRate) */\n      tag_246\n      swap1\n        /* \"contracts/LoteStakingManager.sol\":16978:16986  _pending */\n      dup7\n      swap1\n      shl(0xa0, 0x01)\n        /* \"contracts/LoteStakingManager.sol\":16991:17013  referralCommissionRate */\n      swap1\n      div\n      0xffff\n      and\n        /* \"contracts/LoteStakingManager.sol\":16978:16990  _pending.mul */\n      tag_247\n        /* \"contracts/LoteStakingManager.sol\":16978:17014  _pending.mul(referralCommissionRate) */\n      jump\t// in\n        /* \"contracts/LoteStakingManager.sol\":16978:17057  _pending.mul(referralCommissionRate).div(\r... */\n    tag_503:\n        /* \"contracts/LoteStakingManager.sol\":16951:17057  uint256 commissionAmount = _pending.mul(referralCommissionRate).div(\r... */\n      swap1\n      pop\n      sub(shl(0xa0, 0x01), 0x01)\n        /* \"contracts/LoteStakingManager.sol\":17078:17100  referrer != address(0) */\n      dup3\n      and\n      iszero\n      dup1\n      iszero\n      swap1\n        /* \"contracts/LoteStakingManager.sol\":17078:17124  referrer != address(0) && commissionAmount > 0 */\n      tag_505\n      jumpi\n      pop\n        /* \"contracts/LoteStakingManager.sol\":17123:17124  0 */\n      0x00\n        /* \"contracts/LoteStakingManager.sol\":17104:17120  commissionAmount */\n      dup2\n        /* \"contracts/LoteStakingManager.sol\":17104:17124  commissionAmount > 0 */\n      gt\n        /* \"contracts/LoteStakingManager.sol\":17078:17124  referrer != address(0) && commissionAmount > 0 */\n    tag_505:\n        /* \"contracts/LoteStakingManager.sol\":17074:17600  if (referrer != address(0) && commissionAmount > 0) {\r... */\n      iszero\n      tag_461\n      jumpi\n        /* \"contracts/LoteStakingManager.sol\":17148:17155  lottery */\n      sload(0x02)\n        /* \"contracts/LoteStakingManager.sol\":17148:17180  lottery.balanceOf(address(this)) */\n      mload(0x40)\n      shl(0xe0, 0x70a08231)\n      dup2\n      mstore\n        /* \"contracts/LoteStakingManager.sol\":17174:17178  this */\n      address\n        /* \"contracts/LoteStakingManager.sol\":17148:17180  lottery.balanceOf(address(this)) */\n      0x04\n      dup3\n      add\n        /* \"#utility.yul\":4582:4633   */\n      mstore\n        /* \"contracts/LoteStakingManager.sol\":17183:17199  commissionAmount */\n      dup3\n      swap2\n      sub(shl(0xa0, 0x01), 0x01)\n        /* \"contracts/LoteStakingManager.sol\":17148:17155  lottery */\n      and\n      swap1\n        /* \"contracts/LoteStakingManager.sol\":17148:17165  lottery.balanceOf */\n      0x70a08231\n      swap1\n        /* \"#utility.yul\":4555:4573   */\n      0x24\n      add\n        /* \"contracts/LoteStakingManager.sol\":17148:17180  lottery.balanceOf(address(this)) */\n      0x20\n      mload(0x40)\n      dup1\n      dup4\n      sub\n      dup2\n      dup7\n      dup1\n      extcodesize\n      iszero\n      dup1\n      iszero\n      tag_508\n      jumpi\n      0x00\n      dup1\n      revert\n    tag_508:\n      pop\n      gas\n      staticcall\n      iszero\n      dup1\n      iszero\n      tag_510\n      jumpi\n      returndatasize\n      0x00\n      dup1\n      returndatacopy\n      revert(0x00, returndatasize)\n    tag_510:\n      pop\n      pop\n      pop\n      pop\n      mload(0x40)\n      returndatasize\n      not(0x1f)\n      0x1f\n      dup3\n      add\n      and\n      dup3\n      add\n      dup1\n      0x40\n      mstore\n      pop\n      dup2\n      add\n      swap1\n      tag_511\n      swap2\n      swap1\n      tag_263\n      jump\t// in\n    tag_511:\n        /* \"contracts/LoteStakingManager.sol\":17148:17199  lottery.balanceOf(address(this)) < commissionAmount */\n      lt\n        /* \"contracts/LoteStakingManager.sol\":17145:17293  if(lottery.balanceOf(address(this)) < commissionAmount){\r... */\n      iszero\n      tag_512\n      jumpi\n        /* \"contracts/LoteStakingManager.sol\":17223:17235  loteTreasury */\n      sload(0x03)\n        /* \"contracts/LoteStakingManager.sol\":17223:17273  loteTreasury.mint(address(this), commissionAmount) */\n      mload(0x40)\n      shl(0xe0, 0x40c10f19)\n      dup2\n      mstore\n        /* \"contracts/LoteStakingManager.sol\":17249:17253  this */\n      address\n        /* \"contracts/LoteStakingManager.sol\":17223:17273  loteTreasury.mint(address(this), commissionAmount) */\n      0x04\n      dup3\n      add\n        /* \"#utility.yul\":5507:5558   */\n      mstore\n        /* \"#utility.yul\":5574:5592   */\n      0x24\n      dup2\n      add\n        /* \"#utility.yul\":5567:5601   */\n      dup4\n      swap1\n      mstore\n      sub(shl(0xa0, 0x01), 0x01)\n        /* \"contracts/LoteStakingManager.sol\":17223:17235  loteTreasury */\n      swap1\n      swap2\n      and\n      swap1\n        /* \"contracts/LoteStakingManager.sol\":17223:17240  loteTreasury.mint */\n      0x40c10f19\n      swap1\n        /* \"#utility.yul\":5480:5498   */\n      0x44\n      add\n        /* \"contracts/LoteStakingManager.sol\":17223:17273  loteTreasury.mint(address(this), commissionAmount) */\n      0x00\n      mload(0x40)\n      dup1\n      dup4\n      sub\n      dup2\n      0x00\n      dup8\n      dup1\n      extcodesize\n      iszero\n      dup1\n      iszero\n      tag_514\n      jumpi\n      0x00\n      dup1\n      revert\n    tag_514:\n      pop\n      gas\n      call\n      iszero\n      dup1\n      iszero\n      tag_516\n      jumpi\n      returndatasize\n      0x00\n      dup1\n      returndatacopy\n      revert(0x00, returndatasize)\n    tag_516:\n      pop\n      pop\n      pop\n      pop\n        /* \"contracts/LoteStakingManager.sol\":17145:17293  if(lottery.balanceOf(address(this)) < commissionAmount){\r... */\n    tag_512:\n        /* \"contracts/LoteStakingManager.sol\":17311:17318  lottery */\n      sload(0x02)\n        /* \"contracts/LoteStakingManager.sol\":17311:17355  lottery.transfer(referrer, commissionAmount) */\n      mload(0x40)\n      shl(0xe0, 0xa9059cbb)\n      dup2\n      mstore\n      sub(shl(0xa0, 0x01), 0x01)\n        /* \"#utility.yul\":5525:5557   */\n      dup5\n      dup2\n      and\n        /* \"contracts/LoteStakingManager.sol\":17311:17355  lottery.transfer(referrer, commissionAmount) */\n      0x04\n      dup4\n      add\n        /* \"#utility.yul\":5507:5558   */\n      mstore\n        /* \"#utility.yul\":5574:5592   */\n      0x24\n      dup3\n      add\n        /* \"#utility.yul\":5567:5601   */\n      dup5\n      swap1\n      mstore\n        /* \"contracts/LoteStakingManager.sol\":17311:17318  lottery */\n      swap1\n      swap2\n      and\n      swap1\n        /* \"contracts/LoteStakingManager.sol\":17311:17327  lottery.transfer */\n      0xa9059cbb\n      swap1\n        /* \"#utility.yul\":5480:5498   */\n      0x44\n      add\n        /* \"contracts/LoteStakingManager.sol\":17311:17355  lottery.transfer(referrer, commissionAmount) */\n      0x20\n      mload(0x40)\n      dup1\n      dup4\n      sub\n      dup2\n      0x00\n      dup8\n      dup1\n      extcodesize\n      iszero\n      dup1\n      iszero\n      tag_518\n      jumpi\n      0x00\n      dup1\n      revert\n    tag_518:\n      pop\n      gas\n      call\n      iszero\n      dup1\n      iszero\n      tag_520\n      jumpi\n      returndatasize\n      0x00\n      dup1\n      returndatacopy\n      revert(0x00, returndatasize)\n    tag_520:\n      pop\n      pop\n      pop\n      pop\n      mload(0x40)\n      returndatasize\n      not(0x1f)\n      0x1f\n      dup3\n      add\n      and\n      dup3\n      add\n      dup1\n      0x40\n      mstore\n      pop\n      dup2\n      add\n      swap1\n      tag_521\n      swap2\n      swap1\n      tag_355\n      jump\t// in\n    tag_521:\n      pop\n        /* \"contracts/LoteStakingManager.sol\":17374:17389  lotteryReferral */\n      sload(0x0d)\n        /* \"contracts/LoteStakingManager.sol\":17374:17503  lotteryReferral.recordReferralCommission(\r... */\n      mload(0x40)\n      shl(0xe3, 0x1b82d297)\n      dup2\n      mstore\n      sub(shl(0xa0, 0x01), 0x01)\n        /* \"#utility.yul\":5525:5557   */\n      dup5\n      dup2\n      and\n        /* \"contracts/LoteStakingManager.sol\":17374:17503  lotteryReferral.recordReferralCommission(\r... */\n      0x04\n      dup4\n      add\n        /* \"#utility.yul\":5507:5558   */\n      mstore\n        /* \"#utility.yul\":5574:5592   */\n      0x24\n      dup3\n      add\n        /* \"#utility.yul\":5567:5601   */\n      dup5\n      swap1\n      mstore\n        /* \"contracts/LoteStakingManager.sol\":17374:17389  lotteryReferral */\n      swap1\n      swap2\n      and\n      swap1\n        /* \"contracts/LoteStakingManager.sol\":17374:17414  lotteryReferral.recordReferralCommission */\n      0xdc1694b8\n      swap1\n        /* \"#utility.yul\":5480:5498   */\n      0x44\n      add\n        /* \"contracts/LoteStakingManager.sol\":17374:17503  lotteryReferral.recordReferralCommission(\r... */\n      0x00\n      mload(0x40)\n      dup1\n      dup4\n      sub\n      dup2\n      0x00\n      dup8\n      dup1\n      extcodesize\n      iszero\n      dup1\n      iszero\n      tag_523\n      jumpi\n      0x00\n      dup1\n      revert\n    tag_523:\n      pop\n      gas\n      call\n      iszero\n      dup1\n      iszero\n      tag_525\n      jumpi\n      returndatasize\n      0x00\n      dup1\n      returndatacopy\n      revert(0x00, returndatasize)\n    tag_525:\n      pop\n      pop\n      pop\n      pop\n        /* \"contracts/LoteStakingManager.sol\":17557:17565  referrer */\n      dup2\n      sub(shl(0xa0, 0x01), 0x01)\n        /* \"contracts/LoteStakingManager.sol\":17527:17584  ReferralCommissionPaid(_user, referrer, commissionAmount) */\n      and\n        /* \"contracts/LoteStakingManager.sol\":17550:17555  _user */\n      dup5\n      sub(shl(0xa0, 0x01), 0x01)\n        /* \"contracts/LoteStakingManager.sol\":17527:17584  ReferralCommissionPaid(_user, referrer, commissionAmount) */\n      and\n      0x86ddab457291316e0f5496737e5ca67c4037234c32c3be04c48ae96186893a7b\n        /* \"contracts/LoteStakingManager.sol\":17567:17583  commissionAmount */\n      dup4\n        /* \"contracts/LoteStakingManager.sol\":17527:17584  ReferralCommissionPaid(_user, referrer, commissionAmount) */\n      mload(0x40)\n      tag_464\n      swap2\n        /* \"#utility.yul\":14221:14246   */\n      dup2\n      mstore\n        /* \"#utility.yul\":14209:14211   */\n      0x20\n        /* \"#utility.yul\":14194:14212   */\n      add\n      swap1\n        /* \"#utility.yul\":14075:14252   */\n      jump\n        /* \"@openzeppelin/contracts/token/ERC20/utils/SafeERC20.sol\":3207:3913  function _callOptionalReturn(IERC20 token, bytes memory data) private {... */\n    tag_468:\n        /* \"@openzeppelin/contracts/token/ERC20/utils/SafeERC20.sol\":3626:3649  bytes memory returndata */\n      0x00\n        /* \"@openzeppelin/contracts/token/ERC20/utils/SafeERC20.sol\":3652:3721  address(token).functionCall(data, \"SafeERC20: low-level call failed\") */\n      tag_528\n        /* \"@openzeppelin/contracts/token/ERC20/utils/SafeERC20.sol\":3680:3684  data */\n      dup3\n        /* \"@openzeppelin/contracts/token/ERC20/utils/SafeERC20.sol\":3652:3721  address(token).functionCall(data, \"SafeERC20: low-level call failed\") */\n      mload(0x40)\n      dup1\n      0x40\n      add\n      0x40\n      mstore\n      dup1\n      0x20\n      dup2\n      mstore\n      0x20\n      add\n      0x5361666545524332303a206c6f772d6c6576656c2063616c6c206661696c6564\n      dup2\n      mstore\n      pop\n        /* \"@openzeppelin/contracts/token/ERC20/utils/SafeERC20.sol\":3660:3665  token */\n      dup6\n      sub(shl(0xa0, 0x01), 0x01)\n        /* \"@openzeppelin/contracts/token/ERC20/utils/SafeERC20.sol\":3652:3679  address(token).functionCall */\n      and\n      tag_529\n      swap1\n        /* \"@openzeppelin/contracts/token/ERC20/utils/SafeERC20.sol\":3652:3721  address(token).functionCall(data, \"SafeERC20: low-level call failed\") */\n      swap3\n      swap2\n      swap1\n      0xffffffff\n      and\n      jump\t// in\n    tag_528:\n        /* \"@openzeppelin/contracts/token/ERC20/utils/SafeERC20.sol\":3735:3752  returndata.length */\n      dup1\n      mload\n        /* \"@openzeppelin/contracts/token/ERC20/utils/SafeERC20.sol\":3626:3721  bytes memory returndata = address(token).functionCall(data, \"SafeERC20: low-level call failed\") */\n      swap1\n      swap2\n      pop\n        /* \"@openzeppelin/contracts/token/ERC20/utils/SafeERC20.sol\":3735:3756  returndata.length > 0 */\n      iszero\n        /* \"@openzeppelin/contracts/token/ERC20/utils/SafeERC20.sol\":3731:3907  if (returndata.length > 0) {... */\n      tag_466\n      jumpi\n        /* \"@openzeppelin/contracts/token/ERC20/utils/SafeERC20.sol\":3830:3840  returndata */\n      dup1\n        /* \"@openzeppelin/contracts/token/ERC20/utils/SafeERC20.sol\":3819:3849  abi.decode(returndata, (bool)) */\n      dup1\n      0x20\n      add\n      swap1\n      mload\n      dup2\n      add\n      swap1\n      tag_531\n      swap2\n      swap1\n      tag_355\n      jump\t// in\n    tag_531:\n        /* \"@openzeppelin/contracts/token/ERC20/utils/SafeERC20.sol\":3811:3896  require(abi.decode(returndata, (bool)), \"SafeERC20: ERC20 operation did not succeed\") */\n      tag_466\n      jumpi\n      mload(0x40)\n      shl(0xe5, 0x461bcd)\n      dup2\n      mstore\n        /* \"#utility.yul\":13313:13315   */\n      0x20\n        /* \"@openzeppelin/contracts/token/ERC20/utils/SafeERC20.sol\":3811:3896  require(abi.decode(returndata, (bool)), \"SafeERC20: ERC20 operation did not succeed\") */\n      0x04\n      dup3\n      add\n        /* \"#utility.yul\":13295:13316   */\n      mstore\n        /* \"#utility.yul\":13352:13354   */\n      0x2a\n        /* \"#utility.yul\":13332:13350   */\n      0x24\n      dup3\n      add\n        /* \"#utility.yul\":13325:13355   */\n      mstore\n        /* \"#utility.yul\":13391:13425   */\n      0x5361666545524332303a204552433230206f7065726174696f6e20646964206e\n        /* \"#utility.yul\":13371:13389   */\n      0x44\n      dup3\n      add\n        /* \"#utility.yul\":13364:13426   */\n      mstore\n      shl(0xb2, 0x1bdd081cdd58d8d95959)\n        /* \"#utility.yul\":13442:13460   */\n      0x64\n      dup3\n      add\n        /* \"#utility.yul\":13435:13475   */\n      mstore\n        /* \"#utility.yul\":13492:13511   */\n      0x84\n      add\n        /* \"@openzeppelin/contracts/token/ERC20/utils/SafeERC20.sol\":3811:3896  require(abi.decode(returndata, (bool)), \"SafeERC20: ERC20 operation did not succeed\") */\n      tag_181\n        /* \"#utility.yul\":13111:13517   */\n      jump\n        /* \"@openzeppelin/contracts/utils/Address.sol\":3861:4084  function functionCall(... */\n    tag_529:\n        /* \"@openzeppelin/contracts/utils/Address.sol\":3994:4006  bytes memory */\n      0x60\n        /* \"@openzeppelin/contracts/utils/Address.sol\":4025:4077  functionCallWithValue(target, data, 0, errorMessage) */\n      tag_536\n        /* \"@openzeppelin/contracts/utils/Address.sol\":4047:4053  target */\n      dup5\n        /* \"@openzeppelin/contracts/utils/Address.sol\":4055:4059  data */\n      dup5\n        /* \"@openzeppelin/contracts/utils/Address.sol\":4061:4062  0 */\n      0x00\n        /* \"@openzeppelin/contracts/utils/Address.sol\":4064:4076  errorMessage */\n      dup6\n        /* \"@openzeppelin/contracts/utils/Address.sol\":4025:4046  functionCallWithValue */\n      tag_537\n        /* \"@openzeppelin/contracts/utils/Address.sol\":4025:4077  functionCallWithValue(target, data, 0, errorMessage) */\n      jump\t// in\n    tag_536:\n        /* \"@openzeppelin/contracts/utils/Address.sol\":4018:4077  return functionCallWithValue(target, data, 0, errorMessage) */\n      swap5\n        /* \"@openzeppelin/contracts/utils/Address.sol\":3861:4084  function functionCall(... */\n      swap4\n      pop\n      pop\n      pop\n      pop\n      jump\t// out\n        /* \"@openzeppelin/contracts/utils/Address.sol\":4948:5447  function functionCallWithValue(... */\n    tag_537:\n        /* \"@openzeppelin/contracts/utils/Address.sol\":5113:5125  bytes memory */\n      0x60\n        /* \"@openzeppelin/contracts/utils/Address.sol\":5170:5175  value */\n      dup3\n        /* \"@openzeppelin/contracts/utils/Address.sol\":5145:5166  address(this).balance */\n      selfbalance\n        /* \"@openzeppelin/contracts/utils/Address.sol\":5145:5175  address(this).balance >= value */\n      lt\n      iszero\n        /* \"@openzeppelin/contracts/utils/Address.sol\":5137:5218  require(address(this).balance >= value, \"Address: insufficient balance for call\") */\n      tag_539\n      jumpi\n      mload(0x40)\n      shl(0xe5, 0x461bcd)\n      dup2\n      mstore\n        /* \"#utility.yul\":10723:10725   */\n      0x20\n        /* \"@openzeppelin/contracts/utils/Address.sol\":5137:5218  require(address(this).balance >= value, \"Address: insufficient balance for call\") */\n      0x04\n      dup3\n      add\n        /* \"#utility.yul\":10705:10726   */\n      mstore\n        /* \"#utility.yul\":10762:10764   */\n      0x26\n        /* \"#utility.yul\":10742:10760   */\n      0x24\n      dup3\n      add\n        /* \"#utility.yul\":10735:10765   */\n      mstore\n        /* \"#utility.yul\":10801:10835   */\n      0x416464726573733a20696e73756666696369656e742062616c616e636520666f\n        /* \"#utility.yul\":10781:10799   */\n      0x44\n      dup3\n      add\n        /* \"#utility.yul\":10774:10836   */\n      mstore\n      shl(0xd2, 0x1c8818d85b1b)\n        /* \"#utility.yul\":10852:10870   */\n      0x64\n      dup3\n      add\n        /* \"#utility.yul\":10845:10881   */\n      mstore\n        /* \"#utility.yul\":10898:10917   */\n      0x84\n      add\n        /* \"@openzeppelin/contracts/utils/Address.sol\":5137:5218  require(address(this).balance >= value, \"Address: insufficient balance for call\") */\n      tag_181\n        /* \"#utility.yul\":10521:10923   */\n      jump\n        /* \"@openzeppelin/contracts/utils/Address.sol\":5137:5218  require(address(this).balance >= value, \"Address: insufficient balance for call\") */\n    tag_539:\n      sub(shl(0xa0, 0x01), 0x01)\n        /* \"@openzeppelin/contracts/utils/Address.sol\":1465:1484  account.code.length */\n      dup6\n      and\n      extcodesize\n        /* \"@openzeppelin/contracts/utils/Address.sol\":5228:5288  require(isContract(target), \"Address: call to non-contract\") */\n      tag_544\n      jumpi\n      mload(0x40)\n      shl(0xe5, 0x461bcd)\n      dup2\n      mstore\n        /* \"#utility.yul\":12255:12257   */\n      0x20\n        /* \"@openzeppelin/contracts/utils/Address.sol\":5228:5288  require(isContract(target), \"Address: call to non-contract\") */\n      0x04\n      dup3\n      add\n        /* \"#utility.yul\":12237:12258   */\n      mstore\n        /* \"#utility.yul\":12294:12296   */\n      0x1d\n        /* \"#utility.yul\":12274:12292   */\n      0x24\n      dup3\n      add\n        /* \"#utility.yul\":12267:12297   */\n      mstore\n        /* \"#utility.yul\":12333:12364   */\n      0x416464726573733a2063616c6c20746f206e6f6e2d636f6e7472616374000000\n        /* \"#utility.yul\":12313:12331   */\n      0x44\n      dup3\n      add\n        /* \"#utility.yul\":12306:12365   */\n      mstore\n        /* \"#utility.yul\":12382:12400   */\n      0x64\n      add\n        /* \"@openzeppelin/contracts/utils/Address.sol\":5228:5288  require(isContract(target), \"Address: call to non-contract\") */\n      tag_181\n        /* \"#utility.yul\":12053:12406   */\n      jump\n        /* \"@openzeppelin/contracts/utils/Address.sol\":5228:5288  require(isContract(target), \"Address: call to non-contract\") */\n    tag_544:\n        /* \"@openzeppelin/contracts/utils/Address.sol\":5300:5312  bool success */\n      0x00\n        /* \"@openzeppelin/contracts/utils/Address.sol\":5314:5337  bytes memory returndata */\n      dup1\n        /* \"@openzeppelin/contracts/utils/Address.sol\":5341:5347  target */\n      dup7\n      sub(shl(0xa0, 0x01), 0x01)\n        /* \"@openzeppelin/contracts/utils/Address.sol\":5341:5352  target.call */\n      and\n        /* \"@openzeppelin/contracts/utils/Address.sol\":5360:5365  value */\n      dup6\n        /* \"@openzeppelin/contracts/utils/Address.sol\":5367:5371  data */\n      dup8\n        /* \"@openzeppelin/contracts/utils/Address.sol\":5341:5372  target.call{value: value}(data) */\n      mload(0x40)\n      tag_547\n      swap2\n      swap1\n      tag_548\n      jump\t// in\n    tag_547:\n      0x00\n      mload(0x40)\n      dup1\n      dup4\n      sub\n      dup2\n      dup6\n      dup8\n      gas\n      call\n      swap3\n      pop\n      pop\n      pop\n      returndatasize\n      dup1\n      0x00\n      dup2\n      eq\n      tag_551\n      jumpi\n      mload(0x40)\n      swap2\n      pop\n      and(add(returndatasize, 0x3f), not(0x1f))\n      dup3\n      add\n      0x40\n      mstore\n      returndatasize\n      dup3\n      mstore\n      returndatasize\n      0x00\n      0x20\n      dup5\n      add\n      returndatacopy\n      jump(tag_550)\n    tag_551:\n      0x60\n      swap2\n      pop\n    tag_550:\n      pop\n        /* \"@openzeppelin/contracts/utils/Address.sol\":5299:5372  (bool success, bytes memory returndata) = target.call{value: value}(data) */\n      swap2\n      pop\n      swap2\n      pop\n        /* \"@openzeppelin/contracts/utils/Address.sol\":5389:5440  verifyCallResult(success, returndata, errorMessage) */\n      tag_552\n        /* \"@openzeppelin/contracts/utils/Address.sol\":5406:5413  success */\n      dup3\n        /* \"@openzeppelin/contracts/utils/Address.sol\":5415:5425  returndata */\n      dup3\n        /* \"@openzeppelin/contracts/utils/Address.sol\":5427:5439  errorMessage */\n      dup7\n        /* \"@openzeppelin/contracts/utils/Address.sol\":5389:5405  verifyCallResult */\n      tag_553\n        /* \"@openzeppelin/contracts/utils/Address.sol\":5389:5440  verifyCallResult(success, returndata, errorMessage) */\n      jump\t// in\n    tag_552:\n        /* \"@openzeppelin/contracts/utils/Address.sol\":5382:5440  return verifyCallResult(success, returndata, errorMessage) */\n      swap8\n        /* \"@openzeppelin/contracts/utils/Address.sol\":4948:5447  function functionCallWithValue(... */\n      swap7\n      pop\n      pop\n      pop\n      pop\n      pop\n      pop\n      pop\n      jump\t// out\n        /* \"@openzeppelin/contracts/utils/Address.sol\":7561:8253  function verifyCallResult(... */\n    tag_553:\n        /* \"@openzeppelin/contracts/utils/Address.sol\":7707:7719  bytes memory */\n      0x60\n        /* \"@openzeppelin/contracts/utils/Address.sol\":7735:7742  success */\n      dup4\n        /* \"@openzeppelin/contracts/utils/Address.sol\":7731:8247  if (success) {... */\n      iszero\n      tag_556\n      jumpi\n      pop\n        /* \"@openzeppelin/contracts/utils/Address.sol\":7765:7775  returndata */\n      dup2\n        /* \"@openzeppelin/contracts/utils/Address.sol\":7758:7775  return returndata */\n      jump(tag_328)\n        /* \"@openzeppelin/contracts/utils/Address.sol\":7731:8247  if (success) {... */\n    tag_556:\n        /* \"@openzeppelin/contracts/utils/Address.sol\":7876:7893  returndata.length */\n      dup3\n      mload\n        /* \"@openzeppelin/contracts/utils/Address.sol\":7876:7897  returndata.length > 0 */\n      iszero\n        /* \"@openzeppelin/contracts/utils/Address.sol\":7872:8237  if (returndata.length > 0) {... */\n      tag_558\n      jumpi\n        /* \"@openzeppelin/contracts/utils/Address.sol\":8070:8080  returndata */\n      dup3\n        /* \"@openzeppelin/contracts/utils/Address.sol\":8064:8081  mload(returndata) */\n      mload\n        /* \"@openzeppelin/contracts/utils/Address.sol\":8130:8145  returndata_size */\n      dup1\n        /* \"@openzeppelin/contracts/utils/Address.sol\":8117:8127  returndata */\n      dup5\n        /* \"@openzeppelin/contracts/utils/Address.sol\":8113:8115  32 */\n      0x20\n        /* \"@openzeppelin/contracts/utils/Address.sol\":8109:8128  add(32, returndata) */\n      add\n        /* \"@openzeppelin/contracts/utils/Address.sol\":8102:8146  revert(add(32, returndata), returndata_size) */\n      revert\n        /* \"@openzeppelin/contracts/utils/Address.sol\":7872:8237  if (returndata.length > 0) {... */\n    tag_558:\n        /* \"@openzeppelin/contracts/utils/Address.sol\":8209:8221  errorMessage */\n      dup2\n        /* \"@openzeppelin/contracts/utils/Address.sol\":8202:8222  revert(errorMessage) */\n      mload(0x40)\n      shl(0xe5, 0x461bcd)\n      dup2\n      mstore\n      0x04\n      add\n      tag_181\n      swap2\n      swap1\n      tag_561\n      jump\t// in\n        /* \"#utility.yul\":14:261   */\n    tag_123:\n        /* \"#utility.yul\":73:79   */\n      0x00\n        /* \"#utility.yul\":126:128   */\n      0x20\n        /* \"#utility.yul\":114:123   */\n      dup3\n        /* \"#utility.yul\":105:112   */\n      dup5\n        /* \"#utility.yul\":101:124   */\n      sub\n        /* \"#utility.yul\":97:129   */\n      slt\n        /* \"#utility.yul\":94:146   */\n      iszero\n      tag_564\n      jumpi\n        /* \"#utility.yul\":142:143   */\n      0x00\n        /* \"#utility.yul\":139:140   */\n      dup1\n        /* \"#utility.yul\":132:144   */\n      revert\n        /* \"#utility.yul\":94:146   */\n    tag_564:\n        /* \"#utility.yul\":181:190   */\n      dup2\n        /* \"#utility.yul\":168:191   */\n      calldataload\n        /* \"#utility.yul\":200:231   */\n      tag_328\n        /* \"#utility.yul\":225:230   */\n      dup2\n        /* \"#utility.yul\":200:231   */\n      tag_566\n      jump\t// in\n        /* \"#utility.yul\":266:517   */\n    tag_502:\n        /* \"#utility.yul\":336:342   */\n      0x00\n        /* \"#utility.yul\":389:391   */\n      0x20\n        /* \"#utility.yul\":377:386   */\n      dup3\n        /* \"#utility.yul\":368:375   */\n      dup5\n        /* \"#utility.yul\":364:387   */\n      sub\n        /* \"#utility.yul\":360:392   */\n      slt\n        /* \"#utility.yul\":357:409   */\n      iszero\n      tag_568\n      jumpi\n        /* \"#utility.yul\":405:406   */\n      0x00\n        /* \"#utility.yul\":402:403   */\n      dup1\n        /* \"#utility.yul\":395:407   */\n      revert\n        /* \"#utility.yul\":357:409   */\n    tag_568:\n        /* \"#utility.yul\":437:446   */\n      dup2\n        /* \"#utility.yul\":431:447   */\n      mload\n        /* \"#utility.yul\":456:487   */\n      tag_328\n        /* \"#utility.yul\":481:486   */\n      dup2\n        /* \"#utility.yul\":456:487   */\n      tag_566\n      jump\t// in\n        /* \"#utility.yul\":522:767   */\n    tag_355:\n        /* \"#utility.yul\":589:595   */\n      0x00\n        /* \"#utility.yul\":642:644   */\n      0x20\n        /* \"#utility.yul\":630:639   */\n      dup3\n        /* \"#utility.yul\":621:628   */\n      dup5\n        /* \"#utility.yul\":617:640   */\n      sub\n        /* \"#utility.yul\":613:645   */\n      slt\n        /* \"#utility.yul\":610:662   */\n      iszero\n      tag_571\n      jumpi\n        /* \"#utility.yul\":658:659   */\n      0x00\n        /* \"#utility.yul\":655:656   */\n      dup1\n        /* \"#utility.yul\":648:660   */\n      revert\n        /* \"#utility.yul\":610:662   */\n    tag_571:\n        /* \"#utility.yul\":690:699   */\n      dup2\n        /* \"#utility.yul\":684:700   */\n      mload\n        /* \"#utility.yul\":709:737   */\n      tag_328\n        /* \"#utility.yul\":731:736   */\n      dup2\n        /* \"#utility.yul\":709:737   */\n      tag_573\n      jump\t// in\n        /* \"#utility.yul\":1049:1294   */\n    tag_112:\n        /* \"#utility.yul\":1107:1113   */\n      0x00\n        /* \"#utility.yul\":1160:1162   */\n      0x20\n        /* \"#utility.yul\":1148:1157   */\n      dup3\n        /* \"#utility.yul\":1139:1146   */\n      dup5\n        /* \"#utility.yul\":1135:1158   */\n      sub\n        /* \"#utility.yul\":1131:1163   */\n      slt\n        /* \"#utility.yul\":1128:1180   */\n      iszero\n      tag_578\n      jumpi\n        /* \"#utility.yul\":1176:1177   */\n      0x00\n        /* \"#utility.yul\":1173:1174   */\n      dup1\n        /* \"#utility.yul\":1166:1178   */\n      revert\n        /* \"#utility.yul\":1128:1180   */\n    tag_578:\n        /* \"#utility.yul\":1215:1224   */\n      dup2\n        /* \"#utility.yul\":1202:1225   */\n      calldataload\n        /* \"#utility.yul\":1234:1264   */\n      tag_328\n        /* \"#utility.yul\":1258:1263   */\n      dup2\n        /* \"#utility.yul\":1234:1264   */\n      tag_580\n      jump\t// in\n        /* \"#utility.yul\":1299:1548   */\n    tag_363:\n        /* \"#utility.yul\":1368:1374   */\n      0x00\n        /* \"#utility.yul\":1421:1423   */\n      0x20\n        /* \"#utility.yul\":1409:1418   */\n      dup3\n        /* \"#utility.yul\":1400:1407   */\n      dup5\n        /* \"#utility.yul\":1396:1419   */\n      sub\n        /* \"#utility.yul\":1392:1424   */\n      slt\n        /* \"#utility.yul\":1389:1441   */\n      iszero\n      tag_582\n      jumpi\n        /* \"#utility.yul\":1437:1438   */\n      0x00\n        /* \"#utility.yul\":1434:1435   */\n      dup1\n        /* \"#utility.yul\":1427:1439   */\n      revert\n        /* \"#utility.yul\":1389:1441   */\n    tag_582:\n        /* \"#utility.yul\":1469:1478   */\n      dup2\n        /* \"#utility.yul\":1463:1479   */\n      mload\n        /* \"#utility.yul\":1488:1518   */\n      tag_328\n        /* \"#utility.yul\":1512:1517   */\n      dup2\n        /* \"#utility.yul\":1488:1518   */\n      tag_580\n      jump\t// in\n        /* \"#utility.yul\":1553:1733   */\n    tag_52:\n        /* \"#utility.yul\":1612:1618   */\n      0x00\n        /* \"#utility.yul\":1665:1667   */\n      0x20\n        /* \"#utility.yul\":1653:1662   */\n      dup3\n        /* \"#utility.yul\":1644:1651   */\n      dup5\n        /* \"#utility.yul\":1640:1663   */\n      sub\n        /* \"#utility.yul\":1636:1668   */\n      slt\n        /* \"#utility.yul\":1633:1685   */\n      iszero\n      tag_585\n      jumpi\n        /* \"#utility.yul\":1681:1682   */\n      0x00\n        /* \"#utility.yul\":1678:1679   */\n      dup1\n        /* \"#utility.yul\":1671:1683   */\n      revert\n        /* \"#utility.yul\":1633:1685   */\n    tag_585:\n      pop\n        /* \"#utility.yul\":1704:1727   */\n      calldataload\n      swap2\n        /* \"#utility.yul\":1553:1733   */\n      swap1\n      pop\n      jump\t// out\n        /* \"#utility.yul\":1738:1922   */\n    tag_263:\n        /* \"#utility.yul\":1808:1814   */\n      0x00\n        /* \"#utility.yul\":1861:1863   */\n      0x20\n        /* \"#utility.yul\":1849:1858   */\n      dup3\n        /* \"#utility.yul\":1840:1847   */\n      dup5\n        /* \"#utility.yul\":1836:1859   */\n      sub\n        /* \"#utility.yul\":1832:1864   */\n      slt\n        /* \"#utility.yul\":1829:1881   */\n      iszero\n      tag_587\n      jumpi\n        /* \"#utility.yul\":1877:1878   */\n      0x00\n        /* \"#utility.yul\":1874:1875   */\n      dup1\n        /* \"#utility.yul\":1867:1879   */\n      revert\n        /* \"#utility.yul\":1829:1881   */\n    tag_587:\n      pop\n        /* \"#utility.yul\":1900:1916   */\n      mload\n      swap2\n        /* \"#utility.yul\":1738:1922   */\n      swap1\n      pop\n      jump\t// out\n        /* \"#utility.yul\":1927:2242   */\n    tag_75:\n        /* \"#utility.yul\":1995:2001   */\n      0x00\n        /* \"#utility.yul\":2003:2009   */\n      dup1\n        /* \"#utility.yul\":2056:2058   */\n      0x40\n        /* \"#utility.yul\":2044:2053   */\n      dup4\n        /* \"#utility.yul\":2035:2042   */\n      dup6\n        /* \"#utility.yul\":2031:2054   */\n      sub\n        /* \"#utility.yul\":2027:2059   */\n      slt\n        /* \"#utility.yul\":2024:2076   */\n      iszero\n      tag_589\n      jumpi\n        /* \"#utility.yul\":2072:2073   */\n      0x00\n        /* \"#utility.yul\":2069:2070   */\n      dup1\n        /* \"#utility.yul\":2062:2074   */\n      revert\n        /* \"#utility.yul\":2024:2076   */\n    tag_589:\n        /* \"#utility.yul\":2108:2117   */\n      dup3\n        /* \"#utility.yul\":2095:2118   */\n      calldataload\n        /* \"#utility.yul\":2085:2118   */\n      swap2\n      pop\n        /* \"#utility.yul\":2168:2170   */\n      0x20\n        /* \"#utility.yul\":2157:2166   */\n      dup4\n        /* \"#utility.yul\":2153:2171   */\n      add\n        /* \"#utility.yul\":2140:2172   */\n      calldataload\n        /* \"#utility.yul\":2181:2212   */\n      tag_590\n        /* \"#utility.yul\":2206:2211   */\n      dup2\n        /* \"#utility.yul\":2181:2212   */\n      tag_566\n      jump\t// in\n    tag_590:\n        /* \"#utility.yul\":2231:2236   */\n      dup1\n        /* \"#utility.yul\":2221:2236   */\n      swap2\n      pop\n      pop\n        /* \"#utility.yul\":1927:2242   */\n      swap3\n      pop\n      swap3\n      swap1\n      pop\n      jump\t// out\n        /* \"#utility.yul\":2247:2920   */\n    tag_157:\n        /* \"#utility.yul\":2352:2358   */\n      0x00\n        /* \"#utility.yul\":2360:2366   */\n      dup1\n        /* \"#utility.yul\":2368:2374   */\n      0x00\n        /* \"#utility.yul\":2376:2382   */\n      dup1\n        /* \"#utility.yul\":2384:2390   */\n      0x00\n        /* \"#utility.yul\":2437:2440   */\n      0xa0\n        /* \"#utility.yul\":2425:2434   */\n      dup7\n        /* \"#utility.yul\":2416:2423   */\n      dup9\n        /* \"#utility.yul\":2412:2435   */\n      sub\n        /* \"#utility.yul\":2408:2441   */\n      slt\n        /* \"#utility.yul\":2405:2458   */\n      iszero\n      tag_592\n      jumpi\n        /* \"#utility.yul\":2454:2455   */\n      0x00\n        /* \"#utility.yul\":2451:2452   */\n      dup1\n        /* \"#utility.yul\":2444:2456   */\n      revert\n        /* \"#utility.yul\":2405:2458   */\n    tag_592:\n        /* \"#utility.yul\":2490:2499   */\n      dup6\n        /* \"#utility.yul\":2477:2500   */\n      calldataload\n        /* \"#utility.yul\":2467:2500   */\n      swap5\n      pop\n        /* \"#utility.yul\":2550:2552   */\n      0x20\n        /* \"#utility.yul\":2539:2548   */\n      dup7\n        /* \"#utility.yul\":2535:2553   */\n      add\n        /* \"#utility.yul\":2522:2554   */\n      calldataload\n        /* \"#utility.yul\":2563:2594   */\n      tag_593\n        /* \"#utility.yul\":2588:2593   */\n      dup2\n        /* \"#utility.yul\":2563:2594   */\n      tag_566\n      jump\t// in\n    tag_593:\n        /* \"#utility.yul\":2613:2618   */\n      swap4\n      pop\n        /* \"#utility.yul\":2670:2672   */\n      0x40\n        /* \"#utility.yul\":2655:2673   */\n      dup7\n      add\n        /* \"#utility.yul\":2642:2674   */\n      calldataload\n        /* \"#utility.yul\":2683:2715   */\n      tag_594\n        /* \"#utility.yul\":2642:2674   */\n      dup2\n        /* \"#utility.yul\":2683:2715   */\n      tag_580\n      jump\t// in\n    tag_594:\n        /* \"#utility.yul\":2734:2741   */\n      swap3\n      pop\n        /* \"#utility.yul\":2788:2790   */\n      0x60\n        /* \"#utility.yul\":2773:2791   */\n      dup7\n      add\n        /* \"#utility.yul\":2760:2792   */\n      calldataload\n      swap2\n      pop\n        /* \"#utility.yul\":2844:2847   */\n      0x80\n        /* \"#utility.yul\":2829:2848   */\n      dup7\n      add\n        /* \"#utility.yul\":2816:2849   */\n      calldataload\n        /* \"#utility.yul\":2858:2888   */\n      tag_595\n        /* \"#utility.yul\":2816:2849   */\n      dup2\n        /* \"#utility.yul\":2858:2888   */\n      tag_573\n      jump\t// in\n    tag_595:\n        /* \"#utility.yul\":2907:2914   */\n      dup1\n        /* \"#utility.yul\":2897:2914   */\n      swap2\n      pop\n      pop\n        /* \"#utility.yul\":2247:2920   */\n      swap3\n      swap6\n      pop\n      swap3\n      swap6\n      swap1\n      swap4\n      pop\n      jump\t// out\n        /* \"#utility.yul\":2925:3173   */\n    tag_92:\n        /* \"#utility.yul\":2993:2999   */\n      0x00\n        /* \"#utility.yul\":3001:3007   */\n      dup1\n        /* \"#utility.yul\":3054:3056   */\n      0x40\n        /* \"#utility.yul\":3042:3051   */\n      dup4\n        /* \"#utility.yul\":3033:3040   */\n      dup6\n        /* \"#utility.yul\":3029:3052   */\n      sub\n        /* \"#utility.yul\":3025:3057   */\n      slt\n        /* \"#utility.yul\":3022:3074   */\n      iszero\n      tag_597\n      jumpi\n        /* \"#utility.yul\":3070:3071   */\n      0x00\n        /* \"#utility.yul\":3067:3068   */\n      dup1\n        /* \"#utility.yul\":3060:3072   */\n      revert\n        /* \"#utility.yul\":3022:3074   */\n    tag_597:\n      pop\n      pop\n        /* \"#utility.yul\":3093:3116   */\n      dup1\n      calldataload\n      swap3\n        /* \"#utility.yul\":3163:3165   */\n      0x20\n        /* \"#utility.yul\":3148:3166   */\n      swap1\n      swap2\n      add\n        /* \"#utility.yul\":3135:3167   */\n      calldataload\n      swap2\n      pop\n        /* \"#utility.yul\":2925:3173   */\n      jump\t// out\n        /* \"#utility.yul\":3178:3561   */\n    tag_137:\n        /* \"#utility.yul\":3255:3261   */\n      0x00\n        /* \"#utility.yul\":3263:3269   */\n      dup1\n        /* \"#utility.yul\":3271:3277   */\n      0x00\n        /* \"#utility.yul\":3324:3326   */\n      0x60\n        /* \"#utility.yul\":3312:3321   */\n      dup5\n        /* \"#utility.yul\":3303:3310   */\n      dup7\n        /* \"#utility.yul\":3299:3322   */\n      sub\n        /* \"#utility.yul\":3295:3327   */\n      slt\n        /* \"#utility.yul\":3292:3344   */\n      iszero\n      tag_599\n      jumpi\n        /* \"#utility.yul\":3340:3341   */\n      0x00\n        /* \"#utility.yul\":3337:3338   */\n      dup1\n        /* \"#utility.yul\":3330:3342   */\n      revert\n        /* \"#utility.yul\":3292:3344   */\n    tag_599:\n        /* \"#utility.yul\":3376:3385   */\n      dup4\n        /* \"#utility.yul\":3363:3386   */\n      calldataload\n        /* \"#utility.yul\":3353:3386   */\n      swap3\n      pop\n        /* \"#utility.yul\":3433:3435   */\n      0x20\n        /* \"#utility.yul\":3422:3431   */\n      dup5\n        /* \"#utility.yul\":3418:3436   */\n      add\n        /* \"#utility.yul\":3405:3437   */\n      calldataload\n        /* \"#utility.yul\":3395:3437   */\n      swap2\n      pop\n        /* \"#utility.yul\":3487:3489   */\n      0x40\n        /* \"#utility.yul\":3476:3485   */\n      dup5\n        /* \"#utility.yul\":3472:3490   */\n      add\n        /* \"#utility.yul\":3459:3491   */\n      calldataload\n        /* \"#utility.yul\":3500:3531   */\n      tag_600\n        /* \"#utility.yul\":3525:3530   */\n      dup2\n        /* \"#utility.yul\":3500:3531   */\n      tag_566\n      jump\t// in\n    tag_600:\n        /* \"#utility.yul\":3550:3555   */\n      dup1\n        /* \"#utility.yul\":3540:3555   */\n      swap2\n      pop\n      pop\n        /* \"#utility.yul\":3178:3561   */\n      swap3\n      pop\n      swap3\n      pop\n      swap3\n      jump\t// out\n        /* \"#utility.yul\":3566:4152   */\n    tag_64:\n        /* \"#utility.yul\":3657:3663   */\n      0x00\n        /* \"#utility.yul\":3665:3671   */\n      dup1\n        /* \"#utility.yul\":3673:3679   */\n      0x00\n        /* \"#utility.yul\":3681:3687   */\n      dup1\n        /* \"#utility.yul\":3689:3695   */\n      0x00\n        /* \"#utility.yul\":3742:3745   */\n      0xa0\n        /* \"#utility.yul\":3730:3739   */\n      dup7\n        /* \"#utility.yul\":3721:3728   */\n      dup9\n        /* \"#utility.yul\":3717:3740   */\n      sub\n        /* \"#utility.yul\":3713:3746   */\n      slt\n        /* \"#utility.yul\":3710:3763   */\n      iszero\n      tag_602\n      jumpi\n        /* \"#utility.yul\":3759:3760   */\n      0x00\n        /* \"#utility.yul\":3756:3757   */\n      dup1\n        /* \"#utility.yul\":3749:3761   */\n      revert\n        /* \"#utility.yul\":3710:3763   */\n    tag_602:\n        /* \"#utility.yul\":3795:3804   */\n      dup6\n        /* \"#utility.yul\":3782:3805   */\n      calldataload\n        /* \"#utility.yul\":3772:3805   */\n      swap5\n      pop\n        /* \"#utility.yul\":3852:3854   */\n      0x20\n        /* \"#utility.yul\":3841:3850   */\n      dup7\n        /* \"#utility.yul\":3837:3855   */\n      add\n        /* \"#utility.yul\":3824:3856   */\n      calldataload\n        /* \"#utility.yul\":3814:3856   */\n      swap4\n      pop\n        /* \"#utility.yul\":3906:3908   */\n      0x40\n        /* \"#utility.yul\":3895:3904   */\n      dup7\n        /* \"#utility.yul\":3891:3909   */\n      add\n        /* \"#utility.yul\":3878:3910   */\n      calldataload\n        /* \"#utility.yul\":3919:3949   */\n      tag_594\n        /* \"#utility.yul\":3943:3948   */\n      dup2\n        /* \"#utility.yul\":3919:3949   */\n      tag_580\n      jump\t// in\n        /* \"#utility.yul\":4157:4431   */\n    tag_548:\n        /* \"#utility.yul\":4286:4289   */\n      0x00\n        /* \"#utility.yul\":4324:4330   */\n      dup3\n        /* \"#utility.yul\":4318:4331   */\n      mload\n        /* \"#utility.yul\":4340:4393   */\n      tag_606\n        /* \"#utility.yul\":4386:4392   */\n      dup2\n        /* \"#utility.yul\":4381:4384   */\n      dup5\n        /* \"#utility.yul\":4374:4378   */\n      0x20\n        /* \"#utility.yul\":4366:4372   */\n      dup8\n        /* \"#utility.yul\":4362:4379   */\n      add\n        /* \"#utility.yul\":4340:4393   */\n      tag_607\n      jump\t// in\n    tag_606:\n        /* \"#utility.yul\":4409:4425   */\n      swap2\n      swap1\n      swap2\n      add\n      swap3\n        /* \"#utility.yul\":4157:4431   */\n      swap2\n      pop\n      pop\n      jump\t// out\n        /* \"#utility.yul\":7088:7471   */\n    tag_561:\n        /* \"#utility.yul\":7237:7239   */\n      0x20\n        /* \"#utility.yul\":7226:7235   */\n      dup2\n        /* \"#utility.yul\":7219:7240   */\n      mstore\n        /* \"#utility.yul\":7200:7204   */\n      0x00\n        /* \"#utility.yul\":7269:7275   */\n      dup3\n        /* \"#utility.yul\":7263:7276   */\n      mload\n        /* \"#utility.yul\":7312:7318   */\n      dup1\n        /* \"#utility.yul\":7307:7309   */\n      0x20\n        /* \"#utility.yul\":7296:7305   */\n      dup5\n        /* \"#utility.yul\":7292:7310   */\n      add\n        /* \"#utility.yul\":7285:7319   */\n      mstore\n        /* \"#utility.yul\":7328:7394   */\n      tag_618\n        /* \"#utility.yul\":7387:7393   */\n      dup2\n        /* \"#utility.yul\":7382:7384   */\n      0x40\n        /* \"#utility.yul\":7371:7380   */\n      dup6\n        /* \"#utility.yul\":7367:7385   */\n      add\n        /* \"#utility.yul\":7362:7364   */\n      0x20\n        /* \"#utility.yul\":7354:7360   */\n      dup8\n        /* \"#utility.yul\":7350:7365   */\n      add\n        /* \"#utility.yul\":7328:7394   */\n      tag_607\n      jump\t// in\n    tag_618:\n        /* \"#utility.yul\":7455:7457   */\n      0x1f\n        /* \"#utility.yul\":7434:7449   */\n      add\n      not(0x1f)\n        /* \"#utility.yul\":7430:7459   */\n      and\n        /* \"#utility.yul\":7415:7460   */\n      swap2\n      swap1\n      swap2\n      add\n        /* \"#utility.yul\":7462:7464   */\n      0x40\n        /* \"#utility.yul\":7411:7465   */\n      add\n      swap3\n        /* \"#utility.yul\":7088:7471   */\n      swap2\n      pop\n      pop\n      jump\t// out\n        /* \"#utility.yul\":11334:11690   */\n    tag_182:\n        /* \"#utility.yul\":11536:11538   */\n      0x20\n        /* \"#utility.yul\":11518:11539   */\n      dup1\n      dup3\n      mstore\n        /* \"#utility.yul\":11555:11573   */\n      dup2\n      dup2\n      add\n        /* \"#utility.yul\":11548:11578   */\n      mstore\n        /* \"#utility.yul\":11614:11648   */\n      0x4f776e61626c653a2063616c6c6572206973206e6f7420746865206f776e6572\n        /* \"#utility.yul\":11609:11611   */\n      0x40\n        /* \"#utility.yul\":11594:11612   */\n      dup3\n      add\n        /* \"#utility.yul\":11587:11649   */\n      mstore\n        /* \"#utility.yul\":11681:11683   */\n      0x60\n        /* \"#utility.yul\":11666:11684   */\n      add\n      swap1\n        /* \"#utility.yul\":11334:11690   */\n      jump\t// out\n        /* \"#utility.yul\":13522:13877   */\n    tag_230:\n        /* \"#utility.yul\":13724:13726   */\n      0x20\n        /* \"#utility.yul\":13706:13727   */\n      dup1\n      dup3\n      mstore\n        /* \"#utility.yul\":13763:13765   */\n      0x1f\n        /* \"#utility.yul\":13743:13761   */\n      swap1\n      dup3\n      add\n        /* \"#utility.yul\":13736:13766   */\n      mstore\n        /* \"#utility.yul\":13802:13835   */\n      0x5265656e7472616e637947756172643a207265656e7472616e742063616c6c00\n        /* \"#utility.yul\":13797:13799   */\n      0x40\n        /* \"#utility.yul\":13782:13800   */\n      dup3\n      add\n        /* \"#utility.yul\":13775:13836   */\n      mstore\n        /* \"#utility.yul\":13868:13870   */\n      0x60\n        /* \"#utility.yul\":13853:13871   */\n      add\n      swap1\n        /* \"#utility.yul\":13522:13877   */\n      jump\t// out\n        /* \"#utility.yul\":14906:15034   */\n    tag_439:\n        /* \"#utility.yul\":14946:14949   */\n      0x00\n        /* \"#utility.yul\":14977:14978   */\n      dup3\n        /* \"#utility.yul\":14973:14979   */\n      not\n        /* \"#utility.yul\":14970:14971   */\n      dup3\n        /* \"#utility.yul\":14967:14980   */\n      gt\n        /* \"#utility.yul\":14964:15003   */\n      iszero\n      tag_642\n      jumpi\n        /* \"#utility.yul\":14983:15001   */\n      tag_642\n      tag_643\n      jump\t// in\n    tag_642:\n      pop\n        /* \"#utility.yul\":15019:15028   */\n      add\n      swap1\n        /* \"#utility.yul\":14906:15034   */\n      jump\t// out\n        /* \"#utility.yul\":15039:15256   */\n    tag_474:\n        /* \"#utility.yul\":15079:15080   */\n      0x00\n        /* \"#utility.yul\":15105:15106   */\n      dup3\n        /* \"#utility.yul\":15095:15227   */\n      tag_645\n      jumpi\n        /* \"#utility.yul\":15149:15159   */\n      0x4e487b71\n        /* \"#utility.yul\":15144:15147   */\n      0xe0\n        /* \"#utility.yul\":15140:15160   */\n      shl\n        /* \"#utility.yul\":15137:15138   */\n      0x00\n        /* \"#utility.yul\":15130:15161   */\n      mstore\n        /* \"#utility.yul\":15184:15188   */\n      0x12\n        /* \"#utility.yul\":15181:15182   */\n      0x04\n        /* \"#utility.yul\":15174:15189   */\n      mstore\n        /* \"#utility.yul\":15212:15216   */\n      0x24\n        /* \"#utility.yul\":15209:15210   */\n      0x00\n        /* \"#utility.yul\":15202:15217   */\n      revert\n        /* \"#utility.yul\":15095:15227   */\n    tag_645:\n      pop\n        /* \"#utility.yul\":15241:15250   */\n      div\n      swap1\n        /* \"#utility.yul\":15039:15256   */\n      jump\t// out\n        /* \"#utility.yul\":15261:15429   */\n    tag_471:\n        /* \"#utility.yul\":15301:15308   */\n      0x00\n        /* \"#utility.yul\":15367:15368   */\n      dup2\n        /* \"#utility.yul\":15363:15364   */\n      0x00\n        /* \"#utility.yul\":15359:15365   */\n      not\n        /* \"#utility.yul\":15355:15369   */\n      div\n        /* \"#utility.yul\":15352:15353   */\n      dup4\n        /* \"#utility.yul\":15349:15370   */\n      gt\n        /* \"#utility.yul\":15344:15345   */\n      dup3\n        /* \"#utility.yul\":15337:15346   */\n      iszero\n        /* \"#utility.yul\":15330:15347   */\n      iszero\n        /* \"#utility.yul\":15326:15371   */\n      and\n        /* \"#utility.yul\":15323:15394   */\n      iszero\n      tag_648\n      jumpi\n        /* \"#utility.yul\":15374:15392   */\n      tag_648\n      tag_643\n      jump\t// in\n    tag_648:\n      pop\n        /* \"#utility.yul\":15414:15423   */\n      mul\n      swap1\n        /* \"#utility.yul\":15261:15429   */\n      jump\t// out\n        /* \"#utility.yul\":15434:15559   */\n    tag_436:\n        /* \"#utility.yul\":15474:15478   */\n      0x00\n        /* \"#utility.yul\":15502:15503   */\n      dup3\n        /* \"#utility.yul\":15499:15500   */\n      dup3\n        /* \"#utility.yul\":15496:15504   */\n      lt\n        /* \"#utility.yul\":15493:15527   */\n      iszero\n      tag_651\n      jumpi\n        /* \"#utility.yul\":15507:15525   */\n      tag_651\n      tag_643\n      jump\t// in\n    tag_651:\n      pop\n        /* \"#utility.yul\":15544:15553   */\n      sub\n      swap1\n        /* \"#utility.yul\":15434:15559   */\n      jump\t// out\n        /* \"#utility.yul\":15564:15822   */\n    tag_607:\n        /* \"#utility.yul\":15636:15637   */\n      0x00\n        /* \"#utility.yul\":15646:15759   */\n    tag_653:\n        /* \"#utility.yul\":15660:15666   */\n      dup4\n        /* \"#utility.yul\":15657:15658   */\n      dup2\n        /* \"#utility.yul\":15654:15667   */\n      lt\n        /* \"#utility.yul\":15646:15759   */\n      iszero\n      tag_655\n      jumpi\n        /* \"#utility.yul\":15736:15747   */\n      dup2\n      dup2\n      add\n        /* \"#utility.yul\":15730:15748   */\n      mload\n        /* \"#utility.yul\":15717:15728   */\n      dup4\n      dup3\n      add\n        /* \"#utility.yul\":15710:15749   */\n      mstore\n        /* \"#utility.yul\":15682:15684   */\n      0x20\n        /* \"#utility.yul\":15675:15685   */\n      add\n        /* \"#utility.yul\":15646:15759   */\n      jump(tag_653)\n    tag_655:\n        /* \"#utility.yul\":15777:15783   */\n      dup4\n        /* \"#utility.yul\":15774:15775   */\n      dup2\n        /* \"#utility.yul\":15771:15784   */\n      gt\n        /* \"#utility.yul\":15768:15816   */\n      iszero\n      tag_461\n      jumpi\n      pop\n      pop\n        /* \"#utility.yul\":15812:15813   */\n      0x00\n        /* \"#utility.yul\":15794:15810   */\n      swap2\n      add\n        /* \"#utility.yul\":15787:15814   */\n      mstore\n        /* \"#utility.yul\":15564:15822   */\n      jump\t// out\n        /* \"#utility.yul\":15827:15962   */\n    tag_310:\n        /* \"#utility.yul\":15866:15869   */\n      0x00\n      not(0x00)\n        /* \"#utility.yul\":15887:15904   */\n      dup3\n      eq\n        /* \"#utility.yul\":15884:15927   */\n      iszero\n      tag_659\n      jumpi\n        /* \"#utility.yul\":15907:15925   */\n      tag_659\n      tag_643\n      jump\t// in\n    tag_659:\n      pop\n        /* \"#utility.yul\":15954:15955   */\n      0x01\n        /* \"#utility.yul\":15943:15956   */\n      add\n      swap1\n        /* \"#utility.yul\":15827:15962   */\n      jump\t// out\n        /* \"#utility.yul\":15967:16094   */\n    tag_643:\n        /* \"#utility.yul\":16028:16038   */\n      0x4e487b71\n        /* \"#utility.yul\":16023:16026   */\n      0xe0\n        /* \"#utility.yul\":16019:16039   */\n      shl\n        /* \"#utility.yul\":16016:16017   */\n      0x00\n        /* \"#utility.yul\":16009:16040   */\n      mstore\n        /* \"#utility.yul\":16059:16063   */\n      0x11\n        /* \"#utility.yul\":16056:16057   */\n      0x04\n        /* \"#utility.yul\":16049:16064   */\n      mstore\n        /* \"#utility.yul\":16083:16087   */\n      0x24\n        /* \"#utility.yul\":16080:16081   */\n      0x00\n        /* \"#utility.yul\":16073:16088   */\n      revert\n        /* \"#utility.yul\":16099:16226   */\n    tag_207:\n        /* \"#utility.yul\":16160:16170   */\n      0x4e487b71\n        /* \"#utility.yul\":16155:16158   */\n      0xe0\n        /* \"#utility.yul\":16151:16171   */\n      shl\n        /* \"#utility.yul\":16148:16149   */\n      0x00\n        /* \"#utility.yul\":16141:16172   */\n      mstore\n        /* \"#utility.yul\":16191:16195   */\n      0x32\n        /* \"#utility.yul\":16188:16189   */\n      0x04\n        /* \"#utility.yul\":16181:16196   */\n      mstore\n        /* \"#utility.yul\":16215:16219   */\n      0x24\n        /* \"#utility.yul\":16212:16213   */\n      0x00\n        /* \"#utility.yul\":16205:16220   */\n      revert\n        /* \"#utility.yul\":16231:16362   */\n    tag_566:\n      sub(shl(0xa0, 0x01), 0x01)\n        /* \"#utility.yul\":16306:16337   */\n      dup2\n      and\n        /* \"#utility.yul\":16296:16338   */\n      dup2\n      eq\n        /* \"#utility.yul\":16286:16356   */\n      tag_432\n      jumpi\n        /* \"#utility.yul\":16352:16353   */\n      0x00\n        /* \"#utility.yul\":16349:16350   */\n      dup1\n        /* \"#utility.yul\":16342:16354   */\n      revert\n        /* \"#utility.yul\":16367:16485   */\n    tag_573:\n        /* \"#utility.yul\":16453:16458   */\n      dup1\n        /* \"#utility.yul\":16446:16459   */\n      iszero\n        /* \"#utility.yul\":16439:16460   */\n      iszero\n        /* \"#utility.yul\":16432:16437   */\n      dup2\n        /* \"#utility.yul\":16429:16461   */\n      eq\n        /* \"#utility.yul\":16419:16479   */\n      tag_432\n      jumpi\n        /* \"#utility.yul\":16475:16476   */\n      0x00\n        /* \"#utility.yul\":16472:16473   */\n      dup1\n        /* \"#utility.yul\":16465:16477   */\n      revert\n        /* \"#utility.yul\":16490:16607   */\n    tag_580:\n        /* \"#utility.yul\":16575:16581   */\n      0xffff\n        /* \"#utility.yul\":16568:16573   */\n      dup2\n        /* \"#utility.yul\":16564:16582   */\n      and\n        /* \"#utility.yul\":16557:16562   */\n      dup2\n        /* \"#utility.yul\":16554:16583   */\n      eq\n        /* \"#utility.yul\":16544:16601   */\n      tag_432\n      jumpi\n        /* \"#utility.yul\":16597:16598   */\n      0x00\n        /* \"#utility.yul\":16594:16595   */\n      dup1\n        /* \"#utility.yul\":16587:16599   */\n      revert\n\n    auxdata: 0xa26469706673582212202f995ca203c8d3204dbfc5f043af1255423830a84a94e3289a4574963bf11a6464736f6c63430008070033\n}\n",
				"bytecode": {
					"linkReferences": {},
					"object": "60806040526000600955600d805461ffff60a01b1916601960a21b1790553480156200002a57600080fd5b5060405162002655380380620026558339810160408190526200004d9162000102565b6200005833620000b2565b60018055600280546001600160a01b03199081166001600160a01b03968716179091556003805482169490951693909317909355600a55600691909155600480543390831681179091556005805490921617905562000168565b600080546001600160a01b038381166001600160a01b0319831681178455604051919092169283917f8be0079c531659141344cd1fd0a4f28419497f9722a3daafe3b4186f6b6457e09190a35050565b600080600080608085870312156200011957600080fd5b845162000126816200014f565b602086015190945062000139816200014f565b6040860151606090960151949790965092505050565b6001600160a01b03811681146200016557600080fd5b50565b6124dd80620001786000396000f3fe608060405234801561001057600080fd5b506004361061021c5760003560e01c8063630b5ba11161012557806393f1a40b116100ad578063ba13a5721161007c578063ba13a57214610500578063d0d41fe114610513578063d30ef61b14610526578063de73149d1461053b578063f2fde38b1461054557600080fd5b806393f1a40b1461046757806399335c39146104c7578063a6530050146104da578063af018de8146104ed57600080fd5b80638aa28550116100f45780638aa285501461041f5780638da5cb5b146104275780638dbb1e3a146104385780638dbdbe6d1461044b5780638f97f54c1461045e57600080fd5b8063630b5ba1146103f35780636497aa90146103fb578063715018a6146104045780638705fcd41461040c57600080fd5b80633ad10ef6116101a857806348b22bfb1161017757806348b22bfb1461039557806348cd4cb1146103b157806351eb05a6146103ba5780635312ea8e146103cd57806355dbc826146103e057600080fd5b80633ad10ef6146103535780634127535814610366578063441a3e7014610379578063474fa6301461038c57600080fd5b80632143e545116101ef5780632143e545146102a4578063251b7e89146102b757806327ddb5a9146102e25780632e6c998d146102f45780632f1536b81461034057600080fd5b8063081e3eda146102215780630ba84cd2146102385780631526fe271461024d57806317caf6f11461029b575b600080fd5b6007545b6040519081526020015b60405180910390f35b61024b610246366004612189565b610558565b005b61026061025b366004612189565b6105d6565b604080516001600160a01b039097168752602087019590955293850192909252606084015261ffff16608083015260a082015260c00161022f565b61022560095481565b61024b6102b23660046122a5565b61062d565b600d546102ca906001600160a01b031681565b6040516001600160a01b03909116815260200161022f565b6102256a422ca8b0a00a425000000081565b6103306103023660046121bb565b60009182526008602090815260408084206001600160a01b0393909316845291905290206003015442101590565b604051901515815260200161022f565b61024b61034e3660046120f8565b6107fd565b6004546102ca906001600160a01b031681565b6005546102ca906001600160a01b031681565b61024b61038736600461224a565b610849565b610225600b5481565b61039e6103e881565b60405161ffff909116815260200161022f565b610225600a5481565b61024b6103c8366004612189565b61099b565b61024b6103db366004612189565b610c42565b61024b6103ee36600461214f565b610d14565b61024b610ded565b610225600c5481565b61024b610e18565b61024b61041a3660046120f8565b610e4e565b610225600181565b6000546001600160a01b03166102ca565b61022561044636600461224a565b610f16565b61024b61045936600461226c565b610f2e565b61022560065481565b6104a76104753660046121bb565b600860209081526000928352604080842090915290825290208054600182015460028301546003909301549192909184565b60408051948552602085019390935291830152606082015260800161022f565b6102256104d53660046121bb565b611287565b6003546102ca906001600160a01b031681565b61024b6104fb3660046121eb565b61140e565b6002546102ca906001600160a01b031681565b61024b6105213660046120f8565b61167f565b600d5461039e90600160a01b900461ffff1681565b6102256212750081565b61024b6105533660046120f8565b611747565b6000546001600160a01b0316331461058b5760405162461bcd60e51b815260040161058290612325565b60405180910390fd5b610593610ded565b600654604080519182526020820183905233917feedc6338c9c1ad8f3cd6c90dd09dbe98dbd57e610d3e59a17996d07acb0d9511910160405180910390a2600655565b600781815481106105e657600080fd5b60009182526020909120600690910201805460018201546002830154600384015460048501546005909501546001600160a01b0390941695509193909261ffff9091169086565b6000546001600160a01b031633146106575760405162461bcd60e51b815260040161058290612325565b6127108361ffff1611156106bb5760405162461bcd60e51b815260206004820152602560248201527f7365743a20696e76616c6964206465706f7369742066656520626173697320706044820152646f696e747360d81b6064820152608401610582565b6212750082111561070e5760405162461bcd60e51b815260206004820152601d60248201527f7365743a20696e76616c6964206861727665737420696e74657276616c0000006044820152606401610582565b801561071c5761071c610ded565b61075f84610759600788815481106107365761073661245e565b9060005260206000209060060201600101546009546117e290919063ffffffff16565b906117ee565b60098190555083600786815481106107795761077961245e565b90600052602060002090600602016001018190555082600786815481106107a2576107a261245e565b906000526020600020906006020160040160006101000a81548161ffff021916908361ffff16021790555081600786815481106107e1576107e161245e565b9060005260206000209060060201600501819055505050505050565b6000546001600160a01b031633146108275760405162461bcd60e51b815260040161058290612325565b600d80546001600160a01b0319166001600160a01b0392909216919091179055565b6002600154141561086c5760405162461bcd60e51b81526004016105829061235a565b60026001819055506000600783815481106108895761088961245e565b6000918252602080832086845260088252604080852033865290925292208054600690920290920192508311156108f75760405162461bcd60e51b81526020600482015260126024820152711dda5d1a191c985dce881b9bdd0819dbdbd960721b6044820152606401610582565b6109008461099b565b610909846117fa565b821561093357805461091b90846117e2565b81558154610933906001600160a01b03163385611999565b600382015481546109549164e8d4a510009161094e916119f0565b906119fc565b6001820155604051838152849033907ff279e6a1f5e320cca91135676d9cb6e44ca8a08c0b88342bcdb1144f6511b568906020015b60405180910390a35050600180555050565b6a422ca8b0a00a4250000000600c5411156109ea5760405162461bcd60e51b815260206004820152600f60248201526e4e6f206d6f7265207374616b696e6760881b6044820152606401610582565b6000600782815481106109ff576109ff61245e565b9060005260206000209060060201905080600201544311610a1e575050565b80546040516370a0823160e01b81523060048201526000916001600160a01b0316906370a082319060240160206040518083038186803b158015610a6157600080fd5b505afa158015610a75573d6000803e3d6000fd5b505050506040513d601f19601f82011682018060405250810190610a9991906121a2565b9050801580610aaa57506001820154155b15610aba57504360029091015550565b6000610aca836002015443610f16565b90506000610af760095461094e8660010154610af1600654876119f090919063ffffffff16565b906119f0565b9050610b1a610b11610b0a83600a6119fc565b83906117ee565b600c54906117ee565b600c556003546040516340c10f1960e01b8152306004820152602481018390526001600160a01b03909116906340c10f1990604401600060405180830381600087803b158015610b6957600080fd5b505af1158015610b7d573d6000803e3d6000fd5b50506003546004546001600160a01b0391821693506340c10f19925016610ba584600a6119fc565b6040516001600160e01b031960e085901b1681526001600160a01b0390921660048301526024820152604401600060405180830381600087803b158015610beb57600080fd5b505af1158015610bff573d6000803e3d6000fd5b50505050610c2d610c228461094e64e8d4a51000856119f090919063ffffffff16565b6003860154906117ee565b60038501555050436002909201919091555050565b60026001541415610c655760405162461bcd60e51b81526004016105829061235a565b6002600181905550600060078281548110610c8257610c8261245e565b6000918252602080832085845260088252604080852033808752935284208054858255600182018690556002820186905560038201959095556006909302018054909450919291610ce0916001600160a01b03919091169083611999565b604051818152849033907fbb757047c2b5f3974fe26b7c10f732e7bce710b0952a71082702781e62ae059590602001610989565b6000546001600160a01b03163314610d3e5760405162461bcd60e51b815260040161058290612325565b6103e861ffff82161115610dcb5760405162461bcd60e51b815260206004820152604860248201527f736574526566657272616c436f6d6d697373696f6e526174653a20696e76616c60448201527f696420726566657272616c20636f6d6d697373696f6e207261746520626173696064820152677320706f696e747360c01b608482015260a401610582565b600d805461ffff909216600160a01b0261ffff60a01b19909216919091179055565b60075460005b81811015610e1457610e048161099b565b610e0d8161242d565b9050610df3565b5050565b6000546001600160a01b03163314610e425760405162461bcd60e51b815260040161058290612325565b610e4c6000611a08565b565b6005546001600160a01b03163314610ea85760405162461bcd60e51b815260206004820152601860248201527f736574466565416464726573733a20464f5242494444454e00000000000000006044820152606401610582565b6001600160a01b038116610ef45760405162461bcd60e51b8152602060048201526013602482015272736574466565416464726573733a205a45524f60681b6044820152606401610582565b600580546001600160a01b0319166001600160a01b0392909216919091179055565b6000610f276001610af184866117e2565b9392505050565b60026001541415610f515760405162461bcd60e51b81526004016105829061235a565b6002600181905550600060078481548110610f6e57610f6e61245e565b60009182526020808320878452600882526040808520338652909252922060069091029091019150610f9f8561099b565b600084118015610fb95750600d546001600160a01b031615155b8015610fcd57506001600160a01b03831615155b8015610fe257506001600160a01b0383163314155b1561104d57600d54604051630c7f7b6b60e01b81523360048201526001600160a01b03858116602483015290911690630c7f7b6b90604401600060405180830381600087803b15801561103457600080fd5b505af1158015611048573d6000803e3d6000fd5b505050505b611056856117fa565b83156112255781546040516323b872dd60e01b8152336004820152306024820152604481018690526001600160a01b03909116906323b872dd90606401602060405180830381600087803b1580156110ad57600080fd5b505af11580156110c1573d6000803e3d6000fd5b505050506040513d601f19601f820116820180604052508101906110e59190612132565b5060025482546001600160a01b03908116911614156111aa57600061119a61271061094e600260009054906101000a90046001600160a01b03166001600160a01b031663b65d08b06040518163ffffffff1660e01b815260040160206040518083038186803b15801561115757600080fd5b505afa15801561116b573d6000803e3d6000fd5b505050506040513d601f19601f8201168201806040525081019061118f919061216c565b889061ffff166119f0565b90506111a685826117e2565b9450505b600482015461ffff16156112165760048201546000906111d7906127109061094e90889061ffff166119f0565b60055484549192506111f6916001600160a01b03908116911683611999565b815461120e90829061120890886117ee565b906117e2565b825550611225565b805461122290856117ee565b81555b600382015481546112409164e8d4a510009161094e916119f0565b6001820155604051848152859033907f90890809c654f11d6e72a28fa60149770a0d11ec6c92319d6ceb2bb0a4ea1a159060200160405180910390a3505060018055505050565b6000806007848154811061129d5761129d61245e565b600091825260208083208784526008825260408085206001600160a01b03898116875293528085206006949094029091016003810154815492516370a0823160e01b815230600482015291965093949291909116906370a082319060240160206040518083038186803b15801561131357600080fd5b505afa158015611327573d6000803e3d6000fd5b505050506040513d601f19601f8201168201806040525081019061134b91906121a2565b905083600201544311801561135f57508015155b156113bf576000611374856002015443610f16565b9050600061139b60095461094e8860010154610af1600654876119f090919063ffffffff16565b90506113ba6113b38461094e8464e8d4a510006119f0565b85906117ee565b935050505b60006113e9846001015461120864e8d4a5100061094e8789600001546119f090919063ffffffff16565b90506114028460020154826117ee90919063ffffffff16565b98975050505050505050565b6000546001600160a01b031633146114385760405162461bcd60e51b815260040161058290612325565b6127108361ffff16111561149c5760405162461bcd60e51b815260206004820152602560248201527f6164643a20696e76616c6964206465706f7369742066656520626173697320706044820152646f696e747360d81b6064820152608401610582565b621275008211156114ef5760405162461bcd60e51b815260206004820152601d60248201527f6164643a20696e76616c6964206861727665737420696e74657276616c0000006044820152606401610582565b80156114fd576114fd610ded565b6000600a54431161151057600a54611512565b435b60095490915061152290876117ee565b6009556040805160c0810182526001600160a01b0396871681526020810197885290810191825260006060820181815261ffff9687166080840190815260a0840196875260078054600181018255935292517fa66cc928b5edb82af9bd49922954155ab7b0942694bea4ce44661d9a8736c688600690930292830180546001600160a01b031916919099161790975596517fa66cc928b5edb82af9bd49922954155ab7b0942694bea4ce44661d9a8736c68988015590517fa66cc928b5edb82af9bd49922954155ab7b0942694bea4ce44661d9a8736c68a87015593517fa66cc928b5edb82af9bd49922954155ab7b0942694bea4ce44661d9a8736c68b8601555091517fa66cc928b5edb82af9bd49922954155ab7b0942694bea4ce44661d9a8736c68c8401805461ffff191691909216179055517fa66cc928b5edb82af9bd49922954155ab7b0942694bea4ce44661d9a8736c68d90910155565b6004546001600160a01b031633146116d95760405162461bcd60e51b815260206004820152601860248201527f736574446576416464726573733a20464f5242494444454e00000000000000006044820152606401610582565b6001600160a01b0381166117255760405162461bcd60e51b8152602060048201526013602482015272736574446576416464726573733a205a45524f60681b6044820152606401610582565b600480546001600160a01b0319166001600160a01b0392909216919091179055565b6000546001600160a01b031633146117715760405162461bcd60e51b815260040161058290612325565b6001600160a01b0381166117d65760405162461bcd60e51b815260206004820152602660248201527f4f776e61626c653a206e6577206f776e657220697320746865207a65726f206160448201526564647265737360d01b6064820152608401610582565b6117df81611a08565b50565b6000610f2782846123ea565b6000610f278284612391565b60006007828154811061180f5761180f61245e565b6000918252602080832085845260088252604080852033865290925292206003810154600690920290920192506118565760058201546118509042906117ee565b60038201555b6000611884826001015461120864e8d4a5100061094e876003015487600001546119f090919063ffffffff16565b600085815260086020908152604080832033845290915290206003015490915042106119305760008111806118bd575060008260020154115b1561192b5760006118db8360020154836117ee90919063ffffffff16565b90506118f68360020154600b546117e290919063ffffffff16565b600b556000600284015560058401546119109042906117ee565b600384015561191f3382611a58565b6119293382611b9e565b505b611993565b801561199357600282015461194590826117ee565b6002830155600b5461195790826117ee565b600b55604051818152849033907fee470483107f579a55c754fa00613c45a9a3b617a418b39cb0be97e5381ba7c1906020015b60405180910390a35b50505050565b604080516001600160a01b038416602482015260448082018490528251808303909101815260649091019091526020810180516001600160e01b031663a9059cbb60e01b1790526119eb908490611ea5565b505050565b6000610f2782846123cb565b6000610f2782846123a9565b600080546001600160a01b038381166001600160a01b0319831681178455604051919092169283917f8be0079c531659141344cd1fd0a4f28419497f9722a3daafe3b4186f6b6457e09190a35050565b6002546040516370a0823160e01b81523060048201526000916001600160a01b0316906370a082319060240160206040518083038186803b158015611a9c57600080fd5b505afa158015611ab0573d6000803e3d6000fd5b505050506040513d601f19601f82011682018060405250810190611ad491906121a2565b905080821115611b655760025460405163a9059cbb60e01b81526001600160a01b038581166004830152602482018490529091169063a9059cbb906044015b602060405180830381600087803b158015611b2d57600080fd5b505af1158015611b41573d6000803e3d6000fd5b505050506040513d601f19601f820116820180604052508101906119939190612132565b60025460405163a9059cbb60e01b81526001600160a01b038581166004830152602482018590529091169063a9059cbb90604401611b13565b600d546001600160a01b031615801590611bc45750600d54600160a01b900461ffff1615155b15610e1457600d54604051634a9fefc760e01b81526001600160a01b0384811660048301526000921690634a9fefc79060240160206040518083038186803b158015611c0f57600080fd5b505afa158015611c23573d6000803e3d6000fd5b505050506040513d601f19601f82011682018060405250810190611c479190612115565b600d54909150600090611c6e906127109061094e908690600160a01b900461ffff166119f0565b90506001600160a01b03821615801590611c885750600081115b15611993576002546040516370a0823160e01b815230600482015282916001600160a01b0316906370a082319060240160206040518083038186803b158015611cd057600080fd5b505afa158015611ce4573d6000803e3d6000fd5b505050506040513d601f19601f82011682018060405250810190611d0891906121a2565b1015611d73576003546040516340c10f1960e01b8152306004820152602481018390526001600160a01b03909116906340c10f1990604401600060405180830381600087803b158015611d5a57600080fd5b505af1158015611d6e573d6000803e3d6000fd5b505050505b60025460405163a9059cbb60e01b81526001600160a01b038481166004830152602482018490529091169063a9059cbb90604401602060405180830381600087803b158015611dc157600080fd5b505af1158015611dd5573d6000803e3d6000fd5b505050506040513d601f19601f82011682018060405250810190611df99190612132565b50600d54604051631b82d29760e31b81526001600160a01b038481166004830152602482018490529091169063dc1694b890604401600060405180830381600087803b158015611e4857600080fd5b505af1158015611e5c573d6000803e3d6000fd5b50505050816001600160a01b0316846001600160a01b03167f86ddab457291316e0f5496737e5ca67c4037234c32c3be04c48ae96186893a7b8360405161198a91815260200190565b6000611efa826040518060400160405280602081526020017f5361666545524332303a206c6f772d6c6576656c2063616c6c206661696c6564815250856001600160a01b0316611f779092919063ffffffff16565b8051909150156119eb5780806020019051810190611f189190612132565b6119eb5760405162461bcd60e51b815260206004820152602a60248201527f5361666545524332303a204552433230206f7065726174696f6e20646964206e6044820152691bdd081cdd58d8d9595960b21b6064820152608401610582565b6060611f868484600085611f8e565b949350505050565b606082471015611fef5760405162461bcd60e51b815260206004820152602660248201527f416464726573733a20696e73756666696369656e742062616c616e636520666f6044820152651c8818d85b1b60d21b6064820152608401610582565b6001600160a01b0385163b6120465760405162461bcd60e51b815260206004820152601d60248201527f416464726573733a2063616c6c20746f206e6f6e2d636f6e74726163740000006044820152606401610582565b600080866001600160a01b0316858760405161206291906122d6565b60006040518083038185875af1925050503d806000811461209f576040519150601f19603f3d011682016040523d82523d6000602084013e6120a4565b606091505b50915091506120b48282866120bf565b979650505050505050565b606083156120ce575081610f27565b8251156120de5782518084602001fd5b8160405162461bcd60e51b815260040161058291906122f2565b60006020828403121561210a57600080fd5b8135610f2781612474565b60006020828403121561212757600080fd5b8151610f2781612474565b60006020828403121561214457600080fd5b8151610f2781612489565b60006020828403121561216157600080fd5b8135610f2781612497565b60006020828403121561217e57600080fd5b8151610f2781612497565b60006020828403121561219b57600080fd5b5035919050565b6000602082840312156121b457600080fd5b5051919050565b600080604083850312156121ce57600080fd5b8235915060208301356121e081612474565b809150509250929050565b600080600080600060a0868803121561220357600080fd5b85359450602086013561221581612474565b9350604086013561222581612497565b925060608601359150608086013561223c81612489565b809150509295509295909350565b6000806040838503121561225d57600080fd5b50508035926020909101359150565b60008060006060848603121561228157600080fd5b8335925060208401359150604084013561229a81612474565b809150509250925092565b600080600080600060a086880312156122bd57600080fd5b8535945060208601359350604086013561222581612497565b600082516122e8818460208701612401565b9190910192915050565b6020815260008251806020840152612311816040850160208701612401565b601f01601f19169190910160400192915050565b6020808252818101527f4f776e61626c653a2063616c6c6572206973206e6f7420746865206f776e6572604082015260600190565b6020808252601f908201527f5265656e7472616e637947756172643a207265656e7472616e742063616c6c00604082015260600190565b600082198211156123a4576123a4612448565b500190565b6000826123c657634e487b7160e01b600052601260045260246000fd5b500490565b60008160001904831182151516156123e5576123e5612448565b500290565b6000828210156123fc576123fc612448565b500390565b60005b8381101561241c578181015183820152602001612404565b838111156119935750506000910152565b600060001982141561244157612441612448565b5060010190565b634e487b7160e01b600052601160045260246000fd5b634e487b7160e01b600052603260045260246000fd5b6001600160a01b03811681146117df57600080fd5b80151581146117df57600080fd5b61ffff811681146117df57600080fdfea26469706673582212202f995ca203c8d3204dbfc5f043af1255423830a84a94e3289a4574963bf11a6464736f6c63430008070033",
					"opcodes": "PUSH1 0x80 PUSH1 0x40 MSTORE PUSH1 0x0 PUSH1 0x9 SSTORE PUSH1 0xD DUP1 SLOAD PUSH2 0xFFFF PUSH1 0xA0 SHL NOT AND PUSH1 0x19 PUSH1 0xA2 SHL OR SWAP1 SSTORE CALLVALUE DUP1 ISZERO PUSH3 0x2A JUMPI PUSH1 0x0 DUP1 REVERT JUMPDEST POP PUSH1 0x40 MLOAD PUSH3 0x2655 CODESIZE SUB DUP1 PUSH3 0x2655 DUP4 CODECOPY DUP2 ADD PUSH1 0x40 DUP2 SWAP1 MSTORE PUSH3 0x4D SWAP2 PUSH3 0x102 JUMP JUMPDEST PUSH3 0x58 CALLER PUSH3 0xB2 JUMP JUMPDEST PUSH1 0x1 DUP1 SSTORE PUSH1 0x2 DUP1 SLOAD PUSH1 0x1 PUSH1 0x1 PUSH1 0xA0 SHL SUB NOT SWAP1 DUP2 AND PUSH1 0x1 PUSH1 0x1 PUSH1 0xA0 SHL SUB SWAP7 DUP8 AND OR SWAP1 SWAP2 SSTORE PUSH1 0x3 DUP1 SLOAD DUP3 AND SWAP5 SWAP1 SWAP6 AND SWAP4 SWAP1 SWAP4 OR SWAP1 SWAP4 SSTORE PUSH1 0xA SSTORE PUSH1 0x6 SWAP2 SWAP1 SWAP2 SSTORE PUSH1 0x4 DUP1 SLOAD CALLER SWAP1 DUP4 AND DUP2 OR SWAP1 SWAP2 SSTORE PUSH1 0x5 DUP1 SLOAD SWAP1 SWAP3 AND OR SWAP1 SSTORE PUSH3 0x168 JUMP JUMPDEST PUSH1 0x0 DUP1 SLOAD PUSH1 0x1 PUSH1 0x1 PUSH1 0xA0 SHL SUB DUP4 DUP2 AND PUSH1 0x1 PUSH1 0x1 PUSH1 0xA0 SHL SUB NOT DUP4 AND DUP2 OR DUP5 SSTORE PUSH1 0x40 MLOAD SWAP2 SWAP1 SWAP3 AND SWAP3 DUP4 SWAP2 PUSH32 0x8BE0079C531659141344CD1FD0A4F28419497F9722A3DAAFE3B4186F6B6457E0 SWAP2 SWAP1 LOG3 POP POP JUMP JUMPDEST PUSH1 0x0 DUP1 PUSH1 0x0 DUP1 PUSH1 0x80 DUP6 DUP8 SUB SLT ISZERO PUSH3 0x119 JUMPI PUSH1 0x0 DUP1 REVERT JUMPDEST DUP5 MLOAD PUSH3 0x126 DUP2 PUSH3 0x14F JUMP JUMPDEST PUSH1 0x20 DUP7 ADD MLOAD SWAP1 SWAP5 POP PUSH3 0x139 DUP2 PUSH3 0x14F JUMP JUMPDEST PUSH1 0x40 DUP7 ADD MLOAD PUSH1 0x60 SWAP1 SWAP7 ADD MLOAD SWAP5 SWAP8 SWAP1 SWAP7 POP SWAP3 POP POP POP JUMP JUMPDEST PUSH1 0x1 PUSH1 0x1 PUSH1 0xA0 SHL SUB DUP2 AND DUP2 EQ PUSH3 0x165 JUMPI PUSH1 0x0 DUP1 REVERT JUMPDEST POP JUMP JUMPDEST PUSH2 0x24DD DUP1 PUSH3 0x178 PUSH1 0x0 CODECOPY PUSH1 0x0 RETURN INVALID PUSH1 0x80 PUSH1 0x40 MSTORE CALLVALUE DUP1 ISZERO PUSH2 0x10 JUMPI PUSH1 0x0 DUP1 REVERT JUMPDEST POP PUSH1 0x4 CALLDATASIZE LT PUSH2 0x21C JUMPI PUSH1 0x0 CALLDATALOAD PUSH1 0xE0 SHR DUP1 PUSH4 0x630B5BA1 GT PUSH2 0x125 JUMPI DUP1 PUSH4 0x93F1A40B GT PUSH2 0xAD JUMPI DUP1 PUSH4 0xBA13A572 GT PUSH2 0x7C JUMPI DUP1 PUSH4 0xBA13A572 EQ PUSH2 0x500 JUMPI DUP1 PUSH4 0xD0D41FE1 EQ PUSH2 0x513 JUMPI DUP1 PUSH4 0xD30EF61B EQ PUSH2 0x526 JUMPI DUP1 PUSH4 0xDE73149D EQ PUSH2 0x53B JUMPI DUP1 PUSH4 0xF2FDE38B EQ PUSH2 0x545 JUMPI PUSH1 0x0 DUP1 REVERT JUMPDEST DUP1 PUSH4 0x93F1A40B EQ PUSH2 0x467 JUMPI DUP1 PUSH4 0x99335C39 EQ PUSH2 0x4C7 JUMPI DUP1 PUSH4 0xA6530050 EQ PUSH2 0x4DA JUMPI DUP1 PUSH4 0xAF018DE8 EQ PUSH2 0x4ED JUMPI PUSH1 0x0 DUP1 REVERT JUMPDEST DUP1 PUSH4 0x8AA28550 GT PUSH2 0xF4 JUMPI DUP1 PUSH4 0x8AA28550 EQ PUSH2 0x41F JUMPI DUP1 PUSH4 0x8DA5CB5B EQ PUSH2 0x427 JUMPI DUP1 PUSH4 0x8DBB1E3A EQ PUSH2 0x438 JUMPI DUP1 PUSH4 0x8DBDBE6D EQ PUSH2 0x44B JUMPI DUP1 PUSH4 0x8F97F54C EQ PUSH2 0x45E JUMPI PUSH1 0x0 DUP1 REVERT JUMPDEST DUP1 PUSH4 0x630B5BA1 EQ PUSH2 0x3F3 JUMPI DUP1 PUSH4 0x6497AA90 EQ PUSH2 0x3FB JUMPI DUP1 PUSH4 0x715018A6 EQ PUSH2 0x404 JUMPI DUP1 PUSH4 0x8705FCD4 EQ PUSH2 0x40C JUMPI PUSH1 0x0 DUP1 REVERT JUMPDEST DUP1 PUSH4 0x3AD10EF6 GT PUSH2 0x1A8 JUMPI DUP1 PUSH4 0x48B22BFB GT PUSH2 0x177 JUMPI DUP1 PUSH4 0x48B22BFB EQ PUSH2 0x395 JUMPI DUP1 PUSH4 0x48CD4CB1 EQ PUSH2 0x3B1 JUMPI DUP1 PUSH4 0x51EB05A6 EQ PUSH2 0x3BA JUMPI DUP1 PUSH4 0x5312EA8E EQ PUSH2 0x3CD JUMPI DUP1 PUSH4 0x55DBC826 EQ PUSH2 0x3E0 JUMPI PUSH1 0x0 DUP1 REVERT JUMPDEST DUP1 PUSH4 0x3AD10EF6 EQ PUSH2 0x353 JUMPI DUP1 PUSH4 0x41275358 EQ PUSH2 0x366 JUMPI DUP1 PUSH4 0x441A3E70 EQ PUSH2 0x379 JUMPI DUP1 PUSH4 0x474FA630 EQ PUSH2 0x38C JUMPI PUSH1 0x0 DUP1 REVERT JUMPDEST DUP1 PUSH4 0x2143E545 GT PUSH2 0x1EF JUMPI DUP1 PUSH4 0x2143E545 EQ PUSH2 0x2A4 JUMPI DUP1 PUSH4 0x251B7E89 EQ PUSH2 0x2B7 JUMPI DUP1 PUSH4 0x27DDB5A9 EQ PUSH2 0x2E2 JUMPI DUP1 PUSH4 0x2E6C998D EQ PUSH2 0x2F4 JUMPI DUP1 PUSH4 0x2F1536B8 EQ PUSH2 0x340 JUMPI PUSH1 0x0 DUP1 REVERT JUMPDEST DUP1 PUSH4 0x81E3EDA EQ PUSH2 0x221 JUMPI DUP1 PUSH4 0xBA84CD2 EQ PUSH2 0x238 JUMPI DUP1 PUSH4 0x1526FE27 EQ PUSH2 0x24D JUMPI DUP1 PUSH4 0x17CAF6F1 EQ PUSH2 0x29B JUMPI JUMPDEST PUSH1 0x0 DUP1 REVERT JUMPDEST PUSH1 0x7 SLOAD JUMPDEST PUSH1 0x40 MLOAD SWAP1 DUP2 MSTORE PUSH1 0x20 ADD JUMPDEST PUSH1 0x40 MLOAD DUP1 SWAP2 SUB SWAP1 RETURN JUMPDEST PUSH2 0x24B PUSH2 0x246 CALLDATASIZE PUSH1 0x4 PUSH2 0x2189 JUMP JUMPDEST PUSH2 0x558 JUMP JUMPDEST STOP JUMPDEST PUSH2 0x260 PUSH2 0x25B CALLDATASIZE PUSH1 0x4 PUSH2 0x2189 JUMP JUMPDEST PUSH2 0x5D6 JUMP JUMPDEST PUSH1 0x40 DUP1 MLOAD PUSH1 0x1 PUSH1 0x1 PUSH1 0xA0 SHL SUB SWAP1 SWAP8 AND DUP8 MSTORE PUSH1 0x20 DUP8 ADD SWAP6 SWAP1 SWAP6 MSTORE SWAP4 DUP6 ADD SWAP3 SWAP1 SWAP3 MSTORE PUSH1 0x60 DUP5 ADD MSTORE PUSH2 0xFFFF AND PUSH1 0x80 DUP4 ADD MSTORE PUSH1 0xA0 DUP3 ADD MSTORE PUSH1 0xC0 ADD PUSH2 0x22F JUMP JUMPDEST PUSH2 0x225 PUSH1 0x9 SLOAD DUP2 JUMP JUMPDEST PUSH2 0x24B PUSH2 0x2B2 CALLDATASIZE PUSH1 0x4 PUSH2 0x22A5 JUMP JUMPDEST PUSH2 0x62D JUMP JUMPDEST PUSH1 0xD SLOAD PUSH2 0x2CA SWAP1 PUSH1 0x1 PUSH1 0x1 PUSH1 0xA0 SHL SUB AND DUP2 JUMP JUMPDEST PUSH1 0x40 MLOAD PUSH1 0x1 PUSH1 0x1 PUSH1 0xA0 SHL SUB SWAP1 SWAP2 AND DUP2 MSTORE PUSH1 0x20 ADD PUSH2 0x22F JUMP JUMPDEST PUSH2 0x225 PUSH11 0x422CA8B0A00A4250000000 DUP2 JUMP JUMPDEST PUSH2 0x330 PUSH2 0x302 CALLDATASIZE PUSH1 0x4 PUSH2 0x21BB JUMP JUMPDEST PUSH1 0x0 SWAP2 DUP3 MSTORE PUSH1 0x8 PUSH1 0x20 SWAP1 DUP2 MSTORE PUSH1 0x40 DUP1 DUP5 KECCAK256 PUSH1 0x1 PUSH1 0x1 PUSH1 0xA0 SHL SUB SWAP4 SWAP1 SWAP4 AND DUP5 MSTORE SWAP2 SWAP1 MSTORE SWAP1 KECCAK256 PUSH1 0x3 ADD SLOAD TIMESTAMP LT ISZERO SWAP1 JUMP JUMPDEST PUSH1 0x40 MLOAD SWAP1 ISZERO ISZERO DUP2 MSTORE PUSH1 0x20 ADD PUSH2 0x22F JUMP JUMPDEST PUSH2 0x24B PUSH2 0x34E CALLDATASIZE PUSH1 0x4 PUSH2 0x20F8 JUMP JUMPDEST PUSH2 0x7FD JUMP JUMPDEST PUSH1 0x4 SLOAD PUSH2 0x2CA SWAP1 PUSH1 0x1 PUSH1 0x1 PUSH1 0xA0 SHL SUB AND DUP2 JUMP JUMPDEST PUSH1 0x5 SLOAD PUSH2 0x2CA SWAP1 PUSH1 0x1 PUSH1 0x1 PUSH1 0xA0 SHL SUB AND DUP2 JUMP JUMPDEST PUSH2 0x24B PUSH2 0x387 CALLDATASIZE PUSH1 0x4 PUSH2 0x224A JUMP JUMPDEST PUSH2 0x849 JUMP JUMPDEST PUSH2 0x225 PUSH1 0xB SLOAD DUP2 JUMP JUMPDEST PUSH2 0x39E PUSH2 0x3E8 DUP2 JUMP JUMPDEST PUSH1 0x40 MLOAD PUSH2 0xFFFF SWAP1 SWAP2 AND DUP2 MSTORE PUSH1 0x20 ADD PUSH2 0x22F JUMP JUMPDEST PUSH2 0x225 PUSH1 0xA SLOAD DUP2 JUMP JUMPDEST PUSH2 0x24B PUSH2 0x3C8 CALLDATASIZE PUSH1 0x4 PUSH2 0x2189 JUMP JUMPDEST PUSH2 0x99B JUMP JUMPDEST PUSH2 0x24B PUSH2 0x3DB CALLDATASIZE PUSH1 0x4 PUSH2 0x2189 JUMP JUMPDEST PUSH2 0xC42 JUMP JUMPDEST PUSH2 0x24B PUSH2 0x3EE CALLDATASIZE PUSH1 0x4 PUSH2 0x214F JUMP JUMPDEST PUSH2 0xD14 JUMP JUMPDEST PUSH2 0x24B PUSH2 0xDED JUMP JUMPDEST PUSH2 0x225 PUSH1 0xC SLOAD DUP2 JUMP JUMPDEST PUSH2 0x24B PUSH2 0xE18 JUMP JUMPDEST PUSH2 0x24B PUSH2 0x41A CALLDATASIZE PUSH1 0x4 PUSH2 0x20F8 JUMP JUMPDEST PUSH2 0xE4E JUMP JUMPDEST PUSH2 0x225 PUSH1 0x1 DUP2 JUMP JUMPDEST PUSH1 0x0 SLOAD PUSH1 0x1 PUSH1 0x1 PUSH1 0xA0 SHL SUB AND PUSH2 0x2CA JUMP JUMPDEST PUSH2 0x225 PUSH2 0x446 CALLDATASIZE PUSH1 0x4 PUSH2 0x224A JUMP JUMPDEST PUSH2 0xF16 JUMP JUMPDEST PUSH2 0x24B PUSH2 0x459 CALLDATASIZE PUSH1 0x4 PUSH2 0x226C JUMP JUMPDEST PUSH2 0xF2E JUMP JUMPDEST PUSH2 0x225 PUSH1 0x6 SLOAD DUP2 JUMP JUMPDEST PUSH2 0x4A7 PUSH2 0x475 CALLDATASIZE PUSH1 0x4 PUSH2 0x21BB JUMP JUMPDEST PUSH1 0x8 PUSH1 0x20 SWAP1 DUP2 MSTORE PUSH1 0x0 SWAP3 DUP4 MSTORE PUSH1 0x40 DUP1 DUP5 KECCAK256 SWAP1 SWAP2 MSTORE SWAP1 DUP3 MSTORE SWAP1 KECCAK256 DUP1 SLOAD PUSH1 0x1 DUP3 ADD SLOAD PUSH1 0x2 DUP4 ADD SLOAD PUSH1 0x3 SWAP1 SWAP4 ADD SLOAD SWAP2 SWAP3 SWAP1 SWAP2 DUP5 JUMP JUMPDEST PUSH1 0x40 DUP1 MLOAD SWAP5 DUP6 MSTORE PUSH1 0x20 DUP6 ADD SWAP4 SWAP1 SWAP4 MSTORE SWAP2 DUP4 ADD MSTORE PUSH1 0x60 DUP3 ADD MSTORE PUSH1 0x80 ADD PUSH2 0x22F JUMP JUMPDEST PUSH2 0x225 PUSH2 0x4D5 CALLDATASIZE PUSH1 0x4 PUSH2 0x21BB JUMP JUMPDEST PUSH2 0x1287 JUMP JUMPDEST PUSH1 0x3 SLOAD PUSH2 0x2CA SWAP1 PUSH1 0x1 PUSH1 0x1 PUSH1 0xA0 SHL SUB AND DUP2 JUMP JUMPDEST PUSH2 0x24B PUSH2 0x4FB CALLDATASIZE PUSH1 0x4 PUSH2 0x21EB JUMP JUMPDEST PUSH2 0x140E JUMP JUMPDEST PUSH1 0x2 SLOAD PUSH2 0x2CA SWAP1 PUSH1 0x1 PUSH1 0x1 PUSH1 0xA0 SHL SUB AND DUP2 JUMP JUMPDEST PUSH2 0x24B PUSH2 0x521 CALLDATASIZE PUSH1 0x4 PUSH2 0x20F8 JUMP JUMPDEST PUSH2 0x167F JUMP JUMPDEST PUSH1 0xD SLOAD PUSH2 0x39E SWAP1 PUSH1 0x1 PUSH1 0xA0 SHL SWAP1 DIV PUSH2 0xFFFF AND DUP2 JUMP JUMPDEST PUSH2 0x225 PUSH3 0x127500 DUP2 JUMP JUMPDEST PUSH2 0x24B PUSH2 0x553 CALLDATASIZE PUSH1 0x4 PUSH2 0x20F8 JUMP JUMPDEST PUSH2 0x1747 JUMP JUMPDEST PUSH1 0x0 SLOAD PUSH1 0x1 PUSH1 0x1 PUSH1 0xA0 SHL SUB AND CALLER EQ PUSH2 0x58B JUMPI PUSH1 0x40 MLOAD PUSH3 0x461BCD PUSH1 0xE5 SHL DUP2 MSTORE PUSH1 0x4 ADD PUSH2 0x582 SWAP1 PUSH2 0x2325 JUMP JUMPDEST PUSH1 0x40 MLOAD DUP1 SWAP2 SUB SWAP1 REVERT JUMPDEST PUSH2 0x593 PUSH2 0xDED JUMP JUMPDEST PUSH1 0x6 SLOAD PUSH1 0x40 DUP1 MLOAD SWAP2 DUP3 MSTORE PUSH1 0x20 DUP3 ADD DUP4 SWAP1 MSTORE CALLER SWAP2 PUSH32 0xEEDC6338C9C1AD8F3CD6C90DD09DBE98DBD57E610D3E59A17996D07ACB0D9511 SWAP2 ADD PUSH1 0x40 MLOAD DUP1 SWAP2 SUB SWAP1 LOG2 PUSH1 0x6 SSTORE JUMP JUMPDEST PUSH1 0x7 DUP2 DUP2 SLOAD DUP2 LT PUSH2 0x5E6 JUMPI PUSH1 0x0 DUP1 REVERT JUMPDEST PUSH1 0x0 SWAP2 DUP3 MSTORE PUSH1 0x20 SWAP1 SWAP2 KECCAK256 PUSH1 0x6 SWAP1 SWAP2 MUL ADD DUP1 SLOAD PUSH1 0x1 DUP3 ADD SLOAD PUSH1 0x2 DUP4 ADD SLOAD PUSH1 0x3 DUP5 ADD SLOAD PUSH1 0x4 DUP6 ADD SLOAD PUSH1 0x5 SWAP1 SWAP6 ADD SLOAD PUSH1 0x1 PUSH1 0x1 PUSH1 0xA0 SHL SUB SWAP1 SWAP5 AND SWAP6 POP SWAP2 SWAP4 SWAP1 SWAP3 PUSH2 0xFFFF SWAP1 SWAP2 AND SWAP1 DUP7 JUMP JUMPDEST PUSH1 0x0 SLOAD PUSH1 0x1 PUSH1 0x1 PUSH1 0xA0 SHL SUB AND CALLER EQ PUSH2 0x657 JUMPI PUSH1 0x40 MLOAD PUSH3 0x461BCD PUSH1 0xE5 SHL DUP2 MSTORE PUSH1 0x4 ADD PUSH2 0x582 SWAP1 PUSH2 0x2325 JUMP JUMPDEST PUSH2 0x2710 DUP4 PUSH2 0xFFFF AND GT ISZERO PUSH2 0x6BB JUMPI PUSH1 0x40 MLOAD PUSH3 0x461BCD PUSH1 0xE5 SHL DUP2 MSTORE PUSH1 0x20 PUSH1 0x4 DUP3 ADD MSTORE PUSH1 0x25 PUSH1 0x24 DUP3 ADD MSTORE PUSH32 0x7365743A20696E76616C6964206465706F736974206665652062617369732070 PUSH1 0x44 DUP3 ADD MSTORE PUSH5 0x6F696E7473 PUSH1 0xD8 SHL PUSH1 0x64 DUP3 ADD MSTORE PUSH1 0x84 ADD PUSH2 0x582 JUMP JUMPDEST PUSH3 0x127500 DUP3 GT ISZERO PUSH2 0x70E JUMPI PUSH1 0x40 MLOAD PUSH3 0x461BCD PUSH1 0xE5 SHL DUP2 MSTORE PUSH1 0x20 PUSH1 0x4 DUP3 ADD MSTORE PUSH1 0x1D PUSH1 0x24 DUP3 ADD MSTORE PUSH32 0x7365743A20696E76616C6964206861727665737420696E74657276616C000000 PUSH1 0x44 DUP3 ADD MSTORE PUSH1 0x64 ADD PUSH2 0x582 JUMP JUMPDEST DUP1 ISZERO PUSH2 0x71C JUMPI PUSH2 0x71C PUSH2 0xDED JUMP JUMPDEST PUSH2 0x75F DUP5 PUSH2 0x759 PUSH1 0x7 DUP9 DUP2 SLOAD DUP2 LT PUSH2 0x736 JUMPI PUSH2 0x736 PUSH2 0x245E JUMP JUMPDEST SWAP1 PUSH1 0x0 MSTORE PUSH1 0x20 PUSH1 0x0 KECCAK256 SWAP1 PUSH1 0x6 MUL ADD PUSH1 0x1 ADD SLOAD PUSH1 0x9 SLOAD PUSH2 0x17E2 SWAP1 SWAP2 SWAP1 PUSH4 0xFFFFFFFF AND JUMP JUMPDEST SWAP1 PUSH2 0x17EE JUMP JUMPDEST PUSH1 0x9 DUP2 SWAP1 SSTORE POP DUP4 PUSH1 0x7 DUP7 DUP2 SLOAD DUP2 LT PUSH2 0x779 JUMPI PUSH2 0x779 PUSH2 0x245E JUMP JUMPDEST SWAP1 PUSH1 0x0 MSTORE PUSH1 0x20 PUSH1 0x0 KECCAK256 SWAP1 PUSH1 0x6 MUL ADD PUSH1 0x1 ADD DUP2 SWAP1 SSTORE POP DUP3 PUSH1 0x7 DUP7 DUP2 SLOAD DUP2 LT PUSH2 0x7A2 JUMPI PUSH2 0x7A2 PUSH2 0x245E JUMP JUMPDEST SWAP1 PUSH1 0x0 MSTORE PUSH1 0x20 PUSH1 0x0 KECCAK256 SWAP1 PUSH1 0x6 MUL ADD PUSH1 0x4 ADD PUSH1 0x0 PUSH2 0x100 EXP DUP2 SLOAD DUP2 PUSH2 0xFFFF MUL NOT AND SWAP1 DUP4 PUSH2 0xFFFF AND MUL OR SWAP1 SSTORE POP DUP2 PUSH1 0x7 DUP7 DUP2 SLOAD DUP2 LT PUSH2 0x7E1 JUMPI PUSH2 0x7E1 PUSH2 0x245E JUMP JUMPDEST SWAP1 PUSH1 0x0 MSTORE PUSH1 0x20 PUSH1 0x0 KECCAK256 SWAP1 PUSH1 0x6 MUL ADD PUSH1 0x5 ADD DUP2 SWAP1 SSTORE POP POP POP POP POP POP JUMP JUMPDEST PUSH1 0x0 SLOAD PUSH1 0x1 PUSH1 0x1 PUSH1 0xA0 SHL SUB AND CALLER EQ PUSH2 0x827 JUMPI PUSH1 0x40 MLOAD PUSH3 0x461BCD PUSH1 0xE5 SHL DUP2 MSTORE PUSH1 0x4 ADD PUSH2 0x582 SWAP1 PUSH2 0x2325 JUMP JUMPDEST PUSH1 0xD DUP1 SLOAD PUSH1 0x1 PUSH1 0x1 PUSH1 0xA0 SHL SUB NOT AND PUSH1 0x1 PUSH1 0x1 PUSH1 0xA0 SHL SUB SWAP3 SWAP1 SWAP3 AND SWAP2 SWAP1 SWAP2 OR SWAP1 SSTORE JUMP JUMPDEST PUSH1 0x2 PUSH1 0x1 SLOAD EQ ISZERO PUSH2 0x86C JUMPI PUSH1 0x40 MLOAD PUSH3 0x461BCD PUSH1 0xE5 SHL DUP2 MSTORE PUSH1 0x4 ADD PUSH2 0x582 SWAP1 PUSH2 0x235A JUMP JUMPDEST PUSH1 0x2 PUSH1 0x1 DUP2 SWAP1 SSTORE POP PUSH1 0x0 PUSH1 0x7 DUP4 DUP2 SLOAD DUP2 LT PUSH2 0x889 JUMPI PUSH2 0x889 PUSH2 0x245E JUMP JUMPDEST PUSH1 0x0 SWAP2 DUP3 MSTORE PUSH1 0x20 DUP1 DUP4 KECCAK256 DUP7 DUP5 MSTORE PUSH1 0x8 DUP3 MSTORE PUSH1 0x40 DUP1 DUP6 KECCAK256 CALLER DUP7 MSTORE SWAP1 SWAP3 MSTORE SWAP3 KECCAK256 DUP1 SLOAD PUSH1 0x6 SWAP1 SWAP3 MUL SWAP1 SWAP3 ADD SWAP3 POP DUP4 GT ISZERO PUSH2 0x8F7 JUMPI PUSH1 0x40 MLOAD PUSH3 0x461BCD PUSH1 0xE5 SHL DUP2 MSTORE PUSH1 0x20 PUSH1 0x4 DUP3 ADD MSTORE PUSH1 0x12 PUSH1 0x24 DUP3 ADD MSTORE PUSH18 0x1DDA5D1A191C985DCE881B9BDD0819DBDBD9 PUSH1 0x72 SHL PUSH1 0x44 DUP3 ADD MSTORE PUSH1 0x64 ADD PUSH2 0x582 JUMP JUMPDEST PUSH2 0x900 DUP5 PUSH2 0x99B JUMP JUMPDEST PUSH2 0x909 DUP5 PUSH2 0x17FA JUMP JUMPDEST DUP3 ISZERO PUSH2 0x933 JUMPI DUP1 SLOAD PUSH2 0x91B SWAP1 DUP5 PUSH2 0x17E2 JUMP JUMPDEST DUP2 SSTORE DUP2 SLOAD PUSH2 0x933 SWAP1 PUSH1 0x1 PUSH1 0x1 PUSH1 0xA0 SHL SUB AND CALLER DUP6 PUSH2 0x1999 JUMP JUMPDEST PUSH1 0x3 DUP3 ADD SLOAD DUP2 SLOAD PUSH2 0x954 SWAP2 PUSH5 0xE8D4A51000 SWAP2 PUSH2 0x94E SWAP2 PUSH2 0x19F0 JUMP JUMPDEST SWAP1 PUSH2 0x19FC JUMP JUMPDEST PUSH1 0x1 DUP3 ADD SSTORE PUSH1 0x40 MLOAD DUP4 DUP2 MSTORE DUP5 SWAP1 CALLER SWAP1 PUSH32 0xF279E6A1F5E320CCA91135676D9CB6E44CA8A08C0B88342BCDB1144F6511B568 SWAP1 PUSH1 0x20 ADD JUMPDEST PUSH1 0x40 MLOAD DUP1 SWAP2 SUB SWAP1 LOG3 POP POP PUSH1 0x1 DUP1 SSTORE POP POP JUMP JUMPDEST PUSH11 0x422CA8B0A00A4250000000 PUSH1 0xC SLOAD GT ISZERO PUSH2 0x9EA JUMPI PUSH1 0x40 MLOAD PUSH3 0x461BCD PUSH1 0xE5 SHL DUP2 MSTORE PUSH1 0x20 PUSH1 0x4 DUP3 ADD MSTORE PUSH1 0xF PUSH1 0x24 DUP3 ADD MSTORE PUSH15 0x4E6F206D6F7265207374616B696E67 PUSH1 0x88 SHL PUSH1 0x44 DUP3 ADD MSTORE PUSH1 0x64 ADD PUSH2 0x582 JUMP JUMPDEST PUSH1 0x0 PUSH1 0x7 DUP3 DUP2 SLOAD DUP2 LT PUSH2 0x9FF JUMPI PUSH2 0x9FF PUSH2 0x245E JUMP JUMPDEST SWAP1 PUSH1 0x0 MSTORE PUSH1 0x20 PUSH1 0x0 KECCAK256 SWAP1 PUSH1 0x6 MUL ADD SWAP1 POP DUP1 PUSH1 0x2 ADD SLOAD NUMBER GT PUSH2 0xA1E JUMPI POP POP JUMP JUMPDEST DUP1 SLOAD PUSH1 0x40 MLOAD PUSH4 0x70A08231 PUSH1 0xE0 SHL DUP2 MSTORE ADDRESS PUSH1 0x4 DUP3 ADD MSTORE PUSH1 0x0 SWAP2 PUSH1 0x1 PUSH1 0x1 PUSH1 0xA0 SHL SUB AND SWAP1 PUSH4 0x70A08231 SWAP1 PUSH1 0x24 ADD PUSH1 0x20 PUSH1 0x40 MLOAD DUP1 DUP4 SUB DUP2 DUP7 DUP1 EXTCODESIZE ISZERO DUP1 ISZERO PUSH2 0xA61 JUMPI PUSH1 0x0 DUP1 REVERT JUMPDEST POP GAS STATICCALL ISZERO DUP1 ISZERO PUSH2 0xA75 JUMPI RETURNDATASIZE PUSH1 0x0 DUP1 RETURNDATACOPY RETURNDATASIZE PUSH1 0x0 REVERT JUMPDEST POP POP POP POP PUSH1 0x40 MLOAD RETURNDATASIZE PUSH1 0x1F NOT PUSH1 0x1F DUP3 ADD AND DUP3 ADD DUP1 PUSH1 0x40 MSTORE POP DUP2 ADD SWAP1 PUSH2 0xA99 SWAP2 SWAP1 PUSH2 0x21A2 JUMP JUMPDEST SWAP1 POP DUP1 ISZERO DUP1 PUSH2 0xAAA JUMPI POP PUSH1 0x1 DUP3 ADD SLOAD ISZERO JUMPDEST ISZERO PUSH2 0xABA JUMPI POP NUMBER PUSH1 0x2 SWAP1 SWAP2 ADD SSTORE POP JUMP JUMPDEST PUSH1 0x0 PUSH2 0xACA DUP4 PUSH1 0x2 ADD SLOAD NUMBER PUSH2 0xF16 JUMP JUMPDEST SWAP1 POP PUSH1 0x0 PUSH2 0xAF7 PUSH1 0x9 SLOAD PUSH2 0x94E DUP7 PUSH1 0x1 ADD SLOAD PUSH2 0xAF1 PUSH1 0x6 SLOAD DUP8 PUSH2 0x19F0 SWAP1 SWAP2 SWAP1 PUSH4 0xFFFFFFFF AND JUMP JUMPDEST SWAP1 PUSH2 0x19F0 JUMP JUMPDEST SWAP1 POP PUSH2 0xB1A PUSH2 0xB11 PUSH2 0xB0A DUP4 PUSH1 0xA PUSH2 0x19FC JUMP JUMPDEST DUP4 SWAP1 PUSH2 0x17EE JUMP JUMPDEST PUSH1 0xC SLOAD SWAP1 PUSH2 0x17EE JUMP JUMPDEST PUSH1 0xC SSTORE PUSH1 0x3 SLOAD PUSH1 0x40 MLOAD PUSH4 0x40C10F19 PUSH1 0xE0 SHL DUP2 MSTORE ADDRESS PUSH1 0x4 DUP3 ADD MSTORE PUSH1 0x24 DUP2 ADD DUP4 SWAP1 MSTORE PUSH1 0x1 PUSH1 0x1 PUSH1 0xA0 SHL SUB SWAP1 SWAP2 AND SWAP1 PUSH4 0x40C10F19 SWAP1 PUSH1 0x44 ADD PUSH1 0x0 PUSH1 0x40 MLOAD DUP1 DUP4 SUB DUP2 PUSH1 0x0 DUP8 DUP1 EXTCODESIZE ISZERO DUP1 ISZERO PUSH2 0xB69 JUMPI PUSH1 0x0 DUP1 REVERT JUMPDEST POP GAS CALL ISZERO DUP1 ISZERO PUSH2 0xB7D JUMPI RETURNDATASIZE PUSH1 0x0 DUP1 RETURNDATACOPY RETURNDATASIZE PUSH1 0x0 REVERT JUMPDEST POP POP PUSH1 0x3 SLOAD PUSH1 0x4 SLOAD PUSH1 0x1 PUSH1 0x1 PUSH1 0xA0 SHL SUB SWAP2 DUP3 AND SWAP4 POP PUSH4 0x40C10F19 SWAP3 POP AND PUSH2 0xBA5 DUP5 PUSH1 0xA PUSH2 0x19FC JUMP JUMPDEST PUSH1 0x40 MLOAD PUSH1 0x1 PUSH1 0x1 PUSH1 0xE0 SHL SUB NOT PUSH1 0xE0 DUP6 SWAP1 SHL AND DUP2 MSTORE PUSH1 0x1 PUSH1 0x1 PUSH1 0xA0 SHL SUB SWAP1 SWAP3 AND PUSH1 0x4 DUP4 ADD MSTORE PUSH1 0x24 DUP3 ADD MSTORE PUSH1 0x44 ADD PUSH1 0x0 PUSH1 0x40 MLOAD DUP1 DUP4 SUB DUP2 PUSH1 0x0 DUP8 DUP1 EXTCODESIZE ISZERO DUP1 ISZERO PUSH2 0xBEB JUMPI PUSH1 0x0 DUP1 REVERT JUMPDEST POP GAS CALL ISZERO DUP1 ISZERO PUSH2 0xBFF JUMPI RETURNDATASIZE PUSH1 0x0 DUP1 RETURNDATACOPY RETURNDATASIZE PUSH1 0x0 REVERT JUMPDEST POP POP POP POP PUSH2 0xC2D PUSH2 0xC22 DUP5 PUSH2 0x94E PUSH5 0xE8D4A51000 DUP6 PUSH2 0x19F0 SWAP1 SWAP2 SWAP1 PUSH4 0xFFFFFFFF AND JUMP JUMPDEST PUSH1 0x3 DUP7 ADD SLOAD SWAP1 PUSH2 0x17EE JUMP JUMPDEST PUSH1 0x3 DUP6 ADD SSTORE POP POP NUMBER PUSH1 0x2 SWAP1 SWAP3 ADD SWAP2 SWAP1 SWAP2 SSTORE POP POP JUMP JUMPDEST PUSH1 0x2 PUSH1 0x1 SLOAD EQ ISZERO PUSH2 0xC65 JUMPI PUSH1 0x40 MLOAD PUSH3 0x461BCD PUSH1 0xE5 SHL DUP2 MSTORE PUSH1 0x4 ADD PUSH2 0x582 SWAP1 PUSH2 0x235A JUMP JUMPDEST PUSH1 0x2 PUSH1 0x1 DUP2 SWAP1 SSTORE POP PUSH1 0x0 PUSH1 0x7 DUP3 DUP2 SLOAD DUP2 LT PUSH2 0xC82 JUMPI PUSH2 0xC82 PUSH2 0x245E JUMP JUMPDEST PUSH1 0x0 SWAP2 DUP3 MSTORE PUSH1 0x20 DUP1 DUP4 KECCAK256 DUP6 DUP5 MSTORE PUSH1 0x8 DUP3 MSTORE PUSH1 0x40 DUP1 DUP6 KECCAK256 CALLER DUP1 DUP8 MSTORE SWAP4 MSTORE DUP5 KECCAK256 DUP1 SLOAD DUP6 DUP3 SSTORE PUSH1 0x1 DUP3 ADD DUP7 SWAP1 SSTORE PUSH1 0x2 DUP3 ADD DUP7 SWAP1 SSTORE PUSH1 0x3 DUP3 ADD SWAP6 SWAP1 SWAP6 SSTORE PUSH1 0x6 SWAP1 SWAP4 MUL ADD DUP1 SLOAD SWAP1 SWAP5 POP SWAP2 SWAP3 SWAP2 PUSH2 0xCE0 SWAP2 PUSH1 0x1 PUSH1 0x1 PUSH1 0xA0 SHL SUB SWAP2 SWAP1 SWAP2 AND SWAP1 DUP4 PUSH2 0x1999 JUMP JUMPDEST PUSH1 0x40 MLOAD DUP2 DUP2 MSTORE DUP5 SWAP1 CALLER SWAP1 PUSH32 0xBB757047C2B5F3974FE26B7C10F732E7BCE710B0952A71082702781E62AE0595 SWAP1 PUSH1 0x20 ADD PUSH2 0x989 JUMP JUMPDEST PUSH1 0x0 SLOAD PUSH1 0x1 PUSH1 0x1 PUSH1 0xA0 SHL SUB AND CALLER EQ PUSH2 0xD3E JUMPI PUSH1 0x40 MLOAD PUSH3 0x461BCD PUSH1 0xE5 SHL DUP2 MSTORE PUSH1 0x4 ADD PUSH2 0x582 SWAP1 PUSH2 0x2325 JUMP JUMPDEST PUSH2 0x3E8 PUSH2 0xFFFF DUP3 AND GT ISZERO PUSH2 0xDCB JUMPI PUSH1 0x40 MLOAD PUSH3 0x461BCD PUSH1 0xE5 SHL DUP2 MSTORE PUSH1 0x20 PUSH1 0x4 DUP3 ADD MSTORE PUSH1 0x48 PUSH1 0x24 DUP3 ADD MSTORE PUSH32 0x736574526566657272616C436F6D6D697373696F6E526174653A20696E76616C PUSH1 0x44 DUP3 ADD MSTORE PUSH32 0x696420726566657272616C20636F6D6D697373696F6E20726174652062617369 PUSH1 0x64 DUP3 ADD MSTORE PUSH8 0x7320706F696E7473 PUSH1 0xC0 SHL PUSH1 0x84 DUP3 ADD MSTORE PUSH1 0xA4 ADD PUSH2 0x582 JUMP JUMPDEST PUSH1 0xD DUP1 SLOAD PUSH2 0xFFFF SWAP1 SWAP3 AND PUSH1 0x1 PUSH1 0xA0 SHL MUL PUSH2 0xFFFF PUSH1 0xA0 SHL NOT SWAP1 SWAP3 AND SWAP2 SWAP1 SWAP2 OR SWAP1 SSTORE JUMP JUMPDEST PUSH1 0x7 SLOAD PUSH1 0x0 JUMPDEST DUP2 DUP2 LT ISZERO PUSH2 0xE14 JUMPI PUSH2 0xE04 DUP2 PUSH2 0x99B JUMP JUMPDEST PUSH2 0xE0D DUP2 PUSH2 0x242D JUMP JUMPDEST SWAP1 POP PUSH2 0xDF3 JUMP JUMPDEST POP POP JUMP JUMPDEST PUSH1 0x0 SLOAD PUSH1 0x1 PUSH1 0x1 PUSH1 0xA0 SHL SUB AND CALLER EQ PUSH2 0xE42 JUMPI PUSH1 0x40 MLOAD PUSH3 0x461BCD PUSH1 0xE5 SHL DUP2 MSTORE PUSH1 0x4 ADD PUSH2 0x582 SWAP1 PUSH2 0x2325 JUMP JUMPDEST PUSH2 0xE4C PUSH1 0x0 PUSH2 0x1A08 JUMP JUMPDEST JUMP JUMPDEST PUSH1 0x5 SLOAD PUSH1 0x1 PUSH1 0x1 PUSH1 0xA0 SHL SUB AND CALLER EQ PUSH2 0xEA8 JUMPI PUSH1 0x40 MLOAD PUSH3 0x461BCD PUSH1 0xE5 SHL DUP2 MSTORE PUSH1 0x20 PUSH1 0x4 DUP3 ADD MSTORE PUSH1 0x18 PUSH1 0x24 DUP3 ADD MSTORE PUSH32 0x736574466565416464726573733A20464F5242494444454E0000000000000000 PUSH1 0x44 DUP3 ADD MSTORE PUSH1 0x64 ADD PUSH2 0x582 JUMP JUMPDEST PUSH1 0x1 PUSH1 0x1 PUSH1 0xA0 SHL SUB DUP2 AND PUSH2 0xEF4 JUMPI PUSH1 0x40 MLOAD PUSH3 0x461BCD PUSH1 0xE5 SHL DUP2 MSTORE PUSH1 0x20 PUSH1 0x4 DUP3 ADD MSTORE PUSH1 0x13 PUSH1 0x24 DUP3 ADD MSTORE PUSH19 0x736574466565416464726573733A205A45524F PUSH1 0x68 SHL PUSH1 0x44 DUP3 ADD MSTORE PUSH1 0x64 ADD PUSH2 0x582 JUMP JUMPDEST PUSH1 0x5 DUP1 SLOAD PUSH1 0x1 PUSH1 0x1 PUSH1 0xA0 SHL SUB NOT AND PUSH1 0x1 PUSH1 0x1 PUSH1 0xA0 SHL SUB SWAP3 SWAP1 SWAP3 AND SWAP2 SWAP1 SWAP2 OR SWAP1 SSTORE JUMP JUMPDEST PUSH1 0x0 PUSH2 0xF27 PUSH1 0x1 PUSH2 0xAF1 DUP5 DUP7 PUSH2 0x17E2 JUMP JUMPDEST SWAP4 SWAP3 POP POP POP JUMP JUMPDEST PUSH1 0x2 PUSH1 0x1 SLOAD EQ ISZERO PUSH2 0xF51 JUMPI PUSH1 0x40 MLOAD PUSH3 0x461BCD PUSH1 0xE5 SHL DUP2 MSTORE PUSH1 0x4 ADD PUSH2 0x582 SWAP1 PUSH2 0x235A JUMP JUMPDEST PUSH1 0x2 PUSH1 0x1 DUP2 SWAP1 SSTORE POP PUSH1 0x0 PUSH1 0x7 DUP5 DUP2 SLOAD DUP2 LT PUSH2 0xF6E JUMPI PUSH2 0xF6E PUSH2 0x245E JUMP JUMPDEST PUSH1 0x0 SWAP2 DUP3 MSTORE PUSH1 0x20 DUP1 DUP4 KECCAK256 DUP8 DUP5 MSTORE PUSH1 0x8 DUP3 MSTORE PUSH1 0x40 DUP1 DUP6 KECCAK256 CALLER DUP7 MSTORE SWAP1 SWAP3 MSTORE SWAP3 KECCAK256 PUSH1 0x6 SWAP1 SWAP2 MUL SWAP1 SWAP2 ADD SWAP2 POP PUSH2 0xF9F DUP6 PUSH2 0x99B JUMP JUMPDEST PUSH1 0x0 DUP5 GT DUP1 ISZERO PUSH2 0xFB9 JUMPI POP PUSH1 0xD SLOAD PUSH1 0x1 PUSH1 0x1 PUSH1 0xA0 SHL SUB AND ISZERO ISZERO JUMPDEST DUP1 ISZERO PUSH2 0xFCD JUMPI POP PUSH1 0x1 PUSH1 0x1 PUSH1 0xA0 SHL SUB DUP4 AND ISZERO ISZERO JUMPDEST DUP1 ISZERO PUSH2 0xFE2 JUMPI POP PUSH1 0x1 PUSH1 0x1 PUSH1 0xA0 SHL SUB DUP4 AND CALLER EQ ISZERO JUMPDEST ISZERO PUSH2 0x104D JUMPI PUSH1 0xD SLOAD PUSH1 0x40 MLOAD PUSH4 0xC7F7B6B PUSH1 0xE0 SHL DUP2 MSTORE CALLER PUSH1 0x4 DUP3 ADD MSTORE PUSH1 0x1 PUSH1 0x1 PUSH1 0xA0 SHL SUB DUP6 DUP2 AND PUSH1 0x24 DUP4 ADD MSTORE SWAP1 SWAP2 AND SWAP1 PUSH4 0xC7F7B6B SWAP1 PUSH1 0x44 ADD PUSH1 0x0 PUSH1 0x40 MLOAD DUP1 DUP4 SUB DUP2 PUSH1 0x0 DUP8 DUP1 EXTCODESIZE ISZERO DUP1 ISZERO PUSH2 0x1034 JUMPI PUSH1 0x0 DUP1 REVERT JUMPDEST POP GAS CALL ISZERO DUP1 ISZERO PUSH2 0x1048 JUMPI RETURNDATASIZE PUSH1 0x0 DUP1 RETURNDATACOPY RETURNDATASIZE PUSH1 0x0 REVERT JUMPDEST POP POP POP POP JUMPDEST PUSH2 0x1056 DUP6 PUSH2 0x17FA JUMP JUMPDEST DUP4 ISZERO PUSH2 0x1225 JUMPI DUP2 SLOAD PUSH1 0x40 MLOAD PUSH4 0x23B872DD PUSH1 0xE0 SHL DUP2 MSTORE CALLER PUSH1 0x4 DUP3 ADD MSTORE ADDRESS PUSH1 0x24 DUP3 ADD MSTORE PUSH1 0x44 DUP2 ADD DUP7 SWAP1 MSTORE PUSH1 0x1 PUSH1 0x1 PUSH1 0xA0 SHL SUB SWAP1 SWAP2 AND SWAP1 PUSH4 0x23B872DD SWAP1 PUSH1 0x64 ADD PUSH1 0x20 PUSH1 0x40 MLOAD DUP1 DUP4 SUB DUP2 PUSH1 0x0 DUP8 DUP1 EXTCODESIZE ISZERO DUP1 ISZERO PUSH2 0x10AD JUMPI PUSH1 0x0 DUP1 REVERT JUMPDEST POP GAS CALL ISZERO DUP1 ISZERO PUSH2 0x10C1 JUMPI RETURNDATASIZE PUSH1 0x0 DUP1 RETURNDATACOPY RETURNDATASIZE PUSH1 0x0 REVERT JUMPDEST POP POP POP POP PUSH1 0x40 MLOAD RETURNDATASIZE PUSH1 0x1F NOT PUSH1 0x1F DUP3 ADD AND DUP3 ADD DUP1 PUSH1 0x40 MSTORE POP DUP2 ADD SWAP1 PUSH2 0x10E5 SWAP2 SWAP1 PUSH2 0x2132 JUMP JUMPDEST POP PUSH1 0x2 SLOAD DUP3 SLOAD PUSH1 0x1 PUSH1 0x1 PUSH1 0xA0 SHL SUB SWAP1 DUP2 AND SWAP2 AND EQ ISZERO PUSH2 0x11AA JUMPI PUSH1 0x0 PUSH2 0x119A PUSH2 0x2710 PUSH2 0x94E PUSH1 0x2 PUSH1 0x0 SWAP1 SLOAD SWAP1 PUSH2 0x100 EXP SWAP1 DIV PUSH1 0x1 PUSH1 0x1 PUSH1 0xA0 SHL SUB AND PUSH1 0x1 PUSH1 0x1 PUSH1 0xA0 SHL SUB AND PUSH4 0xB65D08B0 PUSH1 0x40 MLOAD DUP2 PUSH4 0xFFFFFFFF AND PUSH1 0xE0 SHL DUP2 MSTORE PUSH1 0x4 ADD PUSH1 0x20 PUSH1 0x40 MLOAD DUP1 DUP4 SUB DUP2 DUP7 DUP1 EXTCODESIZE ISZERO DUP1 ISZERO PUSH2 0x1157 JUMPI PUSH1 0x0 DUP1 REVERT JUMPDEST POP GAS STATICCALL ISZERO DUP1 ISZERO PUSH2 0x116B JUMPI RETURNDATASIZE PUSH1 0x0 DUP1 RETURNDATACOPY RETURNDATASIZE PUSH1 0x0 REVERT JUMPDEST POP POP POP POP PUSH1 0x40 MLOAD RETURNDATASIZE PUSH1 0x1F NOT PUSH1 0x1F DUP3 ADD AND DUP3 ADD DUP1 PUSH1 0x40 MSTORE POP DUP2 ADD SWAP1 PUSH2 0x118F SWAP2 SWAP1 PUSH2 0x216C JUMP JUMPDEST DUP9 SWAP1 PUSH2 0xFFFF AND PUSH2 0x19F0 JUMP JUMPDEST SWAP1 POP PUSH2 0x11A6 DUP6 DUP3 PUSH2 0x17E2 JUMP JUMPDEST SWAP5 POP POP JUMPDEST PUSH1 0x4 DUP3 ADD SLOAD PUSH2 0xFFFF AND ISZERO PUSH2 0x1216 JUMPI PUSH1 0x4 DUP3 ADD SLOAD PUSH1 0x0 SWAP1 PUSH2 0x11D7 SWAP1 PUSH2 0x2710 SWAP1 PUSH2 0x94E SWAP1 DUP9 SWAP1 PUSH2 0xFFFF AND PUSH2 0x19F0 JUMP JUMPDEST PUSH1 0x5 SLOAD DUP5 SLOAD SWAP2 SWAP3 POP PUSH2 0x11F6 SWAP2 PUSH1 0x1 PUSH1 0x1 PUSH1 0xA0 SHL SUB SWAP1 DUP2 AND SWAP2 AND DUP4 PUSH2 0x1999 JUMP JUMPDEST DUP2 SLOAD PUSH2 0x120E SWAP1 DUP3 SWAP1 PUSH2 0x1208 SWAP1 DUP9 PUSH2 0x17EE JUMP JUMPDEST SWAP1 PUSH2 0x17E2 JUMP JUMPDEST DUP3 SSTORE POP PUSH2 0x1225 JUMP JUMPDEST DUP1 SLOAD PUSH2 0x1222 SWAP1 DUP6 PUSH2 0x17EE JUMP JUMPDEST DUP2 SSTORE JUMPDEST PUSH1 0x3 DUP3 ADD SLOAD DUP2 SLOAD PUSH2 0x1240 SWAP2 PUSH5 0xE8D4A51000 SWAP2 PUSH2 0x94E SWAP2 PUSH2 0x19F0 JUMP JUMPDEST PUSH1 0x1 DUP3 ADD SSTORE PUSH1 0x40 MLOAD DUP5 DUP2 MSTORE DUP6 SWAP1 CALLER SWAP1 PUSH32 0x90890809C654F11D6E72A28FA60149770A0D11EC6C92319D6CEB2BB0A4EA1A15 SWAP1 PUSH1 0x20 ADD PUSH1 0x40 MLOAD DUP1 SWAP2 SUB SWAP1 LOG3 POP POP PUSH1 0x1 DUP1 SSTORE POP POP POP JUMP JUMPDEST PUSH1 0x0 DUP1 PUSH1 0x7 DUP5 DUP2 SLOAD DUP2 LT PUSH2 0x129D JUMPI PUSH2 0x129D PUSH2 0x245E JUMP JUMPDEST PUSH1 0x0 SWAP2 DUP3 MSTORE PUSH1 0x20 DUP1 DUP4 KECCAK256 DUP8 DUP5 MSTORE PUSH1 0x8 DUP3 MSTORE PUSH1 0x40 DUP1 DUP6 KECCAK256 PUSH1 0x1 PUSH1 0x1 PUSH1 0xA0 SHL SUB DUP10 DUP2 AND DUP8 MSTORE SWAP4 MSTORE DUP1 DUP6 KECCAK256 PUSH1 0x6 SWAP5 SWAP1 SWAP5 MUL SWAP1 SWAP2 ADD PUSH1 0x3 DUP2 ADD SLOAD DUP2 SLOAD SWAP3 MLOAD PUSH4 0x70A08231 PUSH1 0xE0 SHL DUP2 MSTORE ADDRESS PUSH1 0x4 DUP3 ADD MSTORE SWAP2 SWAP7 POP SWAP4 SWAP5 SWAP3 SWAP2 SWAP1 SWAP2 AND SWAP1 PUSH4 0x70A08231 SWAP1 PUSH1 0x24 ADD PUSH1 0x20 PUSH1 0x40 MLOAD DUP1 DUP4 SUB DUP2 DUP7 DUP1 EXTCODESIZE ISZERO DUP1 ISZERO PUSH2 0x1313 JUMPI PUSH1 0x0 DUP1 REVERT JUMPDEST POP GAS STATICCALL ISZERO DUP1 ISZERO PUSH2 0x1327 JUMPI RETURNDATASIZE PUSH1 0x0 DUP1 RETURNDATACOPY RETURNDATASIZE PUSH1 0x0 REVERT JUMPDEST POP POP POP POP PUSH1 0x40 MLOAD RETURNDATASIZE PUSH1 0x1F NOT PUSH1 0x1F DUP3 ADD AND DUP3 ADD DUP1 PUSH1 0x40 MSTORE POP DUP2 ADD SWAP1 PUSH2 0x134B SWAP2 SWAP1 PUSH2 0x21A2 JUMP JUMPDEST SWAP1 POP DUP4 PUSH1 0x2 ADD SLOAD NUMBER GT DUP1 ISZERO PUSH2 0x135F JUMPI POP DUP1 ISZERO ISZERO JUMPDEST ISZERO PUSH2 0x13BF JUMPI PUSH1 0x0 PUSH2 0x1374 DUP6 PUSH1 0x2 ADD SLOAD NUMBER PUSH2 0xF16 JUMP JUMPDEST SWAP1 POP PUSH1 0x0 PUSH2 0x139B PUSH1 0x9 SLOAD PUSH2 0x94E DUP9 PUSH1 0x1 ADD SLOAD PUSH2 0xAF1 PUSH1 0x6 SLOAD DUP8 PUSH2 0x19F0 SWAP1 SWAP2 SWAP1 PUSH4 0xFFFFFFFF AND JUMP JUMPDEST SWAP1 POP PUSH2 0x13BA PUSH2 0x13B3 DUP5 PUSH2 0x94E DUP5 PUSH5 0xE8D4A51000 PUSH2 0x19F0 JUMP JUMPDEST DUP6 SWAP1 PUSH2 0x17EE JUMP JUMPDEST SWAP4 POP POP POP JUMPDEST PUSH1 0x0 PUSH2 0x13E9 DUP5 PUSH1 0x1 ADD SLOAD PUSH2 0x1208 PUSH5 0xE8D4A51000 PUSH2 0x94E DUP8 DUP10 PUSH1 0x0 ADD SLOAD PUSH2 0x19F0 SWAP1 SWAP2 SWAP1 PUSH4 0xFFFFFFFF AND JUMP JUMPDEST SWAP1 POP PUSH2 0x1402 DUP5 PUSH1 0x2 ADD SLOAD DUP3 PUSH2 0x17EE SWAP1 SWAP2 SWAP1 PUSH4 0xFFFFFFFF AND JUMP JUMPDEST SWAP9 SWAP8 POP POP POP POP POP POP POP POP JUMP JUMPDEST PUSH1 0x0 SLOAD PUSH1 0x1 PUSH1 0x1 PUSH1 0xA0 SHL SUB AND CALLER EQ PUSH2 0x1438 JUMPI PUSH1 0x40 MLOAD PUSH3 0x461BCD PUSH1 0xE5 SHL DUP2 MSTORE PUSH1 0x4 ADD PUSH2 0x582 SWAP1 PUSH2 0x2325 JUMP JUMPDEST PUSH2 0x2710 DUP4 PUSH2 0xFFFF AND GT ISZERO PUSH2 0x149C JUMPI PUSH1 0x40 MLOAD PUSH3 0x461BCD PUSH1 0xE5 SHL DUP2 MSTORE PUSH1 0x20 PUSH1 0x4 DUP3 ADD MSTORE PUSH1 0x25 PUSH1 0x24 DUP3 ADD MSTORE PUSH32 0x6164643A20696E76616C6964206465706F736974206665652062617369732070 PUSH1 0x44 DUP3 ADD MSTORE PUSH5 0x6F696E7473 PUSH1 0xD8 SHL PUSH1 0x64 DUP3 ADD MSTORE PUSH1 0x84 ADD PUSH2 0x582 JUMP JUMPDEST PUSH3 0x127500 DUP3 GT ISZERO PUSH2 0x14EF JUMPI PUSH1 0x40 MLOAD PUSH3 0x461BCD PUSH1 0xE5 SHL DUP2 MSTORE PUSH1 0x20 PUSH1 0x4 DUP3 ADD MSTORE PUSH1 0x1D PUSH1 0x24 DUP3 ADD MSTORE PUSH32 0x6164643A20696E76616C6964206861727665737420696E74657276616C000000 PUSH1 0x44 DUP3 ADD MSTORE PUSH1 0x64 ADD PUSH2 0x582 JUMP JUMPDEST DUP1 ISZERO PUSH2 0x14FD JUMPI PUSH2 0x14FD PUSH2 0xDED JUMP JUMPDEST PUSH1 0x0 PUSH1 0xA SLOAD NUMBER GT PUSH2 0x1510 JUMPI PUSH1 0xA SLOAD PUSH2 0x1512 JUMP JUMPDEST NUMBER JUMPDEST PUSH1 0x9 SLOAD SWAP1 SWAP2 POP PUSH2 0x1522 SWAP1 DUP8 PUSH2 0x17EE JUMP JUMPDEST PUSH1 0x9 SSTORE PUSH1 0x40 DUP1 MLOAD PUSH1 0xC0 DUP2 ADD DUP3 MSTORE PUSH1 0x1 PUSH1 0x1 PUSH1 0xA0 SHL SUB SWAP7 DUP8 AND DUP2 MSTORE PUSH1 0x20 DUP2 ADD SWAP8 DUP9 MSTORE SWAP1 DUP2 ADD SWAP2 DUP3 MSTORE PUSH1 0x0 PUSH1 0x60 DUP3 ADD DUP2 DUP2 MSTORE PUSH2 0xFFFF SWAP7 DUP8 AND PUSH1 0x80 DUP5 ADD SWAP1 DUP2 MSTORE PUSH1 0xA0 DUP5 ADD SWAP7 DUP8 MSTORE PUSH1 0x7 DUP1 SLOAD PUSH1 0x1 DUP2 ADD DUP3 SSTORE SWAP4 MSTORE SWAP3 MLOAD PUSH32 0xA66CC928B5EDB82AF9BD49922954155AB7B0942694BEA4CE44661D9A8736C688 PUSH1 0x6 SWAP1 SWAP4 MUL SWAP3 DUP4 ADD DUP1 SLOAD PUSH1 0x1 PUSH1 0x1 PUSH1 0xA0 SHL SUB NOT AND SWAP2 SWAP1 SWAP10 AND OR SWAP1 SWAP8 SSTORE SWAP7 MLOAD PUSH32 0xA66CC928B5EDB82AF9BD49922954155AB7B0942694BEA4CE44661D9A8736C689 DUP9 ADD SSTORE SWAP1 MLOAD PUSH32 0xA66CC928B5EDB82AF9BD49922954155AB7B0942694BEA4CE44661D9A8736C68A DUP8 ADD SSTORE SWAP4 MLOAD PUSH32 0xA66CC928B5EDB82AF9BD49922954155AB7B0942694BEA4CE44661D9A8736C68B DUP7 ADD SSTORE POP SWAP2 MLOAD PUSH32 0xA66CC928B5EDB82AF9BD49922954155AB7B0942694BEA4CE44661D9A8736C68C DUP5 ADD DUP1 SLOAD PUSH2 0xFFFF NOT AND SWAP2 SWAP1 SWAP3 AND OR SWAP1 SSTORE MLOAD PUSH32 0xA66CC928B5EDB82AF9BD49922954155AB7B0942694BEA4CE44661D9A8736C68D SWAP1 SWAP2 ADD SSTORE JUMP JUMPDEST PUSH1 0x4 SLOAD PUSH1 0x1 PUSH1 0x1 PUSH1 0xA0 SHL SUB AND CALLER EQ PUSH2 0x16D9 JUMPI PUSH1 0x40 MLOAD PUSH3 0x461BCD PUSH1 0xE5 SHL DUP2 MSTORE PUSH1 0x20 PUSH1 0x4 DUP3 ADD MSTORE PUSH1 0x18 PUSH1 0x24 DUP3 ADD MSTORE PUSH32 0x736574446576416464726573733A20464F5242494444454E0000000000000000 PUSH1 0x44 DUP3 ADD MSTORE PUSH1 0x64 ADD PUSH2 0x582 JUMP JUMPDEST PUSH1 0x1 PUSH1 0x1 PUSH1 0xA0 SHL SUB DUP2 AND PUSH2 0x1725 JUMPI PUSH1 0x40 MLOAD PUSH3 0x461BCD PUSH1 0xE5 SHL DUP2 MSTORE PUSH1 0x20 PUSH1 0x4 DUP3 ADD MSTORE PUSH1 0x13 PUSH1 0x24 DUP3 ADD MSTORE PUSH19 0x736574446576416464726573733A205A45524F PUSH1 0x68 SHL PUSH1 0x44 DUP3 ADD MSTORE PUSH1 0x64 ADD PUSH2 0x582 JUMP JUMPDEST PUSH1 0x4 DUP1 SLOAD PUSH1 0x1 PUSH1 0x1 PUSH1 0xA0 SHL SUB NOT AND PUSH1 0x1 PUSH1 0x1 PUSH1 0xA0 SHL SUB SWAP3 SWAP1 SWAP3 AND SWAP2 SWAP1 SWAP2 OR SWAP1 SSTORE JUMP JUMPDEST PUSH1 0x0 SLOAD PUSH1 0x1 PUSH1 0x1 PUSH1 0xA0 SHL SUB AND CALLER EQ PUSH2 0x1771 JUMPI PUSH1 0x40 MLOAD PUSH3 0x461BCD PUSH1 0xE5 SHL DUP2 MSTORE PUSH1 0x4 ADD PUSH2 0x582 SWAP1 PUSH2 0x2325 JUMP JUMPDEST PUSH1 0x1 PUSH1 0x1 PUSH1 0xA0 SHL SUB DUP2 AND PUSH2 0x17D6 JUMPI PUSH1 0x40 MLOAD PUSH3 0x461BCD PUSH1 0xE5 SHL DUP2 MSTORE PUSH1 0x20 PUSH1 0x4 DUP3 ADD MSTORE PUSH1 0x26 PUSH1 0x24 DUP3 ADD MSTORE PUSH32 0x4F776E61626C653A206E6577206F776E657220697320746865207A65726F2061 PUSH1 0x44 DUP3 ADD MSTORE PUSH6 0x646472657373 PUSH1 0xD0 SHL PUSH1 0x64 DUP3 ADD MSTORE PUSH1 0x84 ADD PUSH2 0x582 JUMP JUMPDEST PUSH2 0x17DF DUP2 PUSH2 0x1A08 JUMP JUMPDEST POP JUMP JUMPDEST PUSH1 0x0 PUSH2 0xF27 DUP3 DUP5 PUSH2 0x23EA JUMP JUMPDEST PUSH1 0x0 PUSH2 0xF27 DUP3 DUP5 PUSH2 0x2391 JUMP JUMPDEST PUSH1 0x0 PUSH1 0x7 DUP3 DUP2 SLOAD DUP2 LT PUSH2 0x180F JUMPI PUSH2 0x180F PUSH2 0x245E JUMP JUMPDEST PUSH1 0x0 SWAP2 DUP3 MSTORE PUSH1 0x20 DUP1 DUP4 KECCAK256 DUP6 DUP5 MSTORE PUSH1 0x8 DUP3 MSTORE PUSH1 0x40 DUP1 DUP6 KECCAK256 CALLER DUP7 MSTORE SWAP1 SWAP3 MSTORE SWAP3 KECCAK256 PUSH1 0x3 DUP2 ADD SLOAD PUSH1 0x6 SWAP1 SWAP3 MUL SWAP1 SWAP3 ADD SWAP3 POP PUSH2 0x1856 JUMPI PUSH1 0x5 DUP3 ADD SLOAD PUSH2 0x1850 SWAP1 TIMESTAMP SWAP1 PUSH2 0x17EE JUMP JUMPDEST PUSH1 0x3 DUP3 ADD SSTORE JUMPDEST PUSH1 0x0 PUSH2 0x1884 DUP3 PUSH1 0x1 ADD SLOAD PUSH2 0x1208 PUSH5 0xE8D4A51000 PUSH2 0x94E DUP8 PUSH1 0x3 ADD SLOAD DUP8 PUSH1 0x0 ADD SLOAD PUSH2 0x19F0 SWAP1 SWAP2 SWAP1 PUSH4 0xFFFFFFFF AND JUMP JUMPDEST PUSH1 0x0 DUP6 DUP2 MSTORE PUSH1 0x8 PUSH1 0x20 SWAP1 DUP2 MSTORE PUSH1 0x40 DUP1 DUP4 KECCAK256 CALLER DUP5 MSTORE SWAP1 SWAP2 MSTORE SWAP1 KECCAK256 PUSH1 0x3 ADD SLOAD SWAP1 SWAP2 POP TIMESTAMP LT PUSH2 0x1930 JUMPI PUSH1 0x0 DUP2 GT DUP1 PUSH2 0x18BD JUMPI POP PUSH1 0x0 DUP3 PUSH1 0x2 ADD SLOAD GT JUMPDEST ISZERO PUSH2 0x192B JUMPI PUSH1 0x0 PUSH2 0x18DB DUP4 PUSH1 0x2 ADD SLOAD DUP4 PUSH2 0x17EE SWAP1 SWAP2 SWAP1 PUSH4 0xFFFFFFFF AND JUMP JUMPDEST SWAP1 POP PUSH2 0x18F6 DUP4 PUSH1 0x2 ADD SLOAD PUSH1 0xB SLOAD PUSH2 0x17E2 SWAP1 SWAP2 SWAP1 PUSH4 0xFFFFFFFF AND JUMP JUMPDEST PUSH1 0xB SSTORE PUSH1 0x0 PUSH1 0x2 DUP5 ADD SSTORE PUSH1 0x5 DUP5 ADD SLOAD PUSH2 0x1910 SWAP1 TIMESTAMP SWAP1 PUSH2 0x17EE JUMP JUMPDEST PUSH1 0x3 DUP5 ADD SSTORE PUSH2 0x191F CALLER DUP3 PUSH2 0x1A58 JUMP JUMPDEST PUSH2 0x1929 CALLER DUP3 PUSH2 0x1B9E JUMP JUMPDEST POP JUMPDEST PUSH2 0x1993 JUMP JUMPDEST DUP1 ISZERO PUSH2 0x1993 JUMPI PUSH1 0x2 DUP3 ADD SLOAD PUSH2 0x1945 SWAP1 DUP3 PUSH2 0x17EE JUMP JUMPDEST PUSH1 0x2 DUP4 ADD SSTORE PUSH1 0xB SLOAD PUSH2 0x1957 SWAP1 DUP3 PUSH2 0x17EE JUMP JUMPDEST PUSH1 0xB SSTORE PUSH1 0x40 MLOAD DUP2 DUP2 MSTORE DUP5 SWAP1 CALLER SWAP1 PUSH32 0xEE470483107F579A55C754FA00613C45A9A3B617A418B39CB0BE97E5381BA7C1 SWAP1 PUSH1 0x20 ADD JUMPDEST PUSH1 0x40 MLOAD DUP1 SWAP2 SUB SWAP1 LOG3 JUMPDEST POP POP POP POP JUMP JUMPDEST PUSH1 0x40 DUP1 MLOAD PUSH1 0x1 PUSH1 0x1 PUSH1 0xA0 SHL SUB DUP5 AND PUSH1 0x24 DUP3 ADD MSTORE PUSH1 0x44 DUP1 DUP3 ADD DUP5 SWAP1 MSTORE DUP3 MLOAD DUP1 DUP4 SUB SWAP1 SWAP2 ADD DUP2 MSTORE PUSH1 0x64 SWAP1 SWAP2 ADD SWAP1 SWAP2 MSTORE PUSH1 0x20 DUP2 ADD DUP1 MLOAD PUSH1 0x1 PUSH1 0x1 PUSH1 0xE0 SHL SUB AND PUSH4 0xA9059CBB PUSH1 0xE0 SHL OR SWAP1 MSTORE PUSH2 0x19EB SWAP1 DUP5 SWAP1 PUSH2 0x1EA5 JUMP JUMPDEST POP POP POP JUMP JUMPDEST PUSH1 0x0 PUSH2 0xF27 DUP3 DUP5 PUSH2 0x23CB JUMP JUMPDEST PUSH1 0x0 PUSH2 0xF27 DUP3 DUP5 PUSH2 0x23A9 JUMP JUMPDEST PUSH1 0x0 DUP1 SLOAD PUSH1 0x1 PUSH1 0x1 PUSH1 0xA0 SHL SUB DUP4 DUP2 AND PUSH1 0x1 PUSH1 0x1 PUSH1 0xA0 SHL SUB NOT DUP4 AND DUP2 OR DUP5 SSTORE PUSH1 0x40 MLOAD SWAP2 SWAP1 SWAP3 AND SWAP3 DUP4 SWAP2 PUSH32 0x8BE0079C531659141344CD1FD0A4F28419497F9722A3DAAFE3B4186F6B6457E0 SWAP2 SWAP1 LOG3 POP POP JUMP JUMPDEST PUSH1 0x2 SLOAD PUSH1 0x40 MLOAD PUSH4 0x70A08231 PUSH1 0xE0 SHL DUP2 MSTORE ADDRESS PUSH1 0x4 DUP3 ADD MSTORE PUSH1 0x0 SWAP2 PUSH1 0x1 PUSH1 0x1 PUSH1 0xA0 SHL SUB AND SWAP1 PUSH4 0x70A08231 SWAP1 PUSH1 0x24 ADD PUSH1 0x20 PUSH1 0x40 MLOAD DUP1 DUP4 SUB DUP2 DUP7 DUP1 EXTCODESIZE ISZERO DUP1 ISZERO PUSH2 0x1A9C JUMPI PUSH1 0x0 DUP1 REVERT JUMPDEST POP GAS STATICCALL ISZERO DUP1 ISZERO PUSH2 0x1AB0 JUMPI RETURNDATASIZE PUSH1 0x0 DUP1 RETURNDATACOPY RETURNDATASIZE PUSH1 0x0 REVERT JUMPDEST POP POP POP POP PUSH1 0x40 MLOAD RETURNDATASIZE PUSH1 0x1F NOT PUSH1 0x1F DUP3 ADD AND DUP3 ADD DUP1 PUSH1 0x40 MSTORE POP DUP2 ADD SWAP1 PUSH2 0x1AD4 SWAP2 SWAP1 PUSH2 0x21A2 JUMP JUMPDEST SWAP1 POP DUP1 DUP3 GT ISZERO PUSH2 0x1B65 JUMPI PUSH1 0x2 SLOAD PUSH1 0x40 MLOAD PUSH4 0xA9059CBB PUSH1 0xE0 SHL DUP2 MSTORE PUSH1 0x1 PUSH1 0x1 PUSH1 0xA0 SHL SUB DUP6 DUP2 AND PUSH1 0x4 DUP4 ADD MSTORE PUSH1 0x24 DUP3 ADD DUP5 SWAP1 MSTORE SWAP1 SWAP2 AND SWAP1 PUSH4 0xA9059CBB SWAP1 PUSH1 0x44 ADD JUMPDEST PUSH1 0x20 PUSH1 0x40 MLOAD DUP1 DUP4 SUB DUP2 PUSH1 0x0 DUP8 DUP1 EXTCODESIZE ISZERO DUP1 ISZERO PUSH2 0x1B2D JUMPI PUSH1 0x0 DUP1 REVERT JUMPDEST POP GAS CALL ISZERO DUP1 ISZERO PUSH2 0x1B41 JUMPI RETURNDATASIZE PUSH1 0x0 DUP1 RETURNDATACOPY RETURNDATASIZE PUSH1 0x0 REVERT JUMPDEST POP POP POP POP PUSH1 0x40 MLOAD RETURNDATASIZE PUSH1 0x1F NOT PUSH1 0x1F DUP3 ADD AND DUP3 ADD DUP1 PUSH1 0x40 MSTORE POP DUP2 ADD SWAP1 PUSH2 0x1993 SWAP2 SWAP1 PUSH2 0x2132 JUMP JUMPDEST PUSH1 0x2 SLOAD PUSH1 0x40 MLOAD PUSH4 0xA9059CBB PUSH1 0xE0 SHL DUP2 MSTORE PUSH1 0x1 PUSH1 0x1 PUSH1 0xA0 SHL SUB DUP6 DUP2 AND PUSH1 0x4 DUP4 ADD MSTORE PUSH1 0x24 DUP3 ADD DUP6 SWAP1 MSTORE SWAP1 SWAP2 AND SWAP1 PUSH4 0xA9059CBB SWAP1 PUSH1 0x44 ADD PUSH2 0x1B13 JUMP JUMPDEST PUSH1 0xD SLOAD PUSH1 0x1 PUSH1 0x1 PUSH1 0xA0 SHL SUB AND ISZERO DUP1 ISZERO SWAP1 PUSH2 0x1BC4 JUMPI POP PUSH1 0xD SLOAD PUSH1 0x1 PUSH1 0xA0 SHL SWAP1 DIV PUSH2 0xFFFF AND ISZERO ISZERO JUMPDEST ISZERO PUSH2 0xE14 JUMPI PUSH1 0xD SLOAD PUSH1 0x40 MLOAD PUSH4 0x4A9FEFC7 PUSH1 0xE0 SHL DUP2 MSTORE PUSH1 0x1 PUSH1 0x1 PUSH1 0xA0 SHL SUB DUP5 DUP2 AND PUSH1 0x4 DUP4 ADD MSTORE PUSH1 0x0 SWAP3 AND SWAP1 PUSH4 0x4A9FEFC7 SWAP1 PUSH1 0x24 ADD PUSH1 0x20 PUSH1 0x40 MLOAD DUP1 DUP4 SUB DUP2 DUP7 DUP1 EXTCODESIZE ISZERO DUP1 ISZERO PUSH2 0x1C0F JUMPI PUSH1 0x0 DUP1 REVERT JUMPDEST POP GAS STATICCALL ISZERO DUP1 ISZERO PUSH2 0x1C23 JUMPI RETURNDATASIZE PUSH1 0x0 DUP1 RETURNDATACOPY RETURNDATASIZE PUSH1 0x0 REVERT JUMPDEST POP POP POP POP PUSH1 0x40 MLOAD RETURNDATASIZE PUSH1 0x1F NOT PUSH1 0x1F DUP3 ADD AND DUP3 ADD DUP1 PUSH1 0x40 MSTORE POP DUP2 ADD SWAP1 PUSH2 0x1C47 SWAP2 SWAP1 PUSH2 0x2115 JUMP JUMPDEST PUSH1 0xD SLOAD SWAP1 SWAP2 POP PUSH1 0x0 SWAP1 PUSH2 0x1C6E SWAP1 PUSH2 0x2710 SWAP1 PUSH2 0x94E SWAP1 DUP7 SWAP1 PUSH1 0x1 PUSH1 0xA0 SHL SWAP1 DIV PUSH2 0xFFFF AND PUSH2 0x19F0 JUMP JUMPDEST SWAP1 POP PUSH1 0x1 PUSH1 0x1 PUSH1 0xA0 SHL SUB DUP3 AND ISZERO DUP1 ISZERO SWAP1 PUSH2 0x1C88 JUMPI POP PUSH1 0x0 DUP2 GT JUMPDEST ISZERO PUSH2 0x1993 JUMPI PUSH1 0x2 SLOAD PUSH1 0x40 MLOAD PUSH4 0x70A08231 PUSH1 0xE0 SHL DUP2 MSTORE ADDRESS PUSH1 0x4 DUP3 ADD MSTORE DUP3 SWAP2 PUSH1 0x1 PUSH1 0x1 PUSH1 0xA0 SHL SUB AND SWAP1 PUSH4 0x70A08231 SWAP1 PUSH1 0x24 ADD PUSH1 0x20 PUSH1 0x40 MLOAD DUP1 DUP4 SUB DUP2 DUP7 DUP1 EXTCODESIZE ISZERO DUP1 ISZERO PUSH2 0x1CD0 JUMPI PUSH1 0x0 DUP1 REVERT JUMPDEST POP GAS STATICCALL ISZERO DUP1 ISZERO PUSH2 0x1CE4 JUMPI RETURNDATASIZE PUSH1 0x0 DUP1 RETURNDATACOPY RETURNDATASIZE PUSH1 0x0 REVERT JUMPDEST POP POP POP POP PUSH1 0x40 MLOAD RETURNDATASIZE PUSH1 0x1F NOT PUSH1 0x1F DUP3 ADD AND DUP3 ADD DUP1 PUSH1 0x40 MSTORE POP DUP2 ADD SWAP1 PUSH2 0x1D08 SWAP2 SWAP1 PUSH2 0x21A2 JUMP JUMPDEST LT ISZERO PUSH2 0x1D73 JUMPI PUSH1 0x3 SLOAD PUSH1 0x40 MLOAD PUSH4 0x40C10F19 PUSH1 0xE0 SHL DUP2 MSTORE ADDRESS PUSH1 0x4 DUP3 ADD MSTORE PUSH1 0x24 DUP2 ADD DUP4 SWAP1 MSTORE PUSH1 0x1 PUSH1 0x1 PUSH1 0xA0 SHL SUB SWAP1 SWAP2 AND SWAP1 PUSH4 0x40C10F19 SWAP1 PUSH1 0x44 ADD PUSH1 0x0 PUSH1 0x40 MLOAD DUP1 DUP4 SUB DUP2 PUSH1 0x0 DUP8 DUP1 EXTCODESIZE ISZERO DUP1 ISZERO PUSH2 0x1D5A JUMPI PUSH1 0x0 DUP1 REVERT JUMPDEST POP GAS CALL ISZERO DUP1 ISZERO PUSH2 0x1D6E JUMPI RETURNDATASIZE PUSH1 0x0 DUP1 RETURNDATACOPY RETURNDATASIZE PUSH1 0x0 REVERT JUMPDEST POP POP POP POP JUMPDEST PUSH1 0x2 SLOAD PUSH1 0x40 MLOAD PUSH4 0xA9059CBB PUSH1 0xE0 SHL DUP2 MSTORE PUSH1 0x1 PUSH1 0x1 PUSH1 0xA0 SHL SUB DUP5 DUP2 AND PUSH1 0x4 DUP4 ADD MSTORE PUSH1 0x24 DUP3 ADD DUP5 SWAP1 MSTORE SWAP1 SWAP2 AND SWAP1 PUSH4 0xA9059CBB SWAP1 PUSH1 0x44 ADD PUSH1 0x20 PUSH1 0x40 MLOAD DUP1 DUP4 SUB DUP2 PUSH1 0x0 DUP8 DUP1 EXTCODESIZE ISZERO DUP1 ISZERO PUSH2 0x1DC1 JUMPI PUSH1 0x0 DUP1 REVERT JUMPDEST POP GAS CALL ISZERO DUP1 ISZERO PUSH2 0x1DD5 JUMPI RETURNDATASIZE PUSH1 0x0 DUP1 RETURNDATACOPY RETURNDATASIZE PUSH1 0x0 REVERT JUMPDEST POP POP POP POP PUSH1 0x40 MLOAD RETURNDATASIZE PUSH1 0x1F NOT PUSH1 0x1F DUP3 ADD AND DUP3 ADD DUP1 PUSH1 0x40 MSTORE POP DUP2 ADD SWAP1 PUSH2 0x1DF9 SWAP2 SWAP1 PUSH2 0x2132 JUMP JUMPDEST POP PUSH1 0xD SLOAD PUSH1 0x40 MLOAD PUSH4 0x1B82D297 PUSH1 0xE3 SHL DUP2 MSTORE PUSH1 0x1 PUSH1 0x1 PUSH1 0xA0 SHL SUB DUP5 DUP2 AND PUSH1 0x4 DUP4 ADD MSTORE PUSH1 0x24 DUP3 ADD DUP5 SWAP1 MSTORE SWAP1 SWAP2 AND SWAP1 PUSH4 0xDC1694B8 SWAP1 PUSH1 0x44 ADD PUSH1 0x0 PUSH1 0x40 MLOAD DUP1 DUP4 SUB DUP2 PUSH1 0x0 DUP8 DUP1 EXTCODESIZE ISZERO DUP1 ISZERO PUSH2 0x1E48 JUMPI PUSH1 0x0 DUP1 REVERT JUMPDEST POP GAS CALL ISZERO DUP1 ISZERO PUSH2 0x1E5C JUMPI RETURNDATASIZE PUSH1 0x0 DUP1 RETURNDATACOPY RETURNDATASIZE PUSH1 0x0 REVERT JUMPDEST POP POP POP POP DUP2 PUSH1 0x1 PUSH1 0x1 PUSH1 0xA0 SHL SUB AND DUP5 PUSH1 0x1 PUSH1 0x1 PUSH1 0xA0 SHL SUB AND PUSH32 0x86DDAB457291316E0F5496737E5CA67C4037234C32C3BE04C48AE96186893A7B DUP4 PUSH1 0x40 MLOAD PUSH2 0x198A SWAP2 DUP2 MSTORE PUSH1 0x20 ADD SWAP1 JUMP JUMPDEST PUSH1 0x0 PUSH2 0x1EFA DUP3 PUSH1 0x40 MLOAD DUP1 PUSH1 0x40 ADD PUSH1 0x40 MSTORE DUP1 PUSH1 0x20 DUP2 MSTORE PUSH1 0x20 ADD PUSH32 0x5361666545524332303A206C6F772D6C6576656C2063616C6C206661696C6564 DUP2 MSTORE POP DUP6 PUSH1 0x1 PUSH1 0x1 PUSH1 0xA0 SHL SUB AND PUSH2 0x1F77 SWAP1 SWAP3 SWAP2 SWAP1 PUSH4 0xFFFFFFFF AND JUMP JUMPDEST DUP1 MLOAD SWAP1 SWAP2 POP ISZERO PUSH2 0x19EB JUMPI DUP1 DUP1 PUSH1 0x20 ADD SWAP1 MLOAD DUP2 ADD SWAP1 PUSH2 0x1F18 SWAP2 SWAP1 PUSH2 0x2132 JUMP JUMPDEST PUSH2 0x19EB JUMPI PUSH1 0x40 MLOAD PUSH3 0x461BCD PUSH1 0xE5 SHL DUP2 MSTORE PUSH1 0x20 PUSH1 0x4 DUP3 ADD MSTORE PUSH1 0x2A PUSH1 0x24 DUP3 ADD MSTORE PUSH32 0x5361666545524332303A204552433230206F7065726174696F6E20646964206E PUSH1 0x44 DUP3 ADD MSTORE PUSH10 0x1BDD081CDD58D8D95959 PUSH1 0xB2 SHL PUSH1 0x64 DUP3 ADD MSTORE PUSH1 0x84 ADD PUSH2 0x582 JUMP JUMPDEST PUSH1 0x60 PUSH2 0x1F86 DUP5 DUP5 PUSH1 0x0 DUP6 PUSH2 0x1F8E JUMP JUMPDEST SWAP5 SWAP4 POP POP POP POP JUMP JUMPDEST PUSH1 0x60 DUP3 SELFBALANCE LT ISZERO PUSH2 0x1FEF JUMPI PUSH1 0x40 MLOAD PUSH3 0x461BCD PUSH1 0xE5 SHL DUP2 MSTORE PUSH1 0x20 PUSH1 0x4 DUP3 ADD MSTORE PUSH1 0x26 PUSH1 0x24 DUP3 ADD MSTORE PUSH32 0x416464726573733A20696E73756666696369656E742062616C616E636520666F PUSH1 0x44 DUP3 ADD MSTORE PUSH6 0x1C8818D85B1B PUSH1 0xD2 SHL PUSH1 0x64 DUP3 ADD MSTORE PUSH1 0x84 ADD PUSH2 0x582 JUMP JUMPDEST PUSH1 0x1 PUSH1 0x1 PUSH1 0xA0 SHL SUB DUP6 AND EXTCODESIZE PUSH2 0x2046 JUMPI PUSH1 0x40 MLOAD PUSH3 0x461BCD PUSH1 0xE5 SHL DUP2 MSTORE PUSH1 0x20 PUSH1 0x4 DUP3 ADD MSTORE PUSH1 0x1D PUSH1 0x24 DUP3 ADD MSTORE PUSH32 0x416464726573733A2063616C6C20746F206E6F6E2D636F6E7472616374000000 PUSH1 0x44 DUP3 ADD MSTORE PUSH1 0x64 ADD PUSH2 0x582 JUMP JUMPDEST PUSH1 0x0 DUP1 DUP7 PUSH1 0x1 PUSH1 0x1 PUSH1 0xA0 SHL SUB AND DUP6 DUP8 PUSH1 0x40 MLOAD PUSH2 0x2062 SWAP2 SWAP1 PUSH2 0x22D6 JUMP JUMPDEST PUSH1 0x0 PUSH1 0x40 MLOAD DUP1 DUP4 SUB DUP2 DUP6 DUP8 GAS CALL SWAP3 POP POP POP RETURNDATASIZE DUP1 PUSH1 0x0 DUP2 EQ PUSH2 0x209F JUMPI PUSH1 0x40 MLOAD SWAP2 POP PUSH1 0x1F NOT PUSH1 0x3F RETURNDATASIZE ADD AND DUP3 ADD PUSH1 0x40 MSTORE RETURNDATASIZE DUP3 MSTORE RETURNDATASIZE PUSH1 0x0 PUSH1 0x20 DUP5 ADD RETURNDATACOPY PUSH2 0x20A4 JUMP JUMPDEST PUSH1 0x60 SWAP2 POP JUMPDEST POP SWAP2 POP SWAP2 POP PUSH2 0x20B4 DUP3 DUP3 DUP7 PUSH2 0x20BF JUMP JUMPDEST SWAP8 SWAP7 POP POP POP POP POP POP POP JUMP JUMPDEST PUSH1 0x60 DUP4 ISZERO PUSH2 0x20CE JUMPI POP DUP2 PUSH2 0xF27 JUMP JUMPDEST DUP3 MLOAD ISZERO PUSH2 0x20DE JUMPI DUP3 MLOAD DUP1 DUP5 PUSH1 0x20 ADD REVERT JUMPDEST DUP2 PUSH1 0x40 MLOAD PUSH3 0x461BCD PUSH1 0xE5 SHL DUP2 MSTORE PUSH1 0x4 ADD PUSH2 0x582 SWAP2 SWAP1 PUSH2 0x22F2 JUMP JUMPDEST PUSH1 0x0 PUSH1 0x20 DUP3 DUP5 SUB SLT ISZERO PUSH2 0x210A JUMPI PUSH1 0x0 DUP1 REVERT JUMPDEST DUP2 CALLDATALOAD PUSH2 0xF27 DUP2 PUSH2 0x2474 JUMP JUMPDEST PUSH1 0x0 PUSH1 0x20 DUP3 DUP5 SUB SLT ISZERO PUSH2 0x2127 JUMPI PUSH1 0x0 DUP1 REVERT JUMPDEST DUP2 MLOAD PUSH2 0xF27 DUP2 PUSH2 0x2474 JUMP JUMPDEST PUSH1 0x0 PUSH1 0x20 DUP3 DUP5 SUB SLT ISZERO PUSH2 0x2144 JUMPI PUSH1 0x0 DUP1 REVERT JUMPDEST DUP2 MLOAD PUSH2 0xF27 DUP2 PUSH2 0x2489 JUMP JUMPDEST PUSH1 0x0 PUSH1 0x20 DUP3 DUP5 SUB SLT ISZERO PUSH2 0x2161 JUMPI PUSH1 0x0 DUP1 REVERT JUMPDEST DUP2 CALLDATALOAD PUSH2 0xF27 DUP2 PUSH2 0x2497 JUMP JUMPDEST PUSH1 0x0 PUSH1 0x20 DUP3 DUP5 SUB SLT ISZERO PUSH2 0x217E JUMPI PUSH1 0x0 DUP1 REVERT JUMPDEST DUP2 MLOAD PUSH2 0xF27 DUP2 PUSH2 0x2497 JUMP JUMPDEST PUSH1 0x0 PUSH1 0x20 DUP3 DUP5 SUB SLT ISZERO PUSH2 0x219B JUMPI PUSH1 0x0 DUP1 REVERT JUMPDEST POP CALLDATALOAD SWAP2 SWAP1 POP JUMP JUMPDEST PUSH1 0x0 PUSH1 0x20 DUP3 DUP5 SUB SLT ISZERO PUSH2 0x21B4 JUMPI PUSH1 0x0 DUP1 REVERT JUMPDEST POP MLOAD SWAP2 SWAP1 POP JUMP JUMPDEST PUSH1 0x0 DUP1 PUSH1 0x40 DUP4 DUP6 SUB SLT ISZERO PUSH2 0x21CE JUMPI PUSH1 0x0 DUP1 REVERT JUMPDEST DUP3 CALLDATALOAD SWAP2 POP PUSH1 0x20 DUP4 ADD CALLDATALOAD PUSH2 0x21E0 DUP2 PUSH2 0x2474 JUMP JUMPDEST DUP1 SWAP2 POP POP SWAP3 POP SWAP3 SWAP1 POP JUMP JUMPDEST PUSH1 0x0 DUP1 PUSH1 0x0 DUP1 PUSH1 0x0 PUSH1 0xA0 DUP7 DUP9 SUB SLT ISZERO PUSH2 0x2203 JUMPI PUSH1 0x0 DUP1 REVERT JUMPDEST DUP6 CALLDATALOAD SWAP5 POP PUSH1 0x20 DUP7 ADD CALLDATALOAD PUSH2 0x2215 DUP2 PUSH2 0x2474 JUMP JUMPDEST SWAP4 POP PUSH1 0x40 DUP7 ADD CALLDATALOAD PUSH2 0x2225 DUP2 PUSH2 0x2497 JUMP JUMPDEST SWAP3 POP PUSH1 0x60 DUP7 ADD CALLDATALOAD SWAP2 POP PUSH1 0x80 DUP7 ADD CALLDATALOAD PUSH2 0x223C DUP2 PUSH2 0x2489 JUMP JUMPDEST DUP1 SWAP2 POP POP SWAP3 SWAP6 POP SWAP3 SWAP6 SWAP1 SWAP4 POP JUMP JUMPDEST PUSH1 0x0 DUP1 PUSH1 0x40 DUP4 DUP6 SUB SLT ISZERO PUSH2 0x225D JUMPI PUSH1 0x0 DUP1 REVERT JUMPDEST POP POP DUP1 CALLDATALOAD SWAP3 PUSH1 0x20 SWAP1 SWAP2 ADD CALLDATALOAD SWAP2 POP JUMP JUMPDEST PUSH1 0x0 DUP1 PUSH1 0x0 PUSH1 0x60 DUP5 DUP7 SUB SLT ISZERO PUSH2 0x2281 JUMPI PUSH1 0x0 DUP1 REVERT JUMPDEST DUP4 CALLDATALOAD SWAP3 POP PUSH1 0x20 DUP5 ADD CALLDATALOAD SWAP2 POP PUSH1 0x40 DUP5 ADD CALLDATALOAD PUSH2 0x229A DUP2 PUSH2 0x2474 JUMP JUMPDEST DUP1 SWAP2 POP POP SWAP3 POP SWAP3 POP SWAP3 JUMP JUMPDEST PUSH1 0x0 DUP1 PUSH1 0x0 DUP1 PUSH1 0x0 PUSH1 0xA0 DUP7 DUP9 SUB SLT ISZERO PUSH2 0x22BD JUMPI PUSH1 0x0 DUP1 REVERT JUMPDEST DUP6 CALLDATALOAD SWAP5 POP PUSH1 0x20 DUP7 ADD CALLDATALOAD SWAP4 POP PUSH1 0x40 DUP7 ADD CALLDATALOAD PUSH2 0x2225 DUP2 PUSH2 0x2497 JUMP JUMPDEST PUSH1 0x0 DUP3 MLOAD PUSH2 0x22E8 DUP2 DUP5 PUSH1 0x20 DUP8 ADD PUSH2 0x2401 JUMP JUMPDEST SWAP2 SWAP1 SWAP2 ADD SWAP3 SWAP2 POP POP JUMP JUMPDEST PUSH1 0x20 DUP2 MSTORE PUSH1 0x0 DUP3 MLOAD DUP1 PUSH1 0x20 DUP5 ADD MSTORE PUSH2 0x2311 DUP2 PUSH1 0x40 DUP6 ADD PUSH1 0x20 DUP8 ADD PUSH2 0x2401 JUMP JUMPDEST PUSH1 0x1F ADD PUSH1 0x1F NOT AND SWAP2 SWAP1 SWAP2 ADD PUSH1 0x40 ADD SWAP3 SWAP2 POP POP JUMP JUMPDEST PUSH1 0x20 DUP1 DUP3 MSTORE DUP2 DUP2 ADD MSTORE PUSH32 0x4F776E61626C653A2063616C6C6572206973206E6F7420746865206F776E6572 PUSH1 0x40 DUP3 ADD MSTORE PUSH1 0x60 ADD SWAP1 JUMP JUMPDEST PUSH1 0x20 DUP1 DUP3 MSTORE PUSH1 0x1F SWAP1 DUP3 ADD MSTORE PUSH32 0x5265656E7472616E637947756172643A207265656E7472616E742063616C6C00 PUSH1 0x40 DUP3 ADD MSTORE PUSH1 0x60 ADD SWAP1 JUMP JUMPDEST PUSH1 0x0 DUP3 NOT DUP3 GT ISZERO PUSH2 0x23A4 JUMPI PUSH2 0x23A4 PUSH2 0x2448 JUMP JUMPDEST POP ADD SWAP1 JUMP JUMPDEST PUSH1 0x0 DUP3 PUSH2 0x23C6 JUMPI PUSH4 0x4E487B71 PUSH1 0xE0 SHL PUSH1 0x0 MSTORE PUSH1 0x12 PUSH1 0x4 MSTORE PUSH1 0x24 PUSH1 0x0 REVERT JUMPDEST POP DIV SWAP1 JUMP JUMPDEST PUSH1 0x0 DUP2 PUSH1 0x0 NOT DIV DUP4 GT DUP3 ISZERO ISZERO AND ISZERO PUSH2 0x23E5 JUMPI PUSH2 0x23E5 PUSH2 0x2448 JUMP JUMPDEST POP MUL SWAP1 JUMP JUMPDEST PUSH1 0x0 DUP3 DUP3 LT ISZERO PUSH2 0x23FC JUMPI PUSH2 0x23FC PUSH2 0x2448 JUMP JUMPDEST POP SUB SWAP1 JUMP JUMPDEST PUSH1 0x0 JUMPDEST DUP4 DUP2 LT ISZERO PUSH2 0x241C JUMPI DUP2 DUP2 ADD MLOAD DUP4 DUP3 ADD MSTORE PUSH1 0x20 ADD PUSH2 0x2404 JUMP JUMPDEST DUP4 DUP2 GT ISZERO PUSH2 0x1993 JUMPI POP POP PUSH1 0x0 SWAP2 ADD MSTORE JUMP JUMPDEST PUSH1 0x0 PUSH1 0x0 NOT DUP3 EQ ISZERO PUSH2 0x2441 JUMPI PUSH2 0x2441 PUSH2 0x2448 JUMP JUMPDEST POP PUSH1 0x1 ADD SWAP1 JUMP JUMPDEST PUSH4 0x4E487B71 PUSH1 0xE0 SHL PUSH1 0x0 MSTORE PUSH1 0x11 PUSH1 0x4 MSTORE PUSH1 0x24 PUSH1 0x0 REVERT JUMPDEST PUSH4 0x4E487B71 PUSH1 0xE0 SHL PUSH1 0x0 MSTORE PUSH1 0x32 PUSH1 0x4 MSTORE PUSH1 0x24 PUSH1 0x0 REVERT JUMPDEST PUSH1 0x1 PUSH1 0x1 PUSH1 0xA0 SHL SUB DUP2 AND DUP2 EQ PUSH2 0x17DF JUMPI PUSH1 0x0 DUP1 REVERT JUMPDEST DUP1 ISZERO ISZERO DUP2 EQ PUSH2 0x17DF JUMPI PUSH1 0x0 DUP1 REVERT JUMPDEST PUSH2 0xFFFF DUP2 AND DUP2 EQ PUSH2 0x17DF JUMPI PUSH1 0x0 DUP1 REVERT INVALID LOG2 PUSH5 0x6970667358 0x22 SLT KECCAK256 0x2F SWAP10 0x5C LOG2 SUB 0xC8 0xD3 KECCAK256 0x4D 0xBF 0xC5 CREATE NUMBER 0xAF SLT SSTORE TIMESTAMP CODESIZE ADDRESS 0xA8 0x4A SWAP5 0xE3 0x28 SWAP11 GASLIMIT PUSH21 0x963BF11A6464736F6C634300080700330000000000 "
				},
				"gasEstimates": {
					"creation": {
						"codeDepositCost": "1887400",
						"executionCost": "infinite",
						"totalCost": "infinite"
					},
					"external": {
						"BONUS_MULTIPLIER()": "229",
						"MAXIMUM_HARVEST_INTERVAL()": "294",
						"MAXIMUM_REFERRAL_COMMISSION_RATE()": "249",
						"MAX_STAKING_ALLOCATION()": "274",
						"add(uint256,address,uint16,uint256,bool)": "infinite",
						"canHarvest(uint256,address)": "2772",
						"deposit(uint256,uint256,address)": "infinite",
						"devAddress()": "2383",
						"emergencyWithdraw(uint256)": "infinite",
						"feeAddress()": "2405",
						"getMultiplier(uint256,uint256)": "infinite",
						"loteTreasury()": "2426",
						"lottery()": "2381",
						"lotteryPerBlock()": "2417",
						"lotteryReferral()": "2405",
						"massUpdatePools()": "infinite",
						"owner()": "2398",
						"pendingPosition(uint256,address)": "infinite",
						"poolInfo(uint256)": "15405",
						"poolLength()": "2317",
						"referralCommissionRate()": "2418",
						"renounceOwnership()": "28204",
						"set(uint256,uint256,uint16,uint256,bool)": "infinite",
						"setDevAddress(address)": "26806",
						"setFeeAddress(address)": "26852",
						"setPositionReferral(address)": "26839",
						"setReferralCommissionRate(uint16)": "26857",
						"stakingMinted()": "2352",
						"startBlock()": "2351",
						"totalAllocPoint()": "2397",
						"totalLockedUpRewards()": "2396",
						"transferOwnership(address)": "infinite",
						"updateEmissionRate(uint256)": "infinite",
						"updatePool(uint256)": "infinite",
						"userInfo(uint256,address)": "9063",
						"withdraw(uint256,uint256)": "infinite"
					},
					"internal": {
						"payOrLockupPendingPosition(uint256)": "infinite",
						"payReferralCommission(address,uint256)": "infinite",
						"safePositionTransfer(address,uint256)": "infinite"
					}
				},
				"methodIdentifiers": {
					"BONUS_MULTIPLIER()": "8aa28550",
					"MAXIMUM_HARVEST_INTERVAL()": "de73149d",
					"MAXIMUM_REFERRAL_COMMISSION_RATE()": "48b22bfb",
					"MAX_STAKING_ALLOCATION()": "27ddb5a9",
					"add(uint256,address,uint16,uint256,bool)": "af018de8",
					"canHarvest(uint256,address)": "2e6c998d",
					"deposit(uint256,uint256,address)": "8dbdbe6d",
					"devAddress()": "3ad10ef6",
					"emergencyWithdraw(uint256)": "5312ea8e",
					"feeAddress()": "41275358",
					"getMultiplier(uint256,uint256)": "8dbb1e3a",
					"loteTreasury()": "a6530050",
					"lottery()": "ba13a572",
					"lotteryPerBlock()": "8f97f54c",
					"lotteryReferral()": "251b7e89",
					"massUpdatePools()": "630b5ba1",
					"owner()": "8da5cb5b",
					"pendingPosition(uint256,address)": "99335c39",
					"poolInfo(uint256)": "1526fe27",
					"poolLength()": "081e3eda",
					"referralCommissionRate()": "d30ef61b",
					"renounceOwnership()": "715018a6",
					"set(uint256,uint256,uint16,uint256,bool)": "2143e545",
					"setDevAddress(address)": "d0d41fe1",
					"setFeeAddress(address)": "8705fcd4",
					"setPositionReferral(address)": "2f1536b8",
					"setReferralCommissionRate(uint16)": "55dbc826",
					"stakingMinted()": "6497aa90",
					"startBlock()": "48cd4cb1",
					"totalAllocPoint()": "17caf6f1",
					"totalLockedUpRewards()": "474fa630",
					"transferOwnership(address)": "f2fde38b",
					"updateEmissionRate(uint256)": "0ba84cd2",
					"updatePool(uint256)": "51eb05a6",
					"userInfo(uint256,address)": "93f1a40b",
					"withdraw(uint256,uint256)": "441a3e70"
				}
			},
			"storageLayout": {
				"storage": [
					{
						"astId": 7,
						"contract": "contracts/LoteStakingManager.sol:LoteStakingManager",
						"label": "_owner",
						"offset": 0,
						"slot": "0",
						"type": "t_address"
					},
					{
						"astId": 115,
						"contract": "contracts/LoteStakingManager.sol:LoteStakingManager",
						"label": "_status",
						"offset": 0,
						"slot": "1",
						"type": "t_uint256"
					},
					{
						"astId": 1129,
						"contract": "contracts/LoteStakingManager.sol:LoteStakingManager",
						"label": "lottery",
						"offset": 0,
						"slot": "2",
						"type": "t_contract(ILotteryToken)2575"
					},
					{
						"astId": 1132,
						"contract": "contracts/LoteStakingManager.sol:LoteStakingManager",
						"label": "loteTreasury",
						"offset": 0,
						"slot": "3",
						"type": "t_contract(ILoteTreasury)1092"
					},
					{
						"astId": 1134,
						"contract": "contracts/LoteStakingManager.sol:LoteStakingManager",
						"label": "devAddress",
						"offset": 0,
						"slot": "4",
						"type": "t_address"
					},
					{
						"astId": 1136,
						"contract": "contracts/LoteStakingManager.sol:LoteStakingManager",
						"label": "feeAddress",
						"offset": 0,
						"slot": "5",
						"type": "t_address"
					},
					{
						"astId": 1138,
						"contract": "contracts/LoteStakingManager.sol:LoteStakingManager",
						"label": "lotteryPerBlock",
						"offset": 0,
						"slot": "6",
						"type": "t_uint256"
					},
					{
						"astId": 1159,
						"contract": "contracts/LoteStakingManager.sol:LoteStakingManager",
						"label": "poolInfo",
						"offset": 0,
						"slot": "7",
						"type": "t_array(t_struct(PoolInfo)1126_storage)dyn_storage"
					},
					{
						"astId": 1166,
						"contract": "contracts/LoteStakingManager.sol:LoteStakingManager",
						"label": "userInfo",
						"offset": 0,
						"slot": "8",
						"type": "t_mapping(t_uint256,t_mapping(t_address,t_struct(UserInfo)1112_storage))"
					},
					{
						"astId": 1169,
						"contract": "contracts/LoteStakingManager.sol:LoteStakingManager",
						"label": "totalAllocPoint",
						"offset": 0,
						"slot": "9",
						"type": "t_uint256"
					},
					{
						"astId": 1171,
						"contract": "contracts/LoteStakingManager.sol:LoteStakingManager",
						"label": "startBlock",
						"offset": 0,
						"slot": "10",
						"type": "t_uint256"
					},
					{
						"astId": 1173,
						"contract": "contracts/LoteStakingManager.sol:LoteStakingManager",
						"label": "totalLockedUpRewards",
						"offset": 0,
						"slot": "11",
						"type": "t_uint256"
					},
					{
						"astId": 1175,
						"contract": "contracts/LoteStakingManager.sol:LoteStakingManager",
						"label": "stakingMinted",
						"offset": 0,
						"slot": "12",
						"type": "t_uint256"
					},
					{
						"astId": 1178,
						"contract": "contracts/LoteStakingManager.sol:LoteStakingManager",
						"label": "lotteryReferral",
						"offset": 0,
						"slot": "13",
						"type": "t_contract(ILotteryReferral)2511"
					},
					{
						"astId": 1181,
						"contract": "contracts/LoteStakingManager.sol:LoteStakingManager",
						"label": "referralCommissionRate",
						"offset": 20,
						"slot": "13",
						"type": "t_uint16"
					}
				],
				"types": {
					"t_address": {
						"encoding": "inplace",
						"label": "address",
						"numberOfBytes": "20"
					},
					"t_array(t_struct(PoolInfo)1126_storage)dyn_storage": {
						"base": "t_struct(PoolInfo)1126_storage",
						"encoding": "dynamic_array",
						"label": "struct LoteStakingManager.PoolInfo[]",
						"numberOfBytes": "32"
					},
					"t_contract(IERC20)222": {
						"encoding": "inplace",
						"label": "contract IERC20",
						"numberOfBytes": "20"
					},
					"t_contract(ILoteTreasury)1092": {
						"encoding": "inplace",
						"label": "contract ILoteTreasury",
						"numberOfBytes": "20"
					},
					"t_contract(ILotteryReferral)2511": {
						"encoding": "inplace",
						"label": "contract ILotteryReferral",
						"numberOfBytes": "20"
					},
					"t_contract(ILotteryToken)2575": {
						"encoding": "inplace",
						"label": "contract ILotteryToken",
						"numberOfBytes": "20"
					},
					"t_mapping(t_address,t_struct(UserInfo)1112_storage)": {
						"encoding": "mapping",
						"key": "t_address",
						"label": "mapping(address => struct LoteStakingManager.UserInfo)",
						"numberOfBytes": "32",
						"value": "t_struct(UserInfo)1112_storage"
					},
					"t_mapping(t_uint256,t_mapping(t_address,t_struct(UserInfo)1112_storage))": {
						"encoding": "mapping",
						"key": "t_uint256",
						"label": "mapping(uint256 => mapping(address => struct LoteStakingManager.UserInfo))",
						"numberOfBytes": "32",
						"value": "t_mapping(t_address,t_struct(UserInfo)1112_storage)"
					},
					"t_struct(PoolInfo)1126_storage": {
						"encoding": "inplace",
						"label": "struct LoteStakingManager.PoolInfo",
						"members": [
							{
								"astId": 1115,
								"contract": "contracts/LoteStakingManager.sol:LoteStakingManager",
								"label": "lpToken",
								"offset": 0,
								"slot": "0",
								"type": "t_contract(IERC20)222"
							},
							{
								"astId": 1117,
								"contract": "contracts/LoteStakingManager.sol:LoteStakingManager",
								"label": "allocPoint",
								"offset": 0,
								"slot": "1",
								"type": "t_uint256"
							},
							{
								"astId": 1119,
								"contract": "contracts/LoteStakingManager.sol:LoteStakingManager",
								"label": "lastRewardBlock",
								"offset": 0,
								"slot": "2",
								"type": "t_uint256"
							},
							{
								"astId": 1121,
								"contract": "contracts/LoteStakingManager.sol:LoteStakingManager",
								"label": "accPositionPerShare",
								"offset": 0,
								"slot": "3",
								"type": "t_uint256"
							},
							{
								"astId": 1123,
								"contract": "contracts/LoteStakingManager.sol:LoteStakingManager",
								"label": "depositFeeBP",
								"offset": 0,
								"slot": "4",
								"type": "t_uint16"
							},
							{
								"astId": 1125,
								"contract": "contracts/LoteStakingManager.sol:LoteStakingManager",
								"label": "harvestInterval",
								"offset": 0,
								"slot": "5",
								"type": "t_uint256"
							}
						],
						"numberOfBytes": "192"
					},
					"t_struct(UserInfo)1112_storage": {
						"encoding": "inplace",
						"label": "struct LoteStakingManager.UserInfo",
						"members": [
							{
								"astId": 1105,
								"contract": "contracts/LoteStakingManager.sol:LoteStakingManager",
								"label": "amount",
								"offset": 0,
								"slot": "0",
								"type": "t_uint256"
							},
							{
								"astId": 1107,
								"contract": "contracts/LoteStakingManager.sol:LoteStakingManager",
								"label": "rewardDebt",
								"offset": 0,
								"slot": "1",
								"type": "t_uint256"
							},
							{
								"astId": 1109,
								"contract": "contracts/LoteStakingManager.sol:LoteStakingManager",
								"label": "rewardLockedUp",
								"offset": 0,
								"slot": "2",
								"type": "t_uint256"
							},
							{
								"astId": 1111,
								"contract": "contracts/LoteStakingManager.sol:LoteStakingManager",
								"label": "nextHarvestUntil",
								"offset": 0,
								"slot": "3",
								"type": "t_uint256"
							}
						],
						"numberOfBytes": "128"
					},
					"t_uint16": {
						"encoding": "inplace",
						"label": "uint16",
						"numberOfBytes": "2"
					},
					"t_uint256": {
						"encoding": "inplace",
						"label": "uint256",
						"numberOfBytes": "32"
					}
				}
			},
			"userdoc": {
				"kind": "user",
				"methods": {},
				"version": 1
			}
		}
	}
}