{
    "contractName": "Lottery",
    "abi": [
        {
            "inputs": [
                {
                    "internalType": "address",
                    "name": "_busd",
                    "type": "address"
                },
                {
                    "internalType": "address",
                    "name": "_timer",
                    "type": "address"
                },
                {
                    "internalType": "uint8",
                    "name": "_sizeOfLotteryNumbers",
                    "type": "uint8"
                },
                {
                    "internalType": "uint16",
                    "name": "_maxValidNumberRange",
                    "type": "uint16"
                },
                {
                    "internalType": "uint8",
                    "name": "_bucketOneMaxNumber",
                    "type": "uint8"
                },
                {
                    "internalType": "uint8",
                    "name": "_bucketTwoMaxNumber",
                    "type": "uint8"
                },
                {
                    "internalType": "uint8",
                    "name": "_discountForBucketOne",
                    "type": "uint8"
                },
                {
                    "internalType": "uint8",
                    "name": "_discountForBucketTwo",
                    "type": "uint8"
                },
                {
                    "internalType": "uint8",
                    "name": "_discountForBucketThree",
                    "type": "uint8"
                }
            ],
            "stateMutability": "nonpayable",
            "type": "constructor"
        },
        {
            "anonymous": false,
            "inputs": [
                {
                    "indexed": false,
                    "internalType": "uint8",
                    "name": "version",
                    "type": "uint8"
                }
            ],
            "name": "Initialized",
            "type": "event"
        },
        {
            "anonymous": false,
            "inputs": [
                {
                    "indexed": false,
                    "internalType": "uint256",
                    "name": "lotteryId",
                    "type": "uint256"
                },
                {
                    "indexed": false,
                    "internalType": "uint256",
                    "name": "ticketSupply",
                    "type": "uint256"
                }
            ],
            "name": "LotteryClose",
            "type": "event"
        },
        {
            "anonymous": false,
            "inputs": [
                {
                    "indexed": false,
                    "internalType": "uint256",
                    "name": "lotteryId",
                    "type": "uint256"
                },
                {
                    "indexed": false,
                    "internalType": "uint256",
                    "name": "ticketSupply",
                    "type": "uint256"
                }
            ],
            "name": "LotteryOpen",
            "type": "event"
        },
        {
            "anonymous": false,
            "inputs": [
                {
                    "indexed": true,
                    "internalType": "address",
                    "name": "minter",
                    "type": "address"
                },
                {
                    "indexed": false,
                    "internalType": "uint256[]",
                    "name": "ticketIDs",
                    "type": "uint256[]"
                },
                {
                    "indexed": false,
                    "internalType": "uint16[]",
                    "name": "numbers",
                    "type": "uint16[]"
                },
                {
                    "indexed": false,
                    "internalType": "uint256",
                    "name": "totalCost",
                    "type": "uint256"
                },
                {
                    "indexed": false,
                    "internalType": "uint256",
                    "name": "discount",
                    "type": "uint256"
                },
                {
                    "indexed": false,
                    "internalType": "uint256",
                    "name": "pricePaid",
                    "type": "uint256"
                }
            ],
            "name": "NewBatchMint",
            "type": "event"
        },
        {
            "anonymous": false,
            "inputs": [
                {
                    "indexed": true,
                    "internalType": "address",
                    "name": "previousOwner",
                    "type": "address"
                },
                {
                    "indexed": true,
                    "internalType": "address",
                    "name": "newOwner",
                    "type": "address"
                }
            ],
            "name": "OwnershipTransferred",
            "type": "event"
        },
        {
            "anonymous": false,
            "inputs": [
                {
                    "indexed": false,
                    "internalType": "uint256",
                    "name": "lotteryId",
                    "type": "uint256"
                },
                {
                    "indexed": false,
                    "internalType": "bytes32",
                    "name": "requestId",
                    "type": "bytes32"
                }
            ],
            "name": "RequestNumbers",
            "type": "event"
        },
        {
            "anonymous": false,
            "inputs": [
                {
                    "indexed": false,
                    "internalType": "address",
                    "name": "admin",
                    "type": "address"
                },
                {
                    "indexed": false,
                    "internalType": "uint8",
                    "name": "bucketOneMax",
                    "type": "uint8"
                },
                {
                    "indexed": false,
                    "internalType": "uint8",
                    "name": "bucketTwoMax",
                    "type": "uint8"
                },
                {
                    "indexed": false,
                    "internalType": "uint8",
                    "name": "discountForBucketOne",
                    "type": "uint8"
                },
                {
                    "indexed": false,
                    "internalType": "uint8",
                    "name": "discountForBucketTwo",
                    "type": "uint8"
                },
                {
                    "indexed": false,
                    "internalType": "uint8",
                    "name": "discountForBucketThree",
                    "type": "uint8"
                }
            ],
            "name": "UpdatedBuckets",
            "type": "event"
        },
        {
            "anonymous": false,
            "inputs": [
                {
                    "indexed": false,
                    "internalType": "address",
                    "name": "admin",
                    "type": "address"
                },
                {
                    "indexed": false,
                    "internalType": "uint16",
                    "name": "newMaxRange",
                    "type": "uint16"
                }
            ],
            "name": "UpdatedMaxRange",
            "type": "event"
        },
        {
            "anonymous": false,
            "inputs": [
                {
                    "indexed": false,
                    "internalType": "address",
                    "name": "admin",
                    "type": "address"
                },
                {
                    "indexed": false,
                    "internalType": "uint8",
                    "name": "newLotterySize",
                    "type": "uint8"
                }
            ],
            "name": "UpdatedSizeOfLottery",
            "type": "event"
        },
        {
            "inputs": [
                {
                    "internalType": "uint256",
                    "name": "_lotteryId",
                    "type": "uint256"
                },
                {
                    "internalType": "uint8",
                    "name": "_numberOfTickets",
                    "type": "uint8"
                },
                {
                    "internalType": "uint16[]",
                    "name": "_chosenNumbersForEachTicket",
                    "type": "uint16[]"
                }
            ],
            "name": "batchBuyLottoTicket",
            "outputs": [],
            "stateMutability": "nonpayable",
            "type": "function"
        },
        {
            "inputs": [
                {
                    "internalType": "uint256",
                    "name": "_lotteryId",
                    "type": "uint256"
                },
                {
                    "internalType": "uint256[]",
                    "name": "_tokeIds",
                    "type": "uint256[]"
                }
            ],
            "name": "batchClaimRewards",
            "outputs": [],
            "stateMutability": "nonpayable",
            "type": "function"
        },
        {
            "inputs": [],
            "name": "bucketOneMax_",
            "outputs": [
                {
                    "internalType": "uint8",
                    "name": "",
                    "type": "uint8"
                }
            ],
            "stateMutability": "view",
            "type": "function"
        },
        {
            "inputs": [],
            "name": "bucketTwoMax_",
            "outputs": [
                {
                    "internalType": "uint8",
                    "name": "",
                    "type": "uint8"
                }
            ],
            "stateMutability": "view",
            "type": "function"
        },
        {
            "inputs": [
                {
                    "internalType": "uint256",
                    "name": "_lotteryId",
                    "type": "uint256"
                },
                {
                    "internalType": "uint256",
                    "name": "_tokenId",
                    "type": "uint256"
                }
            ],
            "name": "claimReward",
            "outputs": [],
            "stateMutability": "nonpayable",
            "type": "function"
        },
        {
            "inputs": [
                {
                    "internalType": "uint256",
                    "name": "_lotteryId",
                    "type": "uint256"
                },
                {
                    "internalType": "uint256",
                    "name": "_numberOfTickets",
                    "type": "uint256"
                }
            ],
            "name": "costToBuyTickets",
            "outputs": [
                {
                    "internalType": "uint256",
                    "name": "totalCost",
                    "type": "uint256"
                }
            ],
            "stateMutability": "view",
            "type": "function"
        },
        {
            "inputs": [
                {
                    "internalType": "uint256",
                    "name": "_lotteryId",
                    "type": "uint256"
                },
                {
                    "internalType": "uint256",
                    "name": "_numberOfTickets",
                    "type": "uint256"
                }
            ],
            "name": "costToBuyTicketsWithDiscount",
            "outputs": [
                {
                    "internalType": "uint256",
                    "name": "cost",
                    "type": "uint256"
                },
                {
                    "internalType": "uint256",
                    "name": "discount",
                    "type": "uint256"
                },
                {
                    "internalType": "uint256",
                    "name": "costWithDiscount",
                    "type": "uint256"
                }
            ],
            "stateMutability": "view",
            "type": "function"
        },
        {
            "inputs": [
                {
                    "internalType": "uint8[]",
                    "name": "_prizeDistribution",
                    "type": "uint8[]"
                },
                {
                    "internalType": "uint256",
                    "name": "_prizePoolInCake",
                    "type": "uint256"
                },
                {
                    "internalType": "uint256",
                    "name": "_costPerTicket",
                    "type": "uint256"
                },
                {
                    "internalType": "uint256",
                    "name": "_startingTimestamp",
                    "type": "uint256"
                },
                {
                    "internalType": "uint256",
                    "name": "_closingTimestamp",
                    "type": "uint256"
                }
            ],
            "name": "createNewLotto",
            "outputs": [
                {
                    "internalType": "uint256",
                    "name": "lotteryId",
                    "type": "uint256"
                }
            ],
            "stateMutability": "nonpayable",
            "type": "function"
        },
        {
            "inputs": [],
            "name": "discountForBucketOne_",
            "outputs": [
                {
                    "internalType": "uint8",
                    "name": "",
                    "type": "uint8"
                }
            ],
            "stateMutability": "view",
            "type": "function"
        },
        {
            "inputs": [],
            "name": "discountForBucketThree_",
            "outputs": [
                {
                    "internalType": "uint8",
                    "name": "",
                    "type": "uint8"
                }
            ],
            "stateMutability": "view",
            "type": "function"
        },
        {
            "inputs": [],
            "name": "discountForBucketTwo_",
            "outputs": [
                {
                    "internalType": "uint8",
                    "name": "",
                    "type": "uint8"
                }
            ],
            "stateMutability": "view",
            "type": "function"
        },
        {
            "inputs": [
                {
                    "internalType": "uint256",
                    "name": "_lotteryId",
                    "type": "uint256"
                },
                {
                    "internalType": "uint256",
                    "name": "_seed",
                    "type": "uint256"
                }
            ],
            "name": "drawWinningNumbers",
            "outputs": [],
            "stateMutability": "nonpayable",
            "type": "function"
        },
        {
            "inputs": [
                {
                    "internalType": "uint256",
                    "name": "_lotteryId",
                    "type": "uint256"
                }
            ],
            "name": "getBasicLottoInfo",
            "outputs": [
                {
                    "components": [
                        {
                            "internalType": "uint256",
                            "name": "lotteryID",
                            "type": "uint256"
                        },
                        {
                            "internalType": "enum Lottery.Status",
                            "name": "lotteryStatus",
                            "type": "uint8"
                        },
                        {
                            "internalType": "uint256",
                            "name": "prizePoolInCake",
                            "type": "uint256"
                        },
                        {
                            "internalType": "uint256",
                            "name": "costPerTicket",
                            "type": "uint256"
                        },
                        {
                            "internalType": "uint8[]",
                            "name": "prizeDistribution",
                            "type": "uint8[]"
                        },
                        {
                            "internalType": "uint256",
                            "name": "startingTimestamp",
                            "type": "uint256"
                        },
                        {
                            "internalType": "uint256",
                            "name": "closingTimestamp",
                            "type": "uint256"
                        },
                        {
                            "internalType": "uint16[]",
                            "name": "winningNumbers",
                            "type": "uint16[]"
                        }
                    ],
                    "internalType": "struct Lottery.LottoInfo",
                    "name": "",
                    "type": "tuple"
                }
            ],
            "stateMutability": "view",
            "type": "function"
        },
        {
            "inputs": [],
            "name": "getCurrentTime",
            "outputs": [
                {
                    "internalType": "uint256",
                    "name": "",
                    "type": "uint256"
                }
            ],
            "stateMutability": "view",
            "type": "function"
        },
        {
            "inputs": [],
            "name": "getMaxRange",
            "outputs": [
                {
                    "internalType": "uint16",
                    "name": "",
                    "type": "uint16"
                }
            ],
            "stateMutability": "view",
            "type": "function"
        },
        {
            "inputs": [
                {
                    "internalType": "address",
                    "name": "_lotteryNFT",
                    "type": "address"
                },
                {
                    "internalType": "address",
                    "name": "_IRandomNumberGenerator",
                    "type": "address"
                }
            ],
            "name": "initialize",
            "outputs": [],
            "stateMutability": "nonpayable",
            "type": "function"
        },
        {
            "inputs": [],
            "name": "maxValidRange_",
            "outputs": [
                {
                    "internalType": "uint16",
                    "name": "",
                    "type": "uint16"
                }
            ],
            "stateMutability": "view",
            "type": "function"
        },
        {
            "inputs": [
                {
                    "internalType": "uint256",
                    "name": "_lotteryId",
                    "type": "uint256"
                },
                {
                    "internalType": "bytes32",
                    "name": "_requestId",
                    "type": "bytes32"
                },
                {
                    "internalType": "uint256",
                    "name": "_randomNumber",
                    "type": "uint256"
                }
            ],
            "name": "numbersDrawn",
            "outputs": [],
            "stateMutability": "nonpayable",
            "type": "function"
        },
        {
            "inputs": [],
            "name": "owner",
            "outputs": [
                {
                    "internalType": "address",
                    "name": "",
                    "type": "address"
                }
            ],
            "stateMutability": "view",
            "type": "function"
        },
        {
            "inputs": [],
            "name": "renounceOwnership",
            "outputs": [],
            "stateMutability": "nonpayable",
            "type": "function"
        },
        {
            "inputs": [
                {
                    "internalType": "uint256",
                    "name": "time",
                    "type": "uint256"
                }
            ],
            "name": "setCurrentTime",
            "outputs": [],
            "stateMutability": "nonpayable",
            "type": "function"
        },
        {
            "inputs": [],
            "name": "sizeOfLottery_",
            "outputs": [
                {
                    "internalType": "uint8",
                    "name": "",
                    "type": "uint8"
                }
            ],
            "stateMutability": "view",
            "type": "function"
        },
        {
            "inputs": [],
            "name": "timerAddress",
            "outputs": [
                {
                    "internalType": "address",
                    "name": "",
                    "type": "address"
                }
            ],
            "stateMutability": "view",
            "type": "function"
        },
        {
            "inputs": [
                {
                    "internalType": "address",
                    "name": "newOwner",
                    "type": "address"
                }
            ],
            "name": "transferOwnership",
            "outputs": [],
            "stateMutability": "nonpayable",
            "type": "function"
        },
        {
            "inputs": [
                {
                    "internalType": "uint8",
                    "name": "_bucketOneMax",
                    "type": "uint8"
                },
                {
                    "internalType": "uint8",
                    "name": "_bucketTwoMax",
                    "type": "uint8"
                },
                {
                    "internalType": "uint8",
                    "name": "_discountForBucketOne",
                    "type": "uint8"
                },
                {
                    "internalType": "uint8",
                    "name": "_discountForBucketTwo",
                    "type": "uint8"
                },
                {
                    "internalType": "uint8",
                    "name": "_discountForBucketThree",
                    "type": "uint8"
                }
            ],
            "name": "updateBuckets",
            "outputs": [],
            "stateMutability": "nonpayable",
            "type": "function"
        },
        {
            "inputs": [
                {
                    "internalType": "uint16",
                    "name": "_newMaxRange",
                    "type": "uint16"
                }
            ],
            "name": "updateMaxRange",
            "outputs": [],
            "stateMutability": "nonpayable",
            "type": "function"
        },
        {
            "inputs": [
                {
                    "internalType": "uint8",
                    "name": "_newSize",
                    "type": "uint8"
                }
            ],
            "name": "updateSizeOfLottery",
            "outputs": [],
            "stateMutability": "nonpayable",
            "type": "function"
        },
        {
            "inputs": [
                {
                    "internalType": "uint256",
                    "name": "_amount",
                    "type": "uint256"
                }
            ],
            "name": "withdrawCake",
            "outputs": [],
            "stateMutability": "nonpayable",
            "type": "function"
        }
    ],
    "bytecode": "60806040523480156200001157600080fd5b5060405162003b4f38038062003b4f83398101604081905262000034916200038b565b8762000040336200030c565b600180546001600160a01b0319166001600160a01b039290921691909117905560ff85161580159062000075575060ff841615155b620000c75760405162461bcd60e51b815260206004820152601860248201527f4275636b65742072616e67652063616e6e6f742062652030000000000000000060448201526064015b60405180910390fd5b8360ff168560ff16106200011e5760405162461bcd60e51b815260206004820152601a60248201527f4275636b6574206f6e65206d75737420626520736d616c6c65720000000000006044820152606401620000be565b8160ff168360ff161080156200013957508060ff168260ff16105b620001875760405162461bcd60e51b815260206004820152601760248201527f446973636f756e7473206d75737420696e6372656173650000000000000000006044820152606401620000be565b6001600160a01b038916620001df5760405162461bcd60e51b815260206004820152601d60248201527f436f6e7472616374732063616e6e6f74206265203020616464726573730000006044820152606401620000be565b60ff871615801590620001f5575061ffff861615155b620002435760405162461bcd60e51b815260206004820152601960248201527f4c6f74746572792073657475702063616e6e6f742062652030000000000000006044820152606401620000be565b600280546001600160a01b0319166001600160a01b039a909a16999099179098556007805460ff97881662ffffff199091161761010061ffff97909716969096029590951764ffff000000191663010000009487169490940260ff60201b191693909317640100000000928616929092029190911761ffff60281b1916650100000000009185169190910260ff60301b1916176601000000000000918416919091021760ff60381b1916670100000000000000929094169190910292909217909155506200044e565b600080546001600160a01b038381166001600160a01b0319831681178455604051919092169283917f8be0079c531659141344cd1fd0a4f28419497f9722a3daafe3b4186f6b6457e09190a35050565b80516001600160a01b03811681146200037457600080fd5b919050565b805160ff811681146200037457600080fd5b60008060008060008060008060006101208a8c031215620003ab57600080fd5b620003b68a6200035c565b9850620003c660208b016200035c565b9750620003d660408b0162000379565b965060608a015161ffff81168114620003ee57600080fd5b9550620003fe60808b0162000379565b94506200040e60a08b0162000379565b93506200041e60c08b0162000379565b92506200042e60e08b0162000379565b91506200043f6101008b0162000379565b90509295985092959850929598565b6136f1806200045e6000396000f3fe608060405234801561001057600080fd5b50600436106101c45760003560e01c806386bb8f37116100f9578063c8cfd90211610097578063dccda09611610071578063dccda096146103da578063e59bbab514610408578063e97fc16214610419578063f2fde38b1461042c57600080fd5b8063c8cfd90214610394578063d062b57c146103a7578063da476755146103ba57600080fd5b806391a28cdd116100d357806391a28cdd146103315780639c21660214610344578063a624aa1b14610358578063add5edf01461037e57600080fd5b806386bb8f37146102f85780638be852b11461030b5780638da5cb5b1461032057600080fd5b8063350d9251116101665780634f7d93db116101405780634f7d93db146102b7578063715018a6146102ca57806376674b8f146102d25780638324f7c5146102e557600080fd5b8063350d92511461027c5780633c309fe714610290578063485cc955146102a457600080fd5b80631c39c38d116101a25780631c39c38d1461021557806320dcba201461024057806322f8e5661461025357806329cb924d1461026657600080fd5b8063075dc415146101c95780630773aa46146101ed5780630dabc1d414610202575b600080fd5b6007546101d69060ff1681565b60405160ff90911681526020015b60405180910390f35b6102006101fb366004612cff565b61043f565b005b610200610210366004612d1a565b61056e565b600154610228906001600160a01b031681565b6040516001600160a01b0390911681526020016101e4565b61020061024e366004612d3c565b61075d565b610200610261366004612d3c565b610800565b61026e610876565b6040519081526020016101e4565b6007546101d6906301000000900460ff1681565b6007546101d690600160301b900460ff1681565b6102006102b2366004612d6a565b61090b565b61026e6102c5366004612d1a565b610a47565b610200610a6b565b6102006102e0366004612def565b610aa1565b61026e6102f3366004612e3b565b610fee565b610200610306366004612d1a565b611415565b6007546101d690640100000000900460ff1681565b6000546001600160a01b0316610228565b61020061033f366004612e9d565b6117de565b6007546101d690600160381b900460ff1681565b60075461036b90610100900461ffff1681565b60405161ffff90911681526020016101e4565b6007546101d69065010000000000900460ff1681565b6102006103a2366004612f02565b611a01565b6102006103b5366004612f6c565b611e6d565b6103cd6103c8366004612d3c565b611f9a565b6040516101e49190613011565b6103ed6103e8366004612d1a565b61215b565b604080519384526020840192909252908201526060016101e4565b600754610100900461ffff1661036b565b6102006104273660046130b2565b6121e9565b61020061043a3660046130de565b6123ac565b6000546001600160a01b031633146104725760405162461bcd60e51b8152600401610469906130fb565b60405180910390fd5b60075460ff8083169116036104c95760405162461bcd60e51b815260206004820152601a60248201527f43616e6e6f742073657420746f2063757272656e742073697a650000000000006044820152606401610469565b60075460ff1660000361051e5760405162461bcd60e51b815260206004820152601860248201527f4c6f74746572792073697a652063616e6e6f74206265203000000000000000006044820152606401610469565b6007805460ff191660ff83169081179091556040805133815260208101929092527f390ce0ae29f1f6d8a7be889544606cb23b660dd44710ecbe1408aaed6356eba391015b60405180910390a150565b6000546001600160a01b031633146105985760405162461bcd60e51b8152600401610469906130fb565b6105a0610876565b60008381526008602052604090206006015411156106125760405162461bcd60e51b815260206004820152602960248201527f43616e6e6f74207365742077696e6e696e67206e756d6265727320647572696e60448201526867206c6f747465727960b81b6064820152608401610469565b600160008381526008602052604090206001015460ff16600381111561063a5761063a612f89565b146106875760405162461bcd60e51b815260206004820181905260248201527f4c6f747465727920537461746520696e636f727265637420666f7220647261776044820152606401610469565b60008281526008602052604090819020600101805460ff191660021790556004805491516337347e0560e11b8152908101849052602481018390526001600160a01b0390911690636e68fc0a906044016020604051808303816000875af11580156106f6573d6000803e3d6000fd5b505050506040513d601f19601f8201168201806040525081019061071a9190613130565b60058190556040805184815260208101929092527ff8cdf8355a0f31bbad8998a631f5a75dcb3e475a010b34a111ed105fe88e751a910160405180910390a15050565b6000546001600160a01b031633146107875760405162461bcd60e51b8152600401610469906130fb565b60025460405163a9059cbb60e01b8152336004820152602481018390526001600160a01b039091169063a9059cbb906044016020604051808303816000875af11580156107d8573d6000803e3d6000fd5b505050506040513d601f19601f820116820180604052508101906107fc9190613149565b5050565b6001546001600160a01b031661081557600080fd5b60015460405163117c72b360e11b8152600481018390526001600160a01b03909116906322f8e56690602401600060405180830381600087803b15801561085b57600080fd5b505af115801561086f573d6000803e3d6000fd5b5050505050565b6001546000906001600160a01b03161561090657600160009054906101000a90046001600160a01b03166001600160a01b03166329cb924d6040518163ffffffff1660e01b8152600401602060405180830381865afa1580156108dd573d6000803e3d6000fd5b505050506040513d601f19601f820116820180604052508101906109019190613130565b905090565b504290565b60006109176001612447565b90508015610933576000805460ff60a81b1916600160a81b1790555b6000546001600160a01b0316331461095d5760405162461bcd60e51b8152600401610469906130fb565b6001600160a01b0383161580159061097d57506001600160a01b03821615155b6109c95760405162461bcd60e51b815260206004820152601d60248201527f436f6e7472616374732063616e6e6f74206265203020616464726573730000006044820152606401610469565b600380546001600160a01b038086166001600160a01b03199283161790925560048054928516929091169190911790558015610a42576000805460ff60a81b19169055604051600181527f7f26b83ff96e1f2b6a682f133852f6798a09c465da95921460cefb3847402498906020015b60405180910390a15b505050565b600082815260086020526040812060030154610a6381846124e7565b949350505050565b6000546001600160a01b03163314610a955760405162461bcd60e51b8152600401610469906130fb565b610a9f60006124fc565b565b333b15610ac05760405162461bcd60e51b81526004016104699061316b565b333214610adf5760405162461bcd60e51b815260040161046990613199565b6032811115610b285760405162461bcd60e51b8152602060048201526015602482015274426174636820636c61696d20746f6f206c6172676560581b6044820152606401610469565b610b30610876565b6000848152600860205260409020600601541115610b895760405162461bcd60e51b8152602060048201526016602482015275576169742074696c6c20656e6420746f20636c61696d60501b6044820152606401610469565b600360008481526008602052604090206001015460ff166003811115610bb157610bb1612f89565b14610bfe5760405162461bcd60e51b815260206004820152601e60248201527f57696e6e696e67204e756d62657273206e6f742063686f73656e2079657400006044820152606401610469565b6000805b82811015610fd05760035433906001600160a01b0316639d755367868685818110610c2f57610c2f6131d0565b905060200201356040518263ffffffff1660e01b8152600401610c5491815260200190565b602060405180830381865afa158015610c71573d6000803e3d6000fd5b505050506040513d601f19601f82011682018060405250810190610c9591906131e6565b6001600160a01b031614610ce65760405162461bcd60e51b81526020600482015260186024820152774f6e6c7920746865206f776e65722063616e20636c61696d60401b6044820152606401610469565b6003546001600160a01b0316639191a7ea858584818110610d0957610d096131d0565b905060200201356040518263ffffffff1660e01b8152600401610d2e91815260200190565b602060405180830381865afa158015610d4b573d6000803e3d6000fd5b505050506040513d601f19601f82011682018060405250810190610d6f9190613149565b610fbe576003546001600160a01b031663ed06a740858584818110610d9657610d966131d0565b90506020020135876040518363ffffffff1660e01b8152600401610dc4929190918252602082015260400190565b6020604051808303816000875af1158015610de3573d6000803e3d6000fd5b505050506040513d601f19601f82011682018060405250810190610e079190613149565b610e535760405162461bcd60e51b815260206004820152601a60248201527f4e756d6265727320666f72207469636b657420696e76616c69640000000000006044820152606401610469565b600354600090610f70906001600160a01b0316639839eafd878786818110610e7d57610e7d6131d0565b905060200201356040518263ffffffff1660e01b8152600401610ea291815260200190565b600060405180830381865afa158015610ebf573d6000803e3d6000fd5b505050506040513d6000823e601f3d908101601f19168201604052610ee7919081019061326e565b60008881526008602090815260409182902060070180548351818402810184019094528084529091830182828015610f6657602002820191906000526020600020906000905b82829054906101000a900461ffff1661ffff1681526020019060020190602082600101049283019260010382029150808411610f2d5790505b505050505061254c565b90506000610f7e82886125c1565b600088815260086020526040902060020154909150610f9d9082612658565b600088815260086020526040902060020155610fb98482612664565b935050505b80610fc881613318565b915050610c02565b50600254610fe8906001600160a01b03163383612670565b50505050565b600080546001600160a01b031633146110195760405162461bcd60e51b8152600401610469906130fb565b60075460ff1686146110645760405162461bcd60e51b815260206004820152601460248201527324b73b30b634b2103234b9ba3934b13aba34b7b760611b6044820152606401610469565b6000805b878110156110b8576110a4898983818110611085576110856131d0565b905060200201602081019061109a9190612cff565b839060ff16612664565b9150806110b081613318565b915050611068565b50806064146111095760405162461bcd60e51b815260206004820152601e60248201527f5072697a6520646973747269627574696f6e206973206e6f74203130302500006044820152606401610469565b851580159061111757508415155b6111635760405162461bcd60e51b815260206004820152601960248201527f5072697a65206f7220636f73742063616e6e6f742062652030000000000000006044820152606401610469565b831580159061117157508284105b6111bd5760405162461bcd60e51b815260206004820152601e60248201527f54696d657374616d707320666f72206c6f747465727920696e76616c696400006044820152606401610469565b6006546111cb906001612664565b600681905560075490925060009060ff1667ffffffffffffffff8111156111f4576111f4613203565b60405190808252806020026020018201604052801561121d578160200160208202803683370190505b509050600061122a610876565b86106112385750600161123c565b5060005b600060405180610100016040528086815260200183600381111561126257611262612f89565b81526020018a81526020018981526020018c8c80806020026020016040519081016040528093929190818152602001838360200280828437600092018290525093855250505060208083018b905260408084018b90526060909301879052888252600881529190208251815590820151600180830180549495508594909160ff19909116908360038111156112f9576112f9612f89565b021790555060408201516002820155606082015160038201556080820151805161132d916004840191602090910190612b9c565b5060a0820151600582015560c0820151600682015560e0820151805161135d916007840191602090910190612c42565b5050600354604080516362720d9160e11b815290517fce7176db4e5b6d07ad0f0ecf9523a01d98aa268b888a199592cb5b1e40615c46935088926001600160a01b03169163c4e41b229160048083019260209291908290030181865afa1580156113cb573d6000803e3d6000fd5b505050506040513d601f19601f820116820180604052508101906113ef9190613130565b6040805192835260208301919091520160405180910390a1505050509695505050505050565b333b156114345760405162461bcd60e51b81526004016104699061316b565b3332146114535760405162461bcd60e51b815260040161046990613199565b61145b610876565b60008381526008602052604090206006015411156114b45760405162461bcd60e51b8152602060048201526016602482015275576169742074696c6c20656e6420746f20636c61696d60501b6044820152606401610469565b600360008381526008602052604090206001015460ff1660038111156114dc576114dc612f89565b146115295760405162461bcd60e51b815260206004820152601e60248201527f57696e6e696e67204e756d62657273206e6f742063686f73656e2079657400006044820152606401610469565b600354604051639d75536760e01b81526004810183905233916001600160a01b031690639d75536790602401602060405180830381865afa158015611572573d6000803e3d6000fd5b505050506040513d601f19601f8201168201806040525081019061159691906131e6565b6001600160a01b0316146115e75760405162461bcd60e51b81526020600482015260186024820152774f6e6c7920746865206f776e65722063616e20636c61696d60401b6044820152606401610469565b6003546040516303b41a9d60e61b815260048101839052602481018490526001600160a01b039091169063ed06a740906044016020604051808303816000875af1158015611639573d6000803e3d6000fd5b505050506040513d601f19601f8201168201806040525081019061165d9190613149565b6116a95760405162461bcd60e51b815260206004820152601a60248201527f4e756d6265727320666f72207469636b657420696e76616c69640000000000006044820152606401610469565b600354604051639839eafd60e01b815260048101839052600091611785916001600160a01b0390911690639839eafd90602401600060405180830381865afa1580156116f9573d6000803e3d6000fd5b505050506040513d6000823e601f3d908101601f19168201604052611721919081019061326e565b60008581526008602090815260409182902060070180548351818402810184019094528084529091830182828015610f66576000918252602091829020805461ffff168452908202830192909160029101808411610f2d579050505050505061254c565b9050600061179382856125c1565b6000858152600860205260409020600201549091506117b29082612658565b600085815260086020526040902060029081019190915554610fe8906001600160a01b03163383612670565b6000546001600160a01b031633146118085760405162461bcd60e51b8152600401610469906130fb565b60ff85161580159061181c575060ff841615155b6118685760405162461bcd60e51b815260206004820152601860248201527f4275636b65742072616e67652063616e6e6f74206265203000000000000000006044820152606401610469565b8360ff168560ff16106118bd5760405162461bcd60e51b815260206004820152601a60248201527f4275636b6574206f6e65206d75737420626520736d616c6c65720000000000006044820152606401610469565b8160ff168360ff161080156118d757508060ff168260ff16105b6119235760405162461bcd60e51b815260206004820152601760248201527f446973636f756e7473206d75737420696e6372656173650000000000000000006044820152606401610469565b6007805464ffff0000001916630100000060ff88811691820264ff000000001916929092176401000000008884169081029190911766ffff000000000019166501000000000088851690810266ff000000000000191691909117600160301b8886169081029190911767ff000000000000001916600160381b958816958602179095556040805133815260208101949094528301919091526060820152608081019290925260a08201527f01618beb8a3c654575d63a5d2e28c8fc894fed0753514441c68f2e17a40bddd69060c00160405180910390a15050505050565b333b15611a205760405162461bcd60e51b81526004016104699061316b565b333214611a3f5760405162461bcd60e51b815260040161046990613199565b600084815260086020526040902060050154611a59610876565b1015611aa75760405162461bcd60e51b815260206004820152601b60248201527f496e76616c69642074696d6520666f72206d696e743a737461727400000000006044820152606401610469565b600084815260086020526040902060060154611ac1610876565b10611b0e5760405162461bcd60e51b815260206004820152601960248201527f496e76616c69642074696d6520666f72206d696e743a656e64000000000000006044820152606401610469565b60008481526008602052604081206001015460ff166003811115611b3457611b34612f89565b03611b7757611b41610876565b60008581526008602052604090206005015410611b775760008481526008602052604090206001908101805460ff191690911790555b600160008581526008602052604090206001015460ff166003811115611b9f57611b9f612f89565b14611bec5760405162461bcd60e51b815260206004820152601d60248201527f4c6f7474657279206e6f7420696e20737461746520666f72206d696e740000006044820152606401610469565b60328360ff161115611c375760405162461bcd60e51b81526020600482015260146024820152734261746368206d696e7420746f6f206c6172676560601b6044820152606401610469565b600754600090611c4d9060ff86811691166126c2565b60ff169050818114611c9a5760405162461bcd60e51b8152602060048201526016602482015275496e76616c69642063686f73656e206e756d6265727360501b6044820152606401610469565b604051636e66d04b60e11b81526004810186905260ff8516602482015260009081908190309063dccda09690604401606060405180830381865afa158015611ce6573d6000803e3d6000fd5b505050506040513d601f19601f82011682018060405250810190611d0a9190613331565b6002546040516323b872dd60e01b81523360048201523060248201526044810183905293965091945092506001600160a01b0316906323b872dd906064016020604051808303816000875af1158015611d67573d6000803e3d6000fd5b505050506040513d601f19601f82011682018060405250810190611d8b9190613149565b506003546007546040516305e3261d60e41b81526000926001600160a01b031691635e3261d091611dce9133918e918e918e918e9160ff90911690600401613398565b6000604051808303816000875af1158015611ded573d6000803e3d6000fd5b505050506040513d6000823e601f3d908101601f19168201604052611e1591908101906133df565b9050336001600160a01b03167ff3b6bffcebba7579100b0c6d1a161291881ac36e30c7eced22d0103370e6cafc828989888888604051611e5a96959493929190613465565b60405180910390a2505050505050505050565b6000546001600160a01b03163314611e975760405162461bcd60e51b8152600401610469906130fb565b60075461ffff8083166101009092041603611ef45760405162461bcd60e51b815260206004820152601a60248201527f43616e6e6f742073657420746f2063757272656e742073697a650000000000006044820152606401610469565b600754610100900461ffff16600003611f475760405162461bcd60e51b815260206004820152601560248201527404d61782072616e67652063616e6e6f74206265203605c1b6044820152606401610469565b6007805462ffff00191661010061ffff8416908102919091179091556040805133815260208101929092527f2a54f3414068117c88afc33d8e1dea5f6330df95e10ef41731baea27ab8a946e9101610563565b611fe36040805161010081019091526000808252602082019081526020016000815260200160008152602001606081526020016000815260200160008152602001606081525090565b60008281526008602090815260409182902082516101008101909352805483526001810154909183019060ff16600381111561202157612021612f89565b600381111561203257612032612f89565b81526020016002820154815260200160038201548152602001600482018054806020026020016040519081016040528092919081815260200182805480156120b757602002820191906000526020600020906000905b825461010083900a900460ff168152602060019283018181049485019490930390920291018084116120885790505b5050505050815260200160058201548152602001600682015481526020016007820180548060200260200160405190810160405280929190818152602001828054801561214b57602002820191906000526020600020906000905b82829054906101000a900461ffff1661ffff16815260200190600201906020826001010492830192600103820291508084116121125790505b5050505050815250509050919050565b600080600061216a858561274d565b604051634f7d93db60e01b815260048101879052602481018690529092503090634f7d93db90604401602060405180830381865afa1580156121b0573d6000803e3d6000fd5b505050506040513d601f19601f820116820180604052508101906121d49190613130565b92506121e08383612658565b90509250925092565b6004546001600160a01b0316331461223b5760405162461bcd60e51b815260206004820152601560248201527427b7363c903930b73237b69033b2b732b930ba37b960591b6044820152606401610469565b600260008481526008602052604090206001015460ff16600381111561226357612263612f89565b146122a55760405162461bcd60e51b8152602060048201526012602482015271111c985dc81b9d5b58995c9cc8199a5c9cdd60721b6044820152606401610469565b81600554036122fe576000838152600860205260409020600101805460ff191660031790556122d381612851565b6008600085815260200190815260200160002060070190805190602001906122fc929190612c42565b505b7f3728e75294796694d59d2ffced9c394279baf7b9ebd2702db43f5f04bac6792983600360009054906101000a90046001600160a01b03166001600160a01b031663c4e41b226040518163ffffffff1660e01b8152600401602060405180830381865afa158015612373573d6000803e3d6000fd5b505050506040513d601f19601f820116820180604052508101906123979190613130565b60408051928352602083019190915201610a39565b6000546001600160a01b031633146123d65760405162461bcd60e51b8152600401610469906130fb565b6001600160a01b03811661243b5760405162461bcd60e51b815260206004820152602660248201527f4f776e61626c653a206e6577206f776e657220697320746865207a65726f206160448201526564647265737360d01b6064820152608401610469565b612444816124fc565b50565b60008054600160a81b900460ff1615612490578160ff16600114801561246c5750303b155b6124885760405162461bcd60e51b8152600401610469906134d3565b506000919050565b60005460ff808416600160a01b90920416106124be5760405162461bcd60e51b8152600401610469906134d3565b506000805460ff909216600160a01b0260ff60a01b19909216919091179055600190565b919050565b60006124f38284613521565b90505b92915050565b600080546001600160a01b038381166001600160a01b0319831681178455604051919092169283917f8be0079c531659141344cd1fd0a4f28419497f9722a3daafe3b4186f6b6457e09190a35050565b6000805b82518110156125ba5782818151811061256b5761256b6131d0565b602002602001015161ffff16848281518110612589576125896131d0565b602002602001015161ffff16036125a8576125a5600183613540565b91505b806125b281613318565b915050612550565b5092915050565b60008060ff841681036125d85760009150506124f6565b60008381526008602052604081206004016125f4600187613565565b60ff1681548110612607576126076131d0565b600091825260208083208183040154878452600890915260409092206002015460ff601f9092166101000a90920416915061264290826124e7565b915061264f82606461292f565b95945050505050565b60006124f38284613588565b60006124f3828461359f565b604080516001600160a01b038416602482015260448082018490528251808303909101815260649091019091526020810180516001600160e01b031663a9059cbb60e01b179052610a4290849061293b565b60008260ff166000036126d7575060006124f6565b60006126e383856135b7565b905060ff83166126f385836135f6565b60ff16146124f35760405162461bcd60e51b815260206004820152602160248201527f536166654d6174683a206d756c7469706c69636174696f6e206f766572666c6f6044820152607760f81b6064820152608401610469565b604051634f7d93db60e01b8152600481018390526024810182905260009081903090634f7d93db90604401602060405180830381865afa158015612795573d6000803e3d6000fd5b505050506040513d601f19601f820116820180604052508101906127b99190613130565b6007549091506301000000900460ff168310156127fe576007546127f7906064906127f190849065010000000000900460ff166124e7565b9061292f565b91506125ba565b600754640100000000900460ff16831015612832576007546127f7906064906127f1908490600160301b900460ff166124e7565b600754610a63906064906127f1908490600160381b900460ff166124e7565b60075460609060009060ff1667ffffffffffffffff81111561287557612875613203565b60405190808252806020026020018201604052801561289e578160200160208202803683370190505b50905060005b60075460ff168110156125ba576040805160208082018790528183018490528251808303840181526060909201909252805191012060075481906128f2908290610100900461ffff16612a0d565b848481518110612904576129046131d0565b602002602001019061ffff16908161ffff16815250505050808061292790613318565b9150506128a4565b60006124f38284613618565b6000612990826040518060400160405280602081526020017f5361666545524332303a206c6f772d6c6576656c2063616c6c206661696c6564815250856001600160a01b0316612a199092919063ffffffff16565b805190915015610a4257808060200190518101906129ae9190613149565b610a425760405162461bcd60e51b815260206004820152602a60248201527f5361666545524332303a204552433230206f7065726174696f6e20646964206e6044820152691bdd081cdd58d8d9595960b21b6064820152608401610469565b60006124f3828461362c565b6060612a288484600085612a32565b90505b9392505050565b606082471015612a935760405162461bcd60e51b815260206004820152602660248201527f416464726573733a20696e73756666696369656e742062616c616e636520666f6044820152651c8818d85b1b60d21b6064820152608401610469565b6001600160a01b0385163b612aea5760405162461bcd60e51b815260206004820152601d60248201527f416464726573733a2063616c6c20746f206e6f6e2d636f6e74726163740000006044820152606401610469565b600080866001600160a01b03168587604051612b06919061366c565b60006040518083038185875af1925050503d8060008114612b43576040519150601f19603f3d011682016040523d82523d6000602084013e612b48565b606091505b5091509150612b58828286612b63565b979650505050505050565b60608315612b72575081612a2b565b825115612b825782518084602001fd5b8160405162461bcd60e51b81526004016104699190613688565b82805482825590600052602060002090601f01602090048101928215612c325791602002820160005b83821115612c0357835183826101000a81548160ff021916908360ff1602179055509260200192600101602081600001049283019260010302612bc5565b8015612c305782816101000a81549060ff0219169055600101602081600001049283019260010302612c03565b505b50612c3e929150612cd9565b5090565b82805482825590600052602060002090600f01601090048101928215612c325791602002820160005b83821115612cab57835183826101000a81548161ffff021916908361ffff1602179055509260200192600201602081600101049283019260010302612c6b565b8015612c305782816101000a81549061ffff0219169055600201602081600101049283019260010302612cab565b5b80821115612c3e5760008155600101612cda565b803560ff811681146124e257600080fd5b600060208284031215612d1157600080fd5b6124f382612cee565b60008060408385031215612d2d57600080fd5b50508035926020909101359150565b600060208284031215612d4e57600080fd5b5035919050565b6001600160a01b038116811461244457600080fd5b60008060408385031215612d7d57600080fd5b8235612d8881612d55565b91506020830135612d9881612d55565b809150509250929050565b60008083601f840112612db557600080fd5b50813567ffffffffffffffff811115612dcd57600080fd5b6020830191508360208260051b8501011115612de857600080fd5b9250929050565b600080600060408486031215612e0457600080fd5b83359250602084013567ffffffffffffffff811115612e2257600080fd5b612e2e86828701612da3565b9497909650939450505050565b60008060008060008060a08789031215612e5457600080fd5b863567ffffffffffffffff811115612e6b57600080fd5b612e7789828a01612da3565b909a90995060208901359860408101359850606081013597506080013595509350505050565b600080600080600060a08688031215612eb557600080fd5b612ebe86612cee565b9450612ecc60208701612cee565b9350612eda60408701612cee565b9250612ee860608701612cee565b9150612ef660808701612cee565b90509295509295909350565b60008060008060608587031215612f1857600080fd5b84359350612f2860208601612cee565b9250604085013567ffffffffffffffff811115612f4457600080fd5b612f5087828801612da3565b95989497509550505050565b61ffff8116811461244457600080fd5b600060208284031215612f7e57600080fd5b81356124f381612f5c565b634e487b7160e01b600052602160045260246000fd5b600081518084526020808501945080840160005b83811015612fd257815160ff1687529582019590820190600101612fb3565b509495945050505050565b600081518084526020808501945080840160005b83811015612fd257815161ffff1687529582019590820190600101612ff1565b6020815281516020820152600060208301516004811061304157634e487b7160e01b600052602160045260246000fd5b80604084015250604083015160608301526060830151608083015260808301516101008060a0850152613078610120850183612f9f565b915060a085015160c085015260c085015160e085015260e0850151601f1985840301828601526130a88382612fdd565b9695505050505050565b6000806000606084860312156130c757600080fd5b505081359360208301359350604090920135919050565b6000602082840312156130f057600080fd5b81356124f381612d55565b6020808252818101527f4f776e61626c653a2063616c6c6572206973206e6f7420746865206f776e6572604082015260600190565b60006020828403121561314257600080fd5b5051919050565b60006020828403121561315b57600080fd5b815180151581146124f357600080fd5b60208082526014908201527318dbdb9d1c9858dd081b9bdd08185b1b1bddd95960621b604082015260600190565b6020808252601a908201527f70726f787920636f6e7472616374206e6f7420616c6c6f776564000000000000604082015260600190565b634e487b7160e01b600052603260045260246000fd5b6000602082840312156131f857600080fd5b81516124f381612d55565b634e487b7160e01b600052604160045260246000fd5b604051601f8201601f1916810167ffffffffffffffff8111828210171561324257613242613203565b604052919050565b600067ffffffffffffffff82111561326457613264613203565b5060051b60200190565b6000602080838503121561328157600080fd5b825167ffffffffffffffff81111561329857600080fd5b8301601f810185136132a957600080fd5b80516132bc6132b78261324a565b613219565b81815260059190911b820183019083810190878311156132db57600080fd5b928401925b82841015612b585783516132f381612f5c565b825292840192908401906132e0565b634e487b7160e01b600052601160045260246000fd5b60006001820161332a5761332a613302565b5060010190565b60008060006060848603121561334657600080fd5b8351925060208401519150604084015190509250925092565b8183526000602080850194508260005b85811015612fd257813561338281612f5c565b61ffff168752958201959082019060010161336f565b60018060a01b038716815285602082015260ff8516604082015260a0606082015260006133c960a08301858761335f565b905060ff83166080830152979650505050505050565b600060208083850312156133f257600080fd5b825167ffffffffffffffff81111561340957600080fd5b8301601f8101851361341a57600080fd5b80516134286132b78261324a565b81815260059190911b8201830190838101908783111561344757600080fd5b928401925b82841015612b585783518252928401929084019061344c565b60a0808252875190820181905260009060209060c0840190828b01845b8281101561349e57815184529284019290840190600101613482565b505050838103828501526134b381898b61335f565b604085019790975250505060608101929092526080909101529392505050565b6020808252602e908201527f496e697469616c697a61626c653a20636f6e747261637420697320616c72656160408201526d191e481a5b9a5d1a585b1a5e995960921b606082015260800190565b600081600019048311821515161561353b5761353b613302565b500290565b600060ff821660ff84168060ff0382111561355d5761355d613302565b019392505050565b600060ff821660ff84168082101561357f5761357f613302565b90039392505050565b60008282101561359a5761359a613302565b500390565b600082198211156135b2576135b2613302565b500190565b600060ff821660ff84168160ff04811182151516156135d8576135d8613302565b029392505050565b634e487b7160e01b600052601260045260246000fd5b600060ff831680613609576136096135e0565b8060ff84160491505092915050565b600082613627576136276135e0565b500490565b60008261363b5761363b6135e0565b500690565b60005b8381101561365b578181015183820152602001613643565b83811115610fe85750506000910152565b6000825161367e818460208701613640565b9190910192915050565b60208152600082518060208401526136a7816040850160208701613640565b601f01601f1916919091016040019291505056fea2646970667358221220bca5ede78f6345bedc89dc52d687f40173c78ce95db94ff099c1040e9c93da8d64736f6c634300080e0033",
    "sourcePath": "d:/Lucky lottery/Lottery-Smart-contract/contracts/core/Lottery.sol",
    "compiler": {
        "name": "solc",
        "version": "0.8.14+commit.80d49f37"
    },
    "functionHashes": {
        "batchBuyLottoTicket(uint256,uint8,uint16[])": "c8cfd902",
        "batchClaimRewards(uint256,uint256[])": "76674b8f",
        "bucketOneMax_()": "350d9251",
        "bucketTwoMax_()": "8be852b1",
        "claimReward(uint256,uint256)": "86bb8f37",
        "costToBuyTickets(uint256,uint256)": "4f7d93db",
        "costToBuyTicketsWithDiscount(uint256,uint256)": "dccda096",
        "createNewLotto(uint8[],uint256,uint256,uint256,uint256)": "8324f7c5",
        "discountForBucketOne_()": "add5edf0",
        "discountForBucketThree_()": "9c216602",
        "discountForBucketTwo_()": "3c309fe7",
        "drawWinningNumbers(uint256,uint256)": "0dabc1d4",
        "getBasicLottoInfo(uint256)": "da476755",
        "getCurrentTime()": "29cb924d",
        "getMaxRange()": "e59bbab5",
        "initialize(address,address)": "485cc955",
        "maxValidRange_()": "a624aa1b",
        "numbersDrawn(uint256,bytes32,uint256)": "e97fc162",
        "owner()": "8da5cb5b",
        "renounceOwnership()": "715018a6",
        "setCurrentTime(uint256)": "22f8e566",
        "sizeOfLottery_()": "075dc415",
        "timerAddress()": "1c39c38d",
        "transferOwnership(address)": "f2fde38b",
        "updateBuckets(uint8,uint8,uint8,uint8,uint8)": "91a28cdd",
        "updateMaxRange(uint16)": "d062b57c",
        "updateSizeOfLottery(uint8)": "0773aa46",
        "withdrawCake(uint256)": "20dcba20"
    },
    "gasEstimates": {
        "creation": {
            "codeDepositCost": "2813000",
            "executionCost": "infinite",
            "totalCost": "infinite"
        },
        "external": {
            "batchBuyLottoTicket(uint256,uint8,uint16[])": "infinite",
            "batchClaimRewards(uint256,uint256[])": "infinite",
            "bucketOneMax_()": "2359",
            "bucketTwoMax_()": "2381",
            "claimReward(uint256,uint256)": "infinite",
            "costToBuyTickets(uint256,uint256)": "2676",
            "costToBuyTicketsWithDiscount(uint256,uint256)": "infinite",
            "createNewLotto(uint8[],uint256,uint256,uint256,uint256)": "infinite",
            "discountForBucketOne_()": "2424",
            "discountForBucketThree_()": "2386",
            "discountForBucketTwo_()": "2387",
            "drawWinningNumbers(uint256,uint256)": "infinite",
            "getBasicLottoInfo(uint256)": "infinite",
            "getCurrentTime()": "infinite",
            "getMaxRange()": "2384",
            "initialize(address,address)": "infinite",
            "maxValidRange_()": "2413",
            "numbersDrawn(uint256,bytes32,uint256)": "infinite",
            "owner()": "2421",
            "renounceOwnership()": "28181",
            "setCurrentTime(uint256)": "infinite",
            "sizeOfLottery_()": "2349",
            "timerAddress()": "2383",
            "transferOwnership(address)": "infinite",
            "updateBuckets(uint8,uint8,uint8,uint8,uint8)": "infinite",
            "updateMaxRange(uint16)": "32390",
            "updateSizeOfLottery(uint8)": "32348",
            "withdrawCake(uint256)": "infinite"
        },
        "internal": {
            "_discount(uint256,uint256)": "infinite",
            "_getNumberOfMatching(uint16[] memory,uint16[] memory)": "infinite",
            "_prizeForMatching(uint8,uint256)": "infinite",
            "_split(uint256)": "infinite"
        }
    }
}