{
  "contractName": "LoteStakingManager",
  "abi": [
    {
      "inputs": [
        {
          "internalType": "contract ILotteryToken",
          "name": "_lottery",
          "type": "address"
        },
        {
          "internalType": "contract ILoteTreasury",
          "name": "_loteTreasury",
          "type": "address"
        },
        {
          "internalType": "uint256",
          "name": "_startBlock",
          "type": "uint256"
        },
        {
          "internalType": "uint256",
          "name": "_lotteryPerBlock",
          "type": "uint256"
        }
      ],
      "stateMutability": "nonpayable",
      "type": "constructor"
    },
    {
      "anonymous": false,
      "inputs": [
        {
          "indexed": true,
          "internalType": "address",
          "name": "user",
          "type": "address"
        },
        {
          "indexed": true,
          "internalType": "uint256",
          "name": "pid",
          "type": "uint256"
        },
        {
          "indexed": false,
          "internalType": "uint256",
          "name": "amount",
          "type": "uint256"
        }
      ],
      "name": "Deposit",
      "type": "event"
    },
    {
      "anonymous": false,
      "inputs": [
        {
          "indexed": true,
          "internalType": "address",
          "name": "user",
          "type": "address"
        },
        {
          "indexed": true,
          "internalType": "uint256",
          "name": "pid",
          "type": "uint256"
        },
        {
          "indexed": false,
          "internalType": "uint256",
          "name": "amount",
          "type": "uint256"
        }
      ],
      "name": "EmergencyWithdraw",
      "type": "event"
    },
    {
      "anonymous": false,
      "inputs": [
        {
          "indexed": true,
          "internalType": "address",
          "name": "caller",
          "type": "address"
        },
        {
          "indexed": false,
          "internalType": "uint256",
          "name": "previousAmount",
          "type": "uint256"
        },
        {
          "indexed": false,
          "internalType": "uint256",
          "name": "newAmount",
          "type": "uint256"
        }
      ],
      "name": "EmissionRateUpdated",
      "type": "event"
    },
    {
      "anonymous": false,
      "inputs": [
        {
          "indexed": true,
          "internalType": "address",
          "name": "previousOwner",
          "type": "address"
        },
        {
          "indexed": true,
          "internalType": "address",
          "name": "newOwner",
          "type": "address"
        }
      ],
      "name": "OwnershipTransferred",
      "type": "event"
    },
    {
      "anonymous": false,
      "inputs": [
        {
          "indexed": true,
          "internalType": "address",
          "name": "user",
          "type": "address"
        },
        {
          "indexed": true,
          "internalType": "address",
          "name": "referrer",
          "type": "address"
        },
        {
          "indexed": false,
          "internalType": "uint256",
          "name": "commissionAmount",
          "type": "uint256"
        }
      ],
      "name": "ReferralCommissionPaid",
      "type": "event"
    },
    {
      "anonymous": false,
      "inputs": [
        {
          "indexed": true,
          "internalType": "address",
          "name": "user",
          "type": "address"
        },
        {
          "indexed": true,
          "internalType": "uint256",
          "name": "pid",
          "type": "uint256"
        },
        {
          "indexed": false,
          "internalType": "uint256",
          "name": "amountLockedUp",
          "type": "uint256"
        }
      ],
      "name": "RewardLockedUp",
      "type": "event"
    },
    {
      "anonymous": false,
      "inputs": [
        {
          "indexed": true,
          "internalType": "address",
          "name": "user",
          "type": "address"
        },
        {
          "indexed": true,
          "internalType": "uint256",
          "name": "pid",
          "type": "uint256"
        },
        {
          "indexed": false,
          "internalType": "uint256",
          "name": "amount",
          "type": "uint256"
        }
      ],
      "name": "Withdraw",
      "type": "event"
    },
    {
      "inputs": [],
      "name": "BONUS_MULTIPLIER",
      "outputs": [
        {
          "internalType": "uint256",
          "name": "",
          "type": "uint256"
        }
      ],
      "stateMutability": "view",
      "type": "function"
    },
    {
      "inputs": [],
      "name": "MAXIMUM_HARVEST_INTERVAL",
      "outputs": [
        {
          "internalType": "uint256",
          "name": "",
          "type": "uint256"
        }
      ],
      "stateMutability": "view",
      "type": "function"
    },
    {
      "inputs": [],
      "name": "MAXIMUM_REFERRAL_COMMISSION_RATE",
      "outputs": [
        {
          "internalType": "uint16",
          "name": "",
          "type": "uint16"
        }
      ],
      "stateMutability": "view",
      "type": "function"
    },
    {
      "inputs": [],
      "name": "MAX_STAKING_ALLOCATION",
      "outputs": [
        {
          "internalType": "uint256",
          "name": "",
          "type": "uint256"
        }
      ],
      "stateMutability": "view",
      "type": "function"
    },
    {
      "inputs": [],
      "name": "devAddress",
      "outputs": [
        {
          "internalType": "address",
          "name": "",
          "type": "address"
        }
      ],
      "stateMutability": "view",
      "type": "function"
    },
    {
      "inputs": [],
      "name": "feeAddress",
      "outputs": [
        {
          "internalType": "address",
          "name": "",
          "type": "address"
        }
      ],
      "stateMutability": "view",
      "type": "function"
    },
    {
      "inputs": [],
      "name": "loteTreasury",
      "outputs": [
        {
          "internalType": "contract ILoteTreasury",
          "name": "",
          "type": "address"
        }
      ],
      "stateMutability": "view",
      "type": "function"
    },
    {
      "inputs": [],
      "name": "lottery",
      "outputs": [
        {
          "internalType": "contract ILotteryToken",
          "name": "",
          "type": "address"
        }
      ],
      "stateMutability": "view",
      "type": "function"
    },
    {
      "inputs": [],
      "name": "lotteryPerBlock",
      "outputs": [
        {
          "internalType": "uint256",
          "name": "",
          "type": "uint256"
        }
      ],
      "stateMutability": "view",
      "type": "function"
    },
    {
      "inputs": [],
      "name": "lotteryReferral",
      "outputs": [
        {
          "internalType": "contract ILotteryReferral",
          "name": "",
          "type": "address"
        }
      ],
      "stateMutability": "view",
      "type": "function"
    },
    {
      "inputs": [],
      "name": "owner",
      "outputs": [
        {
          "internalType": "address",
          "name": "",
          "type": "address"
        }
      ],
      "stateMutability": "view",
      "type": "function"
    },
    {
      "inputs": [
        {
          "internalType": "uint256",
          "name": "",
          "type": "uint256"
        }
      ],
      "name": "poolInfo",
      "outputs": [
        {
          "internalType": "contract IERC20",
          "name": "lpToken",
          "type": "address"
        },
        {
          "internalType": "uint256",
          "name": "allocPoint",
          "type": "uint256"
        },
        {
          "internalType": "uint256",
          "name": "lastRewardBlock",
          "type": "uint256"
        },
        {
          "internalType": "uint256",
          "name": "accPositionPerShare",
          "type": "uint256"
        },
        {
          "internalType": "uint16",
          "name": "depositFeeBP",
          "type": "uint16"
        },
        {
          "internalType": "uint256",
          "name": "harvestInterval",
          "type": "uint256"
        }
      ],
      "stateMutability": "view",
      "type": "function"
    },
    {
      "inputs": [],
      "name": "referralCommissionRate",
      "outputs": [
        {
          "internalType": "uint16",
          "name": "",
          "type": "uint16"
        }
      ],
      "stateMutability": "view",
      "type": "function"
    },
    {
      "inputs": [],
      "name": "renounceOwnership",
      "outputs": [],
      "stateMutability": "nonpayable",
      "type": "function"
    },
    {
      "inputs": [],
      "name": "stakingMinted",
      "outputs": [
        {
          "internalType": "uint256",
          "name": "",
          "type": "uint256"
        }
      ],
      "stateMutability": "view",
      "type": "function"
    },
    {
      "inputs": [],
      "name": "startBlock",
      "outputs": [
        {
          "internalType": "uint256",
          "name": "",
          "type": "uint256"
        }
      ],
      "stateMutability": "view",
      "type": "function"
    },
    {
      "inputs": [],
      "name": "totalAllocPoint",
      "outputs": [
        {
          "internalType": "uint256",
          "name": "",
          "type": "uint256"
        }
      ],
      "stateMutability": "view",
      "type": "function"
    },
    {
      "inputs": [],
      "name": "totalLockedUpRewards",
      "outputs": [
        {
          "internalType": "uint256",
          "name": "",
          "type": "uint256"
        }
      ],
      "stateMutability": "view",
      "type": "function"
    },
    {
      "inputs": [
        {
          "internalType": "address",
          "name": "newOwner",
          "type": "address"
        }
      ],
      "name": "transferOwnership",
      "outputs": [],
      "stateMutability": "nonpayable",
      "type": "function"
    },
    {
      "inputs": [
        {
          "internalType": "uint256",
          "name": "",
          "type": "uint256"
        },
        {
          "internalType": "address",
          "name": "",
          "type": "address"
        }
      ],
      "name": "userInfo",
      "outputs": [
        {
          "internalType": "uint256",
          "name": "amount",
          "type": "uint256"
        },
        {
          "internalType": "uint256",
          "name": "rewardDebt",
          "type": "uint256"
        },
        {
          "internalType": "uint256",
          "name": "rewardLockedUp",
          "type": "uint256"
        },
        {
          "internalType": "uint256",
          "name": "nextHarvestUntil",
          "type": "uint256"
        }
      ],
      "stateMutability": "view",
      "type": "function"
    },
    {
      "inputs": [],
      "name": "poolLength",
      "outputs": [
        {
          "internalType": "uint256",
          "name": "",
          "type": "uint256"
        }
      ],
      "stateMutability": "view",
      "type": "function"
    },
    {
      "inputs": [
        {
          "internalType": "uint256",
          "name": "_allocPoint",
          "type": "uint256"
        },
        {
          "internalType": "contract IERC20",
          "name": "_lpToken",
          "type": "address"
        },
        {
          "internalType": "uint16",
          "name": "_depositFeeBP",
          "type": "uint16"
        },
        {
          "internalType": "uint256",
          "name": "_harvestInterval",
          "type": "uint256"
        },
        {
          "internalType": "bool",
          "name": "_withUpdate",
          "type": "bool"
        }
      ],
      "name": "add",
      "outputs": [],
      "stateMutability": "nonpayable",
      "type": "function"
    },
    {
      "inputs": [
        {
          "internalType": "uint256",
          "name": "_pid",
          "type": "uint256"
        },
        {
          "internalType": "uint256",
          "name": "_allocPoint",
          "type": "uint256"
        },
        {
          "internalType": "uint16",
          "name": "_depositFeeBP",
          "type": "uint16"
        },
        {
          "internalType": "uint256",
          "name": "_harvestInterval",
          "type": "uint256"
        },
        {
          "internalType": "bool",
          "name": "_withUpdate",
          "type": "bool"
        }
      ],
      "name": "set",
      "outputs": [],
      "stateMutability": "nonpayable",
      "type": "function"
    },
    {
      "inputs": [
        {
          "internalType": "uint256",
          "name": "_from",
          "type": "uint256"
        },
        {
          "internalType": "uint256",
          "name": "_to",
          "type": "uint256"
        }
      ],
      "name": "getMultiplier",
      "outputs": [
        {
          "internalType": "uint256",
          "name": "",
          "type": "uint256"
        }
      ],
      "stateMutability": "pure",
      "type": "function"
    },
    {
      "inputs": [
        {
          "internalType": "uint256",
          "name": "_pid",
          "type": "uint256"
        },
        {
          "internalType": "address",
          "name": "_user",
          "type": "address"
        }
      ],
      "name": "pendingPosition",
      "outputs": [
        {
          "internalType": "uint256",
          "name": "",
          "type": "uint256"
        }
      ],
      "stateMutability": "view",
      "type": "function"
    },
    {
      "inputs": [
        {
          "internalType": "uint256",
          "name": "_pid",
          "type": "uint256"
        },
        {
          "internalType": "address",
          "name": "_user",
          "type": "address"
        }
      ],
      "name": "canHarvest",
      "outputs": [
        {
          "internalType": "bool",
          "name": "",
          "type": "bool"
        }
      ],
      "stateMutability": "view",
      "type": "function"
    },
    {
      "inputs": [],
      "name": "massUpdatePools",
      "outputs": [],
      "stateMutability": "nonpayable",
      "type": "function"
    },
    {
      "inputs": [
        {
          "internalType": "uint256",
          "name": "_pid",
          "type": "uint256"
        }
      ],
      "name": "updatePool",
      "outputs": [],
      "stateMutability": "nonpayable",
      "type": "function"
    },
    {
      "inputs": [
        {
          "internalType": "uint256",
          "name": "_pid",
          "type": "uint256"
        },
        {
          "internalType": "uint256",
          "name": "_amount",
          "type": "uint256"
        },
        {
          "internalType": "address",
          "name": "_referrer",
          "type": "address"
        }
      ],
      "name": "deposit",
      "outputs": [],
      "stateMutability": "nonpayable",
      "type": "function"
    },
    {
      "inputs": [
        {
          "internalType": "uint256",
          "name": "_pid",
          "type": "uint256"
        },
        {
          "internalType": "uint256",
          "name": "_amount",
          "type": "uint256"
        }
      ],
      "name": "withdraw",
      "outputs": [],
      "stateMutability": "nonpayable",
      "type": "function"
    },
    {
      "inputs": [
        {
          "internalType": "uint256",
          "name": "_pid",
          "type": "uint256"
        }
      ],
      "name": "emergencyWithdraw",
      "outputs": [],
      "stateMutability": "nonpayable",
      "type": "function"
    },
    {
      "inputs": [
        {
          "internalType": "address",
          "name": "_devAddress",
          "type": "address"
        }
      ],
      "name": "setDevAddress",
      "outputs": [],
      "stateMutability": "nonpayable",
      "type": "function"
    },
    {
      "inputs": [
        {
          "internalType": "address",
          "name": "_feeAddress",
          "type": "address"
        }
      ],
      "name": "setFeeAddress",
      "outputs": [],
      "stateMutability": "nonpayable",
      "type": "function"
    },
    {
      "inputs": [
        {
          "internalType": "uint256",
          "name": "_lotteryPerBlock",
          "type": "uint256"
        }
      ],
      "name": "updateEmissionRate",
      "outputs": [],
      "stateMutability": "nonpayable",
      "type": "function"
    },
    {
      "inputs": [
        {
          "internalType": "contract ILotteryReferral",
          "name": "_lotteryReferral",
          "type": "address"
        }
      ],
      "name": "setLotteryReferral",
      "outputs": [],
      "stateMutability": "nonpayable",
      "type": "function"
    },
    {
      "inputs": [
        {
          "internalType": "uint16",
          "name": "_referralCommissionRate",
          "type": "uint16"
        }
      ],
      "name": "setReferralCommissionRate",
      "outputs": [],
      "stateMutability": "nonpayable",
      "type": "function"
    }
  ],
  "bytecode": "0x60806040526000600955600d805461ffff60a01b1916601960a21b1790553480156200002a57600080fd5b5060405162002a3938038062002a398339810160408190526200004d916200010f565b620000616200005b620000bb565b620000bf565b60018055600280546001600160a01b03199081166001600160a01b03968716179091556003805482169490951693909317909355600a55600691909155600480543390831681179091556005805490921617905562000174565b3390565b600080546001600160a01b038381166001600160a01b0319831681178455604051919092169283917f8be0079c531659141344cd1fd0a4f28419497f9722a3daafe3b4186f6b6457e09190a35050565b6000806000806080858703121562000125578384fd5b845162000132816200015b565b602086015190945062000145816200015b565b6040860151606090960151949790965092505050565b6001600160a01b03811681146200017157600080fd5b50565b6128b580620001846000396000f3fe608060405234801561001057600080fd5b506004361061025c5760003560e01c80636497aa901161014557806399335c39116100bd578063d0d41fe11161008c578063de73149d11610071578063de73149d1461046f578063f2111e4914610477578063f2fde38b1461048a5761025c565b8063d0d41fe114610454578063d30ef61b146104675761025c565b806399335c391461041e578063a653005014610431578063af018de814610439578063ba13a5721461044c5761025c565b80638da5cb5b116101145780638dbdbe6d116100f95780638dbdbe6d146103e05780638f97f54c146103f357806393f1a40b146103fb5761025c565b80638da5cb5b146103c55780638dbb1e3a146103cd5761025c565b80636497aa901461039a578063715018a6146103a25780638705fcd4146103aa5780638aa28550146103bd5761025c565b806341275358116101d857806348cd4cb1116101a75780635312ea8e1161018c5780635312ea8e1461036c57806355dbc8261461037f578063630b5ba1146103925761025c565b806348cd4cb11461035157806351eb05a6146103595761025c565b80634127535814610319578063441a3e7014610321578063474fa6301461033457806348b22bfb1461033c5761025c565b80632143e5451161022f57806327ddb5a91161021457806327ddb5a9146102e95780632e6c998d146102f15780633ad10ef6146103115761025c565b80632143e545146102c1578063251b7e89146102d45761025c565b8063081e3eda146102615780630ba84cd21461027f5780631526fe271461029457806317caf6f1146102b9575b600080fd5b61026961049d565b604051610276919061274f565b60405180910390f35b61029261028d36600461207f565b6104a3565b005b6102a76102a236600461207f565b61053d565b60405161027696959493929190612257565b610269610594565b6102926102cf366004612195565b61059a565b6102dc610749565b60405161027691906121e1565b610269610758565b6103046102ff3660046120af565b610767565b604051610276919061224c565b6102dc610795565b6102dc6107a4565b61029261032f36600461213c565b6107b3565b6102696108f2565b6103446108f8565b6040516102769190612740565b6102696108fe565b61029261036736600461207f565b610904565b61029261037a36600461207f565b610b92565b61029261038d366004612047565b610c78565b610292610d19565b610269610d44565b610292610d4a565b6102926103b8366004611ff3565b610d95565b610269610e07565b6102dc610e0c565b6102696103db36600461213c565b610e1b565b6102926103ee36600461215d565b610e33565b61026961119a565b61040e6104093660046120af565b6111a0565b6040516102769493929190612766565b61026961042c3660046120af565b6111d2565b6102dc61136c565b6102926104473660046120de565b61137b565b6102dc611593565b610292610462366004611ff3565b6115a2565b610344611614565b610269611625565b610292610485366004611ff3565b61162c565b610292610498366004611ff3565b61168d565b60075490565b6104ab6116fb565b6001600160a01b03166104bc610e0c565b6001600160a01b0316146104eb5760405162461bcd60e51b81526004016104e29061259b565b60405180910390fd5b6104f3610d19565b336001600160a01b03167feedc6338c9c1ad8f3cd6c90dd09dbe98dbd57e610d3e59a17996d07acb0d951160065483604051610530929190612758565b60405180910390a2600655565b6007818154811061054d57600080fd5b60009182526020909120600690910201805460018201546002830154600384015460048501546005909501546001600160a01b0390941695509193909261ffff9091169086565b60095481565b6105a26116fb565b6001600160a01b03166105b3610e0c565b6001600160a01b0316146105d95760405162461bcd60e51b81526004016104e29061259b565b6127108361ffff1611156105ff5760405162461bcd60e51b81526004016104e290612556565b621275008211156106225760405162461bcd60e51b81526004016104e2906125d0565b801561063057610630610d19565b6106818461067b6007888154811061065857634e487b7160e01b600052603260045260246000fd5b9060005260206000209060060201600101546009546116ff90919063ffffffff16565b9061170b565b60098190555083600786815481106106a957634e487b7160e01b600052603260045260246000fd5b90600052602060002090600602016001018190555082600786815481106106e057634e487b7160e01b600052603260045260246000fd5b906000526020600020906006020160040160006101000a81548161ffff021916908361ffff160217905550816007868154811061072d57634e487b7160e01b600052603260045260246000fd5b9060005260206000209060060201600501819055505050505050565b600d546001600160a01b031681565b6a422ca8b0a00a425000000081565b60009182526008602090815260408084206001600160a01b0393909316845291905290206003015442101590565b6004546001600160a01b031681565b6005546001600160a01b031681565b600260015414156107d65760405162461bcd60e51b81526004016104e290612709565b600260018190555060006007838154811061080157634e487b7160e01b600052603260045260246000fd5b60009182526020808320868452600882526040808520338652909252922080546006909202909201925083111561084a5760405162461bcd60e51b81526004016104e29061263e565b61085384610904565b61085c84611717565b821561088657805461086e90846116ff565b81558154610886906001600160a01b031633856118b3565b600382015481546108a79164e8d4a51000916108a19161193b565b90611947565b6001820155604051849033907ff279e6a1f5e320cca91135676d9cb6e44ca8a08c0b88342bcdb1144f6511b568906108e090879061274f565b60405180910390a35050600180555050565b600b5481565b6103e881565b600a5481565b6a422ca8b0a00a4250000000600c5411156109315760405162461bcd60e51b81526004016104e290612454565b60006007828154811061095457634e487b7160e01b600052603260045260246000fd5b90600052602060002090600602019050806002015443116109755750610b8f565b80546040516370a0823160e01b81526000916001600160a01b0316906370a08231906109a59030906004016121e1565b60206040518083038186803b1580156109bd57600080fd5b505afa1580156109d1573d6000803e3d6000fd5b505050506040513d601f19601f820116820180604052508101906109f59190612097565b9050801580610a0657506001820154155b15610a18575043600290910155610b8f565b6000610a28836002015443610e1b565b90506000610a556009546108a18660010154610a4f6006548761193b90919063ffffffff16565b9061193b565b9050610a78610a6f610a6883600a611947565b839061170b565b600c549061170b565b600c556003546040516340c10f1960e01b81526001600160a01b03909116906340c10f1990610aad9030908590600401612233565b600060405180830381600087803b158015610ac757600080fd5b505af1158015610adb573d6000803e3d6000fd5b50506003546004546001600160a01b0391821693506340c10f19925016610b0384600a611947565b6040518363ffffffff1660e01b8152600401610b20929190612233565b600060405180830381600087803b158015610b3a57600080fd5b505af1158015610b4e573d6000803e3d6000fd5b50505050610b7c610b71846108a164e8d4a510008561193b90919063ffffffff16565b60038601549061170b565b6003850155505043600290920191909155505b50565b60026001541415610bb55760405162461bcd60e51b81526004016104e290612709565b6002600181905550600060078281548110610be057634e487b7160e01b600052603260045260246000fd5b6000918252602080832085845260088252604080852033808752935284208054858255600182018690556002820186905560038201959095556006909302018054909450919291610c3e916001600160a01b039190911690836118b3565b83336001600160a01b03167fbb757047c2b5f3974fe26b7c10f732e7bce710b0952a71082702781e62ae0595836040516108e0919061274f565b610c806116fb565b6001600160a01b0316610c91610e0c565b6001600160a01b031614610cb75760405162461bcd60e51b81526004016104e29061259b565b6103e861ffff82161115610cdd5760405162461bcd60e51b81526004016104e290612306565b600d805461ffff909216600160a01b027fffffffffffffffffffff0000ffffffffffffffffffffffffffffffffffffffff909216919091179055565b60075460005b81811015610d4057610d3081610904565b610d398161281b565b9050610d1f565b5050565b600c5481565b610d526116fb565b6001600160a01b0316610d63610e0c565b6001600160a01b031614610d895760405162461bcd60e51b81526004016104e29061259b565b610d936000611953565b565b6005546001600160a01b03163314610dbf5760405162461bcd60e51b81526004016104e290612675565b6001600160a01b038116610de55760405162461bcd60e51b81526004016104e29061248b565b600580546001600160a01b0319166001600160a01b0392909216919091179055565b600181565b6000546001600160a01b031690565b6000610e2c6001610a4f84866116ff565b9392505050565b60026001541415610e565760405162461bcd60e51b81526004016104e290612709565b6002600181905550600060078481548110610e8157634e487b7160e01b600052603260045260246000fd5b60009182526020808320878452600882526040808520338652909252922060069091029091019150610eb285610904565b600084118015610ecc5750600d546001600160a01b031615155b8015610ee057506001600160a01b03831615155b8015610ef557506001600160a01b0383163314155b15610f5f57600d54604051630c7f7b6b60e01b81526001600160a01b0390911690630c7f7b6b90610f2c90339087906004016121f5565b600060405180830381600087803b158015610f4657600080fd5b505af1158015610f5a573d6000803e3d6000fd5b505050505b610f6885611717565b83156111335781546040516323b872dd60e01b81526001600160a01b03909116906323b872dd90610fa19033903090899060040161220f565b602060405180830381600087803b158015610fbb57600080fd5b505af1158015610fcf573d6000803e3d6000fd5b505050506040513d601f19601f82011682018060405250810190610ff3919061202b565b5060025482546001600160a01b03908116911614156110b85760006110a86127106108a1600260009054906101000a90046001600160a01b03166001600160a01b031663b65d08b06040518163ffffffff1660e01b815260040160206040518083038186803b15801561106557600080fd5b505afa158015611079573d6000803e3d6000fd5b505050506040513d601f19601f8201168201806040525081019061109d9190612063565b889061ffff1661193b565b90506110b485826116ff565b9450505b600482015461ffff16156111245760048201546000906110e590612710906108a190889061ffff1661193b565b6005548454919250611104916001600160a01b039081169116836118b3565b815461111c908290611116908861170b565b906116ff565b825550611133565b8054611130908561170b565b81555b6003820154815461114e9164e8d4a51000916108a19161193b565b6001820155604051859033907f90890809c654f11d6e72a28fa60149770a0d11ec6c92319d6ceb2bb0a4ea1a159061118790889061274f565b60405180910390a3505060018055505050565b60065481565b600860209081526000928352604080842090915290825290208054600182015460028301546003909301549192909184565b600080600784815481106111f657634e487b7160e01b600052603260045260246000fd5b600091825260208083208784526008825260408085206001600160a01b03808a16875293528085206003600690950290920193840154845491516370a0823160e01b815294965091949193919216906370a08231906112599030906004016121e1565b60206040518083038186803b15801561127157600080fd5b505afa158015611285573d6000803e3d6000fd5b505050506040513d601f19601f820116820180604052508101906112a99190612097565b90508360020154431180156112bd57508015155b1561131d5760006112d2856002015443610e1b565b905060006112f96009546108a18860010154610a4f6006548761193b90919063ffffffff16565b9050611318611311846108a18464e8d4a5100061193b565b859061170b565b935050505b6000611347846001015461111664e8d4a510006108a187896000015461193b90919063ffffffff16565b905061136084600201548261170b90919063ffffffff16565b98975050505050505050565b6003546001600160a01b031681565b6113836116fb565b6001600160a01b0316611394610e0c565b6001600160a01b0316146113ba5760405162461bcd60e51b81526004016104e29061259b565b6127108361ffff1611156113e05760405162461bcd60e51b81526004016104e2906122c1565b621275008211156114035760405162461bcd60e51b81526004016104e2906124c2565b801561141157611411610d19565b6000600a54431161142457600a54611426565b435b600954909150611436908761170b565b6009556040805160c0810182526001600160a01b0396871681526020810197885290810191825260006060820181815261ffff9687166080840190815260a0840196875260078054600181018255935292517fa66cc928b5edb82af9bd49922954155ab7b0942694bea4ce44661d9a8736c688600690930292830180546001600160a01b031916919099161790975596517fa66cc928b5edb82af9bd49922954155ab7b0942694bea4ce44661d9a8736c68988015590517fa66cc928b5edb82af9bd49922954155ab7b0942694bea4ce44661d9a8736c68a87015593517fa66cc928b5edb82af9bd49922954155ab7b0942694bea4ce44661d9a8736c68b8601555091517fa66cc928b5edb82af9bd49922954155ab7b0942694bea4ce44661d9a8736c68c8401805461ffff191691909216179055517fa66cc928b5edb82af9bd49922954155ab7b0942694bea4ce44661d9a8736c68d90910155565b6002546001600160a01b031681565b6004546001600160a01b031633146115cc5760405162461bcd60e51b81526004016104e290612389565b6001600160a01b0381166115f25760405162461bcd60e51b81526004016104e29061241d565b600480546001600160a01b0319166001600160a01b0392909216919091179055565b600d54600160a01b900461ffff1681565b6212750081565b6116346116fb565b6001600160a01b0316611645610e0c565b6001600160a01b03161461166b5760405162461bcd60e51b81526004016104e29061259b565b600d80546001600160a01b0319166001600160a01b0392909216919091179055565b6116956116fb565b6001600160a01b03166116a6610e0c565b6001600160a01b0316146116cc5760405162461bcd60e51b81526004016104e29061259b565b6001600160a01b0381166116f25760405162461bcd60e51b81526004016104e2906123c0565b610b8f81611953565b3390565b6000610e2c82846127d8565b6000610e2c8284612781565b60006007828154811061173a57634e487b7160e01b600052603260045260246000fd5b60009182526020808320858452600882526040808520338652909252922060038101546006909202909201925061178157600582015461177b90429061170b565b60038201555b60006117af826001015461111664e8d4a510006108a18760030154876000015461193b90919063ffffffff16565b90506117bb8433610767565b156118465760008111806117d3575060008260020154115b156118415760006117f183600201548361170b90919063ffffffff16565b905061180c8360020154600b546116ff90919063ffffffff16565b600b5560006002840155600584015461182690429061170b565b600384015561183533826119a3565b61183f3382611b3c565b505b6118ad565b80156118ad57600282015461185b908261170b565b6002830155600b5461186d908261170b565b600b55604051849033907fee470483107f579a55c754fa00613c45a9a3b617a418b39cb0be97e5381ba7c1906118a490859061274f565b60405180910390a35b50505050565b6119368363a9059cbb60e01b84846040516024016118d2929190612233565b60408051601f198184030181529190526020810180517bffffffffffffffffffffffffffffffffffffffffffffffffffffffff167fffffffff0000000000000000000000000000000000000000000000000000000090931692909217909152611e45565b505050565b6000610e2c82846127b9565b6000610e2c8284612799565b600080546001600160a01b038381166001600160a01b0319831681178455604051919092169283917f8be0079c531659141344cd1fd0a4f28419497f9722a3daafe3b4186f6b6457e09190a35050565b6002546040516370a0823160e01b81526000916001600160a01b0316906370a08231906119d49030906004016121e1565b60206040518083038186803b1580156119ec57600080fd5b505afa158015611a00573d6000803e3d6000fd5b505050506040513d601f19601f82011682018060405250810190611a249190612097565b905080821115611ab85760025460405163a9059cbb60e01b81526001600160a01b039091169063a9059cbb90611a609086908590600401612233565b602060405180830381600087803b158015611a7a57600080fd5b505af1158015611a8e573d6000803e3d6000fd5b505050506040513d601f19601f82011682018060405250810190611ab2919061202b565b50611936565b60025460405163a9059cbb60e01b81526001600160a01b039091169063a9059cbb90611aea9086908690600401612233565b602060405180830381600087803b158015611b0457600080fd5b505af1158015611b18573d6000803e3d6000fd5b505050506040513d601f19601f820116820180604052508101906118ad919061202b565b600d546001600160a01b031615801590611b625750600d54600160a01b900461ffff1615155b15610d4057600d54604051634a9fefc760e01b81526000916001600160a01b031690634a9fefc790611b989086906004016121e1565b60206040518083038186803b158015611bb057600080fd5b505afa158015611bc4573d6000803e3d6000fd5b505050506040513d601f19601f82011682018060405250810190611be8919061200f565b600d54909150600090611c0f90612710906108a1908690600160a01b900461ffff1661193b565b90506001600160a01b03821615801590611c295750600081115b156118ad576002546040516370a0823160e01b815282916001600160a01b0316906370a0823190611c5e9030906004016121e1565b60206040518083038186803b158015611c7657600080fd5b505afa158015611c8a573d6000803e3d6000fd5b505050506040513d601f19601f82011682018060405250810190611cae9190612097565b1015611d19576003546040516340c10f1960e01b81526001600160a01b03909116906340c10f1990611ce69030908590600401612233565b600060405180830381600087803b158015611d0057600080fd5b505af1158015611d14573d6000803e3d6000fd5b505050505b60025460405163a9059cbb60e01b81526001600160a01b039091169063a9059cbb90611d4b9085908590600401612233565b602060405180830381600087803b158015611d6557600080fd5b505af1158015611d79573d6000803e3d6000fd5b505050506040513d601f19601f82011682018060405250810190611d9d919061202b565b50600d54604051631b82d29760e31b81526001600160a01b039091169063dc1694b890611dd09085908590600401612233565b600060405180830381600087803b158015611dea57600080fd5b505af1158015611dfe573d6000803e3d6000fd5b50505050816001600160a01b0316846001600160a01b03167f86ddab457291316e0f5496737e5ca67c4037234c32c3be04c48ae96186893a7b836040516118a4919061274f565b6000611e9a826040518060400160405280602081526020017f5361666545524332303a206c6f772d6c6576656c2063616c6c206661696c6564815250856001600160a01b0316611ed49092919063ffffffff16565b8051909150156119365780806020019051810190611eb8919061202b565b6119365760405162461bcd60e51b81526004016104e2906126ac565b6060611ee38484600085611eeb565b949350505050565b606082471015611f0d5760405162461bcd60e51b81526004016104e2906124f9565b611f1685611fab565b611f325760405162461bcd60e51b81526004016104e290612607565b600080866001600160a01b03168587604051611f4e91906121c5565b60006040518083038185875af1925050503d8060008114611f8b576040519150601f19603f3d011682016040523d82523d6000602084013e611f90565b606091505b5091509150611fa0828286611fba565b979650505050505050565b6001600160a01b03163b151590565b60608315611fc9575081610e2c565b825115611fd95782518084602001fd5b8160405162461bcd60e51b81526004016104e2919061228e565b600060208284031215612004578081fd5b8135610e2c8161284c565b600060208284031215612020578081fd5b8151610e2c8161284c565b60006020828403121561203c578081fd5b8151610e2c81612861565b600060208284031215612058578081fd5b8135610e2c8161286f565b600060208284031215612074578081fd5b8151610e2c8161286f565b600060208284031215612090578081fd5b5035919050565b6000602082840312156120a8578081fd5b5051919050565b600080604083850312156120c1578081fd5b8235915060208301356120d38161284c565b809150509250929050565b600080600080600060a086880312156120f5578081fd5b8535945060208601356121078161284c565b935060408601356121178161286f565b925060608601359150608086013561212e81612861565b809150509295509295909350565b6000806040838503121561214e578182fd5b50508035926020909101359150565b600080600060608486031215612171578283fd5b8335925060208401359150604084013561218a8161284c565b809150509250925092565b600080600080600060a086880312156121ac578081fd5b853594506020860135935060408601356121178161286f565b600082516121d78184602087016127ef565b9190910192915050565b6001600160a01b0391909116815260200190565b6001600160a01b0392831681529116602082015260400190565b6001600160a01b039384168152919092166020820152604081019190915260600190565b6001600160a01b03929092168252602082015260400190565b901515815260200190565b6001600160a01b0396909616865260208601949094526040850192909252606084015261ffff16608083015260a082015260c00190565b60006020825282518060208401526122ad8160408501602087016127ef565b601f01601f19169190910160400192915050565b60208082526025908201527f6164643a20696e76616c6964206465706f7369742066656520626173697320706040820152646f696e747360d81b606082015260800190565b60208082526048908201527f736574526566657272616c436f6d6d697373696f6e526174653a20696e76616c60408201527f696420726566657272616c20636f6d6d697373696f6e2072617465206261736960608201527f7320706f696e7473000000000000000000000000000000000000000000000000608082015260a00190565b60208082526018908201527f736574446576416464726573733a20464f5242494444454e0000000000000000604082015260600190565b60208082526026908201527f4f776e61626c653a206e6577206f776e657220697320746865207a65726f206160408201527f6464726573730000000000000000000000000000000000000000000000000000606082015260800190565b60208082526013908201527f736574446576416464726573733a205a45524f00000000000000000000000000604082015260600190565b6020808252600f908201527f4e6f206d6f7265207374616b696e670000000000000000000000000000000000604082015260600190565b60208082526013908201527f736574466565416464726573733a205a45524f00000000000000000000000000604082015260600190565b6020808252601d908201527f6164643a20696e76616c6964206861727665737420696e74657276616c000000604082015260600190565b60208082526026908201527f416464726573733a20696e73756666696369656e742062616c616e636520666f60408201527f722063616c6c0000000000000000000000000000000000000000000000000000606082015260800190565b60208082526025908201527f7365743a20696e76616c6964206465706f7369742066656520626173697320706040820152646f696e747360d81b606082015260800190565b6020808252818101527f4f776e61626c653a2063616c6c6572206973206e6f7420746865206f776e6572604082015260600190565b6020808252601d908201527f7365743a20696e76616c6964206861727665737420696e74657276616c000000604082015260600190565b6020808252601d908201527f416464726573733a2063616c6c20746f206e6f6e2d636f6e7472616374000000604082015260600190565b60208082526012908201527f77697468647261773a206e6f7420676f6f640000000000000000000000000000604082015260600190565b60208082526018908201527f736574466565416464726573733a20464f5242494444454e0000000000000000604082015260600190565b6020808252602a908201527f5361666545524332303a204552433230206f7065726174696f6e20646964206e60408201527f6f74207375636365656400000000000000000000000000000000000000000000606082015260800190565b6020808252601f908201527f5265656e7472616e637947756172643a207265656e7472616e742063616c6c00604082015260600190565b61ffff91909116815260200190565b90815260200190565b918252602082015260400190565b93845260208401929092526040830152606082015260800190565b6000821982111561279457612794612836565b500190565b6000826127b457634e487b7160e01b81526012600452602481fd5b500490565b60008160001904831182151516156127d3576127d3612836565b500290565b6000828210156127ea576127ea612836565b500390565b60005b8381101561280a5781810151838201526020016127f2565b838111156118ad5750506000910152565b600060001982141561282f5761282f612836565b5060010190565b634e487b7160e01b600052601160045260246000fd5b6001600160a01b0381168114610b8f57600080fd5b8015158114610b8f57600080fd5b61ffff81168114610b8f57600080fdfea26469706673582212203846aa9da1b23178cb38de0d18a82bdaf252673f597fecb160e21a8fd46e0c0164736f6c63430008010033",
  "immutableReferences": {},
  "source": "// SPDX-License-Identifier: GPL-3.0\n\npragma solidity >=0.7.0 <0.9.0;\n\nimport \"@openzeppelin/contracts/utils/math/SafeMath.sol\";\nimport \"@openzeppelin/contracts/token/ERC20/IERC20.sol\";\nimport \"@openzeppelin/contracts/token/ERC20/utils/SafeERC20.sol\";\nimport \"@openzeppelin/contracts/access/Ownable.sol\";\nimport \"@openzeppelin/contracts/security/ReentrancyGuard.sol\";\nimport \"../interfaces/ILotteryReferral.sol\";\nimport \"../interfaces/ILotteryToken.sol\";\n\ninterface ILoteTreasury {\n    function mint(address recipient, uint256 amount) external;\n}\n\n// LoteStakingManager is the master of Position. He can make Position and he is a fair guy.\n//\n// Note that it's ownable and the owner wields tremendous power. The ownership\n// will be transferred to a governance smart contract once Position is sufficiently\n// distributed and the community can show to govern itself.\n//\n// Have fun reading it. Hopefully it's bug-free. God bless.\ncontract LoteStakingManager is Ownable, ReentrancyGuard {\n    using SafeMath for uint256;\n    using SafeERC20 for IERC20;\n\n    // Info of each user.\n    struct UserInfo {\n        uint256 amount; // How many LP tokens the user has provided.\n        uint256 rewardDebt; // Reward debt. See explanation below.\n        uint256 rewardLockedUp; // Reward locked up.\n        uint256 nextHarvestUntil; // When can the user harvest again.\n        //\n        // We do some fancy math here. Basically, any point in time, the amount of Positions\n        // entitled to a user but is pending to be distributed is:\n        //\n        //   pending reward = (user.amount * pool.accPositionPerShare) - user.rewardDebt\n        //\n        // Whenever a user deposits or withdraws LP tokens to a pool. Here's what happens:\n        //   1. The pool's `accPositionPerShare` (and `lastRewardBlock`) gets updated.\n        //   2. User receives the pending reward sent to his/her address.\n        //   3. User's `amount` gets updated.\n        //   4. User's `rewardDebt` gets updated.\n    }\n\n    // Info of each pool.\n    struct PoolInfo {\n        IERC20 lpToken; // Address of LP token contract.\n        uint256 allocPoint; // How many allocation points assigned to this pool. Positions to distribute per block.\n        uint256 lastRewardBlock; // Last block number that Positions distribution occurs.\n        uint256 accPositionPerShare; // Accumulated Positions per share, times 1e12. See below.\n        uint16 depositFeeBP; // Deposit fee in basis points\n        uint256 harvestInterval; // Harvest interval in seconds\n    }\n\n    // The Lottery TOKEN!\n    ILotteryToken public lottery;\n    ILoteTreasury public loteTreasury;\n    // Dev address.\n    address public devAddress;\n    // Deposit Fee address\n    address public feeAddress;\n    // Position tokens created per block.\n    uint256 public lotteryPerBlock;\n    // Bonus muliplier for early position makers.\n    uint256 public constant BONUS_MULTIPLIER = 1;\n    // Max harvest interval: 14 days.\n    uint256 public constant MAXIMUM_HARVEST_INTERVAL = 14 days;\n    uint256 public constant MAX_STAKING_ALLOCATION = 80*10**6*10**18; //80m\n\n\n    // Info of each pool.\n    PoolInfo[] public poolInfo;\n    // Info of each user that stakes LP tokens.\n    mapping(uint256 => mapping(address => UserInfo)) public userInfo;\n    // Total allocation points. Must be the sum of all allocation points in all pools.\n    uint256 public totalAllocPoint = 0;\n    // The block number when Position mining starts.\n    uint256 public startBlock;\n    // Total locked up rewards\n    uint256 public totalLockedUpRewards;\n\n    uint256 public stakingMinted;\n\n    // Lottery referral contract address.\n    ILotteryReferral public lotteryReferral;\n    // Referral commission rate in basis points.\n    uint16 public referralCommissionRate = 100;\n    // Max referral commission rate: 10%.\n    uint16 public constant MAXIMUM_REFERRAL_COMMISSION_RATE = 1000;\n\n    event Deposit(address indexed user, uint256 indexed pid, uint256 amount);\n    event Withdraw(address indexed user, uint256 indexed pid, uint256 amount);\n    event EmergencyWithdraw(\n        address indexed user,\n        uint256 indexed pid,\n        uint256 amount\n    );\n    event EmissionRateUpdated(\n        address indexed caller,\n        uint256 previousAmount,\n        uint256 newAmount\n    );\n    event ReferralCommissionPaid(\n        address indexed user,\n        address indexed referrer,\n        uint256 commissionAmount\n    );\n    event RewardLockedUp(\n        address indexed user,\n        uint256 indexed pid,\n        uint256 amountLockedUp\n    );\n\n    constructor(\n        ILotteryToken _lottery,\n        ILoteTreasury _loteTreasury,\n        uint256 _startBlock,\n        uint256 _lotteryPerBlock\n    ) {\n        lottery = _lottery;\n        loteTreasury = _loteTreasury;\n        startBlock = _startBlock;\n        lotteryPerBlock = _lotteryPerBlock;\n\n        devAddress = msg.sender;\n        feeAddress = msg.sender;\n    }\n\n    function poolLength() external view returns (uint256) {\n        return poolInfo.length;\n    }\n\n    // Add a new lp to the pool. Can only be called by the owner.\n    // XXX DO NOT add the same LP token more than once. Rewards will be messed up if you do.\n    function add(\n        uint256 _allocPoint,\n        IERC20 _lpToken,\n        uint16 _depositFeeBP,\n        uint256 _harvestInterval,\n        bool _withUpdate\n    ) public onlyOwner {\n        require(\n            _depositFeeBP <= 10000,\n            \"add: invalid deposit fee basis points\"\n        );\n        require(\n            _harvestInterval <= MAXIMUM_HARVEST_INTERVAL,\n            \"add: invalid harvest interval\"\n        );\n        if (_withUpdate) {\n            massUpdatePools();\n        }\n        uint256 lastRewardBlock = block.number > startBlock\n            ? block.number\n            : startBlock;\n        totalAllocPoint = totalAllocPoint.add(_allocPoint);\n        poolInfo.push(\n            PoolInfo({\n                lpToken: _lpToken,\n                allocPoint: _allocPoint,\n                lastRewardBlock: lastRewardBlock,\n                accPositionPerShare: 0,\n                depositFeeBP: _depositFeeBP,\n                harvestInterval: _harvestInterval\n            })\n        );\n    }\n\n    // Update the given pool's Lottery allocation point and deposit fee. Can only be called by the owner.\n    function set(\n        uint256 _pid,\n        uint256 _allocPoint,\n        uint16 _depositFeeBP,\n        uint256 _harvestInterval,\n        bool _withUpdate\n    ) public onlyOwner {\n        require(\n            _depositFeeBP <= 10000,\n            \"set: invalid deposit fee basis points\"\n        );\n        require(\n            _harvestInterval <= MAXIMUM_HARVEST_INTERVAL,\n            \"set: invalid harvest interval\"\n        );\n        if (_withUpdate) {\n            massUpdatePools();\n        }\n        totalAllocPoint = totalAllocPoint.sub(poolInfo[_pid].allocPoint).add(\n            _allocPoint\n        );\n        poolInfo[_pid].allocPoint = _allocPoint;\n        poolInfo[_pid].depositFeeBP = _depositFeeBP;\n        poolInfo[_pid].harvestInterval = _harvestInterval;\n    }\n\n    // Return reward multiplier over the given _from to _to block.\n    function getMultiplier(uint256 _from, uint256 _to)\n        public\n        pure\n        returns (uint256)\n    {\n        return _to.sub(_from).mul(BONUS_MULTIPLIER);\n    }\n\n    // View function to see pending Positions on frontend.\n    function pendingPosition(uint256 _pid, address _user)\n        external\n        view\n        returns (uint256)\n    {\n        PoolInfo storage pool = poolInfo[_pid];\n        UserInfo storage user = userInfo[_pid][_user];\n        uint256 accPositionPerShare = pool.accPositionPerShare;\n        uint256 lpSupply = pool.lpToken.balanceOf(address(this));\n        if (block.number > pool.lastRewardBlock && lpSupply != 0) {\n            uint256 multiplier = getMultiplier(\n                pool.lastRewardBlock,\n                block.number\n            );\n            uint256 positionReward = multiplier\n            .mul(lotteryPerBlock)\n            .mul(pool.allocPoint)\n            .div(totalAllocPoint);\n            accPositionPerShare = accPositionPerShare.add(\n                positionReward.mul(1e12).div(lpSupply)\n            );\n        }\n        uint256 pending = user.amount.mul(accPositionPerShare).div(1e12).sub(\n            user.rewardDebt\n        );\n        return pending.add(user.rewardLockedUp);\n    }\n\n    // View function to see if user can harvest Positions.\n    function canHarvest(uint256 _pid, address _user)\n        public\n        view\n        returns (bool)\n    {\n        UserInfo storage user = userInfo[_pid][_user];\n        return block.timestamp >= user.nextHarvestUntil;\n    }\n\n    // Update reward variables for all pools. Be careful of gas spending!\n    function massUpdatePools() public {\n        uint256 length = poolInfo.length;\n        for (uint256 pid = 0; pid < length; ++pid) {\n            updatePool(pid);\n        }\n    }\n\n    // Update reward variables of the given pool to be up-to-date.\n    function updatePool(uint256 _pid) public {\n        require(stakingMinted <= MAX_STAKING_ALLOCATION, \"No more staking\");\n        PoolInfo storage pool = poolInfo[_pid];\n        if (block.number <= pool.lastRewardBlock) {\n            return;\n        }\n        uint256 lpSupply = pool.lpToken.balanceOf(address(this));\n        if (lpSupply == 0 || pool.allocPoint == 0) {\n            pool.lastRewardBlock = block.number;\n            return;\n        }\n        uint256 multiplier = getMultiplier(pool.lastRewardBlock, block.number);\n        uint256 positionReward = multiplier\n        .mul(lotteryPerBlock)\n        .mul(pool.allocPoint)\n        .div(totalAllocPoint);\n\n        stakingMinted = stakingMinted.add(positionReward.add(positionReward.div(10)));\n        loteTreasury.mint(address(this), positionReward);\n        // transfer 10% to the dev wallet\n        loteTreasury.mint(devAddress, positionReward.div(10));\n        pool.accPositionPerShare = pool.accPositionPerShare.add(\n            positionReward.mul(1e12).div(lpSupply)\n        );\n        pool.lastRewardBlock = block.number;\n    }\n\n    // Deposit LP tokens to LoteStakingManager for Lottery allocation.\n    function deposit(\n        uint256 _pid,\n        uint256 _amount,\n        address _referrer\n    ) public nonReentrant {\n        PoolInfo storage pool = poolInfo[_pid];\n        UserInfo storage user = userInfo[_pid][msg.sender];\n        updatePool(_pid);\n        if (\n            _amount > 0 &&\n            address(lotteryReferral) != address(0) &&\n            _referrer != address(0) &&\n            _referrer != msg.sender\n        ) {\n            lotteryReferral.recordReferral(msg.sender, _referrer);\n        }\n        payOrLockupPendingPosition(_pid);\n        if (_amount > 0) {\n            pool.lpToken.transferFrom(\n                address(msg.sender),\n                address(this),\n                _amount\n            );\n            if (address(pool.lpToken) == address(lottery)) {\n                uint256 transferTax = _amount\n                .mul(lottery.transferTaxRate())\n                .div(10000);\n                _amount = _amount.sub(transferTax);\n            }\n            if (pool.depositFeeBP > 0) {\n                uint256 depositFee = _amount.mul(pool.depositFeeBP).div(10000);\n                pool.lpToken.safeTransfer(feeAddress, depositFee);\n                user.amount = user.amount.add(_amount).sub(depositFee);\n            } else {\n                user.amount = user.amount.add(_amount);\n            }\n        }\n        user.rewardDebt = user.amount.mul(pool.accPositionPerShare).div(1e12);\n        emit Deposit(msg.sender, _pid, _amount);\n    }\n\n    // Withdraw LP tokens from LoteStakingManager.\n    function withdraw(uint256 _pid, uint256 _amount) public nonReentrant {\n        PoolInfo storage pool = poolInfo[_pid];\n        UserInfo storage user = userInfo[_pid][msg.sender];\n        require(user.amount >= _amount, \"withdraw: not good\");\n        updatePool(_pid);\n        payOrLockupPendingPosition(_pid);\n        if (_amount > 0) {\n            user.amount = user.amount.sub(_amount);\n            pool.lpToken.safeTransfer(address(msg.sender), _amount);\n        }\n        user.rewardDebt = user.amount.mul(pool.accPositionPerShare).div(1e12);\n        emit Withdraw(msg.sender, _pid, _amount);\n    }\n\n    // Withdraw without caring about rewards. EMERGENCY ONLY.\n    function emergencyWithdraw(uint256 _pid) public nonReentrant {\n        PoolInfo storage pool = poolInfo[_pid];\n        UserInfo storage user = userInfo[_pid][msg.sender];\n        uint256 amount = user.amount;\n        user.amount = 0;\n        user.rewardDebt = 0;\n        user.rewardLockedUp = 0;\n        user.nextHarvestUntil = 0;\n        pool.lpToken.safeTransfer(address(msg.sender), amount);\n        emit EmergencyWithdraw(msg.sender, _pid, amount);\n    }\n\n    // Pay or lockup pending Positions.\n    function payOrLockupPendingPosition(uint256 _pid) internal {\n        PoolInfo storage pool = poolInfo[_pid];\n        UserInfo storage user = userInfo[_pid][msg.sender];\n\n        if (user.nextHarvestUntil == 0) {\n            user.nextHarvestUntil = block.timestamp.add(pool.harvestInterval);\n        }\n\n        uint256 pending = user\n        .amount\n        .mul(pool.accPositionPerShare)\n        .div(1e12)\n        .sub(user.rewardDebt);\n        if (canHarvest(_pid, msg.sender)) {\n            if (pending > 0 || user.rewardLockedUp > 0) {\n                uint256 totalRewards = pending.add(user.rewardLockedUp);\n\n                // reset lockup\n                totalLockedUpRewards = totalLockedUpRewards.sub(\n                    user.rewardLockedUp\n                );\n                user.rewardLockedUp = 0;\n                user.nextHarvestUntil = block.timestamp.add(\n                    pool.harvestInterval\n                );\n\n                // send rewards\n                safePositionTransfer(msg.sender, totalRewards);\n                payReferralCommission(msg.sender, totalRewards);\n            }\n        } else if (pending > 0) {\n            user.rewardLockedUp = user.rewardLockedUp.add(pending);\n            totalLockedUpRewards = totalLockedUpRewards.add(pending);\n            emit RewardLockedUp(msg.sender, _pid, pending);\n        }\n    }\n\n    // Safe lottery transfer function, just in case if rounding error causes pool to not have enough Positions.\n    function safePositionTransfer(address _to, uint256 _amount) internal {\n        uint256 lotteryBal = lottery.balanceOf(address(this));\n        if (_amount > lotteryBal) {\n            lottery.transfer(_to, lotteryBal);\n        } else {\n            lottery.transfer(_to, _amount);\n        }\n    }\n\n    // Update dev address by the previous dev.\n    function setDevAddress(address _devAddress) public {\n        require(msg.sender == devAddress, \"setDevAddress: FORBIDDEN\");\n        require(_devAddress != address(0), \"setDevAddress: ZERO\");\n        devAddress = _devAddress;\n    }\n\n    function setFeeAddress(address _feeAddress) public {\n        require(msg.sender == feeAddress, \"setFeeAddress: FORBIDDEN\");\n        require(_feeAddress != address(0), \"setFeeAddress: ZERO\");\n        feeAddress = _feeAddress;\n    }\n\n    // Pancake has to add hidden dummy pools in order to alter the emission, here we make it simple and transparent to all.\n    function updateEmissionRate(uint256 _lotteryPerBlock) public onlyOwner {\n        massUpdatePools();\n        emit EmissionRateUpdated(msg.sender, lotteryPerBlock, _lotteryPerBlock);\n        lotteryPerBlock = _lotteryPerBlock;\n    }\n\n    // Update the lottery referral contract address by the owner\n    function setLotteryReferral(ILotteryReferral _lotteryReferral)\n        public\n        onlyOwner\n    {\n        lotteryReferral = _lotteryReferral;\n    }\n\n    // Update referral commission rate by the owner\n    function setReferralCommissionRate(uint16 _referralCommissionRate)\n        public\n        onlyOwner\n    {\n        require(\n            _referralCommissionRate <= MAXIMUM_REFERRAL_COMMISSION_RATE,\n            \"setReferralCommissionRate: invalid referral commission rate basis points\"\n        );\n        referralCommissionRate = _referralCommissionRate;\n    }\n\n    // Pay referral commission to the referrer who referred this user.\n    function payReferralCommission(address _user, uint256 _pending) internal {\n        if (\n            address(lotteryReferral) != address(0) && referralCommissionRate > 0\n        ) {\n            address referrer = lotteryReferral.getReferrer(_user);\n            uint256 commissionAmount = _pending.mul(referralCommissionRate).div(\n                10000\n            );\n\n            if (referrer != address(0) && commissionAmount > 0) {\n                if(lottery.balanceOf(address(this)) < commissionAmount){\n                    loteTreasury.mint(address(this), commissionAmount);\n                }\n                lottery.transfer(referrer, commissionAmount);\n                lotteryReferral.recordReferralCommission(\n                    referrer,\n                    commissionAmount\n                );\n                emit ReferralCommissionPaid(_user, referrer, commissionAmount);\n            }\n        }\n    }\n}",
  "sourcePath": "/Volumes/Work/project/Lottery/contracts/stacking/LoteStakingManager.sol",
  "compiler": {
    "name": "solc",
    "version": "0.8.1+commit.df193b15.Emscripten.clang"
  },
  "schemaVersion": "3.4.7",
  "updatedAt": "2022-05-27T07:33:02.724Z",
  "devdoc": {
    "kind": "dev",
    "methods": {
      "owner()": {
        "details": "Returns the address of the current owner."
      },
      "renounceOwnership()": {
        "details": "Leaves the contract without owner. It will not be possible to call `onlyOwner` functions anymore. Can only be called by the current owner. NOTE: Renouncing ownership will leave the contract without an owner, thereby removing any functionality that is only available to the owner."
      },
      "transferOwnership(address)": {
        "details": "Transfers ownership of the contract to a new account (`newOwner`). Can only be called by the current owner."
      }
    },
    "version": 1
  },
  "userdoc": {
    "kind": "user",
    "methods": {},
    "version": 1
  }
}