{
  "contractName": "LotteryToken",
  "abi": [
    {
      "inputs": [],
      "stateMutability": "nonpayable",
      "type": "constructor"
    },
    {
      "anonymous": false,
      "inputs": [
        {
          "indexed": true,
          "internalType": "address",
          "name": "owner",
          "type": "address"
        },
        {
          "indexed": true,
          "internalType": "address",
          "name": "spender",
          "type": "address"
        },
        {
          "indexed": false,
          "internalType": "uint256",
          "name": "value",
          "type": "uint256"
        }
      ],
      "name": "Approval",
      "type": "event"
    },
    {
      "anonymous": false,
      "inputs": [
        {
          "indexed": true,
          "internalType": "address",
          "name": "previousKeeper",
          "type": "address"
        },
        {
          "indexed": true,
          "internalType": "address",
          "name": "newKeeper",
          "type": "address"
        }
      ],
      "name": "BotKeeperChanged",
      "type": "event"
    },
    {
      "anonymous": false,
      "inputs": [
        {
          "indexed": true,
          "internalType": "address",
          "name": "sender",
          "type": "address"
        },
        {
          "indexed": true,
          "internalType": "uint256",
          "name": "amount",
          "type": "uint256"
        }
      ],
      "name": "Donate",
      "type": "event"
    },
    {
      "anonymous": false,
      "inputs": [
        {
          "indexed": true,
          "internalType": "uint256",
          "name": "previousAmount",
          "type": "uint256"
        },
        {
          "indexed": true,
          "internalType": "uint256",
          "name": "newAmount",
          "type": "uint256"
        }
      ],
      "name": "GenesisRewardChanged",
      "type": "event"
    },
    {
      "anonymous": false,
      "inputs": [
        {
          "indexed": true,
          "internalType": "address",
          "name": "previousOwner",
          "type": "address"
        },
        {
          "indexed": true,
          "internalType": "address",
          "name": "newOwner",
          "type": "address"
        }
      ],
      "name": "OwnershipTransferred",
      "type": "event"
    },
    {
      "anonymous": false,
      "inputs": [
        {
          "indexed": false,
          "internalType": "address",
          "name": "account",
          "type": "address"
        }
      ],
      "name": "Paused",
      "type": "event"
    },
    {
      "anonymous": false,
      "inputs": [
        {
          "indexed": true,
          "internalType": "address",
          "name": "from",
          "type": "address"
        },
        {
          "indexed": true,
          "internalType": "address",
          "name": "to",
          "type": "address"
        },
        {
          "indexed": false,
          "internalType": "uint256",
          "name": "value",
          "type": "uint256"
        }
      ],
      "name": "Transfer",
      "type": "event"
    },
    {
      "anonymous": false,
      "inputs": [
        {
          "indexed": true,
          "internalType": "address",
          "name": "previusAAddress",
          "type": "address"
        },
        {
          "indexed": true,
          "internalType": "address",
          "name": "newAddress",
          "type": "address"
        }
      ],
      "name": "TreasuryContractChanged",
      "type": "event"
    },
    {
      "anonymous": false,
      "inputs": [
        {
          "indexed": false,
          "internalType": "address",
          "name": "account",
          "type": "address"
        }
      ],
      "name": "Unpaused",
      "type": "event"
    },
    {
      "inputs": [],
      "name": "AIRDROP_AMOUNT",
      "outputs": [
        {
          "internalType": "uint256",
          "name": "",
          "type": "uint256"
        }
      ],
      "stateMutability": "view",
      "type": "function"
    },
    {
      "inputs": [],
      "name": "BASE_MINT",
      "outputs": [
        {
          "internalType": "uint256",
          "name": "",
          "type": "uint256"
        }
      ],
      "stateMutability": "view",
      "type": "function"
    },
    {
      "inputs": [],
      "name": "WHITELIST_SALE_AMOUNT",
      "outputs": [
        {
          "internalType": "uint256",
          "name": "",
          "type": "uint256"
        }
      ],
      "stateMutability": "view",
      "type": "function"
    },
    {
      "inputs": [],
      "name": "aidropDistributed",
      "outputs": [
        {
          "internalType": "uint256",
          "name": "",
          "type": "uint256"
        }
      ],
      "stateMutability": "view",
      "type": "function"
    },
    {
      "inputs": [],
      "name": "genesisReward",
      "outputs": [
        {
          "internalType": "uint256",
          "name": "",
          "type": "uint256"
        }
      ],
      "stateMutability": "view",
      "type": "function"
    },
    {
      "inputs": [],
      "name": "owner",
      "outputs": [
        {
          "internalType": "address",
          "name": "",
          "type": "address"
        }
      ],
      "stateMutability": "view",
      "type": "function"
    },
    {
      "inputs": [],
      "name": "paused",
      "outputs": [
        {
          "internalType": "bool",
          "name": "",
          "type": "bool"
        }
      ],
      "stateMutability": "view",
      "type": "function"
    },
    {
      "inputs": [],
      "name": "renounceOwnership",
      "outputs": [],
      "stateMutability": "nonpayable",
      "type": "function"
    },
    {
      "inputs": [
        {
          "internalType": "address",
          "name": "newOwner",
          "type": "address"
        }
      ],
      "name": "transferOwnership",
      "outputs": [],
      "stateMutability": "nonpayable",
      "type": "function"
    },
    {
      "inputs": [],
      "name": "transferTaxRate",
      "outputs": [
        {
          "internalType": "uint16",
          "name": "",
          "type": "uint16"
        }
      ],
      "stateMutability": "view",
      "type": "function"
    },
    {
      "inputs": [],
      "name": "treasuryContract",
      "outputs": [
        {
          "internalType": "address",
          "name": "",
          "type": "address"
        }
      ],
      "stateMutability": "view",
      "type": "function"
    },
    {
      "inputs": [],
      "name": "whitelistSaleDistributed",
      "outputs": [
        {
          "internalType": "uint256",
          "name": "",
          "type": "uint256"
        }
      ],
      "stateMutability": "view",
      "type": "function"
    },
    {
      "inputs": [],
      "name": "name",
      "outputs": [
        {
          "internalType": "string",
          "name": "",
          "type": "string"
        }
      ],
      "stateMutability": "view",
      "type": "function"
    },
    {
      "inputs": [],
      "name": "symbol",
      "outputs": [
        {
          "internalType": "string",
          "name": "",
          "type": "string"
        }
      ],
      "stateMutability": "view",
      "type": "function"
    },
    {
      "inputs": [],
      "name": "decimals",
      "outputs": [
        {
          "internalType": "uint8",
          "name": "",
          "type": "uint8"
        }
      ],
      "stateMutability": "view",
      "type": "function"
    },
    {
      "inputs": [],
      "name": "totalSupply",
      "outputs": [
        {
          "internalType": "uint256",
          "name": "",
          "type": "uint256"
        }
      ],
      "stateMutability": "view",
      "type": "function"
    },
    {
      "inputs": [],
      "name": "getRate",
      "outputs": [
        {
          "internalType": "uint256",
          "name": "",
          "type": "uint256"
        }
      ],
      "stateMutability": "view",
      "type": "function"
    },
    {
      "inputs": [
        {
          "internalType": "address",
          "name": "account",
          "type": "address"
        }
      ],
      "name": "isGenesisAddress",
      "outputs": [
        {
          "internalType": "bool",
          "name": "",
          "type": "bool"
        }
      ],
      "stateMutability": "view",
      "type": "function"
    },
    {
      "inputs": [
        {
          "internalType": "address",
          "name": "account",
          "type": "address"
        }
      ],
      "name": "genesisBalance",
      "outputs": [
        {
          "internalType": "uint256",
          "name": "",
          "type": "uint256"
        }
      ],
      "stateMutability": "view",
      "type": "function"
    },
    {
      "inputs": [
        {
          "internalType": "address",
          "name": "account",
          "type": "address"
        }
      ],
      "name": "balanceOf",
      "outputs": [
        {
          "internalType": "uint256",
          "name": "",
          "type": "uint256"
        }
      ],
      "stateMutability": "view",
      "type": "function"
    },
    {
      "inputs": [
        {
          "internalType": "address",
          "name": "recipient",
          "type": "address"
        },
        {
          "internalType": "uint256",
          "name": "amount",
          "type": "uint256"
        }
      ],
      "name": "transfer",
      "outputs": [
        {
          "internalType": "bool",
          "name": "",
          "type": "bool"
        }
      ],
      "stateMutability": "nonpayable",
      "type": "function"
    },
    {
      "inputs": [
        {
          "internalType": "address[]",
          "name": "recipients",
          "type": "address[]"
        },
        {
          "internalType": "uint256[]",
          "name": "amounts",
          "type": "uint256[]"
        }
      ],
      "name": "treasuryTransfer",
      "outputs": [],
      "stateMutability": "nonpayable",
      "type": "function"
    },
    {
      "inputs": [
        {
          "internalType": "address",
          "name": "recipient",
          "type": "address"
        },
        {
          "internalType": "uint256",
          "name": "amount",
          "type": "uint256"
        }
      ],
      "name": "treasuryTransfer",
      "outputs": [],
      "stateMutability": "nonpayable",
      "type": "function"
    },
    {
      "inputs": [
        {
          "internalType": "address",
          "name": "owner",
          "type": "address"
        },
        {
          "internalType": "address",
          "name": "spender",
          "type": "address"
        }
      ],
      "name": "allowance",
      "outputs": [
        {
          "internalType": "uint256",
          "name": "",
          "type": "uint256"
        }
      ],
      "stateMutability": "view",
      "type": "function"
    },
    {
      "inputs": [
        {
          "internalType": "address",
          "name": "spender",
          "type": "address"
        },
        {
          "internalType": "uint256",
          "name": "amount",
          "type": "uint256"
        }
      ],
      "name": "approve",
      "outputs": [
        {
          "internalType": "bool",
          "name": "",
          "type": "bool"
        }
      ],
      "stateMutability": "nonpayable",
      "type": "function"
    },
    {
      "inputs": [
        {
          "internalType": "address",
          "name": "sender",
          "type": "address"
        },
        {
          "internalType": "address",
          "name": "recipient",
          "type": "address"
        },
        {
          "internalType": "uint256",
          "name": "amount",
          "type": "uint256"
        }
      ],
      "name": "transferFrom",
      "outputs": [
        {
          "internalType": "bool",
          "name": "",
          "type": "bool"
        }
      ],
      "stateMutability": "nonpayable",
      "type": "function"
    },
    {
      "inputs": [
        {
          "internalType": "address",
          "name": "spender",
          "type": "address"
        },
        {
          "internalType": "uint256",
          "name": "addedValue",
          "type": "uint256"
        }
      ],
      "name": "increaseAllowance",
      "outputs": [
        {
          "internalType": "bool",
          "name": "",
          "type": "bool"
        }
      ],
      "stateMutability": "nonpayable",
      "type": "function"
    },
    {
      "inputs": [
        {
          "internalType": "address",
          "name": "spender",
          "type": "address"
        },
        {
          "internalType": "uint256",
          "name": "subtractedValue",
          "type": "uint256"
        }
      ],
      "name": "decreaseAllowance",
      "outputs": [
        {
          "internalType": "bool",
          "name": "",
          "type": "bool"
        }
      ],
      "stateMutability": "nonpayable",
      "type": "function"
    },
    {
      "inputs": [
        {
          "internalType": "address",
          "name": "account",
          "type": "address"
        }
      ],
      "name": "isExcluded",
      "outputs": [
        {
          "internalType": "bool",
          "name": "",
          "type": "bool"
        }
      ],
      "stateMutability": "view",
      "type": "function"
    },
    {
      "inputs": [],
      "name": "totalFees",
      "outputs": [
        {
          "internalType": "uint256",
          "name": "",
          "type": "uint256"
        }
      ],
      "stateMutability": "view",
      "type": "function"
    },
    {
      "inputs": [
        {
          "internalType": "address",
          "name": "_receiver",
          "type": "address"
        },
        {
          "internalType": "uint256",
          "name": "amount",
          "type": "uint256"
        }
      ],
      "name": "mint",
      "outputs": [],
      "stateMutability": "nonpayable",
      "type": "function"
    },
    {
      "inputs": [
        {
          "internalType": "uint256",
          "name": "amount",
          "type": "uint256"
        }
      ],
      "name": "burn",
      "outputs": [],
      "stateMutability": "nonpayable",
      "type": "function"
    },
    {
      "inputs": [
        {
          "internalType": "address[]",
          "name": "_receivers",
          "type": "address[]"
        },
        {
          "internalType": "uint256",
          "name": "_value",
          "type": "uint256"
        }
      ],
      "name": "notifyGenesisAddresses",
      "outputs": [],
      "stateMutability": "nonpayable",
      "type": "function"
    },
    {
      "inputs": [
        {
          "internalType": "address[]",
          "name": "_receivers",
          "type": "address[]"
        },
        {
          "internalType": "uint256",
          "name": "_value",
          "type": "uint256"
        }
      ],
      "name": "distributeAirdrop",
      "outputs": [],
      "stateMutability": "nonpayable",
      "type": "function"
    },
    {
      "inputs": [],
      "name": "registerAirdropDistribution",
      "outputs": [],
      "stateMutability": "nonpayable",
      "type": "function"
    },
    {
      "inputs": [
        {
          "internalType": "uint256",
          "name": "amount",
          "type": "uint256"
        }
      ],
      "name": "setGenesisReward",
      "outputs": [],
      "stateMutability": "nonpayable",
      "type": "function"
    },
    {
      "inputs": [
        {
          "internalType": "address",
          "name": "_newAddress",
          "type": "address"
        }
      ],
      "name": "setTreasuryAddress",
      "outputs": [],
      "stateMutability": "nonpayable",
      "type": "function"
    },
    {
      "inputs": [],
      "name": "freeze",
      "outputs": [],
      "stateMutability": "nonpayable",
      "type": "function"
    },
    {
      "inputs": [],
      "name": "unfreeze",
      "outputs": [],
      "stateMutability": "nonpayable",
      "type": "function"
    },
    {
      "inputs": [
        {
          "internalType": "uint256",
          "name": "amount",
          "type": "uint256"
        }
      ],
      "name": "donate",
      "outputs": [],
      "stateMutability": "nonpayable",
      "type": "function"
    },
    {
      "inputs": [
        {
          "internalType": "uint256",
          "name": "tAmount",
          "type": "uint256"
        },
        {
          "internalType": "bool",
          "name": "deductTransferFee",
          "type": "bool"
        }
      ],
      "name": "reflectionFromToken",
      "outputs": [
        {
          "internalType": "uint256",
          "name": "",
          "type": "uint256"
        }
      ],
      "stateMutability": "view",
      "type": "function"
    },
    {
      "inputs": [
        {
          "internalType": "uint256",
          "name": "rAmount",
          "type": "uint256"
        }
      ],
      "name": "tokenFromReflection",
      "outputs": [
        {
          "internalType": "uint256",
          "name": "",
          "type": "uint256"
        }
      ],
      "stateMutability": "view",
      "type": "function"
    },
    {
      "inputs": [
        {
          "internalType": "address",
          "name": "account",
          "type": "address"
        }
      ],
      "name": "excludeAccount",
      "outputs": [],
      "stateMutability": "nonpayable",
      "type": "function"
    },
    {
      "inputs": [
        {
          "internalType": "address",
          "name": "account",
          "type": "address"
        }
      ],
      "name": "includeAccount",
      "outputs": [],
      "stateMutability": "nonpayable",
      "type": "function"
    },
    {
      "inputs": [],
      "name": "getCurrentRTSupply",
      "outputs": [
        {
          "internalType": "uint256",
          "name": "",
          "type": "uint256"
        },
        {
          "internalType": "uint256",
          "name": "",
          "type": "uint256"
        }
      ],
      "stateMutability": "view",
      "type": "function"
    }
  ],
  "bytecode": "0x60c060405260076080819052664c6f747465727960c81b60a09081526200002a91600b9190620001ec565b50604080518082019091526004808252634c4f544560e01b60209092019182526200005891600c91620001ec565b50600d805460ff1916601217905560118054601960a21b61ffff60a01b199091161790553480156200008957600080fd5b506200009e6200009862000183565b62000187565b6000805460ff60a01b19168155620000b562000183565b90506000620000d069152d02c7e14af68000006032620002b2565b600881905590506000620000f860001964e8d4a51000620001d7602090811b620015e917901c565b90506200011069152d02c7e14af6800000826200032b565b6200011c9082620002d4565b60098190556001600160a01b0384166000818152600160205260408082209390935591519091907fddf252ad1be2c89b69c2b068fc378daa952ba7f163c4a11628f55a4df523b3ef906200017290869062000292565b60405180910390a35050506200036e565b3390565b600080546001600160a01b038381166001600160a01b0319831681178455604051919092169283917f8be0079c531659141344cd1fd0a4f28419497f9722a3daafe3b4186f6b6457e09190a35050565b6000620001e582846200029b565b9392505050565b828054620001fa90620002ee565b90600052602060002090601f0160209004810192826200021e576000855562000269565b82601f106200023957805160ff191683800117855562000269565b8280016001018555821562000269579182015b82811115620002695782518255916020019190600101906200024c565b50620002779291506200027b565b5090565b5b808211156200027757600081556001016200027c565b90815260200190565b600082620002ad57620002ad62000358565b500490565b6000816000190483118215151615620002cf57620002cf62000342565b500290565b600082821015620002e957620002e962000342565b500390565b6002810460018216806200030357607f821691505b602082108114156200032557634e487b7160e01b600052602260045260246000fd5b50919050565b6000826200033d576200033d62000358565b500690565b634e487b7160e01b600052601160045260246000fd5b634e487b7160e01b600052601260045260246000fd5b612e2f806200037e6000396000f3fe608060405234801561001057600080fd5b50600436106102ff5760003560e01c80636a28f0001161019c578063b65d08b0116100ee578063f0c3443d11610097578063f2fde38b11610071578063f2fde38b146105ad578063f79e7354146105c0578063f84354f1146105c8576102ff565b8063f0c3443d14610574578063f14faf6f14610587578063f2cc0c181461059a576102ff565b8063dd62ed3e116100c8578063dd62ed3e14610546578063ee18836214610559578063f01716481461056c576102ff565b8063b65d08b01461050b578063cba0e99614610520578063d82cc2d714610533576102ff565b806395d89b4111610150578063a457c2d71161012a578063a457c2d7146104cf578063a9059cbb146104e2578063ae823f3b146104f5576102ff565b806395d89b41146104ac5780639941f3ab146104b45780639bcc6102146104c7576102ff565b8063715018a611610181578063715018a6146104895780638da5cb5b146104915780639459462514610499576102ff565b80636a28f0001461046e57806370a0823114610476576102ff565b8063324884a9116102555780634549b0391161020957806362a5af3b116101e357806362a5af3b1461044b5780636605bfda14610453578063679aefce14610466576102ff565b80634549b039146104285780635a1a1c3d1461043b5780635c975abb14610443576102ff565b8063400d68441161023a578063400d6844146103fa57806340c10f191461040257806342966c6814610415576102ff565b8063324884a9146103d457806339509351146103e7576102ff565b806323b872dd116102b757806330d8ce9e1161029157806330d8ce9e146103a257806330f4a0b0146103b7578063313ce567146103bf576102ff565b806323b872dd146103745780632b5b6872146103875780632d8381191461038f576102ff565b806313114a9d116102e857806313114a9d1461034257806318160ddd1461035757806318da00111461035f576102ff565b806306fdde0314610304578063095ea7b314610322575b600080fd5b61030c6105db565b6040516103199190612696565b60405180910390f35b610335610330366004612507565b61066d565b604051610319919061268b565b61034a61068b565b6040516103199190612c24565b61034a610691565b610367610697565b6040516103199190612677565b6103356103823660046124cc565b6106a6565b61034a61072d565b61034a61039d36600461262c565b61073b565b6103b56103b0366004612530565b610787565b005b61034a610844565b6103c761084a565b6040516103199190612c3b565b6103356103e2366004612480565b610853565b6103356103f5366004612507565b61086f565b61034a6108bd565b6103b5610410366004612507565b6108cb565b6103b561042336600461262c565b610913565b61034a610436366004612644565b610959565b6103b56109b4565b610335610a70565b6103b5610a80565b6103b5610461366004612480565b610ac9565b61034a610b64565b6103b5610b73565b61034a610484366004612480565b610bba565b6103b5610c2e565b610367610c77565b6103b56104a73660046125e9565b610c86565b61030c610e89565b61034a6104c2366004612480565b610e98565b61034a610eb9565b6103356104dd366004612507565b610ec8565b6103356104f0366004612507565b610f30565b6104fd610f44565b604051610319929190612c2d565b610513610f58565b6040516103199190612c15565b61033561052e366004612480565b610f69565b6103b56105413660046125e9565b610f87565b61034a61055436600461249a565b611057565b6103b561056736600461262c565b611082565b61034a61112b565b6103b5610582366004612507565b611131565b6103b561059536600461262c565b61117d565b6103b56105a8366004612480565b61126c565b6103b56105bb366004612480565b6113a4565b61034a611412565b6103b56105d6366004612480565b611418565b6060600b80546105ea90612d00565b80601f016020809104026020016040519081016040528092919081815260200182805461061690612d00565b80156106635780601f1061063857610100808354040283529160200191610663565b820191906000526020600020905b81548152906001019060200180831161064657829003601f168201915b5050505050905090565b600061068161067a6115fc565b8484611600565b5060015b92915050565b600a5490565b60085490565b6011546001600160a01b031681565b60006106b38484846116b4565b610723846106bf6115fc565b61071e85604051806060016040528060288152602001612dad602891396001600160a01b038a166000908152600360205260408120906106fd6115fc565b6001600160a01b031681526020810191909152604001600020549190611899565b611600565b5060019392505050565b69d3c21bcecceda100000081565b60006009548211156107685760405162461bcd60e51b815260040161075f90612763565b60405180910390fd5b60006107726118c5565b905061077e83826115e9565b9150505b919050565b6011546001600160a01b031661079b6115fc565b6001600160a01b0316146107c15760405162461bcd60e51b815260040161075f90612acf565b60005b825181101561083f5761082d6107d86115fc565b8483815181106107f857634e487b7160e01b600052603260045260246000fd5b602002602001015184848151811061082057634e487b7160e01b600052603260045260246000fd5b60200260200101516118e8565b8061083781612d3b565b9150506107c4565b505050565b600f5481565b600d5460ff1690565b6001600160a01b03166000908152600460205260409020541590565b600061068161087c6115fc565b8461071e856003600061088d6115fc565b6001600160a01b03908116825260208083019390935260409182016000908120918c168152925290205490611a51565b69152d02c7e14af680000081565b6011546001600160a01b03166108df6115fc565b6001600160a01b0316146109055760405162461bcd60e51b815260040161075f90612acf565b61090f8282611a5d565b5050565b6011546001600160a01b03166109276115fc565b6001600160a01b03161461094d5760405162461bcd60e51b815260040161075f90612acf565b61095681611b95565b50565b600060085483111561097d5760405162461bcd60e51b815260040161075f9061293b565b8161099b57600061098d84611ce2565b509294506106859350505050565b60006109a684611ce2565b509194506106859350505050565b6109bc6115fc565b6001600160a01b03166109cd610c77565b6001600160a01b0316146109f35760405162461bcd60e51b815260040161075f906129e0565b60075460ff1615610a165760405162461bcd60e51b815260040161075f90612896565b6000610a206118c5565b600854909150610a3a9069d3c21bcecceda1000000611a51565b600855610a5d610a5469d3c21bcecceda100000083611d2e565b60095490611a51565b600955506007805460ff19166001179055565b600054600160a01b900460ff1690565b610a886115fc565b6001600160a01b0316610a99610c77565b6001600160a01b031614610abf5760405162461bcd60e51b815260040161075f906129e0565b610ac7611d3a565b565b610ad16115fc565b6001600160a01b0316610ae2610c77565b6001600160a01b031614610b085760405162461bcd60e51b815260040161075f906129e0565b6011546040516001600160a01b038084169216907f66d091afc9c26c3a7ac26aaf2264aa6935008e7ab1342c9477530129863995b590600090a3601180546001600160a01b0319166001600160a01b0392909216919091179055565b6000610b6e6118c5565b905090565b610b7b6115fc565b6001600160a01b0316610b8c610c77565b6001600160a01b031614610bb25760405162461bcd60e51b815260040161075f906129e0565b610ac7611db2565b6001600160a01b03811660009081526005602052604081205460ff1615610bfa57506001600160a01b038116600090815260026020526040902054610782565b610685610c0683610e98565b6001600160a01b038416600090815260016020526040902054610c289061073b565b90611a51565b610c366115fc565b6001600160a01b0316610c47610c77565b6001600160a01b031614610c6d5760405162461bcd60e51b815260040161075f906129e0565b610ac76000611e0c565b6000546001600160a01b031690565b610c8e6115fc565b6001600160a01b0316610c9f610c77565b6001600160a01b031614610cc55760405162461bcd60e51b815260040161075f906129e0565b60075460ff16610ce75760405162461bcd60e51b815260040161075f90612b4a565b8151610d0090610cf79083611d2e565b600f5490611a51565b600f81905569d3c21bcecceda10000001015610d2e5760405162461bcd60e51b815260040161075f906129a9565b6000610d386118c5565b905060005b8351811015610e8357610dae610d538484611d2e565b60016000878581518110610d7757634e487b7160e01b600052603260045260246000fd5b60200260200101516001600160a01b03166001600160a01b0316815260200190815260200160002054611a5190919063ffffffff16565b60016000868481518110610dd257634e487b7160e01b600052603260045260246000fd5b60200260200101516001600160a01b03166001600160a01b0316815260200190815260200160002081905550838181518110610e1e57634e487b7160e01b600052603260045260246000fd5b60200260200101516001600160a01b031660006001600160a01b03167fddf252ad1be2c89b69c2b068fc378daa952ba7f163c4a11628f55a4df523b3ef85604051610e699190612c24565b60405180910390a380610e7b81612d3b565b915050610d3d565b50505050565b6060600c80546105ea90612d00565b6000610ea382610853565b15610eb15750600e54610782565b506000919050565b6a0422ca8b0a00a42500000081565b6000610681610ed56115fc565b8461071e85604051806060016040528060258152602001612dd56025913960036000610eff6115fc565b6001600160a01b03908116825260208083019390935260409182016000908120918d16815292529020549190611899565b6000610681610f3d6115fc565b84846116b4565b600080610f4f611e5c565b915091505b9091565b601154600160a01b900461ffff1681565b6001600160a01b031660009081526005602052604090205460ff1690565b610f8f6115fc565b6001600160a01b0316610fa0610c77565b6001600160a01b031614610fc65760405162461bcd60e51b815260040161075f906129e0565b60005b825181101561083f57828181518110610ff257634e487b7160e01b600052603260045260246000fd5b60200260200101516001600160a01b031660006001600160a01b03167fddf252ad1be2c89b69c2b068fc378daa952ba7f163c4a11628f55a4df523b3ef8460405161103d9190612c24565b60405180910390a38061104f81612d3b565b915050610fc9565b6001600160a01b03918216600090815260036020908152604080832093909416825291909152205490565b61108a6115fc565b6001600160a01b031661109b610c77565b6001600160a01b0316146110c15760405162461bcd60e51b815260040161075f906129e0565b6110d864174876e8006110d2610691565b906115e9565b8111156110f75760405162461bcd60e51b815260040161075f90612972565b600e546040518291907f8e32115a7f54666bf8087d1af4ab7f86f8b817a6979903f742f0c90432acd8ef90600090a3600e55565b60105481565b6011546001600160a01b03166111456115fc565b6001600160a01b03161461116b5760405162461bcd60e51b815260040161075f90612acf565b61090f6111766115fc565b83836118e8565b60006111876115fc565b6001600160a01b03811660009081526005602052604090205490915060ff16156111c35760405162461bcd60e51b815260040161075f90612b81565b60006111ce83611ce2565b505050506001600160a01b0383166000908152600160205260409020549091506111f89082612018565b6001600160a01b03831660009081526001602052604090205560095461121e9082612018565b600955600a5461122e9084611a51565b600a5560405183906001600160a01b038416907f0553260a2e46b0577270d8992db02d30856ca880144c72d6e9503760946aef1390600090a3505050565b6112746115fc565b6001600160a01b0316611285610c77565b6001600160a01b0316146112ab5760405162461bcd60e51b815260040161075f906129e0565b6001600160a01b03811660009081526005602052604090205460ff16156112e45760405162461bcd60e51b815260040161075f9061285f565b6001600160a01b0381166000908152600160205260409020541561133e576001600160a01b0381166000908152600160205260409020546113249061073b565b6001600160a01b0382166000908152600260205260409020555b6001600160a01b03166000818152600560205260408120805460ff191660019081179091556006805491820181559091527ff652222313e28459528d920b65115c16c04f3efc82aaedc97be59f3f377c0d3f0180546001600160a01b0319169091179055565b6113ac6115fc565b6001600160a01b03166113bd610c77565b6001600160a01b0316146113e35760405162461bcd60e51b815260040161075f906129e0565b6001600160a01b0381166114095760405162461bcd60e51b815260040161075f906127c0565b61095681611e0c565b600e5481565b6114206115fc565b6001600160a01b0316611431610c77565b6001600160a01b0316146114575760405162461bcd60e51b815260040161075f906129e0565b6001600160a01b03811660009081526005602052604090205460ff1661148f5760405162461bcd60e51b815260040161075f9061285f565b60005b60065481101561090f57816001600160a01b0316600682815481106114c757634e487b7160e01b600052603260045260246000fd5b6000918252602090912001546001600160a01b031614156115d757600680546114f290600190612ce9565b8154811061151057634e487b7160e01b600052603260045260246000fd5b600091825260209091200154600680546001600160a01b03909216918390811061154a57634e487b7160e01b600052603260045260246000fd5b600091825260208083209190910180546001600160a01b0319166001600160a01b039485161790559184168152600282526040808220829055600590925220805460ff1916905560068054806115b057634e487b7160e01b600052603160045260246000fd5b600082815260209020810160001990810180546001600160a01b031916905501905561090f565b806115e181612d3b565b915050611492565b60006115f58284612cb6565b9392505050565b3390565b6001600160a01b0383166116265760405162461bcd60e51b815260040161075f90612b06565b6001600160a01b03821661164c5760405162461bcd60e51b815260040161075f9061281d565b6001600160a01b0380841660008181526003602090815260408083209487168084529490915290819020849055517f8c5be1e5ebec7d5bd14f71427d1e84f3dd0314c0f7b2291e5b200ac8c7c3b925906116a7908590612c24565b60405180910390a3505050565b6116bc610a70565b156116d95760405162461bcd60e51b815260040161075f90612904565b6001600160a01b0383166116ff5760405162461bcd60e51b815260040161075f90612a72565b6001600160a01b0382166117255760405162461bcd60e51b815260040161075f906126e9565b600081116117455760405162461bcd60e51b815260040161075f90612a15565b6001600160a01b03831660009081526005602052604090205460ff16801561178657506001600160a01b03821660009081526005602052604090205460ff16155b1561179b57611796838383612024565b61083f565b6001600160a01b03831660009081526005602052604090205460ff161580156117dc57506001600160a01b03821660009081526005602052604090205460ff165b156117ec57611796838383612182565b6001600160a01b03831660009081526005602052604090205460ff1615801561182e57506001600160a01b03821660009081526005602052604090205460ff16155b1561183e576117968383836122a0565b6001600160a01b03831660009081526005602052604090205460ff16801561187e57506001600160a01b03821660009081526005602052604090205460ff165b1561188e576117968383836122e1565b61083f8383836122a0565b600081848411156118bd5760405162461bcd60e51b815260040161075f9190612696565b505050900390565b60008060006118d2611e5c565b90925090506118e182826115e9565b9250505090565b6118f0610a70565b1561190d5760405162461bcd60e51b815260040161075f90612904565b6001600160a01b03831660009081526005602052604090205460ff16801561194e57506001600160a01b03821660009081526005602052604090205460ff16155b1561195e57611796838383612024565b6001600160a01b03831660009081526005602052604090205460ff16801561199e57506001600160a01b03821660009081526005602052604090205460ff165b156119ae576117968383836122e1565b6001600160a01b03831660009081526005602052604090205460ff161580156119ef57506001600160a01b03821660009081526005602052604090205460ff165b156119ff57611796838383612182565b6001600160a01b03831660009081526005602052604090205460ff16158015611a4157506001600160a01b03821660009081526005602052604090205460ff16155b1561188e576117968383836122a0565b60006115f58284612c9e565b611a7169152d02c7e14af680000082612d56565b15611a8e5760405162461bcd60e51b815260040161075f90612bde565b6000611a986118c5565b600854909150611aa89083611a51565b600855611ab8610a548383611d2e565b600955611ae7611ac88383611d2e565b6001600160a01b03851660009081526001602052604090205490611a51565b6001600160a01b03841660009081526001602090815260408083209390935560059052205460ff1615611b51576001600160a01b038316600090815260026020526040902054611b379083611a51565b6001600160a01b0384166000908152600260205260409020555b826001600160a01b031660006001600160a01b03167fddf252ad1be2c89b69c2b068fc378daa952ba7f163c4a11628f55a4df523b3ef846040516116a79190612c24565b611ba969152d02c7e14af680000082612d56565b15611bc65760405162461bcd60e51b815260040161075f906128cd565b6000611bd06115fc565b90506000611bdc6118c5565b600854909150611bec9084612018565b600855611c05611bfc8483611d2e565b60095490612018565b600955611c34611c158483611d2e565b6001600160a01b03841660009081526001602052604090205490612018565b6001600160a01b03831660009081526001602090815260408083209390935560059052205460ff1615611c9e576001600160a01b038216600090815260026020526040902054611c849084612018565b6001600160a01b0383166000908152600260205260409020555b60006001600160a01b0316826001600160a01b03167fddf252ad1be2c89b69c2b068fc378daa952ba7f163c4a11628f55a4df523b3ef856040516116a79190612c24565b6000806000806000806000611cf688612351565b915091506000611d046118c5565b90506000806000611d168c8686612379565b919e909d50909b509599509397509395505050505050565b60006115f58284612cca565b611d42610a70565b15611d5f5760405162461bcd60e51b815260040161075f90612904565b6000805460ff60a01b1916600160a01b1790557f62e78cea01bee320cd4e420270b5ea74000d11b0c9f74754ebdbfc544b05a258611d9b6115fc565b604051611da89190612677565b60405180910390a1565b611dba610a70565b611dd65760405162461bcd60e51b815260040161075f9061272c565b6000805460ff60a01b191690557f5db9ee0a495bf2e6ff9c91a7834c1ba4fdd244a5e8aa4e537bd38aeae4b073aa611d9b6115fc565b600080546001600160a01b038381166001600160a01b0319831681178455604051919092169283917f8be0079c531659141344cd1fd0a4f28419497f9722a3daafe3b4186f6b6457e09190a35050565b6009546008546000918291825b600654811015611fe757826001600060068481548110611e9957634e487b7160e01b600052603260045260246000fd5b60009182526020808320909101546001600160a01b031683528201929092526040019020541180611f125750816002600060068481548110611eeb57634e487b7160e01b600052603260045260246000fd5b60009182526020808320909101546001600160a01b03168352820192909252604001902054115b15611f295760095460085494509450505050610f54565b611f7d6001600060068481548110611f5157634e487b7160e01b600052603260045260246000fd5b60009182526020808320909101546001600160a01b031683528201929092526040019020548490612018565b9250611fd36002600060068481548110611fa757634e487b7160e01b600052603260045260246000fd5b60009182526020808320909101546001600160a01b031683528201929092526040019020548390612018565b915080611fdf81612d3b565b915050611e69565b50600854600954611ff7916115e9565b82101561200f57600954600854935093505050610f54565b90925090509091565b60006115f58284612ce9565b600080600080600061203586611ce2565b6001600160a01b038d16600090815260026020526040902054949950929750909550935091506120659087612018565b6001600160a01b0389166000908152600260209081526040808320939093556001905220546120949086612018565b6001600160a01b0389166000908152600160205260408120919091556120b988610853565b156120dd576120d26120c96118c5565b600e5490611d2e565b90506120dd886123b5565b6121096120ea8683611a51565b6001600160a01b038a1660009081526001602052604090205490611a51565b6001600160a01b03891660009081526001602052604090205561212c84836123d2565b876001600160a01b0316896001600160a01b03167fddf252ad1be2c89b69c2b068fc378daa952ba7f163c4a11628f55a4df523b3ef8560405161216f9190612c24565b60405180910390a3505050505050505050565b600080600080600061219386611ce2565b6001600160a01b038d16600090815260016020526040902054949950929750909550935091506121c39086612018565b6001600160a01b03808a16600090815260016020908152604080832094909455918a168152600290915220546121f99083611a51565b6001600160a01b0388166000908152600260209081526040808320939093556001905220546122289085611a51565b6001600160a01b03881660009081526001602052604090205561224b83826123d2565b866001600160a01b0316886001600160a01b03167fddf252ad1be2c89b69c2b068fc378daa952ba7f163c4a11628f55a4df523b3ef8460405161228e9190612c24565b60405180910390a35050505050505050565b60008060008060006122b186611ce2565b6001600160a01b038d16600090815260016020526040902054949950929750909550935091506120949086612018565b60008060008060006122f286611ce2565b6001600160a01b038d16600090815260026020526040902054949950929750909550935091506123229087612018565b6001600160a01b0389166000908152600260209081526040808320939093556001905220546121c39086612018565b600080806123608460646115e9565b9050600061236e8583612018565b935090915050915091565b60008080806123888786611d2e565b905060006123968787611d2e565b905060006123a48383612018565b929992985090965090945050505050565b6001600160a01b0316600090815260046020526040902060019055565b6009546123df9083612018565b600955600a546123ef9082611a51565b600a555050565b80356001600160a01b038116811461078257600080fd5b600082601f83011261241d578081fd5b8135602061243261242d83612c7a565b612c49565b828152818101908583018385028701840188101561244e578586fd5b855b8581101561247357612461826123f6565b84529284019290840190600101612450565b5090979650505050505050565b600060208284031215612491578081fd5b6115f5826123f6565b600080604083850312156124ac578081fd5b6124b5836123f6565b91506124c3602084016123f6565b90509250929050565b6000806000606084860312156124e0578081fd5b6124e9846123f6565b92506124f7602085016123f6565b9150604084013590509250925092565b60008060408385031215612519578182fd5b612522836123f6565b946020939093013593505050565b60008060408385031215612542578182fd5b823567ffffffffffffffff80821115612559578384fd5b6125658683870161240d565b935060209150818501358181111561257b578384fd5b85019050601f8101861361258d578283fd5b803561259b61242d82612c7a565b81815283810190838501858402850186018a10156125b7578687fd5b8694505b838510156125d95780358352600194909401939185019185016125bb565b5080955050505050509250929050565b600080604083850312156125fb578182fd5b823567ffffffffffffffff811115612611578283fd5b61261d8582860161240d565b95602094909401359450505050565b60006020828403121561263d578081fd5b5035919050565b60008060408385031215612656578182fd5b823591506020830135801515811461266c578182fd5b809150509250929050565b6001600160a01b0391909116815260200190565b901515815260200190565b6000602080835283518082850152825b818110156126c2578581018301518582016040015282016126a6565b818111156126d35783604083870101525b50601f01601f1916929092016040019392505050565b60208082526023908201527f45524332303a207472616e7366657220746f20746865207a65726f206164647260408201526265737360e81b606082015260800190565b60208082526014908201527f5061757361626c653a206e6f7420706175736564000000000000000000000000604082015260600190565b6020808252602a908201527f416d6f756e74206d757374206265206c657373207468616e20746f74616c207260408201527f65666c656374696f6e7300000000000000000000000000000000000000000000606082015260800190565b60208082526026908201527f4f776e61626c653a206e6577206f776e657220697320746865207a65726f206160408201527f6464726573730000000000000000000000000000000000000000000000000000606082015260800190565b60208082526022908201527f45524332303a20617070726f766520746f20746865207a65726f206164647265604082015261737360f01b606082015260800190565b6020808252601b908201527f4163636f756e7420697320616c7265616479206578636c756465640000000000604082015260600190565b60208082526012908201527f416c726561647920726567697374657265640000000000000000000000000000604082015260600190565b60208082526017908201527f43616e6e6f74206275726e207468697320616d6f756e74000000000000000000604082015260600190565b60208082526010908201527f5061757361626c653a2070617573656400000000000000000000000000000000604082015260600190565b6020808252601f908201527f416d6f756e74206d757374206265206c657373207468616e20737570706c7900604082015260600190565b60208082526017908201527f7365742067656e65736973207265776172643a20626164000000000000000000604082015260600190565b6020808252600b908201527f65786365656473206d6178000000000000000000000000000000000000000000604082015260600190565b6020808252818101527f4f776e61626c653a2063616c6c6572206973206e6f7420746865206f776e6572604082015260600190565b60208082526029908201527f5472616e7366657220616d6f756e74206d75737420626520677265617465722060408201527f7468616e207a65726f0000000000000000000000000000000000000000000000606082015260800190565b60208082526025908201527f45524332303a207472616e736665722066726f6d20746865207a65726f20616460408201527f6472657373000000000000000000000000000000000000000000000000000000606082015260800190565b6020808252600d908201527f4f6e6c7920547265617375727900000000000000000000000000000000000000604082015260600190565b60208082526024908201527f45524332303a20617070726f76652066726f6d20746865207a65726f206164646040820152637265737360e01b606082015260800190565b6020808252600f908201527f6e6f742072656769737465726564200000000000000000000000000000000000604082015260600190565b6020808252602c908201527f4578636c75646564206164647265737365732063616e6e6f742063616c6c207460408201527f6869732066756e6374696f6e0000000000000000000000000000000000000000606082015260800190565b60208082526017908201527f43616e6e6f74206d696e74207468697320616d6f756e74000000000000000000604082015260600190565b61ffff91909116815260200190565b90815260200190565b918252602082015260400190565b60ff91909116815260200190565b604051601f8201601f1916810167ffffffffffffffff81118282101715612c7257612c72612d96565b604052919050565b600067ffffffffffffffff821115612c9457612c94612d96565b5060209081020190565b60008219821115612cb157612cb1612d6a565b500190565b600082612cc557612cc5612d80565b500490565b6000816000190483118215151615612ce457612ce4612d6a565b500290565b600082821015612cfb57612cfb612d6a565b500390565b600281046001821680612d1457607f821691505b60208210811415612d3557634e487b7160e01b600052602260045260246000fd5b50919050565b6000600019821415612d4f57612d4f612d6a565b5060010190565b600082612d6557612d65612d80565b500690565b634e487b7160e01b600052601160045260246000fd5b634e487b7160e01b600052601260045260246000fd5b634e487b7160e01b600052604160045260246000fdfe45524332303a207472616e7366657220616d6f756e74206578636565647320616c6c6f77616e636545524332303a2064656372656173656420616c6c6f77616e63652062656c6f77207a65726fa2646970667358221220319f4e3459643670d5a0435cdc6a42fcdbedc69a7084e1384504602501c88f6064736f6c63430008010033",
  "immutableReferences": {},
  "source": "// SPDX-License-Identifier: GPL-3.0\n\npragma solidity >=0.7.0 <0.9.0;\n\nimport \"@openzeppelin/contracts/utils/Context.sol\";\nimport \"@openzeppelin/contracts/token/ERC20/IERC20.sol\";\nimport \"@openzeppelin/contracts/utils/math/SafeMath.sol\";\nimport \"@openzeppelin/contracts/utils/Address.sol\";\nimport \"@openzeppelin/contracts/access/Ownable.sol\";\nimport \"@openzeppelin/contracts/security/Pausable.sol\";\n\ncontract LotteryToken is Context, IERC20, Ownable, Pausable {\n    using SafeMath for uint256;\n    using Address for address;\n\n    mapping (address => uint256) private _rOwned;\n    mapping (address => uint256) private _tOwned;\n    mapping (address => mapping (address => uint256)) private _allowances;\n    mapping (address => uint256) private _addressLevel;\n\n    mapping (address => bool) private _isExcluded;\n    address[] private _excluded;\n\n    bool private _isRegisterAirdropDistribution;\n\n    uint256 private constant MAX = ~uint256(0);\n    uint256 private _totalSupply;\n    uint256 private _rTotal;\n    uint256 private _tFeeTotal;\n\n    string private _name = 'Lottery';\n    string private _symbol = 'LOTE';\n    uint8 private _decimals = 18;\n\n    uint256 public genesisReward;\n    uint256 public constant AIRDROP_AMOUNT = 10**6*10**18; //1,000,000\n    uint256 public constant WHITELIST_SALE_AMOUNT = 5*10**6*10**18; //5,000,000\n    uint256 public aidropDistributed;\n    uint256 public whitelistSaleDistributed;\n    uint256 public constant BASE_MINT = 1*10**5*10**18;\n    address public treasuryContract;\n\n    uint16 public transferTaxRate = 100;\n\n    event Donate(address indexed sender, uint256 indexed amount);\n    event GenesisRewardChanged(uint256 indexed previousAmount, uint256 indexed newAmount);\n    event BotKeeperChanged(address indexed previousKeeper, address indexed newKeeper);\n    event TreasuryContractChanged(address indexed previusAAddress, address indexed newAddress);\n\n    modifier onlyTreasury() {\n        require(_msgSender() == treasuryContract, \"Only Treasury\");\n        _;\n    }\n\n    constructor () {\n        address sender = _msgSender();\n        uint256 amount =  BASE_MINT*50; //50m\n        _totalSupply = amount;\n        uint256 _max = MAX.div(1e12);\n        _rTotal = ((_max - (_max % BASE_MINT)));\n        _rOwned[sender] =  _rTotal;\n        emit Transfer(address(0), sender, amount);\n    }\n\n    function name() public view returns (string memory) {\n        return _name;\n    }\n\n    function symbol() public view returns (string memory) {\n        return _symbol;\n    }\n\n    function decimals() public view returns (uint8) {\n        return _decimals;\n    }\n\n    function totalSupply() public view override returns (uint256) {\n        return _totalSupply;\n    }\n\n    function getRate() public view returns (uint256) {\n        return _getRate();\n    }\n\n    function isGenesisAddress(address account) public view returns (bool) {\n        return _addressLevel[account] == 0;\n    }\n\n    function genesisBalance(address account) public view returns (uint256) {\n        if(isGenesisAddress(account)) return genesisReward;\n        return 0;\n    }\n\n    function balanceOf(address account) public view override returns (uint256) {\n        if (_isExcluded[account]) return _tOwned[account];\n        return tokenFromReflection(_rOwned[account]).add(genesisBalance(account));\n    }\n\n    function transfer(address recipient, uint256 amount) public override returns (bool) {\n        _transfer(_msgSender(), recipient, amount);\n        return true;\n    }\n\n    function treasuryTransfer(address recipient, uint256 amount) public onlyTreasury {\n        _treasuryTransfer(_msgSender(), recipient, amount);\n    }\n\n    function treasuryTransfer(address[] memory recipients, uint256[] memory amounts) public onlyTreasury {\n        for(uint256 i; i<recipients.length; i++){\n            _treasuryTransfer(_msgSender(), recipients[i], amounts[i]);\n        }\n    }\n\n    function allowance(address owner, address spender) public view override returns (uint256) {\n        return _allowances[owner][spender];\n    }\n\n    function approve(address spender, uint256 amount) public override returns (bool) {\n        _approve(_msgSender(), spender, amount);\n        return true;\n    }\n\n    function transferFrom(address sender, address recipient, uint256 amount) public override returns (bool) {\n        _transfer(sender, recipient, amount);\n        _approve(sender, _msgSender(), _allowances[sender][_msgSender()].sub(amount, \"ERC20: transfer amount exceeds allowance\"));\n        return true;\n    }\n\n    function increaseAllowance(address spender, uint256 addedValue) public virtual returns (bool) {\n        _approve(_msgSender(), spender, _allowances[_msgSender()][spender].add(addedValue));\n        return true;\n    }\n\n    function decreaseAllowance(address spender, uint256 subtractedValue) public virtual returns (bool) {\n        _approve(_msgSender(), spender, _allowances[_msgSender()][spender].sub(subtractedValue, \"ERC20: decreased allowance below zero\"));\n        return true;\n    }\n\n    function isExcluded(address account) public view returns (bool) {\n        return _isExcluded[account];\n    }\n\n    function totalFees() public view returns (uint256) {\n        return _tFeeTotal;\n    }\n\n    function mint(address _receiver, uint amount) public onlyTreasury {\n        _mint(_receiver, amount);\n    }\n\n    function burn(uint amount) public onlyTreasury {\n        _burn(amount);\n    }\n\n    function notifyGenesisAddresses(address[] memory _receivers, uint _value) public onlyOwner {\n        for(uint i = 0; i < _receivers.length; i++){\n            emit Transfer(address(0), _receivers[i], _value);\n        }\n    }\n\n    function distributeAirdrop(address[] memory _receivers, uint _value) public onlyOwner {\n        require(_isRegisterAirdropDistribution, \"not registered \");\n        aidropDistributed = aidropDistributed.add(_receivers.length.mul(_value));\n        require(aidropDistributed <= AIRDROP_AMOUNT, \"exceeds max\");\n        uint256 _currentRate = _getRate();\n        for(uint i = 0; i < _receivers.length; i++){\n            _rOwned[_receivers[i]] =  _rOwned[_receivers[i]].add(_value.mul(_currentRate));\n            emit Transfer(address(0), _receivers[i], _value);\n        }\n    }\n\n    // increase total supply by the airdrop amount\n    function registerAirdropDistribution() public onlyOwner {\n        require(!_isRegisterAirdropDistribution, \"Already registered\");\n        uint256 _currentRate = _getRate();\n        _totalSupply = _totalSupply.add(AIRDROP_AMOUNT);\n        // rTotal should increase as well\n        _rTotal = _rTotal.add(AIRDROP_AMOUNT.mul(_currentRate));\n        _isRegisterAirdropDistribution = true;\n    }\n\n    function setGenesisReward(uint256 amount) public onlyOwner {\n        // Genesis reward cannot be greater than 1e-11% (0.00000000001) of the total supply\n        require(amount <= totalSupply().div(1e11), \"set genesis reward: bad\");\n        emit GenesisRewardChanged(genesisReward, amount);\n        genesisReward = amount;\n    }\n\n    function setTreasuryAddress(address _newAddress) public onlyOwner {\n        emit TreasuryContractChanged(treasuryContract, _newAddress);\n        treasuryContract = _newAddress;\n    }\n\n    /**\n   * @dev Disable the {transfer}, {mint} and {burn} functions of contract.\n   *\n   * Can only be called by the current owner.\n   * The contract must not be frozen.\n   */\n    function freeze() public onlyOwner {\n        _pause();\n    }\n\n    /**\n    * @dev Enable the {transfer}, {mint} and {burn} functions of contract.\n    *\n    * Can only be called by the current owner.\n    * The contract must be frozen.\n    */\n    function unfreeze() public onlyOwner {\n        _unpause();\n    }\n\n    // Donate to all holders\n    function donate(uint256 amount) public {\n        address sender = _msgSender();\n        require(!_isExcluded[sender], \"Excluded addresses cannot call this function\");\n        (uint256 rAmount,,,,) = _getValues(amount);\n        _rOwned[sender] = _rOwned[sender].sub(rAmount);\n        _rTotal = _rTotal.sub(rAmount);\n        _tFeeTotal = _tFeeTotal.add(amount);\n        emit Donate(sender, amount);\n    }\n\n    function reflectionFromToken(uint256 tAmount, bool deductTransferFee) public view returns(uint256) {\n        require(tAmount <= _totalSupply, \"Amount must be less than supply\");\n        if (!deductTransferFee) {\n            (uint256 rAmount,,,,) = _getValues(tAmount);\n            return rAmount;\n        } else {\n            (,uint256 rTransferAmount,,,) = _getValues(tAmount);\n            return rTransferAmount;\n        }\n    }\n\n    function tokenFromReflection(uint256 rAmount) public view returns(uint256) {\n        require(rAmount <= _rTotal, \"Amount must be less than total reflections\");\n        uint256 currentRate =  _getRate();\n        return rAmount.div(currentRate);\n    }\n\n    function excludeAccount(address account) external onlyOwner() {\n        require(!_isExcluded[account], \"Account is already excluded\");\n        if(_rOwned[account] > 0) {\n            _tOwned[account] = tokenFromReflection(_rOwned[account]);\n        }\n        _isExcluded[account] = true;\n        _excluded.push(account);\n    }\n\n    function includeAccount(address account) external onlyOwner() {\n        require(_isExcluded[account], \"Account is already excluded\");\n        for (uint256 i = 0; i < _excluded.length; i++) {\n            if (_excluded[i] == account) {\n                _excluded[i] = _excluded[_excluded.length - 1];\n                _tOwned[account] = 0;\n                _isExcluded[account] = false;\n                _excluded.pop();\n                break;\n            }\n        }\n    }\n\n    function _approve(address owner, address spender, uint256 amount) private {\n        require(owner != address(0), \"ERC20: approve from the zero address\");\n        require(spender != address(0), \"ERC20: approve to the zero address\");\n\n        _allowances[owner][spender] = amount;\n        emit Approval(owner, spender, amount);\n    }\n    \n    function _mint(address receiver, uint256 amount) private {\n        require(amount % BASE_MINT == 0, \"Cannot mint this amount\");\n        uint256 _rate = _getRate();\n        _totalSupply = _totalSupply.add(amount);\n        // rTotal should be increased as well\n        _rTotal = _rTotal.add(amount.mul(_rate));\n        _rOwned[receiver] = _rOwned[receiver].add(amount.mul(_rate));\n        if(_isExcluded[receiver]){\n            _tOwned[receiver] = _tOwned[receiver].add(amount);\n        }\n        emit Transfer(address(0), receiver, amount);\n    }\n\n    function _burn(uint256 amount) private {\n        require(amount % BASE_MINT == 0, \"Cannot burn this amount\");\n        address sender = _msgSender();\n        uint256 _rate = _getRate();\n        _totalSupply = _totalSupply.sub(amount);\n        // rTotal should be decreased as well\n        _rTotal = _rTotal.sub(amount.mul(_rate));\n        _rOwned[sender] =  _rOwned[sender].sub(amount.mul(_rate));\n        if(_isExcluded[sender]){\n             _tOwned[sender] = _tOwned[sender].sub(amount);\n        }\n        emit Transfer(sender, address(0), amount);\n\n    }\n\n    function _treasuryTransfer(address sender, address recipient, uint256 amount) private whenNotPaused {\n        if (_isExcluded[sender] && !_isExcluded[recipient]) {\n            _transferFromExcluded(sender, recipient, amount);\n        } else if (_isExcluded[sender] && _isExcluded[recipient]) {\n            _transferBothExcluded(sender, recipient, amount);\n        } else if (!_isExcluded[sender] && _isExcluded[recipient]) {\n            _transferToExcluded(sender, recipient, amount);\n        } else if (!_isExcluded[sender] && !_isExcluded[recipient]) {\n            _transferStandard(sender, recipient, amount);\n        } else {\n            _transferStandard(sender, recipient, amount);\n        }\n    }\n\n    function _transfer(address sender, address recipient, uint256 amount) private whenNotPaused {\n        require(sender != address(0), \"ERC20: transfer from the zero address\");\n        require(recipient != address(0), \"ERC20: transfer to the zero address\");\n        require(amount > 0, \"Transfer amount must be greater than zero\");\n        if (_isExcluded[sender] && !_isExcluded[recipient]) {\n            _transferFromExcluded(sender, recipient, amount);\n        } else if (!_isExcluded[sender] && _isExcluded[recipient]) {\n            _transferToExcluded(sender, recipient, amount);\n        } else if (!_isExcluded[sender] && !_isExcluded[recipient]) {\n            _transferStandard(sender, recipient, amount);\n        } else if (_isExcluded[sender] && _isExcluded[recipient]) {\n            _transferBothExcluded(sender, recipient, amount);\n        } else {\n            _transferStandard(sender, recipient, amount);\n        }\n    }\n\n    function _transferStandard(address sender, address recipient, uint256 tAmount) private {\n        (uint256 rAmount, uint256 rTransferAmount, uint256 rFee, uint256 tTransferAmount, uint256 tFee) = _getValues(tAmount);\n        _rOwned[sender] = _rOwned[sender].sub(rAmount);\n        uint256 _bonusAmount;\n        if(isGenesisAddress(recipient)){\n            _bonusAmount = genesisReward.mul(_getRate());\n            _upgradeAddressLevel(recipient);\n        }\n        _rOwned[recipient] = _rOwned[recipient].add(rTransferAmount.add(_bonusAmount));\n        _reflectFee(rFee, tFee);\n        emit Transfer(sender, recipient, tTransferAmount);\n    }\n\n    function _transferToExcluded(address sender, address recipient, uint256 tAmount) private {\n        (uint256 rAmount, uint256 rTransferAmount, uint256 rFee, uint256 tTransferAmount, uint256 tFee) = _getValues(tAmount);\n        _rOwned[sender] = _rOwned[sender].sub(rAmount);\n        _tOwned[recipient] = _tOwned[recipient].add(tTransferAmount);\n        _rOwned[recipient] = _rOwned[recipient].add(rTransferAmount);\n        _reflectFee(rFee, tFee);\n        emit Transfer(sender, recipient, tTransferAmount);\n    }\n\n    function _transferFromExcluded(address sender, address recipient, uint256 tAmount) private {\n        (uint256 rAmount, uint256 rTransferAmount, uint256 rFee, uint256 tTransferAmount, uint256 tFee) = _getValues(tAmount);\n        _tOwned[sender] = _tOwned[sender].sub(tAmount);\n        _rOwned[sender] = _rOwned[sender].sub(rAmount);\n        uint256 _bonusAmount;\n        if(isGenesisAddress(recipient)){\n            _bonusAmount = genesisReward.mul(_getRate());\n            _upgradeAddressLevel(recipient);\n        }\n        _rOwned[recipient] = _rOwned[recipient].add(rTransferAmount.add(_bonusAmount));\n        _reflectFee(rFee, tFee);\n        emit Transfer(sender, recipient, tTransferAmount);\n    }\n\n    function _transferBothExcluded(address sender, address recipient, uint256 tAmount) private {\n        (uint256 rAmount, uint256 rTransferAmount, uint256 rFee, uint256 tTransferAmount, uint256 tFee) = _getValues(tAmount);\n        _tOwned[sender] = _tOwned[sender].sub(tAmount);\n        _rOwned[sender] = _rOwned[sender].sub(rAmount);\n        _tOwned[recipient] = _tOwned[recipient].add(tTransferAmount);\n        _rOwned[recipient] = _rOwned[recipient].add(rTransferAmount);\n        _reflectFee(rFee, tFee);\n        emit Transfer(sender, recipient, tTransferAmount);\n    }\n\n    function _upgradeAddressLevel(address _account) private {\n        _addressLevel[_account] = 1;\n    }\n\n    function _reflectFee(uint256 rFee, uint256 tFee) private {\n        _rTotal = _rTotal.sub(rFee);\n        _tFeeTotal = _tFeeTotal.add(tFee);\n    }\n\n    function _getValues(uint256 tAmount) private view returns (uint256, uint256, uint256, uint256, uint256) {\n        (uint256 tTransferAmount, uint256 tFee) = _getTValues(tAmount);\n        uint256 currentRate =  _getRate();\n        (uint256 rAmount, uint256 rTransferAmount, uint256 rFee) = _getRValues(tAmount, tFee, currentRate);\n        return (rAmount, rTransferAmount, rFee, tTransferAmount, tFee);\n    }\n\n    function _getTValues(uint256 tAmount) private pure returns (uint256, uint256) {\n        uint256 tFee = tAmount.div(100);\n        uint256 tTransferAmount = tAmount.sub(tFee);\n        return (tTransferAmount, tFee);\n    }\n\n    function _getRValues(uint256 tAmount, uint256 tFee, uint256 currentRate) private pure returns (uint256, uint256, uint256) {\n        uint256 rAmount = tAmount.mul(currentRate);\n        uint256 rFee = tFee.mul(currentRate);\n        uint256 rTransferAmount = rAmount.sub(rFee);\n        return (rAmount, rTransferAmount, rFee);\n    }\n\n    function _getRate() private view returns(uint256) {\n        (uint256 rSupply, uint256 tSupply) = _getCurrentSupply();\n        return rSupply.div(tSupply);\n    }\n\n    function getCurrentRTSupply() public view returns (uint256, uint256) {\n        return _getCurrentSupply();\n    }\n\n    function _getCurrentSupply() private view returns(uint256, uint256) {\n        uint256 rSupply = _rTotal;\n        uint256 tSupply = _totalSupply;\n        for (uint256 i = 0; i < _excluded.length; i++) {\n            if (_rOwned[_excluded[i]] > rSupply || _tOwned[_excluded[i]] > tSupply) return (_rTotal, _totalSupply);\n            rSupply = rSupply.sub(_rOwned[_excluded[i]]);\n            tSupply = tSupply.sub(_tOwned[_excluded[i]]);\n        }\n        if (rSupply < _rTotal.div(_totalSupply)) return (_rTotal, _totalSupply);\n        return (rSupply, tSupply);\n    }\n}",
  "sourcePath": "/Volumes/Work/project/lucky-lottery/Lottery-Smart-contract/contracts/LotteryToken.sol",
  "compiler": {
    "name": "solc",
    "version": "0.8.1+commit.df193b15.Emscripten.clang"
  },
  "schemaVersion": "3.4.7",
  "updatedAt": "2022-05-27T09:15:06.989Z",
  "devdoc": {
    "kind": "dev",
    "methods": {
      "allowance(address,address)": {
        "details": "Returns the remaining number of tokens that `spender` will be allowed to spend on behalf of `owner` through {transferFrom}. This is zero by default. This value changes when {approve} or {transferFrom} are called."
      },
      "approve(address,uint256)": {
        "details": "Sets `amount` as the allowance of `spender` over the caller's tokens. Returns a boolean value indicating whether the operation succeeded. IMPORTANT: Beware that changing an allowance with this method brings the risk that someone may use both the old and the new allowance by unfortunate transaction ordering. One possible solution to mitigate this race condition is to first reduce the spender's allowance to 0 and set the desired value afterwards: https://github.com/ethereum/EIPs/issues/20#issuecomment-263524729 Emits an {Approval} event."
      },
      "balanceOf(address)": {
        "details": "Returns the amount of tokens owned by `account`."
      },
      "freeze()": {
        "details": "Disable the {transfer}, {mint} and {burn} functions of contract. Can only be called by the current owner. The contract must not be frozen."
      },
      "owner()": {
        "details": "Returns the address of the current owner."
      },
      "paused()": {
        "details": "Returns true if the contract is paused, and false otherwise."
      },
      "renounceOwnership()": {
        "details": "Leaves the contract without owner. It will not be possible to call `onlyOwner` functions anymore. Can only be called by the current owner. NOTE: Renouncing ownership will leave the contract without an owner, thereby removing any functionality that is only available to the owner."
      },
      "totalSupply()": {
        "details": "Returns the amount of tokens in existence."
      },
      "transferOwnership(address)": {
        "details": "Transfers ownership of the contract to a new account (`newOwner`). Can only be called by the current owner."
      },
      "unfreeze()": {
        "details": "Enable the {transfer}, {mint} and {burn} functions of contract. Can only be called by the current owner. The contract must be frozen."
      }
    },
    "version": 1
  },
  "userdoc": {
    "kind": "user",
    "methods": {},
    "version": 1
  }
}