{
  "contractName": "LotteryReferral",
  "abi": [
    {
      "anonymous": false,
      "inputs": [
        {
          "indexed": true,
          "internalType": "address",
          "name": "operator",
          "type": "address"
        },
        {
          "indexed": true,
          "internalType": "bool",
          "name": "status",
          "type": "bool"
        }
      ],
      "name": "OperatorUpdated",
      "type": "event"
    },
    {
      "anonymous": false,
      "inputs": [
        {
          "indexed": true,
          "internalType": "address",
          "name": "previousOwner",
          "type": "address"
        },
        {
          "indexed": true,
          "internalType": "address",
          "name": "newOwner",
          "type": "address"
        }
      ],
      "name": "OwnershipTransferred",
      "type": "event"
    },
    {
      "anonymous": false,
      "inputs": [
        {
          "indexed": true,
          "internalType": "address",
          "name": "referrer",
          "type": "address"
        },
        {
          "indexed": false,
          "internalType": "uint256",
          "name": "commission",
          "type": "uint256"
        }
      ],
      "name": "ReferralCommissionRecorded",
      "type": "event"
    },
    {
      "anonymous": false,
      "inputs": [
        {
          "indexed": true,
          "internalType": "address",
          "name": "user",
          "type": "address"
        },
        {
          "indexed": true,
          "internalType": "address",
          "name": "referrer",
          "type": "address"
        }
      ],
      "name": "ReferralRecorded",
      "type": "event"
    },
    {
      "inputs": [
        {
          "internalType": "address",
          "name": "",
          "type": "address"
        }
      ],
      "name": "operators",
      "outputs": [
        {
          "internalType": "bool",
          "name": "",
          "type": "bool"
        }
      ],
      "stateMutability": "view",
      "type": "function"
    },
    {
      "inputs": [],
      "name": "owner",
      "outputs": [
        {
          "internalType": "address",
          "name": "",
          "type": "address"
        }
      ],
      "stateMutability": "view",
      "type": "function"
    },
    {
      "inputs": [
        {
          "internalType": "address",
          "name": "",
          "type": "address"
        }
      ],
      "name": "referralsCount",
      "outputs": [
        {
          "internalType": "uint256",
          "name": "",
          "type": "uint256"
        }
      ],
      "stateMutability": "view",
      "type": "function"
    },
    {
      "inputs": [
        {
          "internalType": "address",
          "name": "",
          "type": "address"
        }
      ],
      "name": "referrers",
      "outputs": [
        {
          "internalType": "address",
          "name": "",
          "type": "address"
        }
      ],
      "stateMutability": "view",
      "type": "function"
    },
    {
      "inputs": [],
      "name": "renounceOwnership",
      "outputs": [],
      "stateMutability": "nonpayable",
      "type": "function"
    },
    {
      "inputs": [
        {
          "internalType": "address",
          "name": "",
          "type": "address"
        }
      ],
      "name": "totalReferralCommissions",
      "outputs": [
        {
          "internalType": "uint256",
          "name": "",
          "type": "uint256"
        }
      ],
      "stateMutability": "view",
      "type": "function"
    },
    {
      "inputs": [
        {
          "internalType": "address",
          "name": "newOwner",
          "type": "address"
        }
      ],
      "name": "transferOwnership",
      "outputs": [],
      "stateMutability": "nonpayable",
      "type": "function"
    },
    {
      "inputs": [
        {
          "internalType": "address",
          "name": "_user",
          "type": "address"
        },
        {
          "internalType": "address",
          "name": "_referrer",
          "type": "address"
        }
      ],
      "name": "recordReferral",
      "outputs": [],
      "stateMutability": "nonpayable",
      "type": "function"
    },
    {
      "inputs": [
        {
          "internalType": "address",
          "name": "_referrer",
          "type": "address"
        },
        {
          "internalType": "uint256",
          "name": "_commission",
          "type": "uint256"
        }
      ],
      "name": "recordReferralCommission",
      "outputs": [],
      "stateMutability": "nonpayable",
      "type": "function"
    },
    {
      "inputs": [
        {
          "internalType": "address",
          "name": "_user",
          "type": "address"
        }
      ],
      "name": "getReferrer",
      "outputs": [
        {
          "internalType": "address",
          "name": "",
          "type": "address"
        }
      ],
      "stateMutability": "view",
      "type": "function"
    },
    {
      "inputs": [
        {
          "internalType": "address",
          "name": "_operator",
          "type": "address"
        },
        {
          "internalType": "bool",
          "name": "_status",
          "type": "bool"
        }
      ],
      "name": "updateOperator",
      "outputs": [],
      "stateMutability": "nonpayable",
      "type": "function"
    },
    {
      "inputs": [
        {
          "internalType": "contract IERC20",
          "name": "_token",
          "type": "address"
        },
        {
          "internalType": "uint256",
          "name": "_amount",
          "type": "uint256"
        },
        {
          "internalType": "address",
          "name": "_to",
          "type": "address"
        }
      ],
      "name": "drainBEP20Token",
      "outputs": [],
      "stateMutability": "nonpayable",
      "type": "function"
    }
  ],
  "bytecode": "0x608060405234801561001057600080fd5b5061002161001c610026565b61002a565b61007a565b3390565b600080546001600160a01b038381166001600160a01b0319831681178455604051919092169283917f8be0079c531659141344cd1fd0a4f28419497f9722a3daafe3b4186f6b6457e09190a35050565b610c97806100896000396000f3fe608060405234801561001057600080fd5b50600436106100d45760003560e01c8063715018a6116100815780639ecfc6ea1161005b5780639ecfc6ea146101a0578063dc1694b8146101b3578063f2fde38b146101c6576100d4565b8063715018a61461017d57806379547628146101855780638da5cb5b14610198576100d4565b80634a9fefc7116100b25780634a9fefc7146101375780636b366c661461014a5780636d44a3b21461016a576100d4565b80630c7f7b6b146100d957806313e7c9d8146100ee5780634a3b68cc14610117575b600080fd5b6100ec6100e73660046108a6565b6101d9565b005b6101016100fc36600461088a565b610313565b60405161010e91906109dc565b60405180910390f35b61012a61012536600461088a565b610328565b60405161010e91906109af565b61012a61014536600461088a565b610343565b61015d61015836600461088a565b610361565b60405161010e9190610be1565b6100ec6101783660046108de565b610373565b6100ec610406565b6100ec610193366004610952565b610451565b61012a6104a9565b61015d6101ae36600461088a565b6104b8565b6100ec6101c136600461090b565b6104ca565b6100ec6101d436600461088a565b61058a565b3360009081526001602052604090205460ff166102115760405162461bcd60e51b815260040161020890610b9d565b60405180910390fd5b6001600160a01b0382161580159061023157506001600160a01b03811615155b801561024f5750806001600160a01b0316826001600160a01b031614155b801561027357506001600160a01b0382811660009081526002602052604090205416155b1561030f576001600160a01b038281166000908152600260209081526040808320805473ffffffffffffffffffffffffffffffffffffffff19169486169485179055928252600390529081208054600192906102d0908490610bea565b90915550506040516001600160a01b0380831691908416907ff61ccbe316daff56654abed758191f9a4dcac526d43747a50a2d545c0ca64d8290600090a35b5050565b60016020526000908152604090205460ff1681565b6002602052600090815260409020546001600160a01b031681565b6001600160a01b039081166000908152600260205260409020541690565b60036020526000908152604090205481565b61037b6105fb565b6001600160a01b031661038c6104a9565b6001600160a01b0316146103b25760405162461bcd60e51b815260040161020890610ad4565b6001600160a01b038216600081815260016020526040808220805460ff191685151590811790915590519092917f966c160e1c4dbc7df8d69af4ace01e9297c3cf016397b7914971f2fbfa32672d91a35050565b61040e6105fb565b6001600160a01b031661041f6104a9565b6001600160a01b0316146104455760405162461bcd60e51b815260040161020890610ad4565b61044f60006105ff565b565b6104596105fb565b6001600160a01b031661046a6104a9565b6001600160a01b0316146104905760405162461bcd60e51b815260040161020890610ad4565b6104a46001600160a01b038416828461065c565b505050565b6000546001600160a01b031690565b60046020526000908152604090205481565b3360009081526001602052604090205460ff166104f95760405162461bcd60e51b815260040161020890610b9d565b6001600160a01b038216158015906105115750600081115b1561030f576001600160a01b0382166000908152600460205260408120805483929061053e908490610bea565b92505081905550816001600160a01b03167f91badd4ef769cf56b7db0b350b95c9fb6d973e6e37d28a51fed219cc7d53184f8260405161057e9190610be1565b60405180910390a25050565b6105926105fb565b6001600160a01b03166105a36104a9565b6001600160a01b0316146105c95760405162461bcd60e51b815260040161020890610ad4565b6001600160a01b0381166105ef5760405162461bcd60e51b815260040161020890610a1a565b6105f8816105ff565b50565b3390565b600080546001600160a01b0383811673ffffffffffffffffffffffffffffffffffffffff19831681178455604051919092169283917f8be0079c531659141344cd1fd0a4f28419497f9722a3daafe3b4186f6b6457e09190a35050565b6104a48363a9059cbb60e01b848460405160240161067b9291906109c3565b60408051601f198184030181529190526020810180517bffffffffffffffffffffffffffffffffffffffffffffffffffffffff167fffffffff0000000000000000000000000000000000000000000000000000000090931692909217909152600061072f826040518060400160405280602081526020017f5361666545524332303a206c6f772d6c6576656c2063616c6c206661696c6564815250856001600160a01b03166107699092919063ffffffff16565b8051909150156104a4578080602001905181019061074d9190610936565b6104a45760405162461bcd60e51b815260040161020890610b40565b60606107788484600085610782565b90505b9392505050565b6060824710156107a45760405162461bcd60e51b815260040161020890610a77565b6107ad85610842565b6107c95760405162461bcd60e51b815260040161020890610b09565b600080866001600160a01b031685876040516107e59190610993565b60006040518083038185875af1925050503d8060008114610822576040519150601f19603f3d011682016040523d82523d6000602084013e610827565b606091505b5091509150610837828286610851565b979650505050505050565b6001600160a01b03163b151590565b6060831561086057508161077b565b8251156108705782518084602001fd5b8160405162461bcd60e51b815260040161020891906109e7565b60006020828403121561089b578081fd5b813561077b81610c3e565b600080604083850312156108b8578081fd5b82356108c381610c3e565b915060208301356108d381610c3e565b809150509250929050565b600080604083850312156108f0578182fd5b82356108fb81610c3e565b915060208301356108d381610c53565b6000806040838503121561091d578182fd5b823561092881610c3e565b946020939093013593505050565b600060208284031215610947578081fd5b815161077b81610c53565b600080600060608486031215610966578081fd5b833561097181610c3e565b925060208401359150604084013561098881610c3e565b809150509250925092565b600082516109a5818460208701610c0e565b9190910192915050565b6001600160a01b0391909116815260200190565b6001600160a01b03929092168252602082015260400190565b901515815260200190565b6000602082528251806020840152610a06816040850160208701610c0e565b601f01601f19169190910160400192915050565b60208082526026908201527f4f776e61626c653a206e6577206f776e657220697320746865207a65726f206160408201527f6464726573730000000000000000000000000000000000000000000000000000606082015260800190565b60208082526026908201527f416464726573733a20696e73756666696369656e742062616c616e636520666f60408201527f722063616c6c0000000000000000000000000000000000000000000000000000606082015260800190565b6020808252818101527f4f776e61626c653a2063616c6c6572206973206e6f7420746865206f776e6572604082015260600190565b6020808252601d908201527f416464726573733a2063616c6c20746f206e6f6e2d636f6e7472616374000000604082015260600190565b6020808252602a908201527f5361666545524332303a204552433230206f7065726174696f6e20646964206e60408201527f6f74207375636365656400000000000000000000000000000000000000000000606082015260800190565b60208082526024908201527f4f70657261746f723a2063616c6c6572206973206e6f7420746865206f70657260408201526330ba37b960e11b606082015260800190565b90815260200190565b60008219821115610c0957634e487b7160e01b81526011600452602481fd5b500190565b60005b83811015610c29578181015183820152602001610c11565b83811115610c38576000848401525b50505050565b6001600160a01b03811681146105f857600080fd5b80151581146105f857600080fdfea2646970667358221220f32b95cc750763a10bb9d5c23cc39a33ecd474fcfea864add22447475378e4e164736f6c63430008010033",
  "immutableReferences": {},
  "source": "// SPDX-License-Identifier: GPL-3.0\n\npragma solidity >=0.7.0 <0.9.0;\n\nimport \"@openzeppelin/contracts/access/Ownable.sol\";\nimport \"@openzeppelin/contracts/token/ERC20/IERC20.sol\";\nimport \"@openzeppelin/contracts/token/ERC20/utils/SafeERC20.sol\";\nimport \"../interfaces/ILotteryReferral.sol\";\n\ncontract LotteryReferral is ILotteryReferral, Ownable {\n    using SafeERC20 for IERC20;\n\n    mapping(address => bool) public operators;\n    mapping(address => address) public referrers; // user address => referrer address\n    mapping(address => uint256) public referralsCount; // referrer address => referrals count\n    mapping(address => uint256) public totalReferralCommissions; // referrer address => total referral commissions\n\n    event ReferralRecorded(address indexed user, address indexed referrer);\n    event ReferralCommissionRecorded(address indexed referrer, uint256 commission);\n    event OperatorUpdated(address indexed operator, bool indexed status);\n\n    modifier onlyOperator {\n        require(operators[msg.sender], \"Operator: caller is not the operator\");\n        _;\n    }\n\n    function recordReferral(address _user, address _referrer) public override onlyOperator {\n        if (_user != address(0)\n            && _referrer != address(0)\n            && _user != _referrer\n            && referrers[_user] == address(0)\n        ) {\n            referrers[_user] = _referrer;\n            referralsCount[_referrer] += 1;\n            emit ReferralRecorded(_user, _referrer);\n        }\n    }\n\n    function recordReferralCommission(address _referrer, uint256 _commission) public override onlyOperator {\n        if (_referrer != address(0) && _commission > 0) {\n            totalReferralCommissions[_referrer] += _commission;\n            emit ReferralCommissionRecorded(_referrer, _commission);\n        }\n    }\n\n    // Get the referrer address that referred the user\n    function getReferrer(address _user) public override view returns (address) {\n        return referrers[_user];\n    }\n\n    // Update the status of the operator\n    function updateOperator(address _operator, bool _status) external onlyOwner {\n        operators[_operator] = _status;\n        emit OperatorUpdated(_operator, _status);\n    }\n\n    // Owner can drain tokens that are sent here by mistake\n    function drainBEP20Token(IERC20 _token, uint256 _amount, address _to) external onlyOwner {\n        _token.safeTransfer(_to, _amount);\n    }\n}",
  "sourcePath": "/Volumes/Work/project/lucky-lottery/Lottery-Smart-contract/contracts/referral/LotteryReferral.sol",
  "compiler": {
    "name": "solc",
    "version": "0.8.1+commit.df193b15.Emscripten.clang"
  },
  "schemaVersion": "3.4.7",
  "updatedAt": "2022-05-27T09:15:07.002Z",
  "devdoc": {
    "kind": "dev",
    "methods": {
      "owner()": {
        "details": "Returns the address of the current owner."
      },
      "renounceOwnership()": {
        "details": "Leaves the contract without owner. It will not be possible to call `onlyOwner` functions anymore. Can only be called by the current owner. NOTE: Renouncing ownership will leave the contract without an owner, thereby removing any functionality that is only available to the owner."
      },
      "transferOwnership(address)": {
        "details": "Transfers ownership of the contract to a new account (`newOwner`). Can only be called by the current owner."
      }
    },
    "version": 1
  },
  "userdoc": {
    "kind": "user",
    "methods": {},
    "version": 1
  }
}